{
	"contracts/ParticipationToken_flattened.sol": {
		"ParticipationToken": {
			"abi": [
				{
					"inputs": [
						{
							"internalType": "address",
							"name": "initialOwner",
							"type": "address"
						}
					],
					"stateMutability": "nonpayable",
					"type": "constructor"
				},
				{
					"inputs": [],
					"name": "ECDSAInvalidSignature",
					"type": "error"
				},
				{
					"inputs": [
						{
							"internalType": "uint256",
							"name": "length",
							"type": "uint256"
						}
					],
					"name": "ECDSAInvalidSignatureLength",
					"type": "error"
				},
				{
					"inputs": [
						{
							"internalType": "bytes32",
							"name": "s",
							"type": "bytes32"
						}
					],
					"name": "ECDSAInvalidSignatureS",
					"type": "error"
				},
				{
					"inputs": [
						{
							"internalType": "address",
							"name": "spender",
							"type": "address"
						},
						{
							"internalType": "uint256",
							"name": "allowance",
							"type": "uint256"
						},
						{
							"internalType": "uint256",
							"name": "needed",
							"type": "uint256"
						}
					],
					"name": "ERC20InsufficientAllowance",
					"type": "error"
				},
				{
					"inputs": [
						{
							"internalType": "address",
							"name": "sender",
							"type": "address"
						},
						{
							"internalType": "uint256",
							"name": "balance",
							"type": "uint256"
						},
						{
							"internalType": "uint256",
							"name": "needed",
							"type": "uint256"
						}
					],
					"name": "ERC20InsufficientBalance",
					"type": "error"
				},
				{
					"inputs": [
						{
							"internalType": "address",
							"name": "approver",
							"type": "address"
						}
					],
					"name": "ERC20InvalidApprover",
					"type": "error"
				},
				{
					"inputs": [
						{
							"internalType": "address",
							"name": "receiver",
							"type": "address"
						}
					],
					"name": "ERC20InvalidReceiver",
					"type": "error"
				},
				{
					"inputs": [
						{
							"internalType": "address",
							"name": "sender",
							"type": "address"
						}
					],
					"name": "ERC20InvalidSender",
					"type": "error"
				},
				{
					"inputs": [
						{
							"internalType": "address",
							"name": "spender",
							"type": "address"
						}
					],
					"name": "ERC20InvalidSpender",
					"type": "error"
				},
				{
					"inputs": [
						{
							"internalType": "uint256",
							"name": "deadline",
							"type": "uint256"
						}
					],
					"name": "ERC2612ExpiredSignature",
					"type": "error"
				},
				{
					"inputs": [
						{
							"internalType": "address",
							"name": "signer",
							"type": "address"
						},
						{
							"internalType": "address",
							"name": "owner",
							"type": "address"
						}
					],
					"name": "ERC2612InvalidSigner",
					"type": "error"
				},
				{
					"inputs": [
						{
							"internalType": "address",
							"name": "account",
							"type": "address"
						},
						{
							"internalType": "uint256",
							"name": "currentNonce",
							"type": "uint256"
						}
					],
					"name": "InvalidAccountNonce",
					"type": "error"
				},
				{
					"inputs": [],
					"name": "InvalidShortString",
					"type": "error"
				},
				{
					"inputs": [
						{
							"internalType": "address",
							"name": "owner",
							"type": "address"
						}
					],
					"name": "OwnableInvalidOwner",
					"type": "error"
				},
				{
					"inputs": [
						{
							"internalType": "address",
							"name": "account",
							"type": "address"
						}
					],
					"name": "OwnableUnauthorizedAccount",
					"type": "error"
				},
				{
					"inputs": [
						{
							"internalType": "string",
							"name": "str",
							"type": "string"
						}
					],
					"name": "StringTooLong",
					"type": "error"
				},
				{
					"anonymous": false,
					"inputs": [
						{
							"indexed": true,
							"internalType": "address",
							"name": "owner",
							"type": "address"
						},
						{
							"indexed": true,
							"internalType": "address",
							"name": "spender",
							"type": "address"
						},
						{
							"indexed": false,
							"internalType": "uint256",
							"name": "value",
							"type": "uint256"
						}
					],
					"name": "Approval",
					"type": "event"
				},
				{
					"anonymous": false,
					"inputs": [],
					"name": "EIP712DomainChanged",
					"type": "event"
				},
				{
					"anonymous": false,
					"inputs": [
						{
							"indexed": true,
							"internalType": "address",
							"name": "previousOwner",
							"type": "address"
						},
						{
							"indexed": true,
							"internalType": "address",
							"name": "newOwner",
							"type": "address"
						}
					],
					"name": "OwnershipTransferred",
					"type": "event"
				},
				{
					"anonymous": false,
					"inputs": [
						{
							"indexed": true,
							"internalType": "address",
							"name": "from",
							"type": "address"
						},
						{
							"indexed": true,
							"internalType": "address",
							"name": "to",
							"type": "address"
						},
						{
							"indexed": false,
							"internalType": "uint256",
							"name": "value",
							"type": "uint256"
						}
					],
					"name": "Transfer",
					"type": "event"
				},
				{
					"inputs": [],
					"name": "DOMAIN_SEPARATOR",
					"outputs": [
						{
							"internalType": "bytes32",
							"name": "",
							"type": "bytes32"
						}
					],
					"stateMutability": "view",
					"type": "function"
				},
				{
					"inputs": [
						{
							"internalType": "address",
							"name": "owner",
							"type": "address"
						},
						{
							"internalType": "address",
							"name": "spender",
							"type": "address"
						}
					],
					"name": "allowance",
					"outputs": [
						{
							"internalType": "uint256",
							"name": "",
							"type": "uint256"
						}
					],
					"stateMutability": "view",
					"type": "function"
				},
				{
					"inputs": [
						{
							"internalType": "address",
							"name": "spender",
							"type": "address"
						},
						{
							"internalType": "uint256",
							"name": "value",
							"type": "uint256"
						}
					],
					"name": "approve",
					"outputs": [
						{
							"internalType": "bool",
							"name": "",
							"type": "bool"
						}
					],
					"stateMutability": "nonpayable",
					"type": "function"
				},
				{
					"inputs": [
						{
							"internalType": "address",
							"name": "account",
							"type": "address"
						}
					],
					"name": "balanceOf",
					"outputs": [
						{
							"internalType": "uint256",
							"name": "",
							"type": "uint256"
						}
					],
					"stateMutability": "view",
					"type": "function"
				},
				{
					"inputs": [
						{
							"internalType": "uint256",
							"name": "value",
							"type": "uint256"
						}
					],
					"name": "burn",
					"outputs": [],
					"stateMutability": "nonpayable",
					"type": "function"
				},
				{
					"inputs": [
						{
							"internalType": "address",
							"name": "account",
							"type": "address"
						},
						{
							"internalType": "uint256",
							"name": "value",
							"type": "uint256"
						}
					],
					"name": "burnFrom",
					"outputs": [],
					"stateMutability": "nonpayable",
					"type": "function"
				},
				{
					"inputs": [],
					"name": "decimals",
					"outputs": [
						{
							"internalType": "uint8",
							"name": "",
							"type": "uint8"
						}
					],
					"stateMutability": "view",
					"type": "function"
				},
				{
					"inputs": [],
					"name": "eip712Domain",
					"outputs": [
						{
							"internalType": "bytes1",
							"name": "fields",
							"type": "bytes1"
						},
						{
							"internalType": "string",
							"name": "name",
							"type": "string"
						},
						{
							"internalType": "string",
							"name": "version",
							"type": "string"
						},
						{
							"internalType": "uint256",
							"name": "chainId",
							"type": "uint256"
						},
						{
							"internalType": "address",
							"name": "verifyingContract",
							"type": "address"
						},
						{
							"internalType": "bytes32",
							"name": "salt",
							"type": "bytes32"
						},
						{
							"internalType": "uint256[]",
							"name": "extensions",
							"type": "uint256[]"
						}
					],
					"stateMutability": "view",
					"type": "function"
				},
				{
					"inputs": [
						{
							"internalType": "address",
							"name": "to",
							"type": "address"
						},
						{
							"internalType": "uint256",
							"name": "amount",
							"type": "uint256"
						}
					],
					"name": "mint",
					"outputs": [],
					"stateMutability": "nonpayable",
					"type": "function"
				},
				{
					"inputs": [],
					"name": "name",
					"outputs": [
						{
							"internalType": "string",
							"name": "",
							"type": "string"
						}
					],
					"stateMutability": "view",
					"type": "function"
				},
				{
					"inputs": [
						{
							"internalType": "address",
							"name": "owner",
							"type": "address"
						}
					],
					"name": "nonces",
					"outputs": [
						{
							"internalType": "uint256",
							"name": "",
							"type": "uint256"
						}
					],
					"stateMutability": "view",
					"type": "function"
				},
				{
					"inputs": [],
					"name": "owner",
					"outputs": [
						{
							"internalType": "address",
							"name": "",
							"type": "address"
						}
					],
					"stateMutability": "view",
					"type": "function"
				},
				{
					"inputs": [
						{
							"internalType": "address",
							"name": "owner",
							"type": "address"
						},
						{
							"internalType": "address",
							"name": "spender",
							"type": "address"
						},
						{
							"internalType": "uint256",
							"name": "value",
							"type": "uint256"
						},
						{
							"internalType": "uint256",
							"name": "deadline",
							"type": "uint256"
						},
						{
							"internalType": "uint8",
							"name": "v",
							"type": "uint8"
						},
						{
							"internalType": "bytes32",
							"name": "r",
							"type": "bytes32"
						},
						{
							"internalType": "bytes32",
							"name": "s",
							"type": "bytes32"
						}
					],
					"name": "permit",
					"outputs": [],
					"stateMutability": "nonpayable",
					"type": "function"
				},
				{
					"inputs": [],
					"name": "renounceOwnership",
					"outputs": [],
					"stateMutability": "nonpayable",
					"type": "function"
				},
				{
					"inputs": [],
					"name": "symbol",
					"outputs": [
						{
							"internalType": "string",
							"name": "",
							"type": "string"
						}
					],
					"stateMutability": "view",
					"type": "function"
				},
				{
					"inputs": [],
					"name": "totalSupply",
					"outputs": [
						{
							"internalType": "uint256",
							"name": "",
							"type": "uint256"
						}
					],
					"stateMutability": "view",
					"type": "function"
				},
				{
					"inputs": [
						{
							"internalType": "address",
							"name": "to",
							"type": "address"
						},
						{
							"internalType": "uint256",
							"name": "value",
							"type": "uint256"
						}
					],
					"name": "transfer",
					"outputs": [
						{
							"internalType": "bool",
							"name": "",
							"type": "bool"
						}
					],
					"stateMutability": "nonpayable",
					"type": "function"
				},
				{
					"inputs": [
						{
							"internalType": "address",
							"name": "from",
							"type": "address"
						},
						{
							"internalType": "address",
							"name": "to",
							"type": "address"
						},
						{
							"internalType": "uint256",
							"name": "value",
							"type": "uint256"
						}
					],
					"name": "transferFrom",
					"outputs": [
						{
							"internalType": "bool",
							"name": "",
							"type": "bool"
						}
					],
					"stateMutability": "nonpayable",
					"type": "function"
				},
				{
					"inputs": [
						{
							"internalType": "address",
							"name": "newOwner",
							"type": "address"
						}
					],
					"name": "transferOwnership",
					"outputs": [],
					"stateMutability": "nonpayable",
					"type": "function"
				},
				{
					"inputs": [
						{
							"internalType": "address",
							"name": "from",
							"type": "address"
						},
						{
							"internalType": "address",
							"name": "to",
							"type": "address"
						},
						{
							"internalType": "uint256",
							"name": "amount",
							"type": "uint256"
						},
						{
							"internalType": "address",
							"name": "contractAddress",
							"type": "address"
						}
					],
					"name": "transferParticipationToken",
					"outputs": [
						{
							"internalType": "bool",
							"name": "",
							"type": "bool"
						}
					],
					"stateMutability": "nonpayable",
					"type": "function"
				}
			],
			"devdoc": {
				"errors": {
					"ECDSAInvalidSignature()": [
						{
							"details": "The signature derives the `address(0)`."
						}
					],
					"ECDSAInvalidSignatureLength(uint256)": [
						{
							"details": "The signature has an invalid length."
						}
					],
					"ECDSAInvalidSignatureS(bytes32)": [
						{
							"details": "The signature has an S value that is in the upper half order."
						}
					],
					"ERC20InsufficientAllowance(address,uint256,uint256)": [
						{
							"details": "Indicates a failure with the `spender`’s `allowance`. Used in transfers.",
							"params": {
								"allowance": "Amount of tokens a `spender` is allowed to operate with.",
								"needed": "Minimum amount required to perform a transfer.",
								"spender": "Address that may be allowed to operate on tokens without being their owner."
							}
						}
					],
					"ERC20InsufficientBalance(address,uint256,uint256)": [
						{
							"details": "Indicates an error related to the current `balance` of a `sender`. Used in transfers.",
							"params": {
								"balance": "Current balance for the interacting account.",
								"needed": "Minimum amount required to perform a transfer.",
								"sender": "Address whose tokens are being transferred."
							}
						}
					],
					"ERC20InvalidApprover(address)": [
						{
							"details": "Indicates a failure with the `approver` of a token to be approved. Used in approvals.",
							"params": {
								"approver": "Address initiating an approval operation."
							}
						}
					],
					"ERC20InvalidReceiver(address)": [
						{
							"details": "Indicates a failure with the token `receiver`. Used in transfers.",
							"params": {
								"receiver": "Address to which tokens are being transferred."
							}
						}
					],
					"ERC20InvalidSender(address)": [
						{
							"details": "Indicates a failure with the token `sender`. Used in transfers.",
							"params": {
								"sender": "Address whose tokens are being transferred."
							}
						}
					],
					"ERC20InvalidSpender(address)": [
						{
							"details": "Indicates a failure with the `spender` to be approved. Used in approvals.",
							"params": {
								"spender": "Address that may be allowed to operate on tokens without being their owner."
							}
						}
					],
					"ERC2612ExpiredSignature(uint256)": [
						{
							"details": "Permit deadline has expired."
						}
					],
					"ERC2612InvalidSigner(address,address)": [
						{
							"details": "Mismatched signature."
						}
					],
					"InvalidAccountNonce(address,uint256)": [
						{
							"details": "The nonce used for an `account` is not the expected current nonce."
						}
					],
					"OwnableInvalidOwner(address)": [
						{
							"details": "The owner is not a valid owner account. (eg. `address(0)`)"
						}
					],
					"OwnableUnauthorizedAccount(address)": [
						{
							"details": "The caller account is not authorized to perform an operation."
						}
					]
				},
				"events": {
					"Approval(address,address,uint256)": {
						"details": "Emitted when the allowance of a `spender` for an `owner` is set by a call to {approve}. `value` is the new allowance."
					},
					"EIP712DomainChanged()": {
						"details": "MAY be emitted to signal that the domain could have changed."
					},
					"Transfer(address,address,uint256)": {
						"details": "Emitted when `value` tokens are moved from one account (`from`) to another (`to`). Note that `value` may be zero."
					}
				},
				"kind": "dev",
				"methods": {
					"DOMAIN_SEPARATOR()": {
						"details": "Returns the domain separator used in the encoding of the signature for {permit}, as defined by {EIP712}."
					},
					"allowance(address,address)": {
						"details": "See {IERC20-allowance}."
					},
					"approve(address,uint256)": {
						"details": "See {IERC20-approve}. NOTE: If `value` is the maximum `uint256`, the allowance is not updated on `transferFrom`. This is semantically equivalent to an infinite approval. Requirements: - `spender` cannot be the zero address."
					},
					"balanceOf(address)": {
						"details": "See {IERC20-balanceOf}."
					},
					"burn(uint256)": {
						"details": "Destroys a `value` amount of tokens from the caller. See {ERC20-_burn}."
					},
					"burnFrom(address,uint256)": {
						"details": "Destroys a `value` amount of tokens from `account`, deducting from the caller's allowance. See {ERC20-_burn} and {ERC20-allowance}. Requirements: - the caller must have allowance for ``accounts``'s tokens of at least `value`."
					},
					"decimals()": {
						"details": "Returns the number of decimals used to get its user representation. For example, if `decimals` equals `2`, a balance of `505` tokens should be displayed to a user as `5.05` (`505 / 10 ** 2`). Tokens usually opt for a value of 18, imitating the relationship between Ether and Wei. This is the default value returned by this function, unless it's overridden. NOTE: This information is only used for _display_ purposes: it in no way affects any of the arithmetic of the contract, including {IERC20-balanceOf} and {IERC20-transfer}."
					},
					"eip712Domain()": {
						"details": "See {IERC-5267}."
					},
					"name()": {
						"details": "Returns the name of the token."
					},
					"nonces(address)": {
						"details": "Returns the current nonce for `owner`. This value must be included whenever a signature is generated for {permit}. Every successful call to {permit} increases ``owner``'s nonce by one. This prevents a signature from being used multiple times."
					},
					"owner()": {
						"details": "Returns the address of the current owner."
					},
					"permit(address,address,uint256,uint256,uint8,bytes32,bytes32)": {
						"details": "Sets `value` as the allowance of `spender` over ``owner``'s tokens, given ``owner``'s signed approval. IMPORTANT: The same issues {IERC20-approve} has related to transaction ordering also apply here. Emits an {Approval} event. Requirements: - `spender` cannot be the zero address. - `deadline` must be a timestamp in the future. - `v`, `r` and `s` must be a valid `secp256k1` signature from `owner` over the EIP712-formatted function arguments. - the signature must use ``owner``'s current nonce (see {nonces}). For more information on the signature format, see the https://eips.ethereum.org/EIPS/eip-2612#specification[relevant EIP section]. CAUTION: See Security Considerations above."
					},
					"renounceOwnership()": {
						"details": "Leaves the contract without owner. It will not be possible to call `onlyOwner` functions. Can only be called by the current owner. NOTE: Renouncing ownership will leave the contract without an owner, thereby disabling any functionality that is only available to the owner."
					},
					"symbol()": {
						"details": "Returns the symbol of the token, usually a shorter version of the name."
					},
					"totalSupply()": {
						"details": "See {IERC20-totalSupply}."
					},
					"transfer(address,uint256)": {
						"details": "See {IERC20-transfer}. Requirements: - `to` cannot be the zero address. - the caller must have a balance of at least `value`."
					},
					"transferFrom(address,address,uint256)": {
						"details": "See {IERC20-transferFrom}. Emits an {Approval} event indicating the updated allowance. This is not required by the EIP. See the note at the beginning of {ERC20}. NOTE: Does not update the allowance if the current allowance is the maximum `uint256`. Requirements: - `from` and `to` cannot be the zero address. - `from` must have a balance of at least `value`. - the caller must have allowance for ``from``'s tokens of at least `value`."
					},
					"transferOwnership(address)": {
						"details": "Transfers ownership of the contract to a new account (`newOwner`). Can only be called by the current owner."
					}
				},
				"version": 1
			},
			"evm": {
				"assembly": "    /* \"contracts/ParticipationToken_flattened.sol\":80743:81428  contract ParticipationToken is ERC20, ERC20Burnable, Ownable, ERC20Permit {... */\n  mstore(0x40, 0x0160)\n    /* \"contracts/ParticipationToken_flattened.sol\":80823:80978  constructor(address initialOwner)... */\n  callvalue\n  dup1\n  iszero\n  tag_1\n  jumpi\n  0x00\n  dup1\n  revert\ntag_1:\n  pop\n  mload(0x40)\n  sub(codesize, bytecodeSize)\n  dup1\n  bytecodeSize\n  dup4\n  codecopy\n  dup2\n  dup2\n  add\n  0x40\n  mstore\n  dup2\n  add\n  swap1\n  tag_2\n  swap2\n  swap1\n  tag_3\n  jump\t// in\ntag_2:\n    /* \"contracts/ParticipationToken_flattened.sol\":78282:78334  constructor(string memory name) EIP712(name, \"1\") {} */\n  mload(0x40)\n  dup1\n  0x40\n  add\n  0x40\n  mstore\n  dup1\n  0x12\n  dup2\n  mstore\n  0x20\n  add\n  0x50617274696369706174696f6e546f6b656e0000000000000000000000000000\n  dup2\n  mstore\n  pop\n    /* \"contracts/ParticipationToken_flattened.sol\":78321:78325  name */\n  dup1\n    /* \"contracts/ParticipationToken_flattened.sol\":36943:37374  constructor(string memory name, string memory version) {... */\n  mload(0x40)\n  dup1\n  0x40\n  add\n  0x40\n  mstore\n  dup1\n  0x01\n  dup2\n  mstore\n  0x20\n  add\n  0x3100000000000000000000000000000000000000000000000000000000000000\n  dup2\n  mstore\n  pop\n    /* \"contracts/ParticipationToken_flattened.sol\":80916:80928  initialOwner */\n  dup4\n    /* \"contracts/ParticipationToken_flattened.sol\":67673:67786  constructor(string memory name_, string memory symbol_) {... */\n  mload(0x40)\n  dup1\n  0x40\n  add\n  0x40\n  mstore\n  dup1\n  0x12\n  dup2\n  mstore\n  0x20\n  add\n  0x50617274696369706174696f6e546f6b656e0000000000000000000000000000\n  dup2\n  mstore\n  pop\n  mload(0x40)\n  dup1\n  0x40\n  add\n  0x40\n  mstore\n  dup1\n  0x03\n  dup2\n  mstore\n  0x20\n  add\n  0x50544b0000000000000000000000000000000000000000000000000000000000\n  dup2\n  mstore\n  pop\n    /* \"contracts/ParticipationToken_flattened.sol\":67747:67752  name_ */\n  dup2\n    /* \"contracts/ParticipationToken_flattened.sol\":67739:67744  _name */\n  0x03\n    /* \"contracts/ParticipationToken_flattened.sol\":67739:67752  _name = name_ */\n  swap1\n  dup2\n  tag_10\n  swap2\n  swap1\n  tag_11\n  jump\t// in\ntag_10:\n  pop\n    /* \"contracts/ParticipationToken_flattened.sol\":67772:67779  symbol_ */\n  dup1\n    /* \"contracts/ParticipationToken_flattened.sol\":67762:67769  _symbol */\n  0x04\n    /* \"contracts/ParticipationToken_flattened.sol\":67762:67779  _symbol = symbol_ */\n  swap1\n  dup2\n  tag_12\n  swap2\n  swap1\n  tag_11\n  jump\t// in\ntag_12:\n  pop\n    /* \"contracts/ParticipationToken_flattened.sol\":67673:67786  constructor(string memory name_, string memory symbol_) {... */\n  pop\n  pop\n    /* \"contracts/ParticipationToken_flattened.sol\":60662:60663  0 */\n  0x00\n    /* \"contracts/ParticipationToken_flattened.sol\":60638:60664  initialOwner == address(0) */\n  0xffffffffffffffffffffffffffffffffffffffff\n  and\n    /* \"contracts/ParticipationToken_flattened.sol\":60638:60650  initialOwner */\n  dup2\n    /* \"contracts/ParticipationToken_flattened.sol\":60638:60664  initialOwner == address(0) */\n  0xffffffffffffffffffffffffffffffffffffffff\n  and\n  sub\n    /* \"contracts/ParticipationToken_flattened.sol\":60634:60729  if (initialOwner == address(0)) {... */\n  tag_14\n  jumpi\n    /* \"contracts/ParticipationToken_flattened.sol\":60715:60716  0 */\n  0x00\n    /* \"contracts/ParticipationToken_flattened.sol\":60687:60718  OwnableInvalidOwner(address(0)) */\n  mload(0x40)\n  0x1e4fbdf700000000000000000000000000000000000000000000000000000000\n  dup2\n  mstore\n  0x04\n  add\n  tag_15\n  swap2\n  swap1\n  tag_16\n  jump\t// in\ntag_15:\n  mload(0x40)\n  dup1\n  swap2\n  sub\n  swap1\n  revert\n    /* \"contracts/ParticipationToken_flattened.sol\":60634:60729  if (initialOwner == address(0)) {... */\ntag_14:\n    /* \"contracts/ParticipationToken_flattened.sol\":60738:60770  _transferOwnership(initialOwner) */\n  tag_17\n    /* \"contracts/ParticipationToken_flattened.sol\":60757:60769  initialOwner */\n  dup2\n    /* \"contracts/ParticipationToken_flattened.sol\":60738:60756  _transferOwnership */\n  shl(0x20, tag_18)\n    /* \"contracts/ParticipationToken_flattened.sol\":60738:60770  _transferOwnership(initialOwner) */\n  0x20\n  shr\n  jump\t// in\ntag_17:\n    /* \"contracts/ParticipationToken_flattened.sol\":60590:60777  constructor(address initialOwner) {... */\n  pop\n    /* \"contracts/ParticipationToken_flattened.sol\":37016:37061  name.toShortStringWithFallback(_nameFallback) */\n  tag_20\n    /* \"contracts/ParticipationToken_flattened.sol\":37047:37060  _nameFallback */\n  0x06\n    /* \"contracts/ParticipationToken_flattened.sol\":37016:37020  name */\n  dup4\n    /* \"contracts/ParticipationToken_flattened.sol\":37016:37046  name.toShortStringWithFallback */\n  shl(0x20, tag_21)\n  swap1\n    /* \"contracts/ParticipationToken_flattened.sol\":37016:37061  name.toShortStringWithFallback(_nameFallback) */\n  swap2\n  swap1\n  0x20\n  shr\n  jump\t// in\ntag_20:\n    /* \"contracts/ParticipationToken_flattened.sol\":37008:37061  _name = name.toShortStringWithFallback(_nameFallback) */\n  0x0120\n  dup2\n  dup2\n  mstore\n  pop\n  pop\n    /* \"contracts/ParticipationToken_flattened.sol\":37082:37133  version.toShortStringWithFallback(_versionFallback) */\n  tag_22\n    /* \"contracts/ParticipationToken_flattened.sol\":37116:37132  _versionFallback */\n  0x07\n    /* \"contracts/ParticipationToken_flattened.sol\":37082:37089  version */\n  dup3\n    /* \"contracts/ParticipationToken_flattened.sol\":37082:37115  version.toShortStringWithFallback */\n  shl(0x20, tag_21)\n  swap1\n    /* \"contracts/ParticipationToken_flattened.sol\":37082:37133  version.toShortStringWithFallback(_versionFallback) */\n  swap2\n  swap1\n  0x20\n  shr\n  jump\t// in\ntag_22:\n    /* \"contracts/ParticipationToken_flattened.sol\":37071:37133  _version = version.toShortStringWithFallback(_versionFallback) */\n  0x0140\n  dup2\n  dup2\n  mstore\n  pop\n  pop\n    /* \"contracts/ParticipationToken_flattened.sol\":37173:37177  name */\n  dup2\n    /* \"contracts/ParticipationToken_flattened.sol\":37157:37179  keccak256(bytes(name)) */\n  dup1\n  mload\n  swap1\n  0x20\n  add\n  keccak256\n    /* \"contracts/ParticipationToken_flattened.sol\":37143:37179  _hashedName = keccak256(bytes(name)) */\n  0xe0\n  dup2\n  dup2\n  mstore\n  pop\n  pop\n    /* \"contracts/ParticipationToken_flattened.sol\":37222:37229  version */\n  dup1\n    /* \"contracts/ParticipationToken_flattened.sol\":37206:37231  keccak256(bytes(version)) */\n  dup1\n  mload\n  swap1\n  0x20\n  add\n  keccak256\n    /* \"contracts/ParticipationToken_flattened.sol\":37189:37231  _hashedVersion = keccak256(bytes(version)) */\n  0x0100\n  dup2\n  dup2\n  mstore\n  pop\n  pop\n    /* \"contracts/ParticipationToken_flattened.sol\":37259:37272  block.chainid */\n  chainid\n    /* \"contracts/ParticipationToken_flattened.sol\":37242:37272  _cachedChainId = block.chainid */\n  0xa0\n  dup2\n  dup2\n  mstore\n  pop\n  pop\n    /* \"contracts/ParticipationToken_flattened.sol\":37307:37330  _buildDomainSeparator() */\n  tag_23\n    /* \"contracts/ParticipationToken_flattened.sol\":37307:37328  _buildDomainSeparator */\n  shl(0x20, tag_24)\n    /* \"contracts/ParticipationToken_flattened.sol\":37307:37330  _buildDomainSeparator() */\n  0x20\n  shr\n  jump\t// in\ntag_23:\n    /* \"contracts/ParticipationToken_flattened.sol\":37282:37330  _cachedDomainSeparator = _buildDomainSeparator() */\n  0x80\n  dup2\n  dup2\n  mstore\n  pop\n  pop\n    /* \"contracts/ParticipationToken_flattened.sol\":37362:37366  this */\n  address\n    /* \"contracts/ParticipationToken_flattened.sol\":37340:37367  _cachedThis = address(this) */\n  0xffffffffffffffffffffffffffffffffffffffff\n  and\n  0xc0\n  dup2\n  0xffffffffffffffffffffffffffffffffffffffff\n  and\n  dup2\n  mstore\n  pop\n  pop\n    /* \"contracts/ParticipationToken_flattened.sol\":36943:37374  constructor(string memory name, string memory version) {... */\n  pop\n  pop\n    /* \"contracts/ParticipationToken_flattened.sol\":78282:78334  constructor(string memory name) EIP712(name, \"1\") {} */\n  pop\n    /* \"contracts/ParticipationToken_flattened.sol\":80823:80978  constructor(address initialOwner)... */\n  pop\n    /* \"contracts/ParticipationToken_flattened.sol\":80743:81428  contract ParticipationToken is ERC20, ERC20Burnable, Ownable, ERC20Permit {... */\n  jump(tag_27)\n    /* \"contracts/ParticipationToken_flattened.sol\":62277:62464  function _transferOwnership(address newOwner) internal virtual {... */\ntag_18:\n    /* \"contracts/ParticipationToken_flattened.sol\":62350:62366  address oldOwner */\n  0x00\n    /* \"contracts/ParticipationToken_flattened.sol\":62369:62375  _owner */\n  0x05\n  0x00\n  swap1\n  sload\n  swap1\n  0x0100\n  exp\n  swap1\n  div\n  0xffffffffffffffffffffffffffffffffffffffff\n  and\n    /* \"contracts/ParticipationToken_flattened.sol\":62350:62375  address oldOwner = _owner */\n  swap1\n  pop\n    /* \"contracts/ParticipationToken_flattened.sol\":62394:62402  newOwner */\n  dup2\n    /* \"contracts/ParticipationToken_flattened.sol\":62385:62391  _owner */\n  0x05\n  0x00\n    /* \"contracts/ParticipationToken_flattened.sol\":62385:62402  _owner = newOwner */\n  0x0100\n  exp\n  dup2\n  sload\n  dup2\n  0xffffffffffffffffffffffffffffffffffffffff\n  mul\n  not\n  and\n  swap1\n  dup4\n  0xffffffffffffffffffffffffffffffffffffffff\n  and\n  mul\n  or\n  swap1\n  sstore\n  pop\n    /* \"contracts/ParticipationToken_flattened.sol\":62448:62456  newOwner */\n  dup2\n    /* \"contracts/ParticipationToken_flattened.sol\":62417:62457  OwnershipTransferred(oldOwner, newOwner) */\n  0xffffffffffffffffffffffffffffffffffffffff\n  and\n    /* \"contracts/ParticipationToken_flattened.sol\":62438:62446  oldOwner */\n  dup2\n    /* \"contracts/ParticipationToken_flattened.sol\":62417:62457  OwnershipTransferred(oldOwner, newOwner) */\n  0xffffffffffffffffffffffffffffffffffffffff\n  and\n  0x8be0079c531659141344cd1fd0a4f28419497f9722a3daafe3b4186f6b6457e0\n  mload(0x40)\n  mload(0x40)\n  dup1\n  swap2\n  sub\n  swap1\n  log3\n    /* \"contracts/ParticipationToken_flattened.sol\":62340:62464  {... */\n  pop\n    /* \"contracts/ParticipationToken_flattened.sol\":62277:62464  function _transferOwnership(address newOwner) internal virtual {... */\n  pop\n  jump\t// out\n    /* \"contracts/ParticipationToken_flattened.sol\":9129:9469  function toShortStringWithFallback(string memory value, string storage store) internal returns (ShortString) {... */\ntag_21:\n    /* \"contracts/ParticipationToken_flattened.sol\":9225:9236  ShortString */\n  0x00\n    /* \"contracts/ParticipationToken_flattened.sol\":9274:9276  32 */\n  0x20\n    /* \"contracts/ParticipationToken_flattened.sol\":9258:9263  value */\n  dup4\n    /* \"contracts/ParticipationToken_flattened.sol\":9252:9271  bytes(value).length */\n  mload\n    /* \"contracts/ParticipationToken_flattened.sol\":9252:9276  bytes(value).length < 32 */\n  lt\n    /* \"contracts/ParticipationToken_flattened.sol\":9248:9463  if (bytes(value).length < 32) {... */\n  iszero\n  tag_30\n  jumpi\n    /* \"contracts/ParticipationToken_flattened.sol\":9299:9319  toShortString(value) */\n  tag_31\n    /* \"contracts/ParticipationToken_flattened.sol\":9313:9318  value */\n  dup4\n    /* \"contracts/ParticipationToken_flattened.sol\":9299:9312  toShortString */\n  shl(0x20, tag_32)\n    /* \"contracts/ParticipationToken_flattened.sol\":9299:9319  toShortString(value) */\n  0x20\n  shr\n  jump\t// in\ntag_31:\n    /* \"contracts/ParticipationToken_flattened.sol\":9292:9319  return toShortString(value) */\n  swap1\n  pop\n  jump(tag_29)\n    /* \"contracts/ParticipationToken_flattened.sol\":9248:9463  if (bytes(value).length < 32) {... */\ntag_30:\n    /* \"contracts/ParticipationToken_flattened.sol\":9391:9396  value */\n  dup3\n    /* \"contracts/ParticipationToken_flattened.sol\":9350:9382  StorageSlot.getStringSlot(store) */\n  tag_34\n    /* \"contracts/ParticipationToken_flattened.sol\":9376:9381  store */\n  dup4\n    /* \"contracts/ParticipationToken_flattened.sol\":9350:9375  StorageSlot.getStringSlot */\n  shl(0x20, tag_35)\n    /* \"contracts/ParticipationToken_flattened.sol\":9350:9382  StorageSlot.getStringSlot(store) */\n  0x20\n  shr\n  jump\t// in\ntag_34:\n    /* \"contracts/ParticipationToken_flattened.sol\":9350:9388  StorageSlot.getStringSlot(store).value */\n  0x00\n  add\n    /* \"contracts/ParticipationToken_flattened.sol\":9350:9396  StorageSlot.getStringSlot(store).value = value */\n  swap1\n  dup2\n  tag_36\n  swap2\n  swap1\n  tag_11\n  jump\t// in\ntag_36:\n  pop\n    /* \"contracts/ParticipationToken_flattened.sol\":7605:7671  0x00000000000000000000000000000000000000000000000000000000000000FF */\n  0xff\n    /* \"contracts/ParticipationToken_flattened.sol\":9434:9451  FALLBACK_SENTINEL */\n  0x00\n  shl\n    /* \"contracts/ParticipationToken_flattened.sol\":9410:9452  return ShortString.wrap(FALLBACK_SENTINEL) */\n  swap1\n  pop\n    /* \"contracts/ParticipationToken_flattened.sol\":9129:9469  function toShortStringWithFallback(string memory value, string storage store) internal returns (ShortString) {... */\ntag_29:\n  swap3\n  swap2\n  pop\n  pop\n  jump\t// out\n    /* \"contracts/ParticipationToken_flattened.sol\":37728:37907  function _buildDomainSeparator() private view returns (bytes32) {... */\ntag_24:\n    /* \"contracts/ParticipationToken_flattened.sol\":37783:37790  bytes32 */\n  0x00\n    /* \"contracts/ParticipationToken_flattened.sol\":35694:35789  keccak256(\"EIP712Domain(string name,string version,uint256 chainId,address verifyingContract)\") */\n  0x8b73c3c69bb8fe3d512ecc4cf759cc79239f7b179b0ffacaa9a75d522b39400f\n    /* \"contracts/ParticipationToken_flattened.sol\":37841:37852  _hashedName */\n  mload(0xe0)\n    /* \"contracts/ParticipationToken_flattened.sol\":37854:37868  _hashedVersion */\n  mload(0x0100)\n    /* \"contracts/ParticipationToken_flattened.sol\":37870:37883  block.chainid */\n  chainid\n    /* \"contracts/ParticipationToken_flattened.sol\":37893:37897  this */\n  address\n    /* \"contracts/ParticipationToken_flattened.sol\":37819:37899  abi.encode(TYPE_HASH, _hashedName, _hashedVersion, block.chainid, address(this)) */\n  add(0x20, mload(0x40))\n  tag_38\n  swap6\n  swap5\n  swap4\n  swap3\n  swap2\n  swap1\n  tag_39\n  jump\t// in\ntag_38:\n  mload(0x40)\n  0x20\n  dup2\n  dup4\n  sub\n  sub\n  dup2\n  mstore\n  swap1\n  0x40\n  mstore\n    /* \"contracts/ParticipationToken_flattened.sol\":37809:37900  keccak256(abi.encode(TYPE_HASH, _hashedName, _hashedVersion, block.chainid, address(this))) */\n  dup1\n  mload\n  swap1\n  0x20\n  add\n  keccak256\n    /* \"contracts/ParticipationToken_flattened.sol\":37802:37900  return keccak256(abi.encode(TYPE_HASH, _hashedName, _hashedVersion, block.chainid, address(this))) */\n  swap1\n  pop\n    /* \"contracts/ParticipationToken_flattened.sol\":37728:37907  function _buildDomainSeparator() private view returns (bytes32) {... */\n  swap1\n  jump\t// out\n    /* \"contracts/ParticipationToken_flattened.sol\":7923:8209  function toShortString(string memory str) internal pure returns (ShortString) {... */\ntag_32:\n    /* \"contracts/ParticipationToken_flattened.sol\":7988:7999  ShortString */\n  0x00\n    /* \"contracts/ParticipationToken_flattened.sol\":8011:8028  bytes memory bstr */\n  dup1\n    /* \"contracts/ParticipationToken_flattened.sol\":8037:8040  str */\n  dup3\n    /* \"contracts/ParticipationToken_flattened.sol\":8011:8041  bytes memory bstr = bytes(str) */\n  swap1\n  pop\n    /* \"contracts/ParticipationToken_flattened.sol\":8069:8071  31 */\n  0x1f\n    /* \"contracts/ParticipationToken_flattened.sol\":8055:8059  bstr */\n  dup2\n    /* \"contracts/ParticipationToken_flattened.sol\":8055:8066  bstr.length */\n  mload\n    /* \"contracts/ParticipationToken_flattened.sol\":8055:8071  bstr.length > 31 */\n  gt\n    /* \"contracts/ParticipationToken_flattened.sol\":8051:8123  if (bstr.length > 31) {... */\n  iszero\n  tag_41\n  jumpi\n    /* \"contracts/ParticipationToken_flattened.sol\":8108:8111  str */\n  dup3\n    /* \"contracts/ParticipationToken_flattened.sol\":8094:8112  StringTooLong(str) */\n  mload(0x40)\n  0x305a27a900000000000000000000000000000000000000000000000000000000\n  dup2\n  mstore\n  0x04\n  add\n  tag_42\n  swap2\n  swap1\n  tag_43\n  jump\t// in\ntag_42:\n  mload(0x40)\n  dup1\n  swap2\n  sub\n  swap1\n  revert\n    /* \"contracts/ParticipationToken_flattened.sol\":8051:8123  if (bstr.length > 31) {... */\ntag_41:\n    /* \"contracts/ParticipationToken_flattened.sol\":8189:8193  bstr */\n  dup1\n    /* \"contracts/ParticipationToken_flattened.sol\":8189:8200  bstr.length */\n  mload\n    /* \"contracts/ParticipationToken_flattened.sol\":8180:8184  bstr */\n  dup2\n    /* \"contracts/ParticipationToken_flattened.sol\":8172:8185  bytes32(bstr) */\n  tag_44\n  swap1\n  tag_45\n  jump\t// in\ntag_44:\n    /* \"contracts/ParticipationToken_flattened.sol\":8164:8186  uint256(bytes32(bstr)) */\n  0x00\n  shr\n    /* \"contracts/ParticipationToken_flattened.sol\":8164:8200  uint256(bytes32(bstr)) | bstr.length */\n  or\n    /* \"contracts/ParticipationToken_flattened.sol\":8156:8201  bytes32(uint256(bytes32(bstr)) | bstr.length) */\n  0x00\n  shl\n    /* \"contracts/ParticipationToken_flattened.sol\":8132:8202  return ShortString.wrap(bytes32(uint256(bytes32(bstr)) | bstr.length)) */\n  swap2\n  pop\n  pop\n    /* \"contracts/ParticipationToken_flattened.sol\":7923:8209  function toShortString(string memory str) internal pure returns (ShortString) {... */\n  swap2\n  swap1\n  pop\n  jump\t// out\n    /* \"contracts/ParticipationToken_flattened.sol\":5439:5641  function getStringSlot(string storage store) internal pure returns (StringSlot storage r) {... */\ntag_35:\n    /* \"contracts/ParticipationToken_flattened.sol\":5507:5527  StringSlot storage r */\n  0x00\n    /* \"contracts/ParticipationToken_flattened.sol\":5615:5625  store.slot */\n  dup2\n    /* \"contracts/ParticipationToken_flattened.sol\":5605:5625  r.slot := store.slot */\n  swap1\n  pop\n    /* \"contracts/ParticipationToken_flattened.sol\":5439:5641  function getStringSlot(string storage store) internal pure returns (StringSlot storage r) {... */\n  swap2\n  swap1\n  pop\n  jump\t// out\n    /* \"#utility.yul\":88:205   */\ntag_48:\n    /* \"#utility.yul\":197:198   */\n  0x00\n    /* \"#utility.yul\":194:195   */\n  dup1\n    /* \"#utility.yul\":187:199   */\n  revert\n    /* \"#utility.yul\":334:460   */\ntag_50:\n    /* \"#utility.yul\":371:378   */\n  0x00\n    /* \"#utility.yul\":411:453   */\n  0xffffffffffffffffffffffffffffffffffffffff\n    /* \"#utility.yul\":404:409   */\n  dup3\n    /* \"#utility.yul\":400:454   */\n  and\n    /* \"#utility.yul\":389:454   */\n  swap1\n  pop\n    /* \"#utility.yul\":334:460   */\n  swap2\n  swap1\n  pop\n  jump\t// out\n    /* \"#utility.yul\":466:562   */\ntag_51:\n    /* \"#utility.yul\":503:510   */\n  0x00\n    /* \"#utility.yul\":532:556   */\n  tag_91\n    /* \"#utility.yul\":550:555   */\n  dup3\n    /* \"#utility.yul\":532:556   */\n  tag_50\n  jump\t// in\ntag_91:\n    /* \"#utility.yul\":521:556   */\n  swap1\n  pop\n    /* \"#utility.yul\":466:562   */\n  swap2\n  swap1\n  pop\n  jump\t// out\n    /* \"#utility.yul\":568:690   */\ntag_52:\n    /* \"#utility.yul\":641:665   */\n  tag_93\n    /* \"#utility.yul\":659:664   */\n  dup2\n    /* \"#utility.yul\":641:665   */\n  tag_51\n  jump\t// in\ntag_93:\n    /* \"#utility.yul\":634:639   */\n  dup2\n    /* \"#utility.yul\":631:666   */\n  eq\n    /* \"#utility.yul\":621:684   */\n  tag_94\n  jumpi\n    /* \"#utility.yul\":680:681   */\n  0x00\n    /* \"#utility.yul\":677:678   */\n  dup1\n    /* \"#utility.yul\":670:682   */\n  revert\n    /* \"#utility.yul\":621:684   */\ntag_94:\n    /* \"#utility.yul\":568:690   */\n  pop\n  jump\t// out\n    /* \"#utility.yul\":696:839   */\ntag_53:\n    /* \"#utility.yul\":753:758   */\n  0x00\n    /* \"#utility.yul\":784:790   */\n  dup2\n    /* \"#utility.yul\":778:791   */\n  mload\n    /* \"#utility.yul\":769:791   */\n  swap1\n  pop\n    /* \"#utility.yul\":800:833   */\n  tag_96\n    /* \"#utility.yul\":827:832   */\n  dup2\n    /* \"#utility.yul\":800:833   */\n  tag_52\n  jump\t// in\ntag_96:\n    /* \"#utility.yul\":696:839   */\n  swap3\n  swap2\n  pop\n  pop\n  jump\t// out\n    /* \"#utility.yul\":845:1196   */\ntag_3:\n    /* \"#utility.yul\":915:921   */\n  0x00\n    /* \"#utility.yul\":964:966   */\n  0x20\n    /* \"#utility.yul\":952:961   */\n  dup3\n    /* \"#utility.yul\":943:950   */\n  dup5\n    /* \"#utility.yul\":939:962   */\n  sub\n    /* \"#utility.yul\":935:967   */\n  slt\n    /* \"#utility.yul\":932:1051   */\n  iszero\n  tag_98\n  jumpi\n    /* \"#utility.yul\":970:1049   */\n  tag_99\n  tag_48\n  jump\t// in\ntag_99:\n    /* \"#utility.yul\":932:1051   */\ntag_98:\n    /* \"#utility.yul\":1090:1091   */\n  0x00\n    /* \"#utility.yul\":1115:1179   */\n  tag_100\n    /* \"#utility.yul\":1171:1178   */\n  dup5\n    /* \"#utility.yul\":1162:1168   */\n  dup3\n    /* \"#utility.yul\":1151:1160   */\n  dup6\n    /* \"#utility.yul\":1147:1169   */\n  add\n    /* \"#utility.yul\":1115:1179   */\n  tag_53\n  jump\t// in\ntag_100:\n    /* \"#utility.yul\":1105:1179   */\n  swap2\n  pop\n    /* \"#utility.yul\":1061:1189   */\n  pop\n    /* \"#utility.yul\":845:1196   */\n  swap3\n  swap2\n  pop\n  pop\n  jump\t// out\n    /* \"#utility.yul\":1202:1301   */\ntag_54:\n    /* \"#utility.yul\":1254:1260   */\n  0x00\n    /* \"#utility.yul\":1288:1293   */\n  dup2\n    /* \"#utility.yul\":1282:1294   */\n  mload\n    /* \"#utility.yul\":1272:1294   */\n  swap1\n  pop\n    /* \"#utility.yul\":1202:1301   */\n  swap2\n  swap1\n  pop\n  jump\t// out\n    /* \"#utility.yul\":1307:1487   */\ntag_55:\n    /* \"#utility.yul\":1355:1432   */\n  0x4e487b7100000000000000000000000000000000000000000000000000000000\n    /* \"#utility.yul\":1352:1353   */\n  0x00\n    /* \"#utility.yul\":1345:1433   */\n  mstore\n    /* \"#utility.yul\":1452:1456   */\n  0x41\n    /* \"#utility.yul\":1449:1450   */\n  0x04\n    /* \"#utility.yul\":1442:1457   */\n  mstore\n    /* \"#utility.yul\":1476:1480   */\n  0x24\n    /* \"#utility.yul\":1473:1474   */\n  0x00\n    /* \"#utility.yul\":1466:1481   */\n  revert\n    /* \"#utility.yul\":1493:1673   */\ntag_56:\n    /* \"#utility.yul\":1541:1618   */\n  0x4e487b7100000000000000000000000000000000000000000000000000000000\n    /* \"#utility.yul\":1538:1539   */\n  0x00\n    /* \"#utility.yul\":1531:1619   */\n  mstore\n    /* \"#utility.yul\":1638:1642   */\n  0x22\n    /* \"#utility.yul\":1635:1636   */\n  0x04\n    /* \"#utility.yul\":1628:1643   */\n  mstore\n    /* \"#utility.yul\":1662:1666   */\n  0x24\n    /* \"#utility.yul\":1659:1660   */\n  0x00\n    /* \"#utility.yul\":1652:1667   */\n  revert\n    /* \"#utility.yul\":1679:1999   */\ntag_57:\n    /* \"#utility.yul\":1723:1729   */\n  0x00\n    /* \"#utility.yul\":1760:1761   */\n  0x02\n    /* \"#utility.yul\":1754:1758   */\n  dup3\n    /* \"#utility.yul\":1750:1762   */\n  div\n    /* \"#utility.yul\":1740:1762   */\n  swap1\n  pop\n    /* \"#utility.yul\":1807:1808   */\n  0x01\n    /* \"#utility.yul\":1801:1805   */\n  dup3\n    /* \"#utility.yul\":1797:1809   */\n  and\n    /* \"#utility.yul\":1828:1846   */\n  dup1\n    /* \"#utility.yul\":1818:1899   */\n  tag_105\n  jumpi\n    /* \"#utility.yul\":1884:1888   */\n  0x7f\n    /* \"#utility.yul\":1876:1882   */\n  dup3\n    /* \"#utility.yul\":1872:1889   */\n  and\n    /* \"#utility.yul\":1862:1889   */\n  swap2\n  pop\n    /* \"#utility.yul\":1818:1899   */\ntag_105:\n    /* \"#utility.yul\":1946:1948   */\n  0x20\n    /* \"#utility.yul\":1938:1944   */\n  dup3\n    /* \"#utility.yul\":1935:1949   */\n  lt\n    /* \"#utility.yul\":1915:1933   */\n  dup2\n    /* \"#utility.yul\":1912:1950   */\n  sub\n    /* \"#utility.yul\":1909:1993   */\n  tag_106\n  jumpi\n    /* \"#utility.yul\":1965:1983   */\n  tag_107\n  tag_56\n  jump\t// in\ntag_107:\n    /* \"#utility.yul\":1909:1993   */\ntag_106:\n    /* \"#utility.yul\":1730:1999   */\n  pop\n    /* \"#utility.yul\":1679:1999   */\n  swap2\n  swap1\n  pop\n  jump\t// out\n    /* \"#utility.yul\":2005:2146   */\ntag_58:\n    /* \"#utility.yul\":2054:2058   */\n  0x00\n    /* \"#utility.yul\":2077:2080   */\n  dup2\n    /* \"#utility.yul\":2069:2080   */\n  swap1\n  pop\n    /* \"#utility.yul\":2100:2103   */\n  dup2\n    /* \"#utility.yul\":2097:2098   */\n  0x00\n    /* \"#utility.yul\":2090:2104   */\n  mstore\n    /* \"#utility.yul\":2134:2138   */\n  0x20\n    /* \"#utility.yul\":2131:2132   */\n  0x00\n    /* \"#utility.yul\":2121:2139   */\n  keccak256\n    /* \"#utility.yul\":2113:2139   */\n  swap1\n  pop\n    /* \"#utility.yul\":2005:2146   */\n  swap2\n  swap1\n  pop\n  jump\t// out\n    /* \"#utility.yul\":2152:2245   */\ntag_59:\n    /* \"#utility.yul\":2189:2195   */\n  0x00\n    /* \"#utility.yul\":2236:2238   */\n  0x20\n    /* \"#utility.yul\":2231:2233   */\n  0x1f\n    /* \"#utility.yul\":2224:2229   */\n  dup4\n    /* \"#utility.yul\":2220:2234   */\n  add\n    /* \"#utility.yul\":2216:2239   */\n  div\n    /* \"#utility.yul\":2206:2239   */\n  swap1\n  pop\n    /* \"#utility.yul\":2152:2245   */\n  swap2\n  swap1\n  pop\n  jump\t// out\n    /* \"#utility.yul\":2251:2358   */\ntag_60:\n    /* \"#utility.yul\":2295:2303   */\n  0x00\n    /* \"#utility.yul\":2345:2350   */\n  dup3\n    /* \"#utility.yul\":2339:2343   */\n  dup3\n    /* \"#utility.yul\":2335:2351   */\n  shl\n    /* \"#utility.yul\":2314:2351   */\n  swap1\n  pop\n    /* \"#utility.yul\":2251:2358   */\n  swap3\n  swap2\n  pop\n  pop\n  jump\t// out\n    /* \"#utility.yul\":2364:2757   */\ntag_61:\n    /* \"#utility.yul\":2433:2439   */\n  0x00\n    /* \"#utility.yul\":2483:2484   */\n  0x08\n    /* \"#utility.yul\":2471:2481   */\n  dup4\n    /* \"#utility.yul\":2467:2485   */\n  mul\n    /* \"#utility.yul\":2506:2603   */\n  tag_112\n    /* \"#utility.yul\":2536:2602   */\n  0xffffffffffffffffffffffffffffffffffffffffffffffffffffffffffffffff\n    /* \"#utility.yul\":2525:2534   */\n  dup3\n    /* \"#utility.yul\":2506:2603   */\n  tag_60\n  jump\t// in\ntag_112:\n    /* \"#utility.yul\":2624:2663   */\n  tag_113\n    /* \"#utility.yul\":2654:2662   */\n  dup7\n    /* \"#utility.yul\":2643:2652   */\n  dup4\n    /* \"#utility.yul\":2624:2663   */\n  tag_60\n  jump\t// in\ntag_113:\n    /* \"#utility.yul\":2612:2663   */\n  swap6\n  pop\n    /* \"#utility.yul\":2696:2700   */\n  dup1\n    /* \"#utility.yul\":2692:2701   */\n  not\n    /* \"#utility.yul\":2685:2690   */\n  dup5\n    /* \"#utility.yul\":2681:2702   */\n  and\n    /* \"#utility.yul\":2672:2702   */\n  swap4\n  pop\n    /* \"#utility.yul\":2745:2749   */\n  dup1\n    /* \"#utility.yul\":2735:2743   */\n  dup7\n    /* \"#utility.yul\":2731:2750   */\n  and\n    /* \"#utility.yul\":2724:2729   */\n  dup5\n    /* \"#utility.yul\":2721:2751   */\n  or\n    /* \"#utility.yul\":2711:2751   */\n  swap3\n  pop\n    /* \"#utility.yul\":2440:2757   */\n  pop\n  pop\n    /* \"#utility.yul\":2364:2757   */\n  swap4\n  swap3\n  pop\n  pop\n  pop\n  jump\t// out\n    /* \"#utility.yul\":2763:2840   */\ntag_62:\n    /* \"#utility.yul\":2800:2807   */\n  0x00\n    /* \"#utility.yul\":2829:2834   */\n  dup2\n    /* \"#utility.yul\":2818:2834   */\n  swap1\n  pop\n    /* \"#utility.yul\":2763:2840   */\n  swap2\n  swap1\n  pop\n  jump\t// out\n    /* \"#utility.yul\":2846:2906   */\ntag_63:\n    /* \"#utility.yul\":2874:2877   */\n  0x00\n    /* \"#utility.yul\":2895:2900   */\n  dup2\n    /* \"#utility.yul\":2888:2900   */\n  swap1\n  pop\n    /* \"#utility.yul\":2846:2906   */\n  swap2\n  swap1\n  pop\n  jump\t// out\n    /* \"#utility.yul\":2912:3054   */\ntag_64:\n    /* \"#utility.yul\":2962:2971   */\n  0x00\n    /* \"#utility.yul\":2995:3048   */\n  tag_117\n    /* \"#utility.yul\":3013:3047   */\n  tag_118\n    /* \"#utility.yul\":3022:3046   */\n  tag_119\n    /* \"#utility.yul\":3040:3045   */\n  dup5\n    /* \"#utility.yul\":3022:3046   */\n  tag_62\n  jump\t// in\ntag_119:\n    /* \"#utility.yul\":3013:3047   */\n  tag_63\n  jump\t// in\ntag_118:\n    /* \"#utility.yul\":2995:3048   */\n  tag_62\n  jump\t// in\ntag_117:\n    /* \"#utility.yul\":2982:3048   */\n  swap1\n  pop\n    /* \"#utility.yul\":2912:3054   */\n  swap2\n  swap1\n  pop\n  jump\t// out\n    /* \"#utility.yul\":3060:3135   */\ntag_65:\n    /* \"#utility.yul\":3103:3106   */\n  0x00\n    /* \"#utility.yul\":3124:3129   */\n  dup2\n    /* \"#utility.yul\":3117:3129   */\n  swap1\n  pop\n    /* \"#utility.yul\":3060:3135   */\n  swap2\n  swap1\n  pop\n  jump\t// out\n    /* \"#utility.yul\":3141:3410   */\ntag_66:\n    /* \"#utility.yul\":3251:3290   */\n  tag_122\n    /* \"#utility.yul\":3282:3289   */\n  dup4\n    /* \"#utility.yul\":3251:3290   */\n  tag_64\n  jump\t// in\ntag_122:\n    /* \"#utility.yul\":3312:3403   */\n  tag_123\n    /* \"#utility.yul\":3361:3402   */\n  tag_124\n    /* \"#utility.yul\":3385:3401   */\n  dup3\n    /* \"#utility.yul\":3361:3402   */\n  tag_65\n  jump\t// in\ntag_124:\n    /* \"#utility.yul\":3353:3359   */\n  dup5\n    /* \"#utility.yul\":3346:3350   */\n  dup5\n    /* \"#utility.yul\":3340:3351   */\n  sload\n    /* \"#utility.yul\":3312:3403   */\n  tag_61\n  jump\t// in\ntag_123:\n    /* \"#utility.yul\":3306:3310   */\n  dup3\n    /* \"#utility.yul\":3299:3404   */\n  sstore\n    /* \"#utility.yul\":3217:3410   */\n  pop\n    /* \"#utility.yul\":3141:3410   */\n  pop\n  pop\n  pop\n  jump\t// out\n    /* \"#utility.yul\":3416:3489   */\ntag_67:\n    /* \"#utility.yul\":3461:3464   */\n  0x00\n    /* \"#utility.yul\":3416:3489   */\n  swap1\n  jump\t// out\n    /* \"#utility.yul\":3495:3684   */\ntag_68:\n    /* \"#utility.yul\":3572:3604   */\n  tag_127\n  tag_67\n  jump\t// in\ntag_127:\n    /* \"#utility.yul\":3613:3678   */\n  tag_128\n    /* \"#utility.yul\":3671:3677   */\n  dup2\n    /* \"#utility.yul\":3663:3669   */\n  dup5\n    /* \"#utility.yul\":3657:3661   */\n  dup5\n    /* \"#utility.yul\":3613:3678   */\n  tag_66\n  jump\t// in\ntag_128:\n    /* \"#utility.yul\":3548:3684   */\n  pop\n    /* \"#utility.yul\":3495:3684   */\n  pop\n  pop\n  jump\t// out\n    /* \"#utility.yul\":3690:3876   */\ntag_69:\n    /* \"#utility.yul\":3750:3870   */\ntag_130:\n    /* \"#utility.yul\":3767:3770   */\n  dup2\n    /* \"#utility.yul\":3760:3765   */\n  dup2\n    /* \"#utility.yul\":3757:3771   */\n  lt\n    /* \"#utility.yul\":3750:3870   */\n  iszero\n  tag_132\n  jumpi\n    /* \"#utility.yul\":3821:3860   */\n  tag_133\n    /* \"#utility.yul\":3858:3859   */\n  0x00\n    /* \"#utility.yul\":3851:3856   */\n  dup3\n    /* \"#utility.yul\":3821:3860   */\n  tag_68\n  jump\t// in\ntag_133:\n    /* \"#utility.yul\":3794:3795   */\n  0x01\n    /* \"#utility.yul\":3787:3792   */\n  dup2\n    /* \"#utility.yul\":3783:3796   */\n  add\n    /* \"#utility.yul\":3774:3796   */\n  swap1\n  pop\n    /* \"#utility.yul\":3750:3870   */\n  jump(tag_130)\ntag_132:\n    /* \"#utility.yul\":3690:3876   */\n  pop\n  pop\n  jump\t// out\n    /* \"#utility.yul\":3882:4425   */\ntag_70:\n    /* \"#utility.yul\":3983:3985   */\n  0x1f\n    /* \"#utility.yul\":3978:3981   */\n  dup3\n    /* \"#utility.yul\":3975:3986   */\n  gt\n    /* \"#utility.yul\":3972:4418   */\n  iszero\n  tag_135\n  jumpi\n    /* \"#utility.yul\":4017:4055   */\n  tag_136\n    /* \"#utility.yul\":4049:4054   */\n  dup2\n    /* \"#utility.yul\":4017:4055   */\n  tag_58\n  jump\t// in\ntag_136:\n    /* \"#utility.yul\":4101:4130   */\n  tag_137\n    /* \"#utility.yul\":4119:4129   */\n  dup5\n    /* \"#utility.yul\":4101:4130   */\n  tag_59\n  jump\t// in\ntag_137:\n    /* \"#utility.yul\":4091:4099   */\n  dup2\n    /* \"#utility.yul\":4087:4131   */\n  add\n    /* \"#utility.yul\":4284:4286   */\n  0x20\n    /* \"#utility.yul\":4272:4282   */\n  dup6\n    /* \"#utility.yul\":4269:4287   */\n  lt\n    /* \"#utility.yul\":4266:4315   */\n  iszero\n  tag_138\n  jumpi\n    /* \"#utility.yul\":4305:4313   */\n  dup2\n    /* \"#utility.yul\":4290:4313   */\n  swap1\n  pop\n    /* \"#utility.yul\":4266:4315   */\ntag_138:\n    /* \"#utility.yul\":4328:4408   */\n  tag_139\n    /* \"#utility.yul\":4384:4406   */\n  tag_140\n    /* \"#utility.yul\":4402:4405   */\n  dup6\n    /* \"#utility.yul\":4384:4406   */\n  tag_59\n  jump\t// in\ntag_140:\n    /* \"#utility.yul\":4374:4382   */\n  dup4\n    /* \"#utility.yul\":4370:4407   */\n  add\n    /* \"#utility.yul\":4357:4368   */\n  dup3\n    /* \"#utility.yul\":4328:4408   */\n  tag_69\n  jump\t// in\ntag_139:\n    /* \"#utility.yul\":3987:4418   */\n  pop\n  pop\n    /* \"#utility.yul\":3972:4418   */\ntag_135:\n    /* \"#utility.yul\":3882:4425   */\n  pop\n  pop\n  pop\n  jump\t// out\n    /* \"#utility.yul\":4431:4548   */\ntag_71:\n    /* \"#utility.yul\":4485:4493   */\n  0x00\n    /* \"#utility.yul\":4535:4540   */\n  dup3\n    /* \"#utility.yul\":4529:4533   */\n  dup3\n    /* \"#utility.yul\":4525:4541   */\n  shr\n    /* \"#utility.yul\":4504:4541   */\n  swap1\n  pop\n    /* \"#utility.yul\":4431:4548   */\n  swap3\n  swap2\n  pop\n  pop\n  jump\t// out\n    /* \"#utility.yul\":4554:4723   */\ntag_72:\n    /* \"#utility.yul\":4598:4604   */\n  0x00\n    /* \"#utility.yul\":4631:4682   */\n  tag_143\n    /* \"#utility.yul\":4679:4680   */\n  0x00\n    /* \"#utility.yul\":4675:4681   */\n  not\n    /* \"#utility.yul\":4667:4672   */\n  dup5\n    /* \"#utility.yul\":4664:4665   */\n  0x08\n    /* \"#utility.yul\":4660:4673   */\n  mul\n    /* \"#utility.yul\":4631:4682   */\n  tag_71\n  jump\t// in\ntag_143:\n    /* \"#utility.yul\":4627:4683   */\n  not\n    /* \"#utility.yul\":4712:4716   */\n  dup1\n    /* \"#utility.yul\":4706:4710   */\n  dup4\n    /* \"#utility.yul\":4702:4717   */\n  and\n    /* \"#utility.yul\":4692:4717   */\n  swap2\n  pop\n    /* \"#utility.yul\":4605:4723   */\n  pop\n    /* \"#utility.yul\":4554:4723   */\n  swap3\n  swap2\n  pop\n  pop\n  jump\t// out\n    /* \"#utility.yul\":4728:5023   */\ntag_73:\n    /* \"#utility.yul\":4804:4808   */\n  0x00\n    /* \"#utility.yul\":4950:4979   */\n  tag_145\n    /* \"#utility.yul\":4975:4978   */\n  dup4\n    /* \"#utility.yul\":4969:4973   */\n  dup4\n    /* \"#utility.yul\":4950:4979   */\n  tag_72\n  jump\t// in\ntag_145:\n    /* \"#utility.yul\":4942:4979   */\n  swap2\n  pop\n    /* \"#utility.yul\":5012:5015   */\n  dup3\n    /* \"#utility.yul\":5009:5010   */\n  0x02\n    /* \"#utility.yul\":5005:5016   */\n  mul\n    /* \"#utility.yul\":4999:5003   */\n  dup3\n    /* \"#utility.yul\":4996:5017   */\n  or\n    /* \"#utility.yul\":4988:5017   */\n  swap1\n  pop\n    /* \"#utility.yul\":4728:5023   */\n  swap3\n  swap2\n  pop\n  pop\n  jump\t// out\n    /* \"#utility.yul\":5028:6423   */\ntag_11:\n    /* \"#utility.yul\":5145:5182   */\n  tag_147\n    /* \"#utility.yul\":5178:5181   */\n  dup3\n    /* \"#utility.yul\":5145:5182   */\n  tag_54\n  jump\t// in\ntag_147:\n    /* \"#utility.yul\":5247:5265   */\n  0xffffffffffffffff\n    /* \"#utility.yul\":5239:5245   */\n  dup2\n    /* \"#utility.yul\":5236:5266   */\n  gt\n    /* \"#utility.yul\":5233:5289   */\n  iszero\n  tag_148\n  jumpi\n    /* \"#utility.yul\":5269:5287   */\n  tag_149\n  tag_55\n  jump\t// in\ntag_149:\n    /* \"#utility.yul\":5233:5289   */\ntag_148:\n    /* \"#utility.yul\":5313:5351   */\n  tag_150\n    /* \"#utility.yul\":5345:5349   */\n  dup3\n    /* \"#utility.yul\":5339:5350   */\n  sload\n    /* \"#utility.yul\":5313:5351   */\n  tag_57\n  jump\t// in\ntag_150:\n    /* \"#utility.yul\":5398:5465   */\n  tag_151\n    /* \"#utility.yul\":5458:5464   */\n  dup3\n    /* \"#utility.yul\":5450:5456   */\n  dup3\n    /* \"#utility.yul\":5444:5448   */\n  dup6\n    /* \"#utility.yul\":5398:5465   */\n  tag_70\n  jump\t// in\ntag_151:\n    /* \"#utility.yul\":5492:5493   */\n  0x00\n    /* \"#utility.yul\":5516:5520   */\n  0x20\n    /* \"#utility.yul\":5503:5520   */\n  swap1\n  pop\n    /* \"#utility.yul\":5548:5550   */\n  0x1f\n    /* \"#utility.yul\":5540:5546   */\n  dup4\n    /* \"#utility.yul\":5537:5551   */\n  gt\n    /* \"#utility.yul\":5565:5566   */\n  0x01\n    /* \"#utility.yul\":5560:6178   */\n  dup2\n  eq\n  tag_153\n  jumpi\n    /* \"#utility.yul\":6222:6223   */\n  0x00\n    /* \"#utility.yul\":6239:6245   */\n  dup5\n    /* \"#utility.yul\":6236:6313   */\n  iszero\n  tag_154\n  jumpi\n    /* \"#utility.yul\":6288:6297   */\n  dup3\n    /* \"#utility.yul\":6283:6286   */\n  dup8\n    /* \"#utility.yul\":6279:6298   */\n  add\n    /* \"#utility.yul\":6273:6299   */\n  mload\n    /* \"#utility.yul\":6264:6299   */\n  swap1\n  pop\n    /* \"#utility.yul\":6236:6313   */\ntag_154:\n    /* \"#utility.yul\":6339:6406   */\n  tag_155\n    /* \"#utility.yul\":6399:6405   */\n  dup6\n    /* \"#utility.yul\":6392:6397   */\n  dup3\n    /* \"#utility.yul\":6339:6406   */\n  tag_73\n  jump\t// in\ntag_155:\n    /* \"#utility.yul\":6333:6337   */\n  dup7\n    /* \"#utility.yul\":6326:6407   */\n  sstore\n    /* \"#utility.yul\":6195:6417   */\n  pop\n    /* \"#utility.yul\":5530:6417   */\n  jump(tag_152)\n    /* \"#utility.yul\":5560:6178   */\ntag_153:\n    /* \"#utility.yul\":5612:5616   */\n  0x1f\n    /* \"#utility.yul\":5608:5617   */\n  not\n    /* \"#utility.yul\":5600:5606   */\n  dup5\n    /* \"#utility.yul\":5596:5618   */\n  and\n    /* \"#utility.yul\":5646:5683   */\n  tag_156\n    /* \"#utility.yul\":5678:5682   */\n  dup7\n    /* \"#utility.yul\":5646:5683   */\n  tag_58\n  jump\t// in\ntag_156:\n    /* \"#utility.yul\":5705:5706   */\n  0x00\n    /* \"#utility.yul\":5719:5927   */\ntag_157:\n    /* \"#utility.yul\":5733:5740   */\n  dup3\n    /* \"#utility.yul\":5730:5731   */\n  dup2\n    /* \"#utility.yul\":5727:5741   */\n  lt\n    /* \"#utility.yul\":5719:5927   */\n  iszero\n  tag_159\n  jumpi\n    /* \"#utility.yul\":5812:5821   */\n  dup5\n    /* \"#utility.yul\":5807:5810   */\n  dup10\n    /* \"#utility.yul\":5803:5822   */\n  add\n    /* \"#utility.yul\":5797:5823   */\n  mload\n    /* \"#utility.yul\":5789:5795   */\n  dup3\n    /* \"#utility.yul\":5782:5824   */\n  sstore\n    /* \"#utility.yul\":5863:5864   */\n  0x01\n    /* \"#utility.yul\":5855:5861   */\n  dup3\n    /* \"#utility.yul\":5851:5865   */\n  add\n    /* \"#utility.yul\":5841:5865   */\n  swap2\n  pop\n    /* \"#utility.yul\":5910:5912   */\n  0x20\n    /* \"#utility.yul\":5899:5908   */\n  dup6\n    /* \"#utility.yul\":5895:5913   */\n  add\n    /* \"#utility.yul\":5882:5913   */\n  swap5\n  pop\n    /* \"#utility.yul\":5756:5760   */\n  0x20\n    /* \"#utility.yul\":5753:5754   */\n  dup2\n    /* \"#utility.yul\":5749:5761   */\n  add\n    /* \"#utility.yul\":5744:5761   */\n  swap1\n  pop\n    /* \"#utility.yul\":5719:5927   */\n  jump(tag_157)\ntag_159:\n    /* \"#utility.yul\":5955:5961   */\n  dup7\n    /* \"#utility.yul\":5946:5953   */\n  dup4\n    /* \"#utility.yul\":5943:5962   */\n  lt\n    /* \"#utility.yul\":5940:6119   */\n  iszero\n  tag_160\n  jumpi\n    /* \"#utility.yul\":6013:6022   */\n  dup5\n    /* \"#utility.yul\":6008:6011   */\n  dup10\n    /* \"#utility.yul\":6004:6023   */\n  add\n    /* \"#utility.yul\":5998:6024   */\n  mload\n    /* \"#utility.yul\":6056:6104   */\n  tag_161\n    /* \"#utility.yul\":6098:6102   */\n  0x1f\n    /* \"#utility.yul\":6090:6096   */\n  dup10\n    /* \"#utility.yul\":6086:6103   */\n  and\n    /* \"#utility.yul\":6075:6084   */\n  dup3\n    /* \"#utility.yul\":6056:6104   */\n  tag_72\n  jump\t// in\ntag_161:\n    /* \"#utility.yul\":6048:6054   */\n  dup4\n    /* \"#utility.yul\":6041:6105   */\n  sstore\n    /* \"#utility.yul\":5963:6119   */\n  pop\n    /* \"#utility.yul\":5940:6119   */\ntag_160:\n    /* \"#utility.yul\":6165:6166   */\n  0x01\n    /* \"#utility.yul\":6161:6162   */\n  0x02\n    /* \"#utility.yul\":6153:6159   */\n  dup9\n    /* \"#utility.yul\":6149:6163   */\n  mul\n    /* \"#utility.yul\":6145:6167   */\n  add\n    /* \"#utility.yul\":6139:6143   */\n  dup9\n    /* \"#utility.yul\":6132:6168   */\n  sstore\n    /* \"#utility.yul\":5567:6178   */\n  pop\n  pop\n  pop\n    /* \"#utility.yul\":5530:6417   */\ntag_152:\n  pop\n    /* \"#utility.yul\":5120:6423   */\n  pop\n  pop\n  pop\n    /* \"#utility.yul\":5028:6423   */\n  pop\n  pop\n  jump\t// out\n    /* \"#utility.yul\":6429:6547   */\ntag_74:\n    /* \"#utility.yul\":6516:6540   */\n  tag_163\n    /* \"#utility.yul\":6534:6539   */\n  dup2\n    /* \"#utility.yul\":6516:6540   */\n  tag_51\n  jump\t// in\ntag_163:\n    /* \"#utility.yul\":6511:6514   */\n  dup3\n    /* \"#utility.yul\":6504:6541   */\n  mstore\n    /* \"#utility.yul\":6429:6547   */\n  pop\n  pop\n  jump\t// out\n    /* \"#utility.yul\":6553:6775   */\ntag_16:\n    /* \"#utility.yul\":6646:6650   */\n  0x00\n    /* \"#utility.yul\":6684:6686   */\n  0x20\n    /* \"#utility.yul\":6673:6682   */\n  dup3\n    /* \"#utility.yul\":6669:6687   */\n  add\n    /* \"#utility.yul\":6661:6687   */\n  swap1\n  pop\n    /* \"#utility.yul\":6697:6768   */\n  tag_165\n    /* \"#utility.yul\":6765:6766   */\n  0x00\n    /* \"#utility.yul\":6754:6763   */\n  dup4\n    /* \"#utility.yul\":6750:6767   */\n  add\n    /* \"#utility.yul\":6741:6747   */\n  dup5\n    /* \"#utility.yul\":6697:6768   */\n  tag_74\n  jump\t// in\ntag_165:\n    /* \"#utility.yul\":6553:6775   */\n  swap3\n  swap2\n  pop\n  pop\n  jump\t// out\n    /* \"#utility.yul\":6781:6858   */\ntag_75:\n    /* \"#utility.yul\":6818:6825   */\n  0x00\n    /* \"#utility.yul\":6847:6852   */\n  dup2\n    /* \"#utility.yul\":6836:6852   */\n  swap1\n  pop\n    /* \"#utility.yul\":6781:6858   */\n  swap2\n  swap1\n  pop\n  jump\t// out\n    /* \"#utility.yul\":6864:6982   */\ntag_76:\n    /* \"#utility.yul\":6951:6975   */\n  tag_168\n    /* \"#utility.yul\":6969:6974   */\n  dup2\n    /* \"#utility.yul\":6951:6975   */\n  tag_75\n  jump\t// in\ntag_168:\n    /* \"#utility.yul\":6946:6949   */\n  dup3\n    /* \"#utility.yul\":6939:6976   */\n  mstore\n    /* \"#utility.yul\":6864:6982   */\n  pop\n  pop\n  jump\t// out\n    /* \"#utility.yul\":6988:7106   */\ntag_77:\n    /* \"#utility.yul\":7075:7099   */\n  tag_170\n    /* \"#utility.yul\":7093:7098   */\n  dup2\n    /* \"#utility.yul\":7075:7099   */\n  tag_62\n  jump\t// in\ntag_170:\n    /* \"#utility.yul\":7070:7073   */\n  dup3\n    /* \"#utility.yul\":7063:7100   */\n  mstore\n    /* \"#utility.yul\":6988:7106   */\n  pop\n  pop\n  jump\t// out\n    /* \"#utility.yul\":7112:7776   */\ntag_39:\n    /* \"#utility.yul\":7317:7321   */\n  0x00\n    /* \"#utility.yul\":7355:7358   */\n  0xa0\n    /* \"#utility.yul\":7344:7353   */\n  dup3\n    /* \"#utility.yul\":7340:7359   */\n  add\n    /* \"#utility.yul\":7332:7359   */\n  swap1\n  pop\n    /* \"#utility.yul\":7369:7440   */\n  tag_172\n    /* \"#utility.yul\":7437:7438   */\n  0x00\n    /* \"#utility.yul\":7426:7435   */\n  dup4\n    /* \"#utility.yul\":7422:7439   */\n  add\n    /* \"#utility.yul\":7413:7419   */\n  dup9\n    /* \"#utility.yul\":7369:7440   */\n  tag_76\n  jump\t// in\ntag_172:\n    /* \"#utility.yul\":7450:7522   */\n  tag_173\n    /* \"#utility.yul\":7518:7520   */\n  0x20\n    /* \"#utility.yul\":7507:7516   */\n  dup4\n    /* \"#utility.yul\":7503:7521   */\n  add\n    /* \"#utility.yul\":7494:7500   */\n  dup8\n    /* \"#utility.yul\":7450:7522   */\n  tag_76\n  jump\t// in\ntag_173:\n    /* \"#utility.yul\":7532:7604   */\n  tag_174\n    /* \"#utility.yul\":7600:7602   */\n  0x40\n    /* \"#utility.yul\":7589:7598   */\n  dup4\n    /* \"#utility.yul\":7585:7603   */\n  add\n    /* \"#utility.yul\":7576:7582   */\n  dup7\n    /* \"#utility.yul\":7532:7604   */\n  tag_76\n  jump\t// in\ntag_174:\n    /* \"#utility.yul\":7614:7686   */\n  tag_175\n    /* \"#utility.yul\":7682:7684   */\n  0x60\n    /* \"#utility.yul\":7671:7680   */\n  dup4\n    /* \"#utility.yul\":7667:7685   */\n  add\n    /* \"#utility.yul\":7658:7664   */\n  dup6\n    /* \"#utility.yul\":7614:7686   */\n  tag_77\n  jump\t// in\ntag_175:\n    /* \"#utility.yul\":7696:7769   */\n  tag_176\n    /* \"#utility.yul\":7764:7767   */\n  0x80\n    /* \"#utility.yul\":7753:7762   */\n  dup4\n    /* \"#utility.yul\":7749:7768   */\n  add\n    /* \"#utility.yul\":7740:7746   */\n  dup5\n    /* \"#utility.yul\":7696:7769   */\n  tag_74\n  jump\t// in\ntag_176:\n    /* \"#utility.yul\":7112:7776   */\n  swap7\n  swap6\n  pop\n  pop\n  pop\n  pop\n  pop\n  pop\n  jump\t// out\n    /* \"#utility.yul\":7782:7951   */\ntag_78:\n    /* \"#utility.yul\":7866:7877   */\n  0x00\n    /* \"#utility.yul\":7900:7906   */\n  dup3\n    /* \"#utility.yul\":7895:7898   */\n  dup3\n    /* \"#utility.yul\":7888:7907   */\n  mstore\n    /* \"#utility.yul\":7940:7944   */\n  0x20\n    /* \"#utility.yul\":7935:7938   */\n  dup3\n    /* \"#utility.yul\":7931:7945   */\n  add\n    /* \"#utility.yul\":7916:7945   */\n  swap1\n  pop\n    /* \"#utility.yul\":7782:7951   */\n  swap3\n  swap2\n  pop\n  pop\n  jump\t// out\n    /* \"#utility.yul\":7957:8203   */\ntag_79:\n    /* \"#utility.yul\":8038:8039   */\n  0x00\n    /* \"#utility.yul\":8048:8161   */\ntag_179:\n    /* \"#utility.yul\":8062:8068   */\n  dup4\n    /* \"#utility.yul\":8059:8060   */\n  dup2\n    /* \"#utility.yul\":8056:8069   */\n  lt\n    /* \"#utility.yul\":8048:8161   */\n  iszero\n  tag_181\n  jumpi\n    /* \"#utility.yul\":8147:8148   */\n  dup1\n    /* \"#utility.yul\":8142:8145   */\n  dup3\n    /* \"#utility.yul\":8138:8149   */\n  add\n    /* \"#utility.yul\":8132:8150   */\n  mload\n    /* \"#utility.yul\":8128:8129   */\n  dup2\n    /* \"#utility.yul\":8123:8126   */\n  dup5\n    /* \"#utility.yul\":8119:8130   */\n  add\n    /* \"#utility.yul\":8112:8151   */\n  mstore\n    /* \"#utility.yul\":8084:8086   */\n  0x20\n    /* \"#utility.yul\":8081:8082   */\n  dup2\n    /* \"#utility.yul\":8077:8087   */\n  add\n    /* \"#utility.yul\":8072:8087   */\n  swap1\n  pop\n    /* \"#utility.yul\":8048:8161   */\n  jump(tag_179)\ntag_181:\n    /* \"#utility.yul\":8195:8196   */\n  0x00\n    /* \"#utility.yul\":8186:8192   */\n  dup5\n    /* \"#utility.yul\":8181:8184   */\n  dup5\n    /* \"#utility.yul\":8177:8193   */\n  add\n    /* \"#utility.yul\":8170:8197   */\n  mstore\n    /* \"#utility.yul\":8019:8203   */\n  pop\n    /* \"#utility.yul\":7957:8203   */\n  pop\n  pop\n  pop\n  jump\t// out\n    /* \"#utility.yul\":8209:8311   */\ntag_80:\n    /* \"#utility.yul\":8250:8256   */\n  0x00\n    /* \"#utility.yul\":8301:8303   */\n  0x1f\n    /* \"#utility.yul\":8297:8304   */\n  not\n    /* \"#utility.yul\":8292:8294   */\n  0x1f\n    /* \"#utility.yul\":8285:8290   */\n  dup4\n    /* \"#utility.yul\":8281:8295   */\n  add\n    /* \"#utility.yul\":8277:8305   */\n  and\n    /* \"#utility.yul\":8267:8305   */\n  swap1\n  pop\n    /* \"#utility.yul\":8209:8311   */\n  swap2\n  swap1\n  pop\n  jump\t// out\n    /* \"#utility.yul\":8317:8694   */\ntag_81:\n    /* \"#utility.yul\":8405:8408   */\n  0x00\n    /* \"#utility.yul\":8433:8472   */\n  tag_184\n    /* \"#utility.yul\":8466:8471   */\n  dup3\n    /* \"#utility.yul\":8433:8472   */\n  tag_54\n  jump\t// in\ntag_184:\n    /* \"#utility.yul\":8488:8559   */\n  tag_185\n    /* \"#utility.yul\":8552:8558   */\n  dup2\n    /* \"#utility.yul\":8547:8550   */\n  dup6\n    /* \"#utility.yul\":8488:8559   */\n  tag_78\n  jump\t// in\ntag_185:\n    /* \"#utility.yul\":8481:8559   */\n  swap4\n  pop\n    /* \"#utility.yul\":8568:8633   */\n  tag_186\n    /* \"#utility.yul\":8626:8632   */\n  dup2\n    /* \"#utility.yul\":8621:8624   */\n  dup6\n    /* \"#utility.yul\":8614:8618   */\n  0x20\n    /* \"#utility.yul\":8607:8612   */\n  dup7\n    /* \"#utility.yul\":8603:8619   */\n  add\n    /* \"#utility.yul\":8568:8633   */\n  tag_79\n  jump\t// in\ntag_186:\n    /* \"#utility.yul\":8658:8687   */\n  tag_187\n    /* \"#utility.yul\":8680:8686   */\n  dup2\n    /* \"#utility.yul\":8658:8687   */\n  tag_80\n  jump\t// in\ntag_187:\n    /* \"#utility.yul\":8653:8656   */\n  dup5\n    /* \"#utility.yul\":8649:8688   */\n  add\n    /* \"#utility.yul\":8642:8688   */\n  swap2\n  pop\n    /* \"#utility.yul\":8409:8694   */\n  pop\n    /* \"#utility.yul\":8317:8694   */\n  swap3\n  swap2\n  pop\n  pop\n  jump\t// out\n    /* \"#utility.yul\":8700:9013   */\ntag_43:\n    /* \"#utility.yul\":8813:8817   */\n  0x00\n    /* \"#utility.yul\":8851:8853   */\n  0x20\n    /* \"#utility.yul\":8840:8849   */\n  dup3\n    /* \"#utility.yul\":8836:8854   */\n  add\n    /* \"#utility.yul\":8828:8854   */\n  swap1\n  pop\n    /* \"#utility.yul\":8900:8909   */\n  dup2\n    /* \"#utility.yul\":8894:8898   */\n  dup2\n    /* \"#utility.yul\":8890:8910   */\n  sub\n    /* \"#utility.yul\":8886:8887   */\n  0x00\n    /* \"#utility.yul\":8875:8884   */\n  dup4\n    /* \"#utility.yul\":8871:8888   */\n  add\n    /* \"#utility.yul\":8864:8911   */\n  mstore\n    /* \"#utility.yul\":8928:9006   */\n  tag_189\n    /* \"#utility.yul\":9001:9005   */\n  dup2\n    /* \"#utility.yul\":8992:8998   */\n  dup5\n    /* \"#utility.yul\":8928:9006   */\n  tag_81\n  jump\t// in\ntag_189:\n    /* \"#utility.yul\":8920:9006   */\n  swap1\n  pop\n    /* \"#utility.yul\":8700:9013   */\n  swap3\n  swap2\n  pop\n  pop\n  jump\t// out\n    /* \"#utility.yul\":9019:9117   */\ntag_82:\n    /* \"#utility.yul\":9070:9076   */\n  0x00\n    /* \"#utility.yul\":9104:9109   */\n  dup2\n    /* \"#utility.yul\":9098:9110   */\n  mload\n    /* \"#utility.yul\":9088:9110   */\n  swap1\n  pop\n    /* \"#utility.yul\":9019:9117   */\n  swap2\n  swap1\n  pop\n  jump\t// out\n    /* \"#utility.yul\":9123:9239   */\ntag_83:\n    /* \"#utility.yul\":9174:9178   */\n  0x00\n    /* \"#utility.yul\":9197:9200   */\n  dup2\n    /* \"#utility.yul\":9189:9200   */\n  swap1\n  pop\n    /* \"#utility.yul\":9227:9231   */\n  0x20\n    /* \"#utility.yul\":9222:9225   */\n  dup3\n    /* \"#utility.yul\":9218:9232   */\n  add\n    /* \"#utility.yul\":9210:9232   */\n  swap1\n  pop\n    /* \"#utility.yul\":9123:9239   */\n  swap2\n  swap1\n  pop\n  jump\t// out\n    /* \"#utility.yul\":9245:9399   */\ntag_84:\n    /* \"#utility.yul\":9288:9299   */\n  0x00\n    /* \"#utility.yul\":9324:9353   */\n  tag_193\n    /* \"#utility.yul\":9348:9351   */\n  dup3\n    /* \"#utility.yul\":9342:9352   */\n  mload\n    /* \"#utility.yul\":9324:9353   */\n  tag_75\n  jump\t// in\ntag_193:\n    /* \"#utility.yul\":9387:9392   */\n  dup1\n    /* \"#utility.yul\":9363:9392   */\n  swap2\n  pop\n    /* \"#utility.yul\":9300:9399   */\n  pop\n    /* \"#utility.yul\":9245:9399   */\n  swap2\n  swap1\n  pop\n  jump\t// out\n    /* \"#utility.yul\":9405:9999   */\ntag_45:\n    /* \"#utility.yul\":9489:9494   */\n  0x00\n    /* \"#utility.yul\":9520:9558   */\n  tag_195\n    /* \"#utility.yul\":9552:9557   */\n  dup3\n    /* \"#utility.yul\":9520:9558   */\n  tag_82\n  jump\t// in\ntag_195:\n    /* \"#utility.yul\":9583:9588   */\n  dup3\n    /* \"#utility.yul\":9610:9650   */\n  tag_196\n    /* \"#utility.yul\":9644:9649   */\n  dup5\n    /* \"#utility.yul\":9610:9650   */\n  tag_83\n  jump\t// in\ntag_196:\n    /* \"#utility.yul\":9598:9650   */\n  swap1\n  pop\n    /* \"#utility.yul\":9669:9704   */\n  tag_197\n    /* \"#utility.yul\":9695:9703   */\n  dup2\n    /* \"#utility.yul\":9669:9704   */\n  tag_84\n  jump\t// in\ntag_197:\n    /* \"#utility.yul\":9660:9704   */\n  swap3\n  pop\n    /* \"#utility.yul\":9728:9730   */\n  0x20\n    /* \"#utility.yul\":9720:9726   */\n  dup3\n    /* \"#utility.yul\":9717:9731   */\n  lt\n    /* \"#utility.yul\":9714:9992   */\n  iszero\n  tag_198\n  jumpi\n    /* \"#utility.yul\":9799:9968   */\n  tag_199\n    /* \"#utility.yul\":9884:9950   */\n  0xffffffffffffffffffffffffffffffffffffffffffffffffffffffffffffffff\n    /* \"#utility.yul\":9854:9860   */\n  dup4\n    /* \"#utility.yul\":9850:9852   */\n  0x20\n    /* \"#utility.yul\":9846:9861   */\n  sub\n    /* \"#utility.yul\":9843:9844   */\n  0x08\n    /* \"#utility.yul\":9839:9862   */\n  mul\n    /* \"#utility.yul\":9799:9968   */\n  tag_60\n  jump\t// in\ntag_199:\n    /* \"#utility.yul\":9776:9781   */\n  dup4\n    /* \"#utility.yul\":9755:9982   */\n  and\n    /* \"#utility.yul\":9746:9982   */\n  swap3\n  pop\n    /* \"#utility.yul\":9714:9992   */\ntag_198:\n    /* \"#utility.yul\":9495:9999   */\n  pop\n  pop\n    /* \"#utility.yul\":9405:9999   */\n  swap2\n  swap1\n  pop\n  jump\t// out\n    /* \"contracts/ParticipationToken_flattened.sol\":80743:81428  contract ParticipationToken is ERC20, ERC20Burnable, Ownable, ERC20Permit {... */\ntag_27:\n  mload(0x80)\n  mload(0xa0)\n  mload(0xc0)\n  mload(0xe0)\n  mload(0x0100)\n  mload(0x0120)\n  mload(0x0140)\n  codecopy(0x00, dataOffset(sub_0), dataSize(sub_0))\n  0x00\n  assignImmutable(\"0x2afe76337b531113eeb6984869209602297c0be432194d84882749ead3021a37\")\n  0x00\n  assignImmutable(\"0xa7cd0fec000bc9bc829eee3f19124c6d92f9bf03bc5604d586b7a9d0b7293aeb\")\n  0x00\n  assignImmutable(\"0x5444bf99e2aaa84d0c0adba4902ca441e981a14d987060ddd53a6e4272e74bca\")\n  0x00\n  assignImmutable(\"0xf9ba965def30954c13b9f17655d4bfcf079e819f9cc42b75928cd97e2c9f9020\")\n  0x00\n  assignImmutable(\"0xf2aed5d52b85e7b229d9a0bb201e12bdcbbc5fc133feb54c1cb531c3f7cf58ed\")\n  0x00\n  assignImmutable(\"0x89dda32db2afb3470ad3a855ff08175ef365ece0147067a2a9b89c9351412201\")\n  0x00\n  assignImmutable(\"0x3f9e555adc0bedaea160f26d13d68ea1bde6a5a9af64af415bccce823c8f9ad8\")\n  return(0x00, dataSize(sub_0))\nstop\n\nsub_0: assembly {\n        /* \"contracts/ParticipationToken_flattened.sol\":80743:81428  contract ParticipationToken is ERC20, ERC20Burnable, Ownable, ERC20Permit {... */\n      mstore(0x40, 0x80)\n      callvalue\n      dup1\n      iszero\n      tag_1\n      jumpi\n      0x00\n      dup1\n      revert\n    tag_1:\n      pop\n      jumpi(tag_2, lt(calldatasize, 0x04))\n      shr(0xe0, calldataload(0x00))\n      dup1\n      0x79cc6790\n      gt\n      tag_23\n      jumpi\n      dup1\n      0xa9059cbb\n      gt\n      tag_24\n      jumpi\n      dup1\n      0xa9059cbb\n      eq\n      tag_18\n      jumpi\n      dup1\n      0xabd81ca2\n      eq\n      tag_19\n      jumpi\n      dup1\n      0xd505accf\n      eq\n      tag_20\n      jumpi\n      dup1\n      0xdd62ed3e\n      eq\n      tag_21\n      jumpi\n      dup1\n      0xf2fde38b\n      eq\n      tag_22\n      jumpi\n      jump(tag_2)\n    tag_24:\n      dup1\n      0x79cc6790\n      eq\n      tag_13\n      jumpi\n      dup1\n      0x7ecebe00\n      eq\n      tag_14\n      jumpi\n      dup1\n      0x84b0196e\n      eq\n      tag_15\n      jumpi\n      dup1\n      0x8da5cb5b\n      eq\n      tag_16\n      jumpi\n      dup1\n      0x95d89b41\n      eq\n      tag_17\n      jumpi\n      jump(tag_2)\n    tag_23:\n      dup1\n      0x3644e515\n      gt\n      tag_25\n      jumpi\n      dup1\n      0x3644e515\n      eq\n      tag_8\n      jumpi\n      dup1\n      0x40c10f19\n      eq\n      tag_9\n      jumpi\n      dup1\n      0x42966c68\n      eq\n      tag_10\n      jumpi\n      dup1\n      0x70a08231\n      eq\n      tag_11\n      jumpi\n      dup1\n      0x715018a6\n      eq\n      tag_12\n      jumpi\n      jump(tag_2)\n    tag_25:\n      dup1\n      0x06fdde03\n      eq\n      tag_3\n      jumpi\n      dup1\n      0x095ea7b3\n      eq\n      tag_4\n      jumpi\n      dup1\n      0x18160ddd\n      eq\n      tag_5\n      jumpi\n      dup1\n      0x23b872dd\n      eq\n      tag_6\n      jumpi\n      dup1\n      0x313ce567\n      eq\n      tag_7\n      jumpi\n    tag_2:\n      0x00\n      dup1\n      revert\n        /* \"contracts/ParticipationToken_flattened.sol\":67851:67940  function name() public view virtual returns (string memory) {... */\n    tag_3:\n      tag_26\n      tag_27\n      jump\t// in\n    tag_26:\n      mload(0x40)\n      tag_28\n      swap2\n      swap1\n      tag_29\n      jump\t// in\n    tag_28:\n      mload(0x40)\n      dup1\n      swap2\n      sub\n      swap1\n      return\n        /* \"contracts/ParticipationToken_flattened.sol\":70070:70256  function approve(address spender, uint256 value) public virtual returns (bool) {... */\n    tag_4:\n      tag_30\n      0x04\n      dup1\n      calldatasize\n      sub\n      dup2\n      add\n      swap1\n      tag_31\n      swap2\n      swap1\n      tag_32\n      jump\t// in\n    tag_31:\n      tag_33\n      jump\t// in\n    tag_30:\n      mload(0x40)\n      tag_34\n      swap2\n      swap1\n      tag_35\n      jump\t// in\n    tag_34:\n      mload(0x40)\n      dup1\n      swap2\n      sub\n      swap1\n      return\n        /* \"contracts/ParticipationToken_flattened.sol\":68921:69018  function totalSupply() public view virtual returns (uint256) {... */\n    tag_5:\n      tag_36\n      tag_37\n      jump\t// in\n    tag_36:\n      mload(0x40)\n      tag_38\n      swap2\n      swap1\n      tag_39\n      jump\t// in\n    tag_38:\n      mload(0x40)\n      dup1\n      swap2\n      sub\n      swap1\n      return\n        /* \"contracts/ParticipationToken_flattened.sol\":70816:71060  function transferFrom(address from, address to, uint256 value) public virtual returns (bool) {... */\n    tag_6:\n      tag_40\n      0x04\n      dup1\n      calldatasize\n      sub\n      dup2\n      add\n      swap1\n      tag_41\n      swap2\n      swap1\n      tag_42\n      jump\t// in\n    tag_41:\n      tag_43\n      jump\t// in\n    tag_40:\n      mload(0x40)\n      tag_44\n      swap2\n      swap1\n      tag_35\n      jump\t// in\n    tag_44:\n      mload(0x40)\n      dup1\n      swap2\n      sub\n      swap1\n      return\n        /* \"contracts/ParticipationToken_flattened.sol\":68779:68861  function decimals() public view virtual returns (uint8) {... */\n    tag_7:\n      tag_45\n      tag_46\n      jump\t// in\n    tag_45:\n      mload(0x40)\n      tag_47\n      swap2\n      swap1\n      tag_48\n      jump\t// in\n    tag_47:\n      mload(0x40)\n      dup1\n      swap2\n      sub\n      swap1\n      return\n        /* \"contracts/ParticipationToken_flattened.sol\":79364:79476  function DOMAIN_SEPARATOR() external view virtual returns (bytes32) {... */\n    tag_8:\n      tag_49\n      tag_50\n      jump\t// in\n    tag_49:\n      mload(0x40)\n      tag_51\n      swap2\n      swap1\n      tag_52\n      jump\t// in\n    tag_51:\n      mload(0x40)\n      dup1\n      swap2\n      sub\n      swap1\n      return\n        /* \"contracts/ParticipationToken_flattened.sol\":80984:81107  function mint(address to, uint256 amount) public onlyOwner {... */\n    tag_9:\n      tag_53\n      0x04\n      dup1\n      calldatasize\n      sub\n      dup2\n      add\n      swap1\n      tag_54\n      swap2\n      swap1\n      tag_32\n      jump\t// in\n    tag_54:\n      tag_55\n      jump\t// in\n    tag_53:\n      stop\n        /* \"contracts/ParticipationToken_flattened.sol\":80055:80142  function burn(uint256 value) public virtual {... */\n    tag_10:\n      tag_56\n      0x04\n      dup1\n      calldatasize\n      sub\n      dup2\n      add\n      swap1\n      tag_57\n      swap2\n      swap1\n      tag_58\n      jump\t// in\n    tag_57:\n      tag_59\n      jump\t// in\n    tag_56:\n      stop\n        /* \"contracts/ParticipationToken_flattened.sol\":69076:69192  function balanceOf(address account) public view virtual returns (uint256) {... */\n    tag_11:\n      tag_60\n      0x04\n      dup1\n      calldatasize\n      sub\n      dup2\n      add\n      swap1\n      tag_61\n      swap2\n      swap1\n      tag_62\n      jump\t// in\n    tag_61:\n      tag_63\n      jump\t// in\n    tag_60:\n      mload(0x40)\n      tag_64\n      swap2\n      swap1\n      tag_39\n      jump\t// in\n    tag_64:\n      mload(0x40)\n      dup1\n      swap2\n      sub\n      swap1\n      return\n        /* \"contracts/ParticipationToken_flattened.sol\":61658:61759  function renounceOwnership() public virtual onlyOwner {... */\n    tag_12:\n      tag_65\n      tag_66\n      jump\t// in\n    tag_65:\n      stop\n        /* \"contracts/ParticipationToken_flattened.sol\":80458:80616  function burnFrom(address account, uint256 value) public virtual {... */\n    tag_13:\n      tag_67\n      0x04\n      dup1\n      calldatasize\n      sub\n      dup2\n      add\n      swap1\n      tag_68\n      swap2\n      swap1\n      tag_32\n      jump\t// in\n    tag_68:\n      tag_69\n      jump\t// in\n    tag_67:\n      stop\n        /* \"contracts/ParticipationToken_flattened.sol\":79114:79257  function nonces(address owner) public view virtual override(IERC20Permit, Nonces) returns (uint256) {... */\n    tag_14:\n      tag_70\n      0x04\n      dup1\n      calldatasize\n      sub\n      dup2\n      add\n      swap1\n      tag_71\n      swap2\n      swap1\n      tag_62\n      jump\t// in\n    tag_71:\n      tag_72\n      jump\t// in\n    tag_70:\n      mload(0x40)\n      tag_73\n      swap2\n      swap1\n      tag_39\n      jump\t// in\n    tag_73:\n      mload(0x40)\n      dup1\n      swap2\n      sub\n      swap1\n      return\n        /* \"contracts/ParticipationToken_flattened.sol\":38759:39316  function eip712Domain()... */\n    tag_15:\n      tag_74\n      tag_75\n      jump\t// in\n    tag_74:\n      mload(0x40)\n      tag_76\n      swap8\n      swap7\n      swap6\n      swap5\n      swap4\n      swap3\n      swap2\n      swap1\n      tag_77\n      jump\t// in\n    tag_76:\n      mload(0x40)\n      dup1\n      swap2\n      sub\n      swap1\n      return\n        /* \"contracts/ParticipationToken_flattened.sol\":61003:61088  function owner() public view virtual returns (address) {... */\n    tag_16:\n      tag_78\n      tag_79\n      jump\t// in\n    tag_78:\n      mload(0x40)\n      tag_80\n      swap2\n      swap1\n      tag_81\n      jump\t// in\n    tag_80:\n      mload(0x40)\n      dup1\n      swap2\n      sub\n      swap1\n      return\n        /* \"contracts/ParticipationToken_flattened.sol\":68053:68146  function symbol() public view virtual returns (string memory) {... */\n    tag_17:\n      tag_82\n      tag_83\n      jump\t// in\n    tag_82:\n      mload(0x40)\n      tag_84\n      swap2\n      swap1\n      tag_29\n      jump\t// in\n    tag_84:\n      mload(0x40)\n      dup1\n      swap2\n      sub\n      swap1\n      return\n        /* \"contracts/ParticipationToken_flattened.sol\":69387:69565  function transfer(address to, uint256 value) public virtual returns (bool) {... */\n    tag_18:\n      tag_85\n      0x04\n      dup1\n      calldatasize\n      sub\n      dup2\n      add\n      swap1\n      tag_86\n      swap2\n      swap1\n      tag_32\n      jump\t// in\n    tag_86:\n      tag_87\n      jump\t// in\n    tag_85:\n      mload(0x40)\n      tag_88\n      swap2\n      swap1\n      tag_35\n      jump\t// in\n    tag_88:\n      mload(0x40)\n      dup1\n      swap2\n      sub\n      swap1\n      return\n        /* \"contracts/ParticipationToken_flattened.sol\":81113:81426  function transferParticipationToken(address from, address to, uint256 amount, address contractAddress) public virtual returns (bool){... */\n    tag_19:\n      tag_89\n      0x04\n      dup1\n      calldatasize\n      sub\n      dup2\n      add\n      swap1\n      tag_90\n      swap2\n      swap1\n      tag_91\n      jump\t// in\n    tag_90:\n      tag_92\n      jump\t// in\n    tag_89:\n      mload(0x40)\n      tag_93\n      swap2\n      swap1\n      tag_35\n      jump\t// in\n    tag_93:\n      mload(0x40)\n      dup1\n      swap2\n      sub\n      swap1\n      return\n        /* \"contracts/ParticipationToken_flattened.sol\":78388:79060  function permit(... */\n    tag_20:\n      tag_94\n      0x04\n      dup1\n      calldatasize\n      sub\n      dup2\n      add\n      swap1\n      tag_95\n      swap2\n      swap1\n      tag_96\n      jump\t// in\n    tag_95:\n      tag_97\n      jump\t// in\n    tag_94:\n      stop\n        /* \"contracts/ParticipationToken_flattened.sol\":69623:69763  function allowance(address owner, address spender) public view virtual returns (uint256) {... */\n    tag_21:\n      tag_98\n      0x04\n      dup1\n      calldatasize\n      sub\n      dup2\n      add\n      swap1\n      tag_99\n      swap2\n      swap1\n      tag_100\n      jump\t// in\n    tag_99:\n      tag_101\n      jump\t// in\n    tag_98:\n      mload(0x40)\n      tag_102\n      swap2\n      swap1\n      tag_39\n      jump\t// in\n    tag_102:\n      mload(0x40)\n      dup1\n      swap2\n      sub\n      swap1\n      return\n        /* \"contracts/ParticipationToken_flattened.sol\":61908:62123  function transferOwnership(address newOwner) public virtual onlyOwner {... */\n    tag_22:\n      tag_103\n      0x04\n      dup1\n      calldatasize\n      sub\n      dup2\n      add\n      swap1\n      tag_104\n      swap2\n      swap1\n      tag_62\n      jump\t// in\n    tag_104:\n      tag_105\n      jump\t// in\n    tag_103:\n      stop\n        /* \"contracts/ParticipationToken_flattened.sol\":67851:67940  function name() public view virtual returns (string memory) {... */\n    tag_27:\n        /* \"contracts/ParticipationToken_flattened.sol\":67896:67909  string memory */\n      0x60\n        /* \"contracts/ParticipationToken_flattened.sol\":67928:67933  _name */\n      0x03\n        /* \"contracts/ParticipationToken_flattened.sol\":67921:67933  return _name */\n      dup1\n      sload\n      tag_107\n      swap1\n      tag_108\n      jump\t// in\n    tag_107:\n      dup1\n      0x1f\n      add\n      0x20\n      dup1\n      swap2\n      div\n      mul\n      0x20\n      add\n      mload(0x40)\n      swap1\n      dup2\n      add\n      0x40\n      mstore\n      dup1\n      swap3\n      swap2\n      swap1\n      dup2\n      dup2\n      mstore\n      0x20\n      add\n      dup3\n      dup1\n      sload\n      tag_109\n      swap1\n      tag_108\n      jump\t// in\n    tag_109:\n      dup1\n      iszero\n      tag_110\n      jumpi\n      dup1\n      0x1f\n      lt\n      tag_111\n      jumpi\n      0x0100\n      dup1\n      dup4\n      sload\n      div\n      mul\n      dup4\n      mstore\n      swap2\n      0x20\n      add\n      swap2\n      jump(tag_110)\n    tag_111:\n      dup3\n      add\n      swap2\n      swap1\n      0x00\n      mstore\n      keccak256(0x00, 0x20)\n      swap1\n    tag_112:\n      dup2\n      sload\n      dup2\n      mstore\n      swap1\n      0x01\n      add\n      swap1\n      0x20\n      add\n      dup1\n      dup4\n      gt\n      tag_112\n      jumpi\n      dup3\n      swap1\n      sub\n      0x1f\n      and\n      dup3\n      add\n      swap2\n    tag_110:\n      pop\n      pop\n      pop\n      pop\n      pop\n      swap1\n      pop\n        /* \"contracts/ParticipationToken_flattened.sol\":67851:67940  function name() public view virtual returns (string memory) {... */\n      swap1\n      jump\t// out\n        /* \"contracts/ParticipationToken_flattened.sol\":70070:70256  function approve(address spender, uint256 value) public virtual returns (bool) {... */\n    tag_33:\n        /* \"contracts/ParticipationToken_flattened.sol\":70143:70147  bool */\n      0x00\n        /* \"contracts/ParticipationToken_flattened.sol\":70159:70172  address owner */\n      dup1\n        /* \"contracts/ParticipationToken_flattened.sol\":70175:70187  _msgSender() */\n      tag_114\n        /* \"contracts/ParticipationToken_flattened.sol\":70175:70185  _msgSender */\n      tag_115\n        /* \"contracts/ParticipationToken_flattened.sol\":70175:70187  _msgSender() */\n      jump\t// in\n    tag_114:\n        /* \"contracts/ParticipationToken_flattened.sol\":70159:70187  address owner = _msgSender() */\n      swap1\n      pop\n        /* \"contracts/ParticipationToken_flattened.sol\":70197:70228  _approve(owner, spender, value) */\n      tag_116\n        /* \"contracts/ParticipationToken_flattened.sol\":70206:70211  owner */\n      dup2\n        /* \"contracts/ParticipationToken_flattened.sol\":70213:70220  spender */\n      dup6\n        /* \"contracts/ParticipationToken_flattened.sol\":70222:70227  value */\n      dup6\n        /* \"contracts/ParticipationToken_flattened.sol\":70197:70205  _approve */\n      tag_117\n        /* \"contracts/ParticipationToken_flattened.sol\":70197:70228  _approve(owner, spender, value) */\n      jump\t// in\n    tag_116:\n        /* \"contracts/ParticipationToken_flattened.sol\":70245:70249  true */\n      0x01\n        /* \"contracts/ParticipationToken_flattened.sol\":70238:70249  return true */\n      swap2\n      pop\n      pop\n        /* \"contracts/ParticipationToken_flattened.sol\":70070:70256  function approve(address spender, uint256 value) public virtual returns (bool) {... */\n      swap3\n      swap2\n      pop\n      pop\n      jump\t// out\n        /* \"contracts/ParticipationToken_flattened.sol\":68921:69018  function totalSupply() public view virtual returns (uint256) {... */\n    tag_37:\n        /* \"contracts/ParticipationToken_flattened.sol\":68973:68980  uint256 */\n      0x00\n        /* \"contracts/ParticipationToken_flattened.sol\":68999:69011  _totalSupply */\n      sload(0x02)\n        /* \"contracts/ParticipationToken_flattened.sol\":68992:69011  return _totalSupply */\n      swap1\n      pop\n        /* \"contracts/ParticipationToken_flattened.sol\":68921:69018  function totalSupply() public view virtual returns (uint256) {... */\n      swap1\n      jump\t// out\n        /* \"contracts/ParticipationToken_flattened.sol\":70816:71060  function transferFrom(address from, address to, uint256 value) public virtual returns (bool) {... */\n    tag_43:\n        /* \"contracts/ParticipationToken_flattened.sol\":70903:70907  bool */\n      0x00\n        /* \"contracts/ParticipationToken_flattened.sol\":70919:70934  address spender */\n      dup1\n        /* \"contracts/ParticipationToken_flattened.sol\":70937:70949  _msgSender() */\n      tag_120\n        /* \"contracts/ParticipationToken_flattened.sol\":70937:70947  _msgSender */\n      tag_115\n        /* \"contracts/ParticipationToken_flattened.sol\":70937:70949  _msgSender() */\n      jump\t// in\n    tag_120:\n        /* \"contracts/ParticipationToken_flattened.sol\":70919:70949  address spender = _msgSender() */\n      swap1\n      pop\n        /* \"contracts/ParticipationToken_flattened.sol\":70959:70996  _spendAllowance(from, spender, value) */\n      tag_121\n        /* \"contracts/ParticipationToken_flattened.sol\":70975:70979  from */\n      dup6\n        /* \"contracts/ParticipationToken_flattened.sol\":70981:70988  spender */\n      dup3\n        /* \"contracts/ParticipationToken_flattened.sol\":70990:70995  value */\n      dup6\n        /* \"contracts/ParticipationToken_flattened.sol\":70959:70974  _spendAllowance */\n      tag_122\n        /* \"contracts/ParticipationToken_flattened.sol\":70959:70996  _spendAllowance(from, spender, value) */\n      jump\t// in\n    tag_121:\n        /* \"contracts/ParticipationToken_flattened.sol\":71006:71032  _transfer(from, to, value) */\n      tag_123\n        /* \"contracts/ParticipationToken_flattened.sol\":71016:71020  from */\n      dup6\n        /* \"contracts/ParticipationToken_flattened.sol\":71022:71024  to */\n      dup6\n        /* \"contracts/ParticipationToken_flattened.sol\":71026:71031  value */\n      dup6\n        /* \"contracts/ParticipationToken_flattened.sol\":71006:71015  _transfer */\n      tag_124\n        /* \"contracts/ParticipationToken_flattened.sol\":71006:71032  _transfer(from, to, value) */\n      jump\t// in\n    tag_123:\n        /* \"contracts/ParticipationToken_flattened.sol\":71049:71053  true */\n      0x01\n        /* \"contracts/ParticipationToken_flattened.sol\":71042:71053  return true */\n      swap2\n      pop\n      pop\n        /* \"contracts/ParticipationToken_flattened.sol\":70816:71060  function transferFrom(address from, address to, uint256 value) public virtual returns (bool) {... */\n      swap4\n      swap3\n      pop\n      pop\n      pop\n      jump\t// out\n        /* \"contracts/ParticipationToken_flattened.sol\":68779:68861  function decimals() public view virtual returns (uint8) {... */\n    tag_46:\n        /* \"contracts/ParticipationToken_flattened.sol\":68828:68833  uint8 */\n      0x00\n        /* \"contracts/ParticipationToken_flattened.sol\":68852:68854  18 */\n      0x12\n        /* \"contracts/ParticipationToken_flattened.sol\":68845:68854  return 18 */\n      swap1\n      pop\n        /* \"contracts/ParticipationToken_flattened.sol\":68779:68861  function decimals() public view virtual returns (uint8) {... */\n      swap1\n      jump\t// out\n        /* \"contracts/ParticipationToken_flattened.sol\":79364:79476  function DOMAIN_SEPARATOR() external view virtual returns (bytes32) {... */\n    tag_50:\n        /* \"contracts/ParticipationToken_flattened.sol\":79423:79430  bytes32 */\n      0x00\n        /* \"contracts/ParticipationToken_flattened.sol\":79449:79469  _domainSeparatorV4() */\n      tag_127\n        /* \"contracts/ParticipationToken_flattened.sol\":79449:79467  _domainSeparatorV4 */\n      tag_128\n        /* \"contracts/ParticipationToken_flattened.sol\":79449:79469  _domainSeparatorV4() */\n      jump\t// in\n    tag_127:\n        /* \"contracts/ParticipationToken_flattened.sol\":79442:79469  return _domainSeparatorV4() */\n      swap1\n      pop\n        /* \"contracts/ParticipationToken_flattened.sol\":79364:79476  function DOMAIN_SEPARATOR() external view virtual returns (bytes32) {... */\n      swap1\n      jump\t// out\n        /* \"contracts/ParticipationToken_flattened.sol\":80984:81107  function mint(address to, uint256 amount) public onlyOwner {... */\n    tag_55:\n        /* \"contracts/ParticipationToken_flattened.sol\":60896:60909  _checkOwner() */\n      tag_130\n        /* \"contracts/ParticipationToken_flattened.sol\":60896:60907  _checkOwner */\n      tag_131\n        /* \"contracts/ParticipationToken_flattened.sol\":60896:60909  _checkOwner() */\n      jump\t// in\n    tag_130:\n        /* \"contracts/ParticipationToken_flattened.sol\":81053:81100  _mint(to, amount * (10 ** uint256(decimals()))) */\n      tag_133\n        /* \"contracts/ParticipationToken_flattened.sol\":81059:81061  to */\n      dup3\n        /* \"contracts/ParticipationToken_flattened.sol\":81087:81097  decimals() */\n      tag_134\n        /* \"contracts/ParticipationToken_flattened.sol\":81087:81095  decimals */\n      tag_46\n        /* \"contracts/ParticipationToken_flattened.sol\":81087:81097  decimals() */\n      jump\t// in\n    tag_134:\n        /* \"contracts/ParticipationToken_flattened.sol\":81079:81098  uint256(decimals()) */\n      0xff\n      and\n        /* \"contracts/ParticipationToken_flattened.sol\":81073:81075  10 */\n      0x0a\n        /* \"contracts/ParticipationToken_flattened.sol\":81073:81098  10 ** uint256(decimals()) */\n      tag_135\n      swap2\n      swap1\n      tag_136\n      jump\t// in\n    tag_135:\n        /* \"contracts/ParticipationToken_flattened.sol\":81063:81069  amount */\n      dup4\n        /* \"contracts/ParticipationToken_flattened.sol\":81063:81099  amount * (10 ** uint256(decimals())) */\n      tag_137\n      swap2\n      swap1\n      tag_138\n      jump\t// in\n    tag_137:\n        /* \"contracts/ParticipationToken_flattened.sol\":81053:81058  _mint */\n      tag_139\n        /* \"contracts/ParticipationToken_flattened.sol\":81053:81100  _mint(to, amount * (10 ** uint256(decimals()))) */\n      jump\t// in\n    tag_133:\n        /* \"contracts/ParticipationToken_flattened.sol\":80984:81107  function mint(address to, uint256 amount) public onlyOwner {... */\n      pop\n      pop\n      jump\t// out\n        /* \"contracts/ParticipationToken_flattened.sol\":80055:80142  function burn(uint256 value) public virtual {... */\n    tag_59:\n        /* \"contracts/ParticipationToken_flattened.sol\":80109:80135  _burn(_msgSender(), value) */\n      tag_141\n        /* \"contracts/ParticipationToken_flattened.sol\":80115:80127  _msgSender() */\n      tag_142\n        /* \"contracts/ParticipationToken_flattened.sol\":80115:80125  _msgSender */\n      tag_115\n        /* \"contracts/ParticipationToken_flattened.sol\":80115:80127  _msgSender() */\n      jump\t// in\n    tag_142:\n        /* \"contracts/ParticipationToken_flattened.sol\":80129:80134  value */\n      dup3\n        /* \"contracts/ParticipationToken_flattened.sol\":80109:80114  _burn */\n      tag_143\n        /* \"contracts/ParticipationToken_flattened.sol\":80109:80135  _burn(_msgSender(), value) */\n      jump\t// in\n    tag_141:\n        /* \"contracts/ParticipationToken_flattened.sol\":80055:80142  function burn(uint256 value) public virtual {... */\n      pop\n      jump\t// out\n        /* \"contracts/ParticipationToken_flattened.sol\":69076:69192  function balanceOf(address account) public view virtual returns (uint256) {... */\n    tag_63:\n        /* \"contracts/ParticipationToken_flattened.sol\":69141:69148  uint256 */\n      0x00\n        /* \"contracts/ParticipationToken_flattened.sol\":69167:69176  _balances */\n      dup1\n        /* \"contracts/ParticipationToken_flattened.sol\":69167:69185  _balances[account] */\n      0x00\n        /* \"contracts/ParticipationToken_flattened.sol\":69177:69184  account */\n      dup4\n        /* \"contracts/ParticipationToken_flattened.sol\":69167:69185  _balances[account] */\n      0xffffffffffffffffffffffffffffffffffffffff\n      and\n      0xffffffffffffffffffffffffffffffffffffffff\n      and\n      dup2\n      mstore\n      0x20\n      add\n      swap1\n      dup2\n      mstore\n      0x20\n      add\n      0x00\n      keccak256\n      sload\n        /* \"contracts/ParticipationToken_flattened.sol\":69160:69185  return _balances[account] */\n      swap1\n      pop\n        /* \"contracts/ParticipationToken_flattened.sol\":69076:69192  function balanceOf(address account) public view virtual returns (uint256) {... */\n      swap2\n      swap1\n      pop\n      jump\t// out\n        /* \"contracts/ParticipationToken_flattened.sol\":61658:61759  function renounceOwnership() public virtual onlyOwner {... */\n    tag_66:\n        /* \"contracts/ParticipationToken_flattened.sol\":60896:60909  _checkOwner() */\n      tag_146\n        /* \"contracts/ParticipationToken_flattened.sol\":60896:60907  _checkOwner */\n      tag_131\n        /* \"contracts/ParticipationToken_flattened.sol\":60896:60909  _checkOwner() */\n      jump\t// in\n    tag_146:\n        /* \"contracts/ParticipationToken_flattened.sol\":61722:61752  _transferOwnership(address(0)) */\n      tag_148\n        /* \"contracts/ParticipationToken_flattened.sol\":61749:61750  0 */\n      0x00\n        /* \"contracts/ParticipationToken_flattened.sol\":61722:61740  _transferOwnership */\n      tag_149\n        /* \"contracts/ParticipationToken_flattened.sol\":61722:61752  _transferOwnership(address(0)) */\n      jump\t// in\n    tag_148:\n        /* \"contracts/ParticipationToken_flattened.sol\":61658:61759  function renounceOwnership() public virtual onlyOwner {... */\n      jump\t// out\n        /* \"contracts/ParticipationToken_flattened.sol\":80458:80616  function burnFrom(address account, uint256 value) public virtual {... */\n    tag_69:\n        /* \"contracts/ParticipationToken_flattened.sol\":80533:80578  _spendAllowance(account, _msgSender(), value) */\n      tag_151\n        /* \"contracts/ParticipationToken_flattened.sol\":80549:80556  account */\n      dup3\n        /* \"contracts/ParticipationToken_flattened.sol\":80558:80570  _msgSender() */\n      tag_152\n        /* \"contracts/ParticipationToken_flattened.sol\":80558:80568  _msgSender */\n      tag_115\n        /* \"contracts/ParticipationToken_flattened.sol\":80558:80570  _msgSender() */\n      jump\t// in\n    tag_152:\n        /* \"contracts/ParticipationToken_flattened.sol\":80572:80577  value */\n      dup4\n        /* \"contracts/ParticipationToken_flattened.sol\":80533:80548  _spendAllowance */\n      tag_122\n        /* \"contracts/ParticipationToken_flattened.sol\":80533:80578  _spendAllowance(account, _msgSender(), value) */\n      jump\t// in\n    tag_151:\n        /* \"contracts/ParticipationToken_flattened.sol\":80588:80609  _burn(account, value) */\n      tag_153\n        /* \"contracts/ParticipationToken_flattened.sol\":80594:80601  account */\n      dup3\n        /* \"contracts/ParticipationToken_flattened.sol\":80603:80608  value */\n      dup3\n        /* \"contracts/ParticipationToken_flattened.sol\":80588:80593  _burn */\n      tag_143\n        /* \"contracts/ParticipationToken_flattened.sol\":80588:80609  _burn(account, value) */\n      jump\t// in\n    tag_153:\n        /* \"contracts/ParticipationToken_flattened.sol\":80458:80616  function burnFrom(address account, uint256 value) public virtual {... */\n      pop\n      pop\n      jump\t// out\n        /* \"contracts/ParticipationToken_flattened.sol\":79114:79257  function nonces(address owner) public view virtual override(IERC20Permit, Nonces) returns (uint256) {... */\n    tag_72:\n        /* \"contracts/ParticipationToken_flattened.sol\":79205:79212  uint256 */\n      0x00\n        /* \"contracts/ParticipationToken_flattened.sol\":79231:79250  super.nonces(owner) */\n      tag_155\n        /* \"contracts/ParticipationToken_flattened.sol\":79244:79249  owner */\n      dup3\n        /* \"contracts/ParticipationToken_flattened.sol\":79231:79243  super.nonces */\n      tag_156\n        /* \"contracts/ParticipationToken_flattened.sol\":79231:79250  super.nonces(owner) */\n      jump\t// in\n    tag_155:\n        /* \"contracts/ParticipationToken_flattened.sol\":79224:79250  return super.nonces(owner) */\n      swap1\n      pop\n        /* \"contracts/ParticipationToken_flattened.sol\":79114:79257  function nonces(address owner) public view virtual override(IERC20Permit, Nonces) returns (uint256) {... */\n      swap2\n      swap1\n      pop\n      jump\t// out\n        /* \"contracts/ParticipationToken_flattened.sol\":38759:39316  function eip712Domain()... */\n    tag_75:\n        /* \"contracts/ParticipationToken_flattened.sol\":38857:38870  bytes1 fields */\n      0x00\n        /* \"contracts/ParticipationToken_flattened.sol\":38884:38902  string memory name */\n      0x60\n        /* \"contracts/ParticipationToken_flattened.sol\":38916:38937  string memory version */\n      dup1\n        /* \"contracts/ParticipationToken_flattened.sol\":38951:38966  uint256 chainId */\n      0x00\n        /* \"contracts/ParticipationToken_flattened.sol\":38980:39005  address verifyingContract */\n      dup1\n        /* \"contracts/ParticipationToken_flattened.sol\":39019:39031  bytes32 salt */\n      0x00\n        /* \"contracts/ParticipationToken_flattened.sol\":39045:39072  uint256[] memory extensions */\n      0x60\n        /* \"contracts/ParticipationToken_flattened.sol\":39148:39161  _EIP712Name() */\n      tag_158\n        /* \"contracts/ParticipationToken_flattened.sol\":39148:39159  _EIP712Name */\n      tag_159\n        /* \"contracts/ParticipationToken_flattened.sol\":39148:39161  _EIP712Name() */\n      jump\t// in\n    tag_158:\n        /* \"contracts/ParticipationToken_flattened.sol\":39175:39191  _EIP712Version() */\n      tag_160\n        /* \"contracts/ParticipationToken_flattened.sol\":39175:39189  _EIP712Version */\n      tag_161\n        /* \"contracts/ParticipationToken_flattened.sol\":39175:39191  _EIP712Version() */\n      jump\t// in\n    tag_160:\n        /* \"contracts/ParticipationToken_flattened.sol\":39205:39218  block.chainid */\n      chainid\n        /* \"contracts/ParticipationToken_flattened.sol\":39240:39244  this */\n      address\n        /* \"contracts/ParticipationToken_flattened.sol\":39267:39268  0 */\n      0x00\n        /* \"contracts/ParticipationToken_flattened.sol\":39259:39269  bytes32(0) */\n      dup1\n      shl\n        /* \"contracts/ParticipationToken_flattened.sol\":39297:39298  0 */\n      0x00\n        /* \"contracts/ParticipationToken_flattened.sol\":39283:39299  new uint256[](0) */\n      0xffffffffffffffff\n      dup2\n      gt\n      iszero\n      tag_162\n      jumpi\n      tag_163\n      tag_164\n      jump\t// in\n    tag_163:\n    tag_162:\n      mload(0x40)\n      swap1\n      dup1\n      dup3\n      mstore\n      dup1\n      0x20\n      mul\n      0x20\n      add\n      dup3\n      add\n      0x40\n      mstore\n      dup1\n      iszero\n      tag_165\n      jumpi\n      dup2\n      0x20\n      add\n      0x20\n      dup3\n      mul\n      dup1\n      calldatasize\n      dup4\n      calldatacopy\n      dup1\n      dup3\n      add\n      swap2\n      pop\n      pop\n      swap1\n      pop\n    tag_165:\n      pop\n        /* \"contracts/ParticipationToken_flattened.sol\":39097:39309  return (... */\n      0x0f00000000000000000000000000000000000000000000000000000000000000\n      swap6\n      swap5\n      swap4\n      swap3\n      swap2\n      swap1\n      swap7\n      pop\n      swap7\n      pop\n      swap7\n      pop\n      swap7\n      pop\n      swap7\n      pop\n      swap7\n      pop\n      swap7\n      pop\n        /* \"contracts/ParticipationToken_flattened.sol\":38759:39316  function eip712Domain()... */\n      swap1\n      swap2\n      swap3\n      swap4\n      swap5\n      swap6\n      swap7\n      jump\t// out\n        /* \"contracts/ParticipationToken_flattened.sol\":61003:61088  function owner() public view virtual returns (address) {... */\n    tag_79:\n        /* \"contracts/ParticipationToken_flattened.sol\":61049:61056  address */\n      0x00\n        /* \"contracts/ParticipationToken_flattened.sol\":61075:61081  _owner */\n      0x05\n      0x00\n      swap1\n      sload\n      swap1\n      0x0100\n      exp\n      swap1\n      div\n      0xffffffffffffffffffffffffffffffffffffffff\n      and\n        /* \"contracts/ParticipationToken_flattened.sol\":61068:61081  return _owner */\n      swap1\n      pop\n        /* \"contracts/ParticipationToken_flattened.sol\":61003:61088  function owner() public view virtual returns (address) {... */\n      swap1\n      jump\t// out\n        /* \"contracts/ParticipationToken_flattened.sol\":68053:68146  function symbol() public view virtual returns (string memory) {... */\n    tag_83:\n        /* \"contracts/ParticipationToken_flattened.sol\":68100:68113  string memory */\n      0x60\n        /* \"contracts/ParticipationToken_flattened.sol\":68132:68139  _symbol */\n      0x04\n        /* \"contracts/ParticipationToken_flattened.sol\":68125:68139  return _symbol */\n      dup1\n      sload\n      tag_168\n      swap1\n      tag_108\n      jump\t// in\n    tag_168:\n      dup1\n      0x1f\n      add\n      0x20\n      dup1\n      swap2\n      div\n      mul\n      0x20\n      add\n      mload(0x40)\n      swap1\n      dup2\n      add\n      0x40\n      mstore\n      dup1\n      swap3\n      swap2\n      swap1\n      dup2\n      dup2\n      mstore\n      0x20\n      add\n      dup3\n      dup1\n      sload\n      tag_169\n      swap1\n      tag_108\n      jump\t// in\n    tag_169:\n      dup1\n      iszero\n      tag_170\n      jumpi\n      dup1\n      0x1f\n      lt\n      tag_171\n      jumpi\n      0x0100\n      dup1\n      dup4\n      sload\n      div\n      mul\n      dup4\n      mstore\n      swap2\n      0x20\n      add\n      swap2\n      jump(tag_170)\n    tag_171:\n      dup3\n      add\n      swap2\n      swap1\n      0x00\n      mstore\n      keccak256(0x00, 0x20)\n      swap1\n    tag_172:\n      dup2\n      sload\n      dup2\n      mstore\n      swap1\n      0x01\n      add\n      swap1\n      0x20\n      add\n      dup1\n      dup4\n      gt\n      tag_172\n      jumpi\n      dup3\n      swap1\n      sub\n      0x1f\n      and\n      dup3\n      add\n      swap2\n    tag_170:\n      pop\n      pop\n      pop\n      pop\n      pop\n      swap1\n      pop\n        /* \"contracts/ParticipationToken_flattened.sol\":68053:68146  function symbol() public view virtual returns (string memory) {... */\n      swap1\n      jump\t// out\n        /* \"contracts/ParticipationToken_flattened.sol\":69387:69565  function transfer(address to, uint256 value) public virtual returns (bool) {... */\n    tag_87:\n        /* \"contracts/ParticipationToken_flattened.sol\":69456:69460  bool */\n      0x00\n        /* \"contracts/ParticipationToken_flattened.sol\":69472:69485  address owner */\n      dup1\n        /* \"contracts/ParticipationToken_flattened.sol\":69488:69500  _msgSender() */\n      tag_174\n        /* \"contracts/ParticipationToken_flattened.sol\":69488:69498  _msgSender */\n      tag_115\n        /* \"contracts/ParticipationToken_flattened.sol\":69488:69500  _msgSender() */\n      jump\t// in\n    tag_174:\n        /* \"contracts/ParticipationToken_flattened.sol\":69472:69500  address owner = _msgSender() */\n      swap1\n      pop\n        /* \"contracts/ParticipationToken_flattened.sol\":69510:69537  _transfer(owner, to, value) */\n      tag_175\n        /* \"contracts/ParticipationToken_flattened.sol\":69520:69525  owner */\n      dup2\n        /* \"contracts/ParticipationToken_flattened.sol\":69527:69529  to */\n      dup6\n        /* \"contracts/ParticipationToken_flattened.sol\":69531:69536  value */\n      dup6\n        /* \"contracts/ParticipationToken_flattened.sol\":69510:69519  _transfer */\n      tag_124\n        /* \"contracts/ParticipationToken_flattened.sol\":69510:69537  _transfer(owner, to, value) */\n      jump\t// in\n    tag_175:\n        /* \"contracts/ParticipationToken_flattened.sol\":69554:69558  true */\n      0x01\n        /* \"contracts/ParticipationToken_flattened.sol\":69547:69558  return true */\n      swap2\n      pop\n      pop\n        /* \"contracts/ParticipationToken_flattened.sol\":69387:69565  function transfer(address to, uint256 value) public virtual returns (bool) {... */\n      swap3\n      swap2\n      pop\n      pop\n      jump\t// out\n        /* \"contracts/ParticipationToken_flattened.sol\":81113:81426  function transferParticipationToken(address from, address to, uint256 amount, address contractAddress) public virtual returns (bool){... */\n    tag_92:\n        /* \"contracts/ParticipationToken_flattened.sol\":81240:81244  bool */\n      0x00\n        /* \"contracts/ParticipationToken_flattened.sol\":81255:81331  _spendAllowance(contractAddress, from, amount * (10 ** uint256(decimals()))) */\n      tag_177\n        /* \"contracts/ParticipationToken_flattened.sol\":81271:81286  contractAddress */\n      dup3\n        /* \"contracts/ParticipationToken_flattened.sol\":81288:81292  from */\n      dup7\n        /* \"contracts/ParticipationToken_flattened.sol\":81318:81328  decimals() */\n      tag_178\n        /* \"contracts/ParticipationToken_flattened.sol\":81318:81326  decimals */\n      tag_46\n        /* \"contracts/ParticipationToken_flattened.sol\":81318:81328  decimals() */\n      jump\t// in\n    tag_178:\n        /* \"contracts/ParticipationToken_flattened.sol\":81310:81329  uint256(decimals()) */\n      0xff\n      and\n        /* \"contracts/ParticipationToken_flattened.sol\":81304:81306  10 */\n      0x0a\n        /* \"contracts/ParticipationToken_flattened.sol\":81304:81329  10 ** uint256(decimals()) */\n      tag_179\n      swap2\n      swap1\n      tag_136\n      jump\t// in\n    tag_179:\n        /* \"contracts/ParticipationToken_flattened.sol\":81294:81300  amount */\n      dup7\n        /* \"contracts/ParticipationToken_flattened.sol\":81294:81330  amount * (10 ** uint256(decimals())) */\n      tag_180\n      swap2\n      swap1\n      tag_138\n      jump\t// in\n    tag_180:\n        /* \"contracts/ParticipationToken_flattened.sol\":81255:81270  _spendAllowance */\n      tag_122\n        /* \"contracts/ParticipationToken_flattened.sol\":81255:81331  _spendAllowance(contractAddress, from, amount * (10 ** uint256(decimals()))) */\n      jump\t// in\n    tag_177:\n        /* \"contracts/ParticipationToken_flattened.sol\":81341:81398  _transfer(from, to, amount * (10 ** uint256(decimals()))) */\n      tag_181\n        /* \"contracts/ParticipationToken_flattened.sol\":81351:81355  from */\n      dup6\n        /* \"contracts/ParticipationToken_flattened.sol\":81357:81359  to */\n      dup6\n        /* \"contracts/ParticipationToken_flattened.sol\":81385:81395  decimals() */\n      tag_182\n        /* \"contracts/ParticipationToken_flattened.sol\":81385:81393  decimals */\n      tag_46\n        /* \"contracts/ParticipationToken_flattened.sol\":81385:81395  decimals() */\n      jump\t// in\n    tag_182:\n        /* \"contracts/ParticipationToken_flattened.sol\":81377:81396  uint256(decimals()) */\n      0xff\n      and\n        /* \"contracts/ParticipationToken_flattened.sol\":81371:81373  10 */\n      0x0a\n        /* \"contracts/ParticipationToken_flattened.sol\":81371:81396  10 ** uint256(decimals()) */\n      tag_183\n      swap2\n      swap1\n      tag_136\n      jump\t// in\n    tag_183:\n        /* \"contracts/ParticipationToken_flattened.sol\":81361:81367  amount */\n      dup7\n        /* \"contracts/ParticipationToken_flattened.sol\":81361:81397  amount * (10 ** uint256(decimals())) */\n      tag_184\n      swap2\n      swap1\n      tag_138\n      jump\t// in\n    tag_184:\n        /* \"contracts/ParticipationToken_flattened.sol\":81341:81350  _transfer */\n      tag_124\n        /* \"contracts/ParticipationToken_flattened.sol\":81341:81398  _transfer(from, to, amount * (10 ** uint256(decimals()))) */\n      jump\t// in\n    tag_181:\n        /* \"contracts/ParticipationToken_flattened.sol\":81415:81419  true */\n      0x01\n        /* \"contracts/ParticipationToken_flattened.sol\":81408:81419  return true */\n      swap1\n      pop\n        /* \"contracts/ParticipationToken_flattened.sol\":81113:81426  function transferParticipationToken(address from, address to, uint256 amount, address contractAddress) public virtual returns (bool){... */\n      swap5\n      swap4\n      pop\n      pop\n      pop\n      pop\n      jump\t// out\n        /* \"contracts/ParticipationToken_flattened.sol\":78388:79060  function permit(... */\n    tag_97:\n        /* \"contracts/ParticipationToken_flattened.sol\":78609:78617  deadline */\n      dup4\n        /* \"contracts/ParticipationToken_flattened.sol\":78591:78606  block.timestamp */\n      timestamp\n        /* \"contracts/ParticipationToken_flattened.sol\":78591:78617  block.timestamp > deadline */\n      gt\n        /* \"contracts/ParticipationToken_flattened.sol\":78587:78684  if (block.timestamp > deadline) {... */\n      iszero\n      tag_186\n      jumpi\n        /* \"contracts/ParticipationToken_flattened.sol\":78664:78672  deadline */\n      dup4\n        /* \"contracts/ParticipationToken_flattened.sol\":78640:78673  ERC2612ExpiredSignature(deadline) */\n      mload(0x40)\n      0x6279130200000000000000000000000000000000000000000000000000000000\n      dup2\n      mstore\n      0x04\n      add\n      tag_187\n      swap2\n      swap1\n      tag_39\n      jump\t// in\n    tag_187:\n      mload(0x40)\n      dup1\n      swap2\n      sub\n      swap1\n      revert\n        /* \"contracts/ParticipationToken_flattened.sol\":78587:78684  if (block.timestamp > deadline) {... */\n    tag_186:\n        /* \"contracts/ParticipationToken_flattened.sol\":78694:78712  bytes32 structHash */\n      0x00\n        /* \"contracts/ParticipationToken_flattened.sol\":77730:77825  keccak256(\"Permit(address owner,address spender,uint256 value,uint256 nonce,uint256 deadline)\") */\n      0x6e71edae12b1b97f4d1f60370fef10105fa2faae0126114a169c64845d6126c9\n        /* \"contracts/ParticipationToken_flattened.sol\":78753:78758  owner */\n      dup9\n        /* \"contracts/ParticipationToken_flattened.sol\":78760:78767  spender */\n      dup9\n        /* \"contracts/ParticipationToken_flattened.sol\":78769:78774  value */\n      dup9\n        /* \"contracts/ParticipationToken_flattened.sol\":78776:78792  _useNonce(owner) */\n      tag_188\n        /* \"contracts/ParticipationToken_flattened.sol\":78786:78791  owner */\n      dup13\n        /* \"contracts/ParticipationToken_flattened.sol\":78776:78785  _useNonce */\n      tag_189\n        /* \"contracts/ParticipationToken_flattened.sol\":78776:78792  _useNonce(owner) */\n      jump\t// in\n    tag_188:\n        /* \"contracts/ParticipationToken_flattened.sol\":78794:78802  deadline */\n      dup10\n        /* \"contracts/ParticipationToken_flattened.sol\":78725:78803  abi.encode(PERMIT_TYPEHASH, owner, spender, value, _useNonce(owner), deadline) */\n      add(0x20, mload(0x40))\n      tag_190\n      swap7\n      swap6\n      swap5\n      swap4\n      swap3\n      swap2\n      swap1\n      tag_191\n      jump\t// in\n    tag_190:\n      mload(0x40)\n      0x20\n      dup2\n      dup4\n      sub\n      sub\n      dup2\n      mstore\n      swap1\n      0x40\n      mstore\n        /* \"contracts/ParticipationToken_flattened.sol\":78715:78804  keccak256(abi.encode(PERMIT_TYPEHASH, owner, spender, value, _useNonce(owner), deadline)) */\n      dup1\n      mload\n      swap1\n      0x20\n      add\n      keccak256\n        /* \"contracts/ParticipationToken_flattened.sol\":78694:78804  bytes32 structHash = keccak256(abi.encode(PERMIT_TYPEHASH, owner, spender, value, _useNonce(owner), deadline)) */\n      swap1\n      pop\n        /* \"contracts/ParticipationToken_flattened.sol\":78815:78827  bytes32 hash */\n      0x00\n        /* \"contracts/ParticipationToken_flattened.sol\":78830:78858  _hashTypedDataV4(structHash) */\n      tag_192\n        /* \"contracts/ParticipationToken_flattened.sol\":78847:78857  structHash */\n      dup3\n        /* \"contracts/ParticipationToken_flattened.sol\":78830:78846  _hashTypedDataV4 */\n      tag_193\n        /* \"contracts/ParticipationToken_flattened.sol\":78830:78858  _hashTypedDataV4(structHash) */\n      jump\t// in\n    tag_192:\n        /* \"contracts/ParticipationToken_flattened.sol\":78815:78858  bytes32 hash = _hashTypedDataV4(structHash) */\n      swap1\n      pop\n        /* \"contracts/ParticipationToken_flattened.sol\":78869:78883  address signer */\n      0x00\n        /* \"contracts/ParticipationToken_flattened.sol\":78886:78914  ECDSA.recover(hash, v, r, s) */\n      tag_194\n        /* \"contracts/ParticipationToken_flattened.sol\":78900:78904  hash */\n      dup3\n        /* \"contracts/ParticipationToken_flattened.sol\":78906:78907  v */\n      dup8\n        /* \"contracts/ParticipationToken_flattened.sol\":78909:78910  r */\n      dup8\n        /* \"contracts/ParticipationToken_flattened.sol\":78912:78913  s */\n      dup8\n        /* \"contracts/ParticipationToken_flattened.sol\":78886:78899  ECDSA.recover */\n      tag_195\n        /* \"contracts/ParticipationToken_flattened.sol\":78886:78914  ECDSA.recover(hash, v, r, s) */\n      jump\t// in\n    tag_194:\n        /* \"contracts/ParticipationToken_flattened.sol\":78869:78914  address signer = ECDSA.recover(hash, v, r, s) */\n      swap1\n      pop\n        /* \"contracts/ParticipationToken_flattened.sol\":78938:78943  owner */\n      dup10\n        /* \"contracts/ParticipationToken_flattened.sol\":78928:78943  signer != owner */\n      0xffffffffffffffffffffffffffffffffffffffff\n      and\n        /* \"contracts/ParticipationToken_flattened.sol\":78928:78934  signer */\n      dup2\n        /* \"contracts/ParticipationToken_flattened.sol\":78928:78943  signer != owner */\n      0xffffffffffffffffffffffffffffffffffffffff\n      and\n      eq\n        /* \"contracts/ParticipationToken_flattened.sol\":78924:79012  if (signer != owner) {... */\n      tag_196\n      jumpi\n        /* \"contracts/ParticipationToken_flattened.sol\":78987:78993  signer */\n      dup1\n        /* \"contracts/ParticipationToken_flattened.sol\":78995:79000  owner */\n      dup11\n        /* \"contracts/ParticipationToken_flattened.sol\":78966:79001  ERC2612InvalidSigner(signer, owner) */\n      mload(0x40)\n      0x4b800e4600000000000000000000000000000000000000000000000000000000\n      dup2\n      mstore\n      0x04\n      add\n      tag_197\n      swap3\n      swap2\n      swap1\n      tag_198\n      jump\t// in\n    tag_197:\n      mload(0x40)\n      dup1\n      swap2\n      sub\n      swap1\n      revert\n        /* \"contracts/ParticipationToken_flattened.sol\":78924:79012  if (signer != owner) {... */\n    tag_196:\n        /* \"contracts/ParticipationToken_flattened.sol\":79022:79053  _approve(owner, spender, value) */\n      tag_199\n        /* \"contracts/ParticipationToken_flattened.sol\":79031:79036  owner */\n      dup11\n        /* \"contracts/ParticipationToken_flattened.sol\":79038:79045  spender */\n      dup11\n        /* \"contracts/ParticipationToken_flattened.sol\":79047:79052  value */\n      dup11\n        /* \"contracts/ParticipationToken_flattened.sol\":79022:79030  _approve */\n      tag_117\n        /* \"contracts/ParticipationToken_flattened.sol\":79022:79053  _approve(owner, spender, value) */\n      jump\t// in\n    tag_199:\n        /* \"contracts/ParticipationToken_flattened.sol\":78577:79060  {... */\n      pop\n      pop\n      pop\n        /* \"contracts/ParticipationToken_flattened.sol\":78388:79060  function permit(... */\n      pop\n      pop\n      pop\n      pop\n      pop\n      pop\n      pop\n      jump\t// out\n        /* \"contracts/ParticipationToken_flattened.sol\":69623:69763  function allowance(address owner, address spender) public view virtual returns (uint256) {... */\n    tag_101:\n        /* \"contracts/ParticipationToken_flattened.sol\":69703:69710  uint256 */\n      0x00\n        /* \"contracts/ParticipationToken_flattened.sol\":69729:69740  _allowances */\n      0x01\n        /* \"contracts/ParticipationToken_flattened.sol\":69729:69747  _allowances[owner] */\n      0x00\n        /* \"contracts/ParticipationToken_flattened.sol\":69741:69746  owner */\n      dup5\n        /* \"contracts/ParticipationToken_flattened.sol\":69729:69747  _allowances[owner] */\n      0xffffffffffffffffffffffffffffffffffffffff\n      and\n      0xffffffffffffffffffffffffffffffffffffffff\n      and\n      dup2\n      mstore\n      0x20\n      add\n      swap1\n      dup2\n      mstore\n      0x20\n      add\n      0x00\n      keccak256\n        /* \"contracts/ParticipationToken_flattened.sol\":69729:69756  _allowances[owner][spender] */\n      0x00\n        /* \"contracts/ParticipationToken_flattened.sol\":69748:69755  spender */\n      dup4\n        /* \"contracts/ParticipationToken_flattened.sol\":69729:69756  _allowances[owner][spender] */\n      0xffffffffffffffffffffffffffffffffffffffff\n      and\n      0xffffffffffffffffffffffffffffffffffffffff\n      and\n      dup2\n      mstore\n      0x20\n      add\n      swap1\n      dup2\n      mstore\n      0x20\n      add\n      0x00\n      keccak256\n      sload\n        /* \"contracts/ParticipationToken_flattened.sol\":69722:69756  return _allowances[owner][spender] */\n      swap1\n      pop\n        /* \"contracts/ParticipationToken_flattened.sol\":69623:69763  function allowance(address owner, address spender) public view virtual returns (uint256) {... */\n      swap3\n      swap2\n      pop\n      pop\n      jump\t// out\n        /* \"contracts/ParticipationToken_flattened.sol\":61908:62123  function transferOwnership(address newOwner) public virtual onlyOwner {... */\n    tag_105:\n        /* \"contracts/ParticipationToken_flattened.sol\":60896:60909  _checkOwner() */\n      tag_202\n        /* \"contracts/ParticipationToken_flattened.sol\":60896:60907  _checkOwner */\n      tag_131\n        /* \"contracts/ParticipationToken_flattened.sol\":60896:60909  _checkOwner() */\n      jump\t// in\n    tag_202:\n        /* \"contracts/ParticipationToken_flattened.sol\":62012:62013  0 */\n      0x00\n        /* \"contracts/ParticipationToken_flattened.sol\":61992:62014  newOwner == address(0) */\n      0xffffffffffffffffffffffffffffffffffffffff\n      and\n        /* \"contracts/ParticipationToken_flattened.sol\":61992:62000  newOwner */\n      dup2\n        /* \"contracts/ParticipationToken_flattened.sol\":61992:62014  newOwner == address(0) */\n      0xffffffffffffffffffffffffffffffffffffffff\n      and\n      sub\n        /* \"contracts/ParticipationToken_flattened.sol\":61988:62079  if (newOwner == address(0)) {... */\n      tag_204\n      jumpi\n        /* \"contracts/ParticipationToken_flattened.sol\":62065:62066  0 */\n      0x00\n        /* \"contracts/ParticipationToken_flattened.sol\":62037:62068  OwnableInvalidOwner(address(0)) */\n      mload(0x40)\n      0x1e4fbdf700000000000000000000000000000000000000000000000000000000\n      dup2\n      mstore\n      0x04\n      add\n      tag_205\n      swap2\n      swap1\n      tag_81\n      jump\t// in\n    tag_205:\n      mload(0x40)\n      dup1\n      swap2\n      sub\n      swap1\n      revert\n        /* \"contracts/ParticipationToken_flattened.sol\":61988:62079  if (newOwner == address(0)) {... */\n    tag_204:\n        /* \"contracts/ParticipationToken_flattened.sol\":62088:62116  _transferOwnership(newOwner) */\n      tag_206\n        /* \"contracts/ParticipationToken_flattened.sol\":62107:62115  newOwner */\n      dup2\n        /* \"contracts/ParticipationToken_flattened.sol\":62088:62106  _transferOwnership */\n      tag_149\n        /* \"contracts/ParticipationToken_flattened.sol\":62088:62116  _transferOwnership(newOwner) */\n      jump\t// in\n    tag_206:\n        /* \"contracts/ParticipationToken_flattened.sol\":61908:62123  function transferOwnership(address newOwner) public virtual onlyOwner {... */\n      pop\n      jump\t// out\n        /* \"contracts/ParticipationToken_flattened.sol\":59081:59177  function _msgSender() internal view virtual returns (address) {... */\n    tag_115:\n        /* \"contracts/ParticipationToken_flattened.sol\":59134:59141  address */\n      0x00\n        /* \"contracts/ParticipationToken_flattened.sol\":59160:59170  msg.sender */\n      caller\n        /* \"contracts/ParticipationToken_flattened.sol\":59153:59170  return msg.sender */\n      swap1\n      pop\n        /* \"contracts/ParticipationToken_flattened.sol\":59081:59177  function _msgSender() internal view virtual returns (address) {... */\n      swap1\n      jump\t// out\n        /* \"contracts/ParticipationToken_flattened.sol\":74766:74894  function _approve(address owner, address spender, uint256 value) internal {... */\n    tag_117:\n        /* \"contracts/ParticipationToken_flattened.sol\":74850:74887  _approve(owner, spender, value, true) */\n      tag_209\n        /* \"contracts/ParticipationToken_flattened.sol\":74859:74864  owner */\n      dup4\n        /* \"contracts/ParticipationToken_flattened.sol\":74866:74873  spender */\n      dup4\n        /* \"contracts/ParticipationToken_flattened.sol\":74875:74880  value */\n      dup4\n        /* \"contracts/ParticipationToken_flattened.sol\":74882:74886  true */\n      0x01\n        /* \"contracts/ParticipationToken_flattened.sol\":74850:74858  _approve */\n      tag_210\n        /* \"contracts/ParticipationToken_flattened.sol\":74850:74887  _approve(owner, spender, value, true) */\n      jump\t// in\n    tag_209:\n        /* \"contracts/ParticipationToken_flattened.sol\":74766:74894  function _approve(address owner, address spender, uint256 value) internal {... */\n      pop\n      pop\n      pop\n      jump\t// out\n        /* \"contracts/ParticipationToken_flattened.sol\":76440:76917  function _spendAllowance(address owner, address spender, uint256 value) internal virtual {... */\n    tag_122:\n        /* \"contracts/ParticipationToken_flattened.sol\":76539:76563  uint256 currentAllowance */\n      0x00\n        /* \"contracts/ParticipationToken_flattened.sol\":76566:76591  allowance(owner, spender) */\n      tag_212\n        /* \"contracts/ParticipationToken_flattened.sol\":76576:76581  owner */\n      dup5\n        /* \"contracts/ParticipationToken_flattened.sol\":76583:76590  spender */\n      dup5\n        /* \"contracts/ParticipationToken_flattened.sol\":76566:76575  allowance */\n      tag_101\n        /* \"contracts/ParticipationToken_flattened.sol\":76566:76591  allowance(owner, spender) */\n      jump\t// in\n    tag_212:\n        /* \"contracts/ParticipationToken_flattened.sol\":76539:76591  uint256 currentAllowance = allowance(owner, spender) */\n      swap1\n      pop\n        /* \"contracts/ParticipationToken_flattened.sol\":76625:76642  type(uint256).max */\n      0xffffffffffffffffffffffffffffffffffffffffffffffffffffffffffffffff\n        /* \"contracts/ParticipationToken_flattened.sol\":76605:76621  currentAllowance */\n      dup2\n        /* \"contracts/ParticipationToken_flattened.sol\":76605:76642  currentAllowance != type(uint256).max */\n      eq\n        /* \"contracts/ParticipationToken_flattened.sol\":76601:76911  if (currentAllowance != type(uint256).max) {... */\n      tag_213\n      jumpi\n        /* \"contracts/ParticipationToken_flattened.sol\":76681:76686  value */\n      dup2\n        /* \"contracts/ParticipationToken_flattened.sol\":76662:76678  currentAllowance */\n      dup2\n        /* \"contracts/ParticipationToken_flattened.sol\":76662:76686  currentAllowance < value */\n      lt\n        /* \"contracts/ParticipationToken_flattened.sol\":76658:76788  if (currentAllowance < value) {... */\n      iszero\n      tag_214\n      jumpi\n        /* \"contracts/ParticipationToken_flattened.sol\":76740:76747  spender */\n      dup3\n        /* \"contracts/ParticipationToken_flattened.sol\":76749:76765  currentAllowance */\n      dup2\n        /* \"contracts/ParticipationToken_flattened.sol\":76767:76772  value */\n      dup4\n        /* \"contracts/ParticipationToken_flattened.sol\":76713:76773  ERC20InsufficientAllowance(spender, currentAllowance, value) */\n      mload(0x40)\n      0xfb8f41b200000000000000000000000000000000000000000000000000000000\n      dup2\n      mstore\n      0x04\n      add\n      tag_215\n      swap4\n      swap3\n      swap2\n      swap1\n      tag_216\n      jump\t// in\n    tag_215:\n      mload(0x40)\n      dup1\n      swap2\n      sub\n      swap1\n      revert\n        /* \"contracts/ParticipationToken_flattened.sol\":76658:76788  if (currentAllowance < value) {... */\n    tag_214:\n        /* \"contracts/ParticipationToken_flattened.sol\":76829:76886  _approve(owner, spender, currentAllowance - value, false) */\n      tag_217\n        /* \"contracts/ParticipationToken_flattened.sol\":76838:76843  owner */\n      dup5\n        /* \"contracts/ParticipationToken_flattened.sol\":76845:76852  spender */\n      dup5\n        /* \"contracts/ParticipationToken_flattened.sol\":76873:76878  value */\n      dup5\n        /* \"contracts/ParticipationToken_flattened.sol\":76854:76870  currentAllowance */\n      dup5\n        /* \"contracts/ParticipationToken_flattened.sol\":76854:76878  currentAllowance - value */\n      sub\n        /* \"contracts/ParticipationToken_flattened.sol\":76880:76885  false */\n      0x00\n        /* \"contracts/ParticipationToken_flattened.sol\":76829:76837  _approve */\n      tag_210\n        /* \"contracts/ParticipationToken_flattened.sol\":76829:76886  _approve(owner, spender, currentAllowance - value, false) */\n      jump\t// in\n    tag_217:\n        /* \"contracts/ParticipationToken_flattened.sol\":76601:76911  if (currentAllowance != type(uint256).max) {... */\n    tag_213:\n        /* \"contracts/ParticipationToken_flattened.sol\":76529:76917  {... */\n      pop\n        /* \"contracts/ParticipationToken_flattened.sol\":76440:76917  function _spendAllowance(address owner, address spender, uint256 value) internal virtual {... */\n      pop\n      pop\n      pop\n      jump\t// out\n        /* \"contracts/ParticipationToken_flattened.sol\":71433:71733  function _transfer(address from, address to, uint256 value) internal {... */\n    tag_124:\n        /* \"contracts/ParticipationToken_flattened.sol\":71532:71533  0 */\n      0x00\n        /* \"contracts/ParticipationToken_flattened.sol\":71516:71534  from == address(0) */\n      0xffffffffffffffffffffffffffffffffffffffff\n      and\n        /* \"contracts/ParticipationToken_flattened.sol\":71516:71520  from */\n      dup4\n        /* \"contracts/ParticipationToken_flattened.sol\":71516:71534  from == address(0) */\n      0xffffffffffffffffffffffffffffffffffffffff\n      and\n      sub\n        /* \"contracts/ParticipationToken_flattened.sol\":71512:71598  if (from == address(0)) {... */\n      tag_219\n      jumpi\n        /* \"contracts/ParticipationToken_flattened.sol\":71584:71585  0 */\n      0x00\n        /* \"contracts/ParticipationToken_flattened.sol\":71557:71587  ERC20InvalidSender(address(0)) */\n      mload(0x40)\n      0x96c6fd1e00000000000000000000000000000000000000000000000000000000\n      dup2\n      mstore\n      0x04\n      add\n      tag_220\n      swap2\n      swap1\n      tag_81\n      jump\t// in\n    tag_220:\n      mload(0x40)\n      dup1\n      swap2\n      sub\n      swap1\n      revert\n        /* \"contracts/ParticipationToken_flattened.sol\":71512:71598  if (from == address(0)) {... */\n    tag_219:\n        /* \"contracts/ParticipationToken_flattened.sol\":71625:71626  0 */\n      0x00\n        /* \"contracts/ParticipationToken_flattened.sol\":71611:71627  to == address(0) */\n      0xffffffffffffffffffffffffffffffffffffffff\n      and\n        /* \"contracts/ParticipationToken_flattened.sol\":71611:71613  to */\n      dup3\n        /* \"contracts/ParticipationToken_flattened.sol\":71611:71627  to == address(0) */\n      0xffffffffffffffffffffffffffffffffffffffff\n      and\n      sub\n        /* \"contracts/ParticipationToken_flattened.sol\":71607:71693  if (to == address(0)) {... */\n      tag_221\n      jumpi\n        /* \"contracts/ParticipationToken_flattened.sol\":71679:71680  0 */\n      0x00\n        /* \"contracts/ParticipationToken_flattened.sol\":71650:71682  ERC20InvalidReceiver(address(0)) */\n      mload(0x40)\n      0xec442f0500000000000000000000000000000000000000000000000000000000\n      dup2\n      mstore\n      0x04\n      add\n      tag_222\n      swap2\n      swap1\n      tag_81\n      jump\t// in\n    tag_222:\n      mload(0x40)\n      dup1\n      swap2\n      sub\n      swap1\n      revert\n        /* \"contracts/ParticipationToken_flattened.sol\":71607:71693  if (to == address(0)) {... */\n    tag_221:\n        /* \"contracts/ParticipationToken_flattened.sol\":71702:71726  _update(from, to, value) */\n      tag_223\n        /* \"contracts/ParticipationToken_flattened.sol\":71710:71714  from */\n      dup4\n        /* \"contracts/ParticipationToken_flattened.sol\":71716:71718  to */\n      dup4\n        /* \"contracts/ParticipationToken_flattened.sol\":71720:71725  value */\n      dup4\n        /* \"contracts/ParticipationToken_flattened.sol\":71702:71709  _update */\n      tag_224\n        /* \"contracts/ParticipationToken_flattened.sol\":71702:71726  _update(from, to, value) */\n      jump\t// in\n    tag_223:\n        /* \"contracts/ParticipationToken_flattened.sol\":71433:71733  function _transfer(address from, address to, uint256 value) internal {... */\n      pop\n      pop\n      pop\n      jump\t// out\n        /* \"contracts/ParticipationToken_flattened.sol\":37460:37722  function _domainSeparatorV4() internal view returns (bytes32) {... */\n    tag_128:\n        /* \"contracts/ParticipationToken_flattened.sol\":37513:37520  bytes32 */\n      0x00\n        /* \"contracts/ParticipationToken_flattened.sol\":37553:37564  _cachedThis */\n      immutable(\"0xf2aed5d52b85e7b229d9a0bb201e12bdcbbc5fc133feb54c1cb531c3f7cf58ed\")\n        /* \"contracts/ParticipationToken_flattened.sol\":37536:37564  address(this) == _cachedThis */\n      0xffffffffffffffffffffffffffffffffffffffff\n      and\n        /* \"contracts/ParticipationToken_flattened.sol\":37544:37548  this */\n      address\n        /* \"contracts/ParticipationToken_flattened.sol\":37536:37564  address(this) == _cachedThis */\n      0xffffffffffffffffffffffffffffffffffffffff\n      and\n      eq\n        /* \"contracts/ParticipationToken_flattened.sol\":37536:37599  address(this) == _cachedThis && block.chainid == _cachedChainId */\n      dup1\n      iszero\n      tag_226\n      jumpi\n      pop\n        /* \"contracts/ParticipationToken_flattened.sol\":37585:37599  _cachedChainId */\n      immutable(\"0x89dda32db2afb3470ad3a855ff08175ef365ece0147067a2a9b89c9351412201\")\n        /* \"contracts/ParticipationToken_flattened.sol\":37568:37581  block.chainid */\n      chainid\n        /* \"contracts/ParticipationToken_flattened.sol\":37568:37599  block.chainid == _cachedChainId */\n      eq\n        /* \"contracts/ParticipationToken_flattened.sol\":37536:37599  address(this) == _cachedThis && block.chainid == _cachedChainId */\n    tag_226:\n        /* \"contracts/ParticipationToken_flattened.sol\":37532:37716  if (address(this) == _cachedThis && block.chainid == _cachedChainId) {... */\n      iszero\n      tag_227\n      jumpi\n        /* \"contracts/ParticipationToken_flattened.sol\":37622:37644  _cachedDomainSeparator */\n      immutable(\"0x3f9e555adc0bedaea160f26d13d68ea1bde6a5a9af64af415bccce823c8f9ad8\")\n        /* \"contracts/ParticipationToken_flattened.sol\":37615:37644  return _cachedDomainSeparator */\n      swap1\n      pop\n      jump(tag_225)\n        /* \"contracts/ParticipationToken_flattened.sol\":37532:37716  if (address(this) == _cachedThis && block.chainid == _cachedChainId) {... */\n    tag_227:\n        /* \"contracts/ParticipationToken_flattened.sol\":37682:37705  _buildDomainSeparator() */\n      tag_229\n        /* \"contracts/ParticipationToken_flattened.sol\":37682:37703  _buildDomainSeparator */\n      tag_230\n        /* \"contracts/ParticipationToken_flattened.sol\":37682:37705  _buildDomainSeparator() */\n      jump\t// in\n    tag_229:\n        /* \"contracts/ParticipationToken_flattened.sol\":37675:37705  return _buildDomainSeparator() */\n      swap1\n      pop\n        /* \"contracts/ParticipationToken_flattened.sol\":37460:37722  function _domainSeparatorV4() internal view returns (bytes32) {... */\n    tag_225:\n      swap1\n      jump\t// out\n        /* \"contracts/ParticipationToken_flattened.sol\":61161:61323  function _checkOwner() internal view virtual {... */\n    tag_131:\n        /* \"contracts/ParticipationToken_flattened.sol\":61231:61243  _msgSender() */\n      tag_232\n        /* \"contracts/ParticipationToken_flattened.sol\":61231:61241  _msgSender */\n      tag_115\n        /* \"contracts/ParticipationToken_flattened.sol\":61231:61243  _msgSender() */\n      jump\t// in\n    tag_232:\n        /* \"contracts/ParticipationToken_flattened.sol\":61220:61243  owner() != _msgSender() */\n      0xffffffffffffffffffffffffffffffffffffffff\n      and\n        /* \"contracts/ParticipationToken_flattened.sol\":61220:61227  owner() */\n      tag_233\n        /* \"contracts/ParticipationToken_flattened.sol\":61220:61225  owner */\n      tag_79\n        /* \"contracts/ParticipationToken_flattened.sol\":61220:61227  owner() */\n      jump\t// in\n    tag_233:\n        /* \"contracts/ParticipationToken_flattened.sol\":61220:61243  owner() != _msgSender() */\n      0xffffffffffffffffffffffffffffffffffffffff\n      and\n      eq\n        /* \"contracts/ParticipationToken_flattened.sol\":61216:61317  if (owner() != _msgSender()) {... */\n      tag_234\n      jumpi\n        /* \"contracts/ParticipationToken_flattened.sol\":61293:61305  _msgSender() */\n      tag_235\n        /* \"contracts/ParticipationToken_flattened.sol\":61293:61303  _msgSender */\n      tag_115\n        /* \"contracts/ParticipationToken_flattened.sol\":61293:61305  _msgSender() */\n      jump\t// in\n    tag_235:\n        /* \"contracts/ParticipationToken_flattened.sol\":61266:61306  OwnableUnauthorizedAccount(_msgSender()) */\n      mload(0x40)\n      0x118cdaa700000000000000000000000000000000000000000000000000000000\n      dup2\n      mstore\n      0x04\n      add\n      tag_236\n      swap2\n      swap1\n      tag_81\n      jump\t// in\n    tag_236:\n      mload(0x40)\n      dup1\n      swap2\n      sub\n      swap1\n      revert\n        /* \"contracts/ParticipationToken_flattened.sol\":61216:61317  if (owner() != _msgSender()) {... */\n    tag_234:\n        /* \"contracts/ParticipationToken_flattened.sol\":61161:61323  function _checkOwner() internal view virtual {... */\n      jump\t// out\n        /* \"contracts/ParticipationToken_flattened.sol\":73498:73706  function _mint(address account, uint256 value) internal {... */\n    tag_139:\n        /* \"contracts/ParticipationToken_flattened.sol\":73587:73588  0 */\n      0x00\n        /* \"contracts/ParticipationToken_flattened.sol\":73568:73589  account == address(0) */\n      0xffffffffffffffffffffffffffffffffffffffff\n      and\n        /* \"contracts/ParticipationToken_flattened.sol\":73568:73575  account */\n      dup3\n        /* \"contracts/ParticipationToken_flattened.sol\":73568:73589  account == address(0) */\n      0xffffffffffffffffffffffffffffffffffffffff\n      and\n      sub\n        /* \"contracts/ParticipationToken_flattened.sol\":73564:73655  if (account == address(0)) {... */\n      tag_238\n      jumpi\n        /* \"contracts/ParticipationToken_flattened.sol\":73641:73642  0 */\n      0x00\n        /* \"contracts/ParticipationToken_flattened.sol\":73612:73644  ERC20InvalidReceiver(address(0)) */\n      mload(0x40)\n      0xec442f0500000000000000000000000000000000000000000000000000000000\n      dup2\n      mstore\n      0x04\n      add\n      tag_239\n      swap2\n      swap1\n      tag_81\n      jump\t// in\n    tag_239:\n      mload(0x40)\n      dup1\n      swap2\n      sub\n      swap1\n      revert\n        /* \"contracts/ParticipationToken_flattened.sol\":73564:73655  if (account == address(0)) {... */\n    tag_238:\n        /* \"contracts/ParticipationToken_flattened.sol\":73664:73699  _update(address(0), account, value) */\n      tag_240\n        /* \"contracts/ParticipationToken_flattened.sol\":73680:73681  0 */\n      0x00\n        /* \"contracts/ParticipationToken_flattened.sol\":73684:73691  account */\n      dup4\n        /* \"contracts/ParticipationToken_flattened.sol\":73693:73698  value */\n      dup4\n        /* \"contracts/ParticipationToken_flattened.sol\":73664:73671  _update */\n      tag_224\n        /* \"contracts/ParticipationToken_flattened.sol\":73664:73699  _update(address(0), account, value) */\n      jump\t// in\n    tag_240:\n        /* \"contracts/ParticipationToken_flattened.sol\":73498:73706  function _mint(address account, uint256 value) internal {... */\n      pop\n      pop\n      jump\t// out\n        /* \"contracts/ParticipationToken_flattened.sol\":74024:74230  function _burn(address account, uint256 value) internal {... */\n    tag_143:\n        /* \"contracts/ParticipationToken_flattened.sol\":74113:74114  0 */\n      0x00\n        /* \"contracts/ParticipationToken_flattened.sol\":74094:74115  account == address(0) */\n      0xffffffffffffffffffffffffffffffffffffffff\n      and\n        /* \"contracts/ParticipationToken_flattened.sol\":74094:74101  account */\n      dup3\n        /* \"contracts/ParticipationToken_flattened.sol\":74094:74115  account == address(0) */\n      0xffffffffffffffffffffffffffffffffffffffff\n      and\n      sub\n        /* \"contracts/ParticipationToken_flattened.sol\":74090:74179  if (account == address(0)) {... */\n      tag_242\n      jumpi\n        /* \"contracts/ParticipationToken_flattened.sol\":74165:74166  0 */\n      0x00\n        /* \"contracts/ParticipationToken_flattened.sol\":74138:74168  ERC20InvalidSender(address(0)) */\n      mload(0x40)\n      0x96c6fd1e00000000000000000000000000000000000000000000000000000000\n      dup2\n      mstore\n      0x04\n      add\n      tag_243\n      swap2\n      swap1\n      tag_81\n      jump\t// in\n    tag_243:\n      mload(0x40)\n      dup1\n      swap2\n      sub\n      swap1\n      revert\n        /* \"contracts/ParticipationToken_flattened.sol\":74090:74179  if (account == address(0)) {... */\n    tag_242:\n        /* \"contracts/ParticipationToken_flattened.sol\":74188:74223  _update(account, address(0), value) */\n      tag_244\n        /* \"contracts/ParticipationToken_flattened.sol\":74196:74203  account */\n      dup3\n        /* \"contracts/ParticipationToken_flattened.sol\":74213:74214  0 */\n      0x00\n        /* \"contracts/ParticipationToken_flattened.sol\":74217:74222  value */\n      dup4\n        /* \"contracts/ParticipationToken_flattened.sol\":74188:74195  _update */\n      tag_224\n        /* \"contracts/ParticipationToken_flattened.sol\":74188:74223  _update(account, address(0), value) */\n      jump\t// in\n    tag_244:\n        /* \"contracts/ParticipationToken_flattened.sol\":74024:74230  function _burn(address account, uint256 value) internal {... */\n      pop\n      pop\n      jump\t// out\n        /* \"contracts/ParticipationToken_flattened.sol\":62277:62464  function _transferOwnership(address newOwner) internal virtual {... */\n    tag_149:\n        /* \"contracts/ParticipationToken_flattened.sol\":62350:62366  address oldOwner */\n      0x00\n        /* \"contracts/ParticipationToken_flattened.sol\":62369:62375  _owner */\n      0x05\n      0x00\n      swap1\n      sload\n      swap1\n      0x0100\n      exp\n      swap1\n      div\n      0xffffffffffffffffffffffffffffffffffffffff\n      and\n        /* \"contracts/ParticipationToken_flattened.sol\":62350:62375  address oldOwner = _owner */\n      swap1\n      pop\n        /* \"contracts/ParticipationToken_flattened.sol\":62394:62402  newOwner */\n      dup2\n        /* \"contracts/ParticipationToken_flattened.sol\":62385:62391  _owner */\n      0x05\n      0x00\n        /* \"contracts/ParticipationToken_flattened.sol\":62385:62402  _owner = newOwner */\n      0x0100\n      exp\n      dup2\n      sload\n      dup2\n      0xffffffffffffffffffffffffffffffffffffffff\n      mul\n      not\n      and\n      swap1\n      dup4\n      0xffffffffffffffffffffffffffffffffffffffff\n      and\n      mul\n      or\n      swap1\n      sstore\n      pop\n        /* \"contracts/ParticipationToken_flattened.sol\":62448:62456  newOwner */\n      dup2\n        /* \"contracts/ParticipationToken_flattened.sol\":62417:62457  OwnershipTransferred(oldOwner, newOwner) */\n      0xffffffffffffffffffffffffffffffffffffffff\n      and\n        /* \"contracts/ParticipationToken_flattened.sol\":62438:62446  oldOwner */\n      dup2\n        /* \"contracts/ParticipationToken_flattened.sol\":62417:62457  OwnershipTransferred(oldOwner, newOwner) */\n      0xffffffffffffffffffffffffffffffffffffffff\n      and\n      0x8be0079c531659141344cd1fd0a4f28419497f9722a3daafe3b4186f6b6457e0\n      mload(0x40)\n      mload(0x40)\n      dup1\n      swap2\n      sub\n      swap1\n      log3\n        /* \"contracts/ParticipationToken_flattened.sol\":62340:62464  {... */\n      pop\n        /* \"contracts/ParticipationToken_flattened.sol\":62277:62464  function _transferOwnership(address newOwner) internal virtual {... */\n      pop\n      jump\t// out\n        /* \"contracts/ParticipationToken_flattened.sol\":559:666  function nonces(address owner) public view virtual returns (uint256) {... */\n    tag_156:\n        /* \"contracts/ParticipationToken_flattened.sol\":619:626  uint256 */\n      0x00\n        /* \"contracts/ParticipationToken_flattened.sol\":645:652  _nonces */\n      0x08\n        /* \"contracts/ParticipationToken_flattened.sol\":645:659  _nonces[owner] */\n      0x00\n        /* \"contracts/ParticipationToken_flattened.sol\":653:658  owner */\n      dup4\n        /* \"contracts/ParticipationToken_flattened.sol\":645:659  _nonces[owner] */\n      0xffffffffffffffffffffffffffffffffffffffff\n      and\n      0xffffffffffffffffffffffffffffffffffffffff\n      and\n      dup2\n      mstore\n      0x20\n      add\n      swap1\n      dup2\n      mstore\n      0x20\n      add\n      0x00\n      keccak256\n      sload\n        /* \"contracts/ParticipationToken_flattened.sol\":638:659  return _nonces[owner] */\n      swap1\n      pop\n        /* \"contracts/ParticipationToken_flattened.sol\":559:666  function nonces(address owner) public view virtual returns (uint256) {... */\n      swap2\n      swap1\n      pop\n      jump\t// out\n        /* \"contracts/ParticipationToken_flattened.sol\":39636:39762  function _EIP712Name() internal view returns (string memory) {... */\n    tag_159:\n        /* \"contracts/ParticipationToken_flattened.sol\":39682:39695  string memory */\n      0x60\n        /* \"contracts/ParticipationToken_flattened.sol\":39714:39755  _name.toStringWithFallback(_nameFallback) */\n      tag_248\n        /* \"contracts/ParticipationToken_flattened.sol\":39741:39754  _nameFallback */\n      0x06\n        /* \"contracts/ParticipationToken_flattened.sol\":39714:39719  _name */\n      immutable(\"0xa7cd0fec000bc9bc829eee3f19124c6d92f9bf03bc5604d586b7a9d0b7293aeb\")\n        /* \"contracts/ParticipationToken_flattened.sol\":39714:39740  _name.toStringWithFallback */\n      tag_249\n      swap1\n        /* \"contracts/ParticipationToken_flattened.sol\":39714:39755  _name.toStringWithFallback(_nameFallback) */\n      swap2\n      swap1\n      0xffffffff\n      and\n      jump\t// in\n    tag_248:\n        /* \"contracts/ParticipationToken_flattened.sol\":39707:39755  return _name.toStringWithFallback(_nameFallback) */\n      swap1\n      pop\n        /* \"contracts/ParticipationToken_flattened.sol\":39636:39762  function _EIP712Name() internal view returns (string memory) {... */\n      swap1\n      jump\t// out\n        /* \"contracts/ParticipationToken_flattened.sol\":40088:40223  function _EIP712Version() internal view returns (string memory) {... */\n    tag_161:\n        /* \"contracts/ParticipationToken_flattened.sol\":40137:40150  string memory */\n      0x60\n        /* \"contracts/ParticipationToken_flattened.sol\":40169:40216  _version.toStringWithFallback(_versionFallback) */\n      tag_251\n        /* \"contracts/ParticipationToken_flattened.sol\":40199:40215  _versionFallback */\n      0x07\n        /* \"contracts/ParticipationToken_flattened.sol\":40169:40177  _version */\n      immutable(\"0x2afe76337b531113eeb6984869209602297c0be432194d84882749ead3021a37\")\n        /* \"contracts/ParticipationToken_flattened.sol\":40169:40198  _version.toStringWithFallback */\n      tag_249\n      swap1\n        /* \"contracts/ParticipationToken_flattened.sol\":40169:40216  _version.toStringWithFallback(_versionFallback) */\n      swap2\n      swap1\n      0xffffffff\n      and\n      jump\t// in\n    tag_251:\n        /* \"contracts/ParticipationToken_flattened.sol\":40162:40216  return _version.toStringWithFallback(_versionFallback) */\n      swap1\n      pop\n        /* \"contracts/ParticipationToken_flattened.sol\":40088:40223  function _EIP712Version() internal view returns (string memory) {... */\n      swap1\n      jump\t// out\n        /* \"contracts/ParticipationToken_flattened.sol\":780:1175  function _useNonce(address owner) internal virtual returns (uint256) {... */\n    tag_189:\n        /* \"contracts/ParticipationToken_flattened.sol\":840:847  uint256 */\n      0x00\n        /* \"contracts/ParticipationToken_flattened.sol\":1142:1149  _nonces */\n      0x08\n        /* \"contracts/ParticipationToken_flattened.sol\":1142:1156  _nonces[owner] */\n      0x00\n        /* \"contracts/ParticipationToken_flattened.sol\":1150:1155  owner */\n      dup4\n        /* \"contracts/ParticipationToken_flattened.sol\":1142:1156  _nonces[owner] */\n      0xffffffffffffffffffffffffffffffffffffffff\n      and\n      0xffffffffffffffffffffffffffffffffffffffff\n      and\n      dup2\n      mstore\n      0x20\n      add\n      swap1\n      dup2\n      mstore\n      0x20\n      add\n      0x00\n      keccak256\n      0x00\n        /* \"contracts/ParticipationToken_flattened.sol\":1142:1158  _nonces[owner]++ */\n      dup2\n      sload\n      dup1\n      swap3\n      swap2\n      swap1\n      0x01\n      add\n      swap2\n      swap1\n      pop\n      sstore\n        /* \"contracts/ParticipationToken_flattened.sol\":1135:1158  return _nonces[owner]++ */\n      swap1\n      pop\n        /* \"contracts/ParticipationToken_flattened.sol\":780:1175  function _useNonce(address owner) internal virtual returns (uint256) {... */\n      swap2\n      swap1\n      pop\n      jump\t// out\n        /* \"contracts/ParticipationToken_flattened.sol\":38532:38708  function _hashTypedDataV4(bytes32 structHash) internal view virtual returns (bytes32) {... */\n    tag_193:\n        /* \"contracts/ParticipationToken_flattened.sol\":38609:38616  bytes32 */\n      0x00\n        /* \"contracts/ParticipationToken_flattened.sol\":38635:38701  MessageHashUtils.toTypedDataHash(_domainSeparatorV4(), structHash) */\n      tag_254\n        /* \"contracts/ParticipationToken_flattened.sol\":38668:38688  _domainSeparatorV4() */\n      tag_255\n        /* \"contracts/ParticipationToken_flattened.sol\":38668:38686  _domainSeparatorV4 */\n      tag_128\n        /* \"contracts/ParticipationToken_flattened.sol\":38668:38688  _domainSeparatorV4() */\n      jump\t// in\n    tag_255:\n        /* \"contracts/ParticipationToken_flattened.sol\":38690:38700  structHash */\n      dup4\n        /* \"contracts/ParticipationToken_flattened.sol\":38635:38667  MessageHashUtils.toTypedDataHash */\n      tag_256\n        /* \"contracts/ParticipationToken_flattened.sol\":38635:38701  MessageHashUtils.toTypedDataHash(_domainSeparatorV4(), structHash) */\n      jump\t// in\n    tag_254:\n        /* \"contracts/ParticipationToken_flattened.sol\":38628:38701  return MessageHashUtils.toTypedDataHash(_domainSeparatorV4(), structHash) */\n      swap1\n      pop\n        /* \"contracts/ParticipationToken_flattened.sol\":38532:38708  function _hashTypedDataV4(bytes32 structHash) internal view virtual returns (bytes32) {... */\n      swap2\n      swap1\n      pop\n      jump\t// out\n        /* \"contracts/ParticipationToken_flattened.sol\":47062:47322  function recover(bytes32 hash, uint8 v, bytes32 r, bytes32 s) internal pure returns (address) {... */\n    tag_195:\n        /* \"contracts/ParticipationToken_flattened.sol\":47147:47154  address */\n      0x00\n        /* \"contracts/ParticipationToken_flattened.sol\":47167:47184  address recovered */\n      dup1\n        /* \"contracts/ParticipationToken_flattened.sol\":47186:47204  RecoverError error */\n      0x00\n        /* \"contracts/ParticipationToken_flattened.sol\":47206:47222  bytes32 errorArg */\n      dup1\n        /* \"contracts/ParticipationToken_flattened.sol\":47226:47251  tryRecover(hash, v, r, s) */\n      tag_258\n        /* \"contracts/ParticipationToken_flattened.sol\":47237:47241  hash */\n      dup9\n        /* \"contracts/ParticipationToken_flattened.sol\":47243:47244  v */\n      dup9\n        /* \"contracts/ParticipationToken_flattened.sol\":47246:47247  r */\n      dup9\n        /* \"contracts/ParticipationToken_flattened.sol\":47249:47250  s */\n      dup9\n        /* \"contracts/ParticipationToken_flattened.sol\":47226:47236  tryRecover */\n      tag_259\n        /* \"contracts/ParticipationToken_flattened.sol\":47226:47251  tryRecover(hash, v, r, s) */\n      jump\t// in\n    tag_258:\n        /* \"contracts/ParticipationToken_flattened.sol\":47166:47251  (address recovered, RecoverError error, bytes32 errorArg) = tryRecover(hash, v, r, s) */\n      swap3\n      pop\n      swap3\n      pop\n      swap3\n      pop\n        /* \"contracts/ParticipationToken_flattened.sol\":47261:47289  _throwError(error, errorArg) */\n      tag_260\n        /* \"contracts/ParticipationToken_flattened.sol\":47273:47278  error */\n      dup3\n        /* \"contracts/ParticipationToken_flattened.sol\":47280:47288  errorArg */\n      dup3\n        /* \"contracts/ParticipationToken_flattened.sol\":47261:47272  _throwError */\n      tag_261\n        /* \"contracts/ParticipationToken_flattened.sol\":47261:47289  _throwError(error, errorArg) */\n      jump\t// in\n    tag_260:\n        /* \"contracts/ParticipationToken_flattened.sol\":47306:47315  recovered */\n      dup3\n        /* \"contracts/ParticipationToken_flattened.sol\":47299:47315  return recovered */\n      swap4\n      pop\n      pop\n      pop\n      pop\n        /* \"contracts/ParticipationToken_flattened.sol\":47062:47322  function recover(bytes32 hash, uint8 v, bytes32 r, bytes32 s) internal pure returns (address) {... */\n      swap5\n      swap4\n      pop\n      pop\n      pop\n      pop\n      jump\t// out\n        /* \"contracts/ParticipationToken_flattened.sol\":75726:76158  function _approve(address owner, address spender, uint256 value, bool emitEvent) internal virtual {... */\n    tag_210:\n        /* \"contracts/ParticipationToken_flattened.sol\":75855:75856  0 */\n      0x00\n        /* \"contracts/ParticipationToken_flattened.sol\":75838:75857  owner == address(0) */\n      0xffffffffffffffffffffffffffffffffffffffff\n      and\n        /* \"contracts/ParticipationToken_flattened.sol\":75838:75843  owner */\n      dup5\n        /* \"contracts/ParticipationToken_flattened.sol\":75838:75857  owner == address(0) */\n      0xffffffffffffffffffffffffffffffffffffffff\n      and\n      sub\n        /* \"contracts/ParticipationToken_flattened.sol\":75834:75923  if (owner == address(0)) {... */\n      tag_263\n      jumpi\n        /* \"contracts/ParticipationToken_flattened.sol\":75909:75910  0 */\n      0x00\n        /* \"contracts/ParticipationToken_flattened.sol\":75880:75912  ERC20InvalidApprover(address(0)) */\n      mload(0x40)\n      0xe602df0500000000000000000000000000000000000000000000000000000000\n      dup2\n      mstore\n      0x04\n      add\n      tag_264\n      swap2\n      swap1\n      tag_81\n      jump\t// in\n    tag_264:\n      mload(0x40)\n      dup1\n      swap2\n      sub\n      swap1\n      revert\n        /* \"contracts/ParticipationToken_flattened.sol\":75834:75923  if (owner == address(0)) {... */\n    tag_263:\n        /* \"contracts/ParticipationToken_flattened.sol\":75955:75956  0 */\n      0x00\n        /* \"contracts/ParticipationToken_flattened.sol\":75936:75957  spender == address(0) */\n      0xffffffffffffffffffffffffffffffffffffffff\n      and\n        /* \"contracts/ParticipationToken_flattened.sol\":75936:75943  spender */\n      dup4\n        /* \"contracts/ParticipationToken_flattened.sol\":75936:75957  spender == address(0) */\n      0xffffffffffffffffffffffffffffffffffffffff\n      and\n      sub\n        /* \"contracts/ParticipationToken_flattened.sol\":75932:76022  if (spender == address(0)) {... */\n      tag_265\n      jumpi\n        /* \"contracts/ParticipationToken_flattened.sol\":76008:76009  0 */\n      0x00\n        /* \"contracts/ParticipationToken_flattened.sol\":75980:76011  ERC20InvalidSpender(address(0)) */\n      mload(0x40)\n      0x94280d6200000000000000000000000000000000000000000000000000000000\n      dup2\n      mstore\n      0x04\n      add\n      tag_266\n      swap2\n      swap1\n      tag_81\n      jump\t// in\n    tag_266:\n      mload(0x40)\n      dup1\n      swap2\n      sub\n      swap1\n      revert\n        /* \"contracts/ParticipationToken_flattened.sol\":75932:76022  if (spender == address(0)) {... */\n    tag_265:\n        /* \"contracts/ParticipationToken_flattened.sol\":76061:76066  value */\n      dup2\n        /* \"contracts/ParticipationToken_flattened.sol\":76031:76042  _allowances */\n      0x01\n        /* \"contracts/ParticipationToken_flattened.sol\":76031:76049  _allowances[owner] */\n      0x00\n        /* \"contracts/ParticipationToken_flattened.sol\":76043:76048  owner */\n      dup7\n        /* \"contracts/ParticipationToken_flattened.sol\":76031:76049  _allowances[owner] */\n      0xffffffffffffffffffffffffffffffffffffffff\n      and\n      0xffffffffffffffffffffffffffffffffffffffff\n      and\n      dup2\n      mstore\n      0x20\n      add\n      swap1\n      dup2\n      mstore\n      0x20\n      add\n      0x00\n      keccak256\n        /* \"contracts/ParticipationToken_flattened.sol\":76031:76058  _allowances[owner][spender] */\n      0x00\n        /* \"contracts/ParticipationToken_flattened.sol\":76050:76057  spender */\n      dup6\n        /* \"contracts/ParticipationToken_flattened.sol\":76031:76058  _allowances[owner][spender] */\n      0xffffffffffffffffffffffffffffffffffffffff\n      and\n      0xffffffffffffffffffffffffffffffffffffffff\n      and\n      dup2\n      mstore\n      0x20\n      add\n      swap1\n      dup2\n      mstore\n      0x20\n      add\n      0x00\n      keccak256\n        /* \"contracts/ParticipationToken_flattened.sol\":76031:76066  _allowances[owner][spender] = value */\n      dup2\n      swap1\n      sstore\n      pop\n        /* \"contracts/ParticipationToken_flattened.sol\":76080:76089  emitEvent */\n      dup1\n        /* \"contracts/ParticipationToken_flattened.sol\":76076:76152  if (emitEvent) {... */\n      iszero\n      tag_267\n      jumpi\n        /* \"contracts/ParticipationToken_flattened.sol\":76126:76133  spender */\n      dup3\n        /* \"contracts/ParticipationToken_flattened.sol\":76110:76141  Approval(owner, spender, value) */\n      0xffffffffffffffffffffffffffffffffffffffff\n      and\n        /* \"contracts/ParticipationToken_flattened.sol\":76119:76124  owner */\n      dup5\n        /* \"contracts/ParticipationToken_flattened.sol\":76110:76141  Approval(owner, spender, value) */\n      0xffffffffffffffffffffffffffffffffffffffff\n      and\n      0x8c5be1e5ebec7d5bd14f71427d1e84f3dd0314c0f7b2291e5b200ac8c7c3b925\n        /* \"contracts/ParticipationToken_flattened.sol\":76135:76140  value */\n      dup5\n        /* \"contracts/ParticipationToken_flattened.sol\":76110:76141  Approval(owner, spender, value) */\n      mload(0x40)\n      tag_268\n      swap2\n      swap1\n      tag_39\n      jump\t// in\n    tag_268:\n      mload(0x40)\n      dup1\n      swap2\n      sub\n      swap1\n      log3\n        /* \"contracts/ParticipationToken_flattened.sol\":76076:76152  if (emitEvent) {... */\n    tag_267:\n        /* \"contracts/ParticipationToken_flattened.sol\":75726:76158  function _approve(address owner, address spender, uint256 value, bool emitEvent) internal virtual {... */\n      pop\n      pop\n      pop\n      pop\n      jump\t// out\n        /* \"contracts/ParticipationToken_flattened.sol\":72048:73155  function _update(address from, address to, uint256 value) internal virtual {... */\n    tag_224:\n        /* \"contracts/ParticipationToken_flattened.sol\":72153:72154  0 */\n      0x00\n        /* \"contracts/ParticipationToken_flattened.sol\":72137:72155  from == address(0) */\n      0xffffffffffffffffffffffffffffffffffffffff\n      and\n        /* \"contracts/ParticipationToken_flattened.sol\":72137:72141  from */\n      dup4\n        /* \"contracts/ParticipationToken_flattened.sol\":72137:72155  from == address(0) */\n      0xffffffffffffffffffffffffffffffffffffffff\n      and\n      sub\n        /* \"contracts/ParticipationToken_flattened.sol\":72133:72673  if (from == address(0)) {... */\n      tag_270\n      jumpi\n        /* \"contracts/ParticipationToken_flattened.sol\":72289:72294  value */\n      dup1\n        /* \"contracts/ParticipationToken_flattened.sol\":72273:72285  _totalSupply */\n      0x02\n      0x00\n        /* \"contracts/ParticipationToken_flattened.sol\":72273:72294  _totalSupply += value */\n      dup3\n      dup3\n      sload\n      tag_271\n      swap2\n      swap1\n      tag_272\n      jump\t// in\n    tag_271:\n      swap3\n      pop\n      pop\n      dup2\n      swap1\n      sstore\n      pop\n        /* \"contracts/ParticipationToken_flattened.sol\":72133:72673  if (from == address(0)) {... */\n      jump(tag_273)\n    tag_270:\n        /* \"contracts/ParticipationToken_flattened.sol\":72325:72344  uint256 fromBalance */\n      0x00\n        /* \"contracts/ParticipationToken_flattened.sol\":72347:72356  _balances */\n      dup1\n        /* \"contracts/ParticipationToken_flattened.sol\":72347:72362  _balances[from] */\n      0x00\n        /* \"contracts/ParticipationToken_flattened.sol\":72357:72361  from */\n      dup6\n        /* \"contracts/ParticipationToken_flattened.sol\":72347:72362  _balances[from] */\n      0xffffffffffffffffffffffffffffffffffffffff\n      and\n      0xffffffffffffffffffffffffffffffffffffffff\n      and\n      dup2\n      mstore\n      0x20\n      add\n      swap1\n      dup2\n      mstore\n      0x20\n      add\n      0x00\n      keccak256\n      sload\n        /* \"contracts/ParticipationToken_flattened.sol\":72325:72362  uint256 fromBalance = _balances[from] */\n      swap1\n      pop\n        /* \"contracts/ParticipationToken_flattened.sol\":72394:72399  value */\n      dup2\n        /* \"contracts/ParticipationToken_flattened.sol\":72380:72391  fromBalance */\n      dup2\n        /* \"contracts/ParticipationToken_flattened.sol\":72380:72399  fromBalance < value */\n      lt\n        /* \"contracts/ParticipationToken_flattened.sol\":72376:72491  if (fromBalance < value) {... */\n      iszero\n      tag_274\n      jumpi\n        /* \"contracts/ParticipationToken_flattened.sol\":72451:72455  from */\n      dup4\n        /* \"contracts/ParticipationToken_flattened.sol\":72457:72468  fromBalance */\n      dup2\n        /* \"contracts/ParticipationToken_flattened.sol\":72470:72475  value */\n      dup4\n        /* \"contracts/ParticipationToken_flattened.sol\":72426:72476  ERC20InsufficientBalance(from, fromBalance, value) */\n      mload(0x40)\n      0xe450d38c00000000000000000000000000000000000000000000000000000000\n      dup2\n      mstore\n      0x04\n      add\n      tag_275\n      swap4\n      swap3\n      swap2\n      swap1\n      tag_216\n      jump\t// in\n    tag_275:\n      mload(0x40)\n      dup1\n      swap2\n      sub\n      swap1\n      revert\n        /* \"contracts/ParticipationToken_flattened.sol\":72376:72491  if (fromBalance < value) {... */\n    tag_274:\n        /* \"contracts/ParticipationToken_flattened.sol\":72643:72648  value */\n      dup2\n        /* \"contracts/ParticipationToken_flattened.sol\":72629:72640  fromBalance */\n      dup2\n        /* \"contracts/ParticipationToken_flattened.sol\":72629:72648  fromBalance - value */\n      sub\n        /* \"contracts/ParticipationToken_flattened.sol\":72611:72620  _balances */\n      0x00\n        /* \"contracts/ParticipationToken_flattened.sol\":72611:72626  _balances[from] */\n      dup1\n        /* \"contracts/ParticipationToken_flattened.sol\":72621:72625  from */\n      dup7\n        /* \"contracts/ParticipationToken_flattened.sol\":72611:72626  _balances[from] */\n      0xffffffffffffffffffffffffffffffffffffffff\n      and\n      0xffffffffffffffffffffffffffffffffffffffff\n      and\n      dup2\n      mstore\n      0x20\n      add\n      swap1\n      dup2\n      mstore\n      0x20\n      add\n      0x00\n      keccak256\n        /* \"contracts/ParticipationToken_flattened.sol\":72611:72648  _balances[from] = fromBalance - value */\n      dup2\n      swap1\n      sstore\n      pop\n        /* \"contracts/ParticipationToken_flattened.sol\":72311:72673  {... */\n      pop\n        /* \"contracts/ParticipationToken_flattened.sol\":72133:72673  if (from == address(0)) {... */\n    tag_273:\n        /* \"contracts/ParticipationToken_flattened.sol\":72701:72702  0 */\n      0x00\n        /* \"contracts/ParticipationToken_flattened.sol\":72687:72703  to == address(0) */\n      0xffffffffffffffffffffffffffffffffffffffff\n      and\n        /* \"contracts/ParticipationToken_flattened.sol\":72687:72689  to */\n      dup3\n        /* \"contracts/ParticipationToken_flattened.sol\":72687:72703  to == address(0) */\n      0xffffffffffffffffffffffffffffffffffffffff\n      and\n      sub\n        /* \"contracts/ParticipationToken_flattened.sol\":72683:73108  if (to == address(0)) {... */\n      tag_276\n      jumpi\n        /* \"contracts/ParticipationToken_flattened.sol\":72866:72871  value */\n      dup1\n        /* \"contracts/ParticipationToken_flattened.sol\":72850:72862  _totalSupply */\n      0x02\n      0x00\n        /* \"contracts/ParticipationToken_flattened.sol\":72850:72871  _totalSupply -= value */\n      dup3\n      dup3\n      sload\n      sub\n      swap3\n      pop\n      pop\n      dup2\n      swap1\n      sstore\n      pop\n        /* \"contracts/ParticipationToken_flattened.sol\":72683:73108  if (to == address(0)) {... */\n      jump(tag_277)\n    tag_276:\n        /* \"contracts/ParticipationToken_flattened.sol\":73078:73083  value */\n      dup1\n        /* \"contracts/ParticipationToken_flattened.sol\":73061:73070  _balances */\n      0x00\n        /* \"contracts/ParticipationToken_flattened.sol\":73061:73074  _balances[to] */\n      dup1\n        /* \"contracts/ParticipationToken_flattened.sol\":73071:73073  to */\n      dup5\n        /* \"contracts/ParticipationToken_flattened.sol\":73061:73074  _balances[to] */\n      0xffffffffffffffffffffffffffffffffffffffff\n      and\n      0xffffffffffffffffffffffffffffffffffffffff\n      and\n      dup2\n      mstore\n      0x20\n      add\n      swap1\n      dup2\n      mstore\n      0x20\n      add\n      0x00\n      keccak256\n      0x00\n        /* \"contracts/ParticipationToken_flattened.sol\":73061:73083  _balances[to] += value */\n      dup3\n      dup3\n      sload\n      add\n      swap3\n      pop\n      pop\n      dup2\n      swap1\n      sstore\n      pop\n        /* \"contracts/ParticipationToken_flattened.sol\":72683:73108  if (to == address(0)) {... */\n    tag_277:\n        /* \"contracts/ParticipationToken_flattened.sol\":73138:73140  to */\n      dup2\n        /* \"contracts/ParticipationToken_flattened.sol\":73123:73148  Transfer(from, to, value) */\n      0xffffffffffffffffffffffffffffffffffffffff\n      and\n        /* \"contracts/ParticipationToken_flattened.sol\":73132:73136  from */\n      dup4\n        /* \"contracts/ParticipationToken_flattened.sol\":73123:73148  Transfer(from, to, value) */\n      0xffffffffffffffffffffffffffffffffffffffff\n      and\n      0xddf252ad1be2c89b69c2b068fc378daa952ba7f163c4a11628f55a4df523b3ef\n        /* \"contracts/ParticipationToken_flattened.sol\":73142:73147  value */\n      dup4\n        /* \"contracts/ParticipationToken_flattened.sol\":73123:73148  Transfer(from, to, value) */\n      mload(0x40)\n      tag_278\n      swap2\n      swap1\n      tag_39\n      jump\t// in\n    tag_278:\n      mload(0x40)\n      dup1\n      swap2\n      sub\n      swap1\n      log3\n        /* \"contracts/ParticipationToken_flattened.sol\":72048:73155  function _update(address from, address to, uint256 value) internal virtual {... */\n      pop\n      pop\n      pop\n      jump\t// out\n        /* \"contracts/ParticipationToken_flattened.sol\":37728:37907  function _buildDomainSeparator() private view returns (bytes32) {... */\n    tag_230:\n        /* \"contracts/ParticipationToken_flattened.sol\":37783:37790  bytes32 */\n      0x00\n        /* \"contracts/ParticipationToken_flattened.sol\":35694:35789  keccak256(\"EIP712Domain(string name,string version,uint256 chainId,address verifyingContract)\") */\n      0x8b73c3c69bb8fe3d512ecc4cf759cc79239f7b179b0ffacaa9a75d522b39400f\n        /* \"contracts/ParticipationToken_flattened.sol\":37841:37852  _hashedName */\n      immutable(\"0xf9ba965def30954c13b9f17655d4bfcf079e819f9cc42b75928cd97e2c9f9020\")\n        /* \"contracts/ParticipationToken_flattened.sol\":37854:37868  _hashedVersion */\n      immutable(\"0x5444bf99e2aaa84d0c0adba4902ca441e981a14d987060ddd53a6e4272e74bca\")\n        /* \"contracts/ParticipationToken_flattened.sol\":37870:37883  block.chainid */\n      chainid\n        /* \"contracts/ParticipationToken_flattened.sol\":37893:37897  this */\n      address\n        /* \"contracts/ParticipationToken_flattened.sol\":37819:37899  abi.encode(TYPE_HASH, _hashedName, _hashedVersion, block.chainid, address(this)) */\n      add(0x20, mload(0x40))\n      tag_280\n      swap6\n      swap5\n      swap4\n      swap3\n      swap2\n      swap1\n      tag_281\n      jump\t// in\n    tag_280:\n      mload(0x40)\n      0x20\n      dup2\n      dup4\n      sub\n      sub\n      dup2\n      mstore\n      swap1\n      0x40\n      mstore\n        /* \"contracts/ParticipationToken_flattened.sol\":37809:37900  keccak256(abi.encode(TYPE_HASH, _hashedName, _hashedVersion, block.chainid, address(this))) */\n      dup1\n      mload\n      swap1\n      0x20\n      add\n      keccak256\n        /* \"contracts/ParticipationToken_flattened.sol\":37802:37900  return keccak256(abi.encode(TYPE_HASH, _hashedName, _hashedVersion, block.chainid, address(this))) */\n      swap1\n      pop\n        /* \"contracts/ParticipationToken_flattened.sol\":37728:37907  function _buildDomainSeparator() private view returns (bytes32) {... */\n      swap1\n      jump\t// out\n        /* \"contracts/ParticipationToken_flattened.sol\":9600:9867  function toStringWithFallback(ShortString value, string storage store) internal pure returns (string memory) {... */\n    tag_249:\n        /* \"contracts/ParticipationToken_flattened.sol\":9694:9707  string memory */\n      0x60\n        /* \"contracts/ParticipationToken_flattened.sol\":7605:7671  0x00000000000000000000000000000000000000000000000000000000000000FF */\n      0xff\n        /* \"contracts/ParticipationToken_flattened.sol\":9752:9769  FALLBACK_SENTINEL */\n      0x00\n      shl\n        /* \"contracts/ParticipationToken_flattened.sol\":9742:9747  value */\n      dup4\n        /* \"contracts/ParticipationToken_flattened.sol\":9723:9769  ShortString.unwrap(value) != FALLBACK_SENTINEL */\n      eq\n        /* \"contracts/ParticipationToken_flattened.sol\":9719:9861  if (ShortString.unwrap(value) != FALLBACK_SENTINEL) {... */\n      tag_283\n      jumpi\n        /* \"contracts/ParticipationToken_flattened.sol\":9792:9807  toString(value) */\n      tag_284\n        /* \"contracts/ParticipationToken_flattened.sol\":9801:9806  value */\n      dup4\n        /* \"contracts/ParticipationToken_flattened.sol\":9792:9800  toString */\n      tag_285\n        /* \"contracts/ParticipationToken_flattened.sol\":9792:9807  toString(value) */\n      jump\t// in\n    tag_284:\n        /* \"contracts/ParticipationToken_flattened.sol\":9785:9807  return toString(value) */\n      swap1\n      pop\n      jump(tag_282)\n        /* \"contracts/ParticipationToken_flattened.sol\":9719:9861  if (ShortString.unwrap(value) != FALLBACK_SENTINEL) {... */\n    tag_283:\n        /* \"contracts/ParticipationToken_flattened.sol\":9845:9850  store */\n      dup2\n        /* \"contracts/ParticipationToken_flattened.sol\":9838:9850  return store */\n      dup1\n      sload\n      tag_287\n      swap1\n      tag_108\n      jump\t// in\n    tag_287:\n      dup1\n      0x1f\n      add\n      0x20\n      dup1\n      swap2\n      div\n      mul\n      0x20\n      add\n      mload(0x40)\n      swap1\n      dup2\n      add\n      0x40\n      mstore\n      dup1\n      swap3\n      swap2\n      swap1\n      dup2\n      dup2\n      mstore\n      0x20\n      add\n      dup3\n      dup1\n      sload\n      tag_288\n      swap1\n      tag_108\n      jump\t// in\n    tag_288:\n      dup1\n      iszero\n      tag_289\n      jumpi\n      dup1\n      0x1f\n      lt\n      tag_290\n      jumpi\n      0x0100\n      dup1\n      dup4\n      sload\n      div\n      mul\n      dup4\n      mstore\n      swap2\n      0x20\n      add\n      swap2\n      jump(tag_289)\n    tag_290:\n      dup3\n      add\n      swap2\n      swap1\n      0x00\n      mstore\n      keccak256(0x00, 0x20)\n      swap1\n    tag_291:\n      dup2\n      sload\n      dup2\n      mstore\n      swap1\n      0x01\n      add\n      swap1\n      0x20\n      add\n      dup1\n      dup4\n      gt\n      tag_291\n      jumpi\n      dup3\n      swap1\n      sub\n      0x1f\n      and\n      dup3\n      add\n      swap2\n    tag_289:\n      pop\n      pop\n      pop\n      pop\n      pop\n      swap1\n      pop\n        /* \"contracts/ParticipationToken_flattened.sol\":9600:9867  function toStringWithFallback(ShortString value, string storage store) internal pure returns (string memory) {... */\n    tag_282:\n      swap3\n      swap2\n      pop\n      pop\n      jump\t// out\n        /* \"contracts/ParticipationToken_flattened.sol\":33351:33752  function toTypedDataHash(bytes32 domainSeparator, bytes32 structHash) internal pure returns (bytes32 digest) {... */\n    tag_256:\n        /* \"contracts/ParticipationToken_flattened.sol\":33444:33458  bytes32 digest */\n      0x00\n        /* \"contracts/ParticipationToken_flattened.sol\":33553:33557  0x40 */\n      0x40\n        /* \"contracts/ParticipationToken_flattened.sol\":33547:33558  mload(0x40) */\n      mload\n        /* \"contracts/ParticipationToken_flattened.sol\":33583:33593  hex\"19_01\" */\n      0x1901000000000000000000000000000000000000000000000000000000000000\n        /* \"contracts/ParticipationToken_flattened.sol\":33578:33581  ptr */\n      dup2\n        /* \"contracts/ParticipationToken_flattened.sol\":33571:33594  mstore(ptr, hex\"19_01\") */\n      mstore\n        /* \"contracts/ParticipationToken_flattened.sol\":33630:33645  domainSeparator */\n      dup4\n        /* \"contracts/ParticipationToken_flattened.sol\":33623:33627  0x02 */\n      0x02\n        /* \"contracts/ParticipationToken_flattened.sol\":33618:33621  ptr */\n      dup3\n        /* \"contracts/ParticipationToken_flattened.sol\":33614:33628  add(ptr, 0x02) */\n      add\n        /* \"contracts/ParticipationToken_flattened.sol\":33607:33646  mstore(add(ptr, 0x02), domainSeparator) */\n      mstore\n        /* \"contracts/ParticipationToken_flattened.sol\":33682:33692  structHash */\n      dup3\n        /* \"contracts/ParticipationToken_flattened.sol\":33675:33679  0x22 */\n      0x22\n        /* \"contracts/ParticipationToken_flattened.sol\":33670:33673  ptr */\n      dup3\n        /* \"contracts/ParticipationToken_flattened.sol\":33666:33680  add(ptr, 0x22) */\n      add\n        /* \"contracts/ParticipationToken_flattened.sol\":33659:33693  mstore(add(ptr, 0x22), structHash) */\n      mstore\n        /* \"contracts/ParticipationToken_flattened.sol\":33731:33735  0x42 */\n      0x42\n        /* \"contracts/ParticipationToken_flattened.sol\":33726:33729  ptr */\n      dup2\n        /* \"contracts/ParticipationToken_flattened.sol\":33716:33736  keccak256(ptr, 0x42) */\n      keccak256\n        /* \"contracts/ParticipationToken_flattened.sol\":33706:33736  digest := keccak256(ptr, 0x42) */\n      swap2\n      pop\n        /* \"contracts/ParticipationToken_flattened.sol\":33522:33746  {... */\n      pop\n        /* \"contracts/ParticipationToken_flattened.sol\":33351:33752  function toTypedDataHash(bytes32 domainSeparator, bytes32 structHash) internal pure returns (bytes32 digest) {... */\n      swap3\n      swap2\n      pop\n      pop\n      jump\t// out\n        /* \"contracts/ParticipationToken_flattened.sol\":45399:46929  function tryRecover(... */\n    tag_259:\n        /* \"contracts/ParticipationToken_flattened.sol\":45525:45532  address */\n      0x00\n        /* \"contracts/ParticipationToken_flattened.sol\":45534:45546  RecoverError */\n      dup1\n        /* \"contracts/ParticipationToken_flattened.sol\":45548:45555  bytes32 */\n      0x00\n        /* \"contracts/ParticipationToken_flattened.sol\":46458:46524  0x7FFFFFFFFFFFFFFFFFFFFFFFFFFFFFFF5D576E7357A4501DDFE92F46681B20A0 */\n      0x7fffffffffffffffffffffffffffffff5d576e7357a4501ddfe92f46681b20a0\n        /* \"contracts/ParticipationToken_flattened.sol\":46453:46454  s */\n      dup5\n        /* \"contracts/ParticipationToken_flattened.sol\":46445:46455  uint256(s) */\n      0x00\n      shr\n        /* \"contracts/ParticipationToken_flattened.sol\":46445:46524  uint256(s) > 0x7FFFFFFFFFFFFFFFFFFFFFFFFFFFFFFF5D576E7357A4501DDFE92F46681B20A0 */\n      gt\n        /* \"contracts/ParticipationToken_flattened.sol\":46441:46605  if (uint256(s) > 0x7FFFFFFFFFFFFFFFFFFFFFFFFFFFFFFF5D576E7357A4501DDFE92F46681B20A0) {... */\n      iszero\n      tag_294\n      jumpi\n        /* \"contracts/ParticipationToken_flattened.sol\":46556:46557  0 */\n      0x00\n        /* \"contracts/ParticipationToken_flattened.sol\":46560:46590  RecoverError.InvalidSignatureS */\n      0x03\n        /* \"contracts/ParticipationToken_flattened.sol\":46592:46593  s */\n      dup6\n        /* \"contracts/ParticipationToken_flattened.sol\":46540:46594  return (address(0), RecoverError.InvalidSignatureS, s) */\n      swap3\n      pop\n      swap3\n      pop\n      swap3\n      pop\n      jump(tag_293)\n        /* \"contracts/ParticipationToken_flattened.sol\":46441:46605  if (uint256(s) > 0x7FFFFFFFFFFFFFFFFFFFFFFFFFFFFFFF5D576E7357A4501DDFE92F46681B20A0) {... */\n    tag_294:\n        /* \"contracts/ParticipationToken_flattened.sol\":46699:46713  address signer */\n      0x00\n        /* \"contracts/ParticipationToken_flattened.sol\":46716:46740  ecrecover(hash, v, r, s) */\n      0x01\n        /* \"contracts/ParticipationToken_flattened.sol\":46726:46730  hash */\n      dup9\n        /* \"contracts/ParticipationToken_flattened.sol\":46732:46733  v */\n      dup9\n        /* \"contracts/ParticipationToken_flattened.sol\":46735:46736  r */\n      dup9\n        /* \"contracts/ParticipationToken_flattened.sol\":46738:46739  s */\n      dup9\n        /* \"contracts/ParticipationToken_flattened.sol\":46716:46740  ecrecover(hash, v, r, s) */\n      mload(0x40)\n      0x00\n      dup2\n      mstore\n      0x20\n      add\n      0x40\n      mstore\n      mload(0x40)\n      tag_295\n      swap5\n      swap4\n      swap3\n      swap2\n      swap1\n      tag_296\n      jump\t// in\n    tag_295:\n      0x20\n      mload(0x40)\n      0x20\n      dup2\n      sub\n      swap1\n      dup1\n      dup5\n      sub\n      swap1\n      dup6\n      gas\n      staticcall\n      iszero\n      dup1\n      iszero\n      tag_298\n      jumpi\n      returndatasize\n      0x00\n      dup1\n      returndatacopy\n      revert(0x00, returndatasize)\n    tag_298:\n      pop\n      pop\n      pop\n      mload(sub(mload(0x40), 0x20))\n        /* \"contracts/ParticipationToken_flattened.sol\":46699:46740  address signer = ecrecover(hash, v, r, s) */\n      swap1\n      pop\n        /* \"contracts/ParticipationToken_flattened.sol\":46772:46773  0 */\n      0x00\n        /* \"contracts/ParticipationToken_flattened.sol\":46754:46774  signer == address(0) */\n      0xffffffffffffffffffffffffffffffffffffffff\n      and\n        /* \"contracts/ParticipationToken_flattened.sol\":46754:46760  signer */\n      dup2\n        /* \"contracts/ParticipationToken_flattened.sol\":46754:46774  signer == address(0) */\n      0xffffffffffffffffffffffffffffffffffffffff\n      and\n      sub\n        /* \"contracts/ParticipationToken_flattened.sol\":46750:46863  if (signer == address(0)) {... */\n      tag_299\n      jumpi\n        /* \"contracts/ParticipationToken_flattened.sol\":46806:46807  0 */\n      0x00\n        /* \"contracts/ParticipationToken_flattened.sol\":46810:46839  RecoverError.InvalidSignature */\n      0x01\n        /* \"contracts/ParticipationToken_flattened.sol\":46849:46850  0 */\n      0x00\n        /* \"contracts/ParticipationToken_flattened.sol\":46841:46851  bytes32(0) */\n      dup1\n      shl\n        /* \"contracts/ParticipationToken_flattened.sol\":46790:46852  return (address(0), RecoverError.InvalidSignature, bytes32(0)) */\n      swap4\n      pop\n      swap4\n      pop\n      swap4\n      pop\n      pop\n      jump(tag_293)\n        /* \"contracts/ParticipationToken_flattened.sol\":46750:46863  if (signer == address(0)) {... */\n    tag_299:\n        /* \"contracts/ParticipationToken_flattened.sol\":46881:46887  signer */\n      dup1\n        /* \"contracts/ParticipationToken_flattened.sol\":46889:46909  RecoverError.NoError */\n      0x00\n        /* \"contracts/ParticipationToken_flattened.sol\":46919:46920  0 */\n      dup1\n        /* \"contracts/ParticipationToken_flattened.sol\":46911:46921  bytes32(0) */\n      0x00\n      shl\n        /* \"contracts/ParticipationToken_flattened.sol\":46873:46922  return (signer, RecoverError.NoError, bytes32(0)) */\n      swap4\n      pop\n      swap4\n      pop\n      swap4\n      pop\n      pop\n        /* \"contracts/ParticipationToken_flattened.sol\":45399:46929  function tryRecover(... */\n    tag_293:\n      swap5\n      pop\n      swap5\n      pop\n      swap5\n      swap2\n      pop\n      pop\n      jump\t// out\n        /* \"contracts/ParticipationToken_flattened.sol\":47455:47987  function _throwError(RecoverError error, bytes32 errorArg) private pure {... */\n    tag_261:\n        /* \"contracts/ParticipationToken_flattened.sol\":47550:47570  RecoverError.NoError */\n      0x00\n        /* \"contracts/ParticipationToken_flattened.sol\":47541:47570  error == RecoverError.NoError */\n      0x03\n      dup2\n      gt\n      iszero\n      tag_301\n      jumpi\n      tag_302\n      tag_303\n      jump\t// in\n    tag_302:\n    tag_301:\n        /* \"contracts/ParticipationToken_flattened.sol\":47541:47546  error */\n      dup3\n        /* \"contracts/ParticipationToken_flattened.sol\":47541:47570  error == RecoverError.NoError */\n      0x03\n      dup2\n      gt\n      iszero\n      tag_304\n      jumpi\n      tag_305\n      tag_303\n      jump\t// in\n    tag_305:\n    tag_304:\n      sub\n        /* \"contracts/ParticipationToken_flattened.sol\":47537:47981  if (error == RecoverError.NoError) {... */\n      iszero\n        /* \"contracts/ParticipationToken_flattened.sol\":47586:47593  return; */\n      tag_300\n        /* \"contracts/ParticipationToken_flattened.sol\":47537:47981  if (error == RecoverError.NoError) {... */\n      jumpi\n        /* \"contracts/ParticipationToken_flattened.sol\":47646:47675  RecoverError.InvalidSignature */\n      0x01\n        /* \"contracts/ParticipationToken_flattened.sol\":47637:47675  error == RecoverError.InvalidSignature */\n      0x03\n      dup2\n      gt\n      iszero\n      tag_308\n      jumpi\n      tag_309\n      tag_303\n      jump\t// in\n    tag_309:\n    tag_308:\n        /* \"contracts/ParticipationToken_flattened.sol\":47637:47642  error */\n      dup3\n        /* \"contracts/ParticipationToken_flattened.sol\":47637:47675  error == RecoverError.InvalidSignature */\n      0x03\n      dup2\n      gt\n      iszero\n      tag_310\n      jumpi\n      tag_311\n      tag_303\n      jump\t// in\n    tag_311:\n    tag_310:\n      sub\n        /* \"contracts/ParticipationToken_flattened.sol\":47633:47981  if (error == RecoverError.InvalidSignature) {... */\n      tag_312\n      jumpi\n        /* \"contracts/ParticipationToken_flattened.sol\":47698:47721  ECDSAInvalidSignature() */\n      mload(0x40)\n      0xf645eedf00000000000000000000000000000000000000000000000000000000\n      dup2\n      mstore\n      0x04\n      add\n      mload(0x40)\n      dup1\n      swap2\n      sub\n      swap1\n      revert\n        /* \"contracts/ParticipationToken_flattened.sol\":47633:47981  if (error == RecoverError.InvalidSignature) {... */\n    tag_312:\n        /* \"contracts/ParticipationToken_flattened.sol\":47751:47786  RecoverError.InvalidSignatureLength */\n      0x02\n        /* \"contracts/ParticipationToken_flattened.sol\":47742:47786  error == RecoverError.InvalidSignatureLength */\n      0x03\n      dup2\n      gt\n      iszero\n      tag_314\n      jumpi\n      tag_315\n      tag_303\n      jump\t// in\n    tag_315:\n    tag_314:\n        /* \"contracts/ParticipationToken_flattened.sol\":47742:47747  error */\n      dup3\n        /* \"contracts/ParticipationToken_flattened.sol\":47742:47786  error == RecoverError.InvalidSignatureLength */\n      0x03\n      dup2\n      gt\n      iszero\n      tag_316\n      jumpi\n      tag_317\n      tag_303\n      jump\t// in\n    tag_317:\n    tag_316:\n      sub\n        /* \"contracts/ParticipationToken_flattened.sol\":47738:47981  if (error == RecoverError.InvalidSignatureLength) {... */\n      tag_318\n      jumpi\n        /* \"contracts/ParticipationToken_flattened.sol\":47845:47853  errorArg */\n      dup1\n        /* \"contracts/ParticipationToken_flattened.sol\":47837:47854  uint256(errorArg) */\n      0x00\n      shr\n        /* \"contracts/ParticipationToken_flattened.sol\":47809:47855  ECDSAInvalidSignatureLength(uint256(errorArg)) */\n      mload(0x40)\n      0xfce698f700000000000000000000000000000000000000000000000000000000\n      dup2\n      mstore\n      0x04\n      add\n      tag_319\n      swap2\n      swap1\n      tag_39\n      jump\t// in\n    tag_319:\n      mload(0x40)\n      dup1\n      swap2\n      sub\n      swap1\n      revert\n        /* \"contracts/ParticipationToken_flattened.sol\":47738:47981  if (error == RecoverError.InvalidSignatureLength) {... */\n    tag_318:\n        /* \"contracts/ParticipationToken_flattened.sol\":47885:47915  RecoverError.InvalidSignatureS */\n      0x03\n        /* \"contracts/ParticipationToken_flattened.sol\":47876:47915  error == RecoverError.InvalidSignatureS */\n      dup1\n      dup2\n      gt\n      iszero\n      tag_321\n      jumpi\n      tag_322\n      tag_303\n      jump\t// in\n    tag_322:\n    tag_321:\n        /* \"contracts/ParticipationToken_flattened.sol\":47876:47881  error */\n      dup3\n        /* \"contracts/ParticipationToken_flattened.sol\":47876:47915  error == RecoverError.InvalidSignatureS */\n      0x03\n      dup2\n      gt\n      iszero\n      tag_323\n      jumpi\n      tag_324\n      tag_303\n      jump\t// in\n    tag_324:\n    tag_323:\n      sub\n        /* \"contracts/ParticipationToken_flattened.sol\":47872:47981  if (error == RecoverError.InvalidSignatureS) {... */\n      tag_325\n      jumpi\n        /* \"contracts/ParticipationToken_flattened.sol\":47961:47969  errorArg */\n      dup1\n        /* \"contracts/ParticipationToken_flattened.sol\":47938:47970  ECDSAInvalidSignatureS(errorArg) */\n      mload(0x40)\n      0xd78bce0c00000000000000000000000000000000000000000000000000000000\n      dup2\n      mstore\n      0x04\n      add\n      tag_326\n      swap2\n      swap1\n      tag_52\n      jump\t// in\n    tag_326:\n      mload(0x40)\n      dup1\n      swap2\n      sub\n      swap1\n      revert\n        /* \"contracts/ParticipationToken_flattened.sol\":47872:47981  if (error == RecoverError.InvalidSignatureS) {... */\n    tag_325:\n        /* \"contracts/ParticipationToken_flattened.sol\":47455:47987  function _throwError(RecoverError error, bytes32 errorArg) private pure {... */\n    tag_300:\n      pop\n      pop\n      jump\t// out\n        /* \"contracts/ParticipationToken_flattened.sol\":8293:8698  function toString(ShortString sstr) internal pure returns (string memory) {... */\n    tag_285:\n        /* \"contracts/ParticipationToken_flattened.sol\":8352:8365  string memory */\n      0x60\n        /* \"contracts/ParticipationToken_flattened.sol\":8377:8388  uint256 len */\n      0x00\n        /* \"contracts/ParticipationToken_flattened.sol\":8391:8407  byteLength(sstr) */\n      tag_328\n        /* \"contracts/ParticipationToken_flattened.sol\":8402:8406  sstr */\n      dup4\n        /* \"contracts/ParticipationToken_flattened.sol\":8391:8401  byteLength */\n      tag_329\n        /* \"contracts/ParticipationToken_flattened.sol\":8391:8407  byteLength(sstr) */\n      jump\t// in\n    tag_328:\n        /* \"contracts/ParticipationToken_flattened.sol\":8377:8407  uint256 len = byteLength(sstr) */\n      swap1\n      pop\n        /* \"contracts/ParticipationToken_flattened.sol\":8495:8512  string memory str */\n      0x00\n        /* \"contracts/ParticipationToken_flattened.sol\":8526:8528  32 */\n      0x20\n        /* \"contracts/ParticipationToken_flattened.sol\":8515:8529  new string(32) */\n      0xffffffffffffffff\n      dup2\n      gt\n      iszero\n      tag_330\n      jumpi\n      tag_331\n      tag_164\n      jump\t// in\n    tag_331:\n    tag_330:\n      mload(0x40)\n      swap1\n      dup1\n      dup3\n      mstore\n      dup1\n      0x1f\n      add\n      not(0x1f)\n      and\n      0x20\n      add\n      dup3\n      add\n      0x40\n      mstore\n      dup1\n      iszero\n      tag_332\n      jumpi\n      dup2\n      0x20\n      add\n      0x01\n      dup3\n      mul\n      dup1\n      calldatasize\n      dup4\n      calldatacopy\n      dup1\n      dup3\n      add\n      swap2\n      pop\n      pop\n      swap1\n      pop\n    tag_332:\n      pop\n        /* \"contracts/ParticipationToken_flattened.sol\":8495:8529  string memory str = new string(32) */\n      swap1\n      pop\n        /* \"contracts/ParticipationToken_flattened.sol\":8617:8620  len */\n      dup2\n        /* \"contracts/ParticipationToken_flattened.sol\":8612:8615  str */\n      dup2\n        /* \"contracts/ParticipationToken_flattened.sol\":8605:8621  mstore(str, len) */\n      mstore\n        /* \"contracts/ParticipationToken_flattened.sol\":8657:8661  sstr */\n      dup4\n        /* \"contracts/ParticipationToken_flattened.sol\":8650:8654  0x20 */\n      0x20\n        /* \"contracts/ParticipationToken_flattened.sol\":8645:8648  str */\n      dup3\n        /* \"contracts/ParticipationToken_flattened.sol\":8641:8655  add(str, 0x20) */\n      add\n        /* \"contracts/ParticipationToken_flattened.sol\":8634:8662  mstore(add(str, 0x20), sstr) */\n      mstore\n        /* \"contracts/ParticipationToken_flattened.sol\":8688:8691  str */\n      dup1\n        /* \"contracts/ParticipationToken_flattened.sol\":8681:8691  return str */\n      swap3\n      pop\n      pop\n      pop\n        /* \"contracts/ParticipationToken_flattened.sol\":8293:8698  function toString(ShortString sstr) internal pure returns (string memory) {... */\n      swap2\n      swap1\n      pop\n      jump\t// out\n        /* \"contracts/ParticipationToken_flattened.sol\":8770:9015  function byteLength(ShortString sstr) internal pure returns (uint256) {... */\n    tag_329:\n        /* \"contracts/ParticipationToken_flattened.sol\":8831:8838  uint256 */\n      0x00\n        /* \"contracts/ParticipationToken_flattened.sol\":8850:8864  uint256 result */\n      dup1\n        /* \"contracts/ParticipationToken_flattened.sol\":8903:8907  0xFF */\n      0xff\n        /* \"contracts/ParticipationToken_flattened.sol\":8894:8898  sstr */\n      dup4\n        /* \"contracts/ParticipationToken_flattened.sol\":8867:8900  uint256(ShortString.unwrap(sstr)) */\n      0x00\n      shr\n        /* \"contracts/ParticipationToken_flattened.sol\":8867:8907  uint256(ShortString.unwrap(sstr)) & 0xFF */\n      and\n        /* \"contracts/ParticipationToken_flattened.sol\":8850:8907  uint256 result = uint256(ShortString.unwrap(sstr)) & 0xFF */\n      swap1\n      pop\n        /* \"contracts/ParticipationToken_flattened.sol\":8930:8932  31 */\n      0x1f\n        /* \"contracts/ParticipationToken_flattened.sol\":8921:8927  result */\n      dup2\n        /* \"contracts/ParticipationToken_flattened.sol\":8921:8932  result > 31 */\n      gt\n        /* \"contracts/ParticipationToken_flattened.sol\":8917:8986  if (result > 31) {... */\n      iszero\n      tag_334\n      jumpi\n        /* \"contracts/ParticipationToken_flattened.sol\":8955:8975  InvalidShortString() */\n      mload(0x40)\n      0xb3512b0c00000000000000000000000000000000000000000000000000000000\n      dup2\n      mstore\n      0x04\n      add\n      mload(0x40)\n      dup1\n      swap2\n      sub\n      swap1\n      revert\n        /* \"contracts/ParticipationToken_flattened.sol\":8917:8986  if (result > 31) {... */\n    tag_334:\n        /* \"contracts/ParticipationToken_flattened.sol\":9002:9008  result */\n      dup1\n        /* \"contracts/ParticipationToken_flattened.sol\":8995:9008  return result */\n      swap2\n      pop\n      pop\n        /* \"contracts/ParticipationToken_flattened.sol\":8770:9015  function byteLength(ShortString sstr) internal pure returns (uint256) {... */\n      swap2\n      swap1\n      pop\n      jump\t// out\n        /* \"#utility.yul\":7:106   */\n    tag_335:\n        /* \"#utility.yul\":59:65   */\n      0x00\n        /* \"#utility.yul\":93:98   */\n      dup2\n        /* \"#utility.yul\":87:99   */\n      mload\n        /* \"#utility.yul\":77:99   */\n      swap1\n      pop\n        /* \"#utility.yul\":7:106   */\n      swap2\n      swap1\n      pop\n      jump\t// out\n        /* \"#utility.yul\":112:281   */\n    tag_336:\n        /* \"#utility.yul\":196:207   */\n      0x00\n        /* \"#utility.yul\":230:236   */\n      dup3\n        /* \"#utility.yul\":225:228   */\n      dup3\n        /* \"#utility.yul\":218:237   */\n      mstore\n        /* \"#utility.yul\":270:274   */\n      0x20\n        /* \"#utility.yul\":265:268   */\n      dup3\n        /* \"#utility.yul\":261:275   */\n      add\n        /* \"#utility.yul\":246:275   */\n      swap1\n      pop\n        /* \"#utility.yul\":112:281   */\n      swap3\n      swap2\n      pop\n      pop\n      jump\t// out\n        /* \"#utility.yul\":287:533   */\n    tag_337:\n        /* \"#utility.yul\":368:369   */\n      0x00\n        /* \"#utility.yul\":378:491   */\n    tag_380:\n        /* \"#utility.yul\":392:398   */\n      dup4\n        /* \"#utility.yul\":389:390   */\n      dup2\n        /* \"#utility.yul\":386:399   */\n      lt\n        /* \"#utility.yul\":378:491   */\n      iszero\n      tag_382\n      jumpi\n        /* \"#utility.yul\":477:478   */\n      dup1\n        /* \"#utility.yul\":472:475   */\n      dup3\n        /* \"#utility.yul\":468:479   */\n      add\n        /* \"#utility.yul\":462:480   */\n      mload\n        /* \"#utility.yul\":458:459   */\n      dup2\n        /* \"#utility.yul\":453:456   */\n      dup5\n        /* \"#utility.yul\":449:460   */\n      add\n        /* \"#utility.yul\":442:481   */\n      mstore\n        /* \"#utility.yul\":414:416   */\n      0x20\n        /* \"#utility.yul\":411:412   */\n      dup2\n        /* \"#utility.yul\":407:417   */\n      add\n        /* \"#utility.yul\":402:417   */\n      swap1\n      pop\n        /* \"#utility.yul\":378:491   */\n      jump(tag_380)\n    tag_382:\n        /* \"#utility.yul\":525:526   */\n      0x00\n        /* \"#utility.yul\":516:522   */\n      dup5\n        /* \"#utility.yul\":511:514   */\n      dup5\n        /* \"#utility.yul\":507:523   */\n      add\n        /* \"#utility.yul\":500:527   */\n      mstore\n        /* \"#utility.yul\":349:533   */\n      pop\n        /* \"#utility.yul\":287:533   */\n      pop\n      pop\n      pop\n      jump\t// out\n        /* \"#utility.yul\":539:641   */\n    tag_338:\n        /* \"#utility.yul\":580:586   */\n      0x00\n        /* \"#utility.yul\":631:633   */\n      0x1f\n        /* \"#utility.yul\":627:634   */\n      not\n        /* \"#utility.yul\":622:624   */\n      0x1f\n        /* \"#utility.yul\":615:620   */\n      dup4\n        /* \"#utility.yul\":611:625   */\n      add\n        /* \"#utility.yul\":607:635   */\n      and\n        /* \"#utility.yul\":597:635   */\n      swap1\n      pop\n        /* \"#utility.yul\":539:641   */\n      swap2\n      swap1\n      pop\n      jump\t// out\n        /* \"#utility.yul\":647:1024   */\n    tag_339:\n        /* \"#utility.yul\":735:738   */\n      0x00\n        /* \"#utility.yul\":763:802   */\n      tag_385\n        /* \"#utility.yul\":796:801   */\n      dup3\n        /* \"#utility.yul\":763:802   */\n      tag_335\n      jump\t// in\n    tag_385:\n        /* \"#utility.yul\":818:889   */\n      tag_386\n        /* \"#utility.yul\":882:888   */\n      dup2\n        /* \"#utility.yul\":877:880   */\n      dup6\n        /* \"#utility.yul\":818:889   */\n      tag_336\n      jump\t// in\n    tag_386:\n        /* \"#utility.yul\":811:889   */\n      swap4\n      pop\n        /* \"#utility.yul\":898:963   */\n      tag_387\n        /* \"#utility.yul\":956:962   */\n      dup2\n        /* \"#utility.yul\":951:954   */\n      dup6\n        /* \"#utility.yul\":944:948   */\n      0x20\n        /* \"#utility.yul\":937:942   */\n      dup7\n        /* \"#utility.yul\":933:949   */\n      add\n        /* \"#utility.yul\":898:963   */\n      tag_337\n      jump\t// in\n    tag_387:\n        /* \"#utility.yul\":988:1017   */\n      tag_388\n        /* \"#utility.yul\":1010:1016   */\n      dup2\n        /* \"#utility.yul\":988:1017   */\n      tag_338\n      jump\t// in\n    tag_388:\n        /* \"#utility.yul\":983:986   */\n      dup5\n        /* \"#utility.yul\":979:1018   */\n      add\n        /* \"#utility.yul\":972:1018   */\n      swap2\n      pop\n        /* \"#utility.yul\":739:1024   */\n      pop\n        /* \"#utility.yul\":647:1024   */\n      swap3\n      swap2\n      pop\n      pop\n      jump\t// out\n        /* \"#utility.yul\":1030:1343   */\n    tag_29:\n        /* \"#utility.yul\":1143:1147   */\n      0x00\n        /* \"#utility.yul\":1181:1183   */\n      0x20\n        /* \"#utility.yul\":1170:1179   */\n      dup3\n        /* \"#utility.yul\":1166:1184   */\n      add\n        /* \"#utility.yul\":1158:1184   */\n      swap1\n      pop\n        /* \"#utility.yul\":1230:1239   */\n      dup2\n        /* \"#utility.yul\":1224:1228   */\n      dup2\n        /* \"#utility.yul\":1220:1240   */\n      sub\n        /* \"#utility.yul\":1216:1217   */\n      0x00\n        /* \"#utility.yul\":1205:1214   */\n      dup4\n        /* \"#utility.yul\":1201:1218   */\n      add\n        /* \"#utility.yul\":1194:1241   */\n      mstore\n        /* \"#utility.yul\":1258:1336   */\n      tag_390\n        /* \"#utility.yul\":1331:1335   */\n      dup2\n        /* \"#utility.yul\":1322:1328   */\n      dup5\n        /* \"#utility.yul\":1258:1336   */\n      tag_339\n      jump\t// in\n    tag_390:\n        /* \"#utility.yul\":1250:1336   */\n      swap1\n      pop\n        /* \"#utility.yul\":1030:1343   */\n      swap3\n      swap2\n      pop\n      pop\n      jump\t// out\n        /* \"#utility.yul\":1430:1547   */\n    tag_341:\n        /* \"#utility.yul\":1539:1540   */\n      0x00\n        /* \"#utility.yul\":1536:1537   */\n      dup1\n        /* \"#utility.yul\":1529:1541   */\n      revert\n        /* \"#utility.yul\":1676:1802   */\n    tag_343:\n        /* \"#utility.yul\":1713:1720   */\n      0x00\n        /* \"#utility.yul\":1753:1795   */\n      0xffffffffffffffffffffffffffffffffffffffff\n        /* \"#utility.yul\":1746:1751   */\n      dup3\n        /* \"#utility.yul\":1742:1796   */\n      and\n        /* \"#utility.yul\":1731:1796   */\n      swap1\n      pop\n        /* \"#utility.yul\":1676:1802   */\n      swap2\n      swap1\n      pop\n      jump\t// out\n        /* \"#utility.yul\":1808:1904   */\n    tag_344:\n        /* \"#utility.yul\":1845:1852   */\n      0x00\n        /* \"#utility.yul\":1874:1898   */\n      tag_396\n        /* \"#utility.yul\":1892:1897   */\n      dup3\n        /* \"#utility.yul\":1874:1898   */\n      tag_343\n      jump\t// in\n    tag_396:\n        /* \"#utility.yul\":1863:1898   */\n      swap1\n      pop\n        /* \"#utility.yul\":1808:1904   */\n      swap2\n      swap1\n      pop\n      jump\t// out\n        /* \"#utility.yul\":1910:2032   */\n    tag_345:\n        /* \"#utility.yul\":1983:2007   */\n      tag_398\n        /* \"#utility.yul\":2001:2006   */\n      dup2\n        /* \"#utility.yul\":1983:2007   */\n      tag_344\n      jump\t// in\n    tag_398:\n        /* \"#utility.yul\":1976:1981   */\n      dup2\n        /* \"#utility.yul\":1973:2008   */\n      eq\n        /* \"#utility.yul\":1963:2026   */\n      tag_399\n      jumpi\n        /* \"#utility.yul\":2022:2023   */\n      0x00\n        /* \"#utility.yul\":2019:2020   */\n      dup1\n        /* \"#utility.yul\":2012:2024   */\n      revert\n        /* \"#utility.yul\":1963:2026   */\n    tag_399:\n        /* \"#utility.yul\":1910:2032   */\n      pop\n      jump\t// out\n        /* \"#utility.yul\":2038:2177   */\n    tag_346:\n        /* \"#utility.yul\":2084:2089   */\n      0x00\n        /* \"#utility.yul\":2122:2128   */\n      dup2\n        /* \"#utility.yul\":2109:2129   */\n      calldataload\n        /* \"#utility.yul\":2100:2129   */\n      swap1\n      pop\n        /* \"#utility.yul\":2138:2171   */\n      tag_401\n        /* \"#utility.yul\":2165:2170   */\n      dup2\n        /* \"#utility.yul\":2138:2171   */\n      tag_345\n      jump\t// in\n    tag_401:\n        /* \"#utility.yul\":2038:2177   */\n      swap3\n      swap2\n      pop\n      pop\n      jump\t// out\n        /* \"#utility.yul\":2183:2260   */\n    tag_347:\n        /* \"#utility.yul\":2220:2227   */\n      0x00\n        /* \"#utility.yul\":2249:2254   */\n      dup2\n        /* \"#utility.yul\":2238:2254   */\n      swap1\n      pop\n        /* \"#utility.yul\":2183:2260   */\n      swap2\n      swap1\n      pop\n      jump\t// out\n        /* \"#utility.yul\":2266:2388   */\n    tag_348:\n        /* \"#utility.yul\":2339:2363   */\n      tag_404\n        /* \"#utility.yul\":2357:2362   */\n      dup2\n        /* \"#utility.yul\":2339:2363   */\n      tag_347\n      jump\t// in\n    tag_404:\n        /* \"#utility.yul\":2332:2337   */\n      dup2\n        /* \"#utility.yul\":2329:2364   */\n      eq\n        /* \"#utility.yul\":2319:2382   */\n      tag_405\n      jumpi\n        /* \"#utility.yul\":2378:2379   */\n      0x00\n        /* \"#utility.yul\":2375:2376   */\n      dup1\n        /* \"#utility.yul\":2368:2380   */\n      revert\n        /* \"#utility.yul\":2319:2382   */\n    tag_405:\n        /* \"#utility.yul\":2266:2388   */\n      pop\n      jump\t// out\n        /* \"#utility.yul\":2394:2533   */\n    tag_349:\n        /* \"#utility.yul\":2440:2445   */\n      0x00\n        /* \"#utility.yul\":2478:2484   */\n      dup2\n        /* \"#utility.yul\":2465:2485   */\n      calldataload\n        /* \"#utility.yul\":2456:2485   */\n      swap1\n      pop\n        /* \"#utility.yul\":2494:2527   */\n      tag_407\n        /* \"#utility.yul\":2521:2526   */\n      dup2\n        /* \"#utility.yul\":2494:2527   */\n      tag_348\n      jump\t// in\n    tag_407:\n        /* \"#utility.yul\":2394:2533   */\n      swap3\n      swap2\n      pop\n      pop\n      jump\t// out\n        /* \"#utility.yul\":2539:3013   */\n    tag_32:\n        /* \"#utility.yul\":2607:2613   */\n      0x00\n        /* \"#utility.yul\":2615:2621   */\n      dup1\n        /* \"#utility.yul\":2664:2666   */\n      0x40\n        /* \"#utility.yul\":2652:2661   */\n      dup4\n        /* \"#utility.yul\":2643:2650   */\n      dup6\n        /* \"#utility.yul\":2639:2662   */\n      sub\n        /* \"#utility.yul\":2635:2667   */\n      slt\n        /* \"#utility.yul\":2632:2751   */\n      iszero\n      tag_409\n      jumpi\n        /* \"#utility.yul\":2670:2749   */\n      tag_410\n      tag_341\n      jump\t// in\n    tag_410:\n        /* \"#utility.yul\":2632:2751   */\n    tag_409:\n        /* \"#utility.yul\":2790:2791   */\n      0x00\n        /* \"#utility.yul\":2815:2868   */\n      tag_411\n        /* \"#utility.yul\":2860:2867   */\n      dup6\n        /* \"#utility.yul\":2851:2857   */\n      dup3\n        /* \"#utility.yul\":2840:2849   */\n      dup7\n        /* \"#utility.yul\":2836:2858   */\n      add\n        /* \"#utility.yul\":2815:2868   */\n      tag_346\n      jump\t// in\n    tag_411:\n        /* \"#utility.yul\":2805:2868   */\n      swap3\n      pop\n        /* \"#utility.yul\":2761:2878   */\n      pop\n        /* \"#utility.yul\":2917:2919   */\n      0x20\n        /* \"#utility.yul\":2943:2996   */\n      tag_412\n        /* \"#utility.yul\":2988:2995   */\n      dup6\n        /* \"#utility.yul\":2979:2985   */\n      dup3\n        /* \"#utility.yul\":2968:2977   */\n      dup7\n        /* \"#utility.yul\":2964:2986   */\n      add\n        /* \"#utility.yul\":2943:2996   */\n      tag_349\n      jump\t// in\n    tag_412:\n        /* \"#utility.yul\":2933:2996   */\n      swap2\n      pop\n        /* \"#utility.yul\":2888:3006   */\n      pop\n        /* \"#utility.yul\":2539:3013   */\n      swap3\n      pop\n      swap3\n      swap1\n      pop\n      jump\t// out\n        /* \"#utility.yul\":3019:3109   */\n    tag_350:\n        /* \"#utility.yul\":3053:3060   */\n      0x00\n        /* \"#utility.yul\":3096:3101   */\n      dup2\n        /* \"#utility.yul\":3089:3102   */\n      iszero\n        /* \"#utility.yul\":3082:3103   */\n      iszero\n        /* \"#utility.yul\":3071:3103   */\n      swap1\n      pop\n        /* \"#utility.yul\":3019:3109   */\n      swap2\n      swap1\n      pop\n      jump\t// out\n        /* \"#utility.yul\":3115:3224   */\n    tag_351:\n        /* \"#utility.yul\":3196:3217   */\n      tag_415\n        /* \"#utility.yul\":3211:3216   */\n      dup2\n        /* \"#utility.yul\":3196:3217   */\n      tag_350\n      jump\t// in\n    tag_415:\n        /* \"#utility.yul\":3191:3194   */\n      dup3\n        /* \"#utility.yul\":3184:3218   */\n      mstore\n        /* \"#utility.yul\":3115:3224   */\n      pop\n      pop\n      jump\t// out\n        /* \"#utility.yul\":3230:3440   */\n    tag_35:\n        /* \"#utility.yul\":3317:3321   */\n      0x00\n        /* \"#utility.yul\":3355:3357   */\n      0x20\n        /* \"#utility.yul\":3344:3353   */\n      dup3\n        /* \"#utility.yul\":3340:3358   */\n      add\n        /* \"#utility.yul\":3332:3358   */\n      swap1\n      pop\n        /* \"#utility.yul\":3368:3433   */\n      tag_417\n        /* \"#utility.yul\":3430:3431   */\n      0x00\n        /* \"#utility.yul\":3419:3428   */\n      dup4\n        /* \"#utility.yul\":3415:3432   */\n      add\n        /* \"#utility.yul\":3406:3412   */\n      dup5\n        /* \"#utility.yul\":3368:3433   */\n      tag_351\n      jump\t// in\n    tag_417:\n        /* \"#utility.yul\":3230:3440   */\n      swap3\n      swap2\n      pop\n      pop\n      jump\t// out\n        /* \"#utility.yul\":3446:3564   */\n    tag_352:\n        /* \"#utility.yul\":3533:3557   */\n      tag_419\n        /* \"#utility.yul\":3551:3556   */\n      dup2\n        /* \"#utility.yul\":3533:3557   */\n      tag_347\n      jump\t// in\n    tag_419:\n        /* \"#utility.yul\":3528:3531   */\n      dup3\n        /* \"#utility.yul\":3521:3558   */\n      mstore\n        /* \"#utility.yul\":3446:3564   */\n      pop\n      pop\n      jump\t// out\n        /* \"#utility.yul\":3570:3792   */\n    tag_39:\n        /* \"#utility.yul\":3663:3667   */\n      0x00\n        /* \"#utility.yul\":3701:3703   */\n      0x20\n        /* \"#utility.yul\":3690:3699   */\n      dup3\n        /* \"#utility.yul\":3686:3704   */\n      add\n        /* \"#utility.yul\":3678:3704   */\n      swap1\n      pop\n        /* \"#utility.yul\":3714:3785   */\n      tag_421\n        /* \"#utility.yul\":3782:3783   */\n      0x00\n        /* \"#utility.yul\":3771:3780   */\n      dup4\n        /* \"#utility.yul\":3767:3784   */\n      add\n        /* \"#utility.yul\":3758:3764   */\n      dup5\n        /* \"#utility.yul\":3714:3785   */\n      tag_352\n      jump\t// in\n    tag_421:\n        /* \"#utility.yul\":3570:3792   */\n      swap3\n      swap2\n      pop\n      pop\n      jump\t// out\n        /* \"#utility.yul\":3798:4417   */\n    tag_42:\n        /* \"#utility.yul\":3875:3881   */\n      0x00\n        /* \"#utility.yul\":3883:3889   */\n      dup1\n        /* \"#utility.yul\":3891:3897   */\n      0x00\n        /* \"#utility.yul\":3940:3942   */\n      0x60\n        /* \"#utility.yul\":3928:3937   */\n      dup5\n        /* \"#utility.yul\":3919:3926   */\n      dup7\n        /* \"#utility.yul\":3915:3938   */\n      sub\n        /* \"#utility.yul\":3911:3943   */\n      slt\n        /* \"#utility.yul\":3908:4027   */\n      iszero\n      tag_423\n      jumpi\n        /* \"#utility.yul\":3946:4025   */\n      tag_424\n      tag_341\n      jump\t// in\n    tag_424:\n        /* \"#utility.yul\":3908:4027   */\n    tag_423:\n        /* \"#utility.yul\":4066:4067   */\n      0x00\n        /* \"#utility.yul\":4091:4144   */\n      tag_425\n        /* \"#utility.yul\":4136:4143   */\n      dup7\n        /* \"#utility.yul\":4127:4133   */\n      dup3\n        /* \"#utility.yul\":4116:4125   */\n      dup8\n        /* \"#utility.yul\":4112:4134   */\n      add\n        /* \"#utility.yul\":4091:4144   */\n      tag_346\n      jump\t// in\n    tag_425:\n        /* \"#utility.yul\":4081:4144   */\n      swap4\n      pop\n        /* \"#utility.yul\":4037:4154   */\n      pop\n        /* \"#utility.yul\":4193:4195   */\n      0x20\n        /* \"#utility.yul\":4219:4272   */\n      tag_426\n        /* \"#utility.yul\":4264:4271   */\n      dup7\n        /* \"#utility.yul\":4255:4261   */\n      dup3\n        /* \"#utility.yul\":4244:4253   */\n      dup8\n        /* \"#utility.yul\":4240:4262   */\n      add\n        /* \"#utility.yul\":4219:4272   */\n      tag_346\n      jump\t// in\n    tag_426:\n        /* \"#utility.yul\":4209:4272   */\n      swap3\n      pop\n        /* \"#utility.yul\":4164:4282   */\n      pop\n        /* \"#utility.yul\":4321:4323   */\n      0x40\n        /* \"#utility.yul\":4347:4400   */\n      tag_427\n        /* \"#utility.yul\":4392:4399   */\n      dup7\n        /* \"#utility.yul\":4383:4389   */\n      dup3\n        /* \"#utility.yul\":4372:4381   */\n      dup8\n        /* \"#utility.yul\":4368:4390   */\n      add\n        /* \"#utility.yul\":4347:4400   */\n      tag_349\n      jump\t// in\n    tag_427:\n        /* \"#utility.yul\":4337:4400   */\n      swap2\n      pop\n        /* \"#utility.yul\":4292:4410   */\n      pop\n        /* \"#utility.yul\":3798:4417   */\n      swap3\n      pop\n      swap3\n      pop\n      swap3\n      jump\t// out\n        /* \"#utility.yul\":4423:4509   */\n    tag_353:\n        /* \"#utility.yul\":4458:4465   */\n      0x00\n        /* \"#utility.yul\":4498:4502   */\n      0xff\n        /* \"#utility.yul\":4491:4496   */\n      dup3\n        /* \"#utility.yul\":4487:4503   */\n      and\n        /* \"#utility.yul\":4476:4503   */\n      swap1\n      pop\n        /* \"#utility.yul\":4423:4509   */\n      swap2\n      swap1\n      pop\n      jump\t// out\n        /* \"#utility.yul\":4515:4627   */\n    tag_354:\n        /* \"#utility.yul\":4598:4620   */\n      tag_430\n        /* \"#utility.yul\":4614:4619   */\n      dup2\n        /* \"#utility.yul\":4598:4620   */\n      tag_353\n      jump\t// in\n    tag_430:\n        /* \"#utility.yul\":4593:4596   */\n      dup3\n        /* \"#utility.yul\":4586:4621   */\n      mstore\n        /* \"#utility.yul\":4515:4627   */\n      pop\n      pop\n      jump\t// out\n        /* \"#utility.yul\":4633:4847   */\n    tag_48:\n        /* \"#utility.yul\":4722:4726   */\n      0x00\n        /* \"#utility.yul\":4760:4762   */\n      0x20\n        /* \"#utility.yul\":4749:4758   */\n      dup3\n        /* \"#utility.yul\":4745:4763   */\n      add\n        /* \"#utility.yul\":4737:4763   */\n      swap1\n      pop\n        /* \"#utility.yul\":4773:4840   */\n      tag_432\n        /* \"#utility.yul\":4837:4838   */\n      0x00\n        /* \"#utility.yul\":4826:4835   */\n      dup4\n        /* \"#utility.yul\":4822:4839   */\n      add\n        /* \"#utility.yul\":4813:4819   */\n      dup5\n        /* \"#utility.yul\":4773:4840   */\n      tag_354\n      jump\t// in\n    tag_432:\n        /* \"#utility.yul\":4633:4847   */\n      swap3\n      swap2\n      pop\n      pop\n      jump\t// out\n        /* \"#utility.yul\":4853:4930   */\n    tag_355:\n        /* \"#utility.yul\":4890:4897   */\n      0x00\n        /* \"#utility.yul\":4919:4924   */\n      dup2\n        /* \"#utility.yul\":4908:4924   */\n      swap1\n      pop\n        /* \"#utility.yul\":4853:4930   */\n      swap2\n      swap1\n      pop\n      jump\t// out\n        /* \"#utility.yul\":4936:5054   */\n    tag_356:\n        /* \"#utility.yul\":5023:5047   */\n      tag_435\n        /* \"#utility.yul\":5041:5046   */\n      dup2\n        /* \"#utility.yul\":5023:5047   */\n      tag_355\n      jump\t// in\n    tag_435:\n        /* \"#utility.yul\":5018:5021   */\n      dup3\n        /* \"#utility.yul\":5011:5048   */\n      mstore\n        /* \"#utility.yul\":4936:5054   */\n      pop\n      pop\n      jump\t// out\n        /* \"#utility.yul\":5060:5282   */\n    tag_52:\n        /* \"#utility.yul\":5153:5157   */\n      0x00\n        /* \"#utility.yul\":5191:5193   */\n      0x20\n        /* \"#utility.yul\":5180:5189   */\n      dup3\n        /* \"#utility.yul\":5176:5194   */\n      add\n        /* \"#utility.yul\":5168:5194   */\n      swap1\n      pop\n        /* \"#utility.yul\":5204:5275   */\n      tag_437\n        /* \"#utility.yul\":5272:5273   */\n      0x00\n        /* \"#utility.yul\":5261:5270   */\n      dup4\n        /* \"#utility.yul\":5257:5274   */\n      add\n        /* \"#utility.yul\":5248:5254   */\n      dup5\n        /* \"#utility.yul\":5204:5275   */\n      tag_356\n      jump\t// in\n    tag_437:\n        /* \"#utility.yul\":5060:5282   */\n      swap3\n      swap2\n      pop\n      pop\n      jump\t// out\n        /* \"#utility.yul\":5288:5617   */\n    tag_58:\n        /* \"#utility.yul\":5347:5353   */\n      0x00\n        /* \"#utility.yul\":5396:5398   */\n      0x20\n        /* \"#utility.yul\":5384:5393   */\n      dup3\n        /* \"#utility.yul\":5375:5382   */\n      dup5\n        /* \"#utility.yul\":5371:5394   */\n      sub\n        /* \"#utility.yul\":5367:5399   */\n      slt\n        /* \"#utility.yul\":5364:5483   */\n      iszero\n      tag_439\n      jumpi\n        /* \"#utility.yul\":5402:5481   */\n      tag_440\n      tag_341\n      jump\t// in\n    tag_440:\n        /* \"#utility.yul\":5364:5483   */\n    tag_439:\n        /* \"#utility.yul\":5522:5523   */\n      0x00\n        /* \"#utility.yul\":5547:5600   */\n      tag_441\n        /* \"#utility.yul\":5592:5599   */\n      dup5\n        /* \"#utility.yul\":5583:5589   */\n      dup3\n        /* \"#utility.yul\":5572:5581   */\n      dup6\n        /* \"#utility.yul\":5568:5590   */\n      add\n        /* \"#utility.yul\":5547:5600   */\n      tag_349\n      jump\t// in\n    tag_441:\n        /* \"#utility.yul\":5537:5600   */\n      swap2\n      pop\n        /* \"#utility.yul\":5493:5610   */\n      pop\n        /* \"#utility.yul\":5288:5617   */\n      swap3\n      swap2\n      pop\n      pop\n      jump\t// out\n        /* \"#utility.yul\":5623:5952   */\n    tag_62:\n        /* \"#utility.yul\":5682:5688   */\n      0x00\n        /* \"#utility.yul\":5731:5733   */\n      0x20\n        /* \"#utility.yul\":5719:5728   */\n      dup3\n        /* \"#utility.yul\":5710:5717   */\n      dup5\n        /* \"#utility.yul\":5706:5729   */\n      sub\n        /* \"#utility.yul\":5702:5734   */\n      slt\n        /* \"#utility.yul\":5699:5818   */\n      iszero\n      tag_443\n      jumpi\n        /* \"#utility.yul\":5737:5816   */\n      tag_444\n      tag_341\n      jump\t// in\n    tag_444:\n        /* \"#utility.yul\":5699:5818   */\n    tag_443:\n        /* \"#utility.yul\":5857:5858   */\n      0x00\n        /* \"#utility.yul\":5882:5935   */\n      tag_445\n        /* \"#utility.yul\":5927:5934   */\n      dup5\n        /* \"#utility.yul\":5918:5924   */\n      dup3\n        /* \"#utility.yul\":5907:5916   */\n      dup6\n        /* \"#utility.yul\":5903:5925   */\n      add\n        /* \"#utility.yul\":5882:5935   */\n      tag_346\n      jump\t// in\n    tag_445:\n        /* \"#utility.yul\":5872:5935   */\n      swap2\n      pop\n        /* \"#utility.yul\":5828:5945   */\n      pop\n        /* \"#utility.yul\":5623:5952   */\n      swap3\n      swap2\n      pop\n      pop\n      jump\t// out\n        /* \"#utility.yul\":5958:6107   */\n    tag_357:\n        /* \"#utility.yul\":5994:6001   */\n      0x00\n        /* \"#utility.yul\":6034:6100   */\n      0xff00000000000000000000000000000000000000000000000000000000000000\n        /* \"#utility.yul\":6027:6032   */\n      dup3\n        /* \"#utility.yul\":6023:6101   */\n      and\n        /* \"#utility.yul\":6012:6101   */\n      swap1\n      pop\n        /* \"#utility.yul\":5958:6107   */\n      swap2\n      swap1\n      pop\n      jump\t// out\n        /* \"#utility.yul\":6113:6228   */\n    tag_358:\n        /* \"#utility.yul\":6198:6221   */\n      tag_448\n        /* \"#utility.yul\":6215:6220   */\n      dup2\n        /* \"#utility.yul\":6198:6221   */\n      tag_357\n      jump\t// in\n    tag_448:\n        /* \"#utility.yul\":6193:6196   */\n      dup3\n        /* \"#utility.yul\":6186:6222   */\n      mstore\n        /* \"#utility.yul\":6113:6228   */\n      pop\n      pop\n      jump\t// out\n        /* \"#utility.yul\":6234:6352   */\n    tag_359:\n        /* \"#utility.yul\":6321:6345   */\n      tag_450\n        /* \"#utility.yul\":6339:6344   */\n      dup2\n        /* \"#utility.yul\":6321:6345   */\n      tag_344\n      jump\t// in\n    tag_450:\n        /* \"#utility.yul\":6316:6319   */\n      dup3\n        /* \"#utility.yul\":6309:6346   */\n      mstore\n        /* \"#utility.yul\":6234:6352   */\n      pop\n      pop\n      jump\t// out\n        /* \"#utility.yul\":6358:6472   */\n    tag_360:\n        /* \"#utility.yul\":6425:6431   */\n      0x00\n        /* \"#utility.yul\":6459:6464   */\n      dup2\n        /* \"#utility.yul\":6453:6465   */\n      mload\n        /* \"#utility.yul\":6443:6465   */\n      swap1\n      pop\n        /* \"#utility.yul\":6358:6472   */\n      swap2\n      swap1\n      pop\n      jump\t// out\n        /* \"#utility.yul\":6478:6662   */\n    tag_361:\n        /* \"#utility.yul\":6577:6588   */\n      0x00\n        /* \"#utility.yul\":6611:6617   */\n      dup3\n        /* \"#utility.yul\":6606:6609   */\n      dup3\n        /* \"#utility.yul\":6599:6618   */\n      mstore\n        /* \"#utility.yul\":6651:6655   */\n      0x20\n        /* \"#utility.yul\":6646:6649   */\n      dup3\n        /* \"#utility.yul\":6642:6656   */\n      add\n        /* \"#utility.yul\":6627:6656   */\n      swap1\n      pop\n        /* \"#utility.yul\":6478:6662   */\n      swap3\n      swap2\n      pop\n      pop\n      jump\t// out\n        /* \"#utility.yul\":6668:6800   */\n    tag_362:\n        /* \"#utility.yul\":6735:6739   */\n      0x00\n        /* \"#utility.yul\":6758:6761   */\n      dup2\n        /* \"#utility.yul\":6750:6761   */\n      swap1\n      pop\n        /* \"#utility.yul\":6788:6792   */\n      0x20\n        /* \"#utility.yul\":6783:6786   */\n      dup3\n        /* \"#utility.yul\":6779:6793   */\n      add\n        /* \"#utility.yul\":6771:6793   */\n      swap1\n      pop\n        /* \"#utility.yul\":6668:6800   */\n      swap2\n      swap1\n      pop\n      jump\t// out\n        /* \"#utility.yul\":6806:6914   */\n    tag_363:\n        /* \"#utility.yul\":6883:6907   */\n      tag_455\n        /* \"#utility.yul\":6901:6906   */\n      dup2\n        /* \"#utility.yul\":6883:6907   */\n      tag_347\n      jump\t// in\n    tag_455:\n        /* \"#utility.yul\":6878:6881   */\n      dup3\n        /* \"#utility.yul\":6871:6908   */\n      mstore\n        /* \"#utility.yul\":6806:6914   */\n      pop\n      pop\n      jump\t// out\n        /* \"#utility.yul\":6920:7099   */\n    tag_364:\n        /* \"#utility.yul\":6989:6999   */\n      0x00\n        /* \"#utility.yul\":7010:7056   */\n      tag_457\n        /* \"#utility.yul\":7052:7055   */\n      dup4\n        /* \"#utility.yul\":7044:7050   */\n      dup4\n        /* \"#utility.yul\":7010:7056   */\n      tag_363\n      jump\t// in\n    tag_457:\n        /* \"#utility.yul\":7088:7092   */\n      0x20\n        /* \"#utility.yul\":7083:7086   */\n      dup4\n        /* \"#utility.yul\":7079:7093   */\n      add\n        /* \"#utility.yul\":7065:7093   */\n      swap1\n      pop\n        /* \"#utility.yul\":6920:7099   */\n      swap3\n      swap2\n      pop\n      pop\n      jump\t// out\n        /* \"#utility.yul\":7105:7218   */\n    tag_365:\n        /* \"#utility.yul\":7175:7179   */\n      0x00\n        /* \"#utility.yul\":7207:7211   */\n      0x20\n        /* \"#utility.yul\":7202:7205   */\n      dup3\n        /* \"#utility.yul\":7198:7212   */\n      add\n        /* \"#utility.yul\":7190:7212   */\n      swap1\n      pop\n        /* \"#utility.yul\":7105:7218   */\n      swap2\n      swap1\n      pop\n      jump\t// out\n        /* \"#utility.yul\":7254:7986   */\n    tag_366:\n        /* \"#utility.yul\":7373:7376   */\n      0x00\n        /* \"#utility.yul\":7402:7456   */\n      tag_460\n        /* \"#utility.yul\":7450:7455   */\n      dup3\n        /* \"#utility.yul\":7402:7456   */\n      tag_360\n      jump\t// in\n    tag_460:\n        /* \"#utility.yul\":7472:7558   */\n      tag_461\n        /* \"#utility.yul\":7551:7557   */\n      dup2\n        /* \"#utility.yul\":7546:7549   */\n      dup6\n        /* \"#utility.yul\":7472:7558   */\n      tag_361\n      jump\t// in\n    tag_461:\n        /* \"#utility.yul\":7465:7558   */\n      swap4\n      pop\n        /* \"#utility.yul\":7582:7638   */\n      tag_462\n        /* \"#utility.yul\":7632:7637   */\n      dup4\n        /* \"#utility.yul\":7582:7638   */\n      tag_362\n      jump\t// in\n    tag_462:\n        /* \"#utility.yul\":7661:7668   */\n      dup1\n        /* \"#utility.yul\":7692:7693   */\n      0x00\n        /* \"#utility.yul\":7677:7961   */\n    tag_463:\n        /* \"#utility.yul\":7702:7708   */\n      dup4\n        /* \"#utility.yul\":7699:7700   */\n      dup2\n        /* \"#utility.yul\":7696:7709   */\n      lt\n        /* \"#utility.yul\":7677:7961   */\n      iszero\n      tag_465\n      jumpi\n        /* \"#utility.yul\":7778:7784   */\n      dup2\n        /* \"#utility.yul\":7772:7785   */\n      mload\n        /* \"#utility.yul\":7805:7868   */\n      tag_466\n        /* \"#utility.yul\":7864:7867   */\n      dup9\n        /* \"#utility.yul\":7849:7862   */\n      dup3\n        /* \"#utility.yul\":7805:7868   */\n      tag_364\n      jump\t// in\n    tag_466:\n        /* \"#utility.yul\":7798:7868   */\n      swap8\n      pop\n        /* \"#utility.yul\":7891:7951   */\n      tag_467\n        /* \"#utility.yul\":7944:7950   */\n      dup4\n        /* \"#utility.yul\":7891:7951   */\n      tag_365\n      jump\t// in\n    tag_467:\n        /* \"#utility.yul\":7881:7951   */\n      swap3\n      pop\n        /* \"#utility.yul\":7737:7961   */\n      pop\n        /* \"#utility.yul\":7724:7725   */\n      0x01\n        /* \"#utility.yul\":7721:7722   */\n      dup2\n        /* \"#utility.yul\":7717:7726   */\n      add\n        /* \"#utility.yul\":7712:7726   */\n      swap1\n      pop\n        /* \"#utility.yul\":7677:7961   */\n      jump(tag_463)\n    tag_465:\n        /* \"#utility.yul\":7681:7695   */\n      pop\n        /* \"#utility.yul\":7977:7980   */\n      dup6\n        /* \"#utility.yul\":7970:7980   */\n      swap4\n      pop\n        /* \"#utility.yul\":7378:7986   */\n      pop\n      pop\n      pop\n        /* \"#utility.yul\":7254:7986   */\n      swap3\n      swap2\n      pop\n      pop\n      jump\t// out\n        /* \"#utility.yul\":7992:9207   */\n    tag_77:\n        /* \"#utility.yul\":8341:8345   */\n      0x00\n        /* \"#utility.yul\":8379:8382   */\n      0xe0\n        /* \"#utility.yul\":8368:8377   */\n      dup3\n        /* \"#utility.yul\":8364:8383   */\n      add\n        /* \"#utility.yul\":8356:8383   */\n      swap1\n      pop\n        /* \"#utility.yul\":8393:8462   */\n      tag_469\n        /* \"#utility.yul\":8459:8460   */\n      0x00\n        /* \"#utility.yul\":8448:8457   */\n      dup4\n        /* \"#utility.yul\":8444:8461   */\n      add\n        /* \"#utility.yul\":8435:8441   */\n      dup11\n        /* \"#utility.yul\":8393:8462   */\n      tag_358\n      jump\t// in\n    tag_469:\n        /* \"#utility.yul\":8509:8518   */\n      dup2\n        /* \"#utility.yul\":8503:8507   */\n      dup2\n        /* \"#utility.yul\":8499:8519   */\n      sub\n        /* \"#utility.yul\":8494:8496   */\n      0x20\n        /* \"#utility.yul\":8483:8492   */\n      dup4\n        /* \"#utility.yul\":8479:8497   */\n      add\n        /* \"#utility.yul\":8472:8520   */\n      mstore\n        /* \"#utility.yul\":8537:8615   */\n      tag_470\n        /* \"#utility.yul\":8610:8614   */\n      dup2\n        /* \"#utility.yul\":8601:8607   */\n      dup10\n        /* \"#utility.yul\":8537:8615   */\n      tag_339\n      jump\t// in\n    tag_470:\n        /* \"#utility.yul\":8529:8615   */\n      swap1\n      pop\n        /* \"#utility.yul\":8662:8671   */\n      dup2\n        /* \"#utility.yul\":8656:8660   */\n      dup2\n        /* \"#utility.yul\":8652:8672   */\n      sub\n        /* \"#utility.yul\":8647:8649   */\n      0x40\n        /* \"#utility.yul\":8636:8645   */\n      dup4\n        /* \"#utility.yul\":8632:8650   */\n      add\n        /* \"#utility.yul\":8625:8673   */\n      mstore\n        /* \"#utility.yul\":8690:8768   */\n      tag_471\n        /* \"#utility.yul\":8763:8767   */\n      dup2\n        /* \"#utility.yul\":8754:8760   */\n      dup9\n        /* \"#utility.yul\":8690:8768   */\n      tag_339\n      jump\t// in\n    tag_471:\n        /* \"#utility.yul\":8682:8768   */\n      swap1\n      pop\n        /* \"#utility.yul\":8778:8850   */\n      tag_472\n        /* \"#utility.yul\":8846:8848   */\n      0x60\n        /* \"#utility.yul\":8835:8844   */\n      dup4\n        /* \"#utility.yul\":8831:8849   */\n      add\n        /* \"#utility.yul\":8822:8828   */\n      dup8\n        /* \"#utility.yul\":8778:8850   */\n      tag_352\n      jump\t// in\n    tag_472:\n        /* \"#utility.yul\":8860:8933   */\n      tag_473\n        /* \"#utility.yul\":8928:8931   */\n      0x80\n        /* \"#utility.yul\":8917:8926   */\n      dup4\n        /* \"#utility.yul\":8913:8932   */\n      add\n        /* \"#utility.yul\":8904:8910   */\n      dup7\n        /* \"#utility.yul\":8860:8933   */\n      tag_359\n      jump\t// in\n    tag_473:\n        /* \"#utility.yul\":8943:9016   */\n      tag_474\n        /* \"#utility.yul\":9011:9014   */\n      0xa0\n        /* \"#utility.yul\":9000:9009   */\n      dup4\n        /* \"#utility.yul\":8996:9015   */\n      add\n        /* \"#utility.yul\":8987:8993   */\n      dup6\n        /* \"#utility.yul\":8943:9016   */\n      tag_356\n      jump\t// in\n    tag_474:\n        /* \"#utility.yul\":9064:9073   */\n      dup2\n        /* \"#utility.yul\":9058:9062   */\n      dup2\n        /* \"#utility.yul\":9054:9074   */\n      sub\n        /* \"#utility.yul\":9048:9051   */\n      0xc0\n        /* \"#utility.yul\":9037:9046   */\n      dup4\n        /* \"#utility.yul\":9033:9052   */\n      add\n        /* \"#utility.yul\":9026:9075   */\n      mstore\n        /* \"#utility.yul\":9092:9200   */\n      tag_475\n        /* \"#utility.yul\":9195:9199   */\n      dup2\n        /* \"#utility.yul\":9186:9192   */\n      dup5\n        /* \"#utility.yul\":9092:9200   */\n      tag_366\n      jump\t// in\n    tag_475:\n        /* \"#utility.yul\":9084:9200   */\n      swap1\n      pop\n        /* \"#utility.yul\":7992:9207   */\n      swap9\n      swap8\n      pop\n      pop\n      pop\n      pop\n      pop\n      pop\n      pop\n      pop\n      jump\t// out\n        /* \"#utility.yul\":9213:9435   */\n    tag_81:\n        /* \"#utility.yul\":9306:9310   */\n      0x00\n        /* \"#utility.yul\":9344:9346   */\n      0x20\n        /* \"#utility.yul\":9333:9342   */\n      dup3\n        /* \"#utility.yul\":9329:9347   */\n      add\n        /* \"#utility.yul\":9321:9347   */\n      swap1\n      pop\n        /* \"#utility.yul\":9357:9428   */\n      tag_477\n        /* \"#utility.yul\":9425:9426   */\n      0x00\n        /* \"#utility.yul\":9414:9423   */\n      dup4\n        /* \"#utility.yul\":9410:9427   */\n      add\n        /* \"#utility.yul\":9401:9407   */\n      dup5\n        /* \"#utility.yul\":9357:9428   */\n      tag_359\n      jump\t// in\n    tag_477:\n        /* \"#utility.yul\":9213:9435   */\n      swap3\n      swap2\n      pop\n      pop\n      jump\t// out\n        /* \"#utility.yul\":9441:10206   */\n    tag_91:\n        /* \"#utility.yul\":9527:9533   */\n      0x00\n        /* \"#utility.yul\":9535:9541   */\n      dup1\n        /* \"#utility.yul\":9543:9549   */\n      0x00\n        /* \"#utility.yul\":9551:9557   */\n      dup1\n        /* \"#utility.yul\":9600:9603   */\n      0x80\n        /* \"#utility.yul\":9588:9597   */\n      dup6\n        /* \"#utility.yul\":9579:9586   */\n      dup8\n        /* \"#utility.yul\":9575:9598   */\n      sub\n        /* \"#utility.yul\":9571:9604   */\n      slt\n        /* \"#utility.yul\":9568:9688   */\n      iszero\n      tag_479\n      jumpi\n        /* \"#utility.yul\":9607:9686   */\n      tag_480\n      tag_341\n      jump\t// in\n    tag_480:\n        /* \"#utility.yul\":9568:9688   */\n    tag_479:\n        /* \"#utility.yul\":9727:9728   */\n      0x00\n        /* \"#utility.yul\":9752:9805   */\n      tag_481\n        /* \"#utility.yul\":9797:9804   */\n      dup8\n        /* \"#utility.yul\":9788:9794   */\n      dup3\n        /* \"#utility.yul\":9777:9786   */\n      dup9\n        /* \"#utility.yul\":9773:9795   */\n      add\n        /* \"#utility.yul\":9752:9805   */\n      tag_346\n      jump\t// in\n    tag_481:\n        /* \"#utility.yul\":9742:9805   */\n      swap5\n      pop\n        /* \"#utility.yul\":9698:9815   */\n      pop\n        /* \"#utility.yul\":9854:9856   */\n      0x20\n        /* \"#utility.yul\":9880:9933   */\n      tag_482\n        /* \"#utility.yul\":9925:9932   */\n      dup8\n        /* \"#utility.yul\":9916:9922   */\n      dup3\n        /* \"#utility.yul\":9905:9914   */\n      dup9\n        /* \"#utility.yul\":9901:9923   */\n      add\n        /* \"#utility.yul\":9880:9933   */\n      tag_346\n      jump\t// in\n    tag_482:\n        /* \"#utility.yul\":9870:9933   */\n      swap4\n      pop\n        /* \"#utility.yul\":9825:9943   */\n      pop\n        /* \"#utility.yul\":9982:9984   */\n      0x40\n        /* \"#utility.yul\":10008:10061   */\n      tag_483\n        /* \"#utility.yul\":10053:10060   */\n      dup8\n        /* \"#utility.yul\":10044:10050   */\n      dup3\n        /* \"#utility.yul\":10033:10042   */\n      dup9\n        /* \"#utility.yul\":10029:10051   */\n      add\n        /* \"#utility.yul\":10008:10061   */\n      tag_349\n      jump\t// in\n    tag_483:\n        /* \"#utility.yul\":9998:10061   */\n      swap3\n      pop\n        /* \"#utility.yul\":9953:10071   */\n      pop\n        /* \"#utility.yul\":10110:10112   */\n      0x60\n        /* \"#utility.yul\":10136:10189   */\n      tag_484\n        /* \"#utility.yul\":10181:10188   */\n      dup8\n        /* \"#utility.yul\":10172:10178   */\n      dup3\n        /* \"#utility.yul\":10161:10170   */\n      dup9\n        /* \"#utility.yul\":10157:10179   */\n      add\n        /* \"#utility.yul\":10136:10189   */\n      tag_346\n      jump\t// in\n    tag_484:\n        /* \"#utility.yul\":10126:10189   */\n      swap2\n      pop\n        /* \"#utility.yul\":10081:10199   */\n      pop\n        /* \"#utility.yul\":9441:10206   */\n      swap3\n      swap6\n      swap2\n      swap5\n      pop\n      swap3\n      pop\n      jump\t// out\n        /* \"#utility.yul\":10212:10330   */\n    tag_367:\n        /* \"#utility.yul\":10283:10305   */\n      tag_486\n        /* \"#utility.yul\":10299:10304   */\n      dup2\n        /* \"#utility.yul\":10283:10305   */\n      tag_353\n      jump\t// in\n    tag_486:\n        /* \"#utility.yul\":10276:10281   */\n      dup2\n        /* \"#utility.yul\":10273:10306   */\n      eq\n        /* \"#utility.yul\":10263:10324   */\n      tag_487\n      jumpi\n        /* \"#utility.yul\":10320:10321   */\n      0x00\n        /* \"#utility.yul\":10317:10318   */\n      dup1\n        /* \"#utility.yul\":10310:10322   */\n      revert\n        /* \"#utility.yul\":10263:10324   */\n    tag_487:\n        /* \"#utility.yul\":10212:10330   */\n      pop\n      jump\t// out\n        /* \"#utility.yul\":10336:10471   */\n    tag_368:\n        /* \"#utility.yul\":10380:10385   */\n      0x00\n        /* \"#utility.yul\":10418:10424   */\n      dup2\n        /* \"#utility.yul\":10405:10425   */\n      calldataload\n        /* \"#utility.yul\":10396:10425   */\n      swap1\n      pop\n        /* \"#utility.yul\":10434:10465   */\n      tag_489\n        /* \"#utility.yul\":10459:10464   */\n      dup2\n        /* \"#utility.yul\":10434:10465   */\n      tag_367\n      jump\t// in\n    tag_489:\n        /* \"#utility.yul\":10336:10471   */\n      swap3\n      swap2\n      pop\n      pop\n      jump\t// out\n        /* \"#utility.yul\":10477:10599   */\n    tag_369:\n        /* \"#utility.yul\":10550:10574   */\n      tag_491\n        /* \"#utility.yul\":10568:10573   */\n      dup2\n        /* \"#utility.yul\":10550:10574   */\n      tag_355\n      jump\t// in\n    tag_491:\n        /* \"#utility.yul\":10543:10548   */\n      dup2\n        /* \"#utility.yul\":10540:10575   */\n      eq\n        /* \"#utility.yul\":10530:10593   */\n      tag_492\n      jumpi\n        /* \"#utility.yul\":10589:10590   */\n      0x00\n        /* \"#utility.yul\":10586:10587   */\n      dup1\n        /* \"#utility.yul\":10579:10591   */\n      revert\n        /* \"#utility.yul\":10530:10593   */\n    tag_492:\n        /* \"#utility.yul\":10477:10599   */\n      pop\n      jump\t// out\n        /* \"#utility.yul\":10605:10744   */\n    tag_370:\n        /* \"#utility.yul\":10651:10656   */\n      0x00\n        /* \"#utility.yul\":10689:10695   */\n      dup2\n        /* \"#utility.yul\":10676:10696   */\n      calldataload\n        /* \"#utility.yul\":10667:10696   */\n      swap1\n      pop\n        /* \"#utility.yul\":10705:10738   */\n      tag_494\n        /* \"#utility.yul\":10732:10737   */\n      dup2\n        /* \"#utility.yul\":10705:10738   */\n      tag_369\n      jump\t// in\n    tag_494:\n        /* \"#utility.yul\":10605:10744   */\n      swap3\n      swap2\n      pop\n      pop\n      jump\t// out\n        /* \"#utility.yul\":10750:11949   */\n    tag_96:\n        /* \"#utility.yul\":10861:10867   */\n      0x00\n        /* \"#utility.yul\":10869:10875   */\n      dup1\n        /* \"#utility.yul\":10877:10883   */\n      0x00\n        /* \"#utility.yul\":10885:10891   */\n      dup1\n        /* \"#utility.yul\":10893:10899   */\n      0x00\n        /* \"#utility.yul\":10901:10907   */\n      dup1\n        /* \"#utility.yul\":10909:10915   */\n      0x00\n        /* \"#utility.yul\":10958:10961   */\n      0xe0\n        /* \"#utility.yul\":10946:10955   */\n      dup9\n        /* \"#utility.yul\":10937:10944   */\n      dup11\n        /* \"#utility.yul\":10933:10956   */\n      sub\n        /* \"#utility.yul\":10929:10962   */\n      slt\n        /* \"#utility.yul\":10926:11046   */\n      iszero\n      tag_496\n      jumpi\n        /* \"#utility.yul\":10965:11044   */\n      tag_497\n      tag_341\n      jump\t// in\n    tag_497:\n        /* \"#utility.yul\":10926:11046   */\n    tag_496:\n        /* \"#utility.yul\":11085:11086   */\n      0x00\n        /* \"#utility.yul\":11110:11163   */\n      tag_498\n        /* \"#utility.yul\":11155:11162   */\n      dup11\n        /* \"#utility.yul\":11146:11152   */\n      dup3\n        /* \"#utility.yul\":11135:11144   */\n      dup12\n        /* \"#utility.yul\":11131:11153   */\n      add\n        /* \"#utility.yul\":11110:11163   */\n      tag_346\n      jump\t// in\n    tag_498:\n        /* \"#utility.yul\":11100:11163   */\n      swap8\n      pop\n        /* \"#utility.yul\":11056:11173   */\n      pop\n        /* \"#utility.yul\":11212:11214   */\n      0x20\n        /* \"#utility.yul\":11238:11291   */\n      tag_499\n        /* \"#utility.yul\":11283:11290   */\n      dup11\n        /* \"#utility.yul\":11274:11280   */\n      dup3\n        /* \"#utility.yul\":11263:11272   */\n      dup12\n        /* \"#utility.yul\":11259:11281   */\n      add\n        /* \"#utility.yul\":11238:11291   */\n      tag_346\n      jump\t// in\n    tag_499:\n        /* \"#utility.yul\":11228:11291   */\n      swap7\n      pop\n        /* \"#utility.yul\":11183:11301   */\n      pop\n        /* \"#utility.yul\":11340:11342   */\n      0x40\n        /* \"#utility.yul\":11366:11419   */\n      tag_500\n        /* \"#utility.yul\":11411:11418   */\n      dup11\n        /* \"#utility.yul\":11402:11408   */\n      dup3\n        /* \"#utility.yul\":11391:11400   */\n      dup12\n        /* \"#utility.yul\":11387:11409   */\n      add\n        /* \"#utility.yul\":11366:11419   */\n      tag_349\n      jump\t// in\n    tag_500:\n        /* \"#utility.yul\":11356:11419   */\n      swap6\n      pop\n        /* \"#utility.yul\":11311:11429   */\n      pop\n        /* \"#utility.yul\":11468:11470   */\n      0x60\n        /* \"#utility.yul\":11494:11547   */\n      tag_501\n        /* \"#utility.yul\":11539:11546   */\n      dup11\n        /* \"#utility.yul\":11530:11536   */\n      dup3\n        /* \"#utility.yul\":11519:11528   */\n      dup12\n        /* \"#utility.yul\":11515:11537   */\n      add\n        /* \"#utility.yul\":11494:11547   */\n      tag_349\n      jump\t// in\n    tag_501:\n        /* \"#utility.yul\":11484:11547   */\n      swap5\n      pop\n        /* \"#utility.yul\":11439:11557   */\n      pop\n        /* \"#utility.yul\":11596:11599   */\n      0x80\n        /* \"#utility.yul\":11623:11674   */\n      tag_502\n        /* \"#utility.yul\":11666:11673   */\n      dup11\n        /* \"#utility.yul\":11657:11663   */\n      dup3\n        /* \"#utility.yul\":11646:11655   */\n      dup12\n        /* \"#utility.yul\":11642:11664   */\n      add\n        /* \"#utility.yul\":11623:11674   */\n      tag_368\n      jump\t// in\n    tag_502:\n        /* \"#utility.yul\":11613:11674   */\n      swap4\n      pop\n        /* \"#utility.yul\":11567:11684   */\n      pop\n        /* \"#utility.yul\":11723:11726   */\n      0xa0\n        /* \"#utility.yul\":11750:11803   */\n      tag_503\n        /* \"#utility.yul\":11795:11802   */\n      dup11\n        /* \"#utility.yul\":11786:11792   */\n      dup3\n        /* \"#utility.yul\":11775:11784   */\n      dup12\n        /* \"#utility.yul\":11771:11793   */\n      add\n        /* \"#utility.yul\":11750:11803   */\n      tag_370\n      jump\t// in\n    tag_503:\n        /* \"#utility.yul\":11740:11803   */\n      swap3\n      pop\n        /* \"#utility.yul\":11694:11813   */\n      pop\n        /* \"#utility.yul\":11852:11855   */\n      0xc0\n        /* \"#utility.yul\":11879:11932   */\n      tag_504\n        /* \"#utility.yul\":11924:11931   */\n      dup11\n        /* \"#utility.yul\":11915:11921   */\n      dup3\n        /* \"#utility.yul\":11904:11913   */\n      dup12\n        /* \"#utility.yul\":11900:11922   */\n      add\n        /* \"#utility.yul\":11879:11932   */\n      tag_370\n      jump\t// in\n    tag_504:\n        /* \"#utility.yul\":11869:11932   */\n      swap2\n      pop\n        /* \"#utility.yul\":11823:11942   */\n      pop\n        /* \"#utility.yul\":10750:11949   */\n      swap3\n      swap6\n      swap9\n      swap2\n      swap5\n      swap8\n      pop\n      swap3\n      swap6\n      pop\n      jump\t// out\n        /* \"#utility.yul\":11955:12429   */\n    tag_100:\n        /* \"#utility.yul\":12023:12029   */\n      0x00\n        /* \"#utility.yul\":12031:12037   */\n      dup1\n        /* \"#utility.yul\":12080:12082   */\n      0x40\n        /* \"#utility.yul\":12068:12077   */\n      dup4\n        /* \"#utility.yul\":12059:12066   */\n      dup6\n        /* \"#utility.yul\":12055:12078   */\n      sub\n        /* \"#utility.yul\":12051:12083   */\n      slt\n        /* \"#utility.yul\":12048:12167   */\n      iszero\n      tag_506\n      jumpi\n        /* \"#utility.yul\":12086:12165   */\n      tag_507\n      tag_341\n      jump\t// in\n    tag_507:\n        /* \"#utility.yul\":12048:12167   */\n    tag_506:\n        /* \"#utility.yul\":12206:12207   */\n      0x00\n        /* \"#utility.yul\":12231:12284   */\n      tag_508\n        /* \"#utility.yul\":12276:12283   */\n      dup6\n        /* \"#utility.yul\":12267:12273   */\n      dup3\n        /* \"#utility.yul\":12256:12265   */\n      dup7\n        /* \"#utility.yul\":12252:12274   */\n      add\n        /* \"#utility.yul\":12231:12284   */\n      tag_346\n      jump\t// in\n    tag_508:\n        /* \"#utility.yul\":12221:12284   */\n      swap3\n      pop\n        /* \"#utility.yul\":12177:12294   */\n      pop\n        /* \"#utility.yul\":12333:12335   */\n      0x20\n        /* \"#utility.yul\":12359:12412   */\n      tag_509\n        /* \"#utility.yul\":12404:12411   */\n      dup6\n        /* \"#utility.yul\":12395:12401   */\n      dup3\n        /* \"#utility.yul\":12384:12393   */\n      dup7\n        /* \"#utility.yul\":12380:12402   */\n      add\n        /* \"#utility.yul\":12359:12412   */\n      tag_346\n      jump\t// in\n    tag_509:\n        /* \"#utility.yul\":12349:12412   */\n      swap2\n      pop\n        /* \"#utility.yul\":12304:12422   */\n      pop\n        /* \"#utility.yul\":11955:12429   */\n      swap3\n      pop\n      swap3\n      swap1\n      pop\n      jump\t// out\n        /* \"#utility.yul\":12435:12615   */\n    tag_371:\n        /* \"#utility.yul\":12483:12560   */\n      0x4e487b7100000000000000000000000000000000000000000000000000000000\n        /* \"#utility.yul\":12480:12481   */\n      0x00\n        /* \"#utility.yul\":12473:12561   */\n      mstore\n        /* \"#utility.yul\":12580:12584   */\n      0x22\n        /* \"#utility.yul\":12577:12578   */\n      0x04\n        /* \"#utility.yul\":12570:12585   */\n      mstore\n        /* \"#utility.yul\":12604:12608   */\n      0x24\n        /* \"#utility.yul\":12601:12602   */\n      0x00\n        /* \"#utility.yul\":12594:12609   */\n      revert\n        /* \"#utility.yul\":12621:12941   */\n    tag_108:\n        /* \"#utility.yul\":12665:12671   */\n      0x00\n        /* \"#utility.yul\":12702:12703   */\n      0x02\n        /* \"#utility.yul\":12696:12700   */\n      dup3\n        /* \"#utility.yul\":12692:12704   */\n      div\n        /* \"#utility.yul\":12682:12704   */\n      swap1\n      pop\n        /* \"#utility.yul\":12749:12750   */\n      0x01\n        /* \"#utility.yul\":12743:12747   */\n      dup3\n        /* \"#utility.yul\":12739:12751   */\n      and\n        /* \"#utility.yul\":12770:12788   */\n      dup1\n        /* \"#utility.yul\":12760:12841   */\n      tag_512\n      jumpi\n        /* \"#utility.yul\":12826:12830   */\n      0x7f\n        /* \"#utility.yul\":12818:12824   */\n      dup3\n        /* \"#utility.yul\":12814:12831   */\n      and\n        /* \"#utility.yul\":12804:12831   */\n      swap2\n      pop\n        /* \"#utility.yul\":12760:12841   */\n    tag_512:\n        /* \"#utility.yul\":12888:12890   */\n      0x20\n        /* \"#utility.yul\":12880:12886   */\n      dup3\n        /* \"#utility.yul\":12877:12891   */\n      lt\n        /* \"#utility.yul\":12857:12875   */\n      dup2\n        /* \"#utility.yul\":12854:12892   */\n      sub\n        /* \"#utility.yul\":12851:12935   */\n      tag_513\n      jumpi\n        /* \"#utility.yul\":12907:12925   */\n      tag_514\n      tag_371\n      jump\t// in\n    tag_514:\n        /* \"#utility.yul\":12851:12935   */\n    tag_513:\n        /* \"#utility.yul\":12672:12941   */\n      pop\n        /* \"#utility.yul\":12621:12941   */\n      swap2\n      swap1\n      pop\n      jump\t// out\n        /* \"#utility.yul\":12947:13127   */\n    tag_372:\n        /* \"#utility.yul\":12995:13072   */\n      0x4e487b7100000000000000000000000000000000000000000000000000000000\n        /* \"#utility.yul\":12992:12993   */\n      0x00\n        /* \"#utility.yul\":12985:13073   */\n      mstore\n        /* \"#utility.yul\":13092:13096   */\n      0x11\n        /* \"#utility.yul\":13089:13090   */\n      0x04\n        /* \"#utility.yul\":13082:13097   */\n      mstore\n        /* \"#utility.yul\":13116:13120   */\n      0x24\n        /* \"#utility.yul\":13113:13114   */\n      0x00\n        /* \"#utility.yul\":13106:13121   */\n      revert\n        /* \"#utility.yul\":13133:13235   */\n    tag_373:\n        /* \"#utility.yul\":13175:13183   */\n      0x00\n        /* \"#utility.yul\":13222:13227   */\n      dup2\n        /* \"#utility.yul\":13219:13220   */\n      0x01\n        /* \"#utility.yul\":13215:13228   */\n      shr\n        /* \"#utility.yul\":13194:13228   */\n      swap1\n      pop\n        /* \"#utility.yul\":13133:13235   */\n      swap2\n      swap1\n      pop\n      jump\t// out\n        /* \"#utility.yul\":13241:14089   */\n    tag_374:\n        /* \"#utility.yul\":13302:13307   */\n      0x00\n        /* \"#utility.yul\":13309:13313   */\n      dup1\n        /* \"#utility.yul\":13333:13339   */\n      dup3\n        /* \"#utility.yul\":13324:13339   */\n      swap2\n      pop\n        /* \"#utility.yul\":13357:13362   */\n      dup4\n        /* \"#utility.yul\":13348:13362   */\n      swap1\n      pop\n        /* \"#utility.yul\":13371:14083   */\n    tag_518:\n        /* \"#utility.yul\":13392:13393   */\n      0x01\n        /* \"#utility.yul\":13382:13390   */\n      dup6\n        /* \"#utility.yul\":13379:13394   */\n      gt\n        /* \"#utility.yul\":13371:14083   */\n      iszero\n      tag_520\n      jumpi\n        /* \"#utility.yul\":13487:13491   */\n      dup1\n        /* \"#utility.yul\":13482:13485   */\n      dup7\n        /* \"#utility.yul\":13478:13492   */\n      div\n        /* \"#utility.yul\":13472:13476   */\n      dup2\n        /* \"#utility.yul\":13469:13493   */\n      gt\n        /* \"#utility.yul\":13466:13516   */\n      iszero\n      tag_521\n      jumpi\n        /* \"#utility.yul\":13496:13514   */\n      tag_522\n      tag_372\n      jump\t// in\n    tag_522:\n        /* \"#utility.yul\":13466:13516   */\n    tag_521:\n        /* \"#utility.yul\":13546:13547   */\n      0x01\n        /* \"#utility.yul\":13536:13544   */\n      dup6\n        /* \"#utility.yul\":13532:13548   */\n      and\n        /* \"#utility.yul\":13529:13980   */\n      iszero\n      tag_523\n      jumpi\n        /* \"#utility.yul\":13961:13965   */\n      dup1\n        /* \"#utility.yul\":13954:13959   */\n      dup3\n        /* \"#utility.yul\":13950:13966   */\n      mul\n        /* \"#utility.yul\":13941:13966   */\n      swap2\n      pop\n        /* \"#utility.yul\":13529:13980   */\n    tag_523:\n        /* \"#utility.yul\":14011:14015   */\n      dup1\n        /* \"#utility.yul\":14005:14009   */\n      dup2\n        /* \"#utility.yul\":14001:14016   */\n      mul\n        /* \"#utility.yul\":13993:14016   */\n      swap1\n      pop\n        /* \"#utility.yul\":14041:14073   */\n      tag_524\n        /* \"#utility.yul\":14064:14072   */\n      dup6\n        /* \"#utility.yul\":14041:14073   */\n      tag_373\n      jump\t// in\n    tag_524:\n        /* \"#utility.yul\":14029:14073   */\n      swap5\n      pop\n        /* \"#utility.yul\":13371:14083   */\n      jump(tag_518)\n    tag_520:\n        /* \"#utility.yul\":13241:14089   */\n      swap5\n      pop\n      swap5\n      swap3\n      pop\n      pop\n      pop\n      jump\t// out\n        /* \"#utility.yul\":14095:15168   */\n    tag_375:\n        /* \"#utility.yul\":14149:14154   */\n      0x00\n        /* \"#utility.yul\":14340:14348   */\n      dup3\n        /* \"#utility.yul\":14330:14370   */\n      tag_526\n      jumpi\n        /* \"#utility.yul\":14361:14362   */\n      0x01\n        /* \"#utility.yul\":14352:14362   */\n      swap1\n      pop\n        /* \"#utility.yul\":14363:14368   */\n      jump(tag_525)\n        /* \"#utility.yul\":14330:14370   */\n    tag_526:\n        /* \"#utility.yul\":14389:14393   */\n      dup2\n        /* \"#utility.yul\":14379:14415   */\n      tag_527\n      jumpi\n        /* \"#utility.yul\":14406:14407   */\n      0x00\n        /* \"#utility.yul\":14397:14407   */\n      swap1\n      pop\n        /* \"#utility.yul\":14408:14413   */\n      jump(tag_525)\n        /* \"#utility.yul\":14379:14415   */\n    tag_527:\n        /* \"#utility.yul\":14475:14479   */\n      dup2\n        /* \"#utility.yul\":14523:14524   */\n      0x01\n        /* \"#utility.yul\":14518:14545   */\n      dup2\n      eq\n      tag_529\n      jumpi\n        /* \"#utility.yul\":14559:14560   */\n      0x02\n        /* \"#utility.yul\":14554:14745   */\n      dup2\n      eq\n      tag_530\n      jumpi\n        /* \"#utility.yul\":14468:14745   */\n      jump(tag_528)\n        /* \"#utility.yul\":14518:14545   */\n    tag_529:\n        /* \"#utility.yul\":14536:14537   */\n      0x01\n        /* \"#utility.yul\":14527:14537   */\n      swap2\n      pop\n        /* \"#utility.yul\":14538:14543   */\n      pop\n      jump(tag_525)\n        /* \"#utility.yul\":14554:14745   */\n    tag_530:\n        /* \"#utility.yul\":14599:14602   */\n      0xff\n        /* \"#utility.yul\":14589:14597   */\n      dup5\n        /* \"#utility.yul\":14586:14603   */\n      gt\n        /* \"#utility.yul\":14583:14626   */\n      iszero\n      tag_531\n      jumpi\n        /* \"#utility.yul\":14606:14624   */\n      tag_532\n      tag_372\n      jump\t// in\n    tag_532:\n        /* \"#utility.yul\":14583:14626   */\n    tag_531:\n        /* \"#utility.yul\":14655:14663   */\n      dup4\n        /* \"#utility.yul\":14652:14653   */\n      0x02\n        /* \"#utility.yul\":14648:14664   */\n      exp\n        /* \"#utility.yul\":14639:14664   */\n      swap2\n      pop\n        /* \"#utility.yul\":14690:14693   */\n      dup5\n        /* \"#utility.yul\":14683:14688   */\n      dup3\n        /* \"#utility.yul\":14680:14694   */\n      gt\n        /* \"#utility.yul\":14677:14717   */\n      iszero\n      tag_533\n      jumpi\n        /* \"#utility.yul\":14697:14715   */\n      tag_534\n      tag_372\n      jump\t// in\n    tag_534:\n        /* \"#utility.yul\":14677:14717   */\n    tag_533:\n        /* \"#utility.yul\":14730:14735   */\n      pop\n      jump(tag_525)\n        /* \"#utility.yul\":14468:14745   */\n    tag_528:\n      pop\n        /* \"#utility.yul\":14854:14856   */\n      0x20\n        /* \"#utility.yul\":14844:14852   */\n      dup4\n        /* \"#utility.yul\":14841:14857   */\n      lt\n        /* \"#utility.yul\":14835:14838   */\n      0x0133\n        /* \"#utility.yul\":14829:14833   */\n      dup4\n        /* \"#utility.yul\":14826:14839   */\n      lt\n        /* \"#utility.yul\":14822:14858   */\n      and\n        /* \"#utility.yul\":14804:14806   */\n      0x4e\n        /* \"#utility.yul\":14794:14802   */\n      dup5\n        /* \"#utility.yul\":14791:14807   */\n      lt\n        /* \"#utility.yul\":14786:14788   */\n      0x0b\n        /* \"#utility.yul\":14780:14784   */\n      dup5\n        /* \"#utility.yul\":14777:14789   */\n      lt\n        /* \"#utility.yul\":14773:14808   */\n      and\n        /* \"#utility.yul\":14757:14868   */\n      or\n        /* \"#utility.yul\":14754:15000   */\n      iszero\n      tag_535\n      jumpi\n        /* \"#utility.yul\":14910:14918   */\n      dup3\n        /* \"#utility.yul\":14904:14908   */\n      dup3\n        /* \"#utility.yul\":14900:14919   */\n      exp\n        /* \"#utility.yul\":14891:14919   */\n      swap1\n      pop\n        /* \"#utility.yul\":14945:14948   */\n      dup4\n        /* \"#utility.yul\":14938:14943   */\n      dup2\n        /* \"#utility.yul\":14935:14949   */\n      gt\n        /* \"#utility.yul\":14932:14972   */\n      iszero\n      tag_536\n      jumpi\n        /* \"#utility.yul\":14952:14970   */\n      tag_537\n      tag_372\n      jump\t// in\n    tag_537:\n        /* \"#utility.yul\":14932:14972   */\n    tag_536:\n        /* \"#utility.yul\":14985:14990   */\n      jump(tag_525)\n        /* \"#utility.yul\":14754:15000   */\n    tag_535:\n        /* \"#utility.yul\":15025:15067   */\n      tag_538\n        /* \"#utility.yul\":15063:15066   */\n      dup5\n        /* \"#utility.yul\":15053:15061   */\n      dup5\n        /* \"#utility.yul\":15047:15051   */\n      dup5\n        /* \"#utility.yul\":15044:15045   */\n      0x01\n        /* \"#utility.yul\":15025:15067   */\n      tag_374\n      jump\t// in\n    tag_538:\n        /* \"#utility.yul\":15010:15067   */\n      swap3\n      pop\n      swap1\n      pop\n        /* \"#utility.yul\":15099:15103   */\n      dup2\n        /* \"#utility.yul\":15094:15097   */\n      dup5\n        /* \"#utility.yul\":15090:15104   */\n      div\n        /* \"#utility.yul\":15083:15088   */\n      dup2\n        /* \"#utility.yul\":15080:15105   */\n      gt\n        /* \"#utility.yul\":15077:15128   */\n      iszero\n      tag_539\n      jumpi\n        /* \"#utility.yul\":15108:15126   */\n      tag_540\n      tag_372\n      jump\t// in\n    tag_540:\n        /* \"#utility.yul\":15077:15128   */\n    tag_539:\n        /* \"#utility.yul\":15157:15161   */\n      dup2\n        /* \"#utility.yul\":15150:15155   */\n      dup2\n        /* \"#utility.yul\":15146:15162   */\n      mul\n        /* \"#utility.yul\":15137:15162   */\n      swap1\n      pop\n        /* \"#utility.yul\":14095:15168   */\n    tag_525:\n      swap4\n      swap3\n      pop\n      pop\n      pop\n      jump\t// out\n        /* \"#utility.yul\":15174:15459   */\n    tag_136:\n        /* \"#utility.yul\":15234:15239   */\n      0x00\n        /* \"#utility.yul\":15258:15281   */\n      tag_542\n        /* \"#utility.yul\":15276:15280   */\n      dup3\n        /* \"#utility.yul\":15258:15281   */\n      tag_347\n      jump\t// in\n    tag_542:\n        /* \"#utility.yul\":15250:15281   */\n      swap2\n      pop\n        /* \"#utility.yul\":15302:15329   */\n      tag_543\n        /* \"#utility.yul\":15320:15328   */\n      dup4\n        /* \"#utility.yul\":15302:15329   */\n      tag_347\n      jump\t// in\n    tag_543:\n        /* \"#utility.yul\":15290:15329   */\n      swap3\n      pop\n        /* \"#utility.yul\":15348:15452   */\n      tag_544\n        /* \"#utility.yul\":15385:15451   */\n      0xffffffffffffffffffffffffffffffffffffffffffffffffffffffffffffffff\n        /* \"#utility.yul\":15375:15383   */\n      dup5\n        /* \"#utility.yul\":15369:15373   */\n      dup5\n        /* \"#utility.yul\":15348:15452   */\n      tag_375\n      jump\t// in\n    tag_544:\n        /* \"#utility.yul\":15339:15452   */\n      swap1\n      pop\n        /* \"#utility.yul\":15174:15459   */\n      swap3\n      swap2\n      pop\n      pop\n      jump\t// out\n        /* \"#utility.yul\":15465:15875   */\n    tag_138:\n        /* \"#utility.yul\":15505:15512   */\n      0x00\n        /* \"#utility.yul\":15528:15548   */\n      tag_546\n        /* \"#utility.yul\":15546:15547   */\n      dup3\n        /* \"#utility.yul\":15528:15548   */\n      tag_347\n      jump\t// in\n    tag_546:\n        /* \"#utility.yul\":15523:15548   */\n      swap2\n      pop\n        /* \"#utility.yul\":15562:15582   */\n      tag_547\n        /* \"#utility.yul\":15580:15581   */\n      dup4\n        /* \"#utility.yul\":15562:15582   */\n      tag_347\n      jump\t// in\n    tag_547:\n        /* \"#utility.yul\":15557:15582   */\n      swap3\n      pop\n        /* \"#utility.yul\":15617:15618   */\n      dup3\n        /* \"#utility.yul\":15614:15615   */\n      dup3\n        /* \"#utility.yul\":15610:15619   */\n      mul\n        /* \"#utility.yul\":15639:15669   */\n      tag_548\n        /* \"#utility.yul\":15657:15668   */\n      dup2\n        /* \"#utility.yul\":15639:15669   */\n      tag_347\n      jump\t// in\n    tag_548:\n        /* \"#utility.yul\":15628:15669   */\n      swap2\n      pop\n        /* \"#utility.yul\":15818:15819   */\n      dup3\n        /* \"#utility.yul\":15809:15816   */\n      dup3\n        /* \"#utility.yul\":15805:15820   */\n      div\n        /* \"#utility.yul\":15802:15803   */\n      dup5\n        /* \"#utility.yul\":15799:15821   */\n      eq\n        /* \"#utility.yul\":15779:15780   */\n      dup4\n        /* \"#utility.yul\":15772:15781   */\n      iszero\n        /* \"#utility.yul\":15752:15835   */\n      or\n        /* \"#utility.yul\":15729:15868   */\n      tag_549\n      jumpi\n        /* \"#utility.yul\":15848:15866   */\n      tag_550\n      tag_372\n      jump\t// in\n    tag_550:\n        /* \"#utility.yul\":15729:15868   */\n    tag_549:\n        /* \"#utility.yul\":15513:15875   */\n      pop\n        /* \"#utility.yul\":15465:15875   */\n      swap3\n      swap2\n      pop\n      pop\n      jump\t// out\n        /* \"#utility.yul\":15881:16061   */\n    tag_164:\n        /* \"#utility.yul\":15929:16006   */\n      0x4e487b7100000000000000000000000000000000000000000000000000000000\n        /* \"#utility.yul\":15926:15927   */\n      0x00\n        /* \"#utility.yul\":15919:16007   */\n      mstore\n        /* \"#utility.yul\":16026:16030   */\n      0x41\n        /* \"#utility.yul\":16023:16024   */\n      0x04\n        /* \"#utility.yul\":16016:16031   */\n      mstore\n        /* \"#utility.yul\":16050:16054   */\n      0x24\n        /* \"#utility.yul\":16047:16048   */\n      0x00\n        /* \"#utility.yul\":16040:16055   */\n      revert\n        /* \"#utility.yul\":16067:16842   */\n    tag_191:\n        /* \"#utility.yul\":16300:16304   */\n      0x00\n        /* \"#utility.yul\":16338:16341   */\n      0xc0\n        /* \"#utility.yul\":16327:16336   */\n      dup3\n        /* \"#utility.yul\":16323:16342   */\n      add\n        /* \"#utility.yul\":16315:16342   */\n      swap1\n      pop\n        /* \"#utility.yul\":16352:16423   */\n      tag_553\n        /* \"#utility.yul\":16420:16421   */\n      0x00\n        /* \"#utility.yul\":16409:16418   */\n      dup4\n        /* \"#utility.yul\":16405:16422   */\n      add\n        /* \"#utility.yul\":16396:16402   */\n      dup10\n        /* \"#utility.yul\":16352:16423   */\n      tag_356\n      jump\t// in\n    tag_553:\n        /* \"#utility.yul\":16433:16505   */\n      tag_554\n        /* \"#utility.yul\":16501:16503   */\n      0x20\n        /* \"#utility.yul\":16490:16499   */\n      dup4\n        /* \"#utility.yul\":16486:16504   */\n      add\n        /* \"#utility.yul\":16477:16483   */\n      dup9\n        /* \"#utility.yul\":16433:16505   */\n      tag_359\n      jump\t// in\n    tag_554:\n        /* \"#utility.yul\":16515:16587   */\n      tag_555\n        /* \"#utility.yul\":16583:16585   */\n      0x40\n        /* \"#utility.yul\":16572:16581   */\n      dup4\n        /* \"#utility.yul\":16568:16586   */\n      add\n        /* \"#utility.yul\":16559:16565   */\n      dup8\n        /* \"#utility.yul\":16515:16587   */\n      tag_359\n      jump\t// in\n    tag_555:\n        /* \"#utility.yul\":16597:16669   */\n      tag_556\n        /* \"#utility.yul\":16665:16667   */\n      0x60\n        /* \"#utility.yul\":16654:16663   */\n      dup4\n        /* \"#utility.yul\":16650:16668   */\n      add\n        /* \"#utility.yul\":16641:16647   */\n      dup7\n        /* \"#utility.yul\":16597:16669   */\n      tag_352\n      jump\t// in\n    tag_556:\n        /* \"#utility.yul\":16679:16752   */\n      tag_557\n        /* \"#utility.yul\":16747:16750   */\n      0x80\n        /* \"#utility.yul\":16736:16745   */\n      dup4\n        /* \"#utility.yul\":16732:16751   */\n      add\n        /* \"#utility.yul\":16723:16729   */\n      dup6\n        /* \"#utility.yul\":16679:16752   */\n      tag_352\n      jump\t// in\n    tag_557:\n        /* \"#utility.yul\":16762:16835   */\n      tag_558\n        /* \"#utility.yul\":16830:16833   */\n      0xa0\n        /* \"#utility.yul\":16819:16828   */\n      dup4\n        /* \"#utility.yul\":16815:16834   */\n      add\n        /* \"#utility.yul\":16806:16812   */\n      dup5\n        /* \"#utility.yul\":16762:16835   */\n      tag_352\n      jump\t// in\n    tag_558:\n        /* \"#utility.yul\":16067:16842   */\n      swap8\n      swap7\n      pop\n      pop\n      pop\n      pop\n      pop\n      pop\n      pop\n      jump\t// out\n        /* \"#utility.yul\":16848:17180   */\n    tag_198:\n        /* \"#utility.yul\":16969:16973   */\n      0x00\n        /* \"#utility.yul\":17007:17009   */\n      0x40\n        /* \"#utility.yul\":16996:17005   */\n      dup3\n        /* \"#utility.yul\":16992:17010   */\n      add\n        /* \"#utility.yul\":16984:17010   */\n      swap1\n      pop\n        /* \"#utility.yul\":17020:17091   */\n      tag_560\n        /* \"#utility.yul\":17088:17089   */\n      0x00\n        /* \"#utility.yul\":17077:17086   */\n      dup4\n        /* \"#utility.yul\":17073:17090   */\n      add\n        /* \"#utility.yul\":17064:17070   */\n      dup6\n        /* \"#utility.yul\":17020:17091   */\n      tag_359\n      jump\t// in\n    tag_560:\n        /* \"#utility.yul\":17101:17173   */\n      tag_561\n        /* \"#utility.yul\":17169:17171   */\n      0x20\n        /* \"#utility.yul\":17158:17167   */\n      dup4\n        /* \"#utility.yul\":17154:17172   */\n      add\n        /* \"#utility.yul\":17145:17151   */\n      dup5\n        /* \"#utility.yul\":17101:17173   */\n      tag_359\n      jump\t// in\n    tag_561:\n        /* \"#utility.yul\":16848:17180   */\n      swap4\n      swap3\n      pop\n      pop\n      pop\n      jump\t// out\n        /* \"#utility.yul\":17186:17628   */\n    tag_216:\n        /* \"#utility.yul\":17335:17339   */\n      0x00\n        /* \"#utility.yul\":17373:17375   */\n      0x60\n        /* \"#utility.yul\":17362:17371   */\n      dup3\n        /* \"#utility.yul\":17358:17376   */\n      add\n        /* \"#utility.yul\":17350:17376   */\n      swap1\n      pop\n        /* \"#utility.yul\":17386:17457   */\n      tag_563\n        /* \"#utility.yul\":17454:17455   */\n      0x00\n        /* \"#utility.yul\":17443:17452   */\n      dup4\n        /* \"#utility.yul\":17439:17456   */\n      add\n        /* \"#utility.yul\":17430:17436   */\n      dup7\n        /* \"#utility.yul\":17386:17457   */\n      tag_359\n      jump\t// in\n    tag_563:\n        /* \"#utility.yul\":17467:17539   */\n      tag_564\n        /* \"#utility.yul\":17535:17537   */\n      0x20\n        /* \"#utility.yul\":17524:17533   */\n      dup4\n        /* \"#utility.yul\":17520:17538   */\n      add\n        /* \"#utility.yul\":17511:17517   */\n      dup6\n        /* \"#utility.yul\":17467:17539   */\n      tag_352\n      jump\t// in\n    tag_564:\n        /* \"#utility.yul\":17549:17621   */\n      tag_565\n        /* \"#utility.yul\":17617:17619   */\n      0x40\n        /* \"#utility.yul\":17606:17615   */\n      dup4\n        /* \"#utility.yul\":17602:17620   */\n      add\n        /* \"#utility.yul\":17593:17599   */\n      dup5\n        /* \"#utility.yul\":17549:17621   */\n      tag_352\n      jump\t// in\n    tag_565:\n        /* \"#utility.yul\":17186:17628   */\n      swap5\n      swap4\n      pop\n      pop\n      pop\n      pop\n      jump\t// out\n        /* \"#utility.yul\":17634:17825   */\n    tag_272:\n        /* \"#utility.yul\":17674:17677   */\n      0x00\n        /* \"#utility.yul\":17693:17713   */\n      tag_567\n        /* \"#utility.yul\":17711:17712   */\n      dup3\n        /* \"#utility.yul\":17693:17713   */\n      tag_347\n      jump\t// in\n    tag_567:\n        /* \"#utility.yul\":17688:17713   */\n      swap2\n      pop\n        /* \"#utility.yul\":17727:17747   */\n      tag_568\n        /* \"#utility.yul\":17745:17746   */\n      dup4\n        /* \"#utility.yul\":17727:17747   */\n      tag_347\n      jump\t// in\n    tag_568:\n        /* \"#utility.yul\":17722:17747   */\n      swap3\n      pop\n        /* \"#utility.yul\":17770:17771   */\n      dup3\n        /* \"#utility.yul\":17767:17768   */\n      dup3\n        /* \"#utility.yul\":17763:17772   */\n      add\n        /* \"#utility.yul\":17756:17772   */\n      swap1\n      pop\n        /* \"#utility.yul\":17791:17794   */\n      dup1\n        /* \"#utility.yul\":17788:17789   */\n      dup3\n        /* \"#utility.yul\":17785:17795   */\n      gt\n        /* \"#utility.yul\":17782:17818   */\n      iszero\n      tag_569\n      jumpi\n        /* \"#utility.yul\":17798:17816   */\n      tag_570\n      tag_372\n      jump\t// in\n    tag_570:\n        /* \"#utility.yul\":17782:17818   */\n    tag_569:\n        /* \"#utility.yul\":17634:17825   */\n      swap3\n      swap2\n      pop\n      pop\n      jump\t// out\n        /* \"#utility.yul\":17831:18495   */\n    tag_281:\n        /* \"#utility.yul\":18036:18040   */\n      0x00\n        /* \"#utility.yul\":18074:18077   */\n      0xa0\n        /* \"#utility.yul\":18063:18072   */\n      dup3\n        /* \"#utility.yul\":18059:18078   */\n      add\n        /* \"#utility.yul\":18051:18078   */\n      swap1\n      pop\n        /* \"#utility.yul\":18088:18159   */\n      tag_572\n        /* \"#utility.yul\":18156:18157   */\n      0x00\n        /* \"#utility.yul\":18145:18154   */\n      dup4\n        /* \"#utility.yul\":18141:18158   */\n      add\n        /* \"#utility.yul\":18132:18138   */\n      dup9\n        /* \"#utility.yul\":18088:18159   */\n      tag_356\n      jump\t// in\n    tag_572:\n        /* \"#utility.yul\":18169:18241   */\n      tag_573\n        /* \"#utility.yul\":18237:18239   */\n      0x20\n        /* \"#utility.yul\":18226:18235   */\n      dup4\n        /* \"#utility.yul\":18222:18240   */\n      add\n        /* \"#utility.yul\":18213:18219   */\n      dup8\n        /* \"#utility.yul\":18169:18241   */\n      tag_356\n      jump\t// in\n    tag_573:\n        /* \"#utility.yul\":18251:18323   */\n      tag_574\n        /* \"#utility.yul\":18319:18321   */\n      0x40\n        /* \"#utility.yul\":18308:18317   */\n      dup4\n        /* \"#utility.yul\":18304:18322   */\n      add\n        /* \"#utility.yul\":18295:18301   */\n      dup7\n        /* \"#utility.yul\":18251:18323   */\n      tag_356\n      jump\t// in\n    tag_574:\n        /* \"#utility.yul\":18333:18405   */\n      tag_575\n        /* \"#utility.yul\":18401:18403   */\n      0x60\n        /* \"#utility.yul\":18390:18399   */\n      dup4\n        /* \"#utility.yul\":18386:18404   */\n      add\n        /* \"#utility.yul\":18377:18383   */\n      dup6\n        /* \"#utility.yul\":18333:18405   */\n      tag_352\n      jump\t// in\n    tag_575:\n        /* \"#utility.yul\":18415:18488   */\n      tag_576\n        /* \"#utility.yul\":18483:18486   */\n      0x80\n        /* \"#utility.yul\":18472:18481   */\n      dup4\n        /* \"#utility.yul\":18468:18487   */\n      add\n        /* \"#utility.yul\":18459:18465   */\n      dup5\n        /* \"#utility.yul\":18415:18488   */\n      tag_359\n      jump\t// in\n    tag_576:\n        /* \"#utility.yul\":17831:18495   */\n      swap7\n      swap6\n      pop\n      pop\n      pop\n      pop\n      pop\n      pop\n      jump\t// out\n        /* \"#utility.yul\":18501:19046   */\n    tag_296:\n        /* \"#utility.yul\":18674:18678   */\n      0x00\n        /* \"#utility.yul\":18712:18715   */\n      0x80\n        /* \"#utility.yul\":18701:18710   */\n      dup3\n        /* \"#utility.yul\":18697:18716   */\n      add\n        /* \"#utility.yul\":18689:18716   */\n      swap1\n      pop\n        /* \"#utility.yul\":18726:18797   */\n      tag_578\n        /* \"#utility.yul\":18794:18795   */\n      0x00\n        /* \"#utility.yul\":18783:18792   */\n      dup4\n        /* \"#utility.yul\":18779:18796   */\n      add\n        /* \"#utility.yul\":18770:18776   */\n      dup8\n        /* \"#utility.yul\":18726:18797   */\n      tag_356\n      jump\t// in\n    tag_578:\n        /* \"#utility.yul\":18807:18875   */\n      tag_579\n        /* \"#utility.yul\":18871:18873   */\n      0x20\n        /* \"#utility.yul\":18860:18869   */\n      dup4\n        /* \"#utility.yul\":18856:18874   */\n      add\n        /* \"#utility.yul\":18847:18853   */\n      dup7\n        /* \"#utility.yul\":18807:18875   */\n      tag_354\n      jump\t// in\n    tag_579:\n        /* \"#utility.yul\":18885:18957   */\n      tag_580\n        /* \"#utility.yul\":18953:18955   */\n      0x40\n        /* \"#utility.yul\":18942:18951   */\n      dup4\n        /* \"#utility.yul\":18938:18956   */\n      add\n        /* \"#utility.yul\":18929:18935   */\n      dup6\n        /* \"#utility.yul\":18885:18957   */\n      tag_356\n      jump\t// in\n    tag_580:\n        /* \"#utility.yul\":18967:19039   */\n      tag_581\n        /* \"#utility.yul\":19035:19037   */\n      0x60\n        /* \"#utility.yul\":19024:19033   */\n      dup4\n        /* \"#utility.yul\":19020:19038   */\n      add\n        /* \"#utility.yul\":19011:19017   */\n      dup5\n        /* \"#utility.yul\":18967:19039   */\n      tag_356\n      jump\t// in\n    tag_581:\n        /* \"#utility.yul\":18501:19046   */\n      swap6\n      swap5\n      pop\n      pop\n      pop\n      pop\n      pop\n      jump\t// out\n        /* \"#utility.yul\":19052:19232   */\n    tag_303:\n        /* \"#utility.yul\":19100:19177   */\n      0x4e487b7100000000000000000000000000000000000000000000000000000000\n        /* \"#utility.yul\":19097:19098   */\n      0x00\n        /* \"#utility.yul\":19090:19178   */\n      mstore\n        /* \"#utility.yul\":19197:19201   */\n      0x21\n        /* \"#utility.yul\":19194:19195   */\n      0x04\n        /* \"#utility.yul\":19187:19202   */\n      mstore\n        /* \"#utility.yul\":19221:19225   */\n      0x24\n        /* \"#utility.yul\":19218:19219   */\n      0x00\n        /* \"#utility.yul\":19211:19226   */\n      revert\n\n    auxdata: 0xa2646970667358221220b05360c70e06311116f33f330c5fa498e30447712803888829cd72c6f80839e864736f6c63430008180033\n}\n",
				"bytecode": {
					"linkReferences": {},
					"object": "61016060405234801562000011575f80fd5b5060405162002d3938038062002d398339818101604052810190620000379190620004c0565b6040518060400160405280601281526020017f50617274696369706174696f6e546f6b656e0000000000000000000000000000815250806040518060400160405280600181526020017f3100000000000000000000000000000000000000000000000000000000000000815250836040518060400160405280601281526020017f50617274696369706174696f6e546f6b656e00000000000000000000000000008152506040518060400160405280600381526020017f50544b0000000000000000000000000000000000000000000000000000000000815250816003908162000122919062000754565b50806004908162000134919062000754565b5050505f73ffffffffffffffffffffffffffffffffffffffff168173ffffffffffffffffffffffffffffffffffffffff1603620001aa575f6040517f1e4fbdf7000000000000000000000000000000000000000000000000000000008152600401620001a1919062000849565b60405180910390fd5b620001bb816200027460201b60201c565b50620001d26006836200033760201b90919060201c565b6101208181525050620001f06007826200033760201b90919060201c565b6101408181525050818051906020012060e08181525050808051906020012061010081815250504660a081815250506200022f6200038c60201b60201c565b608081815250503073ffffffffffffffffffffffffffffffffffffffff1660c08173ffffffffffffffffffffffffffffffffffffffff16815250505050505062000a34565b5f60055f9054906101000a900473ffffffffffffffffffffffffffffffffffffffff1690508160055f6101000a81548173ffffffffffffffffffffffffffffffffffffffff021916908373ffffffffffffffffffffffffffffffffffffffff1602179055508173ffffffffffffffffffffffffffffffffffffffff168173ffffffffffffffffffffffffffffffffffffffff167f8be0079c531659141344cd1fd0a4f28419497f9722a3daafe3b4186f6b6457e060405160405180910390a35050565b5f6020835110156200035c576200035483620003e860201b60201c565b905062000386565b826200036e836200045260201b60201c565b5f0190816200037e919062000754565b5060ff5f1b90505b92915050565b5f7f8b73c3c69bb8fe3d512ecc4cf759cc79239f7b179b0ffacaa9a75d522b39400f60e051610100514630604051602001620003cd9594939291906200088f565b60405160208183030381529060405280519060200120905090565b5f80829050601f815111156200043757826040517f305a27a90000000000000000000000000000000000000000000000000000000081526004016200042e919062000974565b60405180910390fd5b8051816200044590620009c5565b5f1c175f1b915050919050565b5f819050919050565b5f80fd5b5f73ffffffffffffffffffffffffffffffffffffffff82169050919050565b5f6200048a826200045f565b9050919050565b6200049c816200047e565b8114620004a7575f80fd5b50565b5f81519050620004ba8162000491565b92915050565b5f60208284031215620004d857620004d76200045b565b5b5f620004e784828501620004aa565b91505092915050565b5f81519050919050565b7f4e487b71000000000000000000000000000000000000000000000000000000005f52604160045260245ffd5b7f4e487b71000000000000000000000000000000000000000000000000000000005f52602260045260245ffd5b5f60028204905060018216806200056c57607f821691505b60208210810362000582576200058162000527565b5b50919050565b5f819050815f5260205f209050919050565b5f6020601f8301049050919050565b5f82821b905092915050565b5f60088302620005e67fffffffffffffffffffffffffffffffffffffffffffffffffffffffffffffffff82620005a9565b620005f28683620005a9565b95508019841693508086168417925050509392505050565b5f819050919050565b5f819050919050565b5f6200063c6200063662000630846200060a565b62000613565b6200060a565b9050919050565b5f819050919050565b62000657836200061c565b6200066f620006668262000643565b848454620005b5565b825550505050565b5f90565b6200068562000677565b620006928184846200064c565b505050565b5b81811015620006b957620006ad5f826200067b565b60018101905062000698565b5050565b601f8211156200070857620006d28162000588565b620006dd846200059a565b81016020851015620006ed578190505b62000705620006fc856200059a565b83018262000697565b50505b505050565b5f82821c905092915050565b5f6200072a5f19846008026200070d565b1980831691505092915050565b5f62000744838362000719565b9150826002028217905092915050565b6200075f82620004f0565b67ffffffffffffffff8111156200077b576200077a620004fa565b5b62000787825462000554565b62000794828285620006bd565b5f60209050601f831160018114620007ca575f8415620007b5578287015190505b620007c1858262000737565b86555062000830565b601f198416620007da8662000588565b5f5b828110156200080357848901518255600182019150602085019450602081019050620007dc565b868310156200082357848901516200081f601f89168262000719565b8355505b6001600288020188555050505b505050505050565b62000843816200047e565b82525050565b5f6020820190506200085e5f83018462000838565b92915050565b5f819050919050565b620008788162000864565b82525050565b62000889816200060a565b82525050565b5f60a082019050620008a45f8301886200086d565b620008b360208301876200086d565b620008c260408301866200086d565b620008d160608301856200087e565b620008e0608083018462000838565b9695505050505050565b5f82825260208201905092915050565b5f5b8381101562000919578082015181840152602081019050620008fc565b5f8484015250505050565b5f601f19601f8301169050919050565b5f6200094082620004f0565b6200094c8185620008ea565b93506200095e818560208601620008fa565b620009698162000924565b840191505092915050565b5f6020820190508181035f8301526200098e818462000934565b905092915050565b5f81519050919050565b5f819050602082019050919050565b5f620009bc825162000864565b80915050919050565b5f620009d18262000996565b82620009dd84620009a0565b9050620009ea81620009af565b9250602082101562000a2d5762000a287fffffffffffffffffffffffffffffffffffffffffffffffffffffffffffffffff83602003600802620005a9565b831692505b5050919050565b60805160a05160c05160e0516101005161012051610140516122b362000a865f395f610f1101525f610ed601525f61140a01525f6113e901525f610b8c01525f610be201525f610c0b01526122b35ff3fe608060405234801561000f575f80fd5b506004361061012a575f3560e01c806379cc6790116100ab578063a9059cbb1161006f578063a9059cbb14610324578063abd81ca214610354578063d505accf14610384578063dd62ed3e146103a0578063f2fde38b146103d05761012a565b806379cc6790146102785780637ecebe001461029457806384b0196e146102c45780638da5cb5b146102e857806395d89b41146103065761012a565b80633644e515116100f25780633644e515146101e857806340c10f191461020657806342966c681461022257806370a082311461023e578063715018a61461026e5761012a565b806306fdde031461012e578063095ea7b31461014c57806318160ddd1461017c57806323b872dd1461019a578063313ce567146101ca575b5f80fd5b6101366103ec565b60405161014391906118da565b60405180910390f35b6101666004803603810190610161919061198b565b61047c565b60405161017391906119e3565b60405180910390f35b61018461049e565b6040516101919190611a0b565b60405180910390f35b6101b460048036038101906101af9190611a24565b6104a7565b6040516101c191906119e3565b60405180910390f35b6101d26104d5565b6040516101df9190611a8f565b60405180910390f35b6101f06104dd565b6040516101fd9190611ac0565b60405180910390f35b610220600480360381019061021b919061198b565b6104eb565b005b61023c60048036038101906102379190611ad9565b610522565b005b61025860048036038101906102539190611b04565b610536565b6040516102659190611a0b565b60405180910390f35b61027661057b565b005b610292600480360381019061028d919061198b565b61058e565b005b6102ae60048036038101906102a99190611b04565b6105ae565b6040516102bb9190611a0b565b60405180910390f35b6102cc6105bf565b6040516102df9796959493929190611c2f565b60405180910390f35b6102f0610664565b6040516102fd9190611cb1565b60405180910390f35b61030e61068c565b60405161031b91906118da565b60405180910390f35b61033e6004803603810190610339919061198b565b61071c565b60405161034b91906119e3565b60405180910390f35b61036e60048036038101906103699190611cca565b61073e565b60405161037b91906119e3565b60405180910390f35b61039e60048036038101906103999190611d82565b6107a3565b005b6103ba60048036038101906103b59190611e1f565b6108e8565b6040516103c79190611a0b565b60405180910390f35b6103ea60048036038101906103e59190611b04565b61096a565b005b6060600380546103fb90611e8a565b80601f016020809104026020016040519081016040528092919081815260200182805461042790611e8a565b80156104725780601f1061044957610100808354040283529160200191610472565b820191905f5260205f20905b81548152906001019060200180831161045557829003601f168201915b5050505050905090565b5f806104866109ee565b90506104938185856109f5565b600191505092915050565b5f600254905090565b5f806104b16109ee565b90506104be858285610a07565b6104c9858585610a99565b60019150509392505050565b5f6012905090565b5f6104e6610b89565b905090565b6104f3610c3f565b61051e826104ff6104d5565b60ff16600a61050e9190612016565b836105199190612060565b610cc6565b5050565b61053361052d6109ee565b82610d45565b50565b5f805f8373ffffffffffffffffffffffffffffffffffffffff1673ffffffffffffffffffffffffffffffffffffffff1681526020019081526020015f20549050919050565b610583610c3f565b61058c5f610dc4565b565b6105a08261059a6109ee565b83610a07565b6105aa8282610d45565b5050565b5f6105b882610e87565b9050919050565b5f6060805f805f60606105d0610ecd565b6105d8610f08565b46305f801b5f67ffffffffffffffff8111156105f7576105f66120a1565b5b6040519080825280602002602001820160405280156106255781602001602082028036833780820191505090505b507f0f00000000000000000000000000000000000000000000000000000000000000959493929190965096509650965096509650965090919293949596565b5f60055f9054906101000a900473ffffffffffffffffffffffffffffffffffffffff16905090565b60606004805461069b90611e8a565b80601f01602080910402602001604051908101604052809291908181526020018280546106c790611e8a565b80156107125780601f106106e957610100808354040283529160200191610712565b820191905f5260205f20905b8154815290600101906020018083116106f557829003601f168201915b5050505050905090565b5f806107266109ee565b9050610733818585610a99565b600191505092915050565b5f61076b828661074c6104d5565b60ff16600a61075b9190612016565b866107669190612060565b610a07565b61079785856107786104d5565b60ff16600a6107879190612016565b866107929190612060565b610a99565b60019050949350505050565b834211156107e857836040517f627913020000000000000000000000000000000000000000000000000000000081526004016107df9190611a0b565b60405180910390fd5b5f7f6e71edae12b1b97f4d1f60370fef10105fa2faae0126114a169c64845d6126c98888886108168c610f43565b8960405160200161082c969594939291906120ce565b6040516020818303038152906040528051906020012090505f61084e82610f96565b90505f61085d82878787610faf565b90508973ffffffffffffffffffffffffffffffffffffffff168173ffffffffffffffffffffffffffffffffffffffff16146108d157808a6040517f4b800e460000000000000000000000000000000000000000000000000000000081526004016108c892919061212d565b60405180910390fd5b6108dc8a8a8a6109f5565b50505050505050505050565b5f60015f8473ffffffffffffffffffffffffffffffffffffffff1673ffffffffffffffffffffffffffffffffffffffff1681526020019081526020015f205f8373ffffffffffffffffffffffffffffffffffffffff1673ffffffffffffffffffffffffffffffffffffffff1681526020019081526020015f2054905092915050565b610972610c3f565b5f73ffffffffffffffffffffffffffffffffffffffff168173ffffffffffffffffffffffffffffffffffffffff16036109e2575f6040517f1e4fbdf70000000000000000000000000000000000000000000000000000000081526004016109d99190611cb1565b60405180910390fd5b6109eb81610dc4565b50565b5f33905090565b610a028383836001610fdd565b505050565b5f610a1284846108e8565b90507fffffffffffffffffffffffffffffffffffffffffffffffffffffffffffffffff8114610a935781811015610a84578281836040517ffb8f41b2000000000000000000000000000000000000000000000000000000008152600401610a7b93929190612154565b60405180910390fd5b610a9284848484035f610fdd565b5b50505050565b5f73ffffffffffffffffffffffffffffffffffffffff168373ffffffffffffffffffffffffffffffffffffffff1603610b09575f6040517f96c6fd1e000000000000000000000000000000000000000000000000000000008152600401610b009190611cb1565b60405180910390fd5b5f73ffffffffffffffffffffffffffffffffffffffff168273ffffffffffffffffffffffffffffffffffffffff1603610b79575f6040517fec442f05000000000000000000000000000000000000000000000000000000008152600401610b709190611cb1565b60405180910390fd5b610b848383836111ac565b505050565b5f7f000000000000000000000000000000000000000000000000000000000000000073ffffffffffffffffffffffffffffffffffffffff163073ffffffffffffffffffffffffffffffffffffffff16148015610c0457507f000000000000000000000000000000000000000000000000000000000000000046145b15610c31577f00000000000000000000000000000000000000000000000000000000000000009050610c3c565b610c396113c5565b90505b90565b610c476109ee565b73ffffffffffffffffffffffffffffffffffffffff16610c65610664565b73ffffffffffffffffffffffffffffffffffffffff1614610cc457610c886109ee565b6040517f118cdaa7000000000000000000000000000000000000000000000000000000008152600401610cbb9190611cb1565b60405180910390fd5b565b5f73ffffffffffffffffffffffffffffffffffffffff168273ffffffffffffffffffffffffffffffffffffffff1603610d36575f6040517fec442f05000000000000000000000000000000000000000000000000000000008152600401610d2d9190611cb1565b60405180910390fd5b610d415f83836111ac565b5050565b5f73ffffffffffffffffffffffffffffffffffffffff168273ffffffffffffffffffffffffffffffffffffffff1603610db5575f6040517f96c6fd1e000000000000000000000000000000000000000000000000000000008152600401610dac9190611cb1565b60405180910390fd5b610dc0825f836111ac565b5050565b5f60055f9054906101000a900473ffffffffffffffffffffffffffffffffffffffff1690508160055f6101000a81548173ffffffffffffffffffffffffffffffffffffffff021916908373ffffffffffffffffffffffffffffffffffffffff1602179055508173ffffffffffffffffffffffffffffffffffffffff168173ffffffffffffffffffffffffffffffffffffffff167f8be0079c531659141344cd1fd0a4f28419497f9722a3daafe3b4186f6b6457e060405160405180910390a35050565b5f60085f8373ffffffffffffffffffffffffffffffffffffffff1673ffffffffffffffffffffffffffffffffffffffff1681526020019081526020015f20549050919050565b6060610f0360067f000000000000000000000000000000000000000000000000000000000000000061145a90919063ffffffff16565b905090565b6060610f3e60077f000000000000000000000000000000000000000000000000000000000000000061145a90919063ffffffff16565b905090565b5f60085f8373ffffffffffffffffffffffffffffffffffffffff1673ffffffffffffffffffffffffffffffffffffffff1681526020019081526020015f205f815480929190600101919050559050919050565b5f610fa8610fa2610b89565b83611507565b9050919050565b5f805f80610fbf88888888611547565b925092509250610fcf828261162e565b829350505050949350505050565b5f73ffffffffffffffffffffffffffffffffffffffff168473ffffffffffffffffffffffffffffffffffffffff160361104d575f6040517fe602df050000000000000000000000000000000000000000000000000000000081526004016110449190611cb1565b60405180910390fd5b5f73ffffffffffffffffffffffffffffffffffffffff168373ffffffffffffffffffffffffffffffffffffffff16036110bd575f6040517f94280d620000000000000000000000000000000000000000000000000000000081526004016110b49190611cb1565b60405180910390fd5b8160015f8673ffffffffffffffffffffffffffffffffffffffff1673ffffffffffffffffffffffffffffffffffffffff1681526020019081526020015f205f8573ffffffffffffffffffffffffffffffffffffffff1673ffffffffffffffffffffffffffffffffffffffff1681526020019081526020015f208190555080156111a6578273ffffffffffffffffffffffffffffffffffffffff168473ffffffffffffffffffffffffffffffffffffffff167f8c5be1e5ebec7d5bd14f71427d1e84f3dd0314c0f7b2291e5b200ac8c7c3b9258460405161119d9190611a0b565b60405180910390a35b50505050565b5f73ffffffffffffffffffffffffffffffffffffffff168373ffffffffffffffffffffffffffffffffffffffff16036111fc578060025f8282546111f09190612189565b925050819055506112ca565b5f805f8573ffffffffffffffffffffffffffffffffffffffff1673ffffffffffffffffffffffffffffffffffffffff1681526020019081526020015f2054905081811015611285578381836040517fe450d38c00000000000000000000000000000000000000000000000000000000815260040161127c93929190612154565b60405180910390fd5b8181035f808673ffffffffffffffffffffffffffffffffffffffff1673ffffffffffffffffffffffffffffffffffffffff1681526020019081526020015f2081905550505b5f73ffffffffffffffffffffffffffffffffffffffff168273ffffffffffffffffffffffffffffffffffffffff1603611311578060025f828254039250508190555061135b565b805f808473ffffffffffffffffffffffffffffffffffffffff1673ffffffffffffffffffffffffffffffffffffffff1681526020019081526020015f205f82825401925050819055505b8173ffffffffffffffffffffffffffffffffffffffff168373ffffffffffffffffffffffffffffffffffffffff167fddf252ad1be2c89b69c2b068fc378daa952ba7f163c4a11628f55a4df523b3ef836040516113b89190611a0b565b60405180910390a3505050565b5f7f8b73c3c69bb8fe3d512ecc4cf759cc79239f7b179b0ffacaa9a75d522b39400f7f00000000000000000000000000000000000000000000000000000000000000007f0000000000000000000000000000000000000000000000000000000000000000463060405160200161143f9594939291906121bc565b60405160208183030381529060405280519060200120905090565b606060ff5f1b83146114765761146f83611790565b9050611501565b81805461148290611e8a565b80601f01602080910402602001604051908101604052809291908181526020018280546114ae90611e8a565b80156114f95780601f106114d0576101008083540402835291602001916114f9565b820191905f5260205f20905b8154815290600101906020018083116114dc57829003601f168201915b505050505090505b92915050565b5f6040517f190100000000000000000000000000000000000000000000000000000000000081528360028201528260228201526042812091505092915050565b5f805f7f7fffffffffffffffffffffffffffffff5d576e7357a4501ddfe92f46681b20a0845f1c1115611583575f600385925092509250611624565b5f6001888888886040515f81526020016040526040516115a6949392919061220d565b6020604051602081039080840390855afa1580156115c6573d5f803e3d5ffd5b5050506020604051035190505f73ffffffffffffffffffffffffffffffffffffffff168173ffffffffffffffffffffffffffffffffffffffff1603611617575f60015f801b93509350935050611624565b805f805f1b935093509350505b9450945094915050565b5f600381111561164157611640612250565b5b82600381111561165457611653612250565b5b031561178c576001600381111561166e5761166d612250565b5b82600381111561168157611680612250565b5b036116b8576040517ff645eedf00000000000000000000000000000000000000000000000000000000815260040160405180910390fd5b600260038111156116cc576116cb612250565b5b8260038111156116df576116de612250565b5b0361172357805f1c6040517ffce698f700000000000000000000000000000000000000000000000000000000815260040161171a9190611a0b565b60405180910390fd5b60038081111561173657611735612250565b5b82600381111561174957611748612250565b5b0361178b57806040517fd78bce0c0000000000000000000000000000000000000000000000000000000081526004016117829190611ac0565b60405180910390fd5b5b5050565b60605f61179c83611802565b90505f602067ffffffffffffffff8111156117ba576117b96120a1565b5b6040519080825280601f01601f1916602001820160405280156117ec5781602001600182028036833780820191505090505b5090508181528360208201528092505050919050565b5f8060ff835f1c169050601f811115611847576040517fb3512b0c00000000000000000000000000000000000000000000000000000000815260040160405180910390fd5b80915050919050565b5f81519050919050565b5f82825260208201905092915050565b5f5b8381101561188757808201518184015260208101905061186c565b5f8484015250505050565b5f601f19601f8301169050919050565b5f6118ac82611850565b6118b6818561185a565b93506118c681856020860161186a565b6118cf81611892565b840191505092915050565b5f6020820190508181035f8301526118f281846118a2565b905092915050565b5f80fd5b5f73ffffffffffffffffffffffffffffffffffffffff82169050919050565b5f611927826118fe565b9050919050565b6119378161191d565b8114611941575f80fd5b50565b5f813590506119528161192e565b92915050565b5f819050919050565b61196a81611958565b8114611974575f80fd5b50565b5f8135905061198581611961565b92915050565b5f80604083850312156119a1576119a06118fa565b5b5f6119ae85828601611944565b92505060206119bf85828601611977565b9150509250929050565b5f8115159050919050565b6119dd816119c9565b82525050565b5f6020820190506119f65f8301846119d4565b92915050565b611a0581611958565b82525050565b5f602082019050611a1e5f8301846119fc565b92915050565b5f805f60608486031215611a3b57611a3a6118fa565b5b5f611a4886828701611944565b9350506020611a5986828701611944565b9250506040611a6a86828701611977565b9150509250925092565b5f60ff82169050919050565b611a8981611a74565b82525050565b5f602082019050611aa25f830184611a80565b92915050565b5f819050919050565b611aba81611aa8565b82525050565b5f602082019050611ad35f830184611ab1565b92915050565b5f60208284031215611aee57611aed6118fa565b5b5f611afb84828501611977565b91505092915050565b5f60208284031215611b1957611b186118fa565b5b5f611b2684828501611944565b91505092915050565b5f7fff0000000000000000000000000000000000000000000000000000000000000082169050919050565b611b6381611b2f565b82525050565b611b728161191d565b82525050565b5f81519050919050565b5f82825260208201905092915050565b5f819050602082019050919050565b611baa81611958565b82525050565b5f611bbb8383611ba1565b60208301905092915050565b5f602082019050919050565b5f611bdd82611b78565b611be78185611b82565b9350611bf283611b92565b805f5b83811015611c22578151611c098882611bb0565b9750611c1483611bc7565b925050600181019050611bf5565b5085935050505092915050565b5f60e082019050611c425f83018a611b5a565b8181036020830152611c5481896118a2565b90508181036040830152611c6881886118a2565b9050611c7760608301876119fc565b611c846080830186611b69565b611c9160a0830185611ab1565b81810360c0830152611ca38184611bd3565b905098975050505050505050565b5f602082019050611cc45f830184611b69565b92915050565b5f805f8060808587031215611ce257611ce16118fa565b5b5f611cef87828801611944565b9450506020611d0087828801611944565b9350506040611d1187828801611977565b9250506060611d2287828801611944565b91505092959194509250565b611d3781611a74565b8114611d41575f80fd5b50565b5f81359050611d5281611d2e565b92915050565b611d6181611aa8565b8114611d6b575f80fd5b50565b5f81359050611d7c81611d58565b92915050565b5f805f805f805f60e0888a031215611d9d57611d9c6118fa565b5b5f611daa8a828b01611944565b9750506020611dbb8a828b01611944565b9650506040611dcc8a828b01611977565b9550506060611ddd8a828b01611977565b9450506080611dee8a828b01611d44565b93505060a0611dff8a828b01611d6e565b92505060c0611e108a828b01611d6e565b91505092959891949750929550565b5f8060408385031215611e3557611e346118fa565b5b5f611e4285828601611944565b9250506020611e5385828601611944565b9150509250929050565b7f4e487b71000000000000000000000000000000000000000000000000000000005f52602260045260245ffd5b5f6002820490506001821680611ea157607f821691505b602082108103611eb457611eb3611e5d565b5b50919050565b7f4e487b71000000000000000000000000000000000000000000000000000000005f52601160045260245ffd5b5f8160011c9050919050565b5f808291508390505b6001851115611f3c57808604811115611f1857611f17611eba565b5b6001851615611f275780820291505b8081029050611f3585611ee7565b9450611efc565b94509492505050565b5f82611f54576001905061200f565b81611f61575f905061200f565b8160018114611f775760028114611f8157611fb0565b600191505061200f565b60ff841115611f9357611f92611eba565b5b8360020a915084821115611faa57611fa9611eba565b5b5061200f565b5060208310610133831016604e8410600b8410161715611fe55782820a905083811115611fe057611fdf611eba565b5b61200f565b611ff28484846001611ef3565b9250905081840481111561200957612008611eba565b5b81810290505b9392505050565b5f61202082611958565b915061202b83611958565b92506120587fffffffffffffffffffffffffffffffffffffffffffffffffffffffffffffffff8484611f45565b905092915050565b5f61206a82611958565b915061207583611958565b925082820261208381611958565b9150828204841483151761209a57612099611eba565b5b5092915050565b7f4e487b71000000000000000000000000000000000000000000000000000000005f52604160045260245ffd5b5f60c0820190506120e15f830189611ab1565b6120ee6020830188611b69565b6120fb6040830187611b69565b61210860608301866119fc565b61211560808301856119fc565b61212260a08301846119fc565b979650505050505050565b5f6040820190506121405f830185611b69565b61214d6020830184611b69565b9392505050565b5f6060820190506121675f830186611b69565b61217460208301856119fc565b61218160408301846119fc565b949350505050565b5f61219382611958565b915061219e83611958565b92508282019050808211156121b6576121b5611eba565b5b92915050565b5f60a0820190506121cf5f830188611ab1565b6121dc6020830187611ab1565b6121e96040830186611ab1565b6121f660608301856119fc565b6122036080830184611b69565b9695505050505050565b5f6080820190506122205f830187611ab1565b61222d6020830186611a80565b61223a6040830185611ab1565b6122476060830184611ab1565b95945050505050565b7f4e487b71000000000000000000000000000000000000000000000000000000005f52602160045260245ffdfea2646970667358221220b05360c70e06311116f33f330c5fa498e30447712803888829cd72c6f80839e864736f6c63430008180033",
					"opcodes": "PUSH2 0x160 PUSH1 0x40 MSTORE CALLVALUE DUP1 ISZERO PUSH3 0x11 JUMPI PUSH0 DUP1 REVERT JUMPDEST POP PUSH1 0x40 MLOAD PUSH3 0x2D39 CODESIZE SUB DUP1 PUSH3 0x2D39 DUP4 CODECOPY DUP2 DUP2 ADD PUSH1 0x40 MSTORE DUP2 ADD SWAP1 PUSH3 0x37 SWAP2 SWAP1 PUSH3 0x4C0 JUMP JUMPDEST PUSH1 0x40 MLOAD DUP1 PUSH1 0x40 ADD PUSH1 0x40 MSTORE DUP1 PUSH1 0x12 DUP2 MSTORE PUSH1 0x20 ADD PUSH32 0x50617274696369706174696F6E546F6B656E0000000000000000000000000000 DUP2 MSTORE POP DUP1 PUSH1 0x40 MLOAD DUP1 PUSH1 0x40 ADD PUSH1 0x40 MSTORE DUP1 PUSH1 0x1 DUP2 MSTORE PUSH1 0x20 ADD PUSH32 0x3100000000000000000000000000000000000000000000000000000000000000 DUP2 MSTORE POP DUP4 PUSH1 0x40 MLOAD DUP1 PUSH1 0x40 ADD PUSH1 0x40 MSTORE DUP1 PUSH1 0x12 DUP2 MSTORE PUSH1 0x20 ADD PUSH32 0x50617274696369706174696F6E546F6B656E0000000000000000000000000000 DUP2 MSTORE POP PUSH1 0x40 MLOAD DUP1 PUSH1 0x40 ADD PUSH1 0x40 MSTORE DUP1 PUSH1 0x3 DUP2 MSTORE PUSH1 0x20 ADD PUSH32 0x50544B0000000000000000000000000000000000000000000000000000000000 DUP2 MSTORE POP DUP2 PUSH1 0x3 SWAP1 DUP2 PUSH3 0x122 SWAP2 SWAP1 PUSH3 0x754 JUMP JUMPDEST POP DUP1 PUSH1 0x4 SWAP1 DUP2 PUSH3 0x134 SWAP2 SWAP1 PUSH3 0x754 JUMP JUMPDEST POP POP POP PUSH0 PUSH20 0xFFFFFFFFFFFFFFFFFFFFFFFFFFFFFFFFFFFFFFFF AND DUP2 PUSH20 0xFFFFFFFFFFFFFFFFFFFFFFFFFFFFFFFFFFFFFFFF AND SUB PUSH3 0x1AA JUMPI PUSH0 PUSH1 0x40 MLOAD PUSH32 0x1E4FBDF700000000000000000000000000000000000000000000000000000000 DUP2 MSTORE PUSH1 0x4 ADD PUSH3 0x1A1 SWAP2 SWAP1 PUSH3 0x849 JUMP JUMPDEST PUSH1 0x40 MLOAD DUP1 SWAP2 SUB SWAP1 REVERT JUMPDEST PUSH3 0x1BB DUP2 PUSH3 0x274 PUSH1 0x20 SHL PUSH1 0x20 SHR JUMP JUMPDEST POP PUSH3 0x1D2 PUSH1 0x6 DUP4 PUSH3 0x337 PUSH1 0x20 SHL SWAP1 SWAP2 SWAP1 PUSH1 0x20 SHR JUMP JUMPDEST PUSH2 0x120 DUP2 DUP2 MSTORE POP POP PUSH3 0x1F0 PUSH1 0x7 DUP3 PUSH3 0x337 PUSH1 0x20 SHL SWAP1 SWAP2 SWAP1 PUSH1 0x20 SHR JUMP JUMPDEST PUSH2 0x140 DUP2 DUP2 MSTORE POP POP DUP2 DUP1 MLOAD SWAP1 PUSH1 0x20 ADD KECCAK256 PUSH1 0xE0 DUP2 DUP2 MSTORE POP POP DUP1 DUP1 MLOAD SWAP1 PUSH1 0x20 ADD KECCAK256 PUSH2 0x100 DUP2 DUP2 MSTORE POP POP CHAINID PUSH1 0xA0 DUP2 DUP2 MSTORE POP POP PUSH3 0x22F PUSH3 0x38C PUSH1 0x20 SHL PUSH1 0x20 SHR JUMP JUMPDEST PUSH1 0x80 DUP2 DUP2 MSTORE POP POP ADDRESS PUSH20 0xFFFFFFFFFFFFFFFFFFFFFFFFFFFFFFFFFFFFFFFF AND PUSH1 0xC0 DUP2 PUSH20 0xFFFFFFFFFFFFFFFFFFFFFFFFFFFFFFFFFFFFFFFF AND DUP2 MSTORE POP POP POP POP POP POP PUSH3 0xA34 JUMP JUMPDEST PUSH0 PUSH1 0x5 PUSH0 SWAP1 SLOAD SWAP1 PUSH2 0x100 EXP SWAP1 DIV PUSH20 0xFFFFFFFFFFFFFFFFFFFFFFFFFFFFFFFFFFFFFFFF AND SWAP1 POP DUP2 PUSH1 0x5 PUSH0 PUSH2 0x100 EXP DUP2 SLOAD DUP2 PUSH20 0xFFFFFFFFFFFFFFFFFFFFFFFFFFFFFFFFFFFFFFFF MUL NOT AND SWAP1 DUP4 PUSH20 0xFFFFFFFFFFFFFFFFFFFFFFFFFFFFFFFFFFFFFFFF AND MUL OR SWAP1 SSTORE POP DUP2 PUSH20 0xFFFFFFFFFFFFFFFFFFFFFFFFFFFFFFFFFFFFFFFF AND DUP2 PUSH20 0xFFFFFFFFFFFFFFFFFFFFFFFFFFFFFFFFFFFFFFFF AND PUSH32 0x8BE0079C531659141344CD1FD0A4F28419497F9722A3DAAFE3B4186F6B6457E0 PUSH1 0x40 MLOAD PUSH1 0x40 MLOAD DUP1 SWAP2 SUB SWAP1 LOG3 POP POP JUMP JUMPDEST PUSH0 PUSH1 0x20 DUP4 MLOAD LT ISZERO PUSH3 0x35C JUMPI PUSH3 0x354 DUP4 PUSH3 0x3E8 PUSH1 0x20 SHL PUSH1 0x20 SHR JUMP JUMPDEST SWAP1 POP PUSH3 0x386 JUMP JUMPDEST DUP3 PUSH3 0x36E DUP4 PUSH3 0x452 PUSH1 0x20 SHL PUSH1 0x20 SHR JUMP JUMPDEST PUSH0 ADD SWAP1 DUP2 PUSH3 0x37E SWAP2 SWAP1 PUSH3 0x754 JUMP JUMPDEST POP PUSH1 0xFF PUSH0 SHL SWAP1 POP JUMPDEST SWAP3 SWAP2 POP POP JUMP JUMPDEST PUSH0 PUSH32 0x8B73C3C69BB8FE3D512ECC4CF759CC79239F7B179B0FFACAA9A75D522B39400F PUSH1 0xE0 MLOAD PUSH2 0x100 MLOAD CHAINID ADDRESS PUSH1 0x40 MLOAD PUSH1 0x20 ADD PUSH3 0x3CD SWAP6 SWAP5 SWAP4 SWAP3 SWAP2 SWAP1 PUSH3 0x88F JUMP JUMPDEST PUSH1 0x40 MLOAD PUSH1 0x20 DUP2 DUP4 SUB SUB DUP2 MSTORE SWAP1 PUSH1 0x40 MSTORE DUP1 MLOAD SWAP1 PUSH1 0x20 ADD KECCAK256 SWAP1 POP SWAP1 JUMP JUMPDEST PUSH0 DUP1 DUP3 SWAP1 POP PUSH1 0x1F DUP2 MLOAD GT ISZERO PUSH3 0x437 JUMPI DUP3 PUSH1 0x40 MLOAD PUSH32 0x305A27A900000000000000000000000000000000000000000000000000000000 DUP2 MSTORE PUSH1 0x4 ADD PUSH3 0x42E SWAP2 SWAP1 PUSH3 0x974 JUMP JUMPDEST PUSH1 0x40 MLOAD DUP1 SWAP2 SUB SWAP1 REVERT JUMPDEST DUP1 MLOAD DUP2 PUSH3 0x445 SWAP1 PUSH3 0x9C5 JUMP JUMPDEST PUSH0 SHR OR PUSH0 SHL SWAP2 POP POP SWAP2 SWAP1 POP JUMP JUMPDEST PUSH0 DUP2 SWAP1 POP SWAP2 SWAP1 POP JUMP JUMPDEST PUSH0 DUP1 REVERT JUMPDEST PUSH0 PUSH20 0xFFFFFFFFFFFFFFFFFFFFFFFFFFFFFFFFFFFFFFFF DUP3 AND SWAP1 POP SWAP2 SWAP1 POP JUMP JUMPDEST PUSH0 PUSH3 0x48A DUP3 PUSH3 0x45F JUMP JUMPDEST SWAP1 POP SWAP2 SWAP1 POP JUMP JUMPDEST PUSH3 0x49C DUP2 PUSH3 0x47E JUMP JUMPDEST DUP2 EQ PUSH3 0x4A7 JUMPI PUSH0 DUP1 REVERT JUMPDEST POP JUMP JUMPDEST PUSH0 DUP2 MLOAD SWAP1 POP PUSH3 0x4BA DUP2 PUSH3 0x491 JUMP JUMPDEST SWAP3 SWAP2 POP POP JUMP JUMPDEST PUSH0 PUSH1 0x20 DUP3 DUP5 SUB SLT ISZERO PUSH3 0x4D8 JUMPI PUSH3 0x4D7 PUSH3 0x45B JUMP JUMPDEST JUMPDEST PUSH0 PUSH3 0x4E7 DUP5 DUP3 DUP6 ADD PUSH3 0x4AA JUMP JUMPDEST SWAP2 POP POP SWAP3 SWAP2 POP POP JUMP JUMPDEST PUSH0 DUP2 MLOAD SWAP1 POP SWAP2 SWAP1 POP JUMP JUMPDEST PUSH32 0x4E487B7100000000000000000000000000000000000000000000000000000000 PUSH0 MSTORE PUSH1 0x41 PUSH1 0x4 MSTORE PUSH1 0x24 PUSH0 REVERT JUMPDEST PUSH32 0x4E487B7100000000000000000000000000000000000000000000000000000000 PUSH0 MSTORE PUSH1 0x22 PUSH1 0x4 MSTORE PUSH1 0x24 PUSH0 REVERT JUMPDEST PUSH0 PUSH1 0x2 DUP3 DIV SWAP1 POP PUSH1 0x1 DUP3 AND DUP1 PUSH3 0x56C JUMPI PUSH1 0x7F DUP3 AND SWAP2 POP JUMPDEST PUSH1 0x20 DUP3 LT DUP2 SUB PUSH3 0x582 JUMPI PUSH3 0x581 PUSH3 0x527 JUMP JUMPDEST JUMPDEST POP SWAP2 SWAP1 POP JUMP JUMPDEST PUSH0 DUP2 SWAP1 POP DUP2 PUSH0 MSTORE PUSH1 0x20 PUSH0 KECCAK256 SWAP1 POP SWAP2 SWAP1 POP JUMP JUMPDEST PUSH0 PUSH1 0x20 PUSH1 0x1F DUP4 ADD DIV SWAP1 POP SWAP2 SWAP1 POP JUMP JUMPDEST PUSH0 DUP3 DUP3 SHL SWAP1 POP SWAP3 SWAP2 POP POP JUMP JUMPDEST PUSH0 PUSH1 0x8 DUP4 MUL PUSH3 0x5E6 PUSH32 0xFFFFFFFFFFFFFFFFFFFFFFFFFFFFFFFFFFFFFFFFFFFFFFFFFFFFFFFFFFFFFFFF DUP3 PUSH3 0x5A9 JUMP JUMPDEST PUSH3 0x5F2 DUP7 DUP4 PUSH3 0x5A9 JUMP JUMPDEST SWAP6 POP DUP1 NOT DUP5 AND SWAP4 POP DUP1 DUP7 AND DUP5 OR SWAP3 POP POP POP SWAP4 SWAP3 POP POP POP JUMP JUMPDEST PUSH0 DUP2 SWAP1 POP SWAP2 SWAP1 POP JUMP JUMPDEST PUSH0 DUP2 SWAP1 POP SWAP2 SWAP1 POP JUMP JUMPDEST PUSH0 PUSH3 0x63C PUSH3 0x636 PUSH3 0x630 DUP5 PUSH3 0x60A JUMP JUMPDEST PUSH3 0x613 JUMP JUMPDEST PUSH3 0x60A JUMP JUMPDEST SWAP1 POP SWAP2 SWAP1 POP JUMP JUMPDEST PUSH0 DUP2 SWAP1 POP SWAP2 SWAP1 POP JUMP JUMPDEST PUSH3 0x657 DUP4 PUSH3 0x61C JUMP JUMPDEST PUSH3 0x66F PUSH3 0x666 DUP3 PUSH3 0x643 JUMP JUMPDEST DUP5 DUP5 SLOAD PUSH3 0x5B5 JUMP JUMPDEST DUP3 SSTORE POP POP POP POP JUMP JUMPDEST PUSH0 SWAP1 JUMP JUMPDEST PUSH3 0x685 PUSH3 0x677 JUMP JUMPDEST PUSH3 0x692 DUP2 DUP5 DUP5 PUSH3 0x64C JUMP JUMPDEST POP POP POP JUMP JUMPDEST JUMPDEST DUP2 DUP2 LT ISZERO PUSH3 0x6B9 JUMPI PUSH3 0x6AD PUSH0 DUP3 PUSH3 0x67B JUMP JUMPDEST PUSH1 0x1 DUP2 ADD SWAP1 POP PUSH3 0x698 JUMP JUMPDEST POP POP JUMP JUMPDEST PUSH1 0x1F DUP3 GT ISZERO PUSH3 0x708 JUMPI PUSH3 0x6D2 DUP2 PUSH3 0x588 JUMP JUMPDEST PUSH3 0x6DD DUP5 PUSH3 0x59A JUMP JUMPDEST DUP2 ADD PUSH1 0x20 DUP6 LT ISZERO PUSH3 0x6ED JUMPI DUP2 SWAP1 POP JUMPDEST PUSH3 0x705 PUSH3 0x6FC DUP6 PUSH3 0x59A JUMP JUMPDEST DUP4 ADD DUP3 PUSH3 0x697 JUMP JUMPDEST POP POP JUMPDEST POP POP POP JUMP JUMPDEST PUSH0 DUP3 DUP3 SHR SWAP1 POP SWAP3 SWAP2 POP POP JUMP JUMPDEST PUSH0 PUSH3 0x72A PUSH0 NOT DUP5 PUSH1 0x8 MUL PUSH3 0x70D JUMP JUMPDEST NOT DUP1 DUP4 AND SWAP2 POP POP SWAP3 SWAP2 POP POP JUMP JUMPDEST PUSH0 PUSH3 0x744 DUP4 DUP4 PUSH3 0x719 JUMP JUMPDEST SWAP2 POP DUP3 PUSH1 0x2 MUL DUP3 OR SWAP1 POP SWAP3 SWAP2 POP POP JUMP JUMPDEST PUSH3 0x75F DUP3 PUSH3 0x4F0 JUMP JUMPDEST PUSH8 0xFFFFFFFFFFFFFFFF DUP2 GT ISZERO PUSH3 0x77B JUMPI PUSH3 0x77A PUSH3 0x4FA JUMP JUMPDEST JUMPDEST PUSH3 0x787 DUP3 SLOAD PUSH3 0x554 JUMP JUMPDEST PUSH3 0x794 DUP3 DUP3 DUP6 PUSH3 0x6BD JUMP JUMPDEST PUSH0 PUSH1 0x20 SWAP1 POP PUSH1 0x1F DUP4 GT PUSH1 0x1 DUP2 EQ PUSH3 0x7CA JUMPI PUSH0 DUP5 ISZERO PUSH3 0x7B5 JUMPI DUP3 DUP8 ADD MLOAD SWAP1 POP JUMPDEST PUSH3 0x7C1 DUP6 DUP3 PUSH3 0x737 JUMP JUMPDEST DUP7 SSTORE POP PUSH3 0x830 JUMP JUMPDEST PUSH1 0x1F NOT DUP5 AND PUSH3 0x7DA DUP7 PUSH3 0x588 JUMP JUMPDEST PUSH0 JUMPDEST DUP3 DUP2 LT ISZERO PUSH3 0x803 JUMPI DUP5 DUP10 ADD MLOAD DUP3 SSTORE PUSH1 0x1 DUP3 ADD SWAP2 POP PUSH1 0x20 DUP6 ADD SWAP5 POP PUSH1 0x20 DUP2 ADD SWAP1 POP PUSH3 0x7DC JUMP JUMPDEST DUP7 DUP4 LT ISZERO PUSH3 0x823 JUMPI DUP5 DUP10 ADD MLOAD PUSH3 0x81F PUSH1 0x1F DUP10 AND DUP3 PUSH3 0x719 JUMP JUMPDEST DUP4 SSTORE POP JUMPDEST PUSH1 0x1 PUSH1 0x2 DUP9 MUL ADD DUP9 SSTORE POP POP POP JUMPDEST POP POP POP POP POP POP JUMP JUMPDEST PUSH3 0x843 DUP2 PUSH3 0x47E JUMP JUMPDEST DUP3 MSTORE POP POP JUMP JUMPDEST PUSH0 PUSH1 0x20 DUP3 ADD SWAP1 POP PUSH3 0x85E PUSH0 DUP4 ADD DUP5 PUSH3 0x838 JUMP JUMPDEST SWAP3 SWAP2 POP POP JUMP JUMPDEST PUSH0 DUP2 SWAP1 POP SWAP2 SWAP1 POP JUMP JUMPDEST PUSH3 0x878 DUP2 PUSH3 0x864 JUMP JUMPDEST DUP3 MSTORE POP POP JUMP JUMPDEST PUSH3 0x889 DUP2 PUSH3 0x60A JUMP JUMPDEST DUP3 MSTORE POP POP JUMP JUMPDEST PUSH0 PUSH1 0xA0 DUP3 ADD SWAP1 POP PUSH3 0x8A4 PUSH0 DUP4 ADD DUP9 PUSH3 0x86D JUMP JUMPDEST PUSH3 0x8B3 PUSH1 0x20 DUP4 ADD DUP8 PUSH3 0x86D JUMP JUMPDEST PUSH3 0x8C2 PUSH1 0x40 DUP4 ADD DUP7 PUSH3 0x86D JUMP JUMPDEST PUSH3 0x8D1 PUSH1 0x60 DUP4 ADD DUP6 PUSH3 0x87E JUMP JUMPDEST PUSH3 0x8E0 PUSH1 0x80 DUP4 ADD DUP5 PUSH3 0x838 JUMP JUMPDEST SWAP7 SWAP6 POP POP POP POP POP POP JUMP JUMPDEST PUSH0 DUP3 DUP3 MSTORE PUSH1 0x20 DUP3 ADD SWAP1 POP SWAP3 SWAP2 POP POP JUMP JUMPDEST PUSH0 JUMPDEST DUP4 DUP2 LT ISZERO PUSH3 0x919 JUMPI DUP1 DUP3 ADD MLOAD DUP2 DUP5 ADD MSTORE PUSH1 0x20 DUP2 ADD SWAP1 POP PUSH3 0x8FC JUMP JUMPDEST PUSH0 DUP5 DUP5 ADD MSTORE POP POP POP POP JUMP JUMPDEST PUSH0 PUSH1 0x1F NOT PUSH1 0x1F DUP4 ADD AND SWAP1 POP SWAP2 SWAP1 POP JUMP JUMPDEST PUSH0 PUSH3 0x940 DUP3 PUSH3 0x4F0 JUMP JUMPDEST PUSH3 0x94C DUP2 DUP6 PUSH3 0x8EA JUMP JUMPDEST SWAP4 POP PUSH3 0x95E DUP2 DUP6 PUSH1 0x20 DUP7 ADD PUSH3 0x8FA JUMP JUMPDEST PUSH3 0x969 DUP2 PUSH3 0x924 JUMP JUMPDEST DUP5 ADD SWAP2 POP POP SWAP3 SWAP2 POP POP JUMP JUMPDEST PUSH0 PUSH1 0x20 DUP3 ADD SWAP1 POP DUP2 DUP2 SUB PUSH0 DUP4 ADD MSTORE PUSH3 0x98E DUP2 DUP5 PUSH3 0x934 JUMP JUMPDEST SWAP1 POP SWAP3 SWAP2 POP POP JUMP JUMPDEST PUSH0 DUP2 MLOAD SWAP1 POP SWAP2 SWAP1 POP JUMP JUMPDEST PUSH0 DUP2 SWAP1 POP PUSH1 0x20 DUP3 ADD SWAP1 POP SWAP2 SWAP1 POP JUMP JUMPDEST PUSH0 PUSH3 0x9BC DUP3 MLOAD PUSH3 0x864 JUMP JUMPDEST DUP1 SWAP2 POP POP SWAP2 SWAP1 POP JUMP JUMPDEST PUSH0 PUSH3 0x9D1 DUP3 PUSH3 0x996 JUMP JUMPDEST DUP3 PUSH3 0x9DD DUP5 PUSH3 0x9A0 JUMP JUMPDEST SWAP1 POP PUSH3 0x9EA DUP2 PUSH3 0x9AF JUMP JUMPDEST SWAP3 POP PUSH1 0x20 DUP3 LT ISZERO PUSH3 0xA2D JUMPI PUSH3 0xA28 PUSH32 0xFFFFFFFFFFFFFFFFFFFFFFFFFFFFFFFFFFFFFFFFFFFFFFFFFFFFFFFFFFFFFFFF DUP4 PUSH1 0x20 SUB PUSH1 0x8 MUL PUSH3 0x5A9 JUMP JUMPDEST DUP4 AND SWAP3 POP JUMPDEST POP POP SWAP2 SWAP1 POP JUMP JUMPDEST PUSH1 0x80 MLOAD PUSH1 0xA0 MLOAD PUSH1 0xC0 MLOAD PUSH1 0xE0 MLOAD PUSH2 0x100 MLOAD PUSH2 0x120 MLOAD PUSH2 0x140 MLOAD PUSH2 0x22B3 PUSH3 0xA86 PUSH0 CODECOPY PUSH0 PUSH2 0xF11 ADD MSTORE PUSH0 PUSH2 0xED6 ADD MSTORE PUSH0 PUSH2 0x140A ADD MSTORE PUSH0 PUSH2 0x13E9 ADD MSTORE PUSH0 PUSH2 0xB8C ADD MSTORE PUSH0 PUSH2 0xBE2 ADD MSTORE PUSH0 PUSH2 0xC0B ADD MSTORE PUSH2 0x22B3 PUSH0 RETURN INVALID PUSH1 0x80 PUSH1 0x40 MSTORE CALLVALUE DUP1 ISZERO PUSH2 0xF JUMPI PUSH0 DUP1 REVERT JUMPDEST POP PUSH1 0x4 CALLDATASIZE LT PUSH2 0x12A JUMPI PUSH0 CALLDATALOAD PUSH1 0xE0 SHR DUP1 PUSH4 0x79CC6790 GT PUSH2 0xAB JUMPI DUP1 PUSH4 0xA9059CBB GT PUSH2 0x6F JUMPI DUP1 PUSH4 0xA9059CBB EQ PUSH2 0x324 JUMPI DUP1 PUSH4 0xABD81CA2 EQ PUSH2 0x354 JUMPI DUP1 PUSH4 0xD505ACCF EQ PUSH2 0x384 JUMPI DUP1 PUSH4 0xDD62ED3E EQ PUSH2 0x3A0 JUMPI DUP1 PUSH4 0xF2FDE38B EQ PUSH2 0x3D0 JUMPI PUSH2 0x12A JUMP JUMPDEST DUP1 PUSH4 0x79CC6790 EQ PUSH2 0x278 JUMPI DUP1 PUSH4 0x7ECEBE00 EQ PUSH2 0x294 JUMPI DUP1 PUSH4 0x84B0196E EQ PUSH2 0x2C4 JUMPI DUP1 PUSH4 0x8DA5CB5B EQ PUSH2 0x2E8 JUMPI DUP1 PUSH4 0x95D89B41 EQ PUSH2 0x306 JUMPI PUSH2 0x12A JUMP JUMPDEST DUP1 PUSH4 0x3644E515 GT PUSH2 0xF2 JUMPI DUP1 PUSH4 0x3644E515 EQ PUSH2 0x1E8 JUMPI DUP1 PUSH4 0x40C10F19 EQ PUSH2 0x206 JUMPI DUP1 PUSH4 0x42966C68 EQ PUSH2 0x222 JUMPI DUP1 PUSH4 0x70A08231 EQ PUSH2 0x23E JUMPI DUP1 PUSH4 0x715018A6 EQ PUSH2 0x26E JUMPI PUSH2 0x12A JUMP JUMPDEST DUP1 PUSH4 0x6FDDE03 EQ PUSH2 0x12E JUMPI DUP1 PUSH4 0x95EA7B3 EQ PUSH2 0x14C JUMPI DUP1 PUSH4 0x18160DDD EQ PUSH2 0x17C JUMPI DUP1 PUSH4 0x23B872DD EQ PUSH2 0x19A JUMPI DUP1 PUSH4 0x313CE567 EQ PUSH2 0x1CA JUMPI JUMPDEST PUSH0 DUP1 REVERT JUMPDEST PUSH2 0x136 PUSH2 0x3EC JUMP JUMPDEST PUSH1 0x40 MLOAD PUSH2 0x143 SWAP2 SWAP1 PUSH2 0x18DA JUMP JUMPDEST PUSH1 0x40 MLOAD DUP1 SWAP2 SUB SWAP1 RETURN JUMPDEST PUSH2 0x166 PUSH1 0x4 DUP1 CALLDATASIZE SUB DUP2 ADD SWAP1 PUSH2 0x161 SWAP2 SWAP1 PUSH2 0x198B JUMP JUMPDEST PUSH2 0x47C JUMP JUMPDEST PUSH1 0x40 MLOAD PUSH2 0x173 SWAP2 SWAP1 PUSH2 0x19E3 JUMP JUMPDEST PUSH1 0x40 MLOAD DUP1 SWAP2 SUB SWAP1 RETURN JUMPDEST PUSH2 0x184 PUSH2 0x49E JUMP JUMPDEST PUSH1 0x40 MLOAD PUSH2 0x191 SWAP2 SWAP1 PUSH2 0x1A0B JUMP JUMPDEST PUSH1 0x40 MLOAD DUP1 SWAP2 SUB SWAP1 RETURN JUMPDEST PUSH2 0x1B4 PUSH1 0x4 DUP1 CALLDATASIZE SUB DUP2 ADD SWAP1 PUSH2 0x1AF SWAP2 SWAP1 PUSH2 0x1A24 JUMP JUMPDEST PUSH2 0x4A7 JUMP JUMPDEST PUSH1 0x40 MLOAD PUSH2 0x1C1 SWAP2 SWAP1 PUSH2 0x19E3 JUMP JUMPDEST PUSH1 0x40 MLOAD DUP1 SWAP2 SUB SWAP1 RETURN JUMPDEST PUSH2 0x1D2 PUSH2 0x4D5 JUMP JUMPDEST PUSH1 0x40 MLOAD PUSH2 0x1DF SWAP2 SWAP1 PUSH2 0x1A8F JUMP JUMPDEST PUSH1 0x40 MLOAD DUP1 SWAP2 SUB SWAP1 RETURN JUMPDEST PUSH2 0x1F0 PUSH2 0x4DD JUMP JUMPDEST PUSH1 0x40 MLOAD PUSH2 0x1FD SWAP2 SWAP1 PUSH2 0x1AC0 JUMP JUMPDEST PUSH1 0x40 MLOAD DUP1 SWAP2 SUB SWAP1 RETURN JUMPDEST PUSH2 0x220 PUSH1 0x4 DUP1 CALLDATASIZE SUB DUP2 ADD SWAP1 PUSH2 0x21B SWAP2 SWAP1 PUSH2 0x198B JUMP JUMPDEST PUSH2 0x4EB JUMP JUMPDEST STOP JUMPDEST PUSH2 0x23C PUSH1 0x4 DUP1 CALLDATASIZE SUB DUP2 ADD SWAP1 PUSH2 0x237 SWAP2 SWAP1 PUSH2 0x1AD9 JUMP JUMPDEST PUSH2 0x522 JUMP JUMPDEST STOP JUMPDEST PUSH2 0x258 PUSH1 0x4 DUP1 CALLDATASIZE SUB DUP2 ADD SWAP1 PUSH2 0x253 SWAP2 SWAP1 PUSH2 0x1B04 JUMP JUMPDEST PUSH2 0x536 JUMP JUMPDEST PUSH1 0x40 MLOAD PUSH2 0x265 SWAP2 SWAP1 PUSH2 0x1A0B JUMP JUMPDEST PUSH1 0x40 MLOAD DUP1 SWAP2 SUB SWAP1 RETURN JUMPDEST PUSH2 0x276 PUSH2 0x57B JUMP JUMPDEST STOP JUMPDEST PUSH2 0x292 PUSH1 0x4 DUP1 CALLDATASIZE SUB DUP2 ADD SWAP1 PUSH2 0x28D SWAP2 SWAP1 PUSH2 0x198B JUMP JUMPDEST PUSH2 0x58E JUMP JUMPDEST STOP JUMPDEST PUSH2 0x2AE PUSH1 0x4 DUP1 CALLDATASIZE SUB DUP2 ADD SWAP1 PUSH2 0x2A9 SWAP2 SWAP1 PUSH2 0x1B04 JUMP JUMPDEST PUSH2 0x5AE JUMP JUMPDEST PUSH1 0x40 MLOAD PUSH2 0x2BB SWAP2 SWAP1 PUSH2 0x1A0B JUMP JUMPDEST PUSH1 0x40 MLOAD DUP1 SWAP2 SUB SWAP1 RETURN JUMPDEST PUSH2 0x2CC PUSH2 0x5BF JUMP JUMPDEST PUSH1 0x40 MLOAD PUSH2 0x2DF SWAP8 SWAP7 SWAP6 SWAP5 SWAP4 SWAP3 SWAP2 SWAP1 PUSH2 0x1C2F JUMP JUMPDEST PUSH1 0x40 MLOAD DUP1 SWAP2 SUB SWAP1 RETURN JUMPDEST PUSH2 0x2F0 PUSH2 0x664 JUMP JUMPDEST PUSH1 0x40 MLOAD PUSH2 0x2FD SWAP2 SWAP1 PUSH2 0x1CB1 JUMP JUMPDEST PUSH1 0x40 MLOAD DUP1 SWAP2 SUB SWAP1 RETURN JUMPDEST PUSH2 0x30E PUSH2 0x68C JUMP JUMPDEST PUSH1 0x40 MLOAD PUSH2 0x31B SWAP2 SWAP1 PUSH2 0x18DA JUMP JUMPDEST PUSH1 0x40 MLOAD DUP1 SWAP2 SUB SWAP1 RETURN JUMPDEST PUSH2 0x33E PUSH1 0x4 DUP1 CALLDATASIZE SUB DUP2 ADD SWAP1 PUSH2 0x339 SWAP2 SWAP1 PUSH2 0x198B JUMP JUMPDEST PUSH2 0x71C JUMP JUMPDEST PUSH1 0x40 MLOAD PUSH2 0x34B SWAP2 SWAP1 PUSH2 0x19E3 JUMP JUMPDEST PUSH1 0x40 MLOAD DUP1 SWAP2 SUB SWAP1 RETURN JUMPDEST PUSH2 0x36E PUSH1 0x4 DUP1 CALLDATASIZE SUB DUP2 ADD SWAP1 PUSH2 0x369 SWAP2 SWAP1 PUSH2 0x1CCA JUMP JUMPDEST PUSH2 0x73E JUMP JUMPDEST PUSH1 0x40 MLOAD PUSH2 0x37B SWAP2 SWAP1 PUSH2 0x19E3 JUMP JUMPDEST PUSH1 0x40 MLOAD DUP1 SWAP2 SUB SWAP1 RETURN JUMPDEST PUSH2 0x39E PUSH1 0x4 DUP1 CALLDATASIZE SUB DUP2 ADD SWAP1 PUSH2 0x399 SWAP2 SWAP1 PUSH2 0x1D82 JUMP JUMPDEST PUSH2 0x7A3 JUMP JUMPDEST STOP JUMPDEST PUSH2 0x3BA PUSH1 0x4 DUP1 CALLDATASIZE SUB DUP2 ADD SWAP1 PUSH2 0x3B5 SWAP2 SWAP1 PUSH2 0x1E1F JUMP JUMPDEST PUSH2 0x8E8 JUMP JUMPDEST PUSH1 0x40 MLOAD PUSH2 0x3C7 SWAP2 SWAP1 PUSH2 0x1A0B JUMP JUMPDEST PUSH1 0x40 MLOAD DUP1 SWAP2 SUB SWAP1 RETURN JUMPDEST PUSH2 0x3EA PUSH1 0x4 DUP1 CALLDATASIZE SUB DUP2 ADD SWAP1 PUSH2 0x3E5 SWAP2 SWAP1 PUSH2 0x1B04 JUMP JUMPDEST PUSH2 0x96A JUMP JUMPDEST STOP JUMPDEST PUSH1 0x60 PUSH1 0x3 DUP1 SLOAD PUSH2 0x3FB SWAP1 PUSH2 0x1E8A JUMP JUMPDEST DUP1 PUSH1 0x1F ADD PUSH1 0x20 DUP1 SWAP2 DIV MUL PUSH1 0x20 ADD PUSH1 0x40 MLOAD SWAP1 DUP2 ADD PUSH1 0x40 MSTORE DUP1 SWAP3 SWAP2 SWAP1 DUP2 DUP2 MSTORE PUSH1 0x20 ADD DUP3 DUP1 SLOAD PUSH2 0x427 SWAP1 PUSH2 0x1E8A JUMP JUMPDEST DUP1 ISZERO PUSH2 0x472 JUMPI DUP1 PUSH1 0x1F LT PUSH2 0x449 JUMPI PUSH2 0x100 DUP1 DUP4 SLOAD DIV MUL DUP4 MSTORE SWAP2 PUSH1 0x20 ADD SWAP2 PUSH2 0x472 JUMP JUMPDEST DUP3 ADD SWAP2 SWAP1 PUSH0 MSTORE PUSH1 0x20 PUSH0 KECCAK256 SWAP1 JUMPDEST DUP2 SLOAD DUP2 MSTORE SWAP1 PUSH1 0x1 ADD SWAP1 PUSH1 0x20 ADD DUP1 DUP4 GT PUSH2 0x455 JUMPI DUP3 SWAP1 SUB PUSH1 0x1F AND DUP3 ADD SWAP2 JUMPDEST POP POP POP POP POP SWAP1 POP SWAP1 JUMP JUMPDEST PUSH0 DUP1 PUSH2 0x486 PUSH2 0x9EE JUMP JUMPDEST SWAP1 POP PUSH2 0x493 DUP2 DUP6 DUP6 PUSH2 0x9F5 JUMP JUMPDEST PUSH1 0x1 SWAP2 POP POP SWAP3 SWAP2 POP POP JUMP JUMPDEST PUSH0 PUSH1 0x2 SLOAD SWAP1 POP SWAP1 JUMP JUMPDEST PUSH0 DUP1 PUSH2 0x4B1 PUSH2 0x9EE JUMP JUMPDEST SWAP1 POP PUSH2 0x4BE DUP6 DUP3 DUP6 PUSH2 0xA07 JUMP JUMPDEST PUSH2 0x4C9 DUP6 DUP6 DUP6 PUSH2 0xA99 JUMP JUMPDEST PUSH1 0x1 SWAP2 POP POP SWAP4 SWAP3 POP POP POP JUMP JUMPDEST PUSH0 PUSH1 0x12 SWAP1 POP SWAP1 JUMP JUMPDEST PUSH0 PUSH2 0x4E6 PUSH2 0xB89 JUMP JUMPDEST SWAP1 POP SWAP1 JUMP JUMPDEST PUSH2 0x4F3 PUSH2 0xC3F JUMP JUMPDEST PUSH2 0x51E DUP3 PUSH2 0x4FF PUSH2 0x4D5 JUMP JUMPDEST PUSH1 0xFF AND PUSH1 0xA PUSH2 0x50E SWAP2 SWAP1 PUSH2 0x2016 JUMP JUMPDEST DUP4 PUSH2 0x519 SWAP2 SWAP1 PUSH2 0x2060 JUMP JUMPDEST PUSH2 0xCC6 JUMP JUMPDEST POP POP JUMP JUMPDEST PUSH2 0x533 PUSH2 0x52D PUSH2 0x9EE JUMP JUMPDEST DUP3 PUSH2 0xD45 JUMP JUMPDEST POP JUMP JUMPDEST PUSH0 DUP1 PUSH0 DUP4 PUSH20 0xFFFFFFFFFFFFFFFFFFFFFFFFFFFFFFFFFFFFFFFF AND PUSH20 0xFFFFFFFFFFFFFFFFFFFFFFFFFFFFFFFFFFFFFFFF AND DUP2 MSTORE PUSH1 0x20 ADD SWAP1 DUP2 MSTORE PUSH1 0x20 ADD PUSH0 KECCAK256 SLOAD SWAP1 POP SWAP2 SWAP1 POP JUMP JUMPDEST PUSH2 0x583 PUSH2 0xC3F JUMP JUMPDEST PUSH2 0x58C PUSH0 PUSH2 0xDC4 JUMP JUMPDEST JUMP JUMPDEST PUSH2 0x5A0 DUP3 PUSH2 0x59A PUSH2 0x9EE JUMP JUMPDEST DUP4 PUSH2 0xA07 JUMP JUMPDEST PUSH2 0x5AA DUP3 DUP3 PUSH2 0xD45 JUMP JUMPDEST POP POP JUMP JUMPDEST PUSH0 PUSH2 0x5B8 DUP3 PUSH2 0xE87 JUMP JUMPDEST SWAP1 POP SWAP2 SWAP1 POP JUMP JUMPDEST PUSH0 PUSH1 0x60 DUP1 PUSH0 DUP1 PUSH0 PUSH1 0x60 PUSH2 0x5D0 PUSH2 0xECD JUMP JUMPDEST PUSH2 0x5D8 PUSH2 0xF08 JUMP JUMPDEST CHAINID ADDRESS PUSH0 DUP1 SHL PUSH0 PUSH8 0xFFFFFFFFFFFFFFFF DUP2 GT ISZERO PUSH2 0x5F7 JUMPI PUSH2 0x5F6 PUSH2 0x20A1 JUMP JUMPDEST JUMPDEST PUSH1 0x40 MLOAD SWAP1 DUP1 DUP3 MSTORE DUP1 PUSH1 0x20 MUL PUSH1 0x20 ADD DUP3 ADD PUSH1 0x40 MSTORE DUP1 ISZERO PUSH2 0x625 JUMPI DUP2 PUSH1 0x20 ADD PUSH1 0x20 DUP3 MUL DUP1 CALLDATASIZE DUP4 CALLDATACOPY DUP1 DUP3 ADD SWAP2 POP POP SWAP1 POP JUMPDEST POP PUSH32 0xF00000000000000000000000000000000000000000000000000000000000000 SWAP6 SWAP5 SWAP4 SWAP3 SWAP2 SWAP1 SWAP7 POP SWAP7 POP SWAP7 POP SWAP7 POP SWAP7 POP SWAP7 POP SWAP7 POP SWAP1 SWAP2 SWAP3 SWAP4 SWAP5 SWAP6 SWAP7 JUMP JUMPDEST PUSH0 PUSH1 0x5 PUSH0 SWAP1 SLOAD SWAP1 PUSH2 0x100 EXP SWAP1 DIV PUSH20 0xFFFFFFFFFFFFFFFFFFFFFFFFFFFFFFFFFFFFFFFF AND SWAP1 POP SWAP1 JUMP JUMPDEST PUSH1 0x60 PUSH1 0x4 DUP1 SLOAD PUSH2 0x69B SWAP1 PUSH2 0x1E8A JUMP JUMPDEST DUP1 PUSH1 0x1F ADD PUSH1 0x20 DUP1 SWAP2 DIV MUL PUSH1 0x20 ADD PUSH1 0x40 MLOAD SWAP1 DUP2 ADD PUSH1 0x40 MSTORE DUP1 SWAP3 SWAP2 SWAP1 DUP2 DUP2 MSTORE PUSH1 0x20 ADD DUP3 DUP1 SLOAD PUSH2 0x6C7 SWAP1 PUSH2 0x1E8A JUMP JUMPDEST DUP1 ISZERO PUSH2 0x712 JUMPI DUP1 PUSH1 0x1F LT PUSH2 0x6E9 JUMPI PUSH2 0x100 DUP1 DUP4 SLOAD DIV MUL DUP4 MSTORE SWAP2 PUSH1 0x20 ADD SWAP2 PUSH2 0x712 JUMP JUMPDEST DUP3 ADD SWAP2 SWAP1 PUSH0 MSTORE PUSH1 0x20 PUSH0 KECCAK256 SWAP1 JUMPDEST DUP2 SLOAD DUP2 MSTORE SWAP1 PUSH1 0x1 ADD SWAP1 PUSH1 0x20 ADD DUP1 DUP4 GT PUSH2 0x6F5 JUMPI DUP3 SWAP1 SUB PUSH1 0x1F AND DUP3 ADD SWAP2 JUMPDEST POP POP POP POP POP SWAP1 POP SWAP1 JUMP JUMPDEST PUSH0 DUP1 PUSH2 0x726 PUSH2 0x9EE JUMP JUMPDEST SWAP1 POP PUSH2 0x733 DUP2 DUP6 DUP6 PUSH2 0xA99 JUMP JUMPDEST PUSH1 0x1 SWAP2 POP POP SWAP3 SWAP2 POP POP JUMP JUMPDEST PUSH0 PUSH2 0x76B DUP3 DUP7 PUSH2 0x74C PUSH2 0x4D5 JUMP JUMPDEST PUSH1 0xFF AND PUSH1 0xA PUSH2 0x75B SWAP2 SWAP1 PUSH2 0x2016 JUMP JUMPDEST DUP7 PUSH2 0x766 SWAP2 SWAP1 PUSH2 0x2060 JUMP JUMPDEST PUSH2 0xA07 JUMP JUMPDEST PUSH2 0x797 DUP6 DUP6 PUSH2 0x778 PUSH2 0x4D5 JUMP JUMPDEST PUSH1 0xFF AND PUSH1 0xA PUSH2 0x787 SWAP2 SWAP1 PUSH2 0x2016 JUMP JUMPDEST DUP7 PUSH2 0x792 SWAP2 SWAP1 PUSH2 0x2060 JUMP JUMPDEST PUSH2 0xA99 JUMP JUMPDEST PUSH1 0x1 SWAP1 POP SWAP5 SWAP4 POP POP POP POP JUMP JUMPDEST DUP4 TIMESTAMP GT ISZERO PUSH2 0x7E8 JUMPI DUP4 PUSH1 0x40 MLOAD PUSH32 0x6279130200000000000000000000000000000000000000000000000000000000 DUP2 MSTORE PUSH1 0x4 ADD PUSH2 0x7DF SWAP2 SWAP1 PUSH2 0x1A0B JUMP JUMPDEST PUSH1 0x40 MLOAD DUP1 SWAP2 SUB SWAP1 REVERT JUMPDEST PUSH0 PUSH32 0x6E71EDAE12B1B97F4D1F60370FEF10105FA2FAAE0126114A169C64845D6126C9 DUP9 DUP9 DUP9 PUSH2 0x816 DUP13 PUSH2 0xF43 JUMP JUMPDEST DUP10 PUSH1 0x40 MLOAD PUSH1 0x20 ADD PUSH2 0x82C SWAP7 SWAP6 SWAP5 SWAP4 SWAP3 SWAP2 SWAP1 PUSH2 0x20CE JUMP JUMPDEST PUSH1 0x40 MLOAD PUSH1 0x20 DUP2 DUP4 SUB SUB DUP2 MSTORE SWAP1 PUSH1 0x40 MSTORE DUP1 MLOAD SWAP1 PUSH1 0x20 ADD KECCAK256 SWAP1 POP PUSH0 PUSH2 0x84E DUP3 PUSH2 0xF96 JUMP JUMPDEST SWAP1 POP PUSH0 PUSH2 0x85D DUP3 DUP8 DUP8 DUP8 PUSH2 0xFAF JUMP JUMPDEST SWAP1 POP DUP10 PUSH20 0xFFFFFFFFFFFFFFFFFFFFFFFFFFFFFFFFFFFFFFFF AND DUP2 PUSH20 0xFFFFFFFFFFFFFFFFFFFFFFFFFFFFFFFFFFFFFFFF AND EQ PUSH2 0x8D1 JUMPI DUP1 DUP11 PUSH1 0x40 MLOAD PUSH32 0x4B800E4600000000000000000000000000000000000000000000000000000000 DUP2 MSTORE PUSH1 0x4 ADD PUSH2 0x8C8 SWAP3 SWAP2 SWAP1 PUSH2 0x212D JUMP JUMPDEST PUSH1 0x40 MLOAD DUP1 SWAP2 SUB SWAP1 REVERT JUMPDEST PUSH2 0x8DC DUP11 DUP11 DUP11 PUSH2 0x9F5 JUMP JUMPDEST POP POP POP POP POP POP POP POP POP POP JUMP JUMPDEST PUSH0 PUSH1 0x1 PUSH0 DUP5 PUSH20 0xFFFFFFFFFFFFFFFFFFFFFFFFFFFFFFFFFFFFFFFF AND PUSH20 0xFFFFFFFFFFFFFFFFFFFFFFFFFFFFFFFFFFFFFFFF AND DUP2 MSTORE PUSH1 0x20 ADD SWAP1 DUP2 MSTORE PUSH1 0x20 ADD PUSH0 KECCAK256 PUSH0 DUP4 PUSH20 0xFFFFFFFFFFFFFFFFFFFFFFFFFFFFFFFFFFFFFFFF AND PUSH20 0xFFFFFFFFFFFFFFFFFFFFFFFFFFFFFFFFFFFFFFFF AND DUP2 MSTORE PUSH1 0x20 ADD SWAP1 DUP2 MSTORE PUSH1 0x20 ADD PUSH0 KECCAK256 SLOAD SWAP1 POP SWAP3 SWAP2 POP POP JUMP JUMPDEST PUSH2 0x972 PUSH2 0xC3F JUMP JUMPDEST PUSH0 PUSH20 0xFFFFFFFFFFFFFFFFFFFFFFFFFFFFFFFFFFFFFFFF AND DUP2 PUSH20 0xFFFFFFFFFFFFFFFFFFFFFFFFFFFFFFFFFFFFFFFF AND SUB PUSH2 0x9E2 JUMPI PUSH0 PUSH1 0x40 MLOAD PUSH32 0x1E4FBDF700000000000000000000000000000000000000000000000000000000 DUP2 MSTORE PUSH1 0x4 ADD PUSH2 0x9D9 SWAP2 SWAP1 PUSH2 0x1CB1 JUMP JUMPDEST PUSH1 0x40 MLOAD DUP1 SWAP2 SUB SWAP1 REVERT JUMPDEST PUSH2 0x9EB DUP2 PUSH2 0xDC4 JUMP JUMPDEST POP JUMP JUMPDEST PUSH0 CALLER SWAP1 POP SWAP1 JUMP JUMPDEST PUSH2 0xA02 DUP4 DUP4 DUP4 PUSH1 0x1 PUSH2 0xFDD JUMP JUMPDEST POP POP POP JUMP JUMPDEST PUSH0 PUSH2 0xA12 DUP5 DUP5 PUSH2 0x8E8 JUMP JUMPDEST SWAP1 POP PUSH32 0xFFFFFFFFFFFFFFFFFFFFFFFFFFFFFFFFFFFFFFFFFFFFFFFFFFFFFFFFFFFFFFFF DUP2 EQ PUSH2 0xA93 JUMPI DUP2 DUP2 LT ISZERO PUSH2 0xA84 JUMPI DUP3 DUP2 DUP4 PUSH1 0x40 MLOAD PUSH32 0xFB8F41B200000000000000000000000000000000000000000000000000000000 DUP2 MSTORE PUSH1 0x4 ADD PUSH2 0xA7B SWAP4 SWAP3 SWAP2 SWAP1 PUSH2 0x2154 JUMP JUMPDEST PUSH1 0x40 MLOAD DUP1 SWAP2 SUB SWAP1 REVERT JUMPDEST PUSH2 0xA92 DUP5 DUP5 DUP5 DUP5 SUB PUSH0 PUSH2 0xFDD JUMP JUMPDEST JUMPDEST POP POP POP POP JUMP JUMPDEST PUSH0 PUSH20 0xFFFFFFFFFFFFFFFFFFFFFFFFFFFFFFFFFFFFFFFF AND DUP4 PUSH20 0xFFFFFFFFFFFFFFFFFFFFFFFFFFFFFFFFFFFFFFFF AND SUB PUSH2 0xB09 JUMPI PUSH0 PUSH1 0x40 MLOAD PUSH32 0x96C6FD1E00000000000000000000000000000000000000000000000000000000 DUP2 MSTORE PUSH1 0x4 ADD PUSH2 0xB00 SWAP2 SWAP1 PUSH2 0x1CB1 JUMP JUMPDEST PUSH1 0x40 MLOAD DUP1 SWAP2 SUB SWAP1 REVERT JUMPDEST PUSH0 PUSH20 0xFFFFFFFFFFFFFFFFFFFFFFFFFFFFFFFFFFFFFFFF AND DUP3 PUSH20 0xFFFFFFFFFFFFFFFFFFFFFFFFFFFFFFFFFFFFFFFF AND SUB PUSH2 0xB79 JUMPI PUSH0 PUSH1 0x40 MLOAD PUSH32 0xEC442F0500000000000000000000000000000000000000000000000000000000 DUP2 MSTORE PUSH1 0x4 ADD PUSH2 0xB70 SWAP2 SWAP1 PUSH2 0x1CB1 JUMP JUMPDEST PUSH1 0x40 MLOAD DUP1 SWAP2 SUB SWAP1 REVERT JUMPDEST PUSH2 0xB84 DUP4 DUP4 DUP4 PUSH2 0x11AC JUMP JUMPDEST POP POP POP JUMP JUMPDEST PUSH0 PUSH32 0x0 PUSH20 0xFFFFFFFFFFFFFFFFFFFFFFFFFFFFFFFFFFFFFFFF AND ADDRESS PUSH20 0xFFFFFFFFFFFFFFFFFFFFFFFFFFFFFFFFFFFFFFFF AND EQ DUP1 ISZERO PUSH2 0xC04 JUMPI POP PUSH32 0x0 CHAINID EQ JUMPDEST ISZERO PUSH2 0xC31 JUMPI PUSH32 0x0 SWAP1 POP PUSH2 0xC3C JUMP JUMPDEST PUSH2 0xC39 PUSH2 0x13C5 JUMP JUMPDEST SWAP1 POP JUMPDEST SWAP1 JUMP JUMPDEST PUSH2 0xC47 PUSH2 0x9EE JUMP JUMPDEST PUSH20 0xFFFFFFFFFFFFFFFFFFFFFFFFFFFFFFFFFFFFFFFF AND PUSH2 0xC65 PUSH2 0x664 JUMP JUMPDEST PUSH20 0xFFFFFFFFFFFFFFFFFFFFFFFFFFFFFFFFFFFFFFFF AND EQ PUSH2 0xCC4 JUMPI PUSH2 0xC88 PUSH2 0x9EE JUMP JUMPDEST PUSH1 0x40 MLOAD PUSH32 0x118CDAA700000000000000000000000000000000000000000000000000000000 DUP2 MSTORE PUSH1 0x4 ADD PUSH2 0xCBB SWAP2 SWAP1 PUSH2 0x1CB1 JUMP JUMPDEST PUSH1 0x40 MLOAD DUP1 SWAP2 SUB SWAP1 REVERT JUMPDEST JUMP JUMPDEST PUSH0 PUSH20 0xFFFFFFFFFFFFFFFFFFFFFFFFFFFFFFFFFFFFFFFF AND DUP3 PUSH20 0xFFFFFFFFFFFFFFFFFFFFFFFFFFFFFFFFFFFFFFFF AND SUB PUSH2 0xD36 JUMPI PUSH0 PUSH1 0x40 MLOAD PUSH32 0xEC442F0500000000000000000000000000000000000000000000000000000000 DUP2 MSTORE PUSH1 0x4 ADD PUSH2 0xD2D SWAP2 SWAP1 PUSH2 0x1CB1 JUMP JUMPDEST PUSH1 0x40 MLOAD DUP1 SWAP2 SUB SWAP1 REVERT JUMPDEST PUSH2 0xD41 PUSH0 DUP4 DUP4 PUSH2 0x11AC JUMP JUMPDEST POP POP JUMP JUMPDEST PUSH0 PUSH20 0xFFFFFFFFFFFFFFFFFFFFFFFFFFFFFFFFFFFFFFFF AND DUP3 PUSH20 0xFFFFFFFFFFFFFFFFFFFFFFFFFFFFFFFFFFFFFFFF AND SUB PUSH2 0xDB5 JUMPI PUSH0 PUSH1 0x40 MLOAD PUSH32 0x96C6FD1E00000000000000000000000000000000000000000000000000000000 DUP2 MSTORE PUSH1 0x4 ADD PUSH2 0xDAC SWAP2 SWAP1 PUSH2 0x1CB1 JUMP JUMPDEST PUSH1 0x40 MLOAD DUP1 SWAP2 SUB SWAP1 REVERT JUMPDEST PUSH2 0xDC0 DUP3 PUSH0 DUP4 PUSH2 0x11AC JUMP JUMPDEST POP POP JUMP JUMPDEST PUSH0 PUSH1 0x5 PUSH0 SWAP1 SLOAD SWAP1 PUSH2 0x100 EXP SWAP1 DIV PUSH20 0xFFFFFFFFFFFFFFFFFFFFFFFFFFFFFFFFFFFFFFFF AND SWAP1 POP DUP2 PUSH1 0x5 PUSH0 PUSH2 0x100 EXP DUP2 SLOAD DUP2 PUSH20 0xFFFFFFFFFFFFFFFFFFFFFFFFFFFFFFFFFFFFFFFF MUL NOT AND SWAP1 DUP4 PUSH20 0xFFFFFFFFFFFFFFFFFFFFFFFFFFFFFFFFFFFFFFFF AND MUL OR SWAP1 SSTORE POP DUP2 PUSH20 0xFFFFFFFFFFFFFFFFFFFFFFFFFFFFFFFFFFFFFFFF AND DUP2 PUSH20 0xFFFFFFFFFFFFFFFFFFFFFFFFFFFFFFFFFFFFFFFF AND PUSH32 0x8BE0079C531659141344CD1FD0A4F28419497F9722A3DAAFE3B4186F6B6457E0 PUSH1 0x40 MLOAD PUSH1 0x40 MLOAD DUP1 SWAP2 SUB SWAP1 LOG3 POP POP JUMP JUMPDEST PUSH0 PUSH1 0x8 PUSH0 DUP4 PUSH20 0xFFFFFFFFFFFFFFFFFFFFFFFFFFFFFFFFFFFFFFFF AND PUSH20 0xFFFFFFFFFFFFFFFFFFFFFFFFFFFFFFFFFFFFFFFF AND DUP2 MSTORE PUSH1 0x20 ADD SWAP1 DUP2 MSTORE PUSH1 0x20 ADD PUSH0 KECCAK256 SLOAD SWAP1 POP SWAP2 SWAP1 POP JUMP JUMPDEST PUSH1 0x60 PUSH2 0xF03 PUSH1 0x6 PUSH32 0x0 PUSH2 0x145A SWAP1 SWAP2 SWAP1 PUSH4 0xFFFFFFFF AND JUMP JUMPDEST SWAP1 POP SWAP1 JUMP JUMPDEST PUSH1 0x60 PUSH2 0xF3E PUSH1 0x7 PUSH32 0x0 PUSH2 0x145A SWAP1 SWAP2 SWAP1 PUSH4 0xFFFFFFFF AND JUMP JUMPDEST SWAP1 POP SWAP1 JUMP JUMPDEST PUSH0 PUSH1 0x8 PUSH0 DUP4 PUSH20 0xFFFFFFFFFFFFFFFFFFFFFFFFFFFFFFFFFFFFFFFF AND PUSH20 0xFFFFFFFFFFFFFFFFFFFFFFFFFFFFFFFFFFFFFFFF AND DUP2 MSTORE PUSH1 0x20 ADD SWAP1 DUP2 MSTORE PUSH1 0x20 ADD PUSH0 KECCAK256 PUSH0 DUP2 SLOAD DUP1 SWAP3 SWAP2 SWAP1 PUSH1 0x1 ADD SWAP2 SWAP1 POP SSTORE SWAP1 POP SWAP2 SWAP1 POP JUMP JUMPDEST PUSH0 PUSH2 0xFA8 PUSH2 0xFA2 PUSH2 0xB89 JUMP JUMPDEST DUP4 PUSH2 0x1507 JUMP JUMPDEST SWAP1 POP SWAP2 SWAP1 POP JUMP JUMPDEST PUSH0 DUP1 PUSH0 DUP1 PUSH2 0xFBF DUP9 DUP9 DUP9 DUP9 PUSH2 0x1547 JUMP JUMPDEST SWAP3 POP SWAP3 POP SWAP3 POP PUSH2 0xFCF DUP3 DUP3 PUSH2 0x162E JUMP JUMPDEST DUP3 SWAP4 POP POP POP POP SWAP5 SWAP4 POP POP POP POP JUMP JUMPDEST PUSH0 PUSH20 0xFFFFFFFFFFFFFFFFFFFFFFFFFFFFFFFFFFFFFFFF AND DUP5 PUSH20 0xFFFFFFFFFFFFFFFFFFFFFFFFFFFFFFFFFFFFFFFF AND SUB PUSH2 0x104D JUMPI PUSH0 PUSH1 0x40 MLOAD PUSH32 0xE602DF0500000000000000000000000000000000000000000000000000000000 DUP2 MSTORE PUSH1 0x4 ADD PUSH2 0x1044 SWAP2 SWAP1 PUSH2 0x1CB1 JUMP JUMPDEST PUSH1 0x40 MLOAD DUP1 SWAP2 SUB SWAP1 REVERT JUMPDEST PUSH0 PUSH20 0xFFFFFFFFFFFFFFFFFFFFFFFFFFFFFFFFFFFFFFFF AND DUP4 PUSH20 0xFFFFFFFFFFFFFFFFFFFFFFFFFFFFFFFFFFFFFFFF AND SUB PUSH2 0x10BD JUMPI PUSH0 PUSH1 0x40 MLOAD PUSH32 0x94280D6200000000000000000000000000000000000000000000000000000000 DUP2 MSTORE PUSH1 0x4 ADD PUSH2 0x10B4 SWAP2 SWAP1 PUSH2 0x1CB1 JUMP JUMPDEST PUSH1 0x40 MLOAD DUP1 SWAP2 SUB SWAP1 REVERT JUMPDEST DUP2 PUSH1 0x1 PUSH0 DUP7 PUSH20 0xFFFFFFFFFFFFFFFFFFFFFFFFFFFFFFFFFFFFFFFF AND PUSH20 0xFFFFFFFFFFFFFFFFFFFFFFFFFFFFFFFFFFFFFFFF AND DUP2 MSTORE PUSH1 0x20 ADD SWAP1 DUP2 MSTORE PUSH1 0x20 ADD PUSH0 KECCAK256 PUSH0 DUP6 PUSH20 0xFFFFFFFFFFFFFFFFFFFFFFFFFFFFFFFFFFFFFFFF AND PUSH20 0xFFFFFFFFFFFFFFFFFFFFFFFFFFFFFFFFFFFFFFFF AND DUP2 MSTORE PUSH1 0x20 ADD SWAP1 DUP2 MSTORE PUSH1 0x20 ADD PUSH0 KECCAK256 DUP2 SWAP1 SSTORE POP DUP1 ISZERO PUSH2 0x11A6 JUMPI DUP3 PUSH20 0xFFFFFFFFFFFFFFFFFFFFFFFFFFFFFFFFFFFFFFFF AND DUP5 PUSH20 0xFFFFFFFFFFFFFFFFFFFFFFFFFFFFFFFFFFFFFFFF AND PUSH32 0x8C5BE1E5EBEC7D5BD14F71427D1E84F3DD0314C0F7B2291E5B200AC8C7C3B925 DUP5 PUSH1 0x40 MLOAD PUSH2 0x119D SWAP2 SWAP1 PUSH2 0x1A0B JUMP JUMPDEST PUSH1 0x40 MLOAD DUP1 SWAP2 SUB SWAP1 LOG3 JUMPDEST POP POP POP POP JUMP JUMPDEST PUSH0 PUSH20 0xFFFFFFFFFFFFFFFFFFFFFFFFFFFFFFFFFFFFFFFF AND DUP4 PUSH20 0xFFFFFFFFFFFFFFFFFFFFFFFFFFFFFFFFFFFFFFFF AND SUB PUSH2 0x11FC JUMPI DUP1 PUSH1 0x2 PUSH0 DUP3 DUP3 SLOAD PUSH2 0x11F0 SWAP2 SWAP1 PUSH2 0x2189 JUMP JUMPDEST SWAP3 POP POP DUP2 SWAP1 SSTORE POP PUSH2 0x12CA JUMP JUMPDEST PUSH0 DUP1 PUSH0 DUP6 PUSH20 0xFFFFFFFFFFFFFFFFFFFFFFFFFFFFFFFFFFFFFFFF AND PUSH20 0xFFFFFFFFFFFFFFFFFFFFFFFFFFFFFFFFFFFFFFFF AND DUP2 MSTORE PUSH1 0x20 ADD SWAP1 DUP2 MSTORE PUSH1 0x20 ADD PUSH0 KECCAK256 SLOAD SWAP1 POP DUP2 DUP2 LT ISZERO PUSH2 0x1285 JUMPI DUP4 DUP2 DUP4 PUSH1 0x40 MLOAD PUSH32 0xE450D38C00000000000000000000000000000000000000000000000000000000 DUP2 MSTORE PUSH1 0x4 ADD PUSH2 0x127C SWAP4 SWAP3 SWAP2 SWAP1 PUSH2 0x2154 JUMP JUMPDEST PUSH1 0x40 MLOAD DUP1 SWAP2 SUB SWAP1 REVERT JUMPDEST DUP2 DUP2 SUB PUSH0 DUP1 DUP7 PUSH20 0xFFFFFFFFFFFFFFFFFFFFFFFFFFFFFFFFFFFFFFFF AND PUSH20 0xFFFFFFFFFFFFFFFFFFFFFFFFFFFFFFFFFFFFFFFF AND DUP2 MSTORE PUSH1 0x20 ADD SWAP1 DUP2 MSTORE PUSH1 0x20 ADD PUSH0 KECCAK256 DUP2 SWAP1 SSTORE POP POP JUMPDEST PUSH0 PUSH20 0xFFFFFFFFFFFFFFFFFFFFFFFFFFFFFFFFFFFFFFFF AND DUP3 PUSH20 0xFFFFFFFFFFFFFFFFFFFFFFFFFFFFFFFFFFFFFFFF AND SUB PUSH2 0x1311 JUMPI DUP1 PUSH1 0x2 PUSH0 DUP3 DUP3 SLOAD SUB SWAP3 POP POP DUP2 SWAP1 SSTORE POP PUSH2 0x135B JUMP JUMPDEST DUP1 PUSH0 DUP1 DUP5 PUSH20 0xFFFFFFFFFFFFFFFFFFFFFFFFFFFFFFFFFFFFFFFF AND PUSH20 0xFFFFFFFFFFFFFFFFFFFFFFFFFFFFFFFFFFFFFFFF AND DUP2 MSTORE PUSH1 0x20 ADD SWAP1 DUP2 MSTORE PUSH1 0x20 ADD PUSH0 KECCAK256 PUSH0 DUP3 DUP3 SLOAD ADD SWAP3 POP POP DUP2 SWAP1 SSTORE POP JUMPDEST DUP2 PUSH20 0xFFFFFFFFFFFFFFFFFFFFFFFFFFFFFFFFFFFFFFFF AND DUP4 PUSH20 0xFFFFFFFFFFFFFFFFFFFFFFFFFFFFFFFFFFFFFFFF AND PUSH32 0xDDF252AD1BE2C89B69C2B068FC378DAA952BA7F163C4A11628F55A4DF523B3EF DUP4 PUSH1 0x40 MLOAD PUSH2 0x13B8 SWAP2 SWAP1 PUSH2 0x1A0B JUMP JUMPDEST PUSH1 0x40 MLOAD DUP1 SWAP2 SUB SWAP1 LOG3 POP POP POP JUMP JUMPDEST PUSH0 PUSH32 0x8B73C3C69BB8FE3D512ECC4CF759CC79239F7B179B0FFACAA9A75D522B39400F PUSH32 0x0 PUSH32 0x0 CHAINID ADDRESS PUSH1 0x40 MLOAD PUSH1 0x20 ADD PUSH2 0x143F SWAP6 SWAP5 SWAP4 SWAP3 SWAP2 SWAP1 PUSH2 0x21BC JUMP JUMPDEST PUSH1 0x40 MLOAD PUSH1 0x20 DUP2 DUP4 SUB SUB DUP2 MSTORE SWAP1 PUSH1 0x40 MSTORE DUP1 MLOAD SWAP1 PUSH1 0x20 ADD KECCAK256 SWAP1 POP SWAP1 JUMP JUMPDEST PUSH1 0x60 PUSH1 0xFF PUSH0 SHL DUP4 EQ PUSH2 0x1476 JUMPI PUSH2 0x146F DUP4 PUSH2 0x1790 JUMP JUMPDEST SWAP1 POP PUSH2 0x1501 JUMP JUMPDEST DUP2 DUP1 SLOAD PUSH2 0x1482 SWAP1 PUSH2 0x1E8A JUMP JUMPDEST DUP1 PUSH1 0x1F ADD PUSH1 0x20 DUP1 SWAP2 DIV MUL PUSH1 0x20 ADD PUSH1 0x40 MLOAD SWAP1 DUP2 ADD PUSH1 0x40 MSTORE DUP1 SWAP3 SWAP2 SWAP1 DUP2 DUP2 MSTORE PUSH1 0x20 ADD DUP3 DUP1 SLOAD PUSH2 0x14AE SWAP1 PUSH2 0x1E8A JUMP JUMPDEST DUP1 ISZERO PUSH2 0x14F9 JUMPI DUP1 PUSH1 0x1F LT PUSH2 0x14D0 JUMPI PUSH2 0x100 DUP1 DUP4 SLOAD DIV MUL DUP4 MSTORE SWAP2 PUSH1 0x20 ADD SWAP2 PUSH2 0x14F9 JUMP JUMPDEST DUP3 ADD SWAP2 SWAP1 PUSH0 MSTORE PUSH1 0x20 PUSH0 KECCAK256 SWAP1 JUMPDEST DUP2 SLOAD DUP2 MSTORE SWAP1 PUSH1 0x1 ADD SWAP1 PUSH1 0x20 ADD DUP1 DUP4 GT PUSH2 0x14DC JUMPI DUP3 SWAP1 SUB PUSH1 0x1F AND DUP3 ADD SWAP2 JUMPDEST POP POP POP POP POP SWAP1 POP JUMPDEST SWAP3 SWAP2 POP POP JUMP JUMPDEST PUSH0 PUSH1 0x40 MLOAD PUSH32 0x1901000000000000000000000000000000000000000000000000000000000000 DUP2 MSTORE DUP4 PUSH1 0x2 DUP3 ADD MSTORE DUP3 PUSH1 0x22 DUP3 ADD MSTORE PUSH1 0x42 DUP2 KECCAK256 SWAP2 POP POP SWAP3 SWAP2 POP POP JUMP JUMPDEST PUSH0 DUP1 PUSH0 PUSH32 0x7FFFFFFFFFFFFFFFFFFFFFFFFFFFFFFF5D576E7357A4501DDFE92F46681B20A0 DUP5 PUSH0 SHR GT ISZERO PUSH2 0x1583 JUMPI PUSH0 PUSH1 0x3 DUP6 SWAP3 POP SWAP3 POP SWAP3 POP PUSH2 0x1624 JUMP JUMPDEST PUSH0 PUSH1 0x1 DUP9 DUP9 DUP9 DUP9 PUSH1 0x40 MLOAD PUSH0 DUP2 MSTORE PUSH1 0x20 ADD PUSH1 0x40 MSTORE PUSH1 0x40 MLOAD PUSH2 0x15A6 SWAP5 SWAP4 SWAP3 SWAP2 SWAP1 PUSH2 0x220D JUMP JUMPDEST PUSH1 0x20 PUSH1 0x40 MLOAD PUSH1 0x20 DUP2 SUB SWAP1 DUP1 DUP5 SUB SWAP1 DUP6 GAS STATICCALL ISZERO DUP1 ISZERO PUSH2 0x15C6 JUMPI RETURNDATASIZE PUSH0 DUP1 RETURNDATACOPY RETURNDATASIZE PUSH0 REVERT JUMPDEST POP POP POP PUSH1 0x20 PUSH1 0x40 MLOAD SUB MLOAD SWAP1 POP PUSH0 PUSH20 0xFFFFFFFFFFFFFFFFFFFFFFFFFFFFFFFFFFFFFFFF AND DUP2 PUSH20 0xFFFFFFFFFFFFFFFFFFFFFFFFFFFFFFFFFFFFFFFF AND SUB PUSH2 0x1617 JUMPI PUSH0 PUSH1 0x1 PUSH0 DUP1 SHL SWAP4 POP SWAP4 POP SWAP4 POP POP PUSH2 0x1624 JUMP JUMPDEST DUP1 PUSH0 DUP1 PUSH0 SHL SWAP4 POP SWAP4 POP SWAP4 POP POP JUMPDEST SWAP5 POP SWAP5 POP SWAP5 SWAP2 POP POP JUMP JUMPDEST PUSH0 PUSH1 0x3 DUP2 GT ISZERO PUSH2 0x1641 JUMPI PUSH2 0x1640 PUSH2 0x2250 JUMP JUMPDEST JUMPDEST DUP3 PUSH1 0x3 DUP2 GT ISZERO PUSH2 0x1654 JUMPI PUSH2 0x1653 PUSH2 0x2250 JUMP JUMPDEST JUMPDEST SUB ISZERO PUSH2 0x178C JUMPI PUSH1 0x1 PUSH1 0x3 DUP2 GT ISZERO PUSH2 0x166E JUMPI PUSH2 0x166D PUSH2 0x2250 JUMP JUMPDEST JUMPDEST DUP3 PUSH1 0x3 DUP2 GT ISZERO PUSH2 0x1681 JUMPI PUSH2 0x1680 PUSH2 0x2250 JUMP JUMPDEST JUMPDEST SUB PUSH2 0x16B8 JUMPI PUSH1 0x40 MLOAD PUSH32 0xF645EEDF00000000000000000000000000000000000000000000000000000000 DUP2 MSTORE PUSH1 0x4 ADD PUSH1 0x40 MLOAD DUP1 SWAP2 SUB SWAP1 REVERT JUMPDEST PUSH1 0x2 PUSH1 0x3 DUP2 GT ISZERO PUSH2 0x16CC JUMPI PUSH2 0x16CB PUSH2 0x2250 JUMP JUMPDEST JUMPDEST DUP3 PUSH1 0x3 DUP2 GT ISZERO PUSH2 0x16DF JUMPI PUSH2 0x16DE PUSH2 0x2250 JUMP JUMPDEST JUMPDEST SUB PUSH2 0x1723 JUMPI DUP1 PUSH0 SHR PUSH1 0x40 MLOAD PUSH32 0xFCE698F700000000000000000000000000000000000000000000000000000000 DUP2 MSTORE PUSH1 0x4 ADD PUSH2 0x171A SWAP2 SWAP1 PUSH2 0x1A0B JUMP JUMPDEST PUSH1 0x40 MLOAD DUP1 SWAP2 SUB SWAP1 REVERT JUMPDEST PUSH1 0x3 DUP1 DUP2 GT ISZERO PUSH2 0x1736 JUMPI PUSH2 0x1735 PUSH2 0x2250 JUMP JUMPDEST JUMPDEST DUP3 PUSH1 0x3 DUP2 GT ISZERO PUSH2 0x1749 JUMPI PUSH2 0x1748 PUSH2 0x2250 JUMP JUMPDEST JUMPDEST SUB PUSH2 0x178B JUMPI DUP1 PUSH1 0x40 MLOAD PUSH32 0xD78BCE0C00000000000000000000000000000000000000000000000000000000 DUP2 MSTORE PUSH1 0x4 ADD PUSH2 0x1782 SWAP2 SWAP1 PUSH2 0x1AC0 JUMP JUMPDEST PUSH1 0x40 MLOAD DUP1 SWAP2 SUB SWAP1 REVERT JUMPDEST JUMPDEST POP POP JUMP JUMPDEST PUSH1 0x60 PUSH0 PUSH2 0x179C DUP4 PUSH2 0x1802 JUMP JUMPDEST SWAP1 POP PUSH0 PUSH1 0x20 PUSH8 0xFFFFFFFFFFFFFFFF DUP2 GT ISZERO PUSH2 0x17BA JUMPI PUSH2 0x17B9 PUSH2 0x20A1 JUMP JUMPDEST JUMPDEST PUSH1 0x40 MLOAD SWAP1 DUP1 DUP3 MSTORE DUP1 PUSH1 0x1F ADD PUSH1 0x1F NOT AND PUSH1 0x20 ADD DUP3 ADD PUSH1 0x40 MSTORE DUP1 ISZERO PUSH2 0x17EC JUMPI DUP2 PUSH1 0x20 ADD PUSH1 0x1 DUP3 MUL DUP1 CALLDATASIZE DUP4 CALLDATACOPY DUP1 DUP3 ADD SWAP2 POP POP SWAP1 POP JUMPDEST POP SWAP1 POP DUP2 DUP2 MSTORE DUP4 PUSH1 0x20 DUP3 ADD MSTORE DUP1 SWAP3 POP POP POP SWAP2 SWAP1 POP JUMP JUMPDEST PUSH0 DUP1 PUSH1 0xFF DUP4 PUSH0 SHR AND SWAP1 POP PUSH1 0x1F DUP2 GT ISZERO PUSH2 0x1847 JUMPI PUSH1 0x40 MLOAD PUSH32 0xB3512B0C00000000000000000000000000000000000000000000000000000000 DUP2 MSTORE PUSH1 0x4 ADD PUSH1 0x40 MLOAD DUP1 SWAP2 SUB SWAP1 REVERT JUMPDEST DUP1 SWAP2 POP POP SWAP2 SWAP1 POP JUMP JUMPDEST PUSH0 DUP2 MLOAD SWAP1 POP SWAP2 SWAP1 POP JUMP JUMPDEST PUSH0 DUP3 DUP3 MSTORE PUSH1 0x20 DUP3 ADD SWAP1 POP SWAP3 SWAP2 POP POP JUMP JUMPDEST PUSH0 JUMPDEST DUP4 DUP2 LT ISZERO PUSH2 0x1887 JUMPI DUP1 DUP3 ADD MLOAD DUP2 DUP5 ADD MSTORE PUSH1 0x20 DUP2 ADD SWAP1 POP PUSH2 0x186C JUMP JUMPDEST PUSH0 DUP5 DUP5 ADD MSTORE POP POP POP POP JUMP JUMPDEST PUSH0 PUSH1 0x1F NOT PUSH1 0x1F DUP4 ADD AND SWAP1 POP SWAP2 SWAP1 POP JUMP JUMPDEST PUSH0 PUSH2 0x18AC DUP3 PUSH2 0x1850 JUMP JUMPDEST PUSH2 0x18B6 DUP2 DUP6 PUSH2 0x185A JUMP JUMPDEST SWAP4 POP PUSH2 0x18C6 DUP2 DUP6 PUSH1 0x20 DUP7 ADD PUSH2 0x186A JUMP JUMPDEST PUSH2 0x18CF DUP2 PUSH2 0x1892 JUMP JUMPDEST DUP5 ADD SWAP2 POP POP SWAP3 SWAP2 POP POP JUMP JUMPDEST PUSH0 PUSH1 0x20 DUP3 ADD SWAP1 POP DUP2 DUP2 SUB PUSH0 DUP4 ADD MSTORE PUSH2 0x18F2 DUP2 DUP5 PUSH2 0x18A2 JUMP JUMPDEST SWAP1 POP SWAP3 SWAP2 POP POP JUMP JUMPDEST PUSH0 DUP1 REVERT JUMPDEST PUSH0 PUSH20 0xFFFFFFFFFFFFFFFFFFFFFFFFFFFFFFFFFFFFFFFF DUP3 AND SWAP1 POP SWAP2 SWAP1 POP JUMP JUMPDEST PUSH0 PUSH2 0x1927 DUP3 PUSH2 0x18FE JUMP JUMPDEST SWAP1 POP SWAP2 SWAP1 POP JUMP JUMPDEST PUSH2 0x1937 DUP2 PUSH2 0x191D JUMP JUMPDEST DUP2 EQ PUSH2 0x1941 JUMPI PUSH0 DUP1 REVERT JUMPDEST POP JUMP JUMPDEST PUSH0 DUP2 CALLDATALOAD SWAP1 POP PUSH2 0x1952 DUP2 PUSH2 0x192E JUMP JUMPDEST SWAP3 SWAP2 POP POP JUMP JUMPDEST PUSH0 DUP2 SWAP1 POP SWAP2 SWAP1 POP JUMP JUMPDEST PUSH2 0x196A DUP2 PUSH2 0x1958 JUMP JUMPDEST DUP2 EQ PUSH2 0x1974 JUMPI PUSH0 DUP1 REVERT JUMPDEST POP JUMP JUMPDEST PUSH0 DUP2 CALLDATALOAD SWAP1 POP PUSH2 0x1985 DUP2 PUSH2 0x1961 JUMP JUMPDEST SWAP3 SWAP2 POP POP JUMP JUMPDEST PUSH0 DUP1 PUSH1 0x40 DUP4 DUP6 SUB SLT ISZERO PUSH2 0x19A1 JUMPI PUSH2 0x19A0 PUSH2 0x18FA JUMP JUMPDEST JUMPDEST PUSH0 PUSH2 0x19AE DUP6 DUP3 DUP7 ADD PUSH2 0x1944 JUMP JUMPDEST SWAP3 POP POP PUSH1 0x20 PUSH2 0x19BF DUP6 DUP3 DUP7 ADD PUSH2 0x1977 JUMP JUMPDEST SWAP2 POP POP SWAP3 POP SWAP3 SWAP1 POP JUMP JUMPDEST PUSH0 DUP2 ISZERO ISZERO SWAP1 POP SWAP2 SWAP1 POP JUMP JUMPDEST PUSH2 0x19DD DUP2 PUSH2 0x19C9 JUMP JUMPDEST DUP3 MSTORE POP POP JUMP JUMPDEST PUSH0 PUSH1 0x20 DUP3 ADD SWAP1 POP PUSH2 0x19F6 PUSH0 DUP4 ADD DUP5 PUSH2 0x19D4 JUMP JUMPDEST SWAP3 SWAP2 POP POP JUMP JUMPDEST PUSH2 0x1A05 DUP2 PUSH2 0x1958 JUMP JUMPDEST DUP3 MSTORE POP POP JUMP JUMPDEST PUSH0 PUSH1 0x20 DUP3 ADD SWAP1 POP PUSH2 0x1A1E PUSH0 DUP4 ADD DUP5 PUSH2 0x19FC JUMP JUMPDEST SWAP3 SWAP2 POP POP JUMP JUMPDEST PUSH0 DUP1 PUSH0 PUSH1 0x60 DUP5 DUP7 SUB SLT ISZERO PUSH2 0x1A3B JUMPI PUSH2 0x1A3A PUSH2 0x18FA JUMP JUMPDEST JUMPDEST PUSH0 PUSH2 0x1A48 DUP7 DUP3 DUP8 ADD PUSH2 0x1944 JUMP JUMPDEST SWAP4 POP POP PUSH1 0x20 PUSH2 0x1A59 DUP7 DUP3 DUP8 ADD PUSH2 0x1944 JUMP JUMPDEST SWAP3 POP POP PUSH1 0x40 PUSH2 0x1A6A DUP7 DUP3 DUP8 ADD PUSH2 0x1977 JUMP JUMPDEST SWAP2 POP POP SWAP3 POP SWAP3 POP SWAP3 JUMP JUMPDEST PUSH0 PUSH1 0xFF DUP3 AND SWAP1 POP SWAP2 SWAP1 POP JUMP JUMPDEST PUSH2 0x1A89 DUP2 PUSH2 0x1A74 JUMP JUMPDEST DUP3 MSTORE POP POP JUMP JUMPDEST PUSH0 PUSH1 0x20 DUP3 ADD SWAP1 POP PUSH2 0x1AA2 PUSH0 DUP4 ADD DUP5 PUSH2 0x1A80 JUMP JUMPDEST SWAP3 SWAP2 POP POP JUMP JUMPDEST PUSH0 DUP2 SWAP1 POP SWAP2 SWAP1 POP JUMP JUMPDEST PUSH2 0x1ABA DUP2 PUSH2 0x1AA8 JUMP JUMPDEST DUP3 MSTORE POP POP JUMP JUMPDEST PUSH0 PUSH1 0x20 DUP3 ADD SWAP1 POP PUSH2 0x1AD3 PUSH0 DUP4 ADD DUP5 PUSH2 0x1AB1 JUMP JUMPDEST SWAP3 SWAP2 POP POP JUMP JUMPDEST PUSH0 PUSH1 0x20 DUP3 DUP5 SUB SLT ISZERO PUSH2 0x1AEE JUMPI PUSH2 0x1AED PUSH2 0x18FA JUMP JUMPDEST JUMPDEST PUSH0 PUSH2 0x1AFB DUP5 DUP3 DUP6 ADD PUSH2 0x1977 JUMP JUMPDEST SWAP2 POP POP SWAP3 SWAP2 POP POP JUMP JUMPDEST PUSH0 PUSH1 0x20 DUP3 DUP5 SUB SLT ISZERO PUSH2 0x1B19 JUMPI PUSH2 0x1B18 PUSH2 0x18FA JUMP JUMPDEST JUMPDEST PUSH0 PUSH2 0x1B26 DUP5 DUP3 DUP6 ADD PUSH2 0x1944 JUMP JUMPDEST SWAP2 POP POP SWAP3 SWAP2 POP POP JUMP JUMPDEST PUSH0 PUSH32 0xFF00000000000000000000000000000000000000000000000000000000000000 DUP3 AND SWAP1 POP SWAP2 SWAP1 POP JUMP JUMPDEST PUSH2 0x1B63 DUP2 PUSH2 0x1B2F JUMP JUMPDEST DUP3 MSTORE POP POP JUMP JUMPDEST PUSH2 0x1B72 DUP2 PUSH2 0x191D JUMP JUMPDEST DUP3 MSTORE POP POP JUMP JUMPDEST PUSH0 DUP2 MLOAD SWAP1 POP SWAP2 SWAP1 POP JUMP JUMPDEST PUSH0 DUP3 DUP3 MSTORE PUSH1 0x20 DUP3 ADD SWAP1 POP SWAP3 SWAP2 POP POP JUMP JUMPDEST PUSH0 DUP2 SWAP1 POP PUSH1 0x20 DUP3 ADD SWAP1 POP SWAP2 SWAP1 POP JUMP JUMPDEST PUSH2 0x1BAA DUP2 PUSH2 0x1958 JUMP JUMPDEST DUP3 MSTORE POP POP JUMP JUMPDEST PUSH0 PUSH2 0x1BBB DUP4 DUP4 PUSH2 0x1BA1 JUMP JUMPDEST PUSH1 0x20 DUP4 ADD SWAP1 POP SWAP3 SWAP2 POP POP JUMP JUMPDEST PUSH0 PUSH1 0x20 DUP3 ADD SWAP1 POP SWAP2 SWAP1 POP JUMP JUMPDEST PUSH0 PUSH2 0x1BDD DUP3 PUSH2 0x1B78 JUMP JUMPDEST PUSH2 0x1BE7 DUP2 DUP6 PUSH2 0x1B82 JUMP JUMPDEST SWAP4 POP PUSH2 0x1BF2 DUP4 PUSH2 0x1B92 JUMP JUMPDEST DUP1 PUSH0 JUMPDEST DUP4 DUP2 LT ISZERO PUSH2 0x1C22 JUMPI DUP2 MLOAD PUSH2 0x1C09 DUP9 DUP3 PUSH2 0x1BB0 JUMP JUMPDEST SWAP8 POP PUSH2 0x1C14 DUP4 PUSH2 0x1BC7 JUMP JUMPDEST SWAP3 POP POP PUSH1 0x1 DUP2 ADD SWAP1 POP PUSH2 0x1BF5 JUMP JUMPDEST POP DUP6 SWAP4 POP POP POP POP SWAP3 SWAP2 POP POP JUMP JUMPDEST PUSH0 PUSH1 0xE0 DUP3 ADD SWAP1 POP PUSH2 0x1C42 PUSH0 DUP4 ADD DUP11 PUSH2 0x1B5A JUMP JUMPDEST DUP2 DUP2 SUB PUSH1 0x20 DUP4 ADD MSTORE PUSH2 0x1C54 DUP2 DUP10 PUSH2 0x18A2 JUMP JUMPDEST SWAP1 POP DUP2 DUP2 SUB PUSH1 0x40 DUP4 ADD MSTORE PUSH2 0x1C68 DUP2 DUP9 PUSH2 0x18A2 JUMP JUMPDEST SWAP1 POP PUSH2 0x1C77 PUSH1 0x60 DUP4 ADD DUP8 PUSH2 0x19FC JUMP JUMPDEST PUSH2 0x1C84 PUSH1 0x80 DUP4 ADD DUP7 PUSH2 0x1B69 JUMP JUMPDEST PUSH2 0x1C91 PUSH1 0xA0 DUP4 ADD DUP6 PUSH2 0x1AB1 JUMP JUMPDEST DUP2 DUP2 SUB PUSH1 0xC0 DUP4 ADD MSTORE PUSH2 0x1CA3 DUP2 DUP5 PUSH2 0x1BD3 JUMP JUMPDEST SWAP1 POP SWAP9 SWAP8 POP POP POP POP POP POP POP POP JUMP JUMPDEST PUSH0 PUSH1 0x20 DUP3 ADD SWAP1 POP PUSH2 0x1CC4 PUSH0 DUP4 ADD DUP5 PUSH2 0x1B69 JUMP JUMPDEST SWAP3 SWAP2 POP POP JUMP JUMPDEST PUSH0 DUP1 PUSH0 DUP1 PUSH1 0x80 DUP6 DUP8 SUB SLT ISZERO PUSH2 0x1CE2 JUMPI PUSH2 0x1CE1 PUSH2 0x18FA JUMP JUMPDEST JUMPDEST PUSH0 PUSH2 0x1CEF DUP8 DUP3 DUP9 ADD PUSH2 0x1944 JUMP JUMPDEST SWAP5 POP POP PUSH1 0x20 PUSH2 0x1D00 DUP8 DUP3 DUP9 ADD PUSH2 0x1944 JUMP JUMPDEST SWAP4 POP POP PUSH1 0x40 PUSH2 0x1D11 DUP8 DUP3 DUP9 ADD PUSH2 0x1977 JUMP JUMPDEST SWAP3 POP POP PUSH1 0x60 PUSH2 0x1D22 DUP8 DUP3 DUP9 ADD PUSH2 0x1944 JUMP JUMPDEST SWAP2 POP POP SWAP3 SWAP6 SWAP2 SWAP5 POP SWAP3 POP JUMP JUMPDEST PUSH2 0x1D37 DUP2 PUSH2 0x1A74 JUMP JUMPDEST DUP2 EQ PUSH2 0x1D41 JUMPI PUSH0 DUP1 REVERT JUMPDEST POP JUMP JUMPDEST PUSH0 DUP2 CALLDATALOAD SWAP1 POP PUSH2 0x1D52 DUP2 PUSH2 0x1D2E JUMP JUMPDEST SWAP3 SWAP2 POP POP JUMP JUMPDEST PUSH2 0x1D61 DUP2 PUSH2 0x1AA8 JUMP JUMPDEST DUP2 EQ PUSH2 0x1D6B JUMPI PUSH0 DUP1 REVERT JUMPDEST POP JUMP JUMPDEST PUSH0 DUP2 CALLDATALOAD SWAP1 POP PUSH2 0x1D7C DUP2 PUSH2 0x1D58 JUMP JUMPDEST SWAP3 SWAP2 POP POP JUMP JUMPDEST PUSH0 DUP1 PUSH0 DUP1 PUSH0 DUP1 PUSH0 PUSH1 0xE0 DUP9 DUP11 SUB SLT ISZERO PUSH2 0x1D9D JUMPI PUSH2 0x1D9C PUSH2 0x18FA JUMP JUMPDEST JUMPDEST PUSH0 PUSH2 0x1DAA DUP11 DUP3 DUP12 ADD PUSH2 0x1944 JUMP JUMPDEST SWAP8 POP POP PUSH1 0x20 PUSH2 0x1DBB DUP11 DUP3 DUP12 ADD PUSH2 0x1944 JUMP JUMPDEST SWAP7 POP POP PUSH1 0x40 PUSH2 0x1DCC DUP11 DUP3 DUP12 ADD PUSH2 0x1977 JUMP JUMPDEST SWAP6 POP POP PUSH1 0x60 PUSH2 0x1DDD DUP11 DUP3 DUP12 ADD PUSH2 0x1977 JUMP JUMPDEST SWAP5 POP POP PUSH1 0x80 PUSH2 0x1DEE DUP11 DUP3 DUP12 ADD PUSH2 0x1D44 JUMP JUMPDEST SWAP4 POP POP PUSH1 0xA0 PUSH2 0x1DFF DUP11 DUP3 DUP12 ADD PUSH2 0x1D6E JUMP JUMPDEST SWAP3 POP POP PUSH1 0xC0 PUSH2 0x1E10 DUP11 DUP3 DUP12 ADD PUSH2 0x1D6E JUMP JUMPDEST SWAP2 POP POP SWAP3 SWAP6 SWAP9 SWAP2 SWAP5 SWAP8 POP SWAP3 SWAP6 POP JUMP JUMPDEST PUSH0 DUP1 PUSH1 0x40 DUP4 DUP6 SUB SLT ISZERO PUSH2 0x1E35 JUMPI PUSH2 0x1E34 PUSH2 0x18FA JUMP JUMPDEST JUMPDEST PUSH0 PUSH2 0x1E42 DUP6 DUP3 DUP7 ADD PUSH2 0x1944 JUMP JUMPDEST SWAP3 POP POP PUSH1 0x20 PUSH2 0x1E53 DUP6 DUP3 DUP7 ADD PUSH2 0x1944 JUMP JUMPDEST SWAP2 POP POP SWAP3 POP SWAP3 SWAP1 POP JUMP JUMPDEST PUSH32 0x4E487B7100000000000000000000000000000000000000000000000000000000 PUSH0 MSTORE PUSH1 0x22 PUSH1 0x4 MSTORE PUSH1 0x24 PUSH0 REVERT JUMPDEST PUSH0 PUSH1 0x2 DUP3 DIV SWAP1 POP PUSH1 0x1 DUP3 AND DUP1 PUSH2 0x1EA1 JUMPI PUSH1 0x7F DUP3 AND SWAP2 POP JUMPDEST PUSH1 0x20 DUP3 LT DUP2 SUB PUSH2 0x1EB4 JUMPI PUSH2 0x1EB3 PUSH2 0x1E5D JUMP JUMPDEST JUMPDEST POP SWAP2 SWAP1 POP JUMP JUMPDEST PUSH32 0x4E487B7100000000000000000000000000000000000000000000000000000000 PUSH0 MSTORE PUSH1 0x11 PUSH1 0x4 MSTORE PUSH1 0x24 PUSH0 REVERT JUMPDEST PUSH0 DUP2 PUSH1 0x1 SHR SWAP1 POP SWAP2 SWAP1 POP JUMP JUMPDEST PUSH0 DUP1 DUP3 SWAP2 POP DUP4 SWAP1 POP JUMPDEST PUSH1 0x1 DUP6 GT ISZERO PUSH2 0x1F3C JUMPI DUP1 DUP7 DIV DUP2 GT ISZERO PUSH2 0x1F18 JUMPI PUSH2 0x1F17 PUSH2 0x1EBA JUMP JUMPDEST JUMPDEST PUSH1 0x1 DUP6 AND ISZERO PUSH2 0x1F27 JUMPI DUP1 DUP3 MUL SWAP2 POP JUMPDEST DUP1 DUP2 MUL SWAP1 POP PUSH2 0x1F35 DUP6 PUSH2 0x1EE7 JUMP JUMPDEST SWAP5 POP PUSH2 0x1EFC JUMP JUMPDEST SWAP5 POP SWAP5 SWAP3 POP POP POP JUMP JUMPDEST PUSH0 DUP3 PUSH2 0x1F54 JUMPI PUSH1 0x1 SWAP1 POP PUSH2 0x200F JUMP JUMPDEST DUP2 PUSH2 0x1F61 JUMPI PUSH0 SWAP1 POP PUSH2 0x200F JUMP JUMPDEST DUP2 PUSH1 0x1 DUP2 EQ PUSH2 0x1F77 JUMPI PUSH1 0x2 DUP2 EQ PUSH2 0x1F81 JUMPI PUSH2 0x1FB0 JUMP JUMPDEST PUSH1 0x1 SWAP2 POP POP PUSH2 0x200F JUMP JUMPDEST PUSH1 0xFF DUP5 GT ISZERO PUSH2 0x1F93 JUMPI PUSH2 0x1F92 PUSH2 0x1EBA JUMP JUMPDEST JUMPDEST DUP4 PUSH1 0x2 EXP SWAP2 POP DUP5 DUP3 GT ISZERO PUSH2 0x1FAA JUMPI PUSH2 0x1FA9 PUSH2 0x1EBA JUMP JUMPDEST JUMPDEST POP PUSH2 0x200F JUMP JUMPDEST POP PUSH1 0x20 DUP4 LT PUSH2 0x133 DUP4 LT AND PUSH1 0x4E DUP5 LT PUSH1 0xB DUP5 LT AND OR ISZERO PUSH2 0x1FE5 JUMPI DUP3 DUP3 EXP SWAP1 POP DUP4 DUP2 GT ISZERO PUSH2 0x1FE0 JUMPI PUSH2 0x1FDF PUSH2 0x1EBA JUMP JUMPDEST JUMPDEST PUSH2 0x200F JUMP JUMPDEST PUSH2 0x1FF2 DUP5 DUP5 DUP5 PUSH1 0x1 PUSH2 0x1EF3 JUMP JUMPDEST SWAP3 POP SWAP1 POP DUP2 DUP5 DIV DUP2 GT ISZERO PUSH2 0x2009 JUMPI PUSH2 0x2008 PUSH2 0x1EBA JUMP JUMPDEST JUMPDEST DUP2 DUP2 MUL SWAP1 POP JUMPDEST SWAP4 SWAP3 POP POP POP JUMP JUMPDEST PUSH0 PUSH2 0x2020 DUP3 PUSH2 0x1958 JUMP JUMPDEST SWAP2 POP PUSH2 0x202B DUP4 PUSH2 0x1958 JUMP JUMPDEST SWAP3 POP PUSH2 0x2058 PUSH32 0xFFFFFFFFFFFFFFFFFFFFFFFFFFFFFFFFFFFFFFFFFFFFFFFFFFFFFFFFFFFFFFFF DUP5 DUP5 PUSH2 0x1F45 JUMP JUMPDEST SWAP1 POP SWAP3 SWAP2 POP POP JUMP JUMPDEST PUSH0 PUSH2 0x206A DUP3 PUSH2 0x1958 JUMP JUMPDEST SWAP2 POP PUSH2 0x2075 DUP4 PUSH2 0x1958 JUMP JUMPDEST SWAP3 POP DUP3 DUP3 MUL PUSH2 0x2083 DUP2 PUSH2 0x1958 JUMP JUMPDEST SWAP2 POP DUP3 DUP3 DIV DUP5 EQ DUP4 ISZERO OR PUSH2 0x209A JUMPI PUSH2 0x2099 PUSH2 0x1EBA JUMP JUMPDEST JUMPDEST POP SWAP3 SWAP2 POP POP JUMP JUMPDEST PUSH32 0x4E487B7100000000000000000000000000000000000000000000000000000000 PUSH0 MSTORE PUSH1 0x41 PUSH1 0x4 MSTORE PUSH1 0x24 PUSH0 REVERT JUMPDEST PUSH0 PUSH1 0xC0 DUP3 ADD SWAP1 POP PUSH2 0x20E1 PUSH0 DUP4 ADD DUP10 PUSH2 0x1AB1 JUMP JUMPDEST PUSH2 0x20EE PUSH1 0x20 DUP4 ADD DUP9 PUSH2 0x1B69 JUMP JUMPDEST PUSH2 0x20FB PUSH1 0x40 DUP4 ADD DUP8 PUSH2 0x1B69 JUMP JUMPDEST PUSH2 0x2108 PUSH1 0x60 DUP4 ADD DUP7 PUSH2 0x19FC JUMP JUMPDEST PUSH2 0x2115 PUSH1 0x80 DUP4 ADD DUP6 PUSH2 0x19FC JUMP JUMPDEST PUSH2 0x2122 PUSH1 0xA0 DUP4 ADD DUP5 PUSH2 0x19FC JUMP JUMPDEST SWAP8 SWAP7 POP POP POP POP POP POP POP JUMP JUMPDEST PUSH0 PUSH1 0x40 DUP3 ADD SWAP1 POP PUSH2 0x2140 PUSH0 DUP4 ADD DUP6 PUSH2 0x1B69 JUMP JUMPDEST PUSH2 0x214D PUSH1 0x20 DUP4 ADD DUP5 PUSH2 0x1B69 JUMP JUMPDEST SWAP4 SWAP3 POP POP POP JUMP JUMPDEST PUSH0 PUSH1 0x60 DUP3 ADD SWAP1 POP PUSH2 0x2167 PUSH0 DUP4 ADD DUP7 PUSH2 0x1B69 JUMP JUMPDEST PUSH2 0x2174 PUSH1 0x20 DUP4 ADD DUP6 PUSH2 0x19FC JUMP JUMPDEST PUSH2 0x2181 PUSH1 0x40 DUP4 ADD DUP5 PUSH2 0x19FC JUMP JUMPDEST SWAP5 SWAP4 POP POP POP POP JUMP JUMPDEST PUSH0 PUSH2 0x2193 DUP3 PUSH2 0x1958 JUMP JUMPDEST SWAP2 POP PUSH2 0x219E DUP4 PUSH2 0x1958 JUMP JUMPDEST SWAP3 POP DUP3 DUP3 ADD SWAP1 POP DUP1 DUP3 GT ISZERO PUSH2 0x21B6 JUMPI PUSH2 0x21B5 PUSH2 0x1EBA JUMP JUMPDEST JUMPDEST SWAP3 SWAP2 POP POP JUMP JUMPDEST PUSH0 PUSH1 0xA0 DUP3 ADD SWAP1 POP PUSH2 0x21CF PUSH0 DUP4 ADD DUP9 PUSH2 0x1AB1 JUMP JUMPDEST PUSH2 0x21DC PUSH1 0x20 DUP4 ADD DUP8 PUSH2 0x1AB1 JUMP JUMPDEST PUSH2 0x21E9 PUSH1 0x40 DUP4 ADD DUP7 PUSH2 0x1AB1 JUMP JUMPDEST PUSH2 0x21F6 PUSH1 0x60 DUP4 ADD DUP6 PUSH2 0x19FC JUMP JUMPDEST PUSH2 0x2203 PUSH1 0x80 DUP4 ADD DUP5 PUSH2 0x1B69 JUMP JUMPDEST SWAP7 SWAP6 POP POP POP POP POP POP JUMP JUMPDEST PUSH0 PUSH1 0x80 DUP3 ADD SWAP1 POP PUSH2 0x2220 PUSH0 DUP4 ADD DUP8 PUSH2 0x1AB1 JUMP JUMPDEST PUSH2 0x222D PUSH1 0x20 DUP4 ADD DUP7 PUSH2 0x1A80 JUMP JUMPDEST PUSH2 0x223A PUSH1 0x40 DUP4 ADD DUP6 PUSH2 0x1AB1 JUMP JUMPDEST PUSH2 0x2247 PUSH1 0x60 DUP4 ADD DUP5 PUSH2 0x1AB1 JUMP JUMPDEST SWAP6 SWAP5 POP POP POP POP POP JUMP JUMPDEST PUSH32 0x4E487B7100000000000000000000000000000000000000000000000000000000 PUSH0 MSTORE PUSH1 0x21 PUSH1 0x4 MSTORE PUSH1 0x24 PUSH0 REVERT INVALID LOG2 PUSH5 0x6970667358 0x22 SLT KECCAK256 0xB0 MSTORE8 PUSH1 0xC7 0xE MOD BALANCE GT AND RETURN EXTCODEHASH CALLER 0xC PUSH0 LOG4 SWAP9 0xE3 DIV SELFBALANCE PUSH18 0x2803888829CD72C6F80839E864736F6C6343 STOP ADDMOD XOR STOP CALLER "
				},
				"gasEstimates": {
					"creation": {
						"codeDepositCost": "1776600",
						"executionCost": "infinite",
						"totalCost": "infinite"
					},
					"external": {
						"DOMAIN_SEPARATOR()": "infinite",
						"allowance(address,address)": "infinite",
						"approve(address,uint256)": "infinite",
						"balanceOf(address)": "2918",
						"burn(uint256)": "infinite",
						"burnFrom(address,uint256)": "infinite",
						"decimals()": "450",
						"eip712Domain()": "infinite",
						"mint(address,uint256)": "infinite",
						"name()": "infinite",
						"nonces(address)": "2916",
						"owner()": "2604",
						"permit(address,address,uint256,uint256,uint8,bytes32,bytes32)": "infinite",
						"renounceOwnership()": "infinite",
						"symbol()": "infinite",
						"totalSupply()": "2500",
						"transfer(address,uint256)": "infinite",
						"transferFrom(address,address,uint256)": "infinite",
						"transferOwnership(address)": "infinite",
						"transferParticipationToken(address,address,uint256,address)": "infinite"
					}
				},
				"methodIdentifiers": {
					"DOMAIN_SEPARATOR()": "3644e515",
					"allowance(address,address)": "dd62ed3e",
					"approve(address,uint256)": "095ea7b3",
					"balanceOf(address)": "70a08231",
					"burn(uint256)": "42966c68",
					"burnFrom(address,uint256)": "79cc6790",
					"decimals()": "313ce567",
					"eip712Domain()": "84b0196e",
					"mint(address,uint256)": "40c10f19",
					"name()": "06fdde03",
					"nonces(address)": "7ecebe00",
					"owner()": "8da5cb5b",
					"permit(address,address,uint256,uint256,uint8,bytes32,bytes32)": "d505accf",
					"renounceOwnership()": "715018a6",
					"symbol()": "95d89b41",
					"totalSupply()": "18160ddd",
					"transfer(address,uint256)": "a9059cbb",
					"transferFrom(address,address,uint256)": "23b872dd",
					"transferOwnership(address)": "f2fde38b",
					"transferParticipationToken(address,address,uint256,address)": "abd81ca2"
				}
			},
			"storageLayout": {
				"storage": [
					{
						"astId": 2917,
						"contract": "contracts/ParticipationToken_flattened.sol:ParticipationToken",
						"label": "_balances",
						"offset": 0,
						"slot": "0",
						"type": "t_mapping(t_address,t_uint256)"
					},
					{
						"astId": 2923,
						"contract": "contracts/ParticipationToken_flattened.sol:ParticipationToken",
						"label": "_allowances",
						"offset": 0,
						"slot": "1",
						"type": "t_mapping(t_address,t_mapping(t_address,t_uint256))"
					},
					{
						"astId": 2925,
						"contract": "contracts/ParticipationToken_flattened.sol:ParticipationToken",
						"label": "_totalSupply",
						"offset": 0,
						"slot": "2",
						"type": "t_uint256"
					},
					{
						"astId": 2927,
						"contract": "contracts/ParticipationToken_flattened.sol:ParticipationToken",
						"label": "_name",
						"offset": 0,
						"slot": "3",
						"type": "t_string_storage"
					},
					{
						"astId": 2929,
						"contract": "contracts/ParticipationToken_flattened.sol:ParticipationToken",
						"label": "_symbol",
						"offset": 0,
						"slot": "4",
						"type": "t_string_storage"
					},
					{
						"astId": 2664,
						"contract": "contracts/ParticipationToken_flattened.sol:ParticipationToken",
						"label": "_owner",
						"offset": 0,
						"slot": "5",
						"type": "t_address"
					},
					{
						"astId": 1921,
						"contract": "contracts/ParticipationToken_flattened.sol:ParticipationToken",
						"label": "_nameFallback",
						"offset": 0,
						"slot": "6",
						"type": "t_string_storage"
					},
					{
						"astId": 1923,
						"contract": "contracts/ParticipationToken_flattened.sol:ParticipationToken",
						"label": "_versionFallback",
						"offset": 0,
						"slot": "7",
						"type": "t_string_storage"
					},
					{
						"astId": 13,
						"contract": "contracts/ParticipationToken_flattened.sol:ParticipationToken",
						"label": "_nonces",
						"offset": 0,
						"slot": "8",
						"type": "t_mapping(t_address,t_uint256)"
					}
				],
				"types": {
					"t_address": {
						"encoding": "inplace",
						"label": "address",
						"numberOfBytes": "20"
					},
					"t_mapping(t_address,t_mapping(t_address,t_uint256))": {
						"encoding": "mapping",
						"key": "t_address",
						"label": "mapping(address => mapping(address => uint256))",
						"numberOfBytes": "32",
						"value": "t_mapping(t_address,t_uint256)"
					},
					"t_mapping(t_address,t_uint256)": {
						"encoding": "mapping",
						"key": "t_address",
						"label": "mapping(address => uint256)",
						"numberOfBytes": "32",
						"value": "t_uint256"
					},
					"t_string_storage": {
						"encoding": "bytes",
						"label": "string",
						"numberOfBytes": "32"
					},
					"t_uint256": {
						"encoding": "inplace",
						"label": "uint256",
						"numberOfBytes": "32"
					}
				}
			},
			"userdoc": {
				"kind": "user",
				"methods": {},
				"version": 1
			}
		}
	}
}