{
	"data": {
		"bytecode": {
			"linkReferences": {},
			"object": "608060405234801562000010575f80fd5b50604051620030cd380380620030cd83398181016040528101906200003691906200074a565b8660025f6101000a81548173ffffffffffffffffffffffffffffffffffffffff021916908373ffffffffffffffffffffffffffffffffffffffff16021790555060025f9054906101000a900473ffffffffffffffffffffffffffffffffffffffff165f806101000a81548173ffffffffffffffffffffffffffffffffffffffff021916908373ffffffffffffffffffffffffffffffffffffffff1602179055508560035f6101000a81548173ffffffffffffffffffffffffffffffffffffffff021916908373ffffffffffffffffffffffffffffffffffffffff16021790555060035f9054906101000a900473ffffffffffffffffffffffffffffffffffffffff1660015f6101000a81548173ffffffffffffffffffffffffffffffffffffffff021916908373ffffffffffffffffffffffffffffffffffffffff16021790555033600b5f6101000a81548173ffffffffffffffffffffffffffffffffffffffff021916908373ffffffffffffffffffffffffffffffffffffffff1602179055508442620001c5919062000844565b60048190555082600860016101000a81548173ffffffffffffffffffffffffffffffffffffffff021916908373ffffffffffffffffffffffffffffffffffffffff16021790555081600a5f6101000a81548173ffffffffffffffffffffffffffffffffffffffff021916908373ffffffffffffffffffffffffffffffffffffffff1602179055508060095f6101000a81548173ffffffffffffffffffffffffffffffffffffffff021916908373ffffffffffffffffffffffffffffffffffffffff1602179055505f5b84518110156200032257600d6040518060400160405280878481518110620002bb57620002ba6200087e565b5b602002602001015181526020015f815250908060018154018082558091505060019003905f5260205f2090600202015f909190919091505f820151815f01908162000307919062000ad9565b5060208201518160010155505080806001019150506200028e565b506040518060400160405280600a81526020017f506f6f6c205461626c650000000000000000000000000000000000000000000081525060075f8081526020019081526020015f20908162000378919062000ad9565b506040518060400160405280601281526020017f5461626c652054656e6e6973205461626c65000000000000000000000000000081525060075f600181526020019081526020015f209081620003cf919062000ad9565b506040518060400160405280600e81526020017f466f6f7362616c6c205461626c6500000000000000000000000000000000000081525060075f600281526020019081526020015f20908162000426919062000ad9565b505050505050505062000bbd565b5f604051905090565b5f80fd5b5f80fd5b5f73ffffffffffffffffffffffffffffffffffffffff82169050919050565b5f620004708262000445565b9050919050565b620004828162000464565b81146200048d575f80fd5b50565b5f81519050620004a08162000477565b92915050565b5f819050919050565b620004ba81620004a6565b8114620004c5575f80fd5b50565b5f81519050620004d881620004af565b92915050565b5f80fd5b5f601f19601f8301169050919050565b7f4e487b71000000000000000000000000000000000000000000000000000000005f52604160045260245ffd5b6200052a82620004e2565b810181811067ffffffffffffffff821117156200054c576200054b620004f2565b5b80604052505050565b5f6200056062000434565b90506200056e82826200051f565b919050565b5f67ffffffffffffffff82111562000590576200058f620004f2565b5b602082029050602081019050919050565b5f80fd5b5f80fd5b5f67ffffffffffffffff821115620005c657620005c5620004f2565b5b620005d182620004e2565b9050602081019050919050565b5f5b83811015620005fd578082015181840152602081019050620005e0565b5f8484015250505050565b5f6200061e6200061884620005a9565b62000555565b9050828152602081018484840111156200063d576200063c620005a5565b5b6200064a848285620005de565b509392505050565b5f82601f830112620006695762000668620004de565b5b81516200067b84826020860162000608565b91505092915050565b5f6200069a620006948462000573565b62000555565b90508083825260208201905060208402830185811115620006c057620006bf620005a1565b5b835b818110156200070e57805167ffffffffffffffff811115620006e957620006e8620004de565b5b808601620006f8898262000652565b85526020850194505050602081019050620006c2565b5050509392505050565b5f82601f8301126200072f576200072e620004de565b5b81516200074184826020860162000684565b91505092915050565b5f805f805f805f60e0888a0312156200076857620007676200043d565b5b5f620007778a828b0162000490565b97505060206200078a8a828b0162000490565b96505060406200079d8a828b01620004c8565b955050606088015167ffffffffffffffff811115620007c157620007c062000441565b5b620007cf8a828b0162000718565b9450506080620007e28a828b0162000490565b93505060a0620007f58a828b0162000490565b92505060c0620008088a828b0162000490565b91505092959891949750929550565b7f4e487b71000000000000000000000000000000000000000000000000000000005f52601160045260245ffd5b5f6200085082620004a6565b91506200085d83620004a6565b925082820190508082111562000878576200087762000817565b5b92915050565b7f4e487b71000000000000000000000000000000000000000000000000000000005f52603260045260245ffd5b5f81519050919050565b7f4e487b71000000000000000000000000000000000000000000000000000000005f52602260045260245ffd5b5f6002820490506001821680620008fa57607f821691505b60208210810362000910576200090f620008b5565b5b50919050565b5f819050815f5260205f209050919050565b5f6020601f8301049050919050565b5f82821b905092915050565b5f60088302620009747fffffffffffffffffffffffffffffffffffffffffffffffffffffffffffffffff8262000937565b62000980868362000937565b95508019841693508086168417925050509392505050565b5f819050919050565b5f620009c1620009bb620009b584620004a6565b62000998565b620004a6565b9050919050565b5f819050919050565b620009dc83620009a1565b620009f4620009eb82620009c8565b84845462000943565b825550505050565b5f90565b62000a0a620009fc565b62000a17818484620009d1565b505050565b5b8181101562000a3e5762000a325f8262000a00565b60018101905062000a1d565b5050565b601f82111562000a8d5762000a578162000916565b62000a628462000928565b8101602085101562000a72578190505b62000a8a62000a818562000928565b83018262000a1c565b50505b505050565b5f82821c905092915050565b5f62000aaf5f198460080262000a92565b1980831691505092915050565b5f62000ac9838362000a9e565b9150826002028217905092915050565b62000ae482620008ab565b67ffffffffffffffff81111562000b005762000aff620004f2565b5b62000b0c8254620008e2565b62000b1982828562000a42565b5f60209050601f83116001811462000b4f575f841562000b3a578287015190505b62000b46858262000abc565b86555062000bb5565b601f19841662000b5f8662000916565b5f5b8281101562000b885784890151825560018201915060208501945060208101905062000b61565b8683101562000ba8578489015162000ba4601f89168262000a9e565b8355505b6001600288020188555050505b505050505050565b6125028062000bcb5f395ff3fe608060405260043610610113575f3560e01c806372a413a91161009f578063c54e88bd11610063578063c54e88bd14610363578063c7e8c9401461038d578063ccffb0fd146103c9578063e4d7c28c146103f3578063e4e37dd91461041d57610113565b806372a413a9146102925780639e6cb42b146102a8578063a1b2d093146102d2578063a3ec138d146102fc578063b1ad59791461033957610113565b80631a6cd2fd116100e65780631a6cd2fd146101d05780632e4176cf146101fa5780633c99bb55146102245780635b37930b146102605780636b7d8d601461026a57610113565b80630121b93f14610117578063013cf08b1461013f578063113561841461017c57806312fa6feb146101a6575b5f80fd5b348015610122575f80fd5b5061013d60048036038101906101389190611524565b610447565b005b34801561014a575f80fd5b5061016560048036038101906101609190611524565b610790565b6040516101739291906115e8565b60405180910390f35b348015610187575f80fd5b50610190610845565b60405161019d9190611690565b60405180910390f35b3480156101b1575f80fd5b506101ba61086a565b6040516101c791906116c3565b60405180910390f35b3480156101db575f80fd5b506101e461087c565b6040516101f191906116dc565b60405180910390f35b348015610205575f80fd5b5061020e610959565b60405161021b9190611715565b60405180910390f35b34801561022f575f80fd5b5061024a6004803603810190610245919061185a565b61097e565b60405161025791906116dc565b60405180910390f35b610268610a20565b005b348015610275575f80fd5b50610290600480360381019061028b91906118cb565b610c3c565b005b34801561029d575f80fd5b506102a6610f8a565b005b3480156102b3575f80fd5b506102bc61134b565b6040516102c991906116dc565b60405180910390f35b3480156102dd575f80fd5b506102e6611351565b6040516102f39190611715565b60405180910390f35b348015610307575f80fd5b50610322600480360381019061031d9190611925565b611376565b604051610330929190611950565b60405180910390f35b348015610344575f80fd5b5061034d6113a2565b60405161035a91906116dc565b60405180910390f35b34801561036e575f80fd5b506103776113a8565b6040516103849190611997565b60405180910390f35b348015610398575f80fd5b506103b360048036038101906103ae9190611524565b6113ce565b6040516103c091906119b0565b60405180910390f35b3480156103d4575f80fd5b506103dd611469565b6040516103ea91906119f0565b60405180910390f35b3480156103fe575f80fd5b5061040761148e565b60405161041491906116dc565b60405180910390f35b348015610428575f80fd5b50610431611494565b60405161043e9190611715565b60405180910390f35b600454421061048b576040517f08c379a000000000000000000000000000000000000000000000000000000000815260040161048290611a53565b60405180910390fd5b5f600c5f3373ffffffffffffffffffffffffffffffffffffffff1673ffffffffffffffffffffffffffffffffffffffff1681526020019081526020015f2090505f600860019054906101000a900473ffffffffffffffffffffffffffffffffffffffff1673ffffffffffffffffffffffffffffffffffffffff166370a08231336040518263ffffffff1660e01b81526004016105279190611715565b602060405180830381865afa158015610542573d5f803e3d5ffd5b505050506040513d601f19601f820116820180604052508101906105669190611a85565b116105a6576040517f08c379a000000000000000000000000000000000000000000000000000000000815260040161059d90611afa565b60405180910390fd5b805f015f9054906101000a900460ff16156105f6576040517f08c379a00000000000000000000000000000000000000000000000000000000081526004016105ed90611b62565b60405180910390fd5b6001815f015f6101000a81548160ff021916908315150217905550818160010181905550600860019054906101000a900473ffffffffffffffffffffffffffffffffffffffff1673ffffffffffffffffffffffffffffffffffffffff166370a08231336040518263ffffffff1660e01b81526004016106759190611715565b602060405180830381865afa158015610690573d5f803e3d5ffd5b505050506040513d601f19601f820116820180604052508101906106b49190611a85565b600d83815481106106c8576106c7611b80565b5b905f5260205f2090600202016001015f8282546106e59190611bda565b9250508190555060095f9054906101000a900473ffffffffffffffffffffffffffffffffffffffff1673ffffffffffffffffffffffffffffffffffffffff16634cd83d75303360016040518463ffffffff1660e01b815260040161074b93929190611c46565b6020604051808303815f875af1158015610767573d5f803e3d5ffd5b505050506040513d601f19601f8201168201806040525081019061078b9190611ca5565b505050565b600d818154811061079f575f80fd5b905f5260205f2090600202015f91509050805f0180546107be90611cfd565b80601f01602080910402602001604051908101604052809291908181526020018280546107ea90611cfd565b80156108355780601f1061080c57610100808354040283529160200191610835565b820191905f5260205f20905b81548152906001019060200180831161081857829003601f168201915b5050505050908060010154905082565b60095f9054906101000a900473ffffffffffffffffffffffffffffffffffffffff1681565b60085f9054906101000a900460ff1681565b5f60045442116108c1576040517f08c379a00000000000000000000000000000000000000000000000000000000081526004016108b890611d77565b60405180910390fd5b5f805b600d805490508110156109545781600d82815481106108e6576108e5611b80565b5b905f5260205f20906002020160010154111561094757600d81815481106109105761090f611b80565b5b905f5260205f20906002020160010154915080925082600681905550600160085f6101000a81548160ff0219169083151502179055505b80806001019150506108c4565b505090565b600b5f9054906101000a900473ffffffffffffffffffffffffffffffffffffffff1681565b5f805f9054906101000a900473ffffffffffffffffffffffffffffffffffffffff1673ffffffffffffffffffffffffffffffffffffffff166313fa9b2330846040518363ffffffff1660e01b81526004016109da929190611d95565b602060405180830381865afa1580156109f5573d5f803e3d5ffd5b505050506040513d601f19601f82011682018060405250810190610a199190611a85565b9050919050565b600454421115610a5c576040517f173b751500000000000000000000000000000000000000000000000000000000815260040160405180910390fd5b5f6004600a610a6b9190611ef2565b34610a769190611f3c565b9050600860019054906101000a900473ffffffffffffffffffffffffffffffffffffffff1673ffffffffffffffffffffffffffffffffffffffff1663095ea7b330836040518363ffffffff1660e01b8152600401610ad5929190611f7d565b6020604051808303815f875af1158015610af1573d5f803e3d5ffd5b505050506040513d601f19601f82011682018060405250810190610b159190611ca5565b610b54576040517f08c379a0000000000000000000000000000000000000000000000000000000008152600401610b4b90611fee565b60405180910390fd5b600860019054906101000a900473ffffffffffffffffffffffffffffffffffffffff1673ffffffffffffffffffffffffffffffffffffffff166323b872dd3033846040518463ffffffff1660e01b8152600401610bb39392919061200c565b6020604051808303815f875af1158015610bcf573d5f803e3d5ffd5b505050506040513d601f19601f82011682018060405250810190610bf39190611ca5565b610c32576040517f08c379a0000000000000000000000000000000000000000000000000000000008152600401610c299061208b565b60405180910390fd5b4760058190555050565b5f60015f9054906101000a900473ffffffffffffffffffffffffffffffffffffffff1673ffffffffffffffffffffffffffffffffffffffff166398f9efd9846040518263ffffffff1660e01b8152600401610c9791906119b0565b602060405180830381865afa158015610cb2573d5f803e3d5ffd5b505050506040513d601f19601f82011682018060405250810190610cd69190611a85565b9050610d17836040518060400160405280600d81526020017f47796d4d656d62657273686970000000000000000000000000000000000000008152506114b9565b15610f4a57670de0b6b3a764000081610d309190611f3c565b60095f9054906101000a900473ffffffffffffffffffffffffffffffffffffffff1673ffffffffffffffffffffffffffffffffffffffff166370a08231846040518263ffffffff1660e01b8152600401610d8a9190611715565b602060405180830381865afa158015610da5573d5f803e3d5ffd5b505050506040513d601f19601f82011682018060405250810190610dc99190611a85565b1015610e0a576040517f08c379a0000000000000000000000000000000000000000000000000000000008152600401610e01906120f3565b60405180910390fd5b60095f9054906101000a900473ffffffffffffffffffffffffffffffffffffffff1673ffffffffffffffffffffffffffffffffffffffff166323b872dd8330670de0b6b3a764000085610e5d9190611f3c565b6040518463ffffffff1660e01b8152600401610e7b9392919061200c565b6020604051808303815f875af1158015610e97573d5f803e3d5ffd5b505050506040513d601f19601f82011682018060405250810190610ebb9190611ca5565b5060015f9054906101000a900473ffffffffffffffffffffffffffffffffffffffff1673ffffffffffffffffffffffffffffffffffffffff166303ce30e784846040518363ffffffff1660e01b8152600401610f18929190612111565b5f604051808303815f87803b158015610f2f575f80fd5b505af1158015610f41573d5f803e3d5ffd5b50505050610f85565b6040517f08c379a0000000000000000000000000000000000000000000000000000000008152600401610f7c90612189565b60405180910390fd5b505050565b5f6004600860019054906101000a900473ffffffffffffffffffffffffffffffffffffffff1673ffffffffffffffffffffffffffffffffffffffff1663313ce5676040518163ffffffff1660e01b8152600401602060405180830381865afa158015610ff8573d5f803e3d5ffd5b505050506040513d601f19601f8201168201806040525081019061101c91906121dd565b60ff166110299190612208565b600a6110359190611ef2565b5f8054906101000a900473ffffffffffffffffffffffffffffffffffffffff1673ffffffffffffffffffffffffffffffffffffffff16632cde4c5060075f60065481526020019081526020015f206040518263ffffffff1660e01b815260040161109f91906122ce565b602060405180830381865afa1580156110ba573d5f803e3d5ffd5b505050506040513d601f19601f820116820180604052508101906110de9190611a85565b6110e89190611f3c565b9050600454421161112e576040517f08c379a000000000000000000000000000000000000000000000000000000000815260040161112590611d77565b60405180910390fd5b6001151560085f9054906101000a900460ff16151514611183576040517f08c379a000000000000000000000000000000000000000000000000000000000815260040161117a90612338565b60405180910390fd5b8060055410156111c8576040517f08c379a00000000000000000000000000000000000000000000000000000000081526004016111bf906123c6565b60405180910390fd5b8060055410156111d6575f80fd5b5f60025f9054906101000a900473ffffffffffffffffffffffffffffffffffffffff1673ffffffffffffffffffffffffffffffffffffffff168260075f60065481526020019081526020015f2060405160240161123391906122ce565b6040516020818303038152906040527f59f5e0ce000000000000000000000000000000000000000000000000000000007bffffffffffffffffffffffffffffffffffffffffffffffffffffffff19166020820180517bffffffffffffffffffffffffffffffffffffffffffffffffffffffff83818316178352505050506040516112bd9190612428565b5f6040518083038185875af1925050503d805f81146112f7576040519150601f19603f3d011682016040523d82523d5f602084013e6112fc565b606091505b5050905080611340576040517f08c379a0000000000000000000000000000000000000000000000000000000008152600401611337906124ae565b60405180910390fd5b476005819055505050565b60045481565b60025f9054906101000a900473ffffffffffffffffffffffffffffffffffffffff1681565b600c602052805f5260405f205f91509050805f015f9054906101000a900460ff16908060010154905082565b60055481565b600860019054906101000a900473ffffffffffffffffffffffffffffffffffffffff1681565b6007602052805f5260405f205f9150905080546113ea90611cfd565b80601f016020809104026020016040519081016040528092919081815260200182805461141690611cfd565b80156114615780601f1061143857610100808354040283529160200191611461565b820191905f5260205f20905b81548152906001019060200180831161144457829003601f168201915b505050505081565b600a5f9054906101000a900473ffffffffffffffffffffffffffffffffffffffff1681565b60065481565b60035f9054906101000a900473ffffffffffffffffffffffffffffffffffffffff1681565b5f815183511480156114d8575081805190602001208380519060200120145b905092915050565b5f604051905090565b5f80fd5b5f80fd5b5f819050919050565b611503816114f1565b811461150d575f80fd5b50565b5f8135905061151e816114fa565b92915050565b5f60208284031215611539576115386114e9565b5b5f61154684828501611510565b91505092915050565b5f81519050919050565b5f82825260208201905092915050565b5f5b8381101561158657808201518184015260208101905061156b565b5f8484015250505050565b5f601f19601f8301169050919050565b5f6115ab8261154f565b6115b58185611559565b93506115c5818560208601611569565b6115ce81611591565b840191505092915050565b6115e2816114f1565b82525050565b5f6040820190508181035f83015261160081856115a1565b905061160f60208301846115d9565b9392505050565b5f73ffffffffffffffffffffffffffffffffffffffff82169050919050565b5f819050919050565b5f61165861165361164e84611616565b611635565b611616565b9050919050565b5f6116698261163e565b9050919050565b5f61167a8261165f565b9050919050565b61168a81611670565b82525050565b5f6020820190506116a35f830184611681565b92915050565b5f8115159050919050565b6116bd816116a9565b82525050565b5f6020820190506116d65f8301846116b4565b92915050565b5f6020820190506116ef5f8301846115d9565b92915050565b5f6116ff82611616565b9050919050565b61170f816116f5565b82525050565b5f6020820190506117285f830184611706565b92915050565b5f80fd5b5f80fd5b7f4e487b71000000000000000000000000000000000000000000000000000000005f52604160045260245ffd5b61176c82611591565b810181811067ffffffffffffffff8211171561178b5761178a611736565b5b80604052505050565b5f61179d6114e0565b90506117a98282611763565b919050565b5f67ffffffffffffffff8211156117c8576117c7611736565b5b6117d182611591565b9050602081019050919050565b828183375f83830152505050565b5f6117fe6117f9846117ae565b611794565b90508281526020810184848401111561181a57611819611732565b5b6118258482856117de565b509392505050565b5f82601f8301126118415761184061172e565b5b81356118518482602086016117ec565b91505092915050565b5f6020828403121561186f5761186e6114e9565b5b5f82013567ffffffffffffffff81111561188c5761188b6114ed565b5b6118988482850161182d565b91505092915050565b6118aa816116f5565b81146118b4575f80fd5b50565b5f813590506118c5816118a1565b92915050565b5f80604083850312156118e1576118e06114e9565b5b5f83013567ffffffffffffffff8111156118fe576118fd6114ed565b5b61190a8582860161182d565b925050602061191b858286016118b7565b9150509250929050565b5f6020828403121561193a576119396114e9565b5b5f611947848285016118b7565b91505092915050565b5f6040820190506119635f8301856116b4565b61197060208301846115d9565b9392505050565b5f6119818261165f565b9050919050565b61199181611977565b82525050565b5f6020820190506119aa5f830184611988565b92915050565b5f6020820190508181035f8301526119c881846115a1565b905092915050565b5f6119da8261165f565b9050919050565b6119ea816119d0565b82525050565b5f602082019050611a035f8301846119e1565b92915050565b7f566f74696e6720706572696f642068617320656e6465640000000000000000005f82015250565b5f611a3d601783611559565b9150611a4882611a09565b602082019050919050565b5f6020820190508181035f830152611a6a81611a31565b9050919050565b5f81519050611a7f816114fa565b92915050565b5f60208284031215611a9a57611a996114e9565b5b5f611aa784828501611a71565b91505092915050565b7f486173206e6f20726967687420746f20766f74650000000000000000000000005f82015250565b5f611ae4601483611559565b9150611aef82611ab0565b602082019050919050565b5f6020820190508181035f830152611b1181611ad8565b9050919050565b7f53656e64657220616c726561647920766f7465642e00000000000000000000005f82015250565b5f611b4c601583611559565b9150611b5782611b18565b602082019050919050565b5f6020820190508181035f830152611b7981611b40565b9050919050565b7f4e487b71000000000000000000000000000000000000000000000000000000005f52603260045260245ffd5b7f4e487b71000000000000000000000000000000000000000000000000000000005f52601160045260245ffd5b5f611be4826114f1565b9150611bef836114f1565b9250828201905080821115611c0757611c06611bad565b5b92915050565b5f819050919050565b5f611c30611c2b611c2684611c0d565b611635565b6114f1565b9050919050565b611c4081611c16565b82525050565b5f606082019050611c595f830186611706565b611c666020830185611706565b611c736040830184611c37565b949350505050565b611c84816116a9565b8114611c8e575f80fd5b50565b5f81519050611c9f81611c7b565b92915050565b5f60208284031215611cba57611cb96114e9565b5b5f611cc784828501611c91565b91505092915050565b7f4e487b71000000000000000000000000000000000000000000000000000000005f52602260045260245ffd5b5f6002820490506001821680611d1457607f821691505b602082108103611d2757611d26611cd0565b5b50919050565b7f566f7465206e6f742079657420656e6465642e000000000000000000000000005f82015250565b5f611d61601383611559565b9150611d6c82611d2d565b602082019050919050565b5f6020820190508181035f830152611d8e81611d55565b9050919050565b5f604082019050611da85f830185611706565b8181036020830152611dba81846115a1565b90509392505050565b5f8160011c9050919050565b5f808291508390505b6001851115611e1857808604811115611df457611df3611bad565b5b6001851615611e035780820291505b8081029050611e1185611dc3565b9450611dd8565b94509492505050565b5f82611e305760019050611eeb565b81611e3d575f9050611eeb565b8160018114611e535760028114611e5d57611e8c565b6001915050611eeb565b60ff841115611e6f57611e6e611bad565b5b8360020a915084821115611e8657611e85611bad565b5b50611eeb565b5060208310610133831016604e8410600b8410161715611ec15782820a905083811115611ebc57611ebb611bad565b5b611eeb565b611ece8484846001611dcf565b92509050818404811115611ee557611ee4611bad565b5b81810290505b9392505050565b5f611efc826114f1565b9150611f07836114f1565b9250611f347fffffffffffffffffffffffffffffffffffffffffffffffffffffffffffffffff8484611e21565b905092915050565b5f611f46826114f1565b9150611f51836114f1565b9250828202611f5f816114f1565b91508282048414831517611f7657611f75611bad565b5b5092915050565b5f604082019050611f905f830185611706565b611f9d60208301846115d9565b9392505050565b7f417070726f7665206661696c65640000000000000000000000000000000000005f82015250565b5f611fd8600e83611559565b9150611fe382611fa4565b602082019050919050565b5f6020820190508181035f83015261200581611fcc565b9050919050565b5f60608201905061201f5f830186611706565b61202c6020830185611706565b61203960408301846115d9565b949350505050565b7f5472616e73666572206661696c656400000000000000000000000000000000005f82015250565b5f612075600f83611559565b915061208082612041565b602082019050919050565b5f6020820190508181035f8301526120a281612069565b9050919050565b7f496e737566666963656e742062616c616e6365000000000000000000000000005f82015250565b5f6120dd601383611559565b91506120e8826120a9565b602082019050919050565b5f6020820190508181035f83015261210a816120d1565b9050919050565b5f6040820190508181035f83015261212981856115a1565b90506121386020830184611706565b9392505050565b7f496e76616c69642063686f6963650000000000000000000000000000000000005f82015250565b5f612173600e83611559565b915061217e8261213f565b602082019050919050565b5f6020820190508181035f8301526121a081612167565b9050919050565b5f60ff82169050919050565b6121bc816121a7565b81146121c6575f80fd5b50565b5f815190506121d7816121b3565b92915050565b5f602082840312156121f2576121f16114e9565b5b5f6121ff848285016121c9565b91505092915050565b5f612212826114f1565b915061221d836114f1565b925082820390508181111561223557612234611bad565b5b92915050565b5f819050815f5260205f209050919050565b5f815461225981611cfd565b6122638186611559565b9450600182165f811461227d5760018114612293576122c5565b60ff1983168652811515602002860193506122c5565b61229c8561223b565b5f5b838110156122bd5781548189015260018201915060208101905061229e565b808801955050505b50505092915050565b5f6020820190508181035f8301526122e6818461224d565b905092915050565b7f4d75737420636f756e7420766f746520666972737400000000000000000000005f82015250565b5f612322601583611559565b915061232d826122ee565b602082019050919050565b5f6020820190508181035f83015261234f81612316565b9050919050565b7f4e6f7420656e6f7567682062616c616e636520696e2044414f207265717569725f8201527f656420746f206275792074686520766f746564206974656d0000000000000000602082015250565b5f6123b0603883611559565b91506123bb82612356565b604082019050919050565b5f6020820190508181035f8301526123dd816123a4565b9050919050565b5f81519050919050565b5f81905092915050565b5f612402826123e4565b61240c81856123ee565b935061241c818560208601611569565b80840191505092915050565b5f61243382846123f8565b915081905092915050565b7f4661696c656420746f2065786563757465207075726368617365207472616e735f8201527f616374696f6e2e00000000000000000000000000000000000000000000000000602082015250565b5f612498602783611559565b91506124a38261243e565b604082019050919050565b5f6020820190508181035f8301526124c58161248c565b905091905056fea2646970667358221220511f9fb60541b252e03c95232d363322e4a00bcbead2b9000cfb14cfcac49a3864736f6c63430008180033",
			"opcodes": "PUSH1 0x80 PUSH1 0x40 MSTORE CALLVALUE DUP1 ISZERO PUSH3 0x10 JUMPI PUSH0 DUP1 REVERT JUMPDEST POP PUSH1 0x40 MLOAD PUSH3 0x30CD CODESIZE SUB DUP1 PUSH3 0x30CD DUP4 CODECOPY DUP2 DUP2 ADD PUSH1 0x40 MSTORE DUP2 ADD SWAP1 PUSH3 0x36 SWAP2 SWAP1 PUSH3 0x74A JUMP JUMPDEST DUP7 PUSH1 0x2 PUSH0 PUSH2 0x100 EXP DUP2 SLOAD DUP2 PUSH20 0xFFFFFFFFFFFFFFFFFFFFFFFFFFFFFFFFFFFFFFFF MUL NOT AND SWAP1 DUP4 PUSH20 0xFFFFFFFFFFFFFFFFFFFFFFFFFFFFFFFFFFFFFFFF AND MUL OR SWAP1 SSTORE POP PUSH1 0x2 PUSH0 SWAP1 SLOAD SWAP1 PUSH2 0x100 EXP SWAP1 DIV PUSH20 0xFFFFFFFFFFFFFFFFFFFFFFFFFFFFFFFFFFFFFFFF AND PUSH0 DUP1 PUSH2 0x100 EXP DUP2 SLOAD DUP2 PUSH20 0xFFFFFFFFFFFFFFFFFFFFFFFFFFFFFFFFFFFFFFFF MUL NOT AND SWAP1 DUP4 PUSH20 0xFFFFFFFFFFFFFFFFFFFFFFFFFFFFFFFFFFFFFFFF AND MUL OR SWAP1 SSTORE POP DUP6 PUSH1 0x3 PUSH0 PUSH2 0x100 EXP DUP2 SLOAD DUP2 PUSH20 0xFFFFFFFFFFFFFFFFFFFFFFFFFFFFFFFFFFFFFFFF MUL NOT AND SWAP1 DUP4 PUSH20 0xFFFFFFFFFFFFFFFFFFFFFFFFFFFFFFFFFFFFFFFF AND MUL OR SWAP1 SSTORE POP PUSH1 0x3 PUSH0 SWAP1 SLOAD SWAP1 PUSH2 0x100 EXP SWAP1 DIV PUSH20 0xFFFFFFFFFFFFFFFFFFFFFFFFFFFFFFFFFFFFFFFF AND PUSH1 0x1 PUSH0 PUSH2 0x100 EXP DUP2 SLOAD DUP2 PUSH20 0xFFFFFFFFFFFFFFFFFFFFFFFFFFFFFFFFFFFFFFFF MUL NOT AND SWAP1 DUP4 PUSH20 0xFFFFFFFFFFFFFFFFFFFFFFFFFFFFFFFFFFFFFFFF AND MUL OR SWAP1 SSTORE POP CALLER PUSH1 0xB PUSH0 PUSH2 0x100 EXP DUP2 SLOAD DUP2 PUSH20 0xFFFFFFFFFFFFFFFFFFFFFFFFFFFFFFFFFFFFFFFF MUL NOT AND SWAP1 DUP4 PUSH20 0xFFFFFFFFFFFFFFFFFFFFFFFFFFFFFFFFFFFFFFFF AND MUL OR SWAP1 SSTORE POP DUP5 TIMESTAMP PUSH3 0x1C5 SWAP2 SWAP1 PUSH3 0x844 JUMP JUMPDEST PUSH1 0x4 DUP2 SWAP1 SSTORE POP DUP3 PUSH1 0x8 PUSH1 0x1 PUSH2 0x100 EXP DUP2 SLOAD DUP2 PUSH20 0xFFFFFFFFFFFFFFFFFFFFFFFFFFFFFFFFFFFFFFFF MUL NOT AND SWAP1 DUP4 PUSH20 0xFFFFFFFFFFFFFFFFFFFFFFFFFFFFFFFFFFFFFFFF AND MUL OR SWAP1 SSTORE POP DUP2 PUSH1 0xA PUSH0 PUSH2 0x100 EXP DUP2 SLOAD DUP2 PUSH20 0xFFFFFFFFFFFFFFFFFFFFFFFFFFFFFFFFFFFFFFFF MUL NOT AND SWAP1 DUP4 PUSH20 0xFFFFFFFFFFFFFFFFFFFFFFFFFFFFFFFFFFFFFFFF AND MUL OR SWAP1 SSTORE POP DUP1 PUSH1 0x9 PUSH0 PUSH2 0x100 EXP DUP2 SLOAD DUP2 PUSH20 0xFFFFFFFFFFFFFFFFFFFFFFFFFFFFFFFFFFFFFFFF MUL NOT AND SWAP1 DUP4 PUSH20 0xFFFFFFFFFFFFFFFFFFFFFFFFFFFFFFFFFFFFFFFF AND MUL OR SWAP1 SSTORE POP PUSH0 JUMPDEST DUP5 MLOAD DUP2 LT ISZERO PUSH3 0x322 JUMPI PUSH1 0xD PUSH1 0x40 MLOAD DUP1 PUSH1 0x40 ADD PUSH1 0x40 MSTORE DUP1 DUP8 DUP5 DUP2 MLOAD DUP2 LT PUSH3 0x2BB JUMPI PUSH3 0x2BA PUSH3 0x87E JUMP JUMPDEST JUMPDEST PUSH1 0x20 MUL PUSH1 0x20 ADD ADD MLOAD DUP2 MSTORE PUSH1 0x20 ADD PUSH0 DUP2 MSTORE POP SWAP1 DUP1 PUSH1 0x1 DUP2 SLOAD ADD DUP1 DUP3 SSTORE DUP1 SWAP2 POP POP PUSH1 0x1 SWAP1 SUB SWAP1 PUSH0 MSTORE PUSH1 0x20 PUSH0 KECCAK256 SWAP1 PUSH1 0x2 MUL ADD PUSH0 SWAP1 SWAP2 SWAP1 SWAP2 SWAP1 SWAP2 POP PUSH0 DUP3 ADD MLOAD DUP2 PUSH0 ADD SWAP1 DUP2 PUSH3 0x307 SWAP2 SWAP1 PUSH3 0xAD9 JUMP JUMPDEST POP PUSH1 0x20 DUP3 ADD MLOAD DUP2 PUSH1 0x1 ADD SSTORE POP POP DUP1 DUP1 PUSH1 0x1 ADD SWAP2 POP POP PUSH3 0x28E JUMP JUMPDEST POP PUSH1 0x40 MLOAD DUP1 PUSH1 0x40 ADD PUSH1 0x40 MSTORE DUP1 PUSH1 0xA DUP2 MSTORE PUSH1 0x20 ADD PUSH32 0x506F6F6C205461626C6500000000000000000000000000000000000000000000 DUP2 MSTORE POP PUSH1 0x7 PUSH0 DUP1 DUP2 MSTORE PUSH1 0x20 ADD SWAP1 DUP2 MSTORE PUSH1 0x20 ADD PUSH0 KECCAK256 SWAP1 DUP2 PUSH3 0x378 SWAP2 SWAP1 PUSH3 0xAD9 JUMP JUMPDEST POP PUSH1 0x40 MLOAD DUP1 PUSH1 0x40 ADD PUSH1 0x40 MSTORE DUP1 PUSH1 0x12 DUP2 MSTORE PUSH1 0x20 ADD PUSH32 0x5461626C652054656E6E6973205461626C650000000000000000000000000000 DUP2 MSTORE POP PUSH1 0x7 PUSH0 PUSH1 0x1 DUP2 MSTORE PUSH1 0x20 ADD SWAP1 DUP2 MSTORE PUSH1 0x20 ADD PUSH0 KECCAK256 SWAP1 DUP2 PUSH3 0x3CF SWAP2 SWAP1 PUSH3 0xAD9 JUMP JUMPDEST POP PUSH1 0x40 MLOAD DUP1 PUSH1 0x40 ADD PUSH1 0x40 MSTORE DUP1 PUSH1 0xE DUP2 MSTORE PUSH1 0x20 ADD PUSH32 0x466F6F7362616C6C205461626C65000000000000000000000000000000000000 DUP2 MSTORE POP PUSH1 0x7 PUSH0 PUSH1 0x2 DUP2 MSTORE PUSH1 0x20 ADD SWAP1 DUP2 MSTORE PUSH1 0x20 ADD PUSH0 KECCAK256 SWAP1 DUP2 PUSH3 0x426 SWAP2 SWAP1 PUSH3 0xAD9 JUMP JUMPDEST POP POP POP POP POP POP POP POP PUSH3 0xBBD JUMP JUMPDEST PUSH0 PUSH1 0x40 MLOAD SWAP1 POP SWAP1 JUMP JUMPDEST PUSH0 DUP1 REVERT JUMPDEST PUSH0 DUP1 REVERT JUMPDEST PUSH0 PUSH20 0xFFFFFFFFFFFFFFFFFFFFFFFFFFFFFFFFFFFFFFFF DUP3 AND SWAP1 POP SWAP2 SWAP1 POP JUMP JUMPDEST PUSH0 PUSH3 0x470 DUP3 PUSH3 0x445 JUMP JUMPDEST SWAP1 POP SWAP2 SWAP1 POP JUMP JUMPDEST PUSH3 0x482 DUP2 PUSH3 0x464 JUMP JUMPDEST DUP2 EQ PUSH3 0x48D JUMPI PUSH0 DUP1 REVERT JUMPDEST POP JUMP JUMPDEST PUSH0 DUP2 MLOAD SWAP1 POP PUSH3 0x4A0 DUP2 PUSH3 0x477 JUMP JUMPDEST SWAP3 SWAP2 POP POP JUMP JUMPDEST PUSH0 DUP2 SWAP1 POP SWAP2 SWAP1 POP JUMP JUMPDEST PUSH3 0x4BA DUP2 PUSH3 0x4A6 JUMP JUMPDEST DUP2 EQ PUSH3 0x4C5 JUMPI PUSH0 DUP1 REVERT JUMPDEST POP JUMP JUMPDEST PUSH0 DUP2 MLOAD SWAP1 POP PUSH3 0x4D8 DUP2 PUSH3 0x4AF JUMP JUMPDEST SWAP3 SWAP2 POP POP JUMP JUMPDEST PUSH0 DUP1 REVERT JUMPDEST PUSH0 PUSH1 0x1F NOT PUSH1 0x1F DUP4 ADD AND SWAP1 POP SWAP2 SWAP1 POP JUMP JUMPDEST PUSH32 0x4E487B7100000000000000000000000000000000000000000000000000000000 PUSH0 MSTORE PUSH1 0x41 PUSH1 0x4 MSTORE PUSH1 0x24 PUSH0 REVERT JUMPDEST PUSH3 0x52A DUP3 PUSH3 0x4E2 JUMP JUMPDEST DUP2 ADD DUP2 DUP2 LT PUSH8 0xFFFFFFFFFFFFFFFF DUP3 GT OR ISZERO PUSH3 0x54C JUMPI PUSH3 0x54B PUSH3 0x4F2 JUMP JUMPDEST JUMPDEST DUP1 PUSH1 0x40 MSTORE POP POP POP JUMP JUMPDEST PUSH0 PUSH3 0x560 PUSH3 0x434 JUMP JUMPDEST SWAP1 POP PUSH3 0x56E DUP3 DUP3 PUSH3 0x51F JUMP JUMPDEST SWAP2 SWAP1 POP JUMP JUMPDEST PUSH0 PUSH8 0xFFFFFFFFFFFFFFFF DUP3 GT ISZERO PUSH3 0x590 JUMPI PUSH3 0x58F PUSH3 0x4F2 JUMP JUMPDEST JUMPDEST PUSH1 0x20 DUP3 MUL SWAP1 POP PUSH1 0x20 DUP2 ADD SWAP1 POP SWAP2 SWAP1 POP JUMP JUMPDEST PUSH0 DUP1 REVERT JUMPDEST PUSH0 DUP1 REVERT JUMPDEST PUSH0 PUSH8 0xFFFFFFFFFFFFFFFF DUP3 GT ISZERO PUSH3 0x5C6 JUMPI PUSH3 0x5C5 PUSH3 0x4F2 JUMP JUMPDEST JUMPDEST PUSH3 0x5D1 DUP3 PUSH3 0x4E2 JUMP JUMPDEST SWAP1 POP PUSH1 0x20 DUP2 ADD SWAP1 POP SWAP2 SWAP1 POP JUMP JUMPDEST PUSH0 JUMPDEST DUP4 DUP2 LT ISZERO PUSH3 0x5FD JUMPI DUP1 DUP3 ADD MLOAD DUP2 DUP5 ADD MSTORE PUSH1 0x20 DUP2 ADD SWAP1 POP PUSH3 0x5E0 JUMP JUMPDEST PUSH0 DUP5 DUP5 ADD MSTORE POP POP POP POP JUMP JUMPDEST PUSH0 PUSH3 0x61E PUSH3 0x618 DUP5 PUSH3 0x5A9 JUMP JUMPDEST PUSH3 0x555 JUMP JUMPDEST SWAP1 POP DUP3 DUP2 MSTORE PUSH1 0x20 DUP2 ADD DUP5 DUP5 DUP5 ADD GT ISZERO PUSH3 0x63D JUMPI PUSH3 0x63C PUSH3 0x5A5 JUMP JUMPDEST JUMPDEST PUSH3 0x64A DUP5 DUP3 DUP6 PUSH3 0x5DE JUMP JUMPDEST POP SWAP4 SWAP3 POP POP POP JUMP JUMPDEST PUSH0 DUP3 PUSH1 0x1F DUP4 ADD SLT PUSH3 0x669 JUMPI PUSH3 0x668 PUSH3 0x4DE JUMP JUMPDEST JUMPDEST DUP2 MLOAD PUSH3 0x67B DUP5 DUP3 PUSH1 0x20 DUP7 ADD PUSH3 0x608 JUMP JUMPDEST SWAP2 POP POP SWAP3 SWAP2 POP POP JUMP JUMPDEST PUSH0 PUSH3 0x69A PUSH3 0x694 DUP5 PUSH3 0x573 JUMP JUMPDEST PUSH3 0x555 JUMP JUMPDEST SWAP1 POP DUP1 DUP4 DUP3 MSTORE PUSH1 0x20 DUP3 ADD SWAP1 POP PUSH1 0x20 DUP5 MUL DUP4 ADD DUP6 DUP2 GT ISZERO PUSH3 0x6C0 JUMPI PUSH3 0x6BF PUSH3 0x5A1 JUMP JUMPDEST JUMPDEST DUP4 JUMPDEST DUP2 DUP2 LT ISZERO PUSH3 0x70E JUMPI DUP1 MLOAD PUSH8 0xFFFFFFFFFFFFFFFF DUP2 GT ISZERO PUSH3 0x6E9 JUMPI PUSH3 0x6E8 PUSH3 0x4DE JUMP JUMPDEST JUMPDEST DUP1 DUP7 ADD PUSH3 0x6F8 DUP10 DUP3 PUSH3 0x652 JUMP JUMPDEST DUP6 MSTORE PUSH1 0x20 DUP6 ADD SWAP5 POP POP POP PUSH1 0x20 DUP2 ADD SWAP1 POP PUSH3 0x6C2 JUMP JUMPDEST POP POP POP SWAP4 SWAP3 POP POP POP JUMP JUMPDEST PUSH0 DUP3 PUSH1 0x1F DUP4 ADD SLT PUSH3 0x72F JUMPI PUSH3 0x72E PUSH3 0x4DE JUMP JUMPDEST JUMPDEST DUP2 MLOAD PUSH3 0x741 DUP5 DUP3 PUSH1 0x20 DUP7 ADD PUSH3 0x684 JUMP JUMPDEST SWAP2 POP POP SWAP3 SWAP2 POP POP JUMP JUMPDEST PUSH0 DUP1 PUSH0 DUP1 PUSH0 DUP1 PUSH0 PUSH1 0xE0 DUP9 DUP11 SUB SLT ISZERO PUSH3 0x768 JUMPI PUSH3 0x767 PUSH3 0x43D JUMP JUMPDEST JUMPDEST PUSH0 PUSH3 0x777 DUP11 DUP3 DUP12 ADD PUSH3 0x490 JUMP JUMPDEST SWAP8 POP POP PUSH1 0x20 PUSH3 0x78A DUP11 DUP3 DUP12 ADD PUSH3 0x490 JUMP JUMPDEST SWAP7 POP POP PUSH1 0x40 PUSH3 0x79D DUP11 DUP3 DUP12 ADD PUSH3 0x4C8 JUMP JUMPDEST SWAP6 POP POP PUSH1 0x60 DUP9 ADD MLOAD PUSH8 0xFFFFFFFFFFFFFFFF DUP2 GT ISZERO PUSH3 0x7C1 JUMPI PUSH3 0x7C0 PUSH3 0x441 JUMP JUMPDEST JUMPDEST PUSH3 0x7CF DUP11 DUP3 DUP12 ADD PUSH3 0x718 JUMP JUMPDEST SWAP5 POP POP PUSH1 0x80 PUSH3 0x7E2 DUP11 DUP3 DUP12 ADD PUSH3 0x490 JUMP JUMPDEST SWAP4 POP POP PUSH1 0xA0 PUSH3 0x7F5 DUP11 DUP3 DUP12 ADD PUSH3 0x490 JUMP JUMPDEST SWAP3 POP POP PUSH1 0xC0 PUSH3 0x808 DUP11 DUP3 DUP12 ADD PUSH3 0x490 JUMP JUMPDEST SWAP2 POP POP SWAP3 SWAP6 SWAP9 SWAP2 SWAP5 SWAP8 POP SWAP3 SWAP6 POP JUMP JUMPDEST PUSH32 0x4E487B7100000000000000000000000000000000000000000000000000000000 PUSH0 MSTORE PUSH1 0x11 PUSH1 0x4 MSTORE PUSH1 0x24 PUSH0 REVERT JUMPDEST PUSH0 PUSH3 0x850 DUP3 PUSH3 0x4A6 JUMP JUMPDEST SWAP2 POP PUSH3 0x85D DUP4 PUSH3 0x4A6 JUMP JUMPDEST SWAP3 POP DUP3 DUP3 ADD SWAP1 POP DUP1 DUP3 GT ISZERO PUSH3 0x878 JUMPI PUSH3 0x877 PUSH3 0x817 JUMP JUMPDEST JUMPDEST SWAP3 SWAP2 POP POP JUMP JUMPDEST PUSH32 0x4E487B7100000000000000000000000000000000000000000000000000000000 PUSH0 MSTORE PUSH1 0x32 PUSH1 0x4 MSTORE PUSH1 0x24 PUSH0 REVERT JUMPDEST PUSH0 DUP2 MLOAD SWAP1 POP SWAP2 SWAP1 POP JUMP JUMPDEST PUSH32 0x4E487B7100000000000000000000000000000000000000000000000000000000 PUSH0 MSTORE PUSH1 0x22 PUSH1 0x4 MSTORE PUSH1 0x24 PUSH0 REVERT JUMPDEST PUSH0 PUSH1 0x2 DUP3 DIV SWAP1 POP PUSH1 0x1 DUP3 AND DUP1 PUSH3 0x8FA JUMPI PUSH1 0x7F DUP3 AND SWAP2 POP JUMPDEST PUSH1 0x20 DUP3 LT DUP2 SUB PUSH3 0x910 JUMPI PUSH3 0x90F PUSH3 0x8B5 JUMP JUMPDEST JUMPDEST POP SWAP2 SWAP1 POP JUMP JUMPDEST PUSH0 DUP2 SWAP1 POP DUP2 PUSH0 MSTORE PUSH1 0x20 PUSH0 KECCAK256 SWAP1 POP SWAP2 SWAP1 POP JUMP JUMPDEST PUSH0 PUSH1 0x20 PUSH1 0x1F DUP4 ADD DIV SWAP1 POP SWAP2 SWAP1 POP JUMP JUMPDEST PUSH0 DUP3 DUP3 SHL SWAP1 POP SWAP3 SWAP2 POP POP JUMP JUMPDEST PUSH0 PUSH1 0x8 DUP4 MUL PUSH3 0x974 PUSH32 0xFFFFFFFFFFFFFFFFFFFFFFFFFFFFFFFFFFFFFFFFFFFFFFFFFFFFFFFFFFFFFFFF DUP3 PUSH3 0x937 JUMP JUMPDEST PUSH3 0x980 DUP7 DUP4 PUSH3 0x937 JUMP JUMPDEST SWAP6 POP DUP1 NOT DUP5 AND SWAP4 POP DUP1 DUP7 AND DUP5 OR SWAP3 POP POP POP SWAP4 SWAP3 POP POP POP JUMP JUMPDEST PUSH0 DUP2 SWAP1 POP SWAP2 SWAP1 POP JUMP JUMPDEST PUSH0 PUSH3 0x9C1 PUSH3 0x9BB PUSH3 0x9B5 DUP5 PUSH3 0x4A6 JUMP JUMPDEST PUSH3 0x998 JUMP JUMPDEST PUSH3 0x4A6 JUMP JUMPDEST SWAP1 POP SWAP2 SWAP1 POP JUMP JUMPDEST PUSH0 DUP2 SWAP1 POP SWAP2 SWAP1 POP JUMP JUMPDEST PUSH3 0x9DC DUP4 PUSH3 0x9A1 JUMP JUMPDEST PUSH3 0x9F4 PUSH3 0x9EB DUP3 PUSH3 0x9C8 JUMP JUMPDEST DUP5 DUP5 SLOAD PUSH3 0x943 JUMP JUMPDEST DUP3 SSTORE POP POP POP POP JUMP JUMPDEST PUSH0 SWAP1 JUMP JUMPDEST PUSH3 0xA0A PUSH3 0x9FC JUMP JUMPDEST PUSH3 0xA17 DUP2 DUP5 DUP5 PUSH3 0x9D1 JUMP JUMPDEST POP POP POP JUMP JUMPDEST JUMPDEST DUP2 DUP2 LT ISZERO PUSH3 0xA3E JUMPI PUSH3 0xA32 PUSH0 DUP3 PUSH3 0xA00 JUMP JUMPDEST PUSH1 0x1 DUP2 ADD SWAP1 POP PUSH3 0xA1D JUMP JUMPDEST POP POP JUMP JUMPDEST PUSH1 0x1F DUP3 GT ISZERO PUSH3 0xA8D JUMPI PUSH3 0xA57 DUP2 PUSH3 0x916 JUMP JUMPDEST PUSH3 0xA62 DUP5 PUSH3 0x928 JUMP JUMPDEST DUP2 ADD PUSH1 0x20 DUP6 LT ISZERO PUSH3 0xA72 JUMPI DUP2 SWAP1 POP JUMPDEST PUSH3 0xA8A PUSH3 0xA81 DUP6 PUSH3 0x928 JUMP JUMPDEST DUP4 ADD DUP3 PUSH3 0xA1C JUMP JUMPDEST POP POP JUMPDEST POP POP POP JUMP JUMPDEST PUSH0 DUP3 DUP3 SHR SWAP1 POP SWAP3 SWAP2 POP POP JUMP JUMPDEST PUSH0 PUSH3 0xAAF PUSH0 NOT DUP5 PUSH1 0x8 MUL PUSH3 0xA92 JUMP JUMPDEST NOT DUP1 DUP4 AND SWAP2 POP POP SWAP3 SWAP2 POP POP JUMP JUMPDEST PUSH0 PUSH3 0xAC9 DUP4 DUP4 PUSH3 0xA9E JUMP JUMPDEST SWAP2 POP DUP3 PUSH1 0x2 MUL DUP3 OR SWAP1 POP SWAP3 SWAP2 POP POP JUMP JUMPDEST PUSH3 0xAE4 DUP3 PUSH3 0x8AB JUMP JUMPDEST PUSH8 0xFFFFFFFFFFFFFFFF DUP2 GT ISZERO PUSH3 0xB00 JUMPI PUSH3 0xAFF PUSH3 0x4F2 JUMP JUMPDEST JUMPDEST PUSH3 0xB0C DUP3 SLOAD PUSH3 0x8E2 JUMP JUMPDEST PUSH3 0xB19 DUP3 DUP3 DUP6 PUSH3 0xA42 JUMP JUMPDEST PUSH0 PUSH1 0x20 SWAP1 POP PUSH1 0x1F DUP4 GT PUSH1 0x1 DUP2 EQ PUSH3 0xB4F JUMPI PUSH0 DUP5 ISZERO PUSH3 0xB3A JUMPI DUP3 DUP8 ADD MLOAD SWAP1 POP JUMPDEST PUSH3 0xB46 DUP6 DUP3 PUSH3 0xABC JUMP JUMPDEST DUP7 SSTORE POP PUSH3 0xBB5 JUMP JUMPDEST PUSH1 0x1F NOT DUP5 AND PUSH3 0xB5F DUP7 PUSH3 0x916 JUMP JUMPDEST PUSH0 JUMPDEST DUP3 DUP2 LT ISZERO PUSH3 0xB88 JUMPI DUP5 DUP10 ADD MLOAD DUP3 SSTORE PUSH1 0x1 DUP3 ADD SWAP2 POP PUSH1 0x20 DUP6 ADD SWAP5 POP PUSH1 0x20 DUP2 ADD SWAP1 POP PUSH3 0xB61 JUMP JUMPDEST DUP7 DUP4 LT ISZERO PUSH3 0xBA8 JUMPI DUP5 DUP10 ADD MLOAD PUSH3 0xBA4 PUSH1 0x1F DUP10 AND DUP3 PUSH3 0xA9E JUMP JUMPDEST DUP4 SSTORE POP JUMPDEST PUSH1 0x1 PUSH1 0x2 DUP9 MUL ADD DUP9 SSTORE POP POP POP JUMPDEST POP POP POP POP POP POP JUMP JUMPDEST PUSH2 0x2502 DUP1 PUSH3 0xBCB PUSH0 CODECOPY PUSH0 RETURN INVALID PUSH1 0x80 PUSH1 0x40 MSTORE PUSH1 0x4 CALLDATASIZE LT PUSH2 0x113 JUMPI PUSH0 CALLDATALOAD PUSH1 0xE0 SHR DUP1 PUSH4 0x72A413A9 GT PUSH2 0x9F JUMPI DUP1 PUSH4 0xC54E88BD GT PUSH2 0x63 JUMPI DUP1 PUSH4 0xC54E88BD EQ PUSH2 0x363 JUMPI DUP1 PUSH4 0xC7E8C940 EQ PUSH2 0x38D JUMPI DUP1 PUSH4 0xCCFFB0FD EQ PUSH2 0x3C9 JUMPI DUP1 PUSH4 0xE4D7C28C EQ PUSH2 0x3F3 JUMPI DUP1 PUSH4 0xE4E37DD9 EQ PUSH2 0x41D JUMPI PUSH2 0x113 JUMP JUMPDEST DUP1 PUSH4 0x72A413A9 EQ PUSH2 0x292 JUMPI DUP1 PUSH4 0x9E6CB42B EQ PUSH2 0x2A8 JUMPI DUP1 PUSH4 0xA1B2D093 EQ PUSH2 0x2D2 JUMPI DUP1 PUSH4 0xA3EC138D EQ PUSH2 0x2FC JUMPI DUP1 PUSH4 0xB1AD5979 EQ PUSH2 0x339 JUMPI PUSH2 0x113 JUMP JUMPDEST DUP1 PUSH4 0x1A6CD2FD GT PUSH2 0xE6 JUMPI DUP1 PUSH4 0x1A6CD2FD EQ PUSH2 0x1D0 JUMPI DUP1 PUSH4 0x2E4176CF EQ PUSH2 0x1FA JUMPI DUP1 PUSH4 0x3C99BB55 EQ PUSH2 0x224 JUMPI DUP1 PUSH4 0x5B37930B EQ PUSH2 0x260 JUMPI DUP1 PUSH4 0x6B7D8D60 EQ PUSH2 0x26A JUMPI PUSH2 0x113 JUMP JUMPDEST DUP1 PUSH4 0x121B93F EQ PUSH2 0x117 JUMPI DUP1 PUSH4 0x13CF08B EQ PUSH2 0x13F JUMPI DUP1 PUSH4 0x11356184 EQ PUSH2 0x17C JUMPI DUP1 PUSH4 0x12FA6FEB EQ PUSH2 0x1A6 JUMPI JUMPDEST PUSH0 DUP1 REVERT JUMPDEST CALLVALUE DUP1 ISZERO PUSH2 0x122 JUMPI PUSH0 DUP1 REVERT JUMPDEST POP PUSH2 0x13D PUSH1 0x4 DUP1 CALLDATASIZE SUB DUP2 ADD SWAP1 PUSH2 0x138 SWAP2 SWAP1 PUSH2 0x1524 JUMP JUMPDEST PUSH2 0x447 JUMP JUMPDEST STOP JUMPDEST CALLVALUE DUP1 ISZERO PUSH2 0x14A JUMPI PUSH0 DUP1 REVERT JUMPDEST POP PUSH2 0x165 PUSH1 0x4 DUP1 CALLDATASIZE SUB DUP2 ADD SWAP1 PUSH2 0x160 SWAP2 SWAP1 PUSH2 0x1524 JUMP JUMPDEST PUSH2 0x790 JUMP JUMPDEST PUSH1 0x40 MLOAD PUSH2 0x173 SWAP3 SWAP2 SWAP1 PUSH2 0x15E8 JUMP JUMPDEST PUSH1 0x40 MLOAD DUP1 SWAP2 SUB SWAP1 RETURN JUMPDEST CALLVALUE DUP1 ISZERO PUSH2 0x187 JUMPI PUSH0 DUP1 REVERT JUMPDEST POP PUSH2 0x190 PUSH2 0x845 JUMP JUMPDEST PUSH1 0x40 MLOAD PUSH2 0x19D SWAP2 SWAP1 PUSH2 0x1690 JUMP JUMPDEST PUSH1 0x40 MLOAD DUP1 SWAP2 SUB SWAP1 RETURN JUMPDEST CALLVALUE DUP1 ISZERO PUSH2 0x1B1 JUMPI PUSH0 DUP1 REVERT JUMPDEST POP PUSH2 0x1BA PUSH2 0x86A JUMP JUMPDEST PUSH1 0x40 MLOAD PUSH2 0x1C7 SWAP2 SWAP1 PUSH2 0x16C3 JUMP JUMPDEST PUSH1 0x40 MLOAD DUP1 SWAP2 SUB SWAP1 RETURN JUMPDEST CALLVALUE DUP1 ISZERO PUSH2 0x1DB JUMPI PUSH0 DUP1 REVERT JUMPDEST POP PUSH2 0x1E4 PUSH2 0x87C JUMP JUMPDEST PUSH1 0x40 MLOAD PUSH2 0x1F1 SWAP2 SWAP1 PUSH2 0x16DC JUMP JUMPDEST PUSH1 0x40 MLOAD DUP1 SWAP2 SUB SWAP1 RETURN JUMPDEST CALLVALUE DUP1 ISZERO PUSH2 0x205 JUMPI PUSH0 DUP1 REVERT JUMPDEST POP PUSH2 0x20E PUSH2 0x959 JUMP JUMPDEST PUSH1 0x40 MLOAD PUSH2 0x21B SWAP2 SWAP1 PUSH2 0x1715 JUMP JUMPDEST PUSH1 0x40 MLOAD DUP1 SWAP2 SUB SWAP1 RETURN JUMPDEST CALLVALUE DUP1 ISZERO PUSH2 0x22F JUMPI PUSH0 DUP1 REVERT JUMPDEST POP PUSH2 0x24A PUSH1 0x4 DUP1 CALLDATASIZE SUB DUP2 ADD SWAP1 PUSH2 0x245 SWAP2 SWAP1 PUSH2 0x185A JUMP JUMPDEST PUSH2 0x97E JUMP JUMPDEST PUSH1 0x40 MLOAD PUSH2 0x257 SWAP2 SWAP1 PUSH2 0x16DC JUMP JUMPDEST PUSH1 0x40 MLOAD DUP1 SWAP2 SUB SWAP1 RETURN JUMPDEST PUSH2 0x268 PUSH2 0xA20 JUMP JUMPDEST STOP JUMPDEST CALLVALUE DUP1 ISZERO PUSH2 0x275 JUMPI PUSH0 DUP1 REVERT JUMPDEST POP PUSH2 0x290 PUSH1 0x4 DUP1 CALLDATASIZE SUB DUP2 ADD SWAP1 PUSH2 0x28B SWAP2 SWAP1 PUSH2 0x18CB JUMP JUMPDEST PUSH2 0xC3C JUMP JUMPDEST STOP JUMPDEST CALLVALUE DUP1 ISZERO PUSH2 0x29D JUMPI PUSH0 DUP1 REVERT JUMPDEST POP PUSH2 0x2A6 PUSH2 0xF8A JUMP JUMPDEST STOP JUMPDEST CALLVALUE DUP1 ISZERO PUSH2 0x2B3 JUMPI PUSH0 DUP1 REVERT JUMPDEST POP PUSH2 0x2BC PUSH2 0x134B JUMP JUMPDEST PUSH1 0x40 MLOAD PUSH2 0x2C9 SWAP2 SWAP1 PUSH2 0x16DC JUMP JUMPDEST PUSH1 0x40 MLOAD DUP1 SWAP2 SUB SWAP1 RETURN JUMPDEST CALLVALUE DUP1 ISZERO PUSH2 0x2DD JUMPI PUSH0 DUP1 REVERT JUMPDEST POP PUSH2 0x2E6 PUSH2 0x1351 JUMP JUMPDEST PUSH1 0x40 MLOAD PUSH2 0x2F3 SWAP2 SWAP1 PUSH2 0x1715 JUMP JUMPDEST PUSH1 0x40 MLOAD DUP1 SWAP2 SUB SWAP1 RETURN JUMPDEST CALLVALUE DUP1 ISZERO PUSH2 0x307 JUMPI PUSH0 DUP1 REVERT JUMPDEST POP PUSH2 0x322 PUSH1 0x4 DUP1 CALLDATASIZE SUB DUP2 ADD SWAP1 PUSH2 0x31D SWAP2 SWAP1 PUSH2 0x1925 JUMP JUMPDEST PUSH2 0x1376 JUMP JUMPDEST PUSH1 0x40 MLOAD PUSH2 0x330 SWAP3 SWAP2 SWAP1 PUSH2 0x1950 JUMP JUMPDEST PUSH1 0x40 MLOAD DUP1 SWAP2 SUB SWAP1 RETURN JUMPDEST CALLVALUE DUP1 ISZERO PUSH2 0x344 JUMPI PUSH0 DUP1 REVERT JUMPDEST POP PUSH2 0x34D PUSH2 0x13A2 JUMP JUMPDEST PUSH1 0x40 MLOAD PUSH2 0x35A SWAP2 SWAP1 PUSH2 0x16DC JUMP JUMPDEST PUSH1 0x40 MLOAD DUP1 SWAP2 SUB SWAP1 RETURN JUMPDEST CALLVALUE DUP1 ISZERO PUSH2 0x36E JUMPI PUSH0 DUP1 REVERT JUMPDEST POP PUSH2 0x377 PUSH2 0x13A8 JUMP JUMPDEST PUSH1 0x40 MLOAD PUSH2 0x384 SWAP2 SWAP1 PUSH2 0x1997 JUMP JUMPDEST PUSH1 0x40 MLOAD DUP1 SWAP2 SUB SWAP1 RETURN JUMPDEST CALLVALUE DUP1 ISZERO PUSH2 0x398 JUMPI PUSH0 DUP1 REVERT JUMPDEST POP PUSH2 0x3B3 PUSH1 0x4 DUP1 CALLDATASIZE SUB DUP2 ADD SWAP1 PUSH2 0x3AE SWAP2 SWAP1 PUSH2 0x1524 JUMP JUMPDEST PUSH2 0x13CE JUMP JUMPDEST PUSH1 0x40 MLOAD PUSH2 0x3C0 SWAP2 SWAP1 PUSH2 0x19B0 JUMP JUMPDEST PUSH1 0x40 MLOAD DUP1 SWAP2 SUB SWAP1 RETURN JUMPDEST CALLVALUE DUP1 ISZERO PUSH2 0x3D4 JUMPI PUSH0 DUP1 REVERT JUMPDEST POP PUSH2 0x3DD PUSH2 0x1469 JUMP JUMPDEST PUSH1 0x40 MLOAD PUSH2 0x3EA SWAP2 SWAP1 PUSH2 0x19F0 JUMP JUMPDEST PUSH1 0x40 MLOAD DUP1 SWAP2 SUB SWAP1 RETURN JUMPDEST CALLVALUE DUP1 ISZERO PUSH2 0x3FE JUMPI PUSH0 DUP1 REVERT JUMPDEST POP PUSH2 0x407 PUSH2 0x148E JUMP JUMPDEST PUSH1 0x40 MLOAD PUSH2 0x414 SWAP2 SWAP1 PUSH2 0x16DC JUMP JUMPDEST PUSH1 0x40 MLOAD DUP1 SWAP2 SUB SWAP1 RETURN JUMPDEST CALLVALUE DUP1 ISZERO PUSH2 0x428 JUMPI PUSH0 DUP1 REVERT JUMPDEST POP PUSH2 0x431 PUSH2 0x1494 JUMP JUMPDEST PUSH1 0x40 MLOAD PUSH2 0x43E SWAP2 SWAP1 PUSH2 0x1715 JUMP JUMPDEST PUSH1 0x40 MLOAD DUP1 SWAP2 SUB SWAP1 RETURN JUMPDEST PUSH1 0x4 SLOAD TIMESTAMP LT PUSH2 0x48B JUMPI PUSH1 0x40 MLOAD PUSH32 0x8C379A000000000000000000000000000000000000000000000000000000000 DUP2 MSTORE PUSH1 0x4 ADD PUSH2 0x482 SWAP1 PUSH2 0x1A53 JUMP JUMPDEST PUSH1 0x40 MLOAD DUP1 SWAP2 SUB SWAP1 REVERT JUMPDEST PUSH0 PUSH1 0xC PUSH0 CALLER PUSH20 0xFFFFFFFFFFFFFFFFFFFFFFFFFFFFFFFFFFFFFFFF AND PUSH20 0xFFFFFFFFFFFFFFFFFFFFFFFFFFFFFFFFFFFFFFFF AND DUP2 MSTORE PUSH1 0x20 ADD SWAP1 DUP2 MSTORE PUSH1 0x20 ADD PUSH0 KECCAK256 SWAP1 POP PUSH0 PUSH1 0x8 PUSH1 0x1 SWAP1 SLOAD SWAP1 PUSH2 0x100 EXP SWAP1 DIV PUSH20 0xFFFFFFFFFFFFFFFFFFFFFFFFFFFFFFFFFFFFFFFF AND PUSH20 0xFFFFFFFFFFFFFFFFFFFFFFFFFFFFFFFFFFFFFFFF AND PUSH4 0x70A08231 CALLER PUSH1 0x40 MLOAD DUP3 PUSH4 0xFFFFFFFF AND PUSH1 0xE0 SHL DUP2 MSTORE PUSH1 0x4 ADD PUSH2 0x527 SWAP2 SWAP1 PUSH2 0x1715 JUMP JUMPDEST PUSH1 0x20 PUSH1 0x40 MLOAD DUP1 DUP4 SUB DUP2 DUP7 GAS STATICCALL ISZERO DUP1 ISZERO PUSH2 0x542 JUMPI RETURNDATASIZE PUSH0 DUP1 RETURNDATACOPY RETURNDATASIZE PUSH0 REVERT JUMPDEST POP POP POP POP PUSH1 0x40 MLOAD RETURNDATASIZE PUSH1 0x1F NOT PUSH1 0x1F DUP3 ADD AND DUP3 ADD DUP1 PUSH1 0x40 MSTORE POP DUP2 ADD SWAP1 PUSH2 0x566 SWAP2 SWAP1 PUSH2 0x1A85 JUMP JUMPDEST GT PUSH2 0x5A6 JUMPI PUSH1 0x40 MLOAD PUSH32 0x8C379A000000000000000000000000000000000000000000000000000000000 DUP2 MSTORE PUSH1 0x4 ADD PUSH2 0x59D SWAP1 PUSH2 0x1AFA JUMP JUMPDEST PUSH1 0x40 MLOAD DUP1 SWAP2 SUB SWAP1 REVERT JUMPDEST DUP1 PUSH0 ADD PUSH0 SWAP1 SLOAD SWAP1 PUSH2 0x100 EXP SWAP1 DIV PUSH1 0xFF AND ISZERO PUSH2 0x5F6 JUMPI PUSH1 0x40 MLOAD PUSH32 0x8C379A000000000000000000000000000000000000000000000000000000000 DUP2 MSTORE PUSH1 0x4 ADD PUSH2 0x5ED SWAP1 PUSH2 0x1B62 JUMP JUMPDEST PUSH1 0x40 MLOAD DUP1 SWAP2 SUB SWAP1 REVERT JUMPDEST PUSH1 0x1 DUP2 PUSH0 ADD PUSH0 PUSH2 0x100 EXP DUP2 SLOAD DUP2 PUSH1 0xFF MUL NOT AND SWAP1 DUP4 ISZERO ISZERO MUL OR SWAP1 SSTORE POP DUP2 DUP2 PUSH1 0x1 ADD DUP2 SWAP1 SSTORE POP PUSH1 0x8 PUSH1 0x1 SWAP1 SLOAD SWAP1 PUSH2 0x100 EXP SWAP1 DIV PUSH20 0xFFFFFFFFFFFFFFFFFFFFFFFFFFFFFFFFFFFFFFFF AND PUSH20 0xFFFFFFFFFFFFFFFFFFFFFFFFFFFFFFFFFFFFFFFF AND PUSH4 0x70A08231 CALLER PUSH1 0x40 MLOAD DUP3 PUSH4 0xFFFFFFFF AND PUSH1 0xE0 SHL DUP2 MSTORE PUSH1 0x4 ADD PUSH2 0x675 SWAP2 SWAP1 PUSH2 0x1715 JUMP JUMPDEST PUSH1 0x20 PUSH1 0x40 MLOAD DUP1 DUP4 SUB DUP2 DUP7 GAS STATICCALL ISZERO DUP1 ISZERO PUSH2 0x690 JUMPI RETURNDATASIZE PUSH0 DUP1 RETURNDATACOPY RETURNDATASIZE PUSH0 REVERT JUMPDEST POP POP POP POP PUSH1 0x40 MLOAD RETURNDATASIZE PUSH1 0x1F NOT PUSH1 0x1F DUP3 ADD AND DUP3 ADD DUP1 PUSH1 0x40 MSTORE POP DUP2 ADD SWAP1 PUSH2 0x6B4 SWAP2 SWAP1 PUSH2 0x1A85 JUMP JUMPDEST PUSH1 0xD DUP4 DUP2 SLOAD DUP2 LT PUSH2 0x6C8 JUMPI PUSH2 0x6C7 PUSH2 0x1B80 JUMP JUMPDEST JUMPDEST SWAP1 PUSH0 MSTORE PUSH1 0x20 PUSH0 KECCAK256 SWAP1 PUSH1 0x2 MUL ADD PUSH1 0x1 ADD PUSH0 DUP3 DUP3 SLOAD PUSH2 0x6E5 SWAP2 SWAP1 PUSH2 0x1BDA JUMP JUMPDEST SWAP3 POP POP DUP2 SWAP1 SSTORE POP PUSH1 0x9 PUSH0 SWAP1 SLOAD SWAP1 PUSH2 0x100 EXP SWAP1 DIV PUSH20 0xFFFFFFFFFFFFFFFFFFFFFFFFFFFFFFFFFFFFFFFF AND PUSH20 0xFFFFFFFFFFFFFFFFFFFFFFFFFFFFFFFFFFFFFFFF AND PUSH4 0x4CD83D75 ADDRESS CALLER PUSH1 0x1 PUSH1 0x40 MLOAD DUP5 PUSH4 0xFFFFFFFF AND PUSH1 0xE0 SHL DUP2 MSTORE PUSH1 0x4 ADD PUSH2 0x74B SWAP4 SWAP3 SWAP2 SWAP1 PUSH2 0x1C46 JUMP JUMPDEST PUSH1 0x20 PUSH1 0x40 MLOAD DUP1 DUP4 SUB DUP2 PUSH0 DUP8 GAS CALL ISZERO DUP1 ISZERO PUSH2 0x767 JUMPI RETURNDATASIZE PUSH0 DUP1 RETURNDATACOPY RETURNDATASIZE PUSH0 REVERT JUMPDEST POP POP POP POP PUSH1 0x40 MLOAD RETURNDATASIZE PUSH1 0x1F NOT PUSH1 0x1F DUP3 ADD AND DUP3 ADD DUP1 PUSH1 0x40 MSTORE POP DUP2 ADD SWAP1 PUSH2 0x78B SWAP2 SWAP1 PUSH2 0x1CA5 JUMP JUMPDEST POP POP POP JUMP JUMPDEST PUSH1 0xD DUP2 DUP2 SLOAD DUP2 LT PUSH2 0x79F JUMPI PUSH0 DUP1 REVERT JUMPDEST SWAP1 PUSH0 MSTORE PUSH1 0x20 PUSH0 KECCAK256 SWAP1 PUSH1 0x2 MUL ADD PUSH0 SWAP2 POP SWAP1 POP DUP1 PUSH0 ADD DUP1 SLOAD PUSH2 0x7BE SWAP1 PUSH2 0x1CFD JUMP JUMPDEST DUP1 PUSH1 0x1F ADD PUSH1 0x20 DUP1 SWAP2 DIV MUL PUSH1 0x20 ADD PUSH1 0x40 MLOAD SWAP1 DUP2 ADD PUSH1 0x40 MSTORE DUP1 SWAP3 SWAP2 SWAP1 DUP2 DUP2 MSTORE PUSH1 0x20 ADD DUP3 DUP1 SLOAD PUSH2 0x7EA SWAP1 PUSH2 0x1CFD JUMP JUMPDEST DUP1 ISZERO PUSH2 0x835 JUMPI DUP1 PUSH1 0x1F LT PUSH2 0x80C JUMPI PUSH2 0x100 DUP1 DUP4 SLOAD DIV MUL DUP4 MSTORE SWAP2 PUSH1 0x20 ADD SWAP2 PUSH2 0x835 JUMP JUMPDEST DUP3 ADD SWAP2 SWAP1 PUSH0 MSTORE PUSH1 0x20 PUSH0 KECCAK256 SWAP1 JUMPDEST DUP2 SLOAD DUP2 MSTORE SWAP1 PUSH1 0x1 ADD SWAP1 PUSH1 0x20 ADD DUP1 DUP4 GT PUSH2 0x818 JUMPI DUP3 SWAP1 SUB PUSH1 0x1F AND DUP3 ADD SWAP2 JUMPDEST POP POP POP POP POP SWAP1 DUP1 PUSH1 0x1 ADD SLOAD SWAP1 POP DUP3 JUMP JUMPDEST PUSH1 0x9 PUSH0 SWAP1 SLOAD SWAP1 PUSH2 0x100 EXP SWAP1 DIV PUSH20 0xFFFFFFFFFFFFFFFFFFFFFFFFFFFFFFFFFFFFFFFF AND DUP2 JUMP JUMPDEST PUSH1 0x8 PUSH0 SWAP1 SLOAD SWAP1 PUSH2 0x100 EXP SWAP1 DIV PUSH1 0xFF AND DUP2 JUMP JUMPDEST PUSH0 PUSH1 0x4 SLOAD TIMESTAMP GT PUSH2 0x8C1 JUMPI PUSH1 0x40 MLOAD PUSH32 0x8C379A000000000000000000000000000000000000000000000000000000000 DUP2 MSTORE PUSH1 0x4 ADD PUSH2 0x8B8 SWAP1 PUSH2 0x1D77 JUMP JUMPDEST PUSH1 0x40 MLOAD DUP1 SWAP2 SUB SWAP1 REVERT JUMPDEST PUSH0 DUP1 JUMPDEST PUSH1 0xD DUP1 SLOAD SWAP1 POP DUP2 LT ISZERO PUSH2 0x954 JUMPI DUP2 PUSH1 0xD DUP3 DUP2 SLOAD DUP2 LT PUSH2 0x8E6 JUMPI PUSH2 0x8E5 PUSH2 0x1B80 JUMP JUMPDEST JUMPDEST SWAP1 PUSH0 MSTORE PUSH1 0x20 PUSH0 KECCAK256 SWAP1 PUSH1 0x2 MUL ADD PUSH1 0x1 ADD SLOAD GT ISZERO PUSH2 0x947 JUMPI PUSH1 0xD DUP2 DUP2 SLOAD DUP2 LT PUSH2 0x910 JUMPI PUSH2 0x90F PUSH2 0x1B80 JUMP JUMPDEST JUMPDEST SWAP1 PUSH0 MSTORE PUSH1 0x20 PUSH0 KECCAK256 SWAP1 PUSH1 0x2 MUL ADD PUSH1 0x1 ADD SLOAD SWAP2 POP DUP1 SWAP3 POP DUP3 PUSH1 0x6 DUP2 SWAP1 SSTORE POP PUSH1 0x1 PUSH1 0x8 PUSH0 PUSH2 0x100 EXP DUP2 SLOAD DUP2 PUSH1 0xFF MUL NOT AND SWAP1 DUP4 ISZERO ISZERO MUL OR SWAP1 SSTORE POP JUMPDEST DUP1 DUP1 PUSH1 0x1 ADD SWAP2 POP POP PUSH2 0x8C4 JUMP JUMPDEST POP POP SWAP1 JUMP JUMPDEST PUSH1 0xB PUSH0 SWAP1 SLOAD SWAP1 PUSH2 0x100 EXP SWAP1 DIV PUSH20 0xFFFFFFFFFFFFFFFFFFFFFFFFFFFFFFFFFFFFFFFF AND DUP2 JUMP JUMPDEST PUSH0 DUP1 PUSH0 SWAP1 SLOAD SWAP1 PUSH2 0x100 EXP SWAP1 DIV PUSH20 0xFFFFFFFFFFFFFFFFFFFFFFFFFFFFFFFFFFFFFFFF AND PUSH20 0xFFFFFFFFFFFFFFFFFFFFFFFFFFFFFFFFFFFFFFFF AND PUSH4 0x13FA9B23 ADDRESS DUP5 PUSH1 0x40 MLOAD DUP4 PUSH4 0xFFFFFFFF AND PUSH1 0xE0 SHL DUP2 MSTORE PUSH1 0x4 ADD PUSH2 0x9DA SWAP3 SWAP2 SWAP1 PUSH2 0x1D95 JUMP JUMPDEST PUSH1 0x20 PUSH1 0x40 MLOAD DUP1 DUP4 SUB DUP2 DUP7 GAS STATICCALL ISZERO DUP1 ISZERO PUSH2 0x9F5 JUMPI RETURNDATASIZE PUSH0 DUP1 RETURNDATACOPY RETURNDATASIZE PUSH0 REVERT JUMPDEST POP POP POP POP PUSH1 0x40 MLOAD RETURNDATASIZE PUSH1 0x1F NOT PUSH1 0x1F DUP3 ADD AND DUP3 ADD DUP1 PUSH1 0x40 MSTORE POP DUP2 ADD SWAP1 PUSH2 0xA19 SWAP2 SWAP1 PUSH2 0x1A85 JUMP JUMPDEST SWAP1 POP SWAP2 SWAP1 POP JUMP JUMPDEST PUSH1 0x4 SLOAD TIMESTAMP GT ISZERO PUSH2 0xA5C JUMPI PUSH1 0x40 MLOAD PUSH32 0x173B751500000000000000000000000000000000000000000000000000000000 DUP2 MSTORE PUSH1 0x4 ADD PUSH1 0x40 MLOAD DUP1 SWAP2 SUB SWAP1 REVERT JUMPDEST PUSH0 PUSH1 0x4 PUSH1 0xA PUSH2 0xA6B SWAP2 SWAP1 PUSH2 0x1EF2 JUMP JUMPDEST CALLVALUE PUSH2 0xA76 SWAP2 SWAP1 PUSH2 0x1F3C JUMP JUMPDEST SWAP1 POP PUSH1 0x8 PUSH1 0x1 SWAP1 SLOAD SWAP1 PUSH2 0x100 EXP SWAP1 DIV PUSH20 0xFFFFFFFFFFFFFFFFFFFFFFFFFFFFFFFFFFFFFFFF AND PUSH20 0xFFFFFFFFFFFFFFFFFFFFFFFFFFFFFFFFFFFFFFFF AND PUSH4 0x95EA7B3 ADDRESS DUP4 PUSH1 0x40 MLOAD DUP4 PUSH4 0xFFFFFFFF AND PUSH1 0xE0 SHL DUP2 MSTORE PUSH1 0x4 ADD PUSH2 0xAD5 SWAP3 SWAP2 SWAP1 PUSH2 0x1F7D JUMP JUMPDEST PUSH1 0x20 PUSH1 0x40 MLOAD DUP1 DUP4 SUB DUP2 PUSH0 DUP8 GAS CALL ISZERO DUP1 ISZERO PUSH2 0xAF1 JUMPI RETURNDATASIZE PUSH0 DUP1 RETURNDATACOPY RETURNDATASIZE PUSH0 REVERT JUMPDEST POP POP POP POP PUSH1 0x40 MLOAD RETURNDATASIZE PUSH1 0x1F NOT PUSH1 0x1F DUP3 ADD AND DUP3 ADD DUP1 PUSH1 0x40 MSTORE POP DUP2 ADD SWAP1 PUSH2 0xB15 SWAP2 SWAP1 PUSH2 0x1CA5 JUMP JUMPDEST PUSH2 0xB54 JUMPI PUSH1 0x40 MLOAD PUSH32 0x8C379A000000000000000000000000000000000000000000000000000000000 DUP2 MSTORE PUSH1 0x4 ADD PUSH2 0xB4B SWAP1 PUSH2 0x1FEE JUMP JUMPDEST PUSH1 0x40 MLOAD DUP1 SWAP2 SUB SWAP1 REVERT JUMPDEST PUSH1 0x8 PUSH1 0x1 SWAP1 SLOAD SWAP1 PUSH2 0x100 EXP SWAP1 DIV PUSH20 0xFFFFFFFFFFFFFFFFFFFFFFFFFFFFFFFFFFFFFFFF AND PUSH20 0xFFFFFFFFFFFFFFFFFFFFFFFFFFFFFFFFFFFFFFFF AND PUSH4 0x23B872DD ADDRESS CALLER DUP5 PUSH1 0x40 MLOAD DUP5 PUSH4 0xFFFFFFFF AND PUSH1 0xE0 SHL DUP2 MSTORE PUSH1 0x4 ADD PUSH2 0xBB3 SWAP4 SWAP3 SWAP2 SWAP1 PUSH2 0x200C JUMP JUMPDEST PUSH1 0x20 PUSH1 0x40 MLOAD DUP1 DUP4 SUB DUP2 PUSH0 DUP8 GAS CALL ISZERO DUP1 ISZERO PUSH2 0xBCF JUMPI RETURNDATASIZE PUSH0 DUP1 RETURNDATACOPY RETURNDATASIZE PUSH0 REVERT JUMPDEST POP POP POP POP PUSH1 0x40 MLOAD RETURNDATASIZE PUSH1 0x1F NOT PUSH1 0x1F DUP3 ADD AND DUP3 ADD DUP1 PUSH1 0x40 MSTORE POP DUP2 ADD SWAP1 PUSH2 0xBF3 SWAP2 SWAP1 PUSH2 0x1CA5 JUMP JUMPDEST PUSH2 0xC32 JUMPI PUSH1 0x40 MLOAD PUSH32 0x8C379A000000000000000000000000000000000000000000000000000000000 DUP2 MSTORE PUSH1 0x4 ADD PUSH2 0xC29 SWAP1 PUSH2 0x208B JUMP JUMPDEST PUSH1 0x40 MLOAD DUP1 SWAP2 SUB SWAP1 REVERT JUMPDEST SELFBALANCE PUSH1 0x5 DUP2 SWAP1 SSTORE POP POP JUMP JUMPDEST PUSH0 PUSH1 0x1 PUSH0 SWAP1 SLOAD SWAP1 PUSH2 0x100 EXP SWAP1 DIV PUSH20 0xFFFFFFFFFFFFFFFFFFFFFFFFFFFFFFFFFFFFFFFF AND PUSH20 0xFFFFFFFFFFFFFFFFFFFFFFFFFFFFFFFFFFFFFFFF AND PUSH4 0x98F9EFD9 DUP5 PUSH1 0x40 MLOAD DUP3 PUSH4 0xFFFFFFFF AND PUSH1 0xE0 SHL DUP2 MSTORE PUSH1 0x4 ADD PUSH2 0xC97 SWAP2 SWAP1 PUSH2 0x19B0 JUMP JUMPDEST PUSH1 0x20 PUSH1 0x40 MLOAD DUP1 DUP4 SUB DUP2 DUP7 GAS STATICCALL ISZERO DUP1 ISZERO PUSH2 0xCB2 JUMPI RETURNDATASIZE PUSH0 DUP1 RETURNDATACOPY RETURNDATASIZE PUSH0 REVERT JUMPDEST POP POP POP POP PUSH1 0x40 MLOAD RETURNDATASIZE PUSH1 0x1F NOT PUSH1 0x1F DUP3 ADD AND DUP3 ADD DUP1 PUSH1 0x40 MSTORE POP DUP2 ADD SWAP1 PUSH2 0xCD6 SWAP2 SWAP1 PUSH2 0x1A85 JUMP JUMPDEST SWAP1 POP PUSH2 0xD17 DUP4 PUSH1 0x40 MLOAD DUP1 PUSH1 0x40 ADD PUSH1 0x40 MSTORE DUP1 PUSH1 0xD DUP2 MSTORE PUSH1 0x20 ADD PUSH32 0x47796D4D656D6265727368697000000000000000000000000000000000000000 DUP2 MSTORE POP PUSH2 0x14B9 JUMP JUMPDEST ISZERO PUSH2 0xF4A JUMPI PUSH8 0xDE0B6B3A7640000 DUP2 PUSH2 0xD30 SWAP2 SWAP1 PUSH2 0x1F3C JUMP JUMPDEST PUSH1 0x9 PUSH0 SWAP1 SLOAD SWAP1 PUSH2 0x100 EXP SWAP1 DIV PUSH20 0xFFFFFFFFFFFFFFFFFFFFFFFFFFFFFFFFFFFFFFFF AND PUSH20 0xFFFFFFFFFFFFFFFFFFFFFFFFFFFFFFFFFFFFFFFF AND PUSH4 0x70A08231 DUP5 PUSH1 0x40 MLOAD DUP3 PUSH4 0xFFFFFFFF AND PUSH1 0xE0 SHL DUP2 MSTORE PUSH1 0x4 ADD PUSH2 0xD8A SWAP2 SWAP1 PUSH2 0x1715 JUMP JUMPDEST PUSH1 0x20 PUSH1 0x40 MLOAD DUP1 DUP4 SUB DUP2 DUP7 GAS STATICCALL ISZERO DUP1 ISZERO PUSH2 0xDA5 JUMPI RETURNDATASIZE PUSH0 DUP1 RETURNDATACOPY RETURNDATASIZE PUSH0 REVERT JUMPDEST POP POP POP POP PUSH1 0x40 MLOAD RETURNDATASIZE PUSH1 0x1F NOT PUSH1 0x1F DUP3 ADD AND DUP3 ADD DUP1 PUSH1 0x40 MSTORE POP DUP2 ADD SWAP1 PUSH2 0xDC9 SWAP2 SWAP1 PUSH2 0x1A85 JUMP JUMPDEST LT ISZERO PUSH2 0xE0A JUMPI PUSH1 0x40 MLOAD PUSH32 0x8C379A000000000000000000000000000000000000000000000000000000000 DUP2 MSTORE PUSH1 0x4 ADD PUSH2 0xE01 SWAP1 PUSH2 0x20F3 JUMP JUMPDEST PUSH1 0x40 MLOAD DUP1 SWAP2 SUB SWAP1 REVERT JUMPDEST PUSH1 0x9 PUSH0 SWAP1 SLOAD SWAP1 PUSH2 0x100 EXP SWAP1 DIV PUSH20 0xFFFFFFFFFFFFFFFFFFFFFFFFFFFFFFFFFFFFFFFF AND PUSH20 0xFFFFFFFFFFFFFFFFFFFFFFFFFFFFFFFFFFFFFFFF AND PUSH4 0x23B872DD DUP4 ADDRESS PUSH8 0xDE0B6B3A7640000 DUP6 PUSH2 0xE5D SWAP2 SWAP1 PUSH2 0x1F3C JUMP JUMPDEST PUSH1 0x40 MLOAD DUP5 PUSH4 0xFFFFFFFF AND PUSH1 0xE0 SHL DUP2 MSTORE PUSH1 0x4 ADD PUSH2 0xE7B SWAP4 SWAP3 SWAP2 SWAP1 PUSH2 0x200C JUMP JUMPDEST PUSH1 0x20 PUSH1 0x40 MLOAD DUP1 DUP4 SUB DUP2 PUSH0 DUP8 GAS CALL ISZERO DUP1 ISZERO PUSH2 0xE97 JUMPI RETURNDATASIZE PUSH0 DUP1 RETURNDATACOPY RETURNDATASIZE PUSH0 REVERT JUMPDEST POP POP POP POP PUSH1 0x40 MLOAD RETURNDATASIZE PUSH1 0x1F NOT PUSH1 0x1F DUP3 ADD AND DUP3 ADD DUP1 PUSH1 0x40 MSTORE POP DUP2 ADD SWAP1 PUSH2 0xEBB SWAP2 SWAP1 PUSH2 0x1CA5 JUMP JUMPDEST POP PUSH1 0x1 PUSH0 SWAP1 SLOAD SWAP1 PUSH2 0x100 EXP SWAP1 DIV PUSH20 0xFFFFFFFFFFFFFFFFFFFFFFFFFFFFFFFFFFFFFFFF AND PUSH20 0xFFFFFFFFFFFFFFFFFFFFFFFFFFFFFFFFFFFFFFFF AND PUSH4 0x3CE30E7 DUP5 DUP5 PUSH1 0x40 MLOAD DUP4 PUSH4 0xFFFFFFFF AND PUSH1 0xE0 SHL DUP2 MSTORE PUSH1 0x4 ADD PUSH2 0xF18 SWAP3 SWAP2 SWAP1 PUSH2 0x2111 JUMP JUMPDEST PUSH0 PUSH1 0x40 MLOAD DUP1 DUP4 SUB DUP2 PUSH0 DUP8 DUP1 EXTCODESIZE ISZERO DUP1 ISZERO PUSH2 0xF2F JUMPI PUSH0 DUP1 REVERT JUMPDEST POP GAS CALL ISZERO DUP1 ISZERO PUSH2 0xF41 JUMPI RETURNDATASIZE PUSH0 DUP1 RETURNDATACOPY RETURNDATASIZE PUSH0 REVERT JUMPDEST POP POP POP POP PUSH2 0xF85 JUMP JUMPDEST PUSH1 0x40 MLOAD PUSH32 0x8C379A000000000000000000000000000000000000000000000000000000000 DUP2 MSTORE PUSH1 0x4 ADD PUSH2 0xF7C SWAP1 PUSH2 0x2189 JUMP JUMPDEST PUSH1 0x40 MLOAD DUP1 SWAP2 SUB SWAP1 REVERT JUMPDEST POP POP POP JUMP JUMPDEST PUSH0 PUSH1 0x4 PUSH1 0x8 PUSH1 0x1 SWAP1 SLOAD SWAP1 PUSH2 0x100 EXP SWAP1 DIV PUSH20 0xFFFFFFFFFFFFFFFFFFFFFFFFFFFFFFFFFFFFFFFF AND PUSH20 0xFFFFFFFFFFFFFFFFFFFFFFFFFFFFFFFFFFFFFFFF AND PUSH4 0x313CE567 PUSH1 0x40 MLOAD DUP2 PUSH4 0xFFFFFFFF AND PUSH1 0xE0 SHL DUP2 MSTORE PUSH1 0x4 ADD PUSH1 0x20 PUSH1 0x40 MLOAD DUP1 DUP4 SUB DUP2 DUP7 GAS STATICCALL ISZERO DUP1 ISZERO PUSH2 0xFF8 JUMPI RETURNDATASIZE PUSH0 DUP1 RETURNDATACOPY RETURNDATASIZE PUSH0 REVERT JUMPDEST POP POP POP POP PUSH1 0x40 MLOAD RETURNDATASIZE PUSH1 0x1F NOT PUSH1 0x1F DUP3 ADD AND DUP3 ADD DUP1 PUSH1 0x40 MSTORE POP DUP2 ADD SWAP1 PUSH2 0x101C SWAP2 SWAP1 PUSH2 0x21DD JUMP JUMPDEST PUSH1 0xFF AND PUSH2 0x1029 SWAP2 SWAP1 PUSH2 0x2208 JUMP JUMPDEST PUSH1 0xA PUSH2 0x1035 SWAP2 SWAP1 PUSH2 0x1EF2 JUMP JUMPDEST PUSH0 DUP1 SLOAD SWAP1 PUSH2 0x100 EXP SWAP1 DIV PUSH20 0xFFFFFFFFFFFFFFFFFFFFFFFFFFFFFFFFFFFFFFFF AND PUSH20 0xFFFFFFFFFFFFFFFFFFFFFFFFFFFFFFFFFFFFFFFF AND PUSH4 0x2CDE4C50 PUSH1 0x7 PUSH0 PUSH1 0x6 SLOAD DUP2 MSTORE PUSH1 0x20 ADD SWAP1 DUP2 MSTORE PUSH1 0x20 ADD PUSH0 KECCAK256 PUSH1 0x40 MLOAD DUP3 PUSH4 0xFFFFFFFF AND PUSH1 0xE0 SHL DUP2 MSTORE PUSH1 0x4 ADD PUSH2 0x109F SWAP2 SWAP1 PUSH2 0x22CE JUMP JUMPDEST PUSH1 0x20 PUSH1 0x40 MLOAD DUP1 DUP4 SUB DUP2 DUP7 GAS STATICCALL ISZERO DUP1 ISZERO PUSH2 0x10BA JUMPI RETURNDATASIZE PUSH0 DUP1 RETURNDATACOPY RETURNDATASIZE PUSH0 REVERT JUMPDEST POP POP POP POP PUSH1 0x40 MLOAD RETURNDATASIZE PUSH1 0x1F NOT PUSH1 0x1F DUP3 ADD AND DUP3 ADD DUP1 PUSH1 0x40 MSTORE POP DUP2 ADD SWAP1 PUSH2 0x10DE SWAP2 SWAP1 PUSH2 0x1A85 JUMP JUMPDEST PUSH2 0x10E8 SWAP2 SWAP1 PUSH2 0x1F3C JUMP JUMPDEST SWAP1 POP PUSH1 0x4 SLOAD TIMESTAMP GT PUSH2 0x112E JUMPI PUSH1 0x40 MLOAD PUSH32 0x8C379A000000000000000000000000000000000000000000000000000000000 DUP2 MSTORE PUSH1 0x4 ADD PUSH2 0x1125 SWAP1 PUSH2 0x1D77 JUMP JUMPDEST PUSH1 0x40 MLOAD DUP1 SWAP2 SUB SWAP1 REVERT JUMPDEST PUSH1 0x1 ISZERO ISZERO PUSH1 0x8 PUSH0 SWAP1 SLOAD SWAP1 PUSH2 0x100 EXP SWAP1 DIV PUSH1 0xFF AND ISZERO ISZERO EQ PUSH2 0x1183 JUMPI PUSH1 0x40 MLOAD PUSH32 0x8C379A000000000000000000000000000000000000000000000000000000000 DUP2 MSTORE PUSH1 0x4 ADD PUSH2 0x117A SWAP1 PUSH2 0x2338 JUMP JUMPDEST PUSH1 0x40 MLOAD DUP1 SWAP2 SUB SWAP1 REVERT JUMPDEST DUP1 PUSH1 0x5 SLOAD LT ISZERO PUSH2 0x11C8 JUMPI PUSH1 0x40 MLOAD PUSH32 0x8C379A000000000000000000000000000000000000000000000000000000000 DUP2 MSTORE PUSH1 0x4 ADD PUSH2 0x11BF SWAP1 PUSH2 0x23C6 JUMP JUMPDEST PUSH1 0x40 MLOAD DUP1 SWAP2 SUB SWAP1 REVERT JUMPDEST DUP1 PUSH1 0x5 SLOAD LT ISZERO PUSH2 0x11D6 JUMPI PUSH0 DUP1 REVERT JUMPDEST PUSH0 PUSH1 0x2 PUSH0 SWAP1 SLOAD SWAP1 PUSH2 0x100 EXP SWAP1 DIV PUSH20 0xFFFFFFFFFFFFFFFFFFFFFFFFFFFFFFFFFFFFFFFF AND PUSH20 0xFFFFFFFFFFFFFFFFFFFFFFFFFFFFFFFFFFFFFFFF AND DUP3 PUSH1 0x7 PUSH0 PUSH1 0x6 SLOAD DUP2 MSTORE PUSH1 0x20 ADD SWAP1 DUP2 MSTORE PUSH1 0x20 ADD PUSH0 KECCAK256 PUSH1 0x40 MLOAD PUSH1 0x24 ADD PUSH2 0x1233 SWAP2 SWAP1 PUSH2 0x22CE JUMP JUMPDEST PUSH1 0x40 MLOAD PUSH1 0x20 DUP2 DUP4 SUB SUB DUP2 MSTORE SWAP1 PUSH1 0x40 MSTORE PUSH32 0x59F5E0CE00000000000000000000000000000000000000000000000000000000 PUSH28 0xFFFFFFFFFFFFFFFFFFFFFFFFFFFFFFFFFFFFFFFFFFFFFFFFFFFFFFFF NOT AND PUSH1 0x20 DUP3 ADD DUP1 MLOAD PUSH28 0xFFFFFFFFFFFFFFFFFFFFFFFFFFFFFFFFFFFFFFFFFFFFFFFFFFFFFFFF DUP4 DUP2 DUP4 AND OR DUP4 MSTORE POP POP POP POP PUSH1 0x40 MLOAD PUSH2 0x12BD SWAP2 SWAP1 PUSH2 0x2428 JUMP JUMPDEST PUSH0 PUSH1 0x40 MLOAD DUP1 DUP4 SUB DUP2 DUP6 DUP8 GAS CALL SWAP3 POP POP POP RETURNDATASIZE DUP1 PUSH0 DUP2 EQ PUSH2 0x12F7 JUMPI PUSH1 0x40 MLOAD SWAP2 POP PUSH1 0x1F NOT PUSH1 0x3F RETURNDATASIZE ADD AND DUP3 ADD PUSH1 0x40 MSTORE RETURNDATASIZE DUP3 MSTORE RETURNDATASIZE PUSH0 PUSH1 0x20 DUP5 ADD RETURNDATACOPY PUSH2 0x12FC JUMP JUMPDEST PUSH1 0x60 SWAP2 POP JUMPDEST POP POP SWAP1 POP DUP1 PUSH2 0x1340 JUMPI PUSH1 0x40 MLOAD PUSH32 0x8C379A000000000000000000000000000000000000000000000000000000000 DUP2 MSTORE PUSH1 0x4 ADD PUSH2 0x1337 SWAP1 PUSH2 0x24AE JUMP JUMPDEST PUSH1 0x40 MLOAD DUP1 SWAP2 SUB SWAP1 REVERT JUMPDEST SELFBALANCE PUSH1 0x5 DUP2 SWAP1 SSTORE POP POP POP JUMP JUMPDEST PUSH1 0x4 SLOAD DUP2 JUMP JUMPDEST PUSH1 0x2 PUSH0 SWAP1 SLOAD SWAP1 PUSH2 0x100 EXP SWAP1 DIV PUSH20 0xFFFFFFFFFFFFFFFFFFFFFFFFFFFFFFFFFFFFFFFF AND DUP2 JUMP JUMPDEST PUSH1 0xC PUSH1 0x20 MSTORE DUP1 PUSH0 MSTORE PUSH1 0x40 PUSH0 KECCAK256 PUSH0 SWAP2 POP SWAP1 POP DUP1 PUSH0 ADD PUSH0 SWAP1 SLOAD SWAP1 PUSH2 0x100 EXP SWAP1 DIV PUSH1 0xFF AND SWAP1 DUP1 PUSH1 0x1 ADD SLOAD SWAP1 POP DUP3 JUMP JUMPDEST PUSH1 0x5 SLOAD DUP2 JUMP JUMPDEST PUSH1 0x8 PUSH1 0x1 SWAP1 SLOAD SWAP1 PUSH2 0x100 EXP SWAP1 DIV PUSH20 0xFFFFFFFFFFFFFFFFFFFFFFFFFFFFFFFFFFFFFFFF AND DUP2 JUMP JUMPDEST PUSH1 0x7 PUSH1 0x20 MSTORE DUP1 PUSH0 MSTORE PUSH1 0x40 PUSH0 KECCAK256 PUSH0 SWAP2 POP SWAP1 POP DUP1 SLOAD PUSH2 0x13EA SWAP1 PUSH2 0x1CFD JUMP JUMPDEST DUP1 PUSH1 0x1F ADD PUSH1 0x20 DUP1 SWAP2 DIV MUL PUSH1 0x20 ADD PUSH1 0x40 MLOAD SWAP1 DUP2 ADD PUSH1 0x40 MSTORE DUP1 SWAP3 SWAP2 SWAP1 DUP2 DUP2 MSTORE PUSH1 0x20 ADD DUP3 DUP1 SLOAD PUSH2 0x1416 SWAP1 PUSH2 0x1CFD JUMP JUMPDEST DUP1 ISZERO PUSH2 0x1461 JUMPI DUP1 PUSH1 0x1F LT PUSH2 0x1438 JUMPI PUSH2 0x100 DUP1 DUP4 SLOAD DIV MUL DUP4 MSTORE SWAP2 PUSH1 0x20 ADD SWAP2 PUSH2 0x1461 JUMP JUMPDEST DUP3 ADD SWAP2 SWAP1 PUSH0 MSTORE PUSH1 0x20 PUSH0 KECCAK256 SWAP1 JUMPDEST DUP2 SLOAD DUP2 MSTORE SWAP1 PUSH1 0x1 ADD SWAP1 PUSH1 0x20 ADD DUP1 DUP4 GT PUSH2 0x1444 JUMPI DUP3 SWAP1 SUB PUSH1 0x1F AND DUP3 ADD SWAP2 JUMPDEST POP POP POP POP POP DUP2 JUMP JUMPDEST PUSH1 0xA PUSH0 SWAP1 SLOAD SWAP1 PUSH2 0x100 EXP SWAP1 DIV PUSH20 0xFFFFFFFFFFFFFFFFFFFFFFFFFFFFFFFFFFFFFFFF AND DUP2 JUMP JUMPDEST PUSH1 0x6 SLOAD DUP2 JUMP JUMPDEST PUSH1 0x3 PUSH0 SWAP1 SLOAD SWAP1 PUSH2 0x100 EXP SWAP1 DIV PUSH20 0xFFFFFFFFFFFFFFFFFFFFFFFFFFFFFFFFFFFFFFFF AND DUP2 JUMP JUMPDEST PUSH0 DUP2 MLOAD DUP4 MLOAD EQ DUP1 ISZERO PUSH2 0x14D8 JUMPI POP DUP2 DUP1 MLOAD SWAP1 PUSH1 0x20 ADD KECCAK256 DUP4 DUP1 MLOAD SWAP1 PUSH1 0x20 ADD KECCAK256 EQ JUMPDEST SWAP1 POP SWAP3 SWAP2 POP POP JUMP JUMPDEST PUSH0 PUSH1 0x40 MLOAD SWAP1 POP SWAP1 JUMP JUMPDEST PUSH0 DUP1 REVERT JUMPDEST PUSH0 DUP1 REVERT JUMPDEST PUSH0 DUP2 SWAP1 POP SWAP2 SWAP1 POP JUMP JUMPDEST PUSH2 0x1503 DUP2 PUSH2 0x14F1 JUMP JUMPDEST DUP2 EQ PUSH2 0x150D JUMPI PUSH0 DUP1 REVERT JUMPDEST POP JUMP JUMPDEST PUSH0 DUP2 CALLDATALOAD SWAP1 POP PUSH2 0x151E DUP2 PUSH2 0x14FA JUMP JUMPDEST SWAP3 SWAP2 POP POP JUMP JUMPDEST PUSH0 PUSH1 0x20 DUP3 DUP5 SUB SLT ISZERO PUSH2 0x1539 JUMPI PUSH2 0x1538 PUSH2 0x14E9 JUMP JUMPDEST JUMPDEST PUSH0 PUSH2 0x1546 DUP5 DUP3 DUP6 ADD PUSH2 0x1510 JUMP JUMPDEST SWAP2 POP POP SWAP3 SWAP2 POP POP JUMP JUMPDEST PUSH0 DUP2 MLOAD SWAP1 POP SWAP2 SWAP1 POP JUMP JUMPDEST PUSH0 DUP3 DUP3 MSTORE PUSH1 0x20 DUP3 ADD SWAP1 POP SWAP3 SWAP2 POP POP JUMP JUMPDEST PUSH0 JUMPDEST DUP4 DUP2 LT ISZERO PUSH2 0x1586 JUMPI DUP1 DUP3 ADD MLOAD DUP2 DUP5 ADD MSTORE PUSH1 0x20 DUP2 ADD SWAP1 POP PUSH2 0x156B JUMP JUMPDEST PUSH0 DUP5 DUP5 ADD MSTORE POP POP POP POP JUMP JUMPDEST PUSH0 PUSH1 0x1F NOT PUSH1 0x1F DUP4 ADD AND SWAP1 POP SWAP2 SWAP1 POP JUMP JUMPDEST PUSH0 PUSH2 0x15AB DUP3 PUSH2 0x154F JUMP JUMPDEST PUSH2 0x15B5 DUP2 DUP6 PUSH2 0x1559 JUMP JUMPDEST SWAP4 POP PUSH2 0x15C5 DUP2 DUP6 PUSH1 0x20 DUP7 ADD PUSH2 0x1569 JUMP JUMPDEST PUSH2 0x15CE DUP2 PUSH2 0x1591 JUMP JUMPDEST DUP5 ADD SWAP2 POP POP SWAP3 SWAP2 POP POP JUMP JUMPDEST PUSH2 0x15E2 DUP2 PUSH2 0x14F1 JUMP JUMPDEST DUP3 MSTORE POP POP JUMP JUMPDEST PUSH0 PUSH1 0x40 DUP3 ADD SWAP1 POP DUP2 DUP2 SUB PUSH0 DUP4 ADD MSTORE PUSH2 0x1600 DUP2 DUP6 PUSH2 0x15A1 JUMP JUMPDEST SWAP1 POP PUSH2 0x160F PUSH1 0x20 DUP4 ADD DUP5 PUSH2 0x15D9 JUMP JUMPDEST SWAP4 SWAP3 POP POP POP JUMP JUMPDEST PUSH0 PUSH20 0xFFFFFFFFFFFFFFFFFFFFFFFFFFFFFFFFFFFFFFFF DUP3 AND SWAP1 POP SWAP2 SWAP1 POP JUMP JUMPDEST PUSH0 DUP2 SWAP1 POP SWAP2 SWAP1 POP JUMP JUMPDEST PUSH0 PUSH2 0x1658 PUSH2 0x1653 PUSH2 0x164E DUP5 PUSH2 0x1616 JUMP JUMPDEST PUSH2 0x1635 JUMP JUMPDEST PUSH2 0x1616 JUMP JUMPDEST SWAP1 POP SWAP2 SWAP1 POP JUMP JUMPDEST PUSH0 PUSH2 0x1669 DUP3 PUSH2 0x163E JUMP JUMPDEST SWAP1 POP SWAP2 SWAP1 POP JUMP JUMPDEST PUSH0 PUSH2 0x167A DUP3 PUSH2 0x165F JUMP JUMPDEST SWAP1 POP SWAP2 SWAP1 POP JUMP JUMPDEST PUSH2 0x168A DUP2 PUSH2 0x1670 JUMP JUMPDEST DUP3 MSTORE POP POP JUMP JUMPDEST PUSH0 PUSH1 0x20 DUP3 ADD SWAP1 POP PUSH2 0x16A3 PUSH0 DUP4 ADD DUP5 PUSH2 0x1681 JUMP JUMPDEST SWAP3 SWAP2 POP POP JUMP JUMPDEST PUSH0 DUP2 ISZERO ISZERO SWAP1 POP SWAP2 SWAP1 POP JUMP JUMPDEST PUSH2 0x16BD DUP2 PUSH2 0x16A9 JUMP JUMPDEST DUP3 MSTORE POP POP JUMP JUMPDEST PUSH0 PUSH1 0x20 DUP3 ADD SWAP1 POP PUSH2 0x16D6 PUSH0 DUP4 ADD DUP5 PUSH2 0x16B4 JUMP JUMPDEST SWAP3 SWAP2 POP POP JUMP JUMPDEST PUSH0 PUSH1 0x20 DUP3 ADD SWAP1 POP PUSH2 0x16EF PUSH0 DUP4 ADD DUP5 PUSH2 0x15D9 JUMP JUMPDEST SWAP3 SWAP2 POP POP JUMP JUMPDEST PUSH0 PUSH2 0x16FF DUP3 PUSH2 0x1616 JUMP JUMPDEST SWAP1 POP SWAP2 SWAP1 POP JUMP JUMPDEST PUSH2 0x170F DUP2 PUSH2 0x16F5 JUMP JUMPDEST DUP3 MSTORE POP POP JUMP JUMPDEST PUSH0 PUSH1 0x20 DUP3 ADD SWAP1 POP PUSH2 0x1728 PUSH0 DUP4 ADD DUP5 PUSH2 0x1706 JUMP JUMPDEST SWAP3 SWAP2 POP POP JUMP JUMPDEST PUSH0 DUP1 REVERT JUMPDEST PUSH0 DUP1 REVERT JUMPDEST PUSH32 0x4E487B7100000000000000000000000000000000000000000000000000000000 PUSH0 MSTORE PUSH1 0x41 PUSH1 0x4 MSTORE PUSH1 0x24 PUSH0 REVERT JUMPDEST PUSH2 0x176C DUP3 PUSH2 0x1591 JUMP JUMPDEST DUP2 ADD DUP2 DUP2 LT PUSH8 0xFFFFFFFFFFFFFFFF DUP3 GT OR ISZERO PUSH2 0x178B JUMPI PUSH2 0x178A PUSH2 0x1736 JUMP JUMPDEST JUMPDEST DUP1 PUSH1 0x40 MSTORE POP POP POP JUMP JUMPDEST PUSH0 PUSH2 0x179D PUSH2 0x14E0 JUMP JUMPDEST SWAP1 POP PUSH2 0x17A9 DUP3 DUP3 PUSH2 0x1763 JUMP JUMPDEST SWAP2 SWAP1 POP JUMP JUMPDEST PUSH0 PUSH8 0xFFFFFFFFFFFFFFFF DUP3 GT ISZERO PUSH2 0x17C8 JUMPI PUSH2 0x17C7 PUSH2 0x1736 JUMP JUMPDEST JUMPDEST PUSH2 0x17D1 DUP3 PUSH2 0x1591 JUMP JUMPDEST SWAP1 POP PUSH1 0x20 DUP2 ADD SWAP1 POP SWAP2 SWAP1 POP JUMP JUMPDEST DUP3 DUP2 DUP4 CALLDATACOPY PUSH0 DUP4 DUP4 ADD MSTORE POP POP POP JUMP JUMPDEST PUSH0 PUSH2 0x17FE PUSH2 0x17F9 DUP5 PUSH2 0x17AE JUMP JUMPDEST PUSH2 0x1794 JUMP JUMPDEST SWAP1 POP DUP3 DUP2 MSTORE PUSH1 0x20 DUP2 ADD DUP5 DUP5 DUP5 ADD GT ISZERO PUSH2 0x181A JUMPI PUSH2 0x1819 PUSH2 0x1732 JUMP JUMPDEST JUMPDEST PUSH2 0x1825 DUP5 DUP3 DUP6 PUSH2 0x17DE JUMP JUMPDEST POP SWAP4 SWAP3 POP POP POP JUMP JUMPDEST PUSH0 DUP3 PUSH1 0x1F DUP4 ADD SLT PUSH2 0x1841 JUMPI PUSH2 0x1840 PUSH2 0x172E JUMP JUMPDEST JUMPDEST DUP2 CALLDATALOAD PUSH2 0x1851 DUP5 DUP3 PUSH1 0x20 DUP7 ADD PUSH2 0x17EC JUMP JUMPDEST SWAP2 POP POP SWAP3 SWAP2 POP POP JUMP JUMPDEST PUSH0 PUSH1 0x20 DUP3 DUP5 SUB SLT ISZERO PUSH2 0x186F JUMPI PUSH2 0x186E PUSH2 0x14E9 JUMP JUMPDEST JUMPDEST PUSH0 DUP3 ADD CALLDATALOAD PUSH8 0xFFFFFFFFFFFFFFFF DUP2 GT ISZERO PUSH2 0x188C JUMPI PUSH2 0x188B PUSH2 0x14ED JUMP JUMPDEST JUMPDEST PUSH2 0x1898 DUP5 DUP3 DUP6 ADD PUSH2 0x182D JUMP JUMPDEST SWAP2 POP POP SWAP3 SWAP2 POP POP JUMP JUMPDEST PUSH2 0x18AA DUP2 PUSH2 0x16F5 JUMP JUMPDEST DUP2 EQ PUSH2 0x18B4 JUMPI PUSH0 DUP1 REVERT JUMPDEST POP JUMP JUMPDEST PUSH0 DUP2 CALLDATALOAD SWAP1 POP PUSH2 0x18C5 DUP2 PUSH2 0x18A1 JUMP JUMPDEST SWAP3 SWAP2 POP POP JUMP JUMPDEST PUSH0 DUP1 PUSH1 0x40 DUP4 DUP6 SUB SLT ISZERO PUSH2 0x18E1 JUMPI PUSH2 0x18E0 PUSH2 0x14E9 JUMP JUMPDEST JUMPDEST PUSH0 DUP4 ADD CALLDATALOAD PUSH8 0xFFFFFFFFFFFFFFFF DUP2 GT ISZERO PUSH2 0x18FE JUMPI PUSH2 0x18FD PUSH2 0x14ED JUMP JUMPDEST JUMPDEST PUSH2 0x190A DUP6 DUP3 DUP7 ADD PUSH2 0x182D JUMP JUMPDEST SWAP3 POP POP PUSH1 0x20 PUSH2 0x191B DUP6 DUP3 DUP7 ADD PUSH2 0x18B7 JUMP JUMPDEST SWAP2 POP POP SWAP3 POP SWAP3 SWAP1 POP JUMP JUMPDEST PUSH0 PUSH1 0x20 DUP3 DUP5 SUB SLT ISZERO PUSH2 0x193A JUMPI PUSH2 0x1939 PUSH2 0x14E9 JUMP JUMPDEST JUMPDEST PUSH0 PUSH2 0x1947 DUP5 DUP3 DUP6 ADD PUSH2 0x18B7 JUMP JUMPDEST SWAP2 POP POP SWAP3 SWAP2 POP POP JUMP JUMPDEST PUSH0 PUSH1 0x40 DUP3 ADD SWAP1 POP PUSH2 0x1963 PUSH0 DUP4 ADD DUP6 PUSH2 0x16B4 JUMP JUMPDEST PUSH2 0x1970 PUSH1 0x20 DUP4 ADD DUP5 PUSH2 0x15D9 JUMP JUMPDEST SWAP4 SWAP3 POP POP POP JUMP JUMPDEST PUSH0 PUSH2 0x1981 DUP3 PUSH2 0x165F JUMP JUMPDEST SWAP1 POP SWAP2 SWAP1 POP JUMP JUMPDEST PUSH2 0x1991 DUP2 PUSH2 0x1977 JUMP JUMPDEST DUP3 MSTORE POP POP JUMP JUMPDEST PUSH0 PUSH1 0x20 DUP3 ADD SWAP1 POP PUSH2 0x19AA PUSH0 DUP4 ADD DUP5 PUSH2 0x1988 JUMP JUMPDEST SWAP3 SWAP2 POP POP JUMP JUMPDEST PUSH0 PUSH1 0x20 DUP3 ADD SWAP1 POP DUP2 DUP2 SUB PUSH0 DUP4 ADD MSTORE PUSH2 0x19C8 DUP2 DUP5 PUSH2 0x15A1 JUMP JUMPDEST SWAP1 POP SWAP3 SWAP2 POP POP JUMP JUMPDEST PUSH0 PUSH2 0x19DA DUP3 PUSH2 0x165F JUMP JUMPDEST SWAP1 POP SWAP2 SWAP1 POP JUMP JUMPDEST PUSH2 0x19EA DUP2 PUSH2 0x19D0 JUMP JUMPDEST DUP3 MSTORE POP POP JUMP JUMPDEST PUSH0 PUSH1 0x20 DUP3 ADD SWAP1 POP PUSH2 0x1A03 PUSH0 DUP4 ADD DUP5 PUSH2 0x19E1 JUMP JUMPDEST SWAP3 SWAP2 POP POP JUMP JUMPDEST PUSH32 0x566F74696E6720706572696F642068617320656E646564000000000000000000 PUSH0 DUP3 ADD MSTORE POP JUMP JUMPDEST PUSH0 PUSH2 0x1A3D PUSH1 0x17 DUP4 PUSH2 0x1559 JUMP JUMPDEST SWAP2 POP PUSH2 0x1A48 DUP3 PUSH2 0x1A09 JUMP JUMPDEST PUSH1 0x20 DUP3 ADD SWAP1 POP SWAP2 SWAP1 POP JUMP JUMPDEST PUSH0 PUSH1 0x20 DUP3 ADD SWAP1 POP DUP2 DUP2 SUB PUSH0 DUP4 ADD MSTORE PUSH2 0x1A6A DUP2 PUSH2 0x1A31 JUMP JUMPDEST SWAP1 POP SWAP2 SWAP1 POP JUMP JUMPDEST PUSH0 DUP2 MLOAD SWAP1 POP PUSH2 0x1A7F DUP2 PUSH2 0x14FA JUMP JUMPDEST SWAP3 SWAP2 POP POP JUMP JUMPDEST PUSH0 PUSH1 0x20 DUP3 DUP5 SUB SLT ISZERO PUSH2 0x1A9A JUMPI PUSH2 0x1A99 PUSH2 0x14E9 JUMP JUMPDEST JUMPDEST PUSH0 PUSH2 0x1AA7 DUP5 DUP3 DUP6 ADD PUSH2 0x1A71 JUMP JUMPDEST SWAP2 POP POP SWAP3 SWAP2 POP POP JUMP JUMPDEST PUSH32 0x486173206E6F20726967687420746F20766F7465000000000000000000000000 PUSH0 DUP3 ADD MSTORE POP JUMP JUMPDEST PUSH0 PUSH2 0x1AE4 PUSH1 0x14 DUP4 PUSH2 0x1559 JUMP JUMPDEST SWAP2 POP PUSH2 0x1AEF DUP3 PUSH2 0x1AB0 JUMP JUMPDEST PUSH1 0x20 DUP3 ADD SWAP1 POP SWAP2 SWAP1 POP JUMP JUMPDEST PUSH0 PUSH1 0x20 DUP3 ADD SWAP1 POP DUP2 DUP2 SUB PUSH0 DUP4 ADD MSTORE PUSH2 0x1B11 DUP2 PUSH2 0x1AD8 JUMP JUMPDEST SWAP1 POP SWAP2 SWAP1 POP JUMP JUMPDEST PUSH32 0x53656E64657220616C726561647920766F7465642E0000000000000000000000 PUSH0 DUP3 ADD MSTORE POP JUMP JUMPDEST PUSH0 PUSH2 0x1B4C PUSH1 0x15 DUP4 PUSH2 0x1559 JUMP JUMPDEST SWAP2 POP PUSH2 0x1B57 DUP3 PUSH2 0x1B18 JUMP JUMPDEST PUSH1 0x20 DUP3 ADD SWAP1 POP SWAP2 SWAP1 POP JUMP JUMPDEST PUSH0 PUSH1 0x20 DUP3 ADD SWAP1 POP DUP2 DUP2 SUB PUSH0 DUP4 ADD MSTORE PUSH2 0x1B79 DUP2 PUSH2 0x1B40 JUMP JUMPDEST SWAP1 POP SWAP2 SWAP1 POP JUMP JUMPDEST PUSH32 0x4E487B7100000000000000000000000000000000000000000000000000000000 PUSH0 MSTORE PUSH1 0x32 PUSH1 0x4 MSTORE PUSH1 0x24 PUSH0 REVERT JUMPDEST PUSH32 0x4E487B7100000000000000000000000000000000000000000000000000000000 PUSH0 MSTORE PUSH1 0x11 PUSH1 0x4 MSTORE PUSH1 0x24 PUSH0 REVERT JUMPDEST PUSH0 PUSH2 0x1BE4 DUP3 PUSH2 0x14F1 JUMP JUMPDEST SWAP2 POP PUSH2 0x1BEF DUP4 PUSH2 0x14F1 JUMP JUMPDEST SWAP3 POP DUP3 DUP3 ADD SWAP1 POP DUP1 DUP3 GT ISZERO PUSH2 0x1C07 JUMPI PUSH2 0x1C06 PUSH2 0x1BAD JUMP JUMPDEST JUMPDEST SWAP3 SWAP2 POP POP JUMP JUMPDEST PUSH0 DUP2 SWAP1 POP SWAP2 SWAP1 POP JUMP JUMPDEST PUSH0 PUSH2 0x1C30 PUSH2 0x1C2B PUSH2 0x1C26 DUP5 PUSH2 0x1C0D JUMP JUMPDEST PUSH2 0x1635 JUMP JUMPDEST PUSH2 0x14F1 JUMP JUMPDEST SWAP1 POP SWAP2 SWAP1 POP JUMP JUMPDEST PUSH2 0x1C40 DUP2 PUSH2 0x1C16 JUMP JUMPDEST DUP3 MSTORE POP POP JUMP JUMPDEST PUSH0 PUSH1 0x60 DUP3 ADD SWAP1 POP PUSH2 0x1C59 PUSH0 DUP4 ADD DUP7 PUSH2 0x1706 JUMP JUMPDEST PUSH2 0x1C66 PUSH1 0x20 DUP4 ADD DUP6 PUSH2 0x1706 JUMP JUMPDEST PUSH2 0x1C73 PUSH1 0x40 DUP4 ADD DUP5 PUSH2 0x1C37 JUMP JUMPDEST SWAP5 SWAP4 POP POP POP POP JUMP JUMPDEST PUSH2 0x1C84 DUP2 PUSH2 0x16A9 JUMP JUMPDEST DUP2 EQ PUSH2 0x1C8E JUMPI PUSH0 DUP1 REVERT JUMPDEST POP JUMP JUMPDEST PUSH0 DUP2 MLOAD SWAP1 POP PUSH2 0x1C9F DUP2 PUSH2 0x1C7B JUMP JUMPDEST SWAP3 SWAP2 POP POP JUMP JUMPDEST PUSH0 PUSH1 0x20 DUP3 DUP5 SUB SLT ISZERO PUSH2 0x1CBA JUMPI PUSH2 0x1CB9 PUSH2 0x14E9 JUMP JUMPDEST JUMPDEST PUSH0 PUSH2 0x1CC7 DUP5 DUP3 DUP6 ADD PUSH2 0x1C91 JUMP JUMPDEST SWAP2 POP POP SWAP3 SWAP2 POP POP JUMP JUMPDEST PUSH32 0x4E487B7100000000000000000000000000000000000000000000000000000000 PUSH0 MSTORE PUSH1 0x22 PUSH1 0x4 MSTORE PUSH1 0x24 PUSH0 REVERT JUMPDEST PUSH0 PUSH1 0x2 DUP3 DIV SWAP1 POP PUSH1 0x1 DUP3 AND DUP1 PUSH2 0x1D14 JUMPI PUSH1 0x7F DUP3 AND SWAP2 POP JUMPDEST PUSH1 0x20 DUP3 LT DUP2 SUB PUSH2 0x1D27 JUMPI PUSH2 0x1D26 PUSH2 0x1CD0 JUMP JUMPDEST JUMPDEST POP SWAP2 SWAP1 POP JUMP JUMPDEST PUSH32 0x566F7465206E6F742079657420656E6465642E00000000000000000000000000 PUSH0 DUP3 ADD MSTORE POP JUMP JUMPDEST PUSH0 PUSH2 0x1D61 PUSH1 0x13 DUP4 PUSH2 0x1559 JUMP JUMPDEST SWAP2 POP PUSH2 0x1D6C DUP3 PUSH2 0x1D2D JUMP JUMPDEST PUSH1 0x20 DUP3 ADD SWAP1 POP SWAP2 SWAP1 POP JUMP JUMPDEST PUSH0 PUSH1 0x20 DUP3 ADD SWAP1 POP DUP2 DUP2 SUB PUSH0 DUP4 ADD MSTORE PUSH2 0x1D8E DUP2 PUSH2 0x1D55 JUMP JUMPDEST SWAP1 POP SWAP2 SWAP1 POP JUMP JUMPDEST PUSH0 PUSH1 0x40 DUP3 ADD SWAP1 POP PUSH2 0x1DA8 PUSH0 DUP4 ADD DUP6 PUSH2 0x1706 JUMP JUMPDEST DUP2 DUP2 SUB PUSH1 0x20 DUP4 ADD MSTORE PUSH2 0x1DBA DUP2 DUP5 PUSH2 0x15A1 JUMP JUMPDEST SWAP1 POP SWAP4 SWAP3 POP POP POP JUMP JUMPDEST PUSH0 DUP2 PUSH1 0x1 SHR SWAP1 POP SWAP2 SWAP1 POP JUMP JUMPDEST PUSH0 DUP1 DUP3 SWAP2 POP DUP4 SWAP1 POP JUMPDEST PUSH1 0x1 DUP6 GT ISZERO PUSH2 0x1E18 JUMPI DUP1 DUP7 DIV DUP2 GT ISZERO PUSH2 0x1DF4 JUMPI PUSH2 0x1DF3 PUSH2 0x1BAD JUMP JUMPDEST JUMPDEST PUSH1 0x1 DUP6 AND ISZERO PUSH2 0x1E03 JUMPI DUP1 DUP3 MUL SWAP2 POP JUMPDEST DUP1 DUP2 MUL SWAP1 POP PUSH2 0x1E11 DUP6 PUSH2 0x1DC3 JUMP JUMPDEST SWAP5 POP PUSH2 0x1DD8 JUMP JUMPDEST SWAP5 POP SWAP5 SWAP3 POP POP POP JUMP JUMPDEST PUSH0 DUP3 PUSH2 0x1E30 JUMPI PUSH1 0x1 SWAP1 POP PUSH2 0x1EEB JUMP JUMPDEST DUP2 PUSH2 0x1E3D JUMPI PUSH0 SWAP1 POP PUSH2 0x1EEB JUMP JUMPDEST DUP2 PUSH1 0x1 DUP2 EQ PUSH2 0x1E53 JUMPI PUSH1 0x2 DUP2 EQ PUSH2 0x1E5D JUMPI PUSH2 0x1E8C JUMP JUMPDEST PUSH1 0x1 SWAP2 POP POP PUSH2 0x1EEB JUMP JUMPDEST PUSH1 0xFF DUP5 GT ISZERO PUSH2 0x1E6F JUMPI PUSH2 0x1E6E PUSH2 0x1BAD JUMP JUMPDEST JUMPDEST DUP4 PUSH1 0x2 EXP SWAP2 POP DUP5 DUP3 GT ISZERO PUSH2 0x1E86 JUMPI PUSH2 0x1E85 PUSH2 0x1BAD JUMP JUMPDEST JUMPDEST POP PUSH2 0x1EEB JUMP JUMPDEST POP PUSH1 0x20 DUP4 LT PUSH2 0x133 DUP4 LT AND PUSH1 0x4E DUP5 LT PUSH1 0xB DUP5 LT AND OR ISZERO PUSH2 0x1EC1 JUMPI DUP3 DUP3 EXP SWAP1 POP DUP4 DUP2 GT ISZERO PUSH2 0x1EBC JUMPI PUSH2 0x1EBB PUSH2 0x1BAD JUMP JUMPDEST JUMPDEST PUSH2 0x1EEB JUMP JUMPDEST PUSH2 0x1ECE DUP5 DUP5 DUP5 PUSH1 0x1 PUSH2 0x1DCF JUMP JUMPDEST SWAP3 POP SWAP1 POP DUP2 DUP5 DIV DUP2 GT ISZERO PUSH2 0x1EE5 JUMPI PUSH2 0x1EE4 PUSH2 0x1BAD JUMP JUMPDEST JUMPDEST DUP2 DUP2 MUL SWAP1 POP JUMPDEST SWAP4 SWAP3 POP POP POP JUMP JUMPDEST PUSH0 PUSH2 0x1EFC DUP3 PUSH2 0x14F1 JUMP JUMPDEST SWAP2 POP PUSH2 0x1F07 DUP4 PUSH2 0x14F1 JUMP JUMPDEST SWAP3 POP PUSH2 0x1F34 PUSH32 0xFFFFFFFFFFFFFFFFFFFFFFFFFFFFFFFFFFFFFFFFFFFFFFFFFFFFFFFFFFFFFFFF DUP5 DUP5 PUSH2 0x1E21 JUMP JUMPDEST SWAP1 POP SWAP3 SWAP2 POP POP JUMP JUMPDEST PUSH0 PUSH2 0x1F46 DUP3 PUSH2 0x14F1 JUMP JUMPDEST SWAP2 POP PUSH2 0x1F51 DUP4 PUSH2 0x14F1 JUMP JUMPDEST SWAP3 POP DUP3 DUP3 MUL PUSH2 0x1F5F DUP2 PUSH2 0x14F1 JUMP JUMPDEST SWAP2 POP DUP3 DUP3 DIV DUP5 EQ DUP4 ISZERO OR PUSH2 0x1F76 JUMPI PUSH2 0x1F75 PUSH2 0x1BAD JUMP JUMPDEST JUMPDEST POP SWAP3 SWAP2 POP POP JUMP JUMPDEST PUSH0 PUSH1 0x40 DUP3 ADD SWAP1 POP PUSH2 0x1F90 PUSH0 DUP4 ADD DUP6 PUSH2 0x1706 JUMP JUMPDEST PUSH2 0x1F9D PUSH1 0x20 DUP4 ADD DUP5 PUSH2 0x15D9 JUMP JUMPDEST SWAP4 SWAP3 POP POP POP JUMP JUMPDEST PUSH32 0x417070726F7665206661696C6564000000000000000000000000000000000000 PUSH0 DUP3 ADD MSTORE POP JUMP JUMPDEST PUSH0 PUSH2 0x1FD8 PUSH1 0xE DUP4 PUSH2 0x1559 JUMP JUMPDEST SWAP2 POP PUSH2 0x1FE3 DUP3 PUSH2 0x1FA4 JUMP JUMPDEST PUSH1 0x20 DUP3 ADD SWAP1 POP SWAP2 SWAP1 POP JUMP JUMPDEST PUSH0 PUSH1 0x20 DUP3 ADD SWAP1 POP DUP2 DUP2 SUB PUSH0 DUP4 ADD MSTORE PUSH2 0x2005 DUP2 PUSH2 0x1FCC JUMP JUMPDEST SWAP1 POP SWAP2 SWAP1 POP JUMP JUMPDEST PUSH0 PUSH1 0x60 DUP3 ADD SWAP1 POP PUSH2 0x201F PUSH0 DUP4 ADD DUP7 PUSH2 0x1706 JUMP JUMPDEST PUSH2 0x202C PUSH1 0x20 DUP4 ADD DUP6 PUSH2 0x1706 JUMP JUMPDEST PUSH2 0x2039 PUSH1 0x40 DUP4 ADD DUP5 PUSH2 0x15D9 JUMP JUMPDEST SWAP5 SWAP4 POP POP POP POP JUMP JUMPDEST PUSH32 0x5472616E73666572206661696C65640000000000000000000000000000000000 PUSH0 DUP3 ADD MSTORE POP JUMP JUMPDEST PUSH0 PUSH2 0x2075 PUSH1 0xF DUP4 PUSH2 0x1559 JUMP JUMPDEST SWAP2 POP PUSH2 0x2080 DUP3 PUSH2 0x2041 JUMP JUMPDEST PUSH1 0x20 DUP3 ADD SWAP1 POP SWAP2 SWAP1 POP JUMP JUMPDEST PUSH0 PUSH1 0x20 DUP3 ADD SWAP1 POP DUP2 DUP2 SUB PUSH0 DUP4 ADD MSTORE PUSH2 0x20A2 DUP2 PUSH2 0x2069 JUMP JUMPDEST SWAP1 POP SWAP2 SWAP1 POP JUMP JUMPDEST PUSH32 0x496E737566666963656E742062616C616E636500000000000000000000000000 PUSH0 DUP3 ADD MSTORE POP JUMP JUMPDEST PUSH0 PUSH2 0x20DD PUSH1 0x13 DUP4 PUSH2 0x1559 JUMP JUMPDEST SWAP2 POP PUSH2 0x20E8 DUP3 PUSH2 0x20A9 JUMP JUMPDEST PUSH1 0x20 DUP3 ADD SWAP1 POP SWAP2 SWAP1 POP JUMP JUMPDEST PUSH0 PUSH1 0x20 DUP3 ADD SWAP1 POP DUP2 DUP2 SUB PUSH0 DUP4 ADD MSTORE PUSH2 0x210A DUP2 PUSH2 0x20D1 JUMP JUMPDEST SWAP1 POP SWAP2 SWAP1 POP JUMP JUMPDEST PUSH0 PUSH1 0x40 DUP3 ADD SWAP1 POP DUP2 DUP2 SUB PUSH0 DUP4 ADD MSTORE PUSH2 0x2129 DUP2 DUP6 PUSH2 0x15A1 JUMP JUMPDEST SWAP1 POP PUSH2 0x2138 PUSH1 0x20 DUP4 ADD DUP5 PUSH2 0x1706 JUMP JUMPDEST SWAP4 SWAP3 POP POP POP JUMP JUMPDEST PUSH32 0x496E76616C69642063686F696365000000000000000000000000000000000000 PUSH0 DUP3 ADD MSTORE POP JUMP JUMPDEST PUSH0 PUSH2 0x2173 PUSH1 0xE DUP4 PUSH2 0x1559 JUMP JUMPDEST SWAP2 POP PUSH2 0x217E DUP3 PUSH2 0x213F JUMP JUMPDEST PUSH1 0x20 DUP3 ADD SWAP1 POP SWAP2 SWAP1 POP JUMP JUMPDEST PUSH0 PUSH1 0x20 DUP3 ADD SWAP1 POP DUP2 DUP2 SUB PUSH0 DUP4 ADD MSTORE PUSH2 0x21A0 DUP2 PUSH2 0x2167 JUMP JUMPDEST SWAP1 POP SWAP2 SWAP1 POP JUMP JUMPDEST PUSH0 PUSH1 0xFF DUP3 AND SWAP1 POP SWAP2 SWAP1 POP JUMP JUMPDEST PUSH2 0x21BC DUP2 PUSH2 0x21A7 JUMP JUMPDEST DUP2 EQ PUSH2 0x21C6 JUMPI PUSH0 DUP1 REVERT JUMPDEST POP JUMP JUMPDEST PUSH0 DUP2 MLOAD SWAP1 POP PUSH2 0x21D7 DUP2 PUSH2 0x21B3 JUMP JUMPDEST SWAP3 SWAP2 POP POP JUMP JUMPDEST PUSH0 PUSH1 0x20 DUP3 DUP5 SUB SLT ISZERO PUSH2 0x21F2 JUMPI PUSH2 0x21F1 PUSH2 0x14E9 JUMP JUMPDEST JUMPDEST PUSH0 PUSH2 0x21FF DUP5 DUP3 DUP6 ADD PUSH2 0x21C9 JUMP JUMPDEST SWAP2 POP POP SWAP3 SWAP2 POP POP JUMP JUMPDEST PUSH0 PUSH2 0x2212 DUP3 PUSH2 0x14F1 JUMP JUMPDEST SWAP2 POP PUSH2 0x221D DUP4 PUSH2 0x14F1 JUMP JUMPDEST SWAP3 POP DUP3 DUP3 SUB SWAP1 POP DUP2 DUP2 GT ISZERO PUSH2 0x2235 JUMPI PUSH2 0x2234 PUSH2 0x1BAD JUMP JUMPDEST JUMPDEST SWAP3 SWAP2 POP POP JUMP JUMPDEST PUSH0 DUP2 SWAP1 POP DUP2 PUSH0 MSTORE PUSH1 0x20 PUSH0 KECCAK256 SWAP1 POP SWAP2 SWAP1 POP JUMP JUMPDEST PUSH0 DUP2 SLOAD PUSH2 0x2259 DUP2 PUSH2 0x1CFD JUMP JUMPDEST PUSH2 0x2263 DUP2 DUP7 PUSH2 0x1559 JUMP JUMPDEST SWAP5 POP PUSH1 0x1 DUP3 AND PUSH0 DUP2 EQ PUSH2 0x227D JUMPI PUSH1 0x1 DUP2 EQ PUSH2 0x2293 JUMPI PUSH2 0x22C5 JUMP JUMPDEST PUSH1 0xFF NOT DUP4 AND DUP7 MSTORE DUP2 ISZERO ISZERO PUSH1 0x20 MUL DUP7 ADD SWAP4 POP PUSH2 0x22C5 JUMP JUMPDEST PUSH2 0x229C DUP6 PUSH2 0x223B JUMP JUMPDEST PUSH0 JUMPDEST DUP4 DUP2 LT ISZERO PUSH2 0x22BD JUMPI DUP2 SLOAD DUP2 DUP10 ADD MSTORE PUSH1 0x1 DUP3 ADD SWAP2 POP PUSH1 0x20 DUP2 ADD SWAP1 POP PUSH2 0x229E JUMP JUMPDEST DUP1 DUP9 ADD SWAP6 POP POP POP JUMPDEST POP POP POP SWAP3 SWAP2 POP POP JUMP JUMPDEST PUSH0 PUSH1 0x20 DUP3 ADD SWAP1 POP DUP2 DUP2 SUB PUSH0 DUP4 ADD MSTORE PUSH2 0x22E6 DUP2 DUP5 PUSH2 0x224D JUMP JUMPDEST SWAP1 POP SWAP3 SWAP2 POP POP JUMP JUMPDEST PUSH32 0x4D75737420636F756E7420766F74652066697273740000000000000000000000 PUSH0 DUP3 ADD MSTORE POP JUMP JUMPDEST PUSH0 PUSH2 0x2322 PUSH1 0x15 DUP4 PUSH2 0x1559 JUMP JUMPDEST SWAP2 POP PUSH2 0x232D DUP3 PUSH2 0x22EE JUMP JUMPDEST PUSH1 0x20 DUP3 ADD SWAP1 POP SWAP2 SWAP1 POP JUMP JUMPDEST PUSH0 PUSH1 0x20 DUP3 ADD SWAP1 POP DUP2 DUP2 SUB PUSH0 DUP4 ADD MSTORE PUSH2 0x234F DUP2 PUSH2 0x2316 JUMP JUMPDEST SWAP1 POP SWAP2 SWAP1 POP JUMP JUMPDEST PUSH32 0x4E6F7420656E6F7567682062616C616E636520696E2044414F20726571756972 PUSH0 DUP3 ADD MSTORE PUSH32 0x656420746F206275792074686520766F746564206974656D0000000000000000 PUSH1 0x20 DUP3 ADD MSTORE POP JUMP JUMPDEST PUSH0 PUSH2 0x23B0 PUSH1 0x38 DUP4 PUSH2 0x1559 JUMP JUMPDEST SWAP2 POP PUSH2 0x23BB DUP3 PUSH2 0x2356 JUMP JUMPDEST PUSH1 0x40 DUP3 ADD SWAP1 POP SWAP2 SWAP1 POP JUMP JUMPDEST PUSH0 PUSH1 0x20 DUP3 ADD SWAP1 POP DUP2 DUP2 SUB PUSH0 DUP4 ADD MSTORE PUSH2 0x23DD DUP2 PUSH2 0x23A4 JUMP JUMPDEST SWAP1 POP SWAP2 SWAP1 POP JUMP JUMPDEST PUSH0 DUP2 MLOAD SWAP1 POP SWAP2 SWAP1 POP JUMP JUMPDEST PUSH0 DUP2 SWAP1 POP SWAP3 SWAP2 POP POP JUMP JUMPDEST PUSH0 PUSH2 0x2402 DUP3 PUSH2 0x23E4 JUMP JUMPDEST PUSH2 0x240C DUP2 DUP6 PUSH2 0x23EE JUMP JUMPDEST SWAP4 POP PUSH2 0x241C DUP2 DUP6 PUSH1 0x20 DUP7 ADD PUSH2 0x1569 JUMP JUMPDEST DUP1 DUP5 ADD SWAP2 POP POP SWAP3 SWAP2 POP POP JUMP JUMPDEST PUSH0 PUSH2 0x2433 DUP3 DUP5 PUSH2 0x23F8 JUMP JUMPDEST SWAP2 POP DUP2 SWAP1 POP SWAP3 SWAP2 POP POP JUMP JUMPDEST PUSH32 0x4661696C656420746F2065786563757465207075726368617365207472616E73 PUSH0 DUP3 ADD MSTORE PUSH32 0x616374696F6E2E00000000000000000000000000000000000000000000000000 PUSH1 0x20 DUP3 ADD MSTORE POP JUMP JUMPDEST PUSH0 PUSH2 0x2498 PUSH1 0x27 DUP4 PUSH2 0x1559 JUMP JUMPDEST SWAP2 POP PUSH2 0x24A3 DUP3 PUSH2 0x243E JUMP JUMPDEST PUSH1 0x40 DUP3 ADD SWAP1 POP SWAP2 SWAP1 POP JUMP JUMPDEST PUSH0 PUSH1 0x20 DUP3 ADD SWAP1 POP DUP2 DUP2 SUB PUSH0 DUP4 ADD MSTORE PUSH2 0x24C5 DUP2 PUSH2 0x248C JUMP JUMPDEST SWAP1 POP SWAP2 SWAP1 POP JUMP INVALID LOG2 PUSH5 0x6970667358 0x22 SLT KECCAK256 MLOAD 0x1F SWAP16 0xB6 SDIV COINBASE 0xB2 MSTORE 0xE0 EXTCODECOPY SWAP6 0x23 0x2D CALLDATASIZE CALLER 0x22 0xE4 LOG0 SIGNEXTEND 0xCB 0xEA 0xD2 0xB9 STOP 0xC 0xFB EQ 0xCF 0xCA 0xC4 SWAP11 CODESIZE PUSH5 0x736F6C6343 STOP ADDMOD XOR STOP CALLER "
		},
		"gasEstimates": {
			"creation": {
				"codeDepositCost": "1894800",
				"executionCost": "infinite",
				"totalCost": "infinite"
			},
			"external": {
				"CommunityIncentivesAddress()": "2618",
				"DAObalance()": "2536",
				"DepositEth()": "infinite",
				"EndVote()": "infinite",
				"GameEmporiumAddress()": "2575",
				"chairperson()": "2553",
				"checkItemBalance(string)": "infinite",
				"countVote()": "infinite",
				"decision()": "2513",
				"decisionMap(uint256)": "infinite",
				"ended()": "2556",
				"gymMembershipNFT()": "infinite",
				"participationToken()": "infinite",
				"proposals(uint256)": "infinite",
				"redeemParticipationTokens(string,address)": "infinite",
				"vote(uint256)": "infinite",
				"voteEndTime()": "2470",
				"voteTokens()": "infinite",
				"voters(address)": "5156"
			}
		},
		"methodIdentifiers": {
			"CommunityIncentivesAddress()": "e4e37dd9",
			"DAObalance()": "b1ad5979",
			"DepositEth()": "5b37930b",
			"EndVote()": "72a413a9",
			"GameEmporiumAddress()": "a1b2d093",
			"chairperson()": "2e4176cf",
			"checkItemBalance(string)": "3c99bb55",
			"countVote()": "1a6cd2fd",
			"decision()": "e4d7c28c",
			"decisionMap(uint256)": "c7e8c940",
			"ended()": "12fa6feb",
			"gymMembershipNFT()": "ccffb0fd",
			"participationToken()": "11356184",
			"proposals(uint256)": "013cf08b",
			"redeemParticipationTokens(string,address)": "6b7d8d60",
			"vote(uint256)": "0121b93f",
			"voteEndTime()": "9e6cb42b",
			"voteTokens()": "c54e88bd",
			"voters(address)": "a3ec138d"
		}
	},
	"abi": [
		{
			"inputs": [
				{
					"internalType": "address",
					"name": "_GameEmporiumAddress",
					"type": "address"
				},
				{
					"internalType": "address",
					"name": "_CommunityIncentivesAddress",
					"type": "address"
				},
				{
					"internalType": "uint256",
					"name": "_voteTime",
					"type": "uint256"
				},
				{
					"internalType": "string[]",
					"name": "proposalNames",
					"type": "string[]"
				},
				{
					"internalType": "address",
					"name": "_VoteTokenAddress",
					"type": "address"
				},
				{
					"internalType": "address",
					"name": "_GymMembershipNFTAddress",
					"type": "address"
				},
				{
					"internalType": "address",
					"name": "_ParticipationTokenAddress",
					"type": "address"
				}
			],
			"stateMutability": "nonpayable",
			"type": "constructor"
		},
		{
			"inputs": [],
			"name": "voteAlreadyEnded",
			"type": "error"
		},
		{
			"inputs": [],
			"name": "voteNotYetEnded",
			"type": "error"
		},
		{
			"inputs": [],
			"name": "CommunityIncentivesAddress",
			"outputs": [
				{
					"internalType": "address",
					"name": "",
					"type": "address"
				}
			],
			"stateMutability": "view",
			"type": "function"
		},
		{
			"inputs": [],
			"name": "DAObalance",
			"outputs": [
				{
					"internalType": "uint256",
					"name": "",
					"type": "uint256"
				}
			],
			"stateMutability": "view",
			"type": "function"
		},
		{
			"inputs": [],
			"name": "DepositEth",
			"outputs": [],
			"stateMutability": "payable",
			"type": "function"
		},
		{
			"inputs": [],
			"name": "EndVote",
			"outputs": [],
			"stateMutability": "nonpayable",
			"type": "function"
		},
		{
			"inputs": [],
			"name": "GameEmporiumAddress",
			"outputs": [
				{
					"internalType": "address",
					"name": "",
					"type": "address"
				}
			],
			"stateMutability": "view",
			"type": "function"
		},
		{
			"inputs": [],
			"name": "chairperson",
			"outputs": [
				{
					"internalType": "address",
					"name": "",
					"type": "address"
				}
			],
			"stateMutability": "view",
			"type": "function"
		},
		{
			"inputs": [
				{
					"internalType": "string",
					"name": "_item",
					"type": "string"
				}
			],
			"name": "checkItemBalance",
			"outputs": [
				{
					"internalType": "uint256",
					"name": "",
					"type": "uint256"
				}
			],
			"stateMutability": "view",
			"type": "function"
		},
		{
			"inputs": [],
			"name": "countVote",
			"outputs": [
				{
					"internalType": "uint256",
					"name": "winningProposal_",
					"type": "uint256"
				}
			],
			"stateMutability": "nonpayable",
			"type": "function"
		},
		{
			"inputs": [],
			"name": "decision",
			"outputs": [
				{
					"internalType": "uint256",
					"name": "",
					"type": "uint256"
				}
			],
			"stateMutability": "view",
			"type": "function"
		},
		{
			"inputs": [
				{
					"internalType": "uint256",
					"name": "",
					"type": "uint256"
				}
			],
			"name": "decisionMap",
			"outputs": [
				{
					"internalType": "string",
					"name": "",
					"type": "string"
				}
			],
			"stateMutability": "view",
			"type": "function"
		},
		{
			"inputs": [],
			"name": "ended",
			"outputs": [
				{
					"internalType": "bool",
					"name": "",
					"type": "bool"
				}
			],
			"stateMutability": "view",
			"type": "function"
		},
		{
			"inputs": [],
			"name": "gymMembershipNFT",
			"outputs": [
				{
					"internalType": "contract GymMembershipNFT",
					"name": "",
					"type": "address"
				}
			],
			"stateMutability": "view",
			"type": "function"
		},
		{
			"inputs": [],
			"name": "participationToken",
			"outputs": [
				{
					"internalType": "contract ParticipationToken",
					"name": "",
					"type": "address"
				}
			],
			"stateMutability": "view",
			"type": "function"
		},
		{
			"inputs": [
				{
					"internalType": "uint256",
					"name": "",
					"type": "uint256"
				}
			],
			"name": "proposals",
			"outputs": [
				{
					"internalType": "string",
					"name": "name",
					"type": "string"
				},
				{
					"internalType": "uint256",
					"name": "voteCount",
					"type": "uint256"
				}
			],
			"stateMutability": "view",
			"type": "function"
		},
		{
			"inputs": [
				{
					"internalType": "string",
					"name": "_incentive",
					"type": "string"
				},
				{
					"internalType": "address",
					"name": "participant",
					"type": "address"
				}
			],
			"name": "redeemParticipationTokens",
			"outputs": [],
			"stateMutability": "nonpayable",
			"type": "function"
		},
		{
			"inputs": [
				{
					"internalType": "uint256",
					"name": "proposal",
					"type": "uint256"
				}
			],
			"name": "vote",
			"outputs": [],
			"stateMutability": "nonpayable",
			"type": "function"
		},
		{
			"inputs": [],
			"name": "voteEndTime",
			"outputs": [
				{
					"internalType": "uint256",
					"name": "",
					"type": "uint256"
				}
			],
			"stateMutability": "view",
			"type": "function"
		},
		{
			"inputs": [],
			"name": "voteTokens",
			"outputs": [
				{
					"internalType": "contract Votereum",
					"name": "",
					"type": "address"
				}
			],
			"stateMutability": "view",
			"type": "function"
		},
		{
			"inputs": [
				{
					"internalType": "address",
					"name": "",
					"type": "address"
				}
			],
			"name": "voters",
			"outputs": [
				{
					"internalType": "bool",
					"name": "voted",
					"type": "bool"
				},
				{
					"internalType": "uint256",
					"name": "vote",
					"type": "uint256"
				}
			],
			"stateMutability": "view",
			"type": "function"
		}
	]
}