{
	"data": {
		"bytecode": {
			"linkReferences": {},
			"object": "608060405234801562000010575f80fd5b5060405162000f7838038062000f78833981810160405281019062000036919062000240565b335f806101000a81548173ffffffffffffffffffffffffffffffffffffffff021916908373ffffffffffffffffffffffffffffffffffffffff1602179055508060015f6101000a81548173ffffffffffffffffffffffffffffffffffffffff021916908373ffffffffffffffffffffffffffffffffffffffff160217905550620000fe306040518060400160405280600d81526020017f47796d4d656d6265727368697000000000000000000000000000000000000000815250600a6200014d60201b60201c565b620001466040518060400160405280600d81526020017f47796d4d656d62657273686970000000000000000000000000000000000000008152506001620001b260201b60201c565b50620002fc565b8060025f8573ffffffffffffffffffffffffffffffffffffffff1673ffffffffffffffffffffffffffffffffffffffff1681526020019081526020015f20836040516200019b9190620002e4565b908152602001604051809103902081905550505050565b80600383604051620001c59190620002e4565b9081526020016040518091039020819055505050565b5f80fd5b5f73ffffffffffffffffffffffffffffffffffffffff82169050919050565b5f6200020a82620001df565b9050919050565b6200021c81620001fe565b811462000227575f80fd5b50565b5f815190506200023a8162000211565b92915050565b5f60208284031215620002585762000257620001db565b5b5f62000267848285016200022a565b91505092915050565b5f81519050919050565b5f81905092915050565b5f5b83811015620002a357808201518184015260208101905062000286565b5f8484015250505050565b5f620002ba8262000270565b620002c681856200027a565b9350620002d881856020860162000284565b80840191505092915050565b5f620002f18284620002ae565b915081905092915050565b610c6e806200030a5f395ff3fe608060405234801561000f575f80fd5b5060043610610091575f3560e01c80635257832b116100645780635257832b1461012f5780638519a1751461015f5780638da5cb5b1461017b57806398f9efd914610199578063b008c7e6146101c957610091565b806313fa9b231461009557806316cadeab146100c557806341a8eb8f146100f5578063495bfa2714610111575b5f80fd5b6100af60048036038101906100aa9190610777565b6101e5565b6040516100bc91906107e9565b60405180910390f35b6100df60048036038101906100da9190610777565b610248565b6040516100ec91906107e9565b60405180910390f35b61010f600480360381019061010a919061082c565b610280565b005b6101196102a7565b60405161012691906108e1565b60405180910390f35b610149600480360381019061014491906108fa565b6102cc565b60405161015691906107e9565b60405180910390f35b610179600480360381019061017491906108fa565b6102f9565b005b6101836104fc565b6040516101909190610950565b60405180910390f35b6101b360048036038101906101ae91906108fa565b61051f565b6040516101c091906107e9565b60405180910390f35b6101e360048036038101906101de9190610969565b610546565b005b5f60025f8473ffffffffffffffffffffffffffffffffffffffff1673ffffffffffffffffffffffffffffffffffffffff1681526020019081526020015f20826040516102319190610a41565b908152602001604051809103902054905092915050565b6002602052815f5260405f20818051602081018201805184825260208301602085012081835280955050505050505f91509150505481565b806003836040516102919190610a41565b9081526020016040518091039020819055505050565b60015f9054906101000a900473ffffffffffffffffffffffffffffffffffffffff1681565b6003818051602081018201805184825260208301602085012081835280955050505050505f915090505481565b610338816040518060400160405280600d81526020017f47796d4d656d62657273686970000000000000000000000000000000000000008152506105a9565b156103e25760015f9054906101000a900473ffffffffffffffffffffffffffffffffffffffff1673ffffffffffffffffffffffffffffffffffffffff166338880321303360016040518463ffffffff1660e01b815260040161039c93929190610a90565b6020604051808303815f875af11580156103b8573d5f803e3d5ffd5b505050506040513d601f19601f820116820180604052508101906103dc9190610afa565b5061041d565b6040517f08c379a000000000000000000000000000000000000000000000000000000000815260040161041490610b7f565b60405180910390fd5b60025f3073ffffffffffffffffffffffffffffffffffffffff1673ffffffffffffffffffffffffffffffffffffffff1681526020019081526020015f20816040516104689190610a41565b90815260200160405180910390205f81548092919061048690610bca565b919050555060025f3373ffffffffffffffffffffffffffffffffffffffff1673ffffffffffffffffffffffffffffffffffffffff1681526020019081526020015f20816040516104d69190610a41565b90815260200160405180910390205f8154809291906104f490610bf1565b919050555050565b5f8054906101000a900473ffffffffffffffffffffffffffffffffffffffff1681565b5f6003826040516105309190610a41565b9081526020016040518091039020549050919050565b8060025f8573ffffffffffffffffffffffffffffffffffffffff1673ffffffffffffffffffffffffffffffffffffffff1681526020019081526020015f20836040516105929190610a41565b908152602001604051809103902081905550505050565b5f815183511480156105c8575081805190602001208380519060200120145b905092915050565b5f604051905090565b5f80fd5b5f80fd5b5f73ffffffffffffffffffffffffffffffffffffffff82169050919050565b5f61060a826105e1565b9050919050565b61061a81610600565b8114610624575f80fd5b50565b5f8135905061063581610611565b92915050565b5f80fd5b5f80fd5b5f601f19601f8301169050919050565b7f4e487b71000000000000000000000000000000000000000000000000000000005f52604160045260245ffd5b61068982610643565b810181811067ffffffffffffffff821117156106a8576106a7610653565b5b80604052505050565b5f6106ba6105d0565b90506106c68282610680565b919050565b5f67ffffffffffffffff8211156106e5576106e4610653565b5b6106ee82610643565b9050602081019050919050565b828183375f83830152505050565b5f61071b610716846106cb565b6106b1565b9050828152602081018484840111156107375761073661063f565b5b6107428482856106fb565b509392505050565b5f82601f83011261075e5761075d61063b565b5b813561076e848260208601610709565b91505092915050565b5f806040838503121561078d5761078c6105d9565b5b5f61079a85828601610627565b925050602083013567ffffffffffffffff8111156107bb576107ba6105dd565b5b6107c78582860161074a565b9150509250929050565b5f819050919050565b6107e3816107d1565b82525050565b5f6020820190506107fc5f8301846107da565b92915050565b61080b816107d1565b8114610815575f80fd5b50565b5f8135905061082681610802565b92915050565b5f8060408385031215610842576108416105d9565b5b5f83013567ffffffffffffffff81111561085f5761085e6105dd565b5b61086b8582860161074a565b925050602061087c85828601610818565b9150509250929050565b5f819050919050565b5f6108a96108a461089f846105e1565b610886565b6105e1565b9050919050565b5f6108ba8261088f565b9050919050565b5f6108cb826108b0565b9050919050565b6108db816108c1565b82525050565b5f6020820190506108f45f8301846108d2565b92915050565b5f6020828403121561090f5761090e6105d9565b5b5f82013567ffffffffffffffff81111561092c5761092b6105dd565b5b6109388482850161074a565b91505092915050565b61094a81610600565b82525050565b5f6020820190506109635f830184610941565b92915050565b5f805f606084860312156109805761097f6105d9565b5b5f61098d86828701610627565b935050602084013567ffffffffffffffff8111156109ae576109ad6105dd565b5b6109ba8682870161074a565b92505060406109cb86828701610818565b9150509250925092565b5f81519050919050565b5f81905092915050565b5f5b83811015610a065780820151818401526020810190506109eb565b5f8484015250505050565b5f610a1b826109d5565b610a2581856109df565b9350610a358185602086016109e9565b80840191505092915050565b5f610a4c8284610a11565b915081905092915050565b5f819050919050565b5f610a7a610a75610a7084610a57565b610886565b6107d1565b9050919050565b610a8a81610a60565b82525050565b5f606082019050610aa35f830186610941565b610ab06020830185610941565b610abd6040830184610a81565b949350505050565b5f8115159050919050565b610ad981610ac5565b8114610ae3575f80fd5b50565b5f81519050610af481610ad0565b92915050565b5f60208284031215610b0f57610b0e6105d9565b5b5f610b1c84828501610ae6565b91505092915050565b5f82825260208201905092915050565b7f496e76616c69642063686f6963650000000000000000000000000000000000005f82015250565b5f610b69600e83610b25565b9150610b7482610b35565b602082019050919050565b5f6020820190508181035f830152610b9681610b5d565b9050919050565b7f4e487b71000000000000000000000000000000000000000000000000000000005f52601160045260245ffd5b5f610bd4826107d1565b91505f8203610be657610be5610b9d565b5b600182039050919050565b5f610bfb826107d1565b91507fffffffffffffffffffffffffffffffffffffffffffffffffffffffffffffffff8203610c2d57610c2c610b9d565b5b60018201905091905056fea264697066735822122074229c617773a9138b9358a6563d3e74a451378b0d86543dd5d9762abed913cb64736f6c63430008180033",
			"opcodes": "PUSH1 0x80 PUSH1 0x40 MSTORE CALLVALUE DUP1 ISZERO PUSH3 0x10 JUMPI PUSH0 DUP1 REVERT JUMPDEST POP PUSH1 0x40 MLOAD PUSH3 0xF78 CODESIZE SUB DUP1 PUSH3 0xF78 DUP4 CODECOPY DUP2 DUP2 ADD PUSH1 0x40 MSTORE DUP2 ADD SWAP1 PUSH3 0x36 SWAP2 SWAP1 PUSH3 0x240 JUMP JUMPDEST CALLER PUSH0 DUP1 PUSH2 0x100 EXP DUP2 SLOAD DUP2 PUSH20 0xFFFFFFFFFFFFFFFFFFFFFFFFFFFFFFFFFFFFFFFF MUL NOT AND SWAP1 DUP4 PUSH20 0xFFFFFFFFFFFFFFFFFFFFFFFFFFFFFFFFFFFFFFFF AND MUL OR SWAP1 SSTORE POP DUP1 PUSH1 0x1 PUSH0 PUSH2 0x100 EXP DUP2 SLOAD DUP2 PUSH20 0xFFFFFFFFFFFFFFFFFFFFFFFFFFFFFFFFFFFFFFFF MUL NOT AND SWAP1 DUP4 PUSH20 0xFFFFFFFFFFFFFFFFFFFFFFFFFFFFFFFFFFFFFFFF AND MUL OR SWAP1 SSTORE POP PUSH3 0xFE ADDRESS PUSH1 0x40 MLOAD DUP1 PUSH1 0x40 ADD PUSH1 0x40 MSTORE DUP1 PUSH1 0xD DUP2 MSTORE PUSH1 0x20 ADD PUSH32 0x47796D4D656D6265727368697000000000000000000000000000000000000000 DUP2 MSTORE POP PUSH1 0xA PUSH3 0x14D PUSH1 0x20 SHL PUSH1 0x20 SHR JUMP JUMPDEST PUSH3 0x146 PUSH1 0x40 MLOAD DUP1 PUSH1 0x40 ADD PUSH1 0x40 MSTORE DUP1 PUSH1 0xD DUP2 MSTORE PUSH1 0x20 ADD PUSH32 0x47796D4D656D6265727368697000000000000000000000000000000000000000 DUP2 MSTORE POP PUSH1 0x1 PUSH3 0x1B2 PUSH1 0x20 SHL PUSH1 0x20 SHR JUMP JUMPDEST POP PUSH3 0x2FC JUMP JUMPDEST DUP1 PUSH1 0x2 PUSH0 DUP6 PUSH20 0xFFFFFFFFFFFFFFFFFFFFFFFFFFFFFFFFFFFFFFFF AND PUSH20 0xFFFFFFFFFFFFFFFFFFFFFFFFFFFFFFFFFFFFFFFF AND DUP2 MSTORE PUSH1 0x20 ADD SWAP1 DUP2 MSTORE PUSH1 0x20 ADD PUSH0 KECCAK256 DUP4 PUSH1 0x40 MLOAD PUSH3 0x19B SWAP2 SWAP1 PUSH3 0x2E4 JUMP JUMPDEST SWAP1 DUP2 MSTORE PUSH1 0x20 ADD PUSH1 0x40 MLOAD DUP1 SWAP2 SUB SWAP1 KECCAK256 DUP2 SWAP1 SSTORE POP POP POP POP JUMP JUMPDEST DUP1 PUSH1 0x3 DUP4 PUSH1 0x40 MLOAD PUSH3 0x1C5 SWAP2 SWAP1 PUSH3 0x2E4 JUMP JUMPDEST SWAP1 DUP2 MSTORE PUSH1 0x20 ADD PUSH1 0x40 MLOAD DUP1 SWAP2 SUB SWAP1 KECCAK256 DUP2 SWAP1 SSTORE POP POP POP JUMP JUMPDEST PUSH0 DUP1 REVERT JUMPDEST PUSH0 PUSH20 0xFFFFFFFFFFFFFFFFFFFFFFFFFFFFFFFFFFFFFFFF DUP3 AND SWAP1 POP SWAP2 SWAP1 POP JUMP JUMPDEST PUSH0 PUSH3 0x20A DUP3 PUSH3 0x1DF JUMP JUMPDEST SWAP1 POP SWAP2 SWAP1 POP JUMP JUMPDEST PUSH3 0x21C DUP2 PUSH3 0x1FE JUMP JUMPDEST DUP2 EQ PUSH3 0x227 JUMPI PUSH0 DUP1 REVERT JUMPDEST POP JUMP JUMPDEST PUSH0 DUP2 MLOAD SWAP1 POP PUSH3 0x23A DUP2 PUSH3 0x211 JUMP JUMPDEST SWAP3 SWAP2 POP POP JUMP JUMPDEST PUSH0 PUSH1 0x20 DUP3 DUP5 SUB SLT ISZERO PUSH3 0x258 JUMPI PUSH3 0x257 PUSH3 0x1DB JUMP JUMPDEST JUMPDEST PUSH0 PUSH3 0x267 DUP5 DUP3 DUP6 ADD PUSH3 0x22A JUMP JUMPDEST SWAP2 POP POP SWAP3 SWAP2 POP POP JUMP JUMPDEST PUSH0 DUP2 MLOAD SWAP1 POP SWAP2 SWAP1 POP JUMP JUMPDEST PUSH0 DUP2 SWAP1 POP SWAP3 SWAP2 POP POP JUMP JUMPDEST PUSH0 JUMPDEST DUP4 DUP2 LT ISZERO PUSH3 0x2A3 JUMPI DUP1 DUP3 ADD MLOAD DUP2 DUP5 ADD MSTORE PUSH1 0x20 DUP2 ADD SWAP1 POP PUSH3 0x286 JUMP JUMPDEST PUSH0 DUP5 DUP5 ADD MSTORE POP POP POP POP JUMP JUMPDEST PUSH0 PUSH3 0x2BA DUP3 PUSH3 0x270 JUMP JUMPDEST PUSH3 0x2C6 DUP2 DUP6 PUSH3 0x27A JUMP JUMPDEST SWAP4 POP PUSH3 0x2D8 DUP2 DUP6 PUSH1 0x20 DUP7 ADD PUSH3 0x284 JUMP JUMPDEST DUP1 DUP5 ADD SWAP2 POP POP SWAP3 SWAP2 POP POP JUMP JUMPDEST PUSH0 PUSH3 0x2F1 DUP3 DUP5 PUSH3 0x2AE JUMP JUMPDEST SWAP2 POP DUP2 SWAP1 POP SWAP3 SWAP2 POP POP JUMP JUMPDEST PUSH2 0xC6E DUP1 PUSH3 0x30A PUSH0 CODECOPY PUSH0 RETURN INVALID PUSH1 0x80 PUSH1 0x40 MSTORE CALLVALUE DUP1 ISZERO PUSH2 0xF JUMPI PUSH0 DUP1 REVERT JUMPDEST POP PUSH1 0x4 CALLDATASIZE LT PUSH2 0x91 JUMPI PUSH0 CALLDATALOAD PUSH1 0xE0 SHR DUP1 PUSH4 0x5257832B GT PUSH2 0x64 JUMPI DUP1 PUSH4 0x5257832B EQ PUSH2 0x12F JUMPI DUP1 PUSH4 0x8519A175 EQ PUSH2 0x15F JUMPI DUP1 PUSH4 0x8DA5CB5B EQ PUSH2 0x17B JUMPI DUP1 PUSH4 0x98F9EFD9 EQ PUSH2 0x199 JUMPI DUP1 PUSH4 0xB008C7E6 EQ PUSH2 0x1C9 JUMPI PUSH2 0x91 JUMP JUMPDEST DUP1 PUSH4 0x13FA9B23 EQ PUSH2 0x95 JUMPI DUP1 PUSH4 0x16CADEAB EQ PUSH2 0xC5 JUMPI DUP1 PUSH4 0x41A8EB8F EQ PUSH2 0xF5 JUMPI DUP1 PUSH4 0x495BFA27 EQ PUSH2 0x111 JUMPI JUMPDEST PUSH0 DUP1 REVERT JUMPDEST PUSH2 0xAF PUSH1 0x4 DUP1 CALLDATASIZE SUB DUP2 ADD SWAP1 PUSH2 0xAA SWAP2 SWAP1 PUSH2 0x777 JUMP JUMPDEST PUSH2 0x1E5 JUMP JUMPDEST PUSH1 0x40 MLOAD PUSH2 0xBC SWAP2 SWAP1 PUSH2 0x7E9 JUMP JUMPDEST PUSH1 0x40 MLOAD DUP1 SWAP2 SUB SWAP1 RETURN JUMPDEST PUSH2 0xDF PUSH1 0x4 DUP1 CALLDATASIZE SUB DUP2 ADD SWAP1 PUSH2 0xDA SWAP2 SWAP1 PUSH2 0x777 JUMP JUMPDEST PUSH2 0x248 JUMP JUMPDEST PUSH1 0x40 MLOAD PUSH2 0xEC SWAP2 SWAP1 PUSH2 0x7E9 JUMP JUMPDEST PUSH1 0x40 MLOAD DUP1 SWAP2 SUB SWAP1 RETURN JUMPDEST PUSH2 0x10F PUSH1 0x4 DUP1 CALLDATASIZE SUB DUP2 ADD SWAP1 PUSH2 0x10A SWAP2 SWAP1 PUSH2 0x82C JUMP JUMPDEST PUSH2 0x280 JUMP JUMPDEST STOP JUMPDEST PUSH2 0x119 PUSH2 0x2A7 JUMP JUMPDEST PUSH1 0x40 MLOAD PUSH2 0x126 SWAP2 SWAP1 PUSH2 0x8E1 JUMP JUMPDEST PUSH1 0x40 MLOAD DUP1 SWAP2 SUB SWAP1 RETURN JUMPDEST PUSH2 0x149 PUSH1 0x4 DUP1 CALLDATASIZE SUB DUP2 ADD SWAP1 PUSH2 0x144 SWAP2 SWAP1 PUSH2 0x8FA JUMP JUMPDEST PUSH2 0x2CC JUMP JUMPDEST PUSH1 0x40 MLOAD PUSH2 0x156 SWAP2 SWAP1 PUSH2 0x7E9 JUMP JUMPDEST PUSH1 0x40 MLOAD DUP1 SWAP2 SUB SWAP1 RETURN JUMPDEST PUSH2 0x179 PUSH1 0x4 DUP1 CALLDATASIZE SUB DUP2 ADD SWAP1 PUSH2 0x174 SWAP2 SWAP1 PUSH2 0x8FA JUMP JUMPDEST PUSH2 0x2F9 JUMP JUMPDEST STOP JUMPDEST PUSH2 0x183 PUSH2 0x4FC JUMP JUMPDEST PUSH1 0x40 MLOAD PUSH2 0x190 SWAP2 SWAP1 PUSH2 0x950 JUMP JUMPDEST PUSH1 0x40 MLOAD DUP1 SWAP2 SUB SWAP1 RETURN JUMPDEST PUSH2 0x1B3 PUSH1 0x4 DUP1 CALLDATASIZE SUB DUP2 ADD SWAP1 PUSH2 0x1AE SWAP2 SWAP1 PUSH2 0x8FA JUMP JUMPDEST PUSH2 0x51F JUMP JUMPDEST PUSH1 0x40 MLOAD PUSH2 0x1C0 SWAP2 SWAP1 PUSH2 0x7E9 JUMP JUMPDEST PUSH1 0x40 MLOAD DUP1 SWAP2 SUB SWAP1 RETURN JUMPDEST PUSH2 0x1E3 PUSH1 0x4 DUP1 CALLDATASIZE SUB DUP2 ADD SWAP1 PUSH2 0x1DE SWAP2 SWAP1 PUSH2 0x969 JUMP JUMPDEST PUSH2 0x546 JUMP JUMPDEST STOP JUMPDEST PUSH0 PUSH1 0x2 PUSH0 DUP5 PUSH20 0xFFFFFFFFFFFFFFFFFFFFFFFFFFFFFFFFFFFFFFFF AND PUSH20 0xFFFFFFFFFFFFFFFFFFFFFFFFFFFFFFFFFFFFFFFF AND DUP2 MSTORE PUSH1 0x20 ADD SWAP1 DUP2 MSTORE PUSH1 0x20 ADD PUSH0 KECCAK256 DUP3 PUSH1 0x40 MLOAD PUSH2 0x231 SWAP2 SWAP1 PUSH2 0xA41 JUMP JUMPDEST SWAP1 DUP2 MSTORE PUSH1 0x20 ADD PUSH1 0x40 MLOAD DUP1 SWAP2 SUB SWAP1 KECCAK256 SLOAD SWAP1 POP SWAP3 SWAP2 POP POP JUMP JUMPDEST PUSH1 0x2 PUSH1 0x20 MSTORE DUP2 PUSH0 MSTORE PUSH1 0x40 PUSH0 KECCAK256 DUP2 DUP1 MLOAD PUSH1 0x20 DUP2 ADD DUP3 ADD DUP1 MLOAD DUP5 DUP3 MSTORE PUSH1 0x20 DUP4 ADD PUSH1 0x20 DUP6 ADD KECCAK256 DUP2 DUP4 MSTORE DUP1 SWAP6 POP POP POP POP POP POP PUSH0 SWAP2 POP SWAP2 POP POP SLOAD DUP2 JUMP JUMPDEST DUP1 PUSH1 0x3 DUP4 PUSH1 0x40 MLOAD PUSH2 0x291 SWAP2 SWAP1 PUSH2 0xA41 JUMP JUMPDEST SWAP1 DUP2 MSTORE PUSH1 0x20 ADD PUSH1 0x40 MLOAD DUP1 SWAP2 SUB SWAP1 KECCAK256 DUP2 SWAP1 SSTORE POP POP POP JUMP JUMPDEST PUSH1 0x1 PUSH0 SWAP1 SLOAD SWAP1 PUSH2 0x100 EXP SWAP1 DIV PUSH20 0xFFFFFFFFFFFFFFFFFFFFFFFFFFFFFFFFFFFFFFFF AND DUP2 JUMP JUMPDEST PUSH1 0x3 DUP2 DUP1 MLOAD PUSH1 0x20 DUP2 ADD DUP3 ADD DUP1 MLOAD DUP5 DUP3 MSTORE PUSH1 0x20 DUP4 ADD PUSH1 0x20 DUP6 ADD KECCAK256 DUP2 DUP4 MSTORE DUP1 SWAP6 POP POP POP POP POP POP PUSH0 SWAP2 POP SWAP1 POP SLOAD DUP2 JUMP JUMPDEST PUSH2 0x338 DUP2 PUSH1 0x40 MLOAD DUP1 PUSH1 0x40 ADD PUSH1 0x40 MSTORE DUP1 PUSH1 0xD DUP2 MSTORE PUSH1 0x20 ADD PUSH32 0x47796D4D656D6265727368697000000000000000000000000000000000000000 DUP2 MSTORE POP PUSH2 0x5A9 JUMP JUMPDEST ISZERO PUSH2 0x3E2 JUMPI PUSH1 0x1 PUSH0 SWAP1 SLOAD SWAP1 PUSH2 0x100 EXP SWAP1 DIV PUSH20 0xFFFFFFFFFFFFFFFFFFFFFFFFFFFFFFFFFFFFFFFF AND PUSH20 0xFFFFFFFFFFFFFFFFFFFFFFFFFFFFFFFFFFFFFFFF AND PUSH4 0x38880321 ADDRESS CALLER PUSH1 0x1 PUSH1 0x40 MLOAD DUP5 PUSH4 0xFFFFFFFF AND PUSH1 0xE0 SHL DUP2 MSTORE PUSH1 0x4 ADD PUSH2 0x39C SWAP4 SWAP3 SWAP2 SWAP1 PUSH2 0xA90 JUMP JUMPDEST PUSH1 0x20 PUSH1 0x40 MLOAD DUP1 DUP4 SUB DUP2 PUSH0 DUP8 GAS CALL ISZERO DUP1 ISZERO PUSH2 0x3B8 JUMPI RETURNDATASIZE PUSH0 DUP1 RETURNDATACOPY RETURNDATASIZE PUSH0 REVERT JUMPDEST POP POP POP POP PUSH1 0x40 MLOAD RETURNDATASIZE PUSH1 0x1F NOT PUSH1 0x1F DUP3 ADD AND DUP3 ADD DUP1 PUSH1 0x40 MSTORE POP DUP2 ADD SWAP1 PUSH2 0x3DC SWAP2 SWAP1 PUSH2 0xAFA JUMP JUMPDEST POP PUSH2 0x41D JUMP JUMPDEST PUSH1 0x40 MLOAD PUSH32 0x8C379A000000000000000000000000000000000000000000000000000000000 DUP2 MSTORE PUSH1 0x4 ADD PUSH2 0x414 SWAP1 PUSH2 0xB7F JUMP JUMPDEST PUSH1 0x40 MLOAD DUP1 SWAP2 SUB SWAP1 REVERT JUMPDEST PUSH1 0x2 PUSH0 ADDRESS PUSH20 0xFFFFFFFFFFFFFFFFFFFFFFFFFFFFFFFFFFFFFFFF AND PUSH20 0xFFFFFFFFFFFFFFFFFFFFFFFFFFFFFFFFFFFFFFFF AND DUP2 MSTORE PUSH1 0x20 ADD SWAP1 DUP2 MSTORE PUSH1 0x20 ADD PUSH0 KECCAK256 DUP2 PUSH1 0x40 MLOAD PUSH2 0x468 SWAP2 SWAP1 PUSH2 0xA41 JUMP JUMPDEST SWAP1 DUP2 MSTORE PUSH1 0x20 ADD PUSH1 0x40 MLOAD DUP1 SWAP2 SUB SWAP1 KECCAK256 PUSH0 DUP2 SLOAD DUP1 SWAP3 SWAP2 SWAP1 PUSH2 0x486 SWAP1 PUSH2 0xBCA JUMP JUMPDEST SWAP2 SWAP1 POP SSTORE POP PUSH1 0x2 PUSH0 CALLER PUSH20 0xFFFFFFFFFFFFFFFFFFFFFFFFFFFFFFFFFFFFFFFF AND PUSH20 0xFFFFFFFFFFFFFFFFFFFFFFFFFFFFFFFFFFFFFFFF AND DUP2 MSTORE PUSH1 0x20 ADD SWAP1 DUP2 MSTORE PUSH1 0x20 ADD PUSH0 KECCAK256 DUP2 PUSH1 0x40 MLOAD PUSH2 0x4D6 SWAP2 SWAP1 PUSH2 0xA41 JUMP JUMPDEST SWAP1 DUP2 MSTORE PUSH1 0x20 ADD PUSH1 0x40 MLOAD DUP1 SWAP2 SUB SWAP1 KECCAK256 PUSH0 DUP2 SLOAD DUP1 SWAP3 SWAP2 SWAP1 PUSH2 0x4F4 SWAP1 PUSH2 0xBF1 JUMP JUMPDEST SWAP2 SWAP1 POP SSTORE POP POP JUMP JUMPDEST PUSH0 DUP1 SLOAD SWAP1 PUSH2 0x100 EXP SWAP1 DIV PUSH20 0xFFFFFFFFFFFFFFFFFFFFFFFFFFFFFFFFFFFFFFFF AND DUP2 JUMP JUMPDEST PUSH0 PUSH1 0x3 DUP3 PUSH1 0x40 MLOAD PUSH2 0x530 SWAP2 SWAP1 PUSH2 0xA41 JUMP JUMPDEST SWAP1 DUP2 MSTORE PUSH1 0x20 ADD PUSH1 0x40 MLOAD DUP1 SWAP2 SUB SWAP1 KECCAK256 SLOAD SWAP1 POP SWAP2 SWAP1 POP JUMP JUMPDEST DUP1 PUSH1 0x2 PUSH0 DUP6 PUSH20 0xFFFFFFFFFFFFFFFFFFFFFFFFFFFFFFFFFFFFFFFF AND PUSH20 0xFFFFFFFFFFFFFFFFFFFFFFFFFFFFFFFFFFFFFFFF AND DUP2 MSTORE PUSH1 0x20 ADD SWAP1 DUP2 MSTORE PUSH1 0x20 ADD PUSH0 KECCAK256 DUP4 PUSH1 0x40 MLOAD PUSH2 0x592 SWAP2 SWAP1 PUSH2 0xA41 JUMP JUMPDEST SWAP1 DUP2 MSTORE PUSH1 0x20 ADD PUSH1 0x40 MLOAD DUP1 SWAP2 SUB SWAP1 KECCAK256 DUP2 SWAP1 SSTORE POP POP POP POP JUMP JUMPDEST PUSH0 DUP2 MLOAD DUP4 MLOAD EQ DUP1 ISZERO PUSH2 0x5C8 JUMPI POP DUP2 DUP1 MLOAD SWAP1 PUSH1 0x20 ADD KECCAK256 DUP4 DUP1 MLOAD SWAP1 PUSH1 0x20 ADD KECCAK256 EQ JUMPDEST SWAP1 POP SWAP3 SWAP2 POP POP JUMP JUMPDEST PUSH0 PUSH1 0x40 MLOAD SWAP1 POP SWAP1 JUMP JUMPDEST PUSH0 DUP1 REVERT JUMPDEST PUSH0 DUP1 REVERT JUMPDEST PUSH0 PUSH20 0xFFFFFFFFFFFFFFFFFFFFFFFFFFFFFFFFFFFFFFFF DUP3 AND SWAP1 POP SWAP2 SWAP1 POP JUMP JUMPDEST PUSH0 PUSH2 0x60A DUP3 PUSH2 0x5E1 JUMP JUMPDEST SWAP1 POP SWAP2 SWAP1 POP JUMP JUMPDEST PUSH2 0x61A DUP2 PUSH2 0x600 JUMP JUMPDEST DUP2 EQ PUSH2 0x624 JUMPI PUSH0 DUP1 REVERT JUMPDEST POP JUMP JUMPDEST PUSH0 DUP2 CALLDATALOAD SWAP1 POP PUSH2 0x635 DUP2 PUSH2 0x611 JUMP JUMPDEST SWAP3 SWAP2 POP POP JUMP JUMPDEST PUSH0 DUP1 REVERT JUMPDEST PUSH0 DUP1 REVERT JUMPDEST PUSH0 PUSH1 0x1F NOT PUSH1 0x1F DUP4 ADD AND SWAP1 POP SWAP2 SWAP1 POP JUMP JUMPDEST PUSH32 0x4E487B7100000000000000000000000000000000000000000000000000000000 PUSH0 MSTORE PUSH1 0x41 PUSH1 0x4 MSTORE PUSH1 0x24 PUSH0 REVERT JUMPDEST PUSH2 0x689 DUP3 PUSH2 0x643 JUMP JUMPDEST DUP2 ADD DUP2 DUP2 LT PUSH8 0xFFFFFFFFFFFFFFFF DUP3 GT OR ISZERO PUSH2 0x6A8 JUMPI PUSH2 0x6A7 PUSH2 0x653 JUMP JUMPDEST JUMPDEST DUP1 PUSH1 0x40 MSTORE POP POP POP JUMP JUMPDEST PUSH0 PUSH2 0x6BA PUSH2 0x5D0 JUMP JUMPDEST SWAP1 POP PUSH2 0x6C6 DUP3 DUP3 PUSH2 0x680 JUMP JUMPDEST SWAP2 SWAP1 POP JUMP JUMPDEST PUSH0 PUSH8 0xFFFFFFFFFFFFFFFF DUP3 GT ISZERO PUSH2 0x6E5 JUMPI PUSH2 0x6E4 PUSH2 0x653 JUMP JUMPDEST JUMPDEST PUSH2 0x6EE DUP3 PUSH2 0x643 JUMP JUMPDEST SWAP1 POP PUSH1 0x20 DUP2 ADD SWAP1 POP SWAP2 SWAP1 POP JUMP JUMPDEST DUP3 DUP2 DUP4 CALLDATACOPY PUSH0 DUP4 DUP4 ADD MSTORE POP POP POP JUMP JUMPDEST PUSH0 PUSH2 0x71B PUSH2 0x716 DUP5 PUSH2 0x6CB JUMP JUMPDEST PUSH2 0x6B1 JUMP JUMPDEST SWAP1 POP DUP3 DUP2 MSTORE PUSH1 0x20 DUP2 ADD DUP5 DUP5 DUP5 ADD GT ISZERO PUSH2 0x737 JUMPI PUSH2 0x736 PUSH2 0x63F JUMP JUMPDEST JUMPDEST PUSH2 0x742 DUP5 DUP3 DUP6 PUSH2 0x6FB JUMP JUMPDEST POP SWAP4 SWAP3 POP POP POP JUMP JUMPDEST PUSH0 DUP3 PUSH1 0x1F DUP4 ADD SLT PUSH2 0x75E JUMPI PUSH2 0x75D PUSH2 0x63B JUMP JUMPDEST JUMPDEST DUP2 CALLDATALOAD PUSH2 0x76E DUP5 DUP3 PUSH1 0x20 DUP7 ADD PUSH2 0x709 JUMP JUMPDEST SWAP2 POP POP SWAP3 SWAP2 POP POP JUMP JUMPDEST PUSH0 DUP1 PUSH1 0x40 DUP4 DUP6 SUB SLT ISZERO PUSH2 0x78D JUMPI PUSH2 0x78C PUSH2 0x5D9 JUMP JUMPDEST JUMPDEST PUSH0 PUSH2 0x79A DUP6 DUP3 DUP7 ADD PUSH2 0x627 JUMP JUMPDEST SWAP3 POP POP PUSH1 0x20 DUP4 ADD CALLDATALOAD PUSH8 0xFFFFFFFFFFFFFFFF DUP2 GT ISZERO PUSH2 0x7BB JUMPI PUSH2 0x7BA PUSH2 0x5DD JUMP JUMPDEST JUMPDEST PUSH2 0x7C7 DUP6 DUP3 DUP7 ADD PUSH2 0x74A JUMP JUMPDEST SWAP2 POP POP SWAP3 POP SWAP3 SWAP1 POP JUMP JUMPDEST PUSH0 DUP2 SWAP1 POP SWAP2 SWAP1 POP JUMP JUMPDEST PUSH2 0x7E3 DUP2 PUSH2 0x7D1 JUMP JUMPDEST DUP3 MSTORE POP POP JUMP JUMPDEST PUSH0 PUSH1 0x20 DUP3 ADD SWAP1 POP PUSH2 0x7FC PUSH0 DUP4 ADD DUP5 PUSH2 0x7DA JUMP JUMPDEST SWAP3 SWAP2 POP POP JUMP JUMPDEST PUSH2 0x80B DUP2 PUSH2 0x7D1 JUMP JUMPDEST DUP2 EQ PUSH2 0x815 JUMPI PUSH0 DUP1 REVERT JUMPDEST POP JUMP JUMPDEST PUSH0 DUP2 CALLDATALOAD SWAP1 POP PUSH2 0x826 DUP2 PUSH2 0x802 JUMP JUMPDEST SWAP3 SWAP2 POP POP JUMP JUMPDEST PUSH0 DUP1 PUSH1 0x40 DUP4 DUP6 SUB SLT ISZERO PUSH2 0x842 JUMPI PUSH2 0x841 PUSH2 0x5D9 JUMP JUMPDEST JUMPDEST PUSH0 DUP4 ADD CALLDATALOAD PUSH8 0xFFFFFFFFFFFFFFFF DUP2 GT ISZERO PUSH2 0x85F JUMPI PUSH2 0x85E PUSH2 0x5DD JUMP JUMPDEST JUMPDEST PUSH2 0x86B DUP6 DUP3 DUP7 ADD PUSH2 0x74A JUMP JUMPDEST SWAP3 POP POP PUSH1 0x20 PUSH2 0x87C DUP6 DUP3 DUP7 ADD PUSH2 0x818 JUMP JUMPDEST SWAP2 POP POP SWAP3 POP SWAP3 SWAP1 POP JUMP JUMPDEST PUSH0 DUP2 SWAP1 POP SWAP2 SWAP1 POP JUMP JUMPDEST PUSH0 PUSH2 0x8A9 PUSH2 0x8A4 PUSH2 0x89F DUP5 PUSH2 0x5E1 JUMP JUMPDEST PUSH2 0x886 JUMP JUMPDEST PUSH2 0x5E1 JUMP JUMPDEST SWAP1 POP SWAP2 SWAP1 POP JUMP JUMPDEST PUSH0 PUSH2 0x8BA DUP3 PUSH2 0x88F JUMP JUMPDEST SWAP1 POP SWAP2 SWAP1 POP JUMP JUMPDEST PUSH0 PUSH2 0x8CB DUP3 PUSH2 0x8B0 JUMP JUMPDEST SWAP1 POP SWAP2 SWAP1 POP JUMP JUMPDEST PUSH2 0x8DB DUP2 PUSH2 0x8C1 JUMP JUMPDEST DUP3 MSTORE POP POP JUMP JUMPDEST PUSH0 PUSH1 0x20 DUP3 ADD SWAP1 POP PUSH2 0x8F4 PUSH0 DUP4 ADD DUP5 PUSH2 0x8D2 JUMP JUMPDEST SWAP3 SWAP2 POP POP JUMP JUMPDEST PUSH0 PUSH1 0x20 DUP3 DUP5 SUB SLT ISZERO PUSH2 0x90F JUMPI PUSH2 0x90E PUSH2 0x5D9 JUMP JUMPDEST JUMPDEST PUSH0 DUP3 ADD CALLDATALOAD PUSH8 0xFFFFFFFFFFFFFFFF DUP2 GT ISZERO PUSH2 0x92C JUMPI PUSH2 0x92B PUSH2 0x5DD JUMP JUMPDEST JUMPDEST PUSH2 0x938 DUP5 DUP3 DUP6 ADD PUSH2 0x74A JUMP JUMPDEST SWAP2 POP POP SWAP3 SWAP2 POP POP JUMP JUMPDEST PUSH2 0x94A DUP2 PUSH2 0x600 JUMP JUMPDEST DUP3 MSTORE POP POP JUMP JUMPDEST PUSH0 PUSH1 0x20 DUP3 ADD SWAP1 POP PUSH2 0x963 PUSH0 DUP4 ADD DUP5 PUSH2 0x941 JUMP JUMPDEST SWAP3 SWAP2 POP POP JUMP JUMPDEST PUSH0 DUP1 PUSH0 PUSH1 0x60 DUP5 DUP7 SUB SLT ISZERO PUSH2 0x980 JUMPI PUSH2 0x97F PUSH2 0x5D9 JUMP JUMPDEST JUMPDEST PUSH0 PUSH2 0x98D DUP7 DUP3 DUP8 ADD PUSH2 0x627 JUMP JUMPDEST SWAP4 POP POP PUSH1 0x20 DUP5 ADD CALLDATALOAD PUSH8 0xFFFFFFFFFFFFFFFF DUP2 GT ISZERO PUSH2 0x9AE JUMPI PUSH2 0x9AD PUSH2 0x5DD JUMP JUMPDEST JUMPDEST PUSH2 0x9BA DUP7 DUP3 DUP8 ADD PUSH2 0x74A JUMP JUMPDEST SWAP3 POP POP PUSH1 0x40 PUSH2 0x9CB DUP7 DUP3 DUP8 ADD PUSH2 0x818 JUMP JUMPDEST SWAP2 POP POP SWAP3 POP SWAP3 POP SWAP3 JUMP JUMPDEST PUSH0 DUP2 MLOAD SWAP1 POP SWAP2 SWAP1 POP JUMP JUMPDEST PUSH0 DUP2 SWAP1 POP SWAP3 SWAP2 POP POP JUMP JUMPDEST PUSH0 JUMPDEST DUP4 DUP2 LT ISZERO PUSH2 0xA06 JUMPI DUP1 DUP3 ADD MLOAD DUP2 DUP5 ADD MSTORE PUSH1 0x20 DUP2 ADD SWAP1 POP PUSH2 0x9EB JUMP JUMPDEST PUSH0 DUP5 DUP5 ADD MSTORE POP POP POP POP JUMP JUMPDEST PUSH0 PUSH2 0xA1B DUP3 PUSH2 0x9D5 JUMP JUMPDEST PUSH2 0xA25 DUP2 DUP6 PUSH2 0x9DF JUMP JUMPDEST SWAP4 POP PUSH2 0xA35 DUP2 DUP6 PUSH1 0x20 DUP7 ADD PUSH2 0x9E9 JUMP JUMPDEST DUP1 DUP5 ADD SWAP2 POP POP SWAP3 SWAP2 POP POP JUMP JUMPDEST PUSH0 PUSH2 0xA4C DUP3 DUP5 PUSH2 0xA11 JUMP JUMPDEST SWAP2 POP DUP2 SWAP1 POP SWAP3 SWAP2 POP POP JUMP JUMPDEST PUSH0 DUP2 SWAP1 POP SWAP2 SWAP1 POP JUMP JUMPDEST PUSH0 PUSH2 0xA7A PUSH2 0xA75 PUSH2 0xA70 DUP5 PUSH2 0xA57 JUMP JUMPDEST PUSH2 0x886 JUMP JUMPDEST PUSH2 0x7D1 JUMP JUMPDEST SWAP1 POP SWAP2 SWAP1 POP JUMP JUMPDEST PUSH2 0xA8A DUP2 PUSH2 0xA60 JUMP JUMPDEST DUP3 MSTORE POP POP JUMP JUMPDEST PUSH0 PUSH1 0x60 DUP3 ADD SWAP1 POP PUSH2 0xAA3 PUSH0 DUP4 ADD DUP7 PUSH2 0x941 JUMP JUMPDEST PUSH2 0xAB0 PUSH1 0x20 DUP4 ADD DUP6 PUSH2 0x941 JUMP JUMPDEST PUSH2 0xABD PUSH1 0x40 DUP4 ADD DUP5 PUSH2 0xA81 JUMP JUMPDEST SWAP5 SWAP4 POP POP POP POP JUMP JUMPDEST PUSH0 DUP2 ISZERO ISZERO SWAP1 POP SWAP2 SWAP1 POP JUMP JUMPDEST PUSH2 0xAD9 DUP2 PUSH2 0xAC5 JUMP JUMPDEST DUP2 EQ PUSH2 0xAE3 JUMPI PUSH0 DUP1 REVERT JUMPDEST POP JUMP JUMPDEST PUSH0 DUP2 MLOAD SWAP1 POP PUSH2 0xAF4 DUP2 PUSH2 0xAD0 JUMP JUMPDEST SWAP3 SWAP2 POP POP JUMP JUMPDEST PUSH0 PUSH1 0x20 DUP3 DUP5 SUB SLT ISZERO PUSH2 0xB0F JUMPI PUSH2 0xB0E PUSH2 0x5D9 JUMP JUMPDEST JUMPDEST PUSH0 PUSH2 0xB1C DUP5 DUP3 DUP6 ADD PUSH2 0xAE6 JUMP JUMPDEST SWAP2 POP POP SWAP3 SWAP2 POP POP JUMP JUMPDEST PUSH0 DUP3 DUP3 MSTORE PUSH1 0x20 DUP3 ADD SWAP1 POP SWAP3 SWAP2 POP POP JUMP JUMPDEST PUSH32 0x496E76616C69642063686F696365000000000000000000000000000000000000 PUSH0 DUP3 ADD MSTORE POP JUMP JUMPDEST PUSH0 PUSH2 0xB69 PUSH1 0xE DUP4 PUSH2 0xB25 JUMP JUMPDEST SWAP2 POP PUSH2 0xB74 DUP3 PUSH2 0xB35 JUMP JUMPDEST PUSH1 0x20 DUP3 ADD SWAP1 POP SWAP2 SWAP1 POP JUMP JUMPDEST PUSH0 PUSH1 0x20 DUP3 ADD SWAP1 POP DUP2 DUP2 SUB PUSH0 DUP4 ADD MSTORE PUSH2 0xB96 DUP2 PUSH2 0xB5D JUMP JUMPDEST SWAP1 POP SWAP2 SWAP1 POP JUMP JUMPDEST PUSH32 0x4E487B7100000000000000000000000000000000000000000000000000000000 PUSH0 MSTORE PUSH1 0x11 PUSH1 0x4 MSTORE PUSH1 0x24 PUSH0 REVERT JUMPDEST PUSH0 PUSH2 0xBD4 DUP3 PUSH2 0x7D1 JUMP JUMPDEST SWAP2 POP PUSH0 DUP3 SUB PUSH2 0xBE6 JUMPI PUSH2 0xBE5 PUSH2 0xB9D JUMP JUMPDEST JUMPDEST PUSH1 0x1 DUP3 SUB SWAP1 POP SWAP2 SWAP1 POP JUMP JUMPDEST PUSH0 PUSH2 0xBFB DUP3 PUSH2 0x7D1 JUMP JUMPDEST SWAP2 POP PUSH32 0xFFFFFFFFFFFFFFFFFFFFFFFFFFFFFFFFFFFFFFFFFFFFFFFFFFFFFFFFFFFFFFFF DUP3 SUB PUSH2 0xC2D JUMPI PUSH2 0xC2C PUSH2 0xB9D JUMP JUMPDEST JUMPDEST PUSH1 0x1 DUP3 ADD SWAP1 POP SWAP2 SWAP1 POP JUMP INVALID LOG2 PUSH5 0x6970667358 0x22 SLT KECCAK256 PUSH21 0x229C617773A9138B9358A6563D3E74A451378B0D86 SLOAD RETURNDATASIZE 0xD5 0xD9 PUSH23 0x2ABED913CB64736F6C6343000818003300000000000000 "
		},
		"gasEstimates": {
			"creation": {
				"codeDepositCost": "636400",
				"executionCost": "infinite",
				"totalCost": "infinite"
			},
			"external": {
				"balance(address,string)": "infinite",
				"getIncentive(string)": "infinite",
				"getInventory(address,string)": "infinite",
				"getMinParticipationVotesRequired(string)": "infinite",
				"gymMembershipToken()": "infinite",
				"minParticipationVotes(string)": "infinite",
				"owner()": "2549",
				"setInventory(address,string,uint256)": "infinite",
				"setMinParticipationVotesRequired(string,uint256)": "infinite"
			}
		},
		"methodIdentifiers": {
			"balance(address,string)": "16cadeab",
			"getIncentive(string)": "8519a175",
			"getInventory(address,string)": "13fa9b23",
			"getMinParticipationVotesRequired(string)": "98f9efd9",
			"gymMembershipToken()": "495bfa27",
			"minParticipationVotes(string)": "5257832b",
			"owner()": "8da5cb5b",
			"setInventory(address,string,uint256)": "b008c7e6",
			"setMinParticipationVotesRequired(string,uint256)": "41a8eb8f"
		}
	},
	"abi": [
		{
			"inputs": [
				{
					"internalType": "address",
					"name": "_GymMembershipTokenAddress",
					"type": "address"
				}
			],
			"stateMutability": "nonpayable",
			"type": "constructor"
		},
		{
			"inputs": [
				{
					"internalType": "address",
					"name": "",
					"type": "address"
				},
				{
					"internalType": "string",
					"name": "",
					"type": "string"
				}
			],
			"name": "balance",
			"outputs": [
				{
					"internalType": "uint256",
					"name": "",
					"type": "uint256"
				}
			],
			"stateMutability": "view",
			"type": "function"
		},
		{
			"inputs": [
				{
					"internalType": "string",
					"name": "incentive",
					"type": "string"
				}
			],
			"name": "getIncentive",
			"outputs": [],
			"stateMutability": "nonpayable",
			"type": "function"
		},
		{
			"inputs": [
				{
					"internalType": "address",
					"name": "_address",
					"type": "address"
				},
				{
					"internalType": "string",
					"name": "_item",
					"type": "string"
				}
			],
			"name": "getInventory",
			"outputs": [
				{
					"internalType": "uint256",
					"name": "",
					"type": "uint256"
				}
			],
			"stateMutability": "view",
			"type": "function"
		},
		{
			"inputs": [
				{
					"internalType": "string",
					"name": "_item",
					"type": "string"
				}
			],
			"name": "getMinParticipationVotesRequired",
			"outputs": [
				{
					"internalType": "uint256",
					"name": "",
					"type": "uint256"
				}
			],
			"stateMutability": "view",
			"type": "function"
		},
		{
			"inputs": [],
			"name": "gymMembershipToken",
			"outputs": [
				{
					"internalType": "contract GymMembershipToken",
					"name": "",
					"type": "address"
				}
			],
			"stateMutability": "view",
			"type": "function"
		},
		{
			"inputs": [
				{
					"internalType": "string",
					"name": "",
					"type": "string"
				}
			],
			"name": "minParticipationVotes",
			"outputs": [
				{
					"internalType": "uint256",
					"name": "",
					"type": "uint256"
				}
			],
			"stateMutability": "view",
			"type": "function"
		},
		{
			"inputs": [],
			"name": "owner",
			"outputs": [
				{
					"internalType": "address",
					"name": "",
					"type": "address"
				}
			],
			"stateMutability": "view",
			"type": "function"
		},
		{
			"inputs": [
				{
					"internalType": "address",
					"name": "_address",
					"type": "address"
				},
				{
					"internalType": "string",
					"name": "_item",
					"type": "string"
				},
				{
					"internalType": "uint256",
					"name": "_quantity",
					"type": "uint256"
				}
			],
			"name": "setInventory",
			"outputs": [],
			"stateMutability": "nonpayable",
			"type": "function"
		},
		{
			"inputs": [
				{
					"internalType": "string",
					"name": "_item",
					"type": "string"
				},
				{
					"internalType": "uint256",
					"name": "_quantity",
					"type": "uint256"
				}
			],
			"name": "setMinParticipationVotesRequired",
			"outputs": [],
			"stateMutability": "nonpayable",
			"type": "function"
		}
	]
}