{
	"data": {
		"bytecode": {
			"linkReferences": {},
			"object": "608060405234801562000010575f80fd5b5060405162000eec38038062000eec833981810160405281019062000036919062000240565b335f806101000a81548173ffffffffffffffffffffffffffffffffffffffff021916908373ffffffffffffffffffffffffffffffffffffffff1602179055508060015f6101000a81548173ffffffffffffffffffffffffffffffffffffffff021916908373ffffffffffffffffffffffffffffffffffffffff160217905550620000fe306040518060400160405280600d81526020017f47796d4d656d6265727368697000000000000000000000000000000000000000815250600a6200014d60201b60201c565b620001466040518060400160405280600d81526020017f47796d4d656d62657273686970000000000000000000000000000000000000008152506001620001b260201b60201c565b50620002fc565b8060025f8573ffffffffffffffffffffffffffffffffffffffff1673ffffffffffffffffffffffffffffffffffffffff1681526020019081526020015f20836040516200019b9190620002e4565b908152602001604051809103902081905550505050565b80600383604051620001c59190620002e4565b9081526020016040518091039020819055505050565b5f80fd5b5f73ffffffffffffffffffffffffffffffffffffffff82169050919050565b5f6200020a82620001df565b9050919050565b6200021c81620001fe565b811462000227575f80fd5b50565b5f815190506200023a8162000211565b92915050565b5f60208284031215620002585762000257620001db565b5b5f62000267848285016200022a565b91505092915050565b5f81519050919050565b5f81905092915050565b5f5b83811015620002a357808201518184015260208101905062000286565b5f8484015250505050565b5f620002ba8262000270565b620002c681856200027a565b9350620002d881856020860162000284565b80840191505092915050565b5f620002f18284620002ae565b915081905092915050565b610be2806200030a5f395ff3fe608060405234801561000f575f80fd5b5060043610610091575f3560e01c80635257832b116100645780635257832b1461012d5780638da5cb5b1461015d57806398f9efd91461017b578063b008c7e6146101ab578063ccffb0fd146101c757610091565b806303ce30e71461009557806313fa9b23146100b157806316cadeab146100e157806341a8eb8f14610111575b5f80fd5b6100af60048036038101906100aa919061075f565b6101e5565b005b6100cb60048036038101906100c691906107b9565b6103d0565b6040516100d8919061082b565b60405180910390f35b6100fb60048036038101906100f691906107b9565b610433565b604051610108919061082b565b60405180910390f35b61012b6004803603810190610126919061086e565b61046b565b005b610147600480360381019061014291906108c8565b610492565b604051610154919061082b565b60405180910390f35b6101656104bf565b604051610172919061091e565b60405180910390f35b610195600480360381019061019091906108c8565b6104e2565b6040516101a2919061082b565b60405180910390f35b6101c560048036038101906101c09190610937565b610509565b005b6101cf61056c565b6040516101dc91906109fe565b60405180910390f35b610224826040518060400160405280600d81526020017f47796d4d656d6265727368697000000000000000000000000000000000000000815250610591565b156102b55760015f9054906101000a900473ffffffffffffffffffffffffffffffffffffffff1673ffffffffffffffffffffffffffffffffffffffff166340d097c3826040518263ffffffff1660e01b8152600401610283919061091e565b5f604051808303815f87803b15801561029a575f80fd5b505af11580156102ac573d5f803e3d5ffd5b505050506102f0565b6040517f08c379a00000000000000000000000000000000000000000000000000000000081526004016102e790610a71565b60405180910390fd5b60025f3073ffffffffffffffffffffffffffffffffffffffff1673ffffffffffffffffffffffffffffffffffffffff1681526020019081526020015f208260405161033b9190610afb565b90815260200160405180910390205f81548092919061035990610b3e565b919050555060025f3373ffffffffffffffffffffffffffffffffffffffff1673ffffffffffffffffffffffffffffffffffffffff1681526020019081526020015f20826040516103a99190610afb565b90815260200160405180910390205f8154809291906103c790610b65565b91905055505050565b5f60025f8473ffffffffffffffffffffffffffffffffffffffff1673ffffffffffffffffffffffffffffffffffffffff1681526020019081526020015f208260405161041c9190610afb565b908152602001604051809103902054905092915050565b6002602052815f5260405f20818051602081018201805184825260208301602085012081835280955050505050505f91509150505481565b8060038360405161047c9190610afb565b9081526020016040518091039020819055505050565b6003818051602081018201805184825260208301602085012081835280955050505050505f915090505481565b5f8054906101000a900473ffffffffffffffffffffffffffffffffffffffff1681565b5f6003826040516104f39190610afb565b9081526020016040518091039020549050919050565b8060025f8573ffffffffffffffffffffffffffffffffffffffff1673ffffffffffffffffffffffffffffffffffffffff1681526020019081526020015f20836040516105559190610afb565b908152602001604051809103902081905550505050565b60015f9054906101000a900473ffffffffffffffffffffffffffffffffffffffff1681565b5f815183511480156105b0575081805190602001208380519060200120145b905092915050565b5f604051905090565b5f80fd5b5f80fd5b5f80fd5b5f80fd5b5f601f19601f8301169050919050565b7f4e487b71000000000000000000000000000000000000000000000000000000005f52604160045260245ffd5b610617826105d1565b810181811067ffffffffffffffff82111715610636576106356105e1565b5b80604052505050565b5f6106486105b8565b9050610654828261060e565b919050565b5f67ffffffffffffffff821115610673576106726105e1565b5b61067c826105d1565b9050602081019050919050565b828183375f83830152505050565b5f6106a96106a484610659565b61063f565b9050828152602081018484840111156106c5576106c46105cd565b5b6106d0848285610689565b509392505050565b5f82601f8301126106ec576106eb6105c9565b5b81356106fc848260208601610697565b91505092915050565b5f73ffffffffffffffffffffffffffffffffffffffff82169050919050565b5f61072e82610705565b9050919050565b61073e81610724565b8114610748575f80fd5b50565b5f8135905061075981610735565b92915050565b5f8060408385031215610775576107746105c1565b5b5f83013567ffffffffffffffff811115610792576107916105c5565b5b61079e858286016106d8565b92505060206107af8582860161074b565b9150509250929050565b5f80604083850312156107cf576107ce6105c1565b5b5f6107dc8582860161074b565b925050602083013567ffffffffffffffff8111156107fd576107fc6105c5565b5b610809858286016106d8565b9150509250929050565b5f819050919050565b61082581610813565b82525050565b5f60208201905061083e5f83018461081c565b92915050565b61084d81610813565b8114610857575f80fd5b50565b5f8135905061086881610844565b92915050565b5f8060408385031215610884576108836105c1565b5b5f83013567ffffffffffffffff8111156108a1576108a06105c5565b5b6108ad858286016106d8565b92505060206108be8582860161085a565b9150509250929050565b5f602082840312156108dd576108dc6105c1565b5b5f82013567ffffffffffffffff8111156108fa576108f96105c5565b5b610906848285016106d8565b91505092915050565b61091881610724565b82525050565b5f6020820190506109315f83018461090f565b92915050565b5f805f6060848603121561094e5761094d6105c1565b5b5f61095b8682870161074b565b935050602084013567ffffffffffffffff81111561097c5761097b6105c5565b5b610988868287016106d8565b92505060406109998682870161085a565b9150509250925092565b5f819050919050565b5f6109c66109c16109bc84610705565b6109a3565b610705565b9050919050565b5f6109d7826109ac565b9050919050565b5f6109e8826109cd565b9050919050565b6109f8816109de565b82525050565b5f602082019050610a115f8301846109ef565b92915050565b5f82825260208201905092915050565b7f496e76616c69642063686f6963650000000000000000000000000000000000005f82015250565b5f610a5b600e83610a17565b9150610a6682610a27565b602082019050919050565b5f6020820190508181035f830152610a8881610a4f565b9050919050565b5f81519050919050565b5f81905092915050565b5f5b83811015610ac0578082015181840152602081019050610aa5565b5f8484015250505050565b5f610ad582610a8f565b610adf8185610a99565b9350610aef818560208601610aa3565b80840191505092915050565b5f610b068284610acb565b915081905092915050565b7f4e487b71000000000000000000000000000000000000000000000000000000005f52601160045260245ffd5b5f610b4882610813565b91505f8203610b5a57610b59610b11565b5b600182039050919050565b5f610b6f82610813565b91507fffffffffffffffffffffffffffffffffffffffffffffffffffffffffffffffff8203610ba157610ba0610b11565b5b60018201905091905056fea26469706673582212204434241d5dc8faff884c011a57f22438fb0563dab863f885577240361d59be5864736f6c63430008180033",
			"opcodes": "PUSH1 0x80 PUSH1 0x40 MSTORE CALLVALUE DUP1 ISZERO PUSH3 0x10 JUMPI PUSH0 DUP1 REVERT JUMPDEST POP PUSH1 0x40 MLOAD PUSH3 0xEEC CODESIZE SUB DUP1 PUSH3 0xEEC DUP4 CODECOPY DUP2 DUP2 ADD PUSH1 0x40 MSTORE DUP2 ADD SWAP1 PUSH3 0x36 SWAP2 SWAP1 PUSH3 0x240 JUMP JUMPDEST CALLER PUSH0 DUP1 PUSH2 0x100 EXP DUP2 SLOAD DUP2 PUSH20 0xFFFFFFFFFFFFFFFFFFFFFFFFFFFFFFFFFFFFFFFF MUL NOT AND SWAP1 DUP4 PUSH20 0xFFFFFFFFFFFFFFFFFFFFFFFFFFFFFFFFFFFFFFFF AND MUL OR SWAP1 SSTORE POP DUP1 PUSH1 0x1 PUSH0 PUSH2 0x100 EXP DUP2 SLOAD DUP2 PUSH20 0xFFFFFFFFFFFFFFFFFFFFFFFFFFFFFFFFFFFFFFFF MUL NOT AND SWAP1 DUP4 PUSH20 0xFFFFFFFFFFFFFFFFFFFFFFFFFFFFFFFFFFFFFFFF AND MUL OR SWAP1 SSTORE POP PUSH3 0xFE ADDRESS PUSH1 0x40 MLOAD DUP1 PUSH1 0x40 ADD PUSH1 0x40 MSTORE DUP1 PUSH1 0xD DUP2 MSTORE PUSH1 0x20 ADD PUSH32 0x47796D4D656D6265727368697000000000000000000000000000000000000000 DUP2 MSTORE POP PUSH1 0xA PUSH3 0x14D PUSH1 0x20 SHL PUSH1 0x20 SHR JUMP JUMPDEST PUSH3 0x146 PUSH1 0x40 MLOAD DUP1 PUSH1 0x40 ADD PUSH1 0x40 MSTORE DUP1 PUSH1 0xD DUP2 MSTORE PUSH1 0x20 ADD PUSH32 0x47796D4D656D6265727368697000000000000000000000000000000000000000 DUP2 MSTORE POP PUSH1 0x1 PUSH3 0x1B2 PUSH1 0x20 SHL PUSH1 0x20 SHR JUMP JUMPDEST POP PUSH3 0x2FC JUMP JUMPDEST DUP1 PUSH1 0x2 PUSH0 DUP6 PUSH20 0xFFFFFFFFFFFFFFFFFFFFFFFFFFFFFFFFFFFFFFFF AND PUSH20 0xFFFFFFFFFFFFFFFFFFFFFFFFFFFFFFFFFFFFFFFF AND DUP2 MSTORE PUSH1 0x20 ADD SWAP1 DUP2 MSTORE PUSH1 0x20 ADD PUSH0 KECCAK256 DUP4 PUSH1 0x40 MLOAD PUSH3 0x19B SWAP2 SWAP1 PUSH3 0x2E4 JUMP JUMPDEST SWAP1 DUP2 MSTORE PUSH1 0x20 ADD PUSH1 0x40 MLOAD DUP1 SWAP2 SUB SWAP1 KECCAK256 DUP2 SWAP1 SSTORE POP POP POP POP JUMP JUMPDEST DUP1 PUSH1 0x3 DUP4 PUSH1 0x40 MLOAD PUSH3 0x1C5 SWAP2 SWAP1 PUSH3 0x2E4 JUMP JUMPDEST SWAP1 DUP2 MSTORE PUSH1 0x20 ADD PUSH1 0x40 MLOAD DUP1 SWAP2 SUB SWAP1 KECCAK256 DUP2 SWAP1 SSTORE POP POP POP JUMP JUMPDEST PUSH0 DUP1 REVERT JUMPDEST PUSH0 PUSH20 0xFFFFFFFFFFFFFFFFFFFFFFFFFFFFFFFFFFFFFFFF DUP3 AND SWAP1 POP SWAP2 SWAP1 POP JUMP JUMPDEST PUSH0 PUSH3 0x20A DUP3 PUSH3 0x1DF JUMP JUMPDEST SWAP1 POP SWAP2 SWAP1 POP JUMP JUMPDEST PUSH3 0x21C DUP2 PUSH3 0x1FE JUMP JUMPDEST DUP2 EQ PUSH3 0x227 JUMPI PUSH0 DUP1 REVERT JUMPDEST POP JUMP JUMPDEST PUSH0 DUP2 MLOAD SWAP1 POP PUSH3 0x23A DUP2 PUSH3 0x211 JUMP JUMPDEST SWAP3 SWAP2 POP POP JUMP JUMPDEST PUSH0 PUSH1 0x20 DUP3 DUP5 SUB SLT ISZERO PUSH3 0x258 JUMPI PUSH3 0x257 PUSH3 0x1DB JUMP JUMPDEST JUMPDEST PUSH0 PUSH3 0x267 DUP5 DUP3 DUP6 ADD PUSH3 0x22A JUMP JUMPDEST SWAP2 POP POP SWAP3 SWAP2 POP POP JUMP JUMPDEST PUSH0 DUP2 MLOAD SWAP1 POP SWAP2 SWAP1 POP JUMP JUMPDEST PUSH0 DUP2 SWAP1 POP SWAP3 SWAP2 POP POP JUMP JUMPDEST PUSH0 JUMPDEST DUP4 DUP2 LT ISZERO PUSH3 0x2A3 JUMPI DUP1 DUP3 ADD MLOAD DUP2 DUP5 ADD MSTORE PUSH1 0x20 DUP2 ADD SWAP1 POP PUSH3 0x286 JUMP JUMPDEST PUSH0 DUP5 DUP5 ADD MSTORE POP POP POP POP JUMP JUMPDEST PUSH0 PUSH3 0x2BA DUP3 PUSH3 0x270 JUMP JUMPDEST PUSH3 0x2C6 DUP2 DUP6 PUSH3 0x27A JUMP JUMPDEST SWAP4 POP PUSH3 0x2D8 DUP2 DUP6 PUSH1 0x20 DUP7 ADD PUSH3 0x284 JUMP JUMPDEST DUP1 DUP5 ADD SWAP2 POP POP SWAP3 SWAP2 POP POP JUMP JUMPDEST PUSH0 PUSH3 0x2F1 DUP3 DUP5 PUSH3 0x2AE JUMP JUMPDEST SWAP2 POP DUP2 SWAP1 POP SWAP3 SWAP2 POP POP JUMP JUMPDEST PUSH2 0xBE2 DUP1 PUSH3 0x30A PUSH0 CODECOPY PUSH0 RETURN INVALID PUSH1 0x80 PUSH1 0x40 MSTORE CALLVALUE DUP1 ISZERO PUSH2 0xF JUMPI PUSH0 DUP1 REVERT JUMPDEST POP PUSH1 0x4 CALLDATASIZE LT PUSH2 0x91 JUMPI PUSH0 CALLDATALOAD PUSH1 0xE0 SHR DUP1 PUSH4 0x5257832B GT PUSH2 0x64 JUMPI DUP1 PUSH4 0x5257832B EQ PUSH2 0x12D JUMPI DUP1 PUSH4 0x8DA5CB5B EQ PUSH2 0x15D JUMPI DUP1 PUSH4 0x98F9EFD9 EQ PUSH2 0x17B JUMPI DUP1 PUSH4 0xB008C7E6 EQ PUSH2 0x1AB JUMPI DUP1 PUSH4 0xCCFFB0FD EQ PUSH2 0x1C7 JUMPI PUSH2 0x91 JUMP JUMPDEST DUP1 PUSH4 0x3CE30E7 EQ PUSH2 0x95 JUMPI DUP1 PUSH4 0x13FA9B23 EQ PUSH2 0xB1 JUMPI DUP1 PUSH4 0x16CADEAB EQ PUSH2 0xE1 JUMPI DUP1 PUSH4 0x41A8EB8F EQ PUSH2 0x111 JUMPI JUMPDEST PUSH0 DUP1 REVERT JUMPDEST PUSH2 0xAF PUSH1 0x4 DUP1 CALLDATASIZE SUB DUP2 ADD SWAP1 PUSH2 0xAA SWAP2 SWAP1 PUSH2 0x75F JUMP JUMPDEST PUSH2 0x1E5 JUMP JUMPDEST STOP JUMPDEST PUSH2 0xCB PUSH1 0x4 DUP1 CALLDATASIZE SUB DUP2 ADD SWAP1 PUSH2 0xC6 SWAP2 SWAP1 PUSH2 0x7B9 JUMP JUMPDEST PUSH2 0x3D0 JUMP JUMPDEST PUSH1 0x40 MLOAD PUSH2 0xD8 SWAP2 SWAP1 PUSH2 0x82B JUMP JUMPDEST PUSH1 0x40 MLOAD DUP1 SWAP2 SUB SWAP1 RETURN JUMPDEST PUSH2 0xFB PUSH1 0x4 DUP1 CALLDATASIZE SUB DUP2 ADD SWAP1 PUSH2 0xF6 SWAP2 SWAP1 PUSH2 0x7B9 JUMP JUMPDEST PUSH2 0x433 JUMP JUMPDEST PUSH1 0x40 MLOAD PUSH2 0x108 SWAP2 SWAP1 PUSH2 0x82B JUMP JUMPDEST PUSH1 0x40 MLOAD DUP1 SWAP2 SUB SWAP1 RETURN JUMPDEST PUSH2 0x12B PUSH1 0x4 DUP1 CALLDATASIZE SUB DUP2 ADD SWAP1 PUSH2 0x126 SWAP2 SWAP1 PUSH2 0x86E JUMP JUMPDEST PUSH2 0x46B JUMP JUMPDEST STOP JUMPDEST PUSH2 0x147 PUSH1 0x4 DUP1 CALLDATASIZE SUB DUP2 ADD SWAP1 PUSH2 0x142 SWAP2 SWAP1 PUSH2 0x8C8 JUMP JUMPDEST PUSH2 0x492 JUMP JUMPDEST PUSH1 0x40 MLOAD PUSH2 0x154 SWAP2 SWAP1 PUSH2 0x82B JUMP JUMPDEST PUSH1 0x40 MLOAD DUP1 SWAP2 SUB SWAP1 RETURN JUMPDEST PUSH2 0x165 PUSH2 0x4BF JUMP JUMPDEST PUSH1 0x40 MLOAD PUSH2 0x172 SWAP2 SWAP1 PUSH2 0x91E JUMP JUMPDEST PUSH1 0x40 MLOAD DUP1 SWAP2 SUB SWAP1 RETURN JUMPDEST PUSH2 0x195 PUSH1 0x4 DUP1 CALLDATASIZE SUB DUP2 ADD SWAP1 PUSH2 0x190 SWAP2 SWAP1 PUSH2 0x8C8 JUMP JUMPDEST PUSH2 0x4E2 JUMP JUMPDEST PUSH1 0x40 MLOAD PUSH2 0x1A2 SWAP2 SWAP1 PUSH2 0x82B JUMP JUMPDEST PUSH1 0x40 MLOAD DUP1 SWAP2 SUB SWAP1 RETURN JUMPDEST PUSH2 0x1C5 PUSH1 0x4 DUP1 CALLDATASIZE SUB DUP2 ADD SWAP1 PUSH2 0x1C0 SWAP2 SWAP1 PUSH2 0x937 JUMP JUMPDEST PUSH2 0x509 JUMP JUMPDEST STOP JUMPDEST PUSH2 0x1CF PUSH2 0x56C JUMP JUMPDEST PUSH1 0x40 MLOAD PUSH2 0x1DC SWAP2 SWAP1 PUSH2 0x9FE JUMP JUMPDEST PUSH1 0x40 MLOAD DUP1 SWAP2 SUB SWAP1 RETURN JUMPDEST PUSH2 0x224 DUP3 PUSH1 0x40 MLOAD DUP1 PUSH1 0x40 ADD PUSH1 0x40 MSTORE DUP1 PUSH1 0xD DUP2 MSTORE PUSH1 0x20 ADD PUSH32 0x47796D4D656D6265727368697000000000000000000000000000000000000000 DUP2 MSTORE POP PUSH2 0x591 JUMP JUMPDEST ISZERO PUSH2 0x2B5 JUMPI PUSH1 0x1 PUSH0 SWAP1 SLOAD SWAP1 PUSH2 0x100 EXP SWAP1 DIV PUSH20 0xFFFFFFFFFFFFFFFFFFFFFFFFFFFFFFFFFFFFFFFF AND PUSH20 0xFFFFFFFFFFFFFFFFFFFFFFFFFFFFFFFFFFFFFFFF AND PUSH4 0x40D097C3 DUP3 PUSH1 0x40 MLOAD DUP3 PUSH4 0xFFFFFFFF AND PUSH1 0xE0 SHL DUP2 MSTORE PUSH1 0x4 ADD PUSH2 0x283 SWAP2 SWAP1 PUSH2 0x91E JUMP JUMPDEST PUSH0 PUSH1 0x40 MLOAD DUP1 DUP4 SUB DUP2 PUSH0 DUP8 DUP1 EXTCODESIZE ISZERO DUP1 ISZERO PUSH2 0x29A JUMPI PUSH0 DUP1 REVERT JUMPDEST POP GAS CALL ISZERO DUP1 ISZERO PUSH2 0x2AC JUMPI RETURNDATASIZE PUSH0 DUP1 RETURNDATACOPY RETURNDATASIZE PUSH0 REVERT JUMPDEST POP POP POP POP PUSH2 0x2F0 JUMP JUMPDEST PUSH1 0x40 MLOAD PUSH32 0x8C379A000000000000000000000000000000000000000000000000000000000 DUP2 MSTORE PUSH1 0x4 ADD PUSH2 0x2E7 SWAP1 PUSH2 0xA71 JUMP JUMPDEST PUSH1 0x40 MLOAD DUP1 SWAP2 SUB SWAP1 REVERT JUMPDEST PUSH1 0x2 PUSH0 ADDRESS PUSH20 0xFFFFFFFFFFFFFFFFFFFFFFFFFFFFFFFFFFFFFFFF AND PUSH20 0xFFFFFFFFFFFFFFFFFFFFFFFFFFFFFFFFFFFFFFFF AND DUP2 MSTORE PUSH1 0x20 ADD SWAP1 DUP2 MSTORE PUSH1 0x20 ADD PUSH0 KECCAK256 DUP3 PUSH1 0x40 MLOAD PUSH2 0x33B SWAP2 SWAP1 PUSH2 0xAFB JUMP JUMPDEST SWAP1 DUP2 MSTORE PUSH1 0x20 ADD PUSH1 0x40 MLOAD DUP1 SWAP2 SUB SWAP1 KECCAK256 PUSH0 DUP2 SLOAD DUP1 SWAP3 SWAP2 SWAP1 PUSH2 0x359 SWAP1 PUSH2 0xB3E JUMP JUMPDEST SWAP2 SWAP1 POP SSTORE POP PUSH1 0x2 PUSH0 CALLER PUSH20 0xFFFFFFFFFFFFFFFFFFFFFFFFFFFFFFFFFFFFFFFF AND PUSH20 0xFFFFFFFFFFFFFFFFFFFFFFFFFFFFFFFFFFFFFFFF AND DUP2 MSTORE PUSH1 0x20 ADD SWAP1 DUP2 MSTORE PUSH1 0x20 ADD PUSH0 KECCAK256 DUP3 PUSH1 0x40 MLOAD PUSH2 0x3A9 SWAP2 SWAP1 PUSH2 0xAFB JUMP JUMPDEST SWAP1 DUP2 MSTORE PUSH1 0x20 ADD PUSH1 0x40 MLOAD DUP1 SWAP2 SUB SWAP1 KECCAK256 PUSH0 DUP2 SLOAD DUP1 SWAP3 SWAP2 SWAP1 PUSH2 0x3C7 SWAP1 PUSH2 0xB65 JUMP JUMPDEST SWAP2 SWAP1 POP SSTORE POP POP POP JUMP JUMPDEST PUSH0 PUSH1 0x2 PUSH0 DUP5 PUSH20 0xFFFFFFFFFFFFFFFFFFFFFFFFFFFFFFFFFFFFFFFF AND PUSH20 0xFFFFFFFFFFFFFFFFFFFFFFFFFFFFFFFFFFFFFFFF AND DUP2 MSTORE PUSH1 0x20 ADD SWAP1 DUP2 MSTORE PUSH1 0x20 ADD PUSH0 KECCAK256 DUP3 PUSH1 0x40 MLOAD PUSH2 0x41C SWAP2 SWAP1 PUSH2 0xAFB JUMP JUMPDEST SWAP1 DUP2 MSTORE PUSH1 0x20 ADD PUSH1 0x40 MLOAD DUP1 SWAP2 SUB SWAP1 KECCAK256 SLOAD SWAP1 POP SWAP3 SWAP2 POP POP JUMP JUMPDEST PUSH1 0x2 PUSH1 0x20 MSTORE DUP2 PUSH0 MSTORE PUSH1 0x40 PUSH0 KECCAK256 DUP2 DUP1 MLOAD PUSH1 0x20 DUP2 ADD DUP3 ADD DUP1 MLOAD DUP5 DUP3 MSTORE PUSH1 0x20 DUP4 ADD PUSH1 0x20 DUP6 ADD KECCAK256 DUP2 DUP4 MSTORE DUP1 SWAP6 POP POP POP POP POP POP PUSH0 SWAP2 POP SWAP2 POP POP SLOAD DUP2 JUMP JUMPDEST DUP1 PUSH1 0x3 DUP4 PUSH1 0x40 MLOAD PUSH2 0x47C SWAP2 SWAP1 PUSH2 0xAFB JUMP JUMPDEST SWAP1 DUP2 MSTORE PUSH1 0x20 ADD PUSH1 0x40 MLOAD DUP1 SWAP2 SUB SWAP1 KECCAK256 DUP2 SWAP1 SSTORE POP POP POP JUMP JUMPDEST PUSH1 0x3 DUP2 DUP1 MLOAD PUSH1 0x20 DUP2 ADD DUP3 ADD DUP1 MLOAD DUP5 DUP3 MSTORE PUSH1 0x20 DUP4 ADD PUSH1 0x20 DUP6 ADD KECCAK256 DUP2 DUP4 MSTORE DUP1 SWAP6 POP POP POP POP POP POP PUSH0 SWAP2 POP SWAP1 POP SLOAD DUP2 JUMP JUMPDEST PUSH0 DUP1 SLOAD SWAP1 PUSH2 0x100 EXP SWAP1 DIV PUSH20 0xFFFFFFFFFFFFFFFFFFFFFFFFFFFFFFFFFFFFFFFF AND DUP2 JUMP JUMPDEST PUSH0 PUSH1 0x3 DUP3 PUSH1 0x40 MLOAD PUSH2 0x4F3 SWAP2 SWAP1 PUSH2 0xAFB JUMP JUMPDEST SWAP1 DUP2 MSTORE PUSH1 0x20 ADD PUSH1 0x40 MLOAD DUP1 SWAP2 SUB SWAP1 KECCAK256 SLOAD SWAP1 POP SWAP2 SWAP1 POP JUMP JUMPDEST DUP1 PUSH1 0x2 PUSH0 DUP6 PUSH20 0xFFFFFFFFFFFFFFFFFFFFFFFFFFFFFFFFFFFFFFFF AND PUSH20 0xFFFFFFFFFFFFFFFFFFFFFFFFFFFFFFFFFFFFFFFF AND DUP2 MSTORE PUSH1 0x20 ADD SWAP1 DUP2 MSTORE PUSH1 0x20 ADD PUSH0 KECCAK256 DUP4 PUSH1 0x40 MLOAD PUSH2 0x555 SWAP2 SWAP1 PUSH2 0xAFB JUMP JUMPDEST SWAP1 DUP2 MSTORE PUSH1 0x20 ADD PUSH1 0x40 MLOAD DUP1 SWAP2 SUB SWAP1 KECCAK256 DUP2 SWAP1 SSTORE POP POP POP POP JUMP JUMPDEST PUSH1 0x1 PUSH0 SWAP1 SLOAD SWAP1 PUSH2 0x100 EXP SWAP1 DIV PUSH20 0xFFFFFFFFFFFFFFFFFFFFFFFFFFFFFFFFFFFFFFFF AND DUP2 JUMP JUMPDEST PUSH0 DUP2 MLOAD DUP4 MLOAD EQ DUP1 ISZERO PUSH2 0x5B0 JUMPI POP DUP2 DUP1 MLOAD SWAP1 PUSH1 0x20 ADD KECCAK256 DUP4 DUP1 MLOAD SWAP1 PUSH1 0x20 ADD KECCAK256 EQ JUMPDEST SWAP1 POP SWAP3 SWAP2 POP POP JUMP JUMPDEST PUSH0 PUSH1 0x40 MLOAD SWAP1 POP SWAP1 JUMP JUMPDEST PUSH0 DUP1 REVERT JUMPDEST PUSH0 DUP1 REVERT JUMPDEST PUSH0 DUP1 REVERT JUMPDEST PUSH0 DUP1 REVERT JUMPDEST PUSH0 PUSH1 0x1F NOT PUSH1 0x1F DUP4 ADD AND SWAP1 POP SWAP2 SWAP1 POP JUMP JUMPDEST PUSH32 0x4E487B7100000000000000000000000000000000000000000000000000000000 PUSH0 MSTORE PUSH1 0x41 PUSH1 0x4 MSTORE PUSH1 0x24 PUSH0 REVERT JUMPDEST PUSH2 0x617 DUP3 PUSH2 0x5D1 JUMP JUMPDEST DUP2 ADD DUP2 DUP2 LT PUSH8 0xFFFFFFFFFFFFFFFF DUP3 GT OR ISZERO PUSH2 0x636 JUMPI PUSH2 0x635 PUSH2 0x5E1 JUMP JUMPDEST JUMPDEST DUP1 PUSH1 0x40 MSTORE POP POP POP JUMP JUMPDEST PUSH0 PUSH2 0x648 PUSH2 0x5B8 JUMP JUMPDEST SWAP1 POP PUSH2 0x654 DUP3 DUP3 PUSH2 0x60E JUMP JUMPDEST SWAP2 SWAP1 POP JUMP JUMPDEST PUSH0 PUSH8 0xFFFFFFFFFFFFFFFF DUP3 GT ISZERO PUSH2 0x673 JUMPI PUSH2 0x672 PUSH2 0x5E1 JUMP JUMPDEST JUMPDEST PUSH2 0x67C DUP3 PUSH2 0x5D1 JUMP JUMPDEST SWAP1 POP PUSH1 0x20 DUP2 ADD SWAP1 POP SWAP2 SWAP1 POP JUMP JUMPDEST DUP3 DUP2 DUP4 CALLDATACOPY PUSH0 DUP4 DUP4 ADD MSTORE POP POP POP JUMP JUMPDEST PUSH0 PUSH2 0x6A9 PUSH2 0x6A4 DUP5 PUSH2 0x659 JUMP JUMPDEST PUSH2 0x63F JUMP JUMPDEST SWAP1 POP DUP3 DUP2 MSTORE PUSH1 0x20 DUP2 ADD DUP5 DUP5 DUP5 ADD GT ISZERO PUSH2 0x6C5 JUMPI PUSH2 0x6C4 PUSH2 0x5CD JUMP JUMPDEST JUMPDEST PUSH2 0x6D0 DUP5 DUP3 DUP6 PUSH2 0x689 JUMP JUMPDEST POP SWAP4 SWAP3 POP POP POP JUMP JUMPDEST PUSH0 DUP3 PUSH1 0x1F DUP4 ADD SLT PUSH2 0x6EC JUMPI PUSH2 0x6EB PUSH2 0x5C9 JUMP JUMPDEST JUMPDEST DUP2 CALLDATALOAD PUSH2 0x6FC DUP5 DUP3 PUSH1 0x20 DUP7 ADD PUSH2 0x697 JUMP JUMPDEST SWAP2 POP POP SWAP3 SWAP2 POP POP JUMP JUMPDEST PUSH0 PUSH20 0xFFFFFFFFFFFFFFFFFFFFFFFFFFFFFFFFFFFFFFFF DUP3 AND SWAP1 POP SWAP2 SWAP1 POP JUMP JUMPDEST PUSH0 PUSH2 0x72E DUP3 PUSH2 0x705 JUMP JUMPDEST SWAP1 POP SWAP2 SWAP1 POP JUMP JUMPDEST PUSH2 0x73E DUP2 PUSH2 0x724 JUMP JUMPDEST DUP2 EQ PUSH2 0x748 JUMPI PUSH0 DUP1 REVERT JUMPDEST POP JUMP JUMPDEST PUSH0 DUP2 CALLDATALOAD SWAP1 POP PUSH2 0x759 DUP2 PUSH2 0x735 JUMP JUMPDEST SWAP3 SWAP2 POP POP JUMP JUMPDEST PUSH0 DUP1 PUSH1 0x40 DUP4 DUP6 SUB SLT ISZERO PUSH2 0x775 JUMPI PUSH2 0x774 PUSH2 0x5C1 JUMP JUMPDEST JUMPDEST PUSH0 DUP4 ADD CALLDATALOAD PUSH8 0xFFFFFFFFFFFFFFFF DUP2 GT ISZERO PUSH2 0x792 JUMPI PUSH2 0x791 PUSH2 0x5C5 JUMP JUMPDEST JUMPDEST PUSH2 0x79E DUP6 DUP3 DUP7 ADD PUSH2 0x6D8 JUMP JUMPDEST SWAP3 POP POP PUSH1 0x20 PUSH2 0x7AF DUP6 DUP3 DUP7 ADD PUSH2 0x74B JUMP JUMPDEST SWAP2 POP POP SWAP3 POP SWAP3 SWAP1 POP JUMP JUMPDEST PUSH0 DUP1 PUSH1 0x40 DUP4 DUP6 SUB SLT ISZERO PUSH2 0x7CF JUMPI PUSH2 0x7CE PUSH2 0x5C1 JUMP JUMPDEST JUMPDEST PUSH0 PUSH2 0x7DC DUP6 DUP3 DUP7 ADD PUSH2 0x74B JUMP JUMPDEST SWAP3 POP POP PUSH1 0x20 DUP4 ADD CALLDATALOAD PUSH8 0xFFFFFFFFFFFFFFFF DUP2 GT ISZERO PUSH2 0x7FD JUMPI PUSH2 0x7FC PUSH2 0x5C5 JUMP JUMPDEST JUMPDEST PUSH2 0x809 DUP6 DUP3 DUP7 ADD PUSH2 0x6D8 JUMP JUMPDEST SWAP2 POP POP SWAP3 POP SWAP3 SWAP1 POP JUMP JUMPDEST PUSH0 DUP2 SWAP1 POP SWAP2 SWAP1 POP JUMP JUMPDEST PUSH2 0x825 DUP2 PUSH2 0x813 JUMP JUMPDEST DUP3 MSTORE POP POP JUMP JUMPDEST PUSH0 PUSH1 0x20 DUP3 ADD SWAP1 POP PUSH2 0x83E PUSH0 DUP4 ADD DUP5 PUSH2 0x81C JUMP JUMPDEST SWAP3 SWAP2 POP POP JUMP JUMPDEST PUSH2 0x84D DUP2 PUSH2 0x813 JUMP JUMPDEST DUP2 EQ PUSH2 0x857 JUMPI PUSH0 DUP1 REVERT JUMPDEST POP JUMP JUMPDEST PUSH0 DUP2 CALLDATALOAD SWAP1 POP PUSH2 0x868 DUP2 PUSH2 0x844 JUMP JUMPDEST SWAP3 SWAP2 POP POP JUMP JUMPDEST PUSH0 DUP1 PUSH1 0x40 DUP4 DUP6 SUB SLT ISZERO PUSH2 0x884 JUMPI PUSH2 0x883 PUSH2 0x5C1 JUMP JUMPDEST JUMPDEST PUSH0 DUP4 ADD CALLDATALOAD PUSH8 0xFFFFFFFFFFFFFFFF DUP2 GT ISZERO PUSH2 0x8A1 JUMPI PUSH2 0x8A0 PUSH2 0x5C5 JUMP JUMPDEST JUMPDEST PUSH2 0x8AD DUP6 DUP3 DUP7 ADD PUSH2 0x6D8 JUMP JUMPDEST SWAP3 POP POP PUSH1 0x20 PUSH2 0x8BE DUP6 DUP3 DUP7 ADD PUSH2 0x85A JUMP JUMPDEST SWAP2 POP POP SWAP3 POP SWAP3 SWAP1 POP JUMP JUMPDEST PUSH0 PUSH1 0x20 DUP3 DUP5 SUB SLT ISZERO PUSH2 0x8DD JUMPI PUSH2 0x8DC PUSH2 0x5C1 JUMP JUMPDEST JUMPDEST PUSH0 DUP3 ADD CALLDATALOAD PUSH8 0xFFFFFFFFFFFFFFFF DUP2 GT ISZERO PUSH2 0x8FA JUMPI PUSH2 0x8F9 PUSH2 0x5C5 JUMP JUMPDEST JUMPDEST PUSH2 0x906 DUP5 DUP3 DUP6 ADD PUSH2 0x6D8 JUMP JUMPDEST SWAP2 POP POP SWAP3 SWAP2 POP POP JUMP JUMPDEST PUSH2 0x918 DUP2 PUSH2 0x724 JUMP JUMPDEST DUP3 MSTORE POP POP JUMP JUMPDEST PUSH0 PUSH1 0x20 DUP3 ADD SWAP1 POP PUSH2 0x931 PUSH0 DUP4 ADD DUP5 PUSH2 0x90F JUMP JUMPDEST SWAP3 SWAP2 POP POP JUMP JUMPDEST PUSH0 DUP1 PUSH0 PUSH1 0x60 DUP5 DUP7 SUB SLT ISZERO PUSH2 0x94E JUMPI PUSH2 0x94D PUSH2 0x5C1 JUMP JUMPDEST JUMPDEST PUSH0 PUSH2 0x95B DUP7 DUP3 DUP8 ADD PUSH2 0x74B JUMP JUMPDEST SWAP4 POP POP PUSH1 0x20 DUP5 ADD CALLDATALOAD PUSH8 0xFFFFFFFFFFFFFFFF DUP2 GT ISZERO PUSH2 0x97C JUMPI PUSH2 0x97B PUSH2 0x5C5 JUMP JUMPDEST JUMPDEST PUSH2 0x988 DUP7 DUP3 DUP8 ADD PUSH2 0x6D8 JUMP JUMPDEST SWAP3 POP POP PUSH1 0x40 PUSH2 0x999 DUP7 DUP3 DUP8 ADD PUSH2 0x85A JUMP JUMPDEST SWAP2 POP POP SWAP3 POP SWAP3 POP SWAP3 JUMP JUMPDEST PUSH0 DUP2 SWAP1 POP SWAP2 SWAP1 POP JUMP JUMPDEST PUSH0 PUSH2 0x9C6 PUSH2 0x9C1 PUSH2 0x9BC DUP5 PUSH2 0x705 JUMP JUMPDEST PUSH2 0x9A3 JUMP JUMPDEST PUSH2 0x705 JUMP JUMPDEST SWAP1 POP SWAP2 SWAP1 POP JUMP JUMPDEST PUSH0 PUSH2 0x9D7 DUP3 PUSH2 0x9AC JUMP JUMPDEST SWAP1 POP SWAP2 SWAP1 POP JUMP JUMPDEST PUSH0 PUSH2 0x9E8 DUP3 PUSH2 0x9CD JUMP JUMPDEST SWAP1 POP SWAP2 SWAP1 POP JUMP JUMPDEST PUSH2 0x9F8 DUP2 PUSH2 0x9DE JUMP JUMPDEST DUP3 MSTORE POP POP JUMP JUMPDEST PUSH0 PUSH1 0x20 DUP3 ADD SWAP1 POP PUSH2 0xA11 PUSH0 DUP4 ADD DUP5 PUSH2 0x9EF JUMP JUMPDEST SWAP3 SWAP2 POP POP JUMP JUMPDEST PUSH0 DUP3 DUP3 MSTORE PUSH1 0x20 DUP3 ADD SWAP1 POP SWAP3 SWAP2 POP POP JUMP JUMPDEST PUSH32 0x496E76616C69642063686F696365000000000000000000000000000000000000 PUSH0 DUP3 ADD MSTORE POP JUMP JUMPDEST PUSH0 PUSH2 0xA5B PUSH1 0xE DUP4 PUSH2 0xA17 JUMP JUMPDEST SWAP2 POP PUSH2 0xA66 DUP3 PUSH2 0xA27 JUMP JUMPDEST PUSH1 0x20 DUP3 ADD SWAP1 POP SWAP2 SWAP1 POP JUMP JUMPDEST PUSH0 PUSH1 0x20 DUP3 ADD SWAP1 POP DUP2 DUP2 SUB PUSH0 DUP4 ADD MSTORE PUSH2 0xA88 DUP2 PUSH2 0xA4F JUMP JUMPDEST SWAP1 POP SWAP2 SWAP1 POP JUMP JUMPDEST PUSH0 DUP2 MLOAD SWAP1 POP SWAP2 SWAP1 POP JUMP JUMPDEST PUSH0 DUP2 SWAP1 POP SWAP3 SWAP2 POP POP JUMP JUMPDEST PUSH0 JUMPDEST DUP4 DUP2 LT ISZERO PUSH2 0xAC0 JUMPI DUP1 DUP3 ADD MLOAD DUP2 DUP5 ADD MSTORE PUSH1 0x20 DUP2 ADD SWAP1 POP PUSH2 0xAA5 JUMP JUMPDEST PUSH0 DUP5 DUP5 ADD MSTORE POP POP POP POP JUMP JUMPDEST PUSH0 PUSH2 0xAD5 DUP3 PUSH2 0xA8F JUMP JUMPDEST PUSH2 0xADF DUP2 DUP6 PUSH2 0xA99 JUMP JUMPDEST SWAP4 POP PUSH2 0xAEF DUP2 DUP6 PUSH1 0x20 DUP7 ADD PUSH2 0xAA3 JUMP JUMPDEST DUP1 DUP5 ADD SWAP2 POP POP SWAP3 SWAP2 POP POP JUMP JUMPDEST PUSH0 PUSH2 0xB06 DUP3 DUP5 PUSH2 0xACB JUMP JUMPDEST SWAP2 POP DUP2 SWAP1 POP SWAP3 SWAP2 POP POP JUMP JUMPDEST PUSH32 0x4E487B7100000000000000000000000000000000000000000000000000000000 PUSH0 MSTORE PUSH1 0x11 PUSH1 0x4 MSTORE PUSH1 0x24 PUSH0 REVERT JUMPDEST PUSH0 PUSH2 0xB48 DUP3 PUSH2 0x813 JUMP JUMPDEST SWAP2 POP PUSH0 DUP3 SUB PUSH2 0xB5A JUMPI PUSH2 0xB59 PUSH2 0xB11 JUMP JUMPDEST JUMPDEST PUSH1 0x1 DUP3 SUB SWAP1 POP SWAP2 SWAP1 POP JUMP JUMPDEST PUSH0 PUSH2 0xB6F DUP3 PUSH2 0x813 JUMP JUMPDEST SWAP2 POP PUSH32 0xFFFFFFFFFFFFFFFFFFFFFFFFFFFFFFFFFFFFFFFFFFFFFFFFFFFFFFFFFFFFFFFF DUP3 SUB PUSH2 0xBA1 JUMPI PUSH2 0xBA0 PUSH2 0xB11 JUMP JUMPDEST JUMPDEST PUSH1 0x1 DUP3 ADD SWAP1 POP SWAP2 SWAP1 POP JUMP INVALID LOG2 PUSH5 0x6970667358 0x22 SLT KECCAK256 PREVRANDAO CALLVALUE 0x24 SAR TSTORE 0xC8 STATICCALL SELFDESTRUCT DUP9 0x4C ADD BYTE JUMPI CALLCODE 0x24 CODESIZE 0xFB SDIV PUSH4 0xDAB863F8 DUP6 JUMPI PUSH19 0x40361D59BE5864736F6C634300081800330000 "
		},
		"gasEstimates": {
			"creation": {
				"codeDepositCost": "608400",
				"executionCost": "infinite",
				"totalCost": "infinite"
			},
			"external": {
				"balance(address,string)": "infinite",
				"getIncentive(string,address)": "infinite",
				"getInventory(address,string)": "infinite",
				"getMinParticipationVotesRequired(string)": "infinite",
				"gymMembershipNFT()": "infinite",
				"minParticipationVotes(string)": "infinite",
				"owner()": "2527",
				"setInventory(address,string,uint256)": "infinite",
				"setMinParticipationVotesRequired(string,uint256)": "infinite"
			}
		},
		"methodIdentifiers": {
			"balance(address,string)": "16cadeab",
			"getIncentive(string,address)": "03ce30e7",
			"getInventory(address,string)": "13fa9b23",
			"getMinParticipationVotesRequired(string)": "98f9efd9",
			"gymMembershipNFT()": "ccffb0fd",
			"minParticipationVotes(string)": "5257832b",
			"owner()": "8da5cb5b",
			"setInventory(address,string,uint256)": "b008c7e6",
			"setMinParticipationVotesRequired(string,uint256)": "41a8eb8f"
		}
	},
	"abi": [
		{
			"inputs": [
				{
					"internalType": "address",
					"name": "_GymMembershipNFTAddress",
					"type": "address"
				}
			],
			"stateMutability": "nonpayable",
			"type": "constructor"
		},
		{
			"inputs": [
				{
					"internalType": "address",
					"name": "",
					"type": "address"
				},
				{
					"internalType": "string",
					"name": "",
					"type": "string"
				}
			],
			"name": "balance",
			"outputs": [
				{
					"internalType": "uint256",
					"name": "",
					"type": "uint256"
				}
			],
			"stateMutability": "view",
			"type": "function"
		},
		{
			"inputs": [
				{
					"internalType": "string",
					"name": "incentive",
					"type": "string"
				},
				{
					"internalType": "address",
					"name": "participant",
					"type": "address"
				}
			],
			"name": "getIncentive",
			"outputs": [],
			"stateMutability": "nonpayable",
			"type": "function"
		},
		{
			"inputs": [
				{
					"internalType": "address",
					"name": "_address",
					"type": "address"
				},
				{
					"internalType": "string",
					"name": "_item",
					"type": "string"
				}
			],
			"name": "getInventory",
			"outputs": [
				{
					"internalType": "uint256",
					"name": "",
					"type": "uint256"
				}
			],
			"stateMutability": "view",
			"type": "function"
		},
		{
			"inputs": [
				{
					"internalType": "string",
					"name": "_item",
					"type": "string"
				}
			],
			"name": "getMinParticipationVotesRequired",
			"outputs": [
				{
					"internalType": "uint256",
					"name": "",
					"type": "uint256"
				}
			],
			"stateMutability": "view",
			"type": "function"
		},
		{
			"inputs": [],
			"name": "gymMembershipNFT",
			"outputs": [
				{
					"internalType": "contract GymMembershipNFT",
					"name": "",
					"type": "address"
				}
			],
			"stateMutability": "view",
			"type": "function"
		},
		{
			"inputs": [
				{
					"internalType": "string",
					"name": "",
					"type": "string"
				}
			],
			"name": "minParticipationVotes",
			"outputs": [
				{
					"internalType": "uint256",
					"name": "",
					"type": "uint256"
				}
			],
			"stateMutability": "view",
			"type": "function"
		},
		{
			"inputs": [],
			"name": "owner",
			"outputs": [
				{
					"internalType": "address",
					"name": "",
					"type": "address"
				}
			],
			"stateMutability": "view",
			"type": "function"
		},
		{
			"inputs": [
				{
					"internalType": "address",
					"name": "_address",
					"type": "address"
				},
				{
					"internalType": "string",
					"name": "_item",
					"type": "string"
				},
				{
					"internalType": "uint256",
					"name": "_quantity",
					"type": "uint256"
				}
			],
			"name": "setInventory",
			"outputs": [],
			"stateMutability": "nonpayable",
			"type": "function"
		},
		{
			"inputs": [
				{
					"internalType": "string",
					"name": "_item",
					"type": "string"
				},
				{
					"internalType": "uint256",
					"name": "_quantity",
					"type": "uint256"
				}
			],
			"name": "setMinParticipationVotesRequired",
			"outputs": [],
			"stateMutability": "nonpayable",
			"type": "function"
		}
	]
}