{
	"data": {
		"bytecode": {
			"linkReferences": {},
			"object": "608060405234801562000010575f80fd5b50604051620016a1380380620016a18339818101604052810190620000369190620003f9565b335f806101000a81548173ffffffffffffffffffffffffffffffffffffffff021916908373ffffffffffffffffffffffffffffffffffffffff1602179055508260015f6101000a81548173ffffffffffffffffffffffffffffffffffffffff021916908373ffffffffffffffffffffffffffffffffffffffff1602179055508160025f6101000a81548173ffffffffffffffffffffffffffffffffffffffff021916908373ffffffffffffffffffffffffffffffffffffffff1602179055508060035f6101000a81548173ffffffffffffffffffffffffffffffffffffffff021916908373ffffffffffffffffffffffffffffffffffffffff1602179055506200017e306040518060400160405280600d81526020017f47796d4d656d6265727368697000000000000000000000000000000000000000815250600a6200030660201b60201c565b620001c7306040518060400160405280600a81526020017f506f6f6c41636365737300000000000000000000000000000000000000000000815250600a6200030660201b60201c565b62000210306040518060400160405280600b81526020017f5061726b696e6750617373000000000000000000000000000000000000000000815250600a6200030660201b60201c565b620002586040518060400160405280600d81526020017f47796d4d656d626572736869700000000000000000000000000000000000000081525060026200036b60201b60201c565b620002a06040518060400160405280600a81526020017f506f6f6c4163636573730000000000000000000000000000000000000000000081525060016200036b60201b60201c565b620002e86040518060400160405280600b81526020017f5061726b696e675061737300000000000000000000000000000000000000000081525060036200036b60201b60201c565b5f6007819055505f6008819055505f600981905550505050620004de565b8060045f8573ffffffffffffffffffffffffffffffffffffffff1673ffffffffffffffffffffffffffffffffffffffff1681526020019081526020015f2083604051620003549190620004c6565b908152602001604051809103902081905550505050565b806005836040516200037e9190620004c6565b9081526020016040518091039020819055505050565b5f80fd5b5f73ffffffffffffffffffffffffffffffffffffffff82169050919050565b5f620003c38262000398565b9050919050565b620003d581620003b7565b8114620003e0575f80fd5b50565b5f81519050620003f381620003ca565b92915050565b5f805f6060848603121562000413576200041262000394565b5b5f6200042286828701620003e3565b93505060206200043586828701620003e3565b92505060406200044886828701620003e3565b9150509250925092565b5f81519050919050565b5f81905092915050565b5f5b838110156200048557808201518184015260208101905062000468565b5f8484015250505050565b5f6200049c8262000452565b620004a881856200045c565b9350620004ba81856020860162000466565b80840191505092915050565b5f620004d3828462000490565b915081905092915050565b6111b580620004ec5f395ff3fe608060405234801561000f575f80fd5b50600436106100fe575f3560e01c80635257832b11610095578063b008c7e611610064578063b008c7e6146102d2578063c9083826146102ee578063ccffb0fd1461030c578063e810aa211461032a576100fe565b80635257832b14610236578063685e2230146102665780638da5cb5b1461028457806398f9efd9146102a2576100fe565b80631a9396a6116100d15780631a9396a6146101ae5780632e49a744146101de5780633a1d1ea6146101fc57806341a8eb8f1461021a576100fe565b806303ce30e71461010257806307f0ad231461011e57806313fa9b231461014e57806316cadeab1461017e575b5f80fd5b61011c60048036038101906101179190610cc0565b610348565b005b61013860048036038101906101339190610d1a565b61083a565b6040516101459190610d8c565b60405180910390f35b61016860048036038101906101639190610d1a565b61089d565b6040516101759190610d8c565b60405180910390f35b61019860048036038101906101939190610d1a565b610900565b6040516101a59190610d8c565b60405180910390f35b6101c860048036038101906101c39190610d1a565b610938565b6040516101d59190610d8c565b60405180910390f35b6101e6610970565b6040516101f39190610e00565b60405180910390f35b610204610995565b6040516102119190610d8c565b60405180910390f35b610234600480360381019061022f9190610e43565b61099b565b005b610250600480360381019061024b9190610e9d565b6109c2565b60405161025d9190610d8c565b60405180910390f35b61026e6109ef565b60405161027b9190610f04565b60405180910390f35b61028c610a14565b6040516102999190610f2c565b60405180910390f35b6102bc60048036038101906102b79190610e9d565b610a37565b6040516102c99190610d8c565b60405180910390f35b6102ec60048036038101906102e79190610f45565b610a5e565b005b6102f6610ac1565b6040516103039190610d8c565b60405180910390f35b610314610ac7565b6040516103219190610fd1565b60405180910390f35b610332610aec565b60405161033f9190610d8c565b60405180910390f35b610387826040518060400160405280600d81526020017f47796d4d656d6265727368697000000000000000000000000000000000000000815250610af2565b1561048f5760015f9054906101000a900473ffffffffffffffffffffffffffffffffffffffff1673ffffffffffffffffffffffffffffffffffffffff166340d097c3826040518263ffffffff1660e01b81526004016103e69190610f2c565b5f604051808303815f87803b1580156103fd575f80fd5b505af115801561040f573d5f803e3d5ffd5b5050505060075460065f8373ffffffffffffffffffffffffffffffffffffffff1673ffffffffffffffffffffffffffffffffffffffff1681526020019081526020015f20836040516104619190611056565b90815260200160405180910390208190555060075f81548092919061048590611099565b919050555061075a565b6104ce826040518060400160405280600a81526020017f506f6f6c41636365737300000000000000000000000000000000000000000000815250610af2565b156105d65760025f9054906101000a900473ffffffffffffffffffffffffffffffffffffffff1673ffffffffffffffffffffffffffffffffffffffff166340d097c3826040518263ffffffff1660e01b815260040161052d9190610f2c565b5f604051808303815f87803b158015610544575f80fd5b505af1158015610556573d5f803e3d5ffd5b5050505060085460065f8373ffffffffffffffffffffffffffffffffffffffff1673ffffffffffffffffffffffffffffffffffffffff1681526020019081526020015f20836040516105a89190611056565b90815260200160405180910390208190555060085f8154809291906105cc90611099565b9190505550610759565b610615826040518060400160405280600b81526020017f5061726b696e6750617373000000000000000000000000000000000000000000815250610af2565b1561071d5760035f9054906101000a900473ffffffffffffffffffffffffffffffffffffffff1673ffffffffffffffffffffffffffffffffffffffff166340d097c3826040518263ffffffff1660e01b81526004016106749190610f2c565b5f604051808303815f87803b15801561068b575f80fd5b505af115801561069d573d5f803e3d5ffd5b5050505060095460065f8373ffffffffffffffffffffffffffffffffffffffff1673ffffffffffffffffffffffffffffffffffffffff1681526020019081526020015f20836040516106ef9190611056565b90815260200160405180910390208190555060095f81548092919061071390611099565b9190505550610758565b6040517f08c379a000000000000000000000000000000000000000000000000000000000815260040161074f9061113a565b60405180910390fd5b5b5b60045f3073ffffffffffffffffffffffffffffffffffffffff1673ffffffffffffffffffffffffffffffffffffffff1681526020019081526020015f20826040516107a59190611056565b90815260200160405180910390205f8154809291906107c390611158565b919050555060045f3373ffffffffffffffffffffffffffffffffffffffff1673ffffffffffffffffffffffffffffffffffffffff1681526020019081526020015f20826040516108139190611056565b90815260200160405180910390205f81548092919061083190611099565b91905055505050565b5f60065f8473ffffffffffffffffffffffffffffffffffffffff1673ffffffffffffffffffffffffffffffffffffffff1681526020019081526020015f20826040516108869190611056565b908152602001604051809103902054905092915050565b5f60045f8473ffffffffffffffffffffffffffffffffffffffff1673ffffffffffffffffffffffffffffffffffffffff1681526020019081526020015f20826040516108e99190611056565b908152602001604051809103902054905092915050565b6004602052815f5260405f20818051602081018201805184825260208301602085012081835280955050505050505f91509150505481565b6006602052815f5260405f20818051602081018201805184825260208301602085012081835280955050505050505f91509150505481565b60035f9054906101000a900473ffffffffffffffffffffffffffffffffffffffff1681565b60085481565b806005836040516109ac9190611056565b9081526020016040518091039020819055505050565b6005818051602081018201805184825260208301602085012081835280955050505050505f915090505481565b60025f9054906101000a900473ffffffffffffffffffffffffffffffffffffffff1681565b5f8054906101000a900473ffffffffffffffffffffffffffffffffffffffff1681565b5f600582604051610a489190611056565b9081526020016040518091039020549050919050565b8060045f8573ffffffffffffffffffffffffffffffffffffffff1673ffffffffffffffffffffffffffffffffffffffff1681526020019081526020015f2083604051610aaa9190611056565b908152602001604051809103902081905550505050565b60075481565b60015f9054906101000a900473ffffffffffffffffffffffffffffffffffffffff1681565b60095481565b5f81518351148015610b11575081805190602001208380519060200120145b905092915050565b5f604051905090565b5f80fd5b5f80fd5b5f80fd5b5f80fd5b5f601f19601f8301169050919050565b7f4e487b71000000000000000000000000000000000000000000000000000000005f52604160045260245ffd5b610b7882610b32565b810181811067ffffffffffffffff82111715610b9757610b96610b42565b5b80604052505050565b5f610ba9610b19565b9050610bb58282610b6f565b919050565b5f67ffffffffffffffff821115610bd457610bd3610b42565b5b610bdd82610b32565b9050602081019050919050565b828183375f83830152505050565b5f610c0a610c0584610bba565b610ba0565b905082815260208101848484011115610c2657610c25610b2e565b5b610c31848285610bea565b509392505050565b5f82601f830112610c4d57610c4c610b2a565b5b8135610c5d848260208601610bf8565b91505092915050565b5f73ffffffffffffffffffffffffffffffffffffffff82169050919050565b5f610c8f82610c66565b9050919050565b610c9f81610c85565b8114610ca9575f80fd5b50565b5f81359050610cba81610c96565b92915050565b5f8060408385031215610cd657610cd5610b22565b5b5f83013567ffffffffffffffff811115610cf357610cf2610b26565b5b610cff85828601610c39565b9250506020610d1085828601610cac565b9150509250929050565b5f8060408385031215610d3057610d2f610b22565b5b5f610d3d85828601610cac565b925050602083013567ffffffffffffffff811115610d5e57610d5d610b26565b5b610d6a85828601610c39565b9150509250929050565b5f819050919050565b610d8681610d74565b82525050565b5f602082019050610d9f5f830184610d7d565b92915050565b5f819050919050565b5f610dc8610dc3610dbe84610c66565b610da5565b610c66565b9050919050565b5f610dd982610dae565b9050919050565b5f610dea82610dcf565b9050919050565b610dfa81610de0565b82525050565b5f602082019050610e135f830184610df1565b92915050565b610e2281610d74565b8114610e2c575f80fd5b50565b5f81359050610e3d81610e19565b92915050565b5f8060408385031215610e5957610e58610b22565b5b5f83013567ffffffffffffffff811115610e7657610e75610b26565b5b610e8285828601610c39565b9250506020610e9385828601610e2f565b9150509250929050565b5f60208284031215610eb257610eb1610b22565b5b5f82013567ffffffffffffffff811115610ecf57610ece610b26565b5b610edb84828501610c39565b91505092915050565b5f610eee82610dcf565b9050919050565b610efe81610ee4565b82525050565b5f602082019050610f175f830184610ef5565b92915050565b610f2681610c85565b82525050565b5f602082019050610f3f5f830184610f1d565b92915050565b5f805f60608486031215610f5c57610f5b610b22565b5b5f610f6986828701610cac565b935050602084013567ffffffffffffffff811115610f8a57610f89610b26565b5b610f9686828701610c39565b9250506040610fa786828701610e2f565b9150509250925092565b5f610fbb82610dcf565b9050919050565b610fcb81610fb1565b82525050565b5f602082019050610fe45f830184610fc2565b92915050565b5f81519050919050565b5f81905092915050565b5f5b8381101561101b578082015181840152602081019050611000565b5f8484015250505050565b5f61103082610fea565b61103a8185610ff4565b935061104a818560208601610ffe565b80840191505092915050565b5f6110618284611026565b915081905092915050565b7f4e487b71000000000000000000000000000000000000000000000000000000005f52601160045260245ffd5b5f6110a382610d74565b91507fffffffffffffffffffffffffffffffffffffffffffffffffffffffffffffffff82036110d5576110d461106c565b5b600182019050919050565b5f82825260208201905092915050565b7f496e76616c69642063686f6963650000000000000000000000000000000000005f82015250565b5f611124600e836110e0565b915061112f826110f0565b602082019050919050565b5f6020820190508181035f83015261115181611118565b9050919050565b5f61116282610d74565b91505f82036111745761117361106c565b5b60018203905091905056fea2646970667358221220ea2a1871349952c556bdd2f91d0b8eda8794652a36f9fed0caccba420067227164736f6c63430008180033",
			"opcodes": "PUSH1 0x80 PUSH1 0x40 MSTORE CALLVALUE DUP1 ISZERO PUSH3 0x10 JUMPI PUSH0 DUP1 REVERT JUMPDEST POP PUSH1 0x40 MLOAD PUSH3 0x16A1 CODESIZE SUB DUP1 PUSH3 0x16A1 DUP4 CODECOPY DUP2 DUP2 ADD PUSH1 0x40 MSTORE DUP2 ADD SWAP1 PUSH3 0x36 SWAP2 SWAP1 PUSH3 0x3F9 JUMP JUMPDEST CALLER PUSH0 DUP1 PUSH2 0x100 EXP DUP2 SLOAD DUP2 PUSH20 0xFFFFFFFFFFFFFFFFFFFFFFFFFFFFFFFFFFFFFFFF MUL NOT AND SWAP1 DUP4 PUSH20 0xFFFFFFFFFFFFFFFFFFFFFFFFFFFFFFFFFFFFFFFF AND MUL OR SWAP1 SSTORE POP DUP3 PUSH1 0x1 PUSH0 PUSH2 0x100 EXP DUP2 SLOAD DUP2 PUSH20 0xFFFFFFFFFFFFFFFFFFFFFFFFFFFFFFFFFFFFFFFF MUL NOT AND SWAP1 DUP4 PUSH20 0xFFFFFFFFFFFFFFFFFFFFFFFFFFFFFFFFFFFFFFFF AND MUL OR SWAP1 SSTORE POP DUP2 PUSH1 0x2 PUSH0 PUSH2 0x100 EXP DUP2 SLOAD DUP2 PUSH20 0xFFFFFFFFFFFFFFFFFFFFFFFFFFFFFFFFFFFFFFFF MUL NOT AND SWAP1 DUP4 PUSH20 0xFFFFFFFFFFFFFFFFFFFFFFFFFFFFFFFFFFFFFFFF AND MUL OR SWAP1 SSTORE POP DUP1 PUSH1 0x3 PUSH0 PUSH2 0x100 EXP DUP2 SLOAD DUP2 PUSH20 0xFFFFFFFFFFFFFFFFFFFFFFFFFFFFFFFFFFFFFFFF MUL NOT AND SWAP1 DUP4 PUSH20 0xFFFFFFFFFFFFFFFFFFFFFFFFFFFFFFFFFFFFFFFF AND MUL OR SWAP1 SSTORE POP PUSH3 0x17E ADDRESS PUSH1 0x40 MLOAD DUP1 PUSH1 0x40 ADD PUSH1 0x40 MSTORE DUP1 PUSH1 0xD DUP2 MSTORE PUSH1 0x20 ADD PUSH32 0x47796D4D656D6265727368697000000000000000000000000000000000000000 DUP2 MSTORE POP PUSH1 0xA PUSH3 0x306 PUSH1 0x20 SHL PUSH1 0x20 SHR JUMP JUMPDEST PUSH3 0x1C7 ADDRESS PUSH1 0x40 MLOAD DUP1 PUSH1 0x40 ADD PUSH1 0x40 MSTORE DUP1 PUSH1 0xA DUP2 MSTORE PUSH1 0x20 ADD PUSH32 0x506F6F6C41636365737300000000000000000000000000000000000000000000 DUP2 MSTORE POP PUSH1 0xA PUSH3 0x306 PUSH1 0x20 SHL PUSH1 0x20 SHR JUMP JUMPDEST PUSH3 0x210 ADDRESS PUSH1 0x40 MLOAD DUP1 PUSH1 0x40 ADD PUSH1 0x40 MSTORE DUP1 PUSH1 0xB DUP2 MSTORE PUSH1 0x20 ADD PUSH32 0x5061726B696E6750617373000000000000000000000000000000000000000000 DUP2 MSTORE POP PUSH1 0xA PUSH3 0x306 PUSH1 0x20 SHL PUSH1 0x20 SHR JUMP JUMPDEST PUSH3 0x258 PUSH1 0x40 MLOAD DUP1 PUSH1 0x40 ADD PUSH1 0x40 MSTORE DUP1 PUSH1 0xD DUP2 MSTORE PUSH1 0x20 ADD PUSH32 0x47796D4D656D6265727368697000000000000000000000000000000000000000 DUP2 MSTORE POP PUSH1 0x2 PUSH3 0x36B PUSH1 0x20 SHL PUSH1 0x20 SHR JUMP JUMPDEST PUSH3 0x2A0 PUSH1 0x40 MLOAD DUP1 PUSH1 0x40 ADD PUSH1 0x40 MSTORE DUP1 PUSH1 0xA DUP2 MSTORE PUSH1 0x20 ADD PUSH32 0x506F6F6C41636365737300000000000000000000000000000000000000000000 DUP2 MSTORE POP PUSH1 0x1 PUSH3 0x36B PUSH1 0x20 SHL PUSH1 0x20 SHR JUMP JUMPDEST PUSH3 0x2E8 PUSH1 0x40 MLOAD DUP1 PUSH1 0x40 ADD PUSH1 0x40 MSTORE DUP1 PUSH1 0xB DUP2 MSTORE PUSH1 0x20 ADD PUSH32 0x5061726B696E6750617373000000000000000000000000000000000000000000 DUP2 MSTORE POP PUSH1 0x3 PUSH3 0x36B PUSH1 0x20 SHL PUSH1 0x20 SHR JUMP JUMPDEST PUSH0 PUSH1 0x7 DUP2 SWAP1 SSTORE POP PUSH0 PUSH1 0x8 DUP2 SWAP1 SSTORE POP PUSH0 PUSH1 0x9 DUP2 SWAP1 SSTORE POP POP POP POP PUSH3 0x4DE JUMP JUMPDEST DUP1 PUSH1 0x4 PUSH0 DUP6 PUSH20 0xFFFFFFFFFFFFFFFFFFFFFFFFFFFFFFFFFFFFFFFF AND PUSH20 0xFFFFFFFFFFFFFFFFFFFFFFFFFFFFFFFFFFFFFFFF AND DUP2 MSTORE PUSH1 0x20 ADD SWAP1 DUP2 MSTORE PUSH1 0x20 ADD PUSH0 KECCAK256 DUP4 PUSH1 0x40 MLOAD PUSH3 0x354 SWAP2 SWAP1 PUSH3 0x4C6 JUMP JUMPDEST SWAP1 DUP2 MSTORE PUSH1 0x20 ADD PUSH1 0x40 MLOAD DUP1 SWAP2 SUB SWAP1 KECCAK256 DUP2 SWAP1 SSTORE POP POP POP POP JUMP JUMPDEST DUP1 PUSH1 0x5 DUP4 PUSH1 0x40 MLOAD PUSH3 0x37E SWAP2 SWAP1 PUSH3 0x4C6 JUMP JUMPDEST SWAP1 DUP2 MSTORE PUSH1 0x20 ADD PUSH1 0x40 MLOAD DUP1 SWAP2 SUB SWAP1 KECCAK256 DUP2 SWAP1 SSTORE POP POP POP JUMP JUMPDEST PUSH0 DUP1 REVERT JUMPDEST PUSH0 PUSH20 0xFFFFFFFFFFFFFFFFFFFFFFFFFFFFFFFFFFFFFFFF DUP3 AND SWAP1 POP SWAP2 SWAP1 POP JUMP JUMPDEST PUSH0 PUSH3 0x3C3 DUP3 PUSH3 0x398 JUMP JUMPDEST SWAP1 POP SWAP2 SWAP1 POP JUMP JUMPDEST PUSH3 0x3D5 DUP2 PUSH3 0x3B7 JUMP JUMPDEST DUP2 EQ PUSH3 0x3E0 JUMPI PUSH0 DUP1 REVERT JUMPDEST POP JUMP JUMPDEST PUSH0 DUP2 MLOAD SWAP1 POP PUSH3 0x3F3 DUP2 PUSH3 0x3CA JUMP JUMPDEST SWAP3 SWAP2 POP POP JUMP JUMPDEST PUSH0 DUP1 PUSH0 PUSH1 0x60 DUP5 DUP7 SUB SLT ISZERO PUSH3 0x413 JUMPI PUSH3 0x412 PUSH3 0x394 JUMP JUMPDEST JUMPDEST PUSH0 PUSH3 0x422 DUP7 DUP3 DUP8 ADD PUSH3 0x3E3 JUMP JUMPDEST SWAP4 POP POP PUSH1 0x20 PUSH3 0x435 DUP7 DUP3 DUP8 ADD PUSH3 0x3E3 JUMP JUMPDEST SWAP3 POP POP PUSH1 0x40 PUSH3 0x448 DUP7 DUP3 DUP8 ADD PUSH3 0x3E3 JUMP JUMPDEST SWAP2 POP POP SWAP3 POP SWAP3 POP SWAP3 JUMP JUMPDEST PUSH0 DUP2 MLOAD SWAP1 POP SWAP2 SWAP1 POP JUMP JUMPDEST PUSH0 DUP2 SWAP1 POP SWAP3 SWAP2 POP POP JUMP JUMPDEST PUSH0 JUMPDEST DUP4 DUP2 LT ISZERO PUSH3 0x485 JUMPI DUP1 DUP3 ADD MLOAD DUP2 DUP5 ADD MSTORE PUSH1 0x20 DUP2 ADD SWAP1 POP PUSH3 0x468 JUMP JUMPDEST PUSH0 DUP5 DUP5 ADD MSTORE POP POP POP POP JUMP JUMPDEST PUSH0 PUSH3 0x49C DUP3 PUSH3 0x452 JUMP JUMPDEST PUSH3 0x4A8 DUP2 DUP6 PUSH3 0x45C JUMP JUMPDEST SWAP4 POP PUSH3 0x4BA DUP2 DUP6 PUSH1 0x20 DUP7 ADD PUSH3 0x466 JUMP JUMPDEST DUP1 DUP5 ADD SWAP2 POP POP SWAP3 SWAP2 POP POP JUMP JUMPDEST PUSH0 PUSH3 0x4D3 DUP3 DUP5 PUSH3 0x490 JUMP JUMPDEST SWAP2 POP DUP2 SWAP1 POP SWAP3 SWAP2 POP POP JUMP JUMPDEST PUSH2 0x11B5 DUP1 PUSH3 0x4EC PUSH0 CODECOPY PUSH0 RETURN INVALID PUSH1 0x80 PUSH1 0x40 MSTORE CALLVALUE DUP1 ISZERO PUSH2 0xF JUMPI PUSH0 DUP1 REVERT JUMPDEST POP PUSH1 0x4 CALLDATASIZE LT PUSH2 0xFE JUMPI PUSH0 CALLDATALOAD PUSH1 0xE0 SHR DUP1 PUSH4 0x5257832B GT PUSH2 0x95 JUMPI DUP1 PUSH4 0xB008C7E6 GT PUSH2 0x64 JUMPI DUP1 PUSH4 0xB008C7E6 EQ PUSH2 0x2D2 JUMPI DUP1 PUSH4 0xC9083826 EQ PUSH2 0x2EE JUMPI DUP1 PUSH4 0xCCFFB0FD EQ PUSH2 0x30C JUMPI DUP1 PUSH4 0xE810AA21 EQ PUSH2 0x32A JUMPI PUSH2 0xFE JUMP JUMPDEST DUP1 PUSH4 0x5257832B EQ PUSH2 0x236 JUMPI DUP1 PUSH4 0x685E2230 EQ PUSH2 0x266 JUMPI DUP1 PUSH4 0x8DA5CB5B EQ PUSH2 0x284 JUMPI DUP1 PUSH4 0x98F9EFD9 EQ PUSH2 0x2A2 JUMPI PUSH2 0xFE JUMP JUMPDEST DUP1 PUSH4 0x1A9396A6 GT PUSH2 0xD1 JUMPI DUP1 PUSH4 0x1A9396A6 EQ PUSH2 0x1AE JUMPI DUP1 PUSH4 0x2E49A744 EQ PUSH2 0x1DE JUMPI DUP1 PUSH4 0x3A1D1EA6 EQ PUSH2 0x1FC JUMPI DUP1 PUSH4 0x41A8EB8F EQ PUSH2 0x21A JUMPI PUSH2 0xFE JUMP JUMPDEST DUP1 PUSH4 0x3CE30E7 EQ PUSH2 0x102 JUMPI DUP1 PUSH4 0x7F0AD23 EQ PUSH2 0x11E JUMPI DUP1 PUSH4 0x13FA9B23 EQ PUSH2 0x14E JUMPI DUP1 PUSH4 0x16CADEAB EQ PUSH2 0x17E JUMPI JUMPDEST PUSH0 DUP1 REVERT JUMPDEST PUSH2 0x11C PUSH1 0x4 DUP1 CALLDATASIZE SUB DUP2 ADD SWAP1 PUSH2 0x117 SWAP2 SWAP1 PUSH2 0xCC0 JUMP JUMPDEST PUSH2 0x348 JUMP JUMPDEST STOP JUMPDEST PUSH2 0x138 PUSH1 0x4 DUP1 CALLDATASIZE SUB DUP2 ADD SWAP1 PUSH2 0x133 SWAP2 SWAP1 PUSH2 0xD1A JUMP JUMPDEST PUSH2 0x83A JUMP JUMPDEST PUSH1 0x40 MLOAD PUSH2 0x145 SWAP2 SWAP1 PUSH2 0xD8C JUMP JUMPDEST PUSH1 0x40 MLOAD DUP1 SWAP2 SUB SWAP1 RETURN JUMPDEST PUSH2 0x168 PUSH1 0x4 DUP1 CALLDATASIZE SUB DUP2 ADD SWAP1 PUSH2 0x163 SWAP2 SWAP1 PUSH2 0xD1A JUMP JUMPDEST PUSH2 0x89D JUMP JUMPDEST PUSH1 0x40 MLOAD PUSH2 0x175 SWAP2 SWAP1 PUSH2 0xD8C JUMP JUMPDEST PUSH1 0x40 MLOAD DUP1 SWAP2 SUB SWAP1 RETURN JUMPDEST PUSH2 0x198 PUSH1 0x4 DUP1 CALLDATASIZE SUB DUP2 ADD SWAP1 PUSH2 0x193 SWAP2 SWAP1 PUSH2 0xD1A JUMP JUMPDEST PUSH2 0x900 JUMP JUMPDEST PUSH1 0x40 MLOAD PUSH2 0x1A5 SWAP2 SWAP1 PUSH2 0xD8C JUMP JUMPDEST PUSH1 0x40 MLOAD DUP1 SWAP2 SUB SWAP1 RETURN JUMPDEST PUSH2 0x1C8 PUSH1 0x4 DUP1 CALLDATASIZE SUB DUP2 ADD SWAP1 PUSH2 0x1C3 SWAP2 SWAP1 PUSH2 0xD1A JUMP JUMPDEST PUSH2 0x938 JUMP JUMPDEST PUSH1 0x40 MLOAD PUSH2 0x1D5 SWAP2 SWAP1 PUSH2 0xD8C JUMP JUMPDEST PUSH1 0x40 MLOAD DUP1 SWAP2 SUB SWAP1 RETURN JUMPDEST PUSH2 0x1E6 PUSH2 0x970 JUMP JUMPDEST PUSH1 0x40 MLOAD PUSH2 0x1F3 SWAP2 SWAP1 PUSH2 0xE00 JUMP JUMPDEST PUSH1 0x40 MLOAD DUP1 SWAP2 SUB SWAP1 RETURN JUMPDEST PUSH2 0x204 PUSH2 0x995 JUMP JUMPDEST PUSH1 0x40 MLOAD PUSH2 0x211 SWAP2 SWAP1 PUSH2 0xD8C JUMP JUMPDEST PUSH1 0x40 MLOAD DUP1 SWAP2 SUB SWAP1 RETURN JUMPDEST PUSH2 0x234 PUSH1 0x4 DUP1 CALLDATASIZE SUB DUP2 ADD SWAP1 PUSH2 0x22F SWAP2 SWAP1 PUSH2 0xE43 JUMP JUMPDEST PUSH2 0x99B JUMP JUMPDEST STOP JUMPDEST PUSH2 0x250 PUSH1 0x4 DUP1 CALLDATASIZE SUB DUP2 ADD SWAP1 PUSH2 0x24B SWAP2 SWAP1 PUSH2 0xE9D JUMP JUMPDEST PUSH2 0x9C2 JUMP JUMPDEST PUSH1 0x40 MLOAD PUSH2 0x25D SWAP2 SWAP1 PUSH2 0xD8C JUMP JUMPDEST PUSH1 0x40 MLOAD DUP1 SWAP2 SUB SWAP1 RETURN JUMPDEST PUSH2 0x26E PUSH2 0x9EF JUMP JUMPDEST PUSH1 0x40 MLOAD PUSH2 0x27B SWAP2 SWAP1 PUSH2 0xF04 JUMP JUMPDEST PUSH1 0x40 MLOAD DUP1 SWAP2 SUB SWAP1 RETURN JUMPDEST PUSH2 0x28C PUSH2 0xA14 JUMP JUMPDEST PUSH1 0x40 MLOAD PUSH2 0x299 SWAP2 SWAP1 PUSH2 0xF2C JUMP JUMPDEST PUSH1 0x40 MLOAD DUP1 SWAP2 SUB SWAP1 RETURN JUMPDEST PUSH2 0x2BC PUSH1 0x4 DUP1 CALLDATASIZE SUB DUP2 ADD SWAP1 PUSH2 0x2B7 SWAP2 SWAP1 PUSH2 0xE9D JUMP JUMPDEST PUSH2 0xA37 JUMP JUMPDEST PUSH1 0x40 MLOAD PUSH2 0x2C9 SWAP2 SWAP1 PUSH2 0xD8C JUMP JUMPDEST PUSH1 0x40 MLOAD DUP1 SWAP2 SUB SWAP1 RETURN JUMPDEST PUSH2 0x2EC PUSH1 0x4 DUP1 CALLDATASIZE SUB DUP2 ADD SWAP1 PUSH2 0x2E7 SWAP2 SWAP1 PUSH2 0xF45 JUMP JUMPDEST PUSH2 0xA5E JUMP JUMPDEST STOP JUMPDEST PUSH2 0x2F6 PUSH2 0xAC1 JUMP JUMPDEST PUSH1 0x40 MLOAD PUSH2 0x303 SWAP2 SWAP1 PUSH2 0xD8C JUMP JUMPDEST PUSH1 0x40 MLOAD DUP1 SWAP2 SUB SWAP1 RETURN JUMPDEST PUSH2 0x314 PUSH2 0xAC7 JUMP JUMPDEST PUSH1 0x40 MLOAD PUSH2 0x321 SWAP2 SWAP1 PUSH2 0xFD1 JUMP JUMPDEST PUSH1 0x40 MLOAD DUP1 SWAP2 SUB SWAP1 RETURN JUMPDEST PUSH2 0x332 PUSH2 0xAEC JUMP JUMPDEST PUSH1 0x40 MLOAD PUSH2 0x33F SWAP2 SWAP1 PUSH2 0xD8C JUMP JUMPDEST PUSH1 0x40 MLOAD DUP1 SWAP2 SUB SWAP1 RETURN JUMPDEST PUSH2 0x387 DUP3 PUSH1 0x40 MLOAD DUP1 PUSH1 0x40 ADD PUSH1 0x40 MSTORE DUP1 PUSH1 0xD DUP2 MSTORE PUSH1 0x20 ADD PUSH32 0x47796D4D656D6265727368697000000000000000000000000000000000000000 DUP2 MSTORE POP PUSH2 0xAF2 JUMP JUMPDEST ISZERO PUSH2 0x48F JUMPI PUSH1 0x1 PUSH0 SWAP1 SLOAD SWAP1 PUSH2 0x100 EXP SWAP1 DIV PUSH20 0xFFFFFFFFFFFFFFFFFFFFFFFFFFFFFFFFFFFFFFFF AND PUSH20 0xFFFFFFFFFFFFFFFFFFFFFFFFFFFFFFFFFFFFFFFF AND PUSH4 0x40D097C3 DUP3 PUSH1 0x40 MLOAD DUP3 PUSH4 0xFFFFFFFF AND PUSH1 0xE0 SHL DUP2 MSTORE PUSH1 0x4 ADD PUSH2 0x3E6 SWAP2 SWAP1 PUSH2 0xF2C JUMP JUMPDEST PUSH0 PUSH1 0x40 MLOAD DUP1 DUP4 SUB DUP2 PUSH0 DUP8 DUP1 EXTCODESIZE ISZERO DUP1 ISZERO PUSH2 0x3FD JUMPI PUSH0 DUP1 REVERT JUMPDEST POP GAS CALL ISZERO DUP1 ISZERO PUSH2 0x40F JUMPI RETURNDATASIZE PUSH0 DUP1 RETURNDATACOPY RETURNDATASIZE PUSH0 REVERT JUMPDEST POP POP POP POP PUSH1 0x7 SLOAD PUSH1 0x6 PUSH0 DUP4 PUSH20 0xFFFFFFFFFFFFFFFFFFFFFFFFFFFFFFFFFFFFFFFF AND PUSH20 0xFFFFFFFFFFFFFFFFFFFFFFFFFFFFFFFFFFFFFFFF AND DUP2 MSTORE PUSH1 0x20 ADD SWAP1 DUP2 MSTORE PUSH1 0x20 ADD PUSH0 KECCAK256 DUP4 PUSH1 0x40 MLOAD PUSH2 0x461 SWAP2 SWAP1 PUSH2 0x1056 JUMP JUMPDEST SWAP1 DUP2 MSTORE PUSH1 0x20 ADD PUSH1 0x40 MLOAD DUP1 SWAP2 SUB SWAP1 KECCAK256 DUP2 SWAP1 SSTORE POP PUSH1 0x7 PUSH0 DUP2 SLOAD DUP1 SWAP3 SWAP2 SWAP1 PUSH2 0x485 SWAP1 PUSH2 0x1099 JUMP JUMPDEST SWAP2 SWAP1 POP SSTORE POP PUSH2 0x75A JUMP JUMPDEST PUSH2 0x4CE DUP3 PUSH1 0x40 MLOAD DUP1 PUSH1 0x40 ADD PUSH1 0x40 MSTORE DUP1 PUSH1 0xA DUP2 MSTORE PUSH1 0x20 ADD PUSH32 0x506F6F6C41636365737300000000000000000000000000000000000000000000 DUP2 MSTORE POP PUSH2 0xAF2 JUMP JUMPDEST ISZERO PUSH2 0x5D6 JUMPI PUSH1 0x2 PUSH0 SWAP1 SLOAD SWAP1 PUSH2 0x100 EXP SWAP1 DIV PUSH20 0xFFFFFFFFFFFFFFFFFFFFFFFFFFFFFFFFFFFFFFFF AND PUSH20 0xFFFFFFFFFFFFFFFFFFFFFFFFFFFFFFFFFFFFFFFF AND PUSH4 0x40D097C3 DUP3 PUSH1 0x40 MLOAD DUP3 PUSH4 0xFFFFFFFF AND PUSH1 0xE0 SHL DUP2 MSTORE PUSH1 0x4 ADD PUSH2 0x52D SWAP2 SWAP1 PUSH2 0xF2C JUMP JUMPDEST PUSH0 PUSH1 0x40 MLOAD DUP1 DUP4 SUB DUP2 PUSH0 DUP8 DUP1 EXTCODESIZE ISZERO DUP1 ISZERO PUSH2 0x544 JUMPI PUSH0 DUP1 REVERT JUMPDEST POP GAS CALL ISZERO DUP1 ISZERO PUSH2 0x556 JUMPI RETURNDATASIZE PUSH0 DUP1 RETURNDATACOPY RETURNDATASIZE PUSH0 REVERT JUMPDEST POP POP POP POP PUSH1 0x8 SLOAD PUSH1 0x6 PUSH0 DUP4 PUSH20 0xFFFFFFFFFFFFFFFFFFFFFFFFFFFFFFFFFFFFFFFF AND PUSH20 0xFFFFFFFFFFFFFFFFFFFFFFFFFFFFFFFFFFFFFFFF AND DUP2 MSTORE PUSH1 0x20 ADD SWAP1 DUP2 MSTORE PUSH1 0x20 ADD PUSH0 KECCAK256 DUP4 PUSH1 0x40 MLOAD PUSH2 0x5A8 SWAP2 SWAP1 PUSH2 0x1056 JUMP JUMPDEST SWAP1 DUP2 MSTORE PUSH1 0x20 ADD PUSH1 0x40 MLOAD DUP1 SWAP2 SUB SWAP1 KECCAK256 DUP2 SWAP1 SSTORE POP PUSH1 0x8 PUSH0 DUP2 SLOAD DUP1 SWAP3 SWAP2 SWAP1 PUSH2 0x5CC SWAP1 PUSH2 0x1099 JUMP JUMPDEST SWAP2 SWAP1 POP SSTORE POP PUSH2 0x759 JUMP JUMPDEST PUSH2 0x615 DUP3 PUSH1 0x40 MLOAD DUP1 PUSH1 0x40 ADD PUSH1 0x40 MSTORE DUP1 PUSH1 0xB DUP2 MSTORE PUSH1 0x20 ADD PUSH32 0x5061726B696E6750617373000000000000000000000000000000000000000000 DUP2 MSTORE POP PUSH2 0xAF2 JUMP JUMPDEST ISZERO PUSH2 0x71D JUMPI PUSH1 0x3 PUSH0 SWAP1 SLOAD SWAP1 PUSH2 0x100 EXP SWAP1 DIV PUSH20 0xFFFFFFFFFFFFFFFFFFFFFFFFFFFFFFFFFFFFFFFF AND PUSH20 0xFFFFFFFFFFFFFFFFFFFFFFFFFFFFFFFFFFFFFFFF AND PUSH4 0x40D097C3 DUP3 PUSH1 0x40 MLOAD DUP3 PUSH4 0xFFFFFFFF AND PUSH1 0xE0 SHL DUP2 MSTORE PUSH1 0x4 ADD PUSH2 0x674 SWAP2 SWAP1 PUSH2 0xF2C JUMP JUMPDEST PUSH0 PUSH1 0x40 MLOAD DUP1 DUP4 SUB DUP2 PUSH0 DUP8 DUP1 EXTCODESIZE ISZERO DUP1 ISZERO PUSH2 0x68B JUMPI PUSH0 DUP1 REVERT JUMPDEST POP GAS CALL ISZERO DUP1 ISZERO PUSH2 0x69D JUMPI RETURNDATASIZE PUSH0 DUP1 RETURNDATACOPY RETURNDATASIZE PUSH0 REVERT JUMPDEST POP POP POP POP PUSH1 0x9 SLOAD PUSH1 0x6 PUSH0 DUP4 PUSH20 0xFFFFFFFFFFFFFFFFFFFFFFFFFFFFFFFFFFFFFFFF AND PUSH20 0xFFFFFFFFFFFFFFFFFFFFFFFFFFFFFFFFFFFFFFFF AND DUP2 MSTORE PUSH1 0x20 ADD SWAP1 DUP2 MSTORE PUSH1 0x20 ADD PUSH0 KECCAK256 DUP4 PUSH1 0x40 MLOAD PUSH2 0x6EF SWAP2 SWAP1 PUSH2 0x1056 JUMP JUMPDEST SWAP1 DUP2 MSTORE PUSH1 0x20 ADD PUSH1 0x40 MLOAD DUP1 SWAP2 SUB SWAP1 KECCAK256 DUP2 SWAP1 SSTORE POP PUSH1 0x9 PUSH0 DUP2 SLOAD DUP1 SWAP3 SWAP2 SWAP1 PUSH2 0x713 SWAP1 PUSH2 0x1099 JUMP JUMPDEST SWAP2 SWAP1 POP SSTORE POP PUSH2 0x758 JUMP JUMPDEST PUSH1 0x40 MLOAD PUSH32 0x8C379A000000000000000000000000000000000000000000000000000000000 DUP2 MSTORE PUSH1 0x4 ADD PUSH2 0x74F SWAP1 PUSH2 0x113A JUMP JUMPDEST PUSH1 0x40 MLOAD DUP1 SWAP2 SUB SWAP1 REVERT JUMPDEST JUMPDEST JUMPDEST PUSH1 0x4 PUSH0 ADDRESS PUSH20 0xFFFFFFFFFFFFFFFFFFFFFFFFFFFFFFFFFFFFFFFF AND PUSH20 0xFFFFFFFFFFFFFFFFFFFFFFFFFFFFFFFFFFFFFFFF AND DUP2 MSTORE PUSH1 0x20 ADD SWAP1 DUP2 MSTORE PUSH1 0x20 ADD PUSH0 KECCAK256 DUP3 PUSH1 0x40 MLOAD PUSH2 0x7A5 SWAP2 SWAP1 PUSH2 0x1056 JUMP JUMPDEST SWAP1 DUP2 MSTORE PUSH1 0x20 ADD PUSH1 0x40 MLOAD DUP1 SWAP2 SUB SWAP1 KECCAK256 PUSH0 DUP2 SLOAD DUP1 SWAP3 SWAP2 SWAP1 PUSH2 0x7C3 SWAP1 PUSH2 0x1158 JUMP JUMPDEST SWAP2 SWAP1 POP SSTORE POP PUSH1 0x4 PUSH0 CALLER PUSH20 0xFFFFFFFFFFFFFFFFFFFFFFFFFFFFFFFFFFFFFFFF AND PUSH20 0xFFFFFFFFFFFFFFFFFFFFFFFFFFFFFFFFFFFFFFFF AND DUP2 MSTORE PUSH1 0x20 ADD SWAP1 DUP2 MSTORE PUSH1 0x20 ADD PUSH0 KECCAK256 DUP3 PUSH1 0x40 MLOAD PUSH2 0x813 SWAP2 SWAP1 PUSH2 0x1056 JUMP JUMPDEST SWAP1 DUP2 MSTORE PUSH1 0x20 ADD PUSH1 0x40 MLOAD DUP1 SWAP2 SUB SWAP1 KECCAK256 PUSH0 DUP2 SLOAD DUP1 SWAP3 SWAP2 SWAP1 PUSH2 0x831 SWAP1 PUSH2 0x1099 JUMP JUMPDEST SWAP2 SWAP1 POP SSTORE POP POP POP JUMP JUMPDEST PUSH0 PUSH1 0x6 PUSH0 DUP5 PUSH20 0xFFFFFFFFFFFFFFFFFFFFFFFFFFFFFFFFFFFFFFFF AND PUSH20 0xFFFFFFFFFFFFFFFFFFFFFFFFFFFFFFFFFFFFFFFF AND DUP2 MSTORE PUSH1 0x20 ADD SWAP1 DUP2 MSTORE PUSH1 0x20 ADD PUSH0 KECCAK256 DUP3 PUSH1 0x40 MLOAD PUSH2 0x886 SWAP2 SWAP1 PUSH2 0x1056 JUMP JUMPDEST SWAP1 DUP2 MSTORE PUSH1 0x20 ADD PUSH1 0x40 MLOAD DUP1 SWAP2 SUB SWAP1 KECCAK256 SLOAD SWAP1 POP SWAP3 SWAP2 POP POP JUMP JUMPDEST PUSH0 PUSH1 0x4 PUSH0 DUP5 PUSH20 0xFFFFFFFFFFFFFFFFFFFFFFFFFFFFFFFFFFFFFFFF AND PUSH20 0xFFFFFFFFFFFFFFFFFFFFFFFFFFFFFFFFFFFFFFFF AND DUP2 MSTORE PUSH1 0x20 ADD SWAP1 DUP2 MSTORE PUSH1 0x20 ADD PUSH0 KECCAK256 DUP3 PUSH1 0x40 MLOAD PUSH2 0x8E9 SWAP2 SWAP1 PUSH2 0x1056 JUMP JUMPDEST SWAP1 DUP2 MSTORE PUSH1 0x20 ADD PUSH1 0x40 MLOAD DUP1 SWAP2 SUB SWAP1 KECCAK256 SLOAD SWAP1 POP SWAP3 SWAP2 POP POP JUMP JUMPDEST PUSH1 0x4 PUSH1 0x20 MSTORE DUP2 PUSH0 MSTORE PUSH1 0x40 PUSH0 KECCAK256 DUP2 DUP1 MLOAD PUSH1 0x20 DUP2 ADD DUP3 ADD DUP1 MLOAD DUP5 DUP3 MSTORE PUSH1 0x20 DUP4 ADD PUSH1 0x20 DUP6 ADD KECCAK256 DUP2 DUP4 MSTORE DUP1 SWAP6 POP POP POP POP POP POP PUSH0 SWAP2 POP SWAP2 POP POP SLOAD DUP2 JUMP JUMPDEST PUSH1 0x6 PUSH1 0x20 MSTORE DUP2 PUSH0 MSTORE PUSH1 0x40 PUSH0 KECCAK256 DUP2 DUP1 MLOAD PUSH1 0x20 DUP2 ADD DUP3 ADD DUP1 MLOAD DUP5 DUP3 MSTORE PUSH1 0x20 DUP4 ADD PUSH1 0x20 DUP6 ADD KECCAK256 DUP2 DUP4 MSTORE DUP1 SWAP6 POP POP POP POP POP POP PUSH0 SWAP2 POP SWAP2 POP POP SLOAD DUP2 JUMP JUMPDEST PUSH1 0x3 PUSH0 SWAP1 SLOAD SWAP1 PUSH2 0x100 EXP SWAP1 DIV PUSH20 0xFFFFFFFFFFFFFFFFFFFFFFFFFFFFFFFFFFFFFFFF AND DUP2 JUMP JUMPDEST PUSH1 0x8 SLOAD DUP2 JUMP JUMPDEST DUP1 PUSH1 0x5 DUP4 PUSH1 0x40 MLOAD PUSH2 0x9AC SWAP2 SWAP1 PUSH2 0x1056 JUMP JUMPDEST SWAP1 DUP2 MSTORE PUSH1 0x20 ADD PUSH1 0x40 MLOAD DUP1 SWAP2 SUB SWAP1 KECCAK256 DUP2 SWAP1 SSTORE POP POP POP JUMP JUMPDEST PUSH1 0x5 DUP2 DUP1 MLOAD PUSH1 0x20 DUP2 ADD DUP3 ADD DUP1 MLOAD DUP5 DUP3 MSTORE PUSH1 0x20 DUP4 ADD PUSH1 0x20 DUP6 ADD KECCAK256 DUP2 DUP4 MSTORE DUP1 SWAP6 POP POP POP POP POP POP PUSH0 SWAP2 POP SWAP1 POP SLOAD DUP2 JUMP JUMPDEST PUSH1 0x2 PUSH0 SWAP1 SLOAD SWAP1 PUSH2 0x100 EXP SWAP1 DIV PUSH20 0xFFFFFFFFFFFFFFFFFFFFFFFFFFFFFFFFFFFFFFFF AND DUP2 JUMP JUMPDEST PUSH0 DUP1 SLOAD SWAP1 PUSH2 0x100 EXP SWAP1 DIV PUSH20 0xFFFFFFFFFFFFFFFFFFFFFFFFFFFFFFFFFFFFFFFF AND DUP2 JUMP JUMPDEST PUSH0 PUSH1 0x5 DUP3 PUSH1 0x40 MLOAD PUSH2 0xA48 SWAP2 SWAP1 PUSH2 0x1056 JUMP JUMPDEST SWAP1 DUP2 MSTORE PUSH1 0x20 ADD PUSH1 0x40 MLOAD DUP1 SWAP2 SUB SWAP1 KECCAK256 SLOAD SWAP1 POP SWAP2 SWAP1 POP JUMP JUMPDEST DUP1 PUSH1 0x4 PUSH0 DUP6 PUSH20 0xFFFFFFFFFFFFFFFFFFFFFFFFFFFFFFFFFFFFFFFF AND PUSH20 0xFFFFFFFFFFFFFFFFFFFFFFFFFFFFFFFFFFFFFFFF AND DUP2 MSTORE PUSH1 0x20 ADD SWAP1 DUP2 MSTORE PUSH1 0x20 ADD PUSH0 KECCAK256 DUP4 PUSH1 0x40 MLOAD PUSH2 0xAAA SWAP2 SWAP1 PUSH2 0x1056 JUMP JUMPDEST SWAP1 DUP2 MSTORE PUSH1 0x20 ADD PUSH1 0x40 MLOAD DUP1 SWAP2 SUB SWAP1 KECCAK256 DUP2 SWAP1 SSTORE POP POP POP POP JUMP JUMPDEST PUSH1 0x7 SLOAD DUP2 JUMP JUMPDEST PUSH1 0x1 PUSH0 SWAP1 SLOAD SWAP1 PUSH2 0x100 EXP SWAP1 DIV PUSH20 0xFFFFFFFFFFFFFFFFFFFFFFFFFFFFFFFFFFFFFFFF AND DUP2 JUMP JUMPDEST PUSH1 0x9 SLOAD DUP2 JUMP JUMPDEST PUSH0 DUP2 MLOAD DUP4 MLOAD EQ DUP1 ISZERO PUSH2 0xB11 JUMPI POP DUP2 DUP1 MLOAD SWAP1 PUSH1 0x20 ADD KECCAK256 DUP4 DUP1 MLOAD SWAP1 PUSH1 0x20 ADD KECCAK256 EQ JUMPDEST SWAP1 POP SWAP3 SWAP2 POP POP JUMP JUMPDEST PUSH0 PUSH1 0x40 MLOAD SWAP1 POP SWAP1 JUMP JUMPDEST PUSH0 DUP1 REVERT JUMPDEST PUSH0 DUP1 REVERT JUMPDEST PUSH0 DUP1 REVERT JUMPDEST PUSH0 DUP1 REVERT JUMPDEST PUSH0 PUSH1 0x1F NOT PUSH1 0x1F DUP4 ADD AND SWAP1 POP SWAP2 SWAP1 POP JUMP JUMPDEST PUSH32 0x4E487B7100000000000000000000000000000000000000000000000000000000 PUSH0 MSTORE PUSH1 0x41 PUSH1 0x4 MSTORE PUSH1 0x24 PUSH0 REVERT JUMPDEST PUSH2 0xB78 DUP3 PUSH2 0xB32 JUMP JUMPDEST DUP2 ADD DUP2 DUP2 LT PUSH8 0xFFFFFFFFFFFFFFFF DUP3 GT OR ISZERO PUSH2 0xB97 JUMPI PUSH2 0xB96 PUSH2 0xB42 JUMP JUMPDEST JUMPDEST DUP1 PUSH1 0x40 MSTORE POP POP POP JUMP JUMPDEST PUSH0 PUSH2 0xBA9 PUSH2 0xB19 JUMP JUMPDEST SWAP1 POP PUSH2 0xBB5 DUP3 DUP3 PUSH2 0xB6F JUMP JUMPDEST SWAP2 SWAP1 POP JUMP JUMPDEST PUSH0 PUSH8 0xFFFFFFFFFFFFFFFF DUP3 GT ISZERO PUSH2 0xBD4 JUMPI PUSH2 0xBD3 PUSH2 0xB42 JUMP JUMPDEST JUMPDEST PUSH2 0xBDD DUP3 PUSH2 0xB32 JUMP JUMPDEST SWAP1 POP PUSH1 0x20 DUP2 ADD SWAP1 POP SWAP2 SWAP1 POP JUMP JUMPDEST DUP3 DUP2 DUP4 CALLDATACOPY PUSH0 DUP4 DUP4 ADD MSTORE POP POP POP JUMP JUMPDEST PUSH0 PUSH2 0xC0A PUSH2 0xC05 DUP5 PUSH2 0xBBA JUMP JUMPDEST PUSH2 0xBA0 JUMP JUMPDEST SWAP1 POP DUP3 DUP2 MSTORE PUSH1 0x20 DUP2 ADD DUP5 DUP5 DUP5 ADD GT ISZERO PUSH2 0xC26 JUMPI PUSH2 0xC25 PUSH2 0xB2E JUMP JUMPDEST JUMPDEST PUSH2 0xC31 DUP5 DUP3 DUP6 PUSH2 0xBEA JUMP JUMPDEST POP SWAP4 SWAP3 POP POP POP JUMP JUMPDEST PUSH0 DUP3 PUSH1 0x1F DUP4 ADD SLT PUSH2 0xC4D JUMPI PUSH2 0xC4C PUSH2 0xB2A JUMP JUMPDEST JUMPDEST DUP2 CALLDATALOAD PUSH2 0xC5D DUP5 DUP3 PUSH1 0x20 DUP7 ADD PUSH2 0xBF8 JUMP JUMPDEST SWAP2 POP POP SWAP3 SWAP2 POP POP JUMP JUMPDEST PUSH0 PUSH20 0xFFFFFFFFFFFFFFFFFFFFFFFFFFFFFFFFFFFFFFFF DUP3 AND SWAP1 POP SWAP2 SWAP1 POP JUMP JUMPDEST PUSH0 PUSH2 0xC8F DUP3 PUSH2 0xC66 JUMP JUMPDEST SWAP1 POP SWAP2 SWAP1 POP JUMP JUMPDEST PUSH2 0xC9F DUP2 PUSH2 0xC85 JUMP JUMPDEST DUP2 EQ PUSH2 0xCA9 JUMPI PUSH0 DUP1 REVERT JUMPDEST POP JUMP JUMPDEST PUSH0 DUP2 CALLDATALOAD SWAP1 POP PUSH2 0xCBA DUP2 PUSH2 0xC96 JUMP JUMPDEST SWAP3 SWAP2 POP POP JUMP JUMPDEST PUSH0 DUP1 PUSH1 0x40 DUP4 DUP6 SUB SLT ISZERO PUSH2 0xCD6 JUMPI PUSH2 0xCD5 PUSH2 0xB22 JUMP JUMPDEST JUMPDEST PUSH0 DUP4 ADD CALLDATALOAD PUSH8 0xFFFFFFFFFFFFFFFF DUP2 GT ISZERO PUSH2 0xCF3 JUMPI PUSH2 0xCF2 PUSH2 0xB26 JUMP JUMPDEST JUMPDEST PUSH2 0xCFF DUP6 DUP3 DUP7 ADD PUSH2 0xC39 JUMP JUMPDEST SWAP3 POP POP PUSH1 0x20 PUSH2 0xD10 DUP6 DUP3 DUP7 ADD PUSH2 0xCAC JUMP JUMPDEST SWAP2 POP POP SWAP3 POP SWAP3 SWAP1 POP JUMP JUMPDEST PUSH0 DUP1 PUSH1 0x40 DUP4 DUP6 SUB SLT ISZERO PUSH2 0xD30 JUMPI PUSH2 0xD2F PUSH2 0xB22 JUMP JUMPDEST JUMPDEST PUSH0 PUSH2 0xD3D DUP6 DUP3 DUP7 ADD PUSH2 0xCAC JUMP JUMPDEST SWAP3 POP POP PUSH1 0x20 DUP4 ADD CALLDATALOAD PUSH8 0xFFFFFFFFFFFFFFFF DUP2 GT ISZERO PUSH2 0xD5E JUMPI PUSH2 0xD5D PUSH2 0xB26 JUMP JUMPDEST JUMPDEST PUSH2 0xD6A DUP6 DUP3 DUP7 ADD PUSH2 0xC39 JUMP JUMPDEST SWAP2 POP POP SWAP3 POP SWAP3 SWAP1 POP JUMP JUMPDEST PUSH0 DUP2 SWAP1 POP SWAP2 SWAP1 POP JUMP JUMPDEST PUSH2 0xD86 DUP2 PUSH2 0xD74 JUMP JUMPDEST DUP3 MSTORE POP POP JUMP JUMPDEST PUSH0 PUSH1 0x20 DUP3 ADD SWAP1 POP PUSH2 0xD9F PUSH0 DUP4 ADD DUP5 PUSH2 0xD7D JUMP JUMPDEST SWAP3 SWAP2 POP POP JUMP JUMPDEST PUSH0 DUP2 SWAP1 POP SWAP2 SWAP1 POP JUMP JUMPDEST PUSH0 PUSH2 0xDC8 PUSH2 0xDC3 PUSH2 0xDBE DUP5 PUSH2 0xC66 JUMP JUMPDEST PUSH2 0xDA5 JUMP JUMPDEST PUSH2 0xC66 JUMP JUMPDEST SWAP1 POP SWAP2 SWAP1 POP JUMP JUMPDEST PUSH0 PUSH2 0xDD9 DUP3 PUSH2 0xDAE JUMP JUMPDEST SWAP1 POP SWAP2 SWAP1 POP JUMP JUMPDEST PUSH0 PUSH2 0xDEA DUP3 PUSH2 0xDCF JUMP JUMPDEST SWAP1 POP SWAP2 SWAP1 POP JUMP JUMPDEST PUSH2 0xDFA DUP2 PUSH2 0xDE0 JUMP JUMPDEST DUP3 MSTORE POP POP JUMP JUMPDEST PUSH0 PUSH1 0x20 DUP3 ADD SWAP1 POP PUSH2 0xE13 PUSH0 DUP4 ADD DUP5 PUSH2 0xDF1 JUMP JUMPDEST SWAP3 SWAP2 POP POP JUMP JUMPDEST PUSH2 0xE22 DUP2 PUSH2 0xD74 JUMP JUMPDEST DUP2 EQ PUSH2 0xE2C JUMPI PUSH0 DUP1 REVERT JUMPDEST POP JUMP JUMPDEST PUSH0 DUP2 CALLDATALOAD SWAP1 POP PUSH2 0xE3D DUP2 PUSH2 0xE19 JUMP JUMPDEST SWAP3 SWAP2 POP POP JUMP JUMPDEST PUSH0 DUP1 PUSH1 0x40 DUP4 DUP6 SUB SLT ISZERO PUSH2 0xE59 JUMPI PUSH2 0xE58 PUSH2 0xB22 JUMP JUMPDEST JUMPDEST PUSH0 DUP4 ADD CALLDATALOAD PUSH8 0xFFFFFFFFFFFFFFFF DUP2 GT ISZERO PUSH2 0xE76 JUMPI PUSH2 0xE75 PUSH2 0xB26 JUMP JUMPDEST JUMPDEST PUSH2 0xE82 DUP6 DUP3 DUP7 ADD PUSH2 0xC39 JUMP JUMPDEST SWAP3 POP POP PUSH1 0x20 PUSH2 0xE93 DUP6 DUP3 DUP7 ADD PUSH2 0xE2F JUMP JUMPDEST SWAP2 POP POP SWAP3 POP SWAP3 SWAP1 POP JUMP JUMPDEST PUSH0 PUSH1 0x20 DUP3 DUP5 SUB SLT ISZERO PUSH2 0xEB2 JUMPI PUSH2 0xEB1 PUSH2 0xB22 JUMP JUMPDEST JUMPDEST PUSH0 DUP3 ADD CALLDATALOAD PUSH8 0xFFFFFFFFFFFFFFFF DUP2 GT ISZERO PUSH2 0xECF JUMPI PUSH2 0xECE PUSH2 0xB26 JUMP JUMPDEST JUMPDEST PUSH2 0xEDB DUP5 DUP3 DUP6 ADD PUSH2 0xC39 JUMP JUMPDEST SWAP2 POP POP SWAP3 SWAP2 POP POP JUMP JUMPDEST PUSH0 PUSH2 0xEEE DUP3 PUSH2 0xDCF JUMP JUMPDEST SWAP1 POP SWAP2 SWAP1 POP JUMP JUMPDEST PUSH2 0xEFE DUP2 PUSH2 0xEE4 JUMP JUMPDEST DUP3 MSTORE POP POP JUMP JUMPDEST PUSH0 PUSH1 0x20 DUP3 ADD SWAP1 POP PUSH2 0xF17 PUSH0 DUP4 ADD DUP5 PUSH2 0xEF5 JUMP JUMPDEST SWAP3 SWAP2 POP POP JUMP JUMPDEST PUSH2 0xF26 DUP2 PUSH2 0xC85 JUMP JUMPDEST DUP3 MSTORE POP POP JUMP JUMPDEST PUSH0 PUSH1 0x20 DUP3 ADD SWAP1 POP PUSH2 0xF3F PUSH0 DUP4 ADD DUP5 PUSH2 0xF1D JUMP JUMPDEST SWAP3 SWAP2 POP POP JUMP JUMPDEST PUSH0 DUP1 PUSH0 PUSH1 0x60 DUP5 DUP7 SUB SLT ISZERO PUSH2 0xF5C JUMPI PUSH2 0xF5B PUSH2 0xB22 JUMP JUMPDEST JUMPDEST PUSH0 PUSH2 0xF69 DUP7 DUP3 DUP8 ADD PUSH2 0xCAC JUMP JUMPDEST SWAP4 POP POP PUSH1 0x20 DUP5 ADD CALLDATALOAD PUSH8 0xFFFFFFFFFFFFFFFF DUP2 GT ISZERO PUSH2 0xF8A JUMPI PUSH2 0xF89 PUSH2 0xB26 JUMP JUMPDEST JUMPDEST PUSH2 0xF96 DUP7 DUP3 DUP8 ADD PUSH2 0xC39 JUMP JUMPDEST SWAP3 POP POP PUSH1 0x40 PUSH2 0xFA7 DUP7 DUP3 DUP8 ADD PUSH2 0xE2F JUMP JUMPDEST SWAP2 POP POP SWAP3 POP SWAP3 POP SWAP3 JUMP JUMPDEST PUSH0 PUSH2 0xFBB DUP3 PUSH2 0xDCF JUMP JUMPDEST SWAP1 POP SWAP2 SWAP1 POP JUMP JUMPDEST PUSH2 0xFCB DUP2 PUSH2 0xFB1 JUMP JUMPDEST DUP3 MSTORE POP POP JUMP JUMPDEST PUSH0 PUSH1 0x20 DUP3 ADD SWAP1 POP PUSH2 0xFE4 PUSH0 DUP4 ADD DUP5 PUSH2 0xFC2 JUMP JUMPDEST SWAP3 SWAP2 POP POP JUMP JUMPDEST PUSH0 DUP2 MLOAD SWAP1 POP SWAP2 SWAP1 POP JUMP JUMPDEST PUSH0 DUP2 SWAP1 POP SWAP3 SWAP2 POP POP JUMP JUMPDEST PUSH0 JUMPDEST DUP4 DUP2 LT ISZERO PUSH2 0x101B JUMPI DUP1 DUP3 ADD MLOAD DUP2 DUP5 ADD MSTORE PUSH1 0x20 DUP2 ADD SWAP1 POP PUSH2 0x1000 JUMP JUMPDEST PUSH0 DUP5 DUP5 ADD MSTORE POP POP POP POP JUMP JUMPDEST PUSH0 PUSH2 0x1030 DUP3 PUSH2 0xFEA JUMP JUMPDEST PUSH2 0x103A DUP2 DUP6 PUSH2 0xFF4 JUMP JUMPDEST SWAP4 POP PUSH2 0x104A DUP2 DUP6 PUSH1 0x20 DUP7 ADD PUSH2 0xFFE JUMP JUMPDEST DUP1 DUP5 ADD SWAP2 POP POP SWAP3 SWAP2 POP POP JUMP JUMPDEST PUSH0 PUSH2 0x1061 DUP3 DUP5 PUSH2 0x1026 JUMP JUMPDEST SWAP2 POP DUP2 SWAP1 POP SWAP3 SWAP2 POP POP JUMP JUMPDEST PUSH32 0x4E487B7100000000000000000000000000000000000000000000000000000000 PUSH0 MSTORE PUSH1 0x11 PUSH1 0x4 MSTORE PUSH1 0x24 PUSH0 REVERT JUMPDEST PUSH0 PUSH2 0x10A3 DUP3 PUSH2 0xD74 JUMP JUMPDEST SWAP2 POP PUSH32 0xFFFFFFFFFFFFFFFFFFFFFFFFFFFFFFFFFFFFFFFFFFFFFFFFFFFFFFFFFFFFFFFF DUP3 SUB PUSH2 0x10D5 JUMPI PUSH2 0x10D4 PUSH2 0x106C JUMP JUMPDEST JUMPDEST PUSH1 0x1 DUP3 ADD SWAP1 POP SWAP2 SWAP1 POP JUMP JUMPDEST PUSH0 DUP3 DUP3 MSTORE PUSH1 0x20 DUP3 ADD SWAP1 POP SWAP3 SWAP2 POP POP JUMP JUMPDEST PUSH32 0x496E76616C69642063686F696365000000000000000000000000000000000000 PUSH0 DUP3 ADD MSTORE POP JUMP JUMPDEST PUSH0 PUSH2 0x1124 PUSH1 0xE DUP4 PUSH2 0x10E0 JUMP JUMPDEST SWAP2 POP PUSH2 0x112F DUP3 PUSH2 0x10F0 JUMP JUMPDEST PUSH1 0x20 DUP3 ADD SWAP1 POP SWAP2 SWAP1 POP JUMP JUMPDEST PUSH0 PUSH1 0x20 DUP3 ADD SWAP1 POP DUP2 DUP2 SUB PUSH0 DUP4 ADD MSTORE PUSH2 0x1151 DUP2 PUSH2 0x1118 JUMP JUMPDEST SWAP1 POP SWAP2 SWAP1 POP JUMP JUMPDEST PUSH0 PUSH2 0x1162 DUP3 PUSH2 0xD74 JUMP JUMPDEST SWAP2 POP PUSH0 DUP3 SUB PUSH2 0x1174 JUMPI PUSH2 0x1173 PUSH2 0x106C JUMP JUMPDEST JUMPDEST PUSH1 0x1 DUP3 SUB SWAP1 POP SWAP2 SWAP1 POP JUMP INVALID LOG2 PUSH5 0x6970667358 0x22 SLT KECCAK256 0xEA 0x2A XOR PUSH18 0x349952C556BDD2F91D0B8EDA8794652A36F9 INVALID 0xD0 0xCA 0xCC 0xBA TIMESTAMP STOP PUSH8 0x227164736F6C6343 STOP ADDMOD XOR STOP CALLER "
		},
		"gasEstimates": {
			"creation": {
				"codeDepositCost": "906600",
				"executionCost": "infinite",
				"totalCost": "infinite"
			},
			"external": {
				"NFTtokenIdMapping(address,string)": "infinite",
				"balance(address,string)": "infinite",
				"getIncentive(string,address)": "infinite",
				"getInventory(address,string)": "infinite",
				"getMinParticipationVotesRequired(string)": "infinite",
				"getTokenID(address,string)": "infinite",
				"gymMembershipNFT()": "infinite",
				"gymMembershipTokenCounter()": "2469",
				"minParticipationVotes(string)": "infinite",
				"owner()": "2572",
				"parkingPassNFT()": "infinite",
				"parkingPassTokenCounter()": "2513",
				"poolAccessNFT()": "infinite",
				"poolAccessTokenCounter()": "2492",
				"setInventory(address,string,uint256)": "infinite",
				"setMinParticipationVotesRequired(string,uint256)": "infinite"
			}
		},
		"methodIdentifiers": {
			"NFTtokenIdMapping(address,string)": "1a9396a6",
			"balance(address,string)": "16cadeab",
			"getIncentive(string,address)": "03ce30e7",
			"getInventory(address,string)": "13fa9b23",
			"getMinParticipationVotesRequired(string)": "98f9efd9",
			"getTokenID(address,string)": "07f0ad23",
			"gymMembershipNFT()": "ccffb0fd",
			"gymMembershipTokenCounter()": "c9083826",
			"minParticipationVotes(string)": "5257832b",
			"owner()": "8da5cb5b",
			"parkingPassNFT()": "2e49a744",
			"parkingPassTokenCounter()": "e810aa21",
			"poolAccessNFT()": "685e2230",
			"poolAccessTokenCounter()": "3a1d1ea6",
			"setInventory(address,string,uint256)": "b008c7e6",
			"setMinParticipationVotesRequired(string,uint256)": "41a8eb8f"
		}
	},
	"abi": [
		{
			"inputs": [
				{
					"internalType": "address",
					"name": "_GymMembershipNFTAddress",
					"type": "address"
				},
				{
					"internalType": "address",
					"name": "_PoolAccessNFTAddress",
					"type": "address"
				},
				{
					"internalType": "address",
					"name": "_ParkingPassNFTAddress",
					"type": "address"
				}
			],
			"stateMutability": "nonpayable",
			"type": "constructor"
		},
		{
			"inputs": [
				{
					"internalType": "address",
					"name": "",
					"type": "address"
				},
				{
					"internalType": "string",
					"name": "",
					"type": "string"
				}
			],
			"name": "NFTtokenIdMapping",
			"outputs": [
				{
					"internalType": "uint256",
					"name": "",
					"type": "uint256"
				}
			],
			"stateMutability": "view",
			"type": "function"
		},
		{
			"inputs": [
				{
					"internalType": "address",
					"name": "",
					"type": "address"
				},
				{
					"internalType": "string",
					"name": "",
					"type": "string"
				}
			],
			"name": "balance",
			"outputs": [
				{
					"internalType": "uint256",
					"name": "",
					"type": "uint256"
				}
			],
			"stateMutability": "view",
			"type": "function"
		},
		{
			"inputs": [
				{
					"internalType": "string",
					"name": "incentive",
					"type": "string"
				},
				{
					"internalType": "address",
					"name": "participant",
					"type": "address"
				}
			],
			"name": "getIncentive",
			"outputs": [],
			"stateMutability": "nonpayable",
			"type": "function"
		},
		{
			"inputs": [
				{
					"internalType": "address",
					"name": "_address",
					"type": "address"
				},
				{
					"internalType": "string",
					"name": "_item",
					"type": "string"
				}
			],
			"name": "getInventory",
			"outputs": [
				{
					"internalType": "uint256",
					"name": "",
					"type": "uint256"
				}
			],
			"stateMutability": "view",
			"type": "function"
		},
		{
			"inputs": [
				{
					"internalType": "string",
					"name": "_item",
					"type": "string"
				}
			],
			"name": "getMinParticipationVotesRequired",
			"outputs": [
				{
					"internalType": "uint256",
					"name": "",
					"type": "uint256"
				}
			],
			"stateMutability": "view",
			"type": "function"
		},
		{
			"inputs": [
				{
					"internalType": "address",
					"name": "participant",
					"type": "address"
				},
				{
					"internalType": "string",
					"name": "incentive",
					"type": "string"
				}
			],
			"name": "getTokenID",
			"outputs": [
				{
					"internalType": "uint256",
					"name": "",
					"type": "uint256"
				}
			],
			"stateMutability": "view",
			"type": "function"
		},
		{
			"inputs": [],
			"name": "gymMembershipNFT",
			"outputs": [
				{
					"internalType": "contract GymMembershipNFT",
					"name": "",
					"type": "address"
				}
			],
			"stateMutability": "view",
			"type": "function"
		},
		{
			"inputs": [],
			"name": "gymMembershipTokenCounter",
			"outputs": [
				{
					"internalType": "uint256",
					"name": "",
					"type": "uint256"
				}
			],
			"stateMutability": "view",
			"type": "function"
		},
		{
			"inputs": [
				{
					"internalType": "string",
					"name": "",
					"type": "string"
				}
			],
			"name": "minParticipationVotes",
			"outputs": [
				{
					"internalType": "uint256",
					"name": "",
					"type": "uint256"
				}
			],
			"stateMutability": "view",
			"type": "function"
		},
		{
			"inputs": [],
			"name": "owner",
			"outputs": [
				{
					"internalType": "address",
					"name": "",
					"type": "address"
				}
			],
			"stateMutability": "view",
			"type": "function"
		},
		{
			"inputs": [],
			"name": "parkingPassNFT",
			"outputs": [
				{
					"internalType": "contract ParkingPassNFT",
					"name": "",
					"type": "address"
				}
			],
			"stateMutability": "view",
			"type": "function"
		},
		{
			"inputs": [],
			"name": "parkingPassTokenCounter",
			"outputs": [
				{
					"internalType": "uint256",
					"name": "",
					"type": "uint256"
				}
			],
			"stateMutability": "view",
			"type": "function"
		},
		{
			"inputs": [],
			"name": "poolAccessNFT",
			"outputs": [
				{
					"internalType": "contract PoolAccessNFT",
					"name": "",
					"type": "address"
				}
			],
			"stateMutability": "view",
			"type": "function"
		},
		{
			"inputs": [],
			"name": "poolAccessTokenCounter",
			"outputs": [
				{
					"internalType": "uint256",
					"name": "",
					"type": "uint256"
				}
			],
			"stateMutability": "view",
			"type": "function"
		},
		{
			"inputs": [
				{
					"internalType": "address",
					"name": "_address",
					"type": "address"
				},
				{
					"internalType": "string",
					"name": "_item",
					"type": "string"
				},
				{
					"internalType": "uint256",
					"name": "_quantity",
					"type": "uint256"
				}
			],
			"name": "setInventory",
			"outputs": [],
			"stateMutability": "nonpayable",
			"type": "function"
		},
		{
			"inputs": [
				{
					"internalType": "string",
					"name": "_item",
					"type": "string"
				},
				{
					"internalType": "uint256",
					"name": "_quantity",
					"type": "uint256"
				}
			],
			"name": "setMinParticipationVotesRequired",
			"outputs": [],
			"stateMutability": "nonpayable",
			"type": "function"
		}
	]
}