{
	"data": {
		"bytecode": {
			"linkReferences": {},
			"object": "608060405234801562000010575f80fd5b50335f806101000a81548173ffffffffffffffffffffffffffffffffffffffff021916908373ffffffffffffffffffffffffffffffffffffffff16021790555062000099306040518060400160405280600a81526020017f506f6f6c205461626c6500000000000000000000000000000000000000000000815250600a6200013160201b60201c565b620000e2306040518060400160405280601281526020017f5461626c652054656e6e6973205461626c650000000000000000000000000000815250600a6200013160201b60201c565b6200012b306040518060400160405280600f81526020017f466f6f732042616c6c205461626c650000000000000000000000000000000000815250600a6200013160201b60201c565b62000222565b8060025f8573ffffffffffffffffffffffffffffffffffffffff1673ffffffffffffffffffffffffffffffffffffffff1681526020019081526020015f20836040516200017f91906200020a565b908152602001604051809103902081905550505050565b5f81519050919050565b5f81905092915050565b5f5b83811015620001c9578082015181840152602081019050620001ac565b5f8484015250505050565b5f620001e08262000196565b620001ec8185620001a0565b9350620001fe818560208601620001aa565b80840191505092915050565b5f620002178284620001d4565b915081905092915050565b610e1a80620002305f395ff3fe608060405260043610610090575f3560e01c80638da5cb5b116100585780638da5cb5b1461018e5780639d76ea58146101b8578063b008c7e6146101e2578063b33909111461020a578063c386f5e91461023457610090565b806313fa9b23146100945780632616add5146100d05780632cde4c50146100fa578063499553fb1461013657806359f5e0ce14610172575b5f80fd5b34801561009f575f80fd5b506100ba60048036038101906100b5919061085b565b61025e565b6040516100c791906108cd565b60405180910390f35b3480156100db575f80fd5b506100e46102c1565b6040516100f191906108cd565b60405180910390f35b348015610105575f80fd5b50610120600480360381019061011b91906108e6565b6102c6565b60405161012d91906108cd565b60405180910390f35b348015610141575f80fd5b5061015c6004803603810190610157919061085b565b6103be565b60405161016991906108cd565b60405180910390f35b61018c600480360381019061018791906108e6565b6103f6565b005b348015610199575f80fd5b506101a26105d8565b6040516101af919061093c565b60405180910390f35b3480156101c3575f80fd5b506101cc6105fb565b6040516101d9919061093c565b60405180910390f35b3480156101ed575f80fd5b506102086004803603810190610203919061097f565b610620565b005b348015610215575f80fd5b5061021e610683565b60405161022b91906108cd565b60405180910390f35b34801561023f575f80fd5b50610248610688565b60405161025591906108cd565b60405180910390f35b5f60025f8473ffffffffffffffffffffffffffffffffffffffff1673ffffffffffffffffffffffffffffffffffffffff1681526020019081526020015f20826040516102aa9190610a57565b908152602001604051809103902054905092915050565b600281565b5f80610307836040518060400160405280600a81526020017f506f6f6c205461626c650000000000000000000000000000000000000000000081525061068d565b1561031557600290506103b5565b610354836040518060400160405280601281526020017f5461626c652054656e6e6973205461626c65000000000000000000000000000081525061068d565b1561036257600490506103b4565b6103a1836040518060400160405280600f81526020017f466f6f732042616c6c205461626c65000000000000000000000000000000000081525061068d565b156103af57600690506103b3565b5f90505b5b5b80915050919050565b6002602052815f5260405f20818051602081018201805184825260208301602085012081835280955050505050505f91509150505481565b5f610400826102c6565b90506003600a6104109190610bc9565b8161041b9190610c40565b34101561045d576040517f08c379a000000000000000000000000000000000000000000000000000000000815260040161045490610cf0565b60405180910390fd5b5f60025f3073ffffffffffffffffffffffffffffffffffffffff1673ffffffffffffffffffffffffffffffffffffffff1681526020019081526020015f20836040516104a99190610a57565b908152602001604051809103902054116104f8576040517f08c379a00000000000000000000000000000000000000000000000000000000081526004016104ef90610d58565b60405180910390fd5b60025f3073ffffffffffffffffffffffffffffffffffffffff1673ffffffffffffffffffffffffffffffffffffffff1681526020019081526020015f20826040516105439190610a57565b90815260200160405180910390205f81548092919061056190610d76565b919050555060025f3373ffffffffffffffffffffffffffffffffffffffff1673ffffffffffffffffffffffffffffffffffffffff1681526020019081526020015f20826040516105b19190610a57565b90815260200160405180910390205f8154809291906105cf90610d9d565b91905055505050565b5f8054906101000a900473ffffffffffffffffffffffffffffffffffffffff1681565b60015f9054906101000a900473ffffffffffffffffffffffffffffffffffffffff1681565b8060025f8573ffffffffffffffffffffffffffffffffffffffff1673ffffffffffffffffffffffffffffffffffffffff1681526020019081526020015f208360405161066c9190610a57565b908152602001604051809103902081905550505050565b600681565b600481565b5f815183511480156106ac575081805190602001208380519060200120145b905092915050565b5f604051905090565b5f80fd5b5f80fd5b5f73ffffffffffffffffffffffffffffffffffffffff82169050919050565b5f6106ee826106c5565b9050919050565b6106fe816106e4565b8114610708575f80fd5b50565b5f81359050610719816106f5565b92915050565b5f80fd5b5f80fd5b5f601f19601f8301169050919050565b7f4e487b71000000000000000000000000000000000000000000000000000000005f52604160045260245ffd5b61076d82610727565b810181811067ffffffffffffffff8211171561078c5761078b610737565b5b80604052505050565b5f61079e6106b4565b90506107aa8282610764565b919050565b5f67ffffffffffffffff8211156107c9576107c8610737565b5b6107d282610727565b9050602081019050919050565b828183375f83830152505050565b5f6107ff6107fa846107af565b610795565b90508281526020810184848401111561081b5761081a610723565b5b6108268482856107df565b509392505050565b5f82601f8301126108425761084161071f565b5b81356108528482602086016107ed565b91505092915050565b5f8060408385031215610871576108706106bd565b5b5f61087e8582860161070b565b925050602083013567ffffffffffffffff81111561089f5761089e6106c1565b5b6108ab8582860161082e565b9150509250929050565b5f819050919050565b6108c7816108b5565b82525050565b5f6020820190506108e05f8301846108be565b92915050565b5f602082840312156108fb576108fa6106bd565b5b5f82013567ffffffffffffffff811115610918576109176106c1565b5b6109248482850161082e565b91505092915050565b610936816106e4565b82525050565b5f60208201905061094f5f83018461092d565b92915050565b61095e816108b5565b8114610968575f80fd5b50565b5f8135905061097981610955565b92915050565b5f805f60608486031215610996576109956106bd565b5b5f6109a38682870161070b565b935050602084013567ffffffffffffffff8111156109c4576109c36106c1565b5b6109d08682870161082e565b92505060406109e18682870161096b565b9150509250925092565b5f81519050919050565b5f81905092915050565b5f5b83811015610a1c578082015181840152602081019050610a01565b5f8484015250505050565b5f610a31826109eb565b610a3b81856109f5565b9350610a4b8185602086016109ff565b80840191505092915050565b5f610a628284610a27565b915081905092915050565b7f4e487b71000000000000000000000000000000000000000000000000000000005f52601160045260245ffd5b5f8160011c9050919050565b5f808291508390505b6001851115610aef57808604811115610acb57610aca610a6d565b5b6001851615610ada5780820291505b8081029050610ae885610a9a565b9450610aaf565b94509492505050565b5f82610b075760019050610bc2565b81610b14575f9050610bc2565b8160018114610b2a5760028114610b3457610b63565b6001915050610bc2565b60ff841115610b4657610b45610a6d565b5b8360020a915084821115610b5d57610b5c610a6d565b5b50610bc2565b5060208310610133831016604e8410600b8410161715610b985782820a905083811115610b9357610b92610a6d565b5b610bc2565b610ba58484846001610aa6565b92509050818404811115610bbc57610bbb610a6d565b5b81810290505b9392505050565b5f610bd3826108b5565b9150610bde836108b5565b9250610c0b7fffffffffffffffffffffffffffffffffffffffffffffffffffffffffffffffff8484610af8565b905092915050565b7f4e487b71000000000000000000000000000000000000000000000000000000005f52601260045260245ffd5b5f610c4a826108b5565b9150610c55836108b5565b925082610c6557610c64610c13565b5b828204905092915050565b5f82825260208201905092915050565b7f496e73756666696369656e742062616c616e636520746f2070757263686173655f8201527f2074686973206974656d00000000000000000000000000000000000000000000602082015250565b5f610cda602a83610c70565b9150610ce582610c80565b604082019050919050565b5f6020820190508181035f830152610d0781610cce565b9050919050565b7f536f7272792c2074686973206974656d206973206f7574206f662073746f636b5f82015250565b5f610d42602083610c70565b9150610d4d82610d0e565b602082019050919050565b5f6020820190508181035f830152610d6f81610d36565b9050919050565b5f610d80826108b5565b91505f8203610d9257610d91610a6d565b5b600182039050919050565b5f610da7826108b5565b91507fffffffffffffffffffffffffffffffffffffffffffffffffffffffffffffffff8203610dd957610dd8610a6d565b5b60018201905091905056fea264697066735822122043054e472fab1c440231f959bf6fe57101e67d0d3c681e852171b3ed7421667864736f6c63430008180033",
			"opcodes": "PUSH1 0x80 PUSH1 0x40 MSTORE CALLVALUE DUP1 ISZERO PUSH3 0x10 JUMPI PUSH0 DUP1 REVERT JUMPDEST POP CALLER PUSH0 DUP1 PUSH2 0x100 EXP DUP2 SLOAD DUP2 PUSH20 0xFFFFFFFFFFFFFFFFFFFFFFFFFFFFFFFFFFFFFFFF MUL NOT AND SWAP1 DUP4 PUSH20 0xFFFFFFFFFFFFFFFFFFFFFFFFFFFFFFFFFFFFFFFF AND MUL OR SWAP1 SSTORE POP PUSH3 0x99 ADDRESS PUSH1 0x40 MLOAD DUP1 PUSH1 0x40 ADD PUSH1 0x40 MSTORE DUP1 PUSH1 0xA DUP2 MSTORE PUSH1 0x20 ADD PUSH32 0x506F6F6C205461626C6500000000000000000000000000000000000000000000 DUP2 MSTORE POP PUSH1 0xA PUSH3 0x131 PUSH1 0x20 SHL PUSH1 0x20 SHR JUMP JUMPDEST PUSH3 0xE2 ADDRESS PUSH1 0x40 MLOAD DUP1 PUSH1 0x40 ADD PUSH1 0x40 MSTORE DUP1 PUSH1 0x12 DUP2 MSTORE PUSH1 0x20 ADD PUSH32 0x5461626C652054656E6E6973205461626C650000000000000000000000000000 DUP2 MSTORE POP PUSH1 0xA PUSH3 0x131 PUSH1 0x20 SHL PUSH1 0x20 SHR JUMP JUMPDEST PUSH3 0x12B ADDRESS PUSH1 0x40 MLOAD DUP1 PUSH1 0x40 ADD PUSH1 0x40 MSTORE DUP1 PUSH1 0xF DUP2 MSTORE PUSH1 0x20 ADD PUSH32 0x466F6F732042616C6C205461626C650000000000000000000000000000000000 DUP2 MSTORE POP PUSH1 0xA PUSH3 0x131 PUSH1 0x20 SHL PUSH1 0x20 SHR JUMP JUMPDEST PUSH3 0x222 JUMP JUMPDEST DUP1 PUSH1 0x2 PUSH0 DUP6 PUSH20 0xFFFFFFFFFFFFFFFFFFFFFFFFFFFFFFFFFFFFFFFF AND PUSH20 0xFFFFFFFFFFFFFFFFFFFFFFFFFFFFFFFFFFFFFFFF AND DUP2 MSTORE PUSH1 0x20 ADD SWAP1 DUP2 MSTORE PUSH1 0x20 ADD PUSH0 KECCAK256 DUP4 PUSH1 0x40 MLOAD PUSH3 0x17F SWAP2 SWAP1 PUSH3 0x20A JUMP JUMPDEST SWAP1 DUP2 MSTORE PUSH1 0x20 ADD PUSH1 0x40 MLOAD DUP1 SWAP2 SUB SWAP1 KECCAK256 DUP2 SWAP1 SSTORE POP POP POP POP JUMP JUMPDEST PUSH0 DUP2 MLOAD SWAP1 POP SWAP2 SWAP1 POP JUMP JUMPDEST PUSH0 DUP2 SWAP1 POP SWAP3 SWAP2 POP POP JUMP JUMPDEST PUSH0 JUMPDEST DUP4 DUP2 LT ISZERO PUSH3 0x1C9 JUMPI DUP1 DUP3 ADD MLOAD DUP2 DUP5 ADD MSTORE PUSH1 0x20 DUP2 ADD SWAP1 POP PUSH3 0x1AC JUMP JUMPDEST PUSH0 DUP5 DUP5 ADD MSTORE POP POP POP POP JUMP JUMPDEST PUSH0 PUSH3 0x1E0 DUP3 PUSH3 0x196 JUMP JUMPDEST PUSH3 0x1EC DUP2 DUP6 PUSH3 0x1A0 JUMP JUMPDEST SWAP4 POP PUSH3 0x1FE DUP2 DUP6 PUSH1 0x20 DUP7 ADD PUSH3 0x1AA JUMP JUMPDEST DUP1 DUP5 ADD SWAP2 POP POP SWAP3 SWAP2 POP POP JUMP JUMPDEST PUSH0 PUSH3 0x217 DUP3 DUP5 PUSH3 0x1D4 JUMP JUMPDEST SWAP2 POP DUP2 SWAP1 POP SWAP3 SWAP2 POP POP JUMP JUMPDEST PUSH2 0xE1A DUP1 PUSH3 0x230 PUSH0 CODECOPY PUSH0 RETURN INVALID PUSH1 0x80 PUSH1 0x40 MSTORE PUSH1 0x4 CALLDATASIZE LT PUSH2 0x90 JUMPI PUSH0 CALLDATALOAD PUSH1 0xE0 SHR DUP1 PUSH4 0x8DA5CB5B GT PUSH2 0x58 JUMPI DUP1 PUSH4 0x8DA5CB5B EQ PUSH2 0x18E JUMPI DUP1 PUSH4 0x9D76EA58 EQ PUSH2 0x1B8 JUMPI DUP1 PUSH4 0xB008C7E6 EQ PUSH2 0x1E2 JUMPI DUP1 PUSH4 0xB3390911 EQ PUSH2 0x20A JUMPI DUP1 PUSH4 0xC386F5E9 EQ PUSH2 0x234 JUMPI PUSH2 0x90 JUMP JUMPDEST DUP1 PUSH4 0x13FA9B23 EQ PUSH2 0x94 JUMPI DUP1 PUSH4 0x2616ADD5 EQ PUSH2 0xD0 JUMPI DUP1 PUSH4 0x2CDE4C50 EQ PUSH2 0xFA JUMPI DUP1 PUSH4 0x499553FB EQ PUSH2 0x136 JUMPI DUP1 PUSH4 0x59F5E0CE EQ PUSH2 0x172 JUMPI JUMPDEST PUSH0 DUP1 REVERT JUMPDEST CALLVALUE DUP1 ISZERO PUSH2 0x9F JUMPI PUSH0 DUP1 REVERT JUMPDEST POP PUSH2 0xBA PUSH1 0x4 DUP1 CALLDATASIZE SUB DUP2 ADD SWAP1 PUSH2 0xB5 SWAP2 SWAP1 PUSH2 0x85B JUMP JUMPDEST PUSH2 0x25E JUMP JUMPDEST PUSH1 0x40 MLOAD PUSH2 0xC7 SWAP2 SWAP1 PUSH2 0x8CD JUMP JUMPDEST PUSH1 0x40 MLOAD DUP1 SWAP2 SUB SWAP1 RETURN JUMPDEST CALLVALUE DUP1 ISZERO PUSH2 0xDB JUMPI PUSH0 DUP1 REVERT JUMPDEST POP PUSH2 0xE4 PUSH2 0x2C1 JUMP JUMPDEST PUSH1 0x40 MLOAD PUSH2 0xF1 SWAP2 SWAP1 PUSH2 0x8CD JUMP JUMPDEST PUSH1 0x40 MLOAD DUP1 SWAP2 SUB SWAP1 RETURN JUMPDEST CALLVALUE DUP1 ISZERO PUSH2 0x105 JUMPI PUSH0 DUP1 REVERT JUMPDEST POP PUSH2 0x120 PUSH1 0x4 DUP1 CALLDATASIZE SUB DUP2 ADD SWAP1 PUSH2 0x11B SWAP2 SWAP1 PUSH2 0x8E6 JUMP JUMPDEST PUSH2 0x2C6 JUMP JUMPDEST PUSH1 0x40 MLOAD PUSH2 0x12D SWAP2 SWAP1 PUSH2 0x8CD JUMP JUMPDEST PUSH1 0x40 MLOAD DUP1 SWAP2 SUB SWAP1 RETURN JUMPDEST CALLVALUE DUP1 ISZERO PUSH2 0x141 JUMPI PUSH0 DUP1 REVERT JUMPDEST POP PUSH2 0x15C PUSH1 0x4 DUP1 CALLDATASIZE SUB DUP2 ADD SWAP1 PUSH2 0x157 SWAP2 SWAP1 PUSH2 0x85B JUMP JUMPDEST PUSH2 0x3BE JUMP JUMPDEST PUSH1 0x40 MLOAD PUSH2 0x169 SWAP2 SWAP1 PUSH2 0x8CD JUMP JUMPDEST PUSH1 0x40 MLOAD DUP1 SWAP2 SUB SWAP1 RETURN JUMPDEST PUSH2 0x18C PUSH1 0x4 DUP1 CALLDATASIZE SUB DUP2 ADD SWAP1 PUSH2 0x187 SWAP2 SWAP1 PUSH2 0x8E6 JUMP JUMPDEST PUSH2 0x3F6 JUMP JUMPDEST STOP JUMPDEST CALLVALUE DUP1 ISZERO PUSH2 0x199 JUMPI PUSH0 DUP1 REVERT JUMPDEST POP PUSH2 0x1A2 PUSH2 0x5D8 JUMP JUMPDEST PUSH1 0x40 MLOAD PUSH2 0x1AF SWAP2 SWAP1 PUSH2 0x93C JUMP JUMPDEST PUSH1 0x40 MLOAD DUP1 SWAP2 SUB SWAP1 RETURN JUMPDEST CALLVALUE DUP1 ISZERO PUSH2 0x1C3 JUMPI PUSH0 DUP1 REVERT JUMPDEST POP PUSH2 0x1CC PUSH2 0x5FB JUMP JUMPDEST PUSH1 0x40 MLOAD PUSH2 0x1D9 SWAP2 SWAP1 PUSH2 0x93C JUMP JUMPDEST PUSH1 0x40 MLOAD DUP1 SWAP2 SUB SWAP1 RETURN JUMPDEST CALLVALUE DUP1 ISZERO PUSH2 0x1ED JUMPI PUSH0 DUP1 REVERT JUMPDEST POP PUSH2 0x208 PUSH1 0x4 DUP1 CALLDATASIZE SUB DUP2 ADD SWAP1 PUSH2 0x203 SWAP2 SWAP1 PUSH2 0x97F JUMP JUMPDEST PUSH2 0x620 JUMP JUMPDEST STOP JUMPDEST CALLVALUE DUP1 ISZERO PUSH2 0x215 JUMPI PUSH0 DUP1 REVERT JUMPDEST POP PUSH2 0x21E PUSH2 0x683 JUMP JUMPDEST PUSH1 0x40 MLOAD PUSH2 0x22B SWAP2 SWAP1 PUSH2 0x8CD JUMP JUMPDEST PUSH1 0x40 MLOAD DUP1 SWAP2 SUB SWAP1 RETURN JUMPDEST CALLVALUE DUP1 ISZERO PUSH2 0x23F JUMPI PUSH0 DUP1 REVERT JUMPDEST POP PUSH2 0x248 PUSH2 0x688 JUMP JUMPDEST PUSH1 0x40 MLOAD PUSH2 0x255 SWAP2 SWAP1 PUSH2 0x8CD JUMP JUMPDEST PUSH1 0x40 MLOAD DUP1 SWAP2 SUB SWAP1 RETURN JUMPDEST PUSH0 PUSH1 0x2 PUSH0 DUP5 PUSH20 0xFFFFFFFFFFFFFFFFFFFFFFFFFFFFFFFFFFFFFFFF AND PUSH20 0xFFFFFFFFFFFFFFFFFFFFFFFFFFFFFFFFFFFFFFFF AND DUP2 MSTORE PUSH1 0x20 ADD SWAP1 DUP2 MSTORE PUSH1 0x20 ADD PUSH0 KECCAK256 DUP3 PUSH1 0x40 MLOAD PUSH2 0x2AA SWAP2 SWAP1 PUSH2 0xA57 JUMP JUMPDEST SWAP1 DUP2 MSTORE PUSH1 0x20 ADD PUSH1 0x40 MLOAD DUP1 SWAP2 SUB SWAP1 KECCAK256 SLOAD SWAP1 POP SWAP3 SWAP2 POP POP JUMP JUMPDEST PUSH1 0x2 DUP2 JUMP JUMPDEST PUSH0 DUP1 PUSH2 0x307 DUP4 PUSH1 0x40 MLOAD DUP1 PUSH1 0x40 ADD PUSH1 0x40 MSTORE DUP1 PUSH1 0xA DUP2 MSTORE PUSH1 0x20 ADD PUSH32 0x506F6F6C205461626C6500000000000000000000000000000000000000000000 DUP2 MSTORE POP PUSH2 0x68D JUMP JUMPDEST ISZERO PUSH2 0x315 JUMPI PUSH1 0x2 SWAP1 POP PUSH2 0x3B5 JUMP JUMPDEST PUSH2 0x354 DUP4 PUSH1 0x40 MLOAD DUP1 PUSH1 0x40 ADD PUSH1 0x40 MSTORE DUP1 PUSH1 0x12 DUP2 MSTORE PUSH1 0x20 ADD PUSH32 0x5461626C652054656E6E6973205461626C650000000000000000000000000000 DUP2 MSTORE POP PUSH2 0x68D JUMP JUMPDEST ISZERO PUSH2 0x362 JUMPI PUSH1 0x4 SWAP1 POP PUSH2 0x3B4 JUMP JUMPDEST PUSH2 0x3A1 DUP4 PUSH1 0x40 MLOAD DUP1 PUSH1 0x40 ADD PUSH1 0x40 MSTORE DUP1 PUSH1 0xF DUP2 MSTORE PUSH1 0x20 ADD PUSH32 0x466F6F732042616C6C205461626C650000000000000000000000000000000000 DUP2 MSTORE POP PUSH2 0x68D JUMP JUMPDEST ISZERO PUSH2 0x3AF JUMPI PUSH1 0x6 SWAP1 POP PUSH2 0x3B3 JUMP JUMPDEST PUSH0 SWAP1 POP JUMPDEST JUMPDEST JUMPDEST DUP1 SWAP2 POP POP SWAP2 SWAP1 POP JUMP JUMPDEST PUSH1 0x2 PUSH1 0x20 MSTORE DUP2 PUSH0 MSTORE PUSH1 0x40 PUSH0 KECCAK256 DUP2 DUP1 MLOAD PUSH1 0x20 DUP2 ADD DUP3 ADD DUP1 MLOAD DUP5 DUP3 MSTORE PUSH1 0x20 DUP4 ADD PUSH1 0x20 DUP6 ADD KECCAK256 DUP2 DUP4 MSTORE DUP1 SWAP6 POP POP POP POP POP POP PUSH0 SWAP2 POP SWAP2 POP POP SLOAD DUP2 JUMP JUMPDEST PUSH0 PUSH2 0x400 DUP3 PUSH2 0x2C6 JUMP JUMPDEST SWAP1 POP PUSH1 0x3 PUSH1 0xA PUSH2 0x410 SWAP2 SWAP1 PUSH2 0xBC9 JUMP JUMPDEST DUP2 PUSH2 0x41B SWAP2 SWAP1 PUSH2 0xC40 JUMP JUMPDEST CALLVALUE LT ISZERO PUSH2 0x45D JUMPI PUSH1 0x40 MLOAD PUSH32 0x8C379A000000000000000000000000000000000000000000000000000000000 DUP2 MSTORE PUSH1 0x4 ADD PUSH2 0x454 SWAP1 PUSH2 0xCF0 JUMP JUMPDEST PUSH1 0x40 MLOAD DUP1 SWAP2 SUB SWAP1 REVERT JUMPDEST PUSH0 PUSH1 0x2 PUSH0 ADDRESS PUSH20 0xFFFFFFFFFFFFFFFFFFFFFFFFFFFFFFFFFFFFFFFF AND PUSH20 0xFFFFFFFFFFFFFFFFFFFFFFFFFFFFFFFFFFFFFFFF AND DUP2 MSTORE PUSH1 0x20 ADD SWAP1 DUP2 MSTORE PUSH1 0x20 ADD PUSH0 KECCAK256 DUP4 PUSH1 0x40 MLOAD PUSH2 0x4A9 SWAP2 SWAP1 PUSH2 0xA57 JUMP JUMPDEST SWAP1 DUP2 MSTORE PUSH1 0x20 ADD PUSH1 0x40 MLOAD DUP1 SWAP2 SUB SWAP1 KECCAK256 SLOAD GT PUSH2 0x4F8 JUMPI PUSH1 0x40 MLOAD PUSH32 0x8C379A000000000000000000000000000000000000000000000000000000000 DUP2 MSTORE PUSH1 0x4 ADD PUSH2 0x4EF SWAP1 PUSH2 0xD58 JUMP JUMPDEST PUSH1 0x40 MLOAD DUP1 SWAP2 SUB SWAP1 REVERT JUMPDEST PUSH1 0x2 PUSH0 ADDRESS PUSH20 0xFFFFFFFFFFFFFFFFFFFFFFFFFFFFFFFFFFFFFFFF AND PUSH20 0xFFFFFFFFFFFFFFFFFFFFFFFFFFFFFFFFFFFFFFFF AND DUP2 MSTORE PUSH1 0x20 ADD SWAP1 DUP2 MSTORE PUSH1 0x20 ADD PUSH0 KECCAK256 DUP3 PUSH1 0x40 MLOAD PUSH2 0x543 SWAP2 SWAP1 PUSH2 0xA57 JUMP JUMPDEST SWAP1 DUP2 MSTORE PUSH1 0x20 ADD PUSH1 0x40 MLOAD DUP1 SWAP2 SUB SWAP1 KECCAK256 PUSH0 DUP2 SLOAD DUP1 SWAP3 SWAP2 SWAP1 PUSH2 0x561 SWAP1 PUSH2 0xD76 JUMP JUMPDEST SWAP2 SWAP1 POP SSTORE POP PUSH1 0x2 PUSH0 CALLER PUSH20 0xFFFFFFFFFFFFFFFFFFFFFFFFFFFFFFFFFFFFFFFF AND PUSH20 0xFFFFFFFFFFFFFFFFFFFFFFFFFFFFFFFFFFFFFFFF AND DUP2 MSTORE PUSH1 0x20 ADD SWAP1 DUP2 MSTORE PUSH1 0x20 ADD PUSH0 KECCAK256 DUP3 PUSH1 0x40 MLOAD PUSH2 0x5B1 SWAP2 SWAP1 PUSH2 0xA57 JUMP JUMPDEST SWAP1 DUP2 MSTORE PUSH1 0x20 ADD PUSH1 0x40 MLOAD DUP1 SWAP2 SUB SWAP1 KECCAK256 PUSH0 DUP2 SLOAD DUP1 SWAP3 SWAP2 SWAP1 PUSH2 0x5CF SWAP1 PUSH2 0xD9D JUMP JUMPDEST SWAP2 SWAP1 POP SSTORE POP POP POP JUMP JUMPDEST PUSH0 DUP1 SLOAD SWAP1 PUSH2 0x100 EXP SWAP1 DIV PUSH20 0xFFFFFFFFFFFFFFFFFFFFFFFFFFFFFFFFFFFFFFFF AND DUP2 JUMP JUMPDEST PUSH1 0x1 PUSH0 SWAP1 SLOAD SWAP1 PUSH2 0x100 EXP SWAP1 DIV PUSH20 0xFFFFFFFFFFFFFFFFFFFFFFFFFFFFFFFFFFFFFFFF AND DUP2 JUMP JUMPDEST DUP1 PUSH1 0x2 PUSH0 DUP6 PUSH20 0xFFFFFFFFFFFFFFFFFFFFFFFFFFFFFFFFFFFFFFFF AND PUSH20 0xFFFFFFFFFFFFFFFFFFFFFFFFFFFFFFFFFFFFFFFF AND DUP2 MSTORE PUSH1 0x20 ADD SWAP1 DUP2 MSTORE PUSH1 0x20 ADD PUSH0 KECCAK256 DUP4 PUSH1 0x40 MLOAD PUSH2 0x66C SWAP2 SWAP1 PUSH2 0xA57 JUMP JUMPDEST SWAP1 DUP2 MSTORE PUSH1 0x20 ADD PUSH1 0x40 MLOAD DUP1 SWAP2 SUB SWAP1 KECCAK256 DUP2 SWAP1 SSTORE POP POP POP POP JUMP JUMPDEST PUSH1 0x6 DUP2 JUMP JUMPDEST PUSH1 0x4 DUP2 JUMP JUMPDEST PUSH0 DUP2 MLOAD DUP4 MLOAD EQ DUP1 ISZERO PUSH2 0x6AC JUMPI POP DUP2 DUP1 MLOAD SWAP1 PUSH1 0x20 ADD KECCAK256 DUP4 DUP1 MLOAD SWAP1 PUSH1 0x20 ADD KECCAK256 EQ JUMPDEST SWAP1 POP SWAP3 SWAP2 POP POP JUMP JUMPDEST PUSH0 PUSH1 0x40 MLOAD SWAP1 POP SWAP1 JUMP JUMPDEST PUSH0 DUP1 REVERT JUMPDEST PUSH0 DUP1 REVERT JUMPDEST PUSH0 PUSH20 0xFFFFFFFFFFFFFFFFFFFFFFFFFFFFFFFFFFFFFFFF DUP3 AND SWAP1 POP SWAP2 SWAP1 POP JUMP JUMPDEST PUSH0 PUSH2 0x6EE DUP3 PUSH2 0x6C5 JUMP JUMPDEST SWAP1 POP SWAP2 SWAP1 POP JUMP JUMPDEST PUSH2 0x6FE DUP2 PUSH2 0x6E4 JUMP JUMPDEST DUP2 EQ PUSH2 0x708 JUMPI PUSH0 DUP1 REVERT JUMPDEST POP JUMP JUMPDEST PUSH0 DUP2 CALLDATALOAD SWAP1 POP PUSH2 0x719 DUP2 PUSH2 0x6F5 JUMP JUMPDEST SWAP3 SWAP2 POP POP JUMP JUMPDEST PUSH0 DUP1 REVERT JUMPDEST PUSH0 DUP1 REVERT JUMPDEST PUSH0 PUSH1 0x1F NOT PUSH1 0x1F DUP4 ADD AND SWAP1 POP SWAP2 SWAP1 POP JUMP JUMPDEST PUSH32 0x4E487B7100000000000000000000000000000000000000000000000000000000 PUSH0 MSTORE PUSH1 0x41 PUSH1 0x4 MSTORE PUSH1 0x24 PUSH0 REVERT JUMPDEST PUSH2 0x76D DUP3 PUSH2 0x727 JUMP JUMPDEST DUP2 ADD DUP2 DUP2 LT PUSH8 0xFFFFFFFFFFFFFFFF DUP3 GT OR ISZERO PUSH2 0x78C JUMPI PUSH2 0x78B PUSH2 0x737 JUMP JUMPDEST JUMPDEST DUP1 PUSH1 0x40 MSTORE POP POP POP JUMP JUMPDEST PUSH0 PUSH2 0x79E PUSH2 0x6B4 JUMP JUMPDEST SWAP1 POP PUSH2 0x7AA DUP3 DUP3 PUSH2 0x764 JUMP JUMPDEST SWAP2 SWAP1 POP JUMP JUMPDEST PUSH0 PUSH8 0xFFFFFFFFFFFFFFFF DUP3 GT ISZERO PUSH2 0x7C9 JUMPI PUSH2 0x7C8 PUSH2 0x737 JUMP JUMPDEST JUMPDEST PUSH2 0x7D2 DUP3 PUSH2 0x727 JUMP JUMPDEST SWAP1 POP PUSH1 0x20 DUP2 ADD SWAP1 POP SWAP2 SWAP1 POP JUMP JUMPDEST DUP3 DUP2 DUP4 CALLDATACOPY PUSH0 DUP4 DUP4 ADD MSTORE POP POP POP JUMP JUMPDEST PUSH0 PUSH2 0x7FF PUSH2 0x7FA DUP5 PUSH2 0x7AF JUMP JUMPDEST PUSH2 0x795 JUMP JUMPDEST SWAP1 POP DUP3 DUP2 MSTORE PUSH1 0x20 DUP2 ADD DUP5 DUP5 DUP5 ADD GT ISZERO PUSH2 0x81B JUMPI PUSH2 0x81A PUSH2 0x723 JUMP JUMPDEST JUMPDEST PUSH2 0x826 DUP5 DUP3 DUP6 PUSH2 0x7DF JUMP JUMPDEST POP SWAP4 SWAP3 POP POP POP JUMP JUMPDEST PUSH0 DUP3 PUSH1 0x1F DUP4 ADD SLT PUSH2 0x842 JUMPI PUSH2 0x841 PUSH2 0x71F JUMP JUMPDEST JUMPDEST DUP2 CALLDATALOAD PUSH2 0x852 DUP5 DUP3 PUSH1 0x20 DUP7 ADD PUSH2 0x7ED JUMP JUMPDEST SWAP2 POP POP SWAP3 SWAP2 POP POP JUMP JUMPDEST PUSH0 DUP1 PUSH1 0x40 DUP4 DUP6 SUB SLT ISZERO PUSH2 0x871 JUMPI PUSH2 0x870 PUSH2 0x6BD JUMP JUMPDEST JUMPDEST PUSH0 PUSH2 0x87E DUP6 DUP3 DUP7 ADD PUSH2 0x70B JUMP JUMPDEST SWAP3 POP POP PUSH1 0x20 DUP4 ADD CALLDATALOAD PUSH8 0xFFFFFFFFFFFFFFFF DUP2 GT ISZERO PUSH2 0x89F JUMPI PUSH2 0x89E PUSH2 0x6C1 JUMP JUMPDEST JUMPDEST PUSH2 0x8AB DUP6 DUP3 DUP7 ADD PUSH2 0x82E JUMP JUMPDEST SWAP2 POP POP SWAP3 POP SWAP3 SWAP1 POP JUMP JUMPDEST PUSH0 DUP2 SWAP1 POP SWAP2 SWAP1 POP JUMP JUMPDEST PUSH2 0x8C7 DUP2 PUSH2 0x8B5 JUMP JUMPDEST DUP3 MSTORE POP POP JUMP JUMPDEST PUSH0 PUSH1 0x20 DUP3 ADD SWAP1 POP PUSH2 0x8E0 PUSH0 DUP4 ADD DUP5 PUSH2 0x8BE JUMP JUMPDEST SWAP3 SWAP2 POP POP JUMP JUMPDEST PUSH0 PUSH1 0x20 DUP3 DUP5 SUB SLT ISZERO PUSH2 0x8FB JUMPI PUSH2 0x8FA PUSH2 0x6BD JUMP JUMPDEST JUMPDEST PUSH0 DUP3 ADD CALLDATALOAD PUSH8 0xFFFFFFFFFFFFFFFF DUP2 GT ISZERO PUSH2 0x918 JUMPI PUSH2 0x917 PUSH2 0x6C1 JUMP JUMPDEST JUMPDEST PUSH2 0x924 DUP5 DUP3 DUP6 ADD PUSH2 0x82E JUMP JUMPDEST SWAP2 POP POP SWAP3 SWAP2 POP POP JUMP JUMPDEST PUSH2 0x936 DUP2 PUSH2 0x6E4 JUMP JUMPDEST DUP3 MSTORE POP POP JUMP JUMPDEST PUSH0 PUSH1 0x20 DUP3 ADD SWAP1 POP PUSH2 0x94F PUSH0 DUP4 ADD DUP5 PUSH2 0x92D JUMP JUMPDEST SWAP3 SWAP2 POP POP JUMP JUMPDEST PUSH2 0x95E DUP2 PUSH2 0x8B5 JUMP JUMPDEST DUP2 EQ PUSH2 0x968 JUMPI PUSH0 DUP1 REVERT JUMPDEST POP JUMP JUMPDEST PUSH0 DUP2 CALLDATALOAD SWAP1 POP PUSH2 0x979 DUP2 PUSH2 0x955 JUMP JUMPDEST SWAP3 SWAP2 POP POP JUMP JUMPDEST PUSH0 DUP1 PUSH0 PUSH1 0x60 DUP5 DUP7 SUB SLT ISZERO PUSH2 0x996 JUMPI PUSH2 0x995 PUSH2 0x6BD JUMP JUMPDEST JUMPDEST PUSH0 PUSH2 0x9A3 DUP7 DUP3 DUP8 ADD PUSH2 0x70B JUMP JUMPDEST SWAP4 POP POP PUSH1 0x20 DUP5 ADD CALLDATALOAD PUSH8 0xFFFFFFFFFFFFFFFF DUP2 GT ISZERO PUSH2 0x9C4 JUMPI PUSH2 0x9C3 PUSH2 0x6C1 JUMP JUMPDEST JUMPDEST PUSH2 0x9D0 DUP7 DUP3 DUP8 ADD PUSH2 0x82E JUMP JUMPDEST SWAP3 POP POP PUSH1 0x40 PUSH2 0x9E1 DUP7 DUP3 DUP8 ADD PUSH2 0x96B JUMP JUMPDEST SWAP2 POP POP SWAP3 POP SWAP3 POP SWAP3 JUMP JUMPDEST PUSH0 DUP2 MLOAD SWAP1 POP SWAP2 SWAP1 POP JUMP JUMPDEST PUSH0 DUP2 SWAP1 POP SWAP3 SWAP2 POP POP JUMP JUMPDEST PUSH0 JUMPDEST DUP4 DUP2 LT ISZERO PUSH2 0xA1C JUMPI DUP1 DUP3 ADD MLOAD DUP2 DUP5 ADD MSTORE PUSH1 0x20 DUP2 ADD SWAP1 POP PUSH2 0xA01 JUMP JUMPDEST PUSH0 DUP5 DUP5 ADD MSTORE POP POP POP POP JUMP JUMPDEST PUSH0 PUSH2 0xA31 DUP3 PUSH2 0x9EB JUMP JUMPDEST PUSH2 0xA3B DUP2 DUP6 PUSH2 0x9F5 JUMP JUMPDEST SWAP4 POP PUSH2 0xA4B DUP2 DUP6 PUSH1 0x20 DUP7 ADD PUSH2 0x9FF JUMP JUMPDEST DUP1 DUP5 ADD SWAP2 POP POP SWAP3 SWAP2 POP POP JUMP JUMPDEST PUSH0 PUSH2 0xA62 DUP3 DUP5 PUSH2 0xA27 JUMP JUMPDEST SWAP2 POP DUP2 SWAP1 POP SWAP3 SWAP2 POP POP JUMP JUMPDEST PUSH32 0x4E487B7100000000000000000000000000000000000000000000000000000000 PUSH0 MSTORE PUSH1 0x11 PUSH1 0x4 MSTORE PUSH1 0x24 PUSH0 REVERT JUMPDEST PUSH0 DUP2 PUSH1 0x1 SHR SWAP1 POP SWAP2 SWAP1 POP JUMP JUMPDEST PUSH0 DUP1 DUP3 SWAP2 POP DUP4 SWAP1 POP JUMPDEST PUSH1 0x1 DUP6 GT ISZERO PUSH2 0xAEF JUMPI DUP1 DUP7 DIV DUP2 GT ISZERO PUSH2 0xACB JUMPI PUSH2 0xACA PUSH2 0xA6D JUMP JUMPDEST JUMPDEST PUSH1 0x1 DUP6 AND ISZERO PUSH2 0xADA JUMPI DUP1 DUP3 MUL SWAP2 POP JUMPDEST DUP1 DUP2 MUL SWAP1 POP PUSH2 0xAE8 DUP6 PUSH2 0xA9A JUMP JUMPDEST SWAP5 POP PUSH2 0xAAF JUMP JUMPDEST SWAP5 POP SWAP5 SWAP3 POP POP POP JUMP JUMPDEST PUSH0 DUP3 PUSH2 0xB07 JUMPI PUSH1 0x1 SWAP1 POP PUSH2 0xBC2 JUMP JUMPDEST DUP2 PUSH2 0xB14 JUMPI PUSH0 SWAP1 POP PUSH2 0xBC2 JUMP JUMPDEST DUP2 PUSH1 0x1 DUP2 EQ PUSH2 0xB2A JUMPI PUSH1 0x2 DUP2 EQ PUSH2 0xB34 JUMPI PUSH2 0xB63 JUMP JUMPDEST PUSH1 0x1 SWAP2 POP POP PUSH2 0xBC2 JUMP JUMPDEST PUSH1 0xFF DUP5 GT ISZERO PUSH2 0xB46 JUMPI PUSH2 0xB45 PUSH2 0xA6D JUMP JUMPDEST JUMPDEST DUP4 PUSH1 0x2 EXP SWAP2 POP DUP5 DUP3 GT ISZERO PUSH2 0xB5D JUMPI PUSH2 0xB5C PUSH2 0xA6D JUMP JUMPDEST JUMPDEST POP PUSH2 0xBC2 JUMP JUMPDEST POP PUSH1 0x20 DUP4 LT PUSH2 0x133 DUP4 LT AND PUSH1 0x4E DUP5 LT PUSH1 0xB DUP5 LT AND OR ISZERO PUSH2 0xB98 JUMPI DUP3 DUP3 EXP SWAP1 POP DUP4 DUP2 GT ISZERO PUSH2 0xB93 JUMPI PUSH2 0xB92 PUSH2 0xA6D JUMP JUMPDEST JUMPDEST PUSH2 0xBC2 JUMP JUMPDEST PUSH2 0xBA5 DUP5 DUP5 DUP5 PUSH1 0x1 PUSH2 0xAA6 JUMP JUMPDEST SWAP3 POP SWAP1 POP DUP2 DUP5 DIV DUP2 GT ISZERO PUSH2 0xBBC JUMPI PUSH2 0xBBB PUSH2 0xA6D JUMP JUMPDEST JUMPDEST DUP2 DUP2 MUL SWAP1 POP JUMPDEST SWAP4 SWAP3 POP POP POP JUMP JUMPDEST PUSH0 PUSH2 0xBD3 DUP3 PUSH2 0x8B5 JUMP JUMPDEST SWAP2 POP PUSH2 0xBDE DUP4 PUSH2 0x8B5 JUMP JUMPDEST SWAP3 POP PUSH2 0xC0B PUSH32 0xFFFFFFFFFFFFFFFFFFFFFFFFFFFFFFFFFFFFFFFFFFFFFFFFFFFFFFFFFFFFFFFF DUP5 DUP5 PUSH2 0xAF8 JUMP JUMPDEST SWAP1 POP SWAP3 SWAP2 POP POP JUMP JUMPDEST PUSH32 0x4E487B7100000000000000000000000000000000000000000000000000000000 PUSH0 MSTORE PUSH1 0x12 PUSH1 0x4 MSTORE PUSH1 0x24 PUSH0 REVERT JUMPDEST PUSH0 PUSH2 0xC4A DUP3 PUSH2 0x8B5 JUMP JUMPDEST SWAP2 POP PUSH2 0xC55 DUP4 PUSH2 0x8B5 JUMP JUMPDEST SWAP3 POP DUP3 PUSH2 0xC65 JUMPI PUSH2 0xC64 PUSH2 0xC13 JUMP JUMPDEST JUMPDEST DUP3 DUP3 DIV SWAP1 POP SWAP3 SWAP2 POP POP JUMP JUMPDEST PUSH0 DUP3 DUP3 MSTORE PUSH1 0x20 DUP3 ADD SWAP1 POP SWAP3 SWAP2 POP POP JUMP JUMPDEST PUSH32 0x496E73756666696369656E742062616C616E636520746F207075726368617365 PUSH0 DUP3 ADD MSTORE PUSH32 0x2074686973206974656D00000000000000000000000000000000000000000000 PUSH1 0x20 DUP3 ADD MSTORE POP JUMP JUMPDEST PUSH0 PUSH2 0xCDA PUSH1 0x2A DUP4 PUSH2 0xC70 JUMP JUMPDEST SWAP2 POP PUSH2 0xCE5 DUP3 PUSH2 0xC80 JUMP JUMPDEST PUSH1 0x40 DUP3 ADD SWAP1 POP SWAP2 SWAP1 POP JUMP JUMPDEST PUSH0 PUSH1 0x20 DUP3 ADD SWAP1 POP DUP2 DUP2 SUB PUSH0 DUP4 ADD MSTORE PUSH2 0xD07 DUP2 PUSH2 0xCCE JUMP JUMPDEST SWAP1 POP SWAP2 SWAP1 POP JUMP JUMPDEST PUSH32 0x536F7272792C2074686973206974656D206973206F7574206F662073746F636B PUSH0 DUP3 ADD MSTORE POP JUMP JUMPDEST PUSH0 PUSH2 0xD42 PUSH1 0x20 DUP4 PUSH2 0xC70 JUMP JUMPDEST SWAP2 POP PUSH2 0xD4D DUP3 PUSH2 0xD0E JUMP JUMPDEST PUSH1 0x20 DUP3 ADD SWAP1 POP SWAP2 SWAP1 POP JUMP JUMPDEST PUSH0 PUSH1 0x20 DUP3 ADD SWAP1 POP DUP2 DUP2 SUB PUSH0 DUP4 ADD MSTORE PUSH2 0xD6F DUP2 PUSH2 0xD36 JUMP JUMPDEST SWAP1 POP SWAP2 SWAP1 POP JUMP JUMPDEST PUSH0 PUSH2 0xD80 DUP3 PUSH2 0x8B5 JUMP JUMPDEST SWAP2 POP PUSH0 DUP3 SUB PUSH2 0xD92 JUMPI PUSH2 0xD91 PUSH2 0xA6D JUMP JUMPDEST JUMPDEST PUSH1 0x1 DUP3 SUB SWAP1 POP SWAP2 SWAP1 POP JUMP JUMPDEST PUSH0 PUSH2 0xDA7 DUP3 PUSH2 0x8B5 JUMP JUMPDEST SWAP2 POP PUSH32 0xFFFFFFFFFFFFFFFFFFFFFFFFFFFFFFFFFFFFFFFFFFFFFFFFFFFFFFFFFFFFFFFF DUP3 SUB PUSH2 0xDD9 JUMPI PUSH2 0xDD8 PUSH2 0xA6D JUMP JUMPDEST JUMPDEST PUSH1 0x1 DUP3 ADD SWAP1 POP SWAP2 SWAP1 POP JUMP INVALID LOG2 PUSH5 0x6970667358 0x22 SLT KECCAK256 NUMBER SDIV 0x4E SELFBALANCE 0x2F 0xAB SHR PREVRANDAO MUL BALANCE 0xF9 MSIZE 0xBF PUSH16 0xE57101E67D0D3C681E852171B3ED7421 PUSH7 0x7864736F6C6343 STOP ADDMOD XOR STOP CALLER "
		},
		"gasEstimates": {
			"creation": {
				"codeDepositCost": "722000",
				"executionCost": "infinite",
				"totalCost": "infinite"
			},
			"external": {
				"foosBallTablePrice()": "391",
				"getInventory(address,string)": "infinite",
				"getPriceOf(string)": "infinite",
				"inventory(address,string)": "infinite",
				"owner()": "2505",
				"poolTablePrice()": "348",
				"purchase(string)": "infinite",
				"setInventory(address,string,uint256)": "infinite",
				"tableTennisPrice()": "413",
				"tokenAddress()": "2530"
			}
		},
		"methodIdentifiers": {
			"foosBallTablePrice()": "b3390911",
			"getInventory(address,string)": "13fa9b23",
			"getPriceOf(string)": "2cde4c50",
			"inventory(address,string)": "499553fb",
			"owner()": "8da5cb5b",
			"poolTablePrice()": "2616add5",
			"purchase(string)": "59f5e0ce",
			"setInventory(address,string,uint256)": "b008c7e6",
			"tableTennisPrice()": "c386f5e9",
			"tokenAddress()": "9d76ea58"
		}
	},
	"abi": [
		{
			"inputs": [],
			"stateMutability": "nonpayable",
			"type": "constructor"
		},
		{
			"inputs": [],
			"name": "foosBallTablePrice",
			"outputs": [
				{
					"internalType": "uint256",
					"name": "",
					"type": "uint256"
				}
			],
			"stateMutability": "view",
			"type": "function"
		},
		{
			"inputs": [
				{
					"internalType": "address",
					"name": "_address",
					"type": "address"
				},
				{
					"internalType": "string",
					"name": "_item",
					"type": "string"
				}
			],
			"name": "getInventory",
			"outputs": [
				{
					"internalType": "uint256",
					"name": "",
					"type": "uint256"
				}
			],
			"stateMutability": "view",
			"type": "function"
		},
		{
			"inputs": [
				{
					"internalType": "string",
					"name": "item",
					"type": "string"
				}
			],
			"name": "getPriceOf",
			"outputs": [
				{
					"internalType": "uint256",
					"name": "",
					"type": "uint256"
				}
			],
			"stateMutability": "pure",
			"type": "function"
		},
		{
			"inputs": [
				{
					"internalType": "address",
					"name": "",
					"type": "address"
				},
				{
					"internalType": "string",
					"name": "",
					"type": "string"
				}
			],
			"name": "inventory",
			"outputs": [
				{
					"internalType": "uint256",
					"name": "",
					"type": "uint256"
				}
			],
			"stateMutability": "view",
			"type": "function"
		},
		{
			"inputs": [],
			"name": "owner",
			"outputs": [
				{
					"internalType": "address",
					"name": "",
					"type": "address"
				}
			],
			"stateMutability": "view",
			"type": "function"
		},
		{
			"inputs": [],
			"name": "poolTablePrice",
			"outputs": [
				{
					"internalType": "uint256",
					"name": "",
					"type": "uint256"
				}
			],
			"stateMutability": "view",
			"type": "function"
		},
		{
			"inputs": [
				{
					"internalType": "string",
					"name": "item",
					"type": "string"
				}
			],
			"name": "purchase",
			"outputs": [],
			"stateMutability": "payable",
			"type": "function"
		},
		{
			"inputs": [
				{
					"internalType": "address",
					"name": "_address",
					"type": "address"
				},
				{
					"internalType": "string",
					"name": "_item",
					"type": "string"
				},
				{
					"internalType": "uint256",
					"name": "_quantity",
					"type": "uint256"
				}
			],
			"name": "setInventory",
			"outputs": [],
			"stateMutability": "nonpayable",
			"type": "function"
		},
		{
			"inputs": [],
			"name": "tableTennisPrice",
			"outputs": [
				{
					"internalType": "uint256",
					"name": "",
					"type": "uint256"
				}
			],
			"stateMutability": "view",
			"type": "function"
		},
		{
			"inputs": [],
			"name": "tokenAddress",
			"outputs": [
				{
					"internalType": "address",
					"name": "",
					"type": "address"
				}
			],
			"stateMutability": "view",
			"type": "function"
		}
	]
}