{
	"data": {
		"bytecode": {
			"linkReferences": {},
			"object": "608060405234801562000010575f80fd5b50335f806101000a81548173ffffffffffffffffffffffffffffffffffffffff021916908373ffffffffffffffffffffffffffffffffffffffff16021790555062000099306040518060400160405280600a81526020017f506f6f6c205461626c6500000000000000000000000000000000000000000000815250600a6200013160201b60201c565b620000e2306040518060400160405280601281526020017f5461626c652054656e6e6973205461626c650000000000000000000000000000815250600a6200013160201b60201c565b6200012b306040518060400160405280600e81526020017f466f6f7362616c6c205461626c65000000000000000000000000000000000000815250600a6200013160201b60201c565b62000222565b8060015f8573ffffffffffffffffffffffffffffffffffffffff1673ffffffffffffffffffffffffffffffffffffffff1681526020019081526020015f20836040516200017f91906200020a565b908152602001604051809103902081905550505050565b5f81519050919050565b5f81905092915050565b5f5b83811015620001c9578082015181840152602081019050620001ac565b5f8484015250505050565b5f620001e08262000196565b620001ec8185620001a0565b9350620001fe818560208601620001aa565b80840191505092915050565b5f620002178284620001d4565b915081905092915050565b610e8d80620002305f395ff3fe608060405260043610610085575f3560e01c806359f5e0ce1161005857806359f5e0ce146101675780638da5cb5b14610183578063b008c7e6146101ad578063b3390911146101d5578063c386f5e9146101ff57610085565b806313fa9b23146100895780632616add5146100c55780632cde4c50146100ef578063499553fb1461012b575b5f80fd5b348015610094575f80fd5b506100af60048036038101906100aa919061084f565b610229565b6040516100bc91906108c1565b60405180910390f35b3480156100d0575f80fd5b506100d961028c565b6040516100e691906108c1565b60405180910390f35b3480156100fa575f80fd5b50610115600480360381019061011091906108da565b610291565b60405161012291906108c1565b60405180910390f35b348015610136575f80fd5b50610151600480360381019061014c919061084f565b610389565b60405161015e91906108c1565b60405180910390f35b610181600480360381019061017c91906108da565b6103c1565b005b34801561018e575f80fd5b506101976105f1565b6040516101a49190610930565b60405180910390f35b3480156101b8575f80fd5b506101d360048036038101906101ce9190610973565b610614565b005b3480156101e0575f80fd5b506101e9610677565b6040516101f691906108c1565b60405180910390f35b34801561020a575f80fd5b5061021361067c565b60405161022091906108c1565b60405180910390f35b5f60015f8473ffffffffffffffffffffffffffffffffffffffff1673ffffffffffffffffffffffffffffffffffffffff1681526020019081526020015f20826040516102759190610a4b565b908152602001604051809103902054905092915050565b600181565b5f806102d2836040518060400160405280600a81526020017f506f6f6c205461626c6500000000000000000000000000000000000000000000815250610681565b156102e05760019050610380565b61031f836040518060400160405280601281526020017f5461626c652054656e6e6973205461626c650000000000000000000000000000815250610681565b1561032d576002905061037f565b61036c836040518060400160405280600e81526020017f466f6f7362616c6c205461626c65000000000000000000000000000000000000815250610681565b1561037a576003905061037e565b5f90505b5b5b80915050919050565b6001602052815f5260405f20818051602081018201805184825260208301602085012081835280955050505050505f91509150505481565b5f6103cb82610291565b90505f810361040f576040517f08c379a000000000000000000000000000000000000000000000000000000000815260040161040690610abb565b60405180910390fd5b6004601261041d9190610b06565b600a6104299190610c68565b816104349190610cb2565b341015610476576040517f08c379a000000000000000000000000000000000000000000000000000000000815260040161046d90610d63565b60405180910390fd5b5f60015f3073ffffffffffffffffffffffffffffffffffffffff1673ffffffffffffffffffffffffffffffffffffffff1681526020019081526020015f20836040516104c29190610a4b565b90815260200160405180910390205411610511576040517f08c379a000000000000000000000000000000000000000000000000000000000815260040161050890610dcb565b60405180910390fd5b60015f3073ffffffffffffffffffffffffffffffffffffffff1673ffffffffffffffffffffffffffffffffffffffff1681526020019081526020015f208260405161055c9190610a4b565b90815260200160405180910390205f81548092919061057a90610de9565b919050555060015f3373ffffffffffffffffffffffffffffffffffffffff1673ffffffffffffffffffffffffffffffffffffffff1681526020019081526020015f20826040516105ca9190610a4b565b90815260200160405180910390205f8154809291906105e890610e10565b91905055505050565b5f8054906101000a900473ffffffffffffffffffffffffffffffffffffffff1681565b8060015f8573ffffffffffffffffffffffffffffffffffffffff1673ffffffffffffffffffffffffffffffffffffffff1681526020019081526020015f20836040516106609190610a4b565b908152602001604051809103902081905550505050565b600381565b600281565b5f815183511480156106a0575081805190602001208380519060200120145b905092915050565b5f604051905090565b5f80fd5b5f80fd5b5f73ffffffffffffffffffffffffffffffffffffffff82169050919050565b5f6106e2826106b9565b9050919050565b6106f2816106d8565b81146106fc575f80fd5b50565b5f8135905061070d816106e9565b92915050565b5f80fd5b5f80fd5b5f601f19601f8301169050919050565b7f4e487b71000000000000000000000000000000000000000000000000000000005f52604160045260245ffd5b6107618261071b565b810181811067ffffffffffffffff821117156107805761077f61072b565b5b80604052505050565b5f6107926106a8565b905061079e8282610758565b919050565b5f67ffffffffffffffff8211156107bd576107bc61072b565b5b6107c68261071b565b9050602081019050919050565b828183375f83830152505050565b5f6107f36107ee846107a3565b610789565b90508281526020810184848401111561080f5761080e610717565b5b61081a8482856107d3565b509392505050565b5f82601f83011261083657610835610713565b5b81356108468482602086016107e1565b91505092915050565b5f8060408385031215610865576108646106b1565b5b5f610872858286016106ff565b925050602083013567ffffffffffffffff811115610893576108926106b5565b5b61089f85828601610822565b9150509250929050565b5f819050919050565b6108bb816108a9565b82525050565b5f6020820190506108d45f8301846108b2565b92915050565b5f602082840312156108ef576108ee6106b1565b5b5f82013567ffffffffffffffff81111561090c5761090b6106b5565b5b61091884828501610822565b91505092915050565b61092a816106d8565b82525050565b5f6020820190506109435f830184610921565b92915050565b610952816108a9565b811461095c575f80fd5b50565b5f8135905061096d81610949565b92915050565b5f805f6060848603121561098a576109896106b1565b5b5f610997868287016106ff565b935050602084013567ffffffffffffffff8111156109b8576109b76106b5565b5b6109c486828701610822565b92505060406109d58682870161095f565b9150509250925092565b5f81519050919050565b5f81905092915050565b5f5b83811015610a105780820151818401526020810190506109f5565b5f8484015250505050565b5f610a25826109df565b610a2f81856109e9565b9350610a3f8185602086016109f3565b80840191505092915050565b5f610a568284610a1b565b915081905092915050565b5f82825260208201905092915050565b7f496e76616c6964206974656d2073656c656374656400000000000000000000005f82015250565b5f610aa5601583610a61565b9150610ab082610a71565b602082019050919050565b5f6020820190508181035f830152610ad281610a99565b9050919050565b7f4e487b71000000000000000000000000000000000000000000000000000000005f52601160045260245ffd5b5f610b10826108a9565b9150610b1b836108a9565b9250828203905081811115610b3357610b32610ad9565b5b92915050565b5f8160011c9050919050565b5f808291508390505b6001851115610b8e57808604811115610b6a57610b69610ad9565b5b6001851615610b795780820291505b8081029050610b8785610b39565b9450610b4e565b94509492505050565b5f82610ba65760019050610c61565b81610bb3575f9050610c61565b8160018114610bc95760028114610bd357610c02565b6001915050610c61565b60ff841115610be557610be4610ad9565b5b8360020a915084821115610bfc57610bfb610ad9565b5b50610c61565b5060208310610133831016604e8410600b8410161715610c375782820a905083811115610c3257610c31610ad9565b5b610c61565b610c448484846001610b45565b92509050818404811115610c5b57610c5a610ad9565b5b81810290505b9392505050565b5f610c72826108a9565b9150610c7d836108a9565b9250610caa7fffffffffffffffffffffffffffffffffffffffffffffffffffffffffffffffff8484610b97565b905092915050565b5f610cbc826108a9565b9150610cc7836108a9565b9250828202610cd5816108a9565b91508282048414831517610cec57610ceb610ad9565b5b5092915050565b7f496e73756666696369656e742062616c616e636520746f2070757263686173655f8201527f2074686973206974656d00000000000000000000000000000000000000000000602082015250565b5f610d4d602a83610a61565b9150610d5882610cf3565b604082019050919050565b5f6020820190508181035f830152610d7a81610d41565b9050919050565b7f536f7272792c2074686973206974656d206973206f7574206f662073746f636b5f82015250565b5f610db5602083610a61565b9150610dc082610d81565b602082019050919050565b5f6020820190508181035f830152610de281610da9565b9050919050565b5f610df3826108a9565b91505f8203610e0557610e04610ad9565b5b600182039050919050565b5f610e1a826108a9565b91507fffffffffffffffffffffffffffffffffffffffffffffffffffffffffffffffff8203610e4c57610e4b610ad9565b5b60018201905091905056fea2646970667358221220e2e2e640878c6a0ff41716957bb6f43f9be8f78eabcc95c0739d4e931d9ff5a064736f6c63430008180033",
			"opcodes": "PUSH1 0x80 PUSH1 0x40 MSTORE CALLVALUE DUP1 ISZERO PUSH3 0x10 JUMPI PUSH0 DUP1 REVERT JUMPDEST POP CALLER PUSH0 DUP1 PUSH2 0x100 EXP DUP2 SLOAD DUP2 PUSH20 0xFFFFFFFFFFFFFFFFFFFFFFFFFFFFFFFFFFFFFFFF MUL NOT AND SWAP1 DUP4 PUSH20 0xFFFFFFFFFFFFFFFFFFFFFFFFFFFFFFFFFFFFFFFF AND MUL OR SWAP1 SSTORE POP PUSH3 0x99 ADDRESS PUSH1 0x40 MLOAD DUP1 PUSH1 0x40 ADD PUSH1 0x40 MSTORE DUP1 PUSH1 0xA DUP2 MSTORE PUSH1 0x20 ADD PUSH32 0x506F6F6C205461626C6500000000000000000000000000000000000000000000 DUP2 MSTORE POP PUSH1 0xA PUSH3 0x131 PUSH1 0x20 SHL PUSH1 0x20 SHR JUMP JUMPDEST PUSH3 0xE2 ADDRESS PUSH1 0x40 MLOAD DUP1 PUSH1 0x40 ADD PUSH1 0x40 MSTORE DUP1 PUSH1 0x12 DUP2 MSTORE PUSH1 0x20 ADD PUSH32 0x5461626C652054656E6E6973205461626C650000000000000000000000000000 DUP2 MSTORE POP PUSH1 0xA PUSH3 0x131 PUSH1 0x20 SHL PUSH1 0x20 SHR JUMP JUMPDEST PUSH3 0x12B ADDRESS PUSH1 0x40 MLOAD DUP1 PUSH1 0x40 ADD PUSH1 0x40 MSTORE DUP1 PUSH1 0xE DUP2 MSTORE PUSH1 0x20 ADD PUSH32 0x466F6F7362616C6C205461626C65000000000000000000000000000000000000 DUP2 MSTORE POP PUSH1 0xA PUSH3 0x131 PUSH1 0x20 SHL PUSH1 0x20 SHR JUMP JUMPDEST PUSH3 0x222 JUMP JUMPDEST DUP1 PUSH1 0x1 PUSH0 DUP6 PUSH20 0xFFFFFFFFFFFFFFFFFFFFFFFFFFFFFFFFFFFFFFFF AND PUSH20 0xFFFFFFFFFFFFFFFFFFFFFFFFFFFFFFFFFFFFFFFF AND DUP2 MSTORE PUSH1 0x20 ADD SWAP1 DUP2 MSTORE PUSH1 0x20 ADD PUSH0 KECCAK256 DUP4 PUSH1 0x40 MLOAD PUSH3 0x17F SWAP2 SWAP1 PUSH3 0x20A JUMP JUMPDEST SWAP1 DUP2 MSTORE PUSH1 0x20 ADD PUSH1 0x40 MLOAD DUP1 SWAP2 SUB SWAP1 KECCAK256 DUP2 SWAP1 SSTORE POP POP POP POP JUMP JUMPDEST PUSH0 DUP2 MLOAD SWAP1 POP SWAP2 SWAP1 POP JUMP JUMPDEST PUSH0 DUP2 SWAP1 POP SWAP3 SWAP2 POP POP JUMP JUMPDEST PUSH0 JUMPDEST DUP4 DUP2 LT ISZERO PUSH3 0x1C9 JUMPI DUP1 DUP3 ADD MLOAD DUP2 DUP5 ADD MSTORE PUSH1 0x20 DUP2 ADD SWAP1 POP PUSH3 0x1AC JUMP JUMPDEST PUSH0 DUP5 DUP5 ADD MSTORE POP POP POP POP JUMP JUMPDEST PUSH0 PUSH3 0x1E0 DUP3 PUSH3 0x196 JUMP JUMPDEST PUSH3 0x1EC DUP2 DUP6 PUSH3 0x1A0 JUMP JUMPDEST SWAP4 POP PUSH3 0x1FE DUP2 DUP6 PUSH1 0x20 DUP7 ADD PUSH3 0x1AA JUMP JUMPDEST DUP1 DUP5 ADD SWAP2 POP POP SWAP3 SWAP2 POP POP JUMP JUMPDEST PUSH0 PUSH3 0x217 DUP3 DUP5 PUSH3 0x1D4 JUMP JUMPDEST SWAP2 POP DUP2 SWAP1 POP SWAP3 SWAP2 POP POP JUMP JUMPDEST PUSH2 0xE8D DUP1 PUSH3 0x230 PUSH0 CODECOPY PUSH0 RETURN INVALID PUSH1 0x80 PUSH1 0x40 MSTORE PUSH1 0x4 CALLDATASIZE LT PUSH2 0x85 JUMPI PUSH0 CALLDATALOAD PUSH1 0xE0 SHR DUP1 PUSH4 0x59F5E0CE GT PUSH2 0x58 JUMPI DUP1 PUSH4 0x59F5E0CE EQ PUSH2 0x167 JUMPI DUP1 PUSH4 0x8DA5CB5B EQ PUSH2 0x183 JUMPI DUP1 PUSH4 0xB008C7E6 EQ PUSH2 0x1AD JUMPI DUP1 PUSH4 0xB3390911 EQ PUSH2 0x1D5 JUMPI DUP1 PUSH4 0xC386F5E9 EQ PUSH2 0x1FF JUMPI PUSH2 0x85 JUMP JUMPDEST DUP1 PUSH4 0x13FA9B23 EQ PUSH2 0x89 JUMPI DUP1 PUSH4 0x2616ADD5 EQ PUSH2 0xC5 JUMPI DUP1 PUSH4 0x2CDE4C50 EQ PUSH2 0xEF JUMPI DUP1 PUSH4 0x499553FB EQ PUSH2 0x12B JUMPI JUMPDEST PUSH0 DUP1 REVERT JUMPDEST CALLVALUE DUP1 ISZERO PUSH2 0x94 JUMPI PUSH0 DUP1 REVERT JUMPDEST POP PUSH2 0xAF PUSH1 0x4 DUP1 CALLDATASIZE SUB DUP2 ADD SWAP1 PUSH2 0xAA SWAP2 SWAP1 PUSH2 0x84F JUMP JUMPDEST PUSH2 0x229 JUMP JUMPDEST PUSH1 0x40 MLOAD PUSH2 0xBC SWAP2 SWAP1 PUSH2 0x8C1 JUMP JUMPDEST PUSH1 0x40 MLOAD DUP1 SWAP2 SUB SWAP1 RETURN JUMPDEST CALLVALUE DUP1 ISZERO PUSH2 0xD0 JUMPI PUSH0 DUP1 REVERT JUMPDEST POP PUSH2 0xD9 PUSH2 0x28C JUMP JUMPDEST PUSH1 0x40 MLOAD PUSH2 0xE6 SWAP2 SWAP1 PUSH2 0x8C1 JUMP JUMPDEST PUSH1 0x40 MLOAD DUP1 SWAP2 SUB SWAP1 RETURN JUMPDEST CALLVALUE DUP1 ISZERO PUSH2 0xFA JUMPI PUSH0 DUP1 REVERT JUMPDEST POP PUSH2 0x115 PUSH1 0x4 DUP1 CALLDATASIZE SUB DUP2 ADD SWAP1 PUSH2 0x110 SWAP2 SWAP1 PUSH2 0x8DA JUMP JUMPDEST PUSH2 0x291 JUMP JUMPDEST PUSH1 0x40 MLOAD PUSH2 0x122 SWAP2 SWAP1 PUSH2 0x8C1 JUMP JUMPDEST PUSH1 0x40 MLOAD DUP1 SWAP2 SUB SWAP1 RETURN JUMPDEST CALLVALUE DUP1 ISZERO PUSH2 0x136 JUMPI PUSH0 DUP1 REVERT JUMPDEST POP PUSH2 0x151 PUSH1 0x4 DUP1 CALLDATASIZE SUB DUP2 ADD SWAP1 PUSH2 0x14C SWAP2 SWAP1 PUSH2 0x84F JUMP JUMPDEST PUSH2 0x389 JUMP JUMPDEST PUSH1 0x40 MLOAD PUSH2 0x15E SWAP2 SWAP1 PUSH2 0x8C1 JUMP JUMPDEST PUSH1 0x40 MLOAD DUP1 SWAP2 SUB SWAP1 RETURN JUMPDEST PUSH2 0x181 PUSH1 0x4 DUP1 CALLDATASIZE SUB DUP2 ADD SWAP1 PUSH2 0x17C SWAP2 SWAP1 PUSH2 0x8DA JUMP JUMPDEST PUSH2 0x3C1 JUMP JUMPDEST STOP JUMPDEST CALLVALUE DUP1 ISZERO PUSH2 0x18E JUMPI PUSH0 DUP1 REVERT JUMPDEST POP PUSH2 0x197 PUSH2 0x5F1 JUMP JUMPDEST PUSH1 0x40 MLOAD PUSH2 0x1A4 SWAP2 SWAP1 PUSH2 0x930 JUMP JUMPDEST PUSH1 0x40 MLOAD DUP1 SWAP2 SUB SWAP1 RETURN JUMPDEST CALLVALUE DUP1 ISZERO PUSH2 0x1B8 JUMPI PUSH0 DUP1 REVERT JUMPDEST POP PUSH2 0x1D3 PUSH1 0x4 DUP1 CALLDATASIZE SUB DUP2 ADD SWAP1 PUSH2 0x1CE SWAP2 SWAP1 PUSH2 0x973 JUMP JUMPDEST PUSH2 0x614 JUMP JUMPDEST STOP JUMPDEST CALLVALUE DUP1 ISZERO PUSH2 0x1E0 JUMPI PUSH0 DUP1 REVERT JUMPDEST POP PUSH2 0x1E9 PUSH2 0x677 JUMP JUMPDEST PUSH1 0x40 MLOAD PUSH2 0x1F6 SWAP2 SWAP1 PUSH2 0x8C1 JUMP JUMPDEST PUSH1 0x40 MLOAD DUP1 SWAP2 SUB SWAP1 RETURN JUMPDEST CALLVALUE DUP1 ISZERO PUSH2 0x20A JUMPI PUSH0 DUP1 REVERT JUMPDEST POP PUSH2 0x213 PUSH2 0x67C JUMP JUMPDEST PUSH1 0x40 MLOAD PUSH2 0x220 SWAP2 SWAP1 PUSH2 0x8C1 JUMP JUMPDEST PUSH1 0x40 MLOAD DUP1 SWAP2 SUB SWAP1 RETURN JUMPDEST PUSH0 PUSH1 0x1 PUSH0 DUP5 PUSH20 0xFFFFFFFFFFFFFFFFFFFFFFFFFFFFFFFFFFFFFFFF AND PUSH20 0xFFFFFFFFFFFFFFFFFFFFFFFFFFFFFFFFFFFFFFFF AND DUP2 MSTORE PUSH1 0x20 ADD SWAP1 DUP2 MSTORE PUSH1 0x20 ADD PUSH0 KECCAK256 DUP3 PUSH1 0x40 MLOAD PUSH2 0x275 SWAP2 SWAP1 PUSH2 0xA4B JUMP JUMPDEST SWAP1 DUP2 MSTORE PUSH1 0x20 ADD PUSH1 0x40 MLOAD DUP1 SWAP2 SUB SWAP1 KECCAK256 SLOAD SWAP1 POP SWAP3 SWAP2 POP POP JUMP JUMPDEST PUSH1 0x1 DUP2 JUMP JUMPDEST PUSH0 DUP1 PUSH2 0x2D2 DUP4 PUSH1 0x40 MLOAD DUP1 PUSH1 0x40 ADD PUSH1 0x40 MSTORE DUP1 PUSH1 0xA DUP2 MSTORE PUSH1 0x20 ADD PUSH32 0x506F6F6C205461626C6500000000000000000000000000000000000000000000 DUP2 MSTORE POP PUSH2 0x681 JUMP JUMPDEST ISZERO PUSH2 0x2E0 JUMPI PUSH1 0x1 SWAP1 POP PUSH2 0x380 JUMP JUMPDEST PUSH2 0x31F DUP4 PUSH1 0x40 MLOAD DUP1 PUSH1 0x40 ADD PUSH1 0x40 MSTORE DUP1 PUSH1 0x12 DUP2 MSTORE PUSH1 0x20 ADD PUSH32 0x5461626C652054656E6E6973205461626C650000000000000000000000000000 DUP2 MSTORE POP PUSH2 0x681 JUMP JUMPDEST ISZERO PUSH2 0x32D JUMPI PUSH1 0x2 SWAP1 POP PUSH2 0x37F JUMP JUMPDEST PUSH2 0x36C DUP4 PUSH1 0x40 MLOAD DUP1 PUSH1 0x40 ADD PUSH1 0x40 MSTORE DUP1 PUSH1 0xE DUP2 MSTORE PUSH1 0x20 ADD PUSH32 0x466F6F7362616C6C205461626C65000000000000000000000000000000000000 DUP2 MSTORE POP PUSH2 0x681 JUMP JUMPDEST ISZERO PUSH2 0x37A JUMPI PUSH1 0x3 SWAP1 POP PUSH2 0x37E JUMP JUMPDEST PUSH0 SWAP1 POP JUMPDEST JUMPDEST JUMPDEST DUP1 SWAP2 POP POP SWAP2 SWAP1 POP JUMP JUMPDEST PUSH1 0x1 PUSH1 0x20 MSTORE DUP2 PUSH0 MSTORE PUSH1 0x40 PUSH0 KECCAK256 DUP2 DUP1 MLOAD PUSH1 0x20 DUP2 ADD DUP3 ADD DUP1 MLOAD DUP5 DUP3 MSTORE PUSH1 0x20 DUP4 ADD PUSH1 0x20 DUP6 ADD KECCAK256 DUP2 DUP4 MSTORE DUP1 SWAP6 POP POP POP POP POP POP PUSH0 SWAP2 POP SWAP2 POP POP SLOAD DUP2 JUMP JUMPDEST PUSH0 PUSH2 0x3CB DUP3 PUSH2 0x291 JUMP JUMPDEST SWAP1 POP PUSH0 DUP2 SUB PUSH2 0x40F JUMPI PUSH1 0x40 MLOAD PUSH32 0x8C379A000000000000000000000000000000000000000000000000000000000 DUP2 MSTORE PUSH1 0x4 ADD PUSH2 0x406 SWAP1 PUSH2 0xABB JUMP JUMPDEST PUSH1 0x40 MLOAD DUP1 SWAP2 SUB SWAP1 REVERT JUMPDEST PUSH1 0x4 PUSH1 0x12 PUSH2 0x41D SWAP2 SWAP1 PUSH2 0xB06 JUMP JUMPDEST PUSH1 0xA PUSH2 0x429 SWAP2 SWAP1 PUSH2 0xC68 JUMP JUMPDEST DUP2 PUSH2 0x434 SWAP2 SWAP1 PUSH2 0xCB2 JUMP JUMPDEST CALLVALUE LT ISZERO PUSH2 0x476 JUMPI PUSH1 0x40 MLOAD PUSH32 0x8C379A000000000000000000000000000000000000000000000000000000000 DUP2 MSTORE PUSH1 0x4 ADD PUSH2 0x46D SWAP1 PUSH2 0xD63 JUMP JUMPDEST PUSH1 0x40 MLOAD DUP1 SWAP2 SUB SWAP1 REVERT JUMPDEST PUSH0 PUSH1 0x1 PUSH0 ADDRESS PUSH20 0xFFFFFFFFFFFFFFFFFFFFFFFFFFFFFFFFFFFFFFFF AND PUSH20 0xFFFFFFFFFFFFFFFFFFFFFFFFFFFFFFFFFFFFFFFF AND DUP2 MSTORE PUSH1 0x20 ADD SWAP1 DUP2 MSTORE PUSH1 0x20 ADD PUSH0 KECCAK256 DUP4 PUSH1 0x40 MLOAD PUSH2 0x4C2 SWAP2 SWAP1 PUSH2 0xA4B JUMP JUMPDEST SWAP1 DUP2 MSTORE PUSH1 0x20 ADD PUSH1 0x40 MLOAD DUP1 SWAP2 SUB SWAP1 KECCAK256 SLOAD GT PUSH2 0x511 JUMPI PUSH1 0x40 MLOAD PUSH32 0x8C379A000000000000000000000000000000000000000000000000000000000 DUP2 MSTORE PUSH1 0x4 ADD PUSH2 0x508 SWAP1 PUSH2 0xDCB JUMP JUMPDEST PUSH1 0x40 MLOAD DUP1 SWAP2 SUB SWAP1 REVERT JUMPDEST PUSH1 0x1 PUSH0 ADDRESS PUSH20 0xFFFFFFFFFFFFFFFFFFFFFFFFFFFFFFFFFFFFFFFF AND PUSH20 0xFFFFFFFFFFFFFFFFFFFFFFFFFFFFFFFFFFFFFFFF AND DUP2 MSTORE PUSH1 0x20 ADD SWAP1 DUP2 MSTORE PUSH1 0x20 ADD PUSH0 KECCAK256 DUP3 PUSH1 0x40 MLOAD PUSH2 0x55C SWAP2 SWAP1 PUSH2 0xA4B JUMP JUMPDEST SWAP1 DUP2 MSTORE PUSH1 0x20 ADD PUSH1 0x40 MLOAD DUP1 SWAP2 SUB SWAP1 KECCAK256 PUSH0 DUP2 SLOAD DUP1 SWAP3 SWAP2 SWAP1 PUSH2 0x57A SWAP1 PUSH2 0xDE9 JUMP JUMPDEST SWAP2 SWAP1 POP SSTORE POP PUSH1 0x1 PUSH0 CALLER PUSH20 0xFFFFFFFFFFFFFFFFFFFFFFFFFFFFFFFFFFFFFFFF AND PUSH20 0xFFFFFFFFFFFFFFFFFFFFFFFFFFFFFFFFFFFFFFFF AND DUP2 MSTORE PUSH1 0x20 ADD SWAP1 DUP2 MSTORE PUSH1 0x20 ADD PUSH0 KECCAK256 DUP3 PUSH1 0x40 MLOAD PUSH2 0x5CA SWAP2 SWAP1 PUSH2 0xA4B JUMP JUMPDEST SWAP1 DUP2 MSTORE PUSH1 0x20 ADD PUSH1 0x40 MLOAD DUP1 SWAP2 SUB SWAP1 KECCAK256 PUSH0 DUP2 SLOAD DUP1 SWAP3 SWAP2 SWAP1 PUSH2 0x5E8 SWAP1 PUSH2 0xE10 JUMP JUMPDEST SWAP2 SWAP1 POP SSTORE POP POP POP JUMP JUMPDEST PUSH0 DUP1 SLOAD SWAP1 PUSH2 0x100 EXP SWAP1 DIV PUSH20 0xFFFFFFFFFFFFFFFFFFFFFFFFFFFFFFFFFFFFFFFF AND DUP2 JUMP JUMPDEST DUP1 PUSH1 0x1 PUSH0 DUP6 PUSH20 0xFFFFFFFFFFFFFFFFFFFFFFFFFFFFFFFFFFFFFFFF AND PUSH20 0xFFFFFFFFFFFFFFFFFFFFFFFFFFFFFFFFFFFFFFFF AND DUP2 MSTORE PUSH1 0x20 ADD SWAP1 DUP2 MSTORE PUSH1 0x20 ADD PUSH0 KECCAK256 DUP4 PUSH1 0x40 MLOAD PUSH2 0x660 SWAP2 SWAP1 PUSH2 0xA4B JUMP JUMPDEST SWAP1 DUP2 MSTORE PUSH1 0x20 ADD PUSH1 0x40 MLOAD DUP1 SWAP2 SUB SWAP1 KECCAK256 DUP2 SWAP1 SSTORE POP POP POP POP JUMP JUMPDEST PUSH1 0x3 DUP2 JUMP JUMPDEST PUSH1 0x2 DUP2 JUMP JUMPDEST PUSH0 DUP2 MLOAD DUP4 MLOAD EQ DUP1 ISZERO PUSH2 0x6A0 JUMPI POP DUP2 DUP1 MLOAD SWAP1 PUSH1 0x20 ADD KECCAK256 DUP4 DUP1 MLOAD SWAP1 PUSH1 0x20 ADD KECCAK256 EQ JUMPDEST SWAP1 POP SWAP3 SWAP2 POP POP JUMP JUMPDEST PUSH0 PUSH1 0x40 MLOAD SWAP1 POP SWAP1 JUMP JUMPDEST PUSH0 DUP1 REVERT JUMPDEST PUSH0 DUP1 REVERT JUMPDEST PUSH0 PUSH20 0xFFFFFFFFFFFFFFFFFFFFFFFFFFFFFFFFFFFFFFFF DUP3 AND SWAP1 POP SWAP2 SWAP1 POP JUMP JUMPDEST PUSH0 PUSH2 0x6E2 DUP3 PUSH2 0x6B9 JUMP JUMPDEST SWAP1 POP SWAP2 SWAP1 POP JUMP JUMPDEST PUSH2 0x6F2 DUP2 PUSH2 0x6D8 JUMP JUMPDEST DUP2 EQ PUSH2 0x6FC JUMPI PUSH0 DUP1 REVERT JUMPDEST POP JUMP JUMPDEST PUSH0 DUP2 CALLDATALOAD SWAP1 POP PUSH2 0x70D DUP2 PUSH2 0x6E9 JUMP JUMPDEST SWAP3 SWAP2 POP POP JUMP JUMPDEST PUSH0 DUP1 REVERT JUMPDEST PUSH0 DUP1 REVERT JUMPDEST PUSH0 PUSH1 0x1F NOT PUSH1 0x1F DUP4 ADD AND SWAP1 POP SWAP2 SWAP1 POP JUMP JUMPDEST PUSH32 0x4E487B7100000000000000000000000000000000000000000000000000000000 PUSH0 MSTORE PUSH1 0x41 PUSH1 0x4 MSTORE PUSH1 0x24 PUSH0 REVERT JUMPDEST PUSH2 0x761 DUP3 PUSH2 0x71B JUMP JUMPDEST DUP2 ADD DUP2 DUP2 LT PUSH8 0xFFFFFFFFFFFFFFFF DUP3 GT OR ISZERO PUSH2 0x780 JUMPI PUSH2 0x77F PUSH2 0x72B JUMP JUMPDEST JUMPDEST DUP1 PUSH1 0x40 MSTORE POP POP POP JUMP JUMPDEST PUSH0 PUSH2 0x792 PUSH2 0x6A8 JUMP JUMPDEST SWAP1 POP PUSH2 0x79E DUP3 DUP3 PUSH2 0x758 JUMP JUMPDEST SWAP2 SWAP1 POP JUMP JUMPDEST PUSH0 PUSH8 0xFFFFFFFFFFFFFFFF DUP3 GT ISZERO PUSH2 0x7BD JUMPI PUSH2 0x7BC PUSH2 0x72B JUMP JUMPDEST JUMPDEST PUSH2 0x7C6 DUP3 PUSH2 0x71B JUMP JUMPDEST SWAP1 POP PUSH1 0x20 DUP2 ADD SWAP1 POP SWAP2 SWAP1 POP JUMP JUMPDEST DUP3 DUP2 DUP4 CALLDATACOPY PUSH0 DUP4 DUP4 ADD MSTORE POP POP POP JUMP JUMPDEST PUSH0 PUSH2 0x7F3 PUSH2 0x7EE DUP5 PUSH2 0x7A3 JUMP JUMPDEST PUSH2 0x789 JUMP JUMPDEST SWAP1 POP DUP3 DUP2 MSTORE PUSH1 0x20 DUP2 ADD DUP5 DUP5 DUP5 ADD GT ISZERO PUSH2 0x80F JUMPI PUSH2 0x80E PUSH2 0x717 JUMP JUMPDEST JUMPDEST PUSH2 0x81A DUP5 DUP3 DUP6 PUSH2 0x7D3 JUMP JUMPDEST POP SWAP4 SWAP3 POP POP POP JUMP JUMPDEST PUSH0 DUP3 PUSH1 0x1F DUP4 ADD SLT PUSH2 0x836 JUMPI PUSH2 0x835 PUSH2 0x713 JUMP JUMPDEST JUMPDEST DUP2 CALLDATALOAD PUSH2 0x846 DUP5 DUP3 PUSH1 0x20 DUP7 ADD PUSH2 0x7E1 JUMP JUMPDEST SWAP2 POP POP SWAP3 SWAP2 POP POP JUMP JUMPDEST PUSH0 DUP1 PUSH1 0x40 DUP4 DUP6 SUB SLT ISZERO PUSH2 0x865 JUMPI PUSH2 0x864 PUSH2 0x6B1 JUMP JUMPDEST JUMPDEST PUSH0 PUSH2 0x872 DUP6 DUP3 DUP7 ADD PUSH2 0x6FF JUMP JUMPDEST SWAP3 POP POP PUSH1 0x20 DUP4 ADD CALLDATALOAD PUSH8 0xFFFFFFFFFFFFFFFF DUP2 GT ISZERO PUSH2 0x893 JUMPI PUSH2 0x892 PUSH2 0x6B5 JUMP JUMPDEST JUMPDEST PUSH2 0x89F DUP6 DUP3 DUP7 ADD PUSH2 0x822 JUMP JUMPDEST SWAP2 POP POP SWAP3 POP SWAP3 SWAP1 POP JUMP JUMPDEST PUSH0 DUP2 SWAP1 POP SWAP2 SWAP1 POP JUMP JUMPDEST PUSH2 0x8BB DUP2 PUSH2 0x8A9 JUMP JUMPDEST DUP3 MSTORE POP POP JUMP JUMPDEST PUSH0 PUSH1 0x20 DUP3 ADD SWAP1 POP PUSH2 0x8D4 PUSH0 DUP4 ADD DUP5 PUSH2 0x8B2 JUMP JUMPDEST SWAP3 SWAP2 POP POP JUMP JUMPDEST PUSH0 PUSH1 0x20 DUP3 DUP5 SUB SLT ISZERO PUSH2 0x8EF JUMPI PUSH2 0x8EE PUSH2 0x6B1 JUMP JUMPDEST JUMPDEST PUSH0 DUP3 ADD CALLDATALOAD PUSH8 0xFFFFFFFFFFFFFFFF DUP2 GT ISZERO PUSH2 0x90C JUMPI PUSH2 0x90B PUSH2 0x6B5 JUMP JUMPDEST JUMPDEST PUSH2 0x918 DUP5 DUP3 DUP6 ADD PUSH2 0x822 JUMP JUMPDEST SWAP2 POP POP SWAP3 SWAP2 POP POP JUMP JUMPDEST PUSH2 0x92A DUP2 PUSH2 0x6D8 JUMP JUMPDEST DUP3 MSTORE POP POP JUMP JUMPDEST PUSH0 PUSH1 0x20 DUP3 ADD SWAP1 POP PUSH2 0x943 PUSH0 DUP4 ADD DUP5 PUSH2 0x921 JUMP JUMPDEST SWAP3 SWAP2 POP POP JUMP JUMPDEST PUSH2 0x952 DUP2 PUSH2 0x8A9 JUMP JUMPDEST DUP2 EQ PUSH2 0x95C JUMPI PUSH0 DUP1 REVERT JUMPDEST POP JUMP JUMPDEST PUSH0 DUP2 CALLDATALOAD SWAP1 POP PUSH2 0x96D DUP2 PUSH2 0x949 JUMP JUMPDEST SWAP3 SWAP2 POP POP JUMP JUMPDEST PUSH0 DUP1 PUSH0 PUSH1 0x60 DUP5 DUP7 SUB SLT ISZERO PUSH2 0x98A JUMPI PUSH2 0x989 PUSH2 0x6B1 JUMP JUMPDEST JUMPDEST PUSH0 PUSH2 0x997 DUP7 DUP3 DUP8 ADD PUSH2 0x6FF JUMP JUMPDEST SWAP4 POP POP PUSH1 0x20 DUP5 ADD CALLDATALOAD PUSH8 0xFFFFFFFFFFFFFFFF DUP2 GT ISZERO PUSH2 0x9B8 JUMPI PUSH2 0x9B7 PUSH2 0x6B5 JUMP JUMPDEST JUMPDEST PUSH2 0x9C4 DUP7 DUP3 DUP8 ADD PUSH2 0x822 JUMP JUMPDEST SWAP3 POP POP PUSH1 0x40 PUSH2 0x9D5 DUP7 DUP3 DUP8 ADD PUSH2 0x95F JUMP JUMPDEST SWAP2 POP POP SWAP3 POP SWAP3 POP SWAP3 JUMP JUMPDEST PUSH0 DUP2 MLOAD SWAP1 POP SWAP2 SWAP1 POP JUMP JUMPDEST PUSH0 DUP2 SWAP1 POP SWAP3 SWAP2 POP POP JUMP JUMPDEST PUSH0 JUMPDEST DUP4 DUP2 LT ISZERO PUSH2 0xA10 JUMPI DUP1 DUP3 ADD MLOAD DUP2 DUP5 ADD MSTORE PUSH1 0x20 DUP2 ADD SWAP1 POP PUSH2 0x9F5 JUMP JUMPDEST PUSH0 DUP5 DUP5 ADD MSTORE POP POP POP POP JUMP JUMPDEST PUSH0 PUSH2 0xA25 DUP3 PUSH2 0x9DF JUMP JUMPDEST PUSH2 0xA2F DUP2 DUP6 PUSH2 0x9E9 JUMP JUMPDEST SWAP4 POP PUSH2 0xA3F DUP2 DUP6 PUSH1 0x20 DUP7 ADD PUSH2 0x9F3 JUMP JUMPDEST DUP1 DUP5 ADD SWAP2 POP POP SWAP3 SWAP2 POP POP JUMP JUMPDEST PUSH0 PUSH2 0xA56 DUP3 DUP5 PUSH2 0xA1B JUMP JUMPDEST SWAP2 POP DUP2 SWAP1 POP SWAP3 SWAP2 POP POP JUMP JUMPDEST PUSH0 DUP3 DUP3 MSTORE PUSH1 0x20 DUP3 ADD SWAP1 POP SWAP3 SWAP2 POP POP JUMP JUMPDEST PUSH32 0x496E76616C6964206974656D2073656C65637465640000000000000000000000 PUSH0 DUP3 ADD MSTORE POP JUMP JUMPDEST PUSH0 PUSH2 0xAA5 PUSH1 0x15 DUP4 PUSH2 0xA61 JUMP JUMPDEST SWAP2 POP PUSH2 0xAB0 DUP3 PUSH2 0xA71 JUMP JUMPDEST PUSH1 0x20 DUP3 ADD SWAP1 POP SWAP2 SWAP1 POP JUMP JUMPDEST PUSH0 PUSH1 0x20 DUP3 ADD SWAP1 POP DUP2 DUP2 SUB PUSH0 DUP4 ADD MSTORE PUSH2 0xAD2 DUP2 PUSH2 0xA99 JUMP JUMPDEST SWAP1 POP SWAP2 SWAP1 POP JUMP JUMPDEST PUSH32 0x4E487B7100000000000000000000000000000000000000000000000000000000 PUSH0 MSTORE PUSH1 0x11 PUSH1 0x4 MSTORE PUSH1 0x24 PUSH0 REVERT JUMPDEST PUSH0 PUSH2 0xB10 DUP3 PUSH2 0x8A9 JUMP JUMPDEST SWAP2 POP PUSH2 0xB1B DUP4 PUSH2 0x8A9 JUMP JUMPDEST SWAP3 POP DUP3 DUP3 SUB SWAP1 POP DUP2 DUP2 GT ISZERO PUSH2 0xB33 JUMPI PUSH2 0xB32 PUSH2 0xAD9 JUMP JUMPDEST JUMPDEST SWAP3 SWAP2 POP POP JUMP JUMPDEST PUSH0 DUP2 PUSH1 0x1 SHR SWAP1 POP SWAP2 SWAP1 POP JUMP JUMPDEST PUSH0 DUP1 DUP3 SWAP2 POP DUP4 SWAP1 POP JUMPDEST PUSH1 0x1 DUP6 GT ISZERO PUSH2 0xB8E JUMPI DUP1 DUP7 DIV DUP2 GT ISZERO PUSH2 0xB6A JUMPI PUSH2 0xB69 PUSH2 0xAD9 JUMP JUMPDEST JUMPDEST PUSH1 0x1 DUP6 AND ISZERO PUSH2 0xB79 JUMPI DUP1 DUP3 MUL SWAP2 POP JUMPDEST DUP1 DUP2 MUL SWAP1 POP PUSH2 0xB87 DUP6 PUSH2 0xB39 JUMP JUMPDEST SWAP5 POP PUSH2 0xB4E JUMP JUMPDEST SWAP5 POP SWAP5 SWAP3 POP POP POP JUMP JUMPDEST PUSH0 DUP3 PUSH2 0xBA6 JUMPI PUSH1 0x1 SWAP1 POP PUSH2 0xC61 JUMP JUMPDEST DUP2 PUSH2 0xBB3 JUMPI PUSH0 SWAP1 POP PUSH2 0xC61 JUMP JUMPDEST DUP2 PUSH1 0x1 DUP2 EQ PUSH2 0xBC9 JUMPI PUSH1 0x2 DUP2 EQ PUSH2 0xBD3 JUMPI PUSH2 0xC02 JUMP JUMPDEST PUSH1 0x1 SWAP2 POP POP PUSH2 0xC61 JUMP JUMPDEST PUSH1 0xFF DUP5 GT ISZERO PUSH2 0xBE5 JUMPI PUSH2 0xBE4 PUSH2 0xAD9 JUMP JUMPDEST JUMPDEST DUP4 PUSH1 0x2 EXP SWAP2 POP DUP5 DUP3 GT ISZERO PUSH2 0xBFC JUMPI PUSH2 0xBFB PUSH2 0xAD9 JUMP JUMPDEST JUMPDEST POP PUSH2 0xC61 JUMP JUMPDEST POP PUSH1 0x20 DUP4 LT PUSH2 0x133 DUP4 LT AND PUSH1 0x4E DUP5 LT PUSH1 0xB DUP5 LT AND OR ISZERO PUSH2 0xC37 JUMPI DUP3 DUP3 EXP SWAP1 POP DUP4 DUP2 GT ISZERO PUSH2 0xC32 JUMPI PUSH2 0xC31 PUSH2 0xAD9 JUMP JUMPDEST JUMPDEST PUSH2 0xC61 JUMP JUMPDEST PUSH2 0xC44 DUP5 DUP5 DUP5 PUSH1 0x1 PUSH2 0xB45 JUMP JUMPDEST SWAP3 POP SWAP1 POP DUP2 DUP5 DIV DUP2 GT ISZERO PUSH2 0xC5B JUMPI PUSH2 0xC5A PUSH2 0xAD9 JUMP JUMPDEST JUMPDEST DUP2 DUP2 MUL SWAP1 POP JUMPDEST SWAP4 SWAP3 POP POP POP JUMP JUMPDEST PUSH0 PUSH2 0xC72 DUP3 PUSH2 0x8A9 JUMP JUMPDEST SWAP2 POP PUSH2 0xC7D DUP4 PUSH2 0x8A9 JUMP JUMPDEST SWAP3 POP PUSH2 0xCAA PUSH32 0xFFFFFFFFFFFFFFFFFFFFFFFFFFFFFFFFFFFFFFFFFFFFFFFFFFFFFFFFFFFFFFFF DUP5 DUP5 PUSH2 0xB97 JUMP JUMPDEST SWAP1 POP SWAP3 SWAP2 POP POP JUMP JUMPDEST PUSH0 PUSH2 0xCBC DUP3 PUSH2 0x8A9 JUMP JUMPDEST SWAP2 POP PUSH2 0xCC7 DUP4 PUSH2 0x8A9 JUMP JUMPDEST SWAP3 POP DUP3 DUP3 MUL PUSH2 0xCD5 DUP2 PUSH2 0x8A9 JUMP JUMPDEST SWAP2 POP DUP3 DUP3 DIV DUP5 EQ DUP4 ISZERO OR PUSH2 0xCEC JUMPI PUSH2 0xCEB PUSH2 0xAD9 JUMP JUMPDEST JUMPDEST POP SWAP3 SWAP2 POP POP JUMP JUMPDEST PUSH32 0x496E73756666696369656E742062616C616E636520746F207075726368617365 PUSH0 DUP3 ADD MSTORE PUSH32 0x2074686973206974656D00000000000000000000000000000000000000000000 PUSH1 0x20 DUP3 ADD MSTORE POP JUMP JUMPDEST PUSH0 PUSH2 0xD4D PUSH1 0x2A DUP4 PUSH2 0xA61 JUMP JUMPDEST SWAP2 POP PUSH2 0xD58 DUP3 PUSH2 0xCF3 JUMP JUMPDEST PUSH1 0x40 DUP3 ADD SWAP1 POP SWAP2 SWAP1 POP JUMP JUMPDEST PUSH0 PUSH1 0x20 DUP3 ADD SWAP1 POP DUP2 DUP2 SUB PUSH0 DUP4 ADD MSTORE PUSH2 0xD7A DUP2 PUSH2 0xD41 JUMP JUMPDEST SWAP1 POP SWAP2 SWAP1 POP JUMP JUMPDEST PUSH32 0x536F7272792C2074686973206974656D206973206F7574206F662073746F636B PUSH0 DUP3 ADD MSTORE POP JUMP JUMPDEST PUSH0 PUSH2 0xDB5 PUSH1 0x20 DUP4 PUSH2 0xA61 JUMP JUMPDEST SWAP2 POP PUSH2 0xDC0 DUP3 PUSH2 0xD81 JUMP JUMPDEST PUSH1 0x20 DUP3 ADD SWAP1 POP SWAP2 SWAP1 POP JUMP JUMPDEST PUSH0 PUSH1 0x20 DUP3 ADD SWAP1 POP DUP2 DUP2 SUB PUSH0 DUP4 ADD MSTORE PUSH2 0xDE2 DUP2 PUSH2 0xDA9 JUMP JUMPDEST SWAP1 POP SWAP2 SWAP1 POP JUMP JUMPDEST PUSH0 PUSH2 0xDF3 DUP3 PUSH2 0x8A9 JUMP JUMPDEST SWAP2 POP PUSH0 DUP3 SUB PUSH2 0xE05 JUMPI PUSH2 0xE04 PUSH2 0xAD9 JUMP JUMPDEST JUMPDEST PUSH1 0x1 DUP3 SUB SWAP1 POP SWAP2 SWAP1 POP JUMP JUMPDEST PUSH0 PUSH2 0xE1A DUP3 PUSH2 0x8A9 JUMP JUMPDEST SWAP2 POP PUSH32 0xFFFFFFFFFFFFFFFFFFFFFFFFFFFFFFFFFFFFFFFFFFFFFFFFFFFFFFFFFFFFFFFF DUP3 SUB PUSH2 0xE4C JUMPI PUSH2 0xE4B PUSH2 0xAD9 JUMP JUMPDEST JUMPDEST PUSH1 0x1 DUP3 ADD SWAP1 POP SWAP2 SWAP1 POP JUMP INVALID LOG2 PUSH5 0x6970667358 0x22 SLT KECCAK256 0xE2 0xE2 0xE6 BLOCKHASH DUP8 DUP13 PUSH11 0xFF41716957BB6F43F9BE8 0xF7 DUP15 0xAB 0xCC SWAP6 0xC0 PUSH20 0x9D4E931D9FF5A064736F6C634300081800330000 "
		},
		"gasEstimates": {
			"creation": {
				"codeDepositCost": "745000",
				"executionCost": "infinite",
				"totalCost": "infinite"
			},
			"external": {
				"foosBallTablePrice()": "391",
				"getInventory(address,string)": "infinite",
				"getPriceOf(string)": "infinite",
				"inventory(address,string)": "infinite",
				"owner()": "2527",
				"poolTablePrice()": "348",
				"purchase(string)": "infinite",
				"setInventory(address,string,uint256)": "infinite",
				"tableTennisPrice()": "413"
			}
		},
		"methodIdentifiers": {
			"foosBallTablePrice()": "b3390911",
			"getInventory(address,string)": "13fa9b23",
			"getPriceOf(string)": "2cde4c50",
			"inventory(address,string)": "499553fb",
			"owner()": "8da5cb5b",
			"poolTablePrice()": "2616add5",
			"purchase(string)": "59f5e0ce",
			"setInventory(address,string,uint256)": "b008c7e6",
			"tableTennisPrice()": "c386f5e9"
		}
	},
	"abi": [
		{
			"inputs": [],
			"stateMutability": "nonpayable",
			"type": "constructor"
		},
		{
			"inputs": [],
			"name": "foosBallTablePrice",
			"outputs": [
				{
					"internalType": "uint256",
					"name": "",
					"type": "uint256"
				}
			],
			"stateMutability": "view",
			"type": "function"
		},
		{
			"inputs": [
				{
					"internalType": "address",
					"name": "_address",
					"type": "address"
				},
				{
					"internalType": "string",
					"name": "_item",
					"type": "string"
				}
			],
			"name": "getInventory",
			"outputs": [
				{
					"internalType": "uint256",
					"name": "",
					"type": "uint256"
				}
			],
			"stateMutability": "view",
			"type": "function"
		},
		{
			"inputs": [
				{
					"internalType": "string",
					"name": "item",
					"type": "string"
				}
			],
			"name": "getPriceOf",
			"outputs": [
				{
					"internalType": "uint256",
					"name": "",
					"type": "uint256"
				}
			],
			"stateMutability": "pure",
			"type": "function"
		},
		{
			"inputs": [
				{
					"internalType": "address",
					"name": "",
					"type": "address"
				},
				{
					"internalType": "string",
					"name": "",
					"type": "string"
				}
			],
			"name": "inventory",
			"outputs": [
				{
					"internalType": "uint256",
					"name": "",
					"type": "uint256"
				}
			],
			"stateMutability": "view",
			"type": "function"
		},
		{
			"inputs": [],
			"name": "owner",
			"outputs": [
				{
					"internalType": "address",
					"name": "",
					"type": "address"
				}
			],
			"stateMutability": "view",
			"type": "function"
		},
		{
			"inputs": [],
			"name": "poolTablePrice",
			"outputs": [
				{
					"internalType": "uint256",
					"name": "",
					"type": "uint256"
				}
			],
			"stateMutability": "view",
			"type": "function"
		},
		{
			"inputs": [
				{
					"internalType": "string",
					"name": "item",
					"type": "string"
				}
			],
			"name": "purchase",
			"outputs": [],
			"stateMutability": "payable",
			"type": "function"
		},
		{
			"inputs": [
				{
					"internalType": "address",
					"name": "_address",
					"type": "address"
				},
				{
					"internalType": "string",
					"name": "_item",
					"type": "string"
				},
				{
					"internalType": "uint256",
					"name": "_quantity",
					"type": "uint256"
				}
			],
			"name": "setInventory",
			"outputs": [],
			"stateMutability": "nonpayable",
			"type": "function"
		},
		{
			"inputs": [],
			"name": "tableTennisPrice",
			"outputs": [
				{
					"internalType": "uint256",
					"name": "",
					"type": "uint256"
				}
			],
			"stateMutability": "view",
			"type": "function"
		}
	]
}