{
	"data": {
		"bytecode": {
			"linkReferences": {},
			"object": "61016060405234801562000011575f80fd5b5060405162002dd638038062002dd68339818101604052810190620000379190620004c0565b6040518060400160405280601281526020017f50617274696369706174696f6e546f6b656e0000000000000000000000000000815250806040518060400160405280600181526020017f3100000000000000000000000000000000000000000000000000000000000000815250836040518060400160405280601281526020017f50617274696369706174696f6e546f6b656e00000000000000000000000000008152506040518060400160405280600381526020017f50544b0000000000000000000000000000000000000000000000000000000000815250816003908162000122919062000754565b50806004908162000134919062000754565b5050505f73ffffffffffffffffffffffffffffffffffffffff168173ffffffffffffffffffffffffffffffffffffffff1603620001aa575f6040517f1e4fbdf7000000000000000000000000000000000000000000000000000000008152600401620001a1919062000849565b60405180910390fd5b620001bb816200027460201b60201c565b50620001d26006836200033760201b90919060201c565b6101208181525050620001f06007826200033760201b90919060201c565b6101408181525050818051906020012060e08181525050808051906020012061010081815250504660a081815250506200022f6200038c60201b60201c565b608081815250503073ffffffffffffffffffffffffffffffffffffffff1660c08173ffffffffffffffffffffffffffffffffffffffff16815250505050505062000a34565b5f60055f9054906101000a900473ffffffffffffffffffffffffffffffffffffffff1690508160055f6101000a81548173ffffffffffffffffffffffffffffffffffffffff021916908373ffffffffffffffffffffffffffffffffffffffff1602179055508173ffffffffffffffffffffffffffffffffffffffff168173ffffffffffffffffffffffffffffffffffffffff167f8be0079c531659141344cd1fd0a4f28419497f9722a3daafe3b4186f6b6457e060405160405180910390a35050565b5f6020835110156200035c576200035483620003e860201b60201c565b905062000386565b826200036e836200045260201b60201c565b5f0190816200037e919062000754565b5060ff5f1b90505b92915050565b5f7f8b73c3c69bb8fe3d512ecc4cf759cc79239f7b179b0ffacaa9a75d522b39400f60e051610100514630604051602001620003cd9594939291906200088f565b60405160208183030381529060405280519060200120905090565b5f80829050601f815111156200043757826040517f305a27a90000000000000000000000000000000000000000000000000000000081526004016200042e919062000974565b60405180910390fd5b8051816200044590620009c5565b5f1c175f1b915050919050565b5f819050919050565b5f80fd5b5f73ffffffffffffffffffffffffffffffffffffffff82169050919050565b5f6200048a826200045f565b9050919050565b6200049c816200047e565b8114620004a7575f80fd5b50565b5f81519050620004ba8162000491565b92915050565b5f60208284031215620004d857620004d76200045b565b5b5f620004e784828501620004aa565b91505092915050565b5f81519050919050565b7f4e487b71000000000000000000000000000000000000000000000000000000005f52604160045260245ffd5b7f4e487b71000000000000000000000000000000000000000000000000000000005f52602260045260245ffd5b5f60028204905060018216806200056c57607f821691505b60208210810362000582576200058162000527565b5b50919050565b5f819050815f5260205f209050919050565b5f6020601f8301049050919050565b5f82821b905092915050565b5f60088302620005e67fffffffffffffffffffffffffffffffffffffffffffffffffffffffffffffffff82620005a9565b620005f28683620005a9565b95508019841693508086168417925050509392505050565b5f819050919050565b5f819050919050565b5f6200063c6200063662000630846200060a565b62000613565b6200060a565b9050919050565b5f819050919050565b62000657836200061c565b6200066f620006668262000643565b848454620005b5565b825550505050565b5f90565b6200068562000677565b620006928184846200064c565b505050565b5b81811015620006b957620006ad5f826200067b565b60018101905062000698565b5050565b601f8211156200070857620006d28162000588565b620006dd846200059a565b81016020851015620006ed578190505b62000705620006fc856200059a565b83018262000697565b50505b505050565b5f82821c905092915050565b5f6200072a5f19846008026200070d565b1980831691505092915050565b5f62000744838362000719565b9150826002028217905092915050565b6200075f82620004f0565b67ffffffffffffffff8111156200077b576200077a620004fa565b5b62000787825462000554565b62000794828285620006bd565b5f60209050601f831160018114620007ca575f8415620007b5578287015190505b620007c1858262000737565b86555062000830565b601f198416620007da8662000588565b5f5b828110156200080357848901518255600182019150602085019450602081019050620007dc565b868310156200082357848901516200081f601f89168262000719565b8355505b6001600288020188555050505b505050505050565b62000843816200047e565b82525050565b5f6020820190506200085e5f83018462000838565b92915050565b5f819050919050565b620008788162000864565b82525050565b62000889816200060a565b82525050565b5f60a082019050620008a45f8301886200086d565b620008b360208301876200086d565b620008c260408301866200086d565b620008d160608301856200087e565b620008e0608083018462000838565b9695505050505050565b5f82825260208201905092915050565b5f5b8381101562000919578082015181840152602081019050620008fc565b5f8484015250505050565b5f601f19601f8301169050919050565b5f6200094082620004f0565b6200094c8185620008ea565b93506200095e818560208601620008fa565b620009698162000924565b840191505092915050565b5f6020820190508181035f8301526200098e818462000934565b905092915050565b5f81519050919050565b5f819050602082019050919050565b5f620009bc825162000864565b80915050919050565b5f620009d18262000996565b82620009dd84620009a0565b9050620009ea81620009af565b9250602082101562000a2d5762000a287fffffffffffffffffffffffffffffffffffffffffffffffffffffffffffffffff83602003600802620005a9565b831692505b5050919050565b60805160a05160c05160e05161010051610120516101405161235062000a865f395f610fae01525f610f7301525f6114a701525f61148601525f610c2901525f610c7f01525f610ca801526123505ff3fe608060405234801561000f575f80fd5b5060043610610135575f3560e01c8063715018a6116100b657806395d89b411161007a57806395d89b4114610341578063a9059cbb1461035f578063abd81ca21461038f578063d505accf146103bf578063dd62ed3e146103db578063f2fde38b1461040b57610135565b8063715018a6146102a957806379cc6790146102b35780637ecebe00146102cf57806384b0196e146102ff5780638da5cb5b1461032357610135565b80633644e515116100fd5780633644e515146101f357806340c10f191461021157806342966c681461022d5780634cd83d751461024957806370a082311461027957610135565b806306fdde0314610139578063095ea7b31461015757806318160ddd1461018757806323b872dd146101a5578063313ce567146101d5575b5f80fd5b610141610427565b60405161014e9190611977565b60405180910390f35b610171600480360381019061016c9190611a28565b6104b7565b60405161017e9190611a80565b60405180910390f35b61018f6104d9565b60405161019c9190611aa8565b60405180910390f35b6101bf60048036038101906101ba9190611ac1565b6104e2565b6040516101cc9190611a80565b60405180910390f35b6101dd610510565b6040516101ea9190611b2c565b60405180910390f35b6101fb610518565b6040516102089190611b5d565b60405180910390f35b61022b60048036038101906102269190611a28565b610526565b005b61024760048036038101906102429190611b76565b61055d565b005b610263600480360381019061025e9190611ac1565b610571565b6040516102709190611a80565b60405180910390f35b610293600480360381019061028e9190611ba1565b6105d3565b6040516102a09190611aa8565b60405180910390f35b6102b1610618565b005b6102cd60048036038101906102c89190611a28565b61062b565b005b6102e960048036038101906102e49190611ba1565b61064b565b6040516102f69190611aa8565b60405180910390f35b61030761065c565b60405161031a9796959493929190611ccc565b60405180910390f35b61032b610701565b6040516103389190611d4e565b60405180910390f35b610349610729565b6040516103569190611977565b60405180910390f35b61037960048036038101906103749190611a28565b6107b9565b6040516103869190611a80565b60405180910390f35b6103a960048036038101906103a49190611d67565b6107db565b6040516103b69190611a80565b60405180910390f35b6103d960048036038101906103d49190611e1f565b610840565b005b6103f560048036038101906103f09190611ebc565b610985565b6040516104029190611aa8565b60405180910390f35b61042560048036038101906104209190611ba1565b610a07565b005b60606003805461043690611f27565b80601f016020809104026020016040519081016040528092919081815260200182805461046290611f27565b80156104ad5780601f10610484576101008083540402835291602001916104ad565b820191905f5260205f20905b81548152906001019060200180831161049057829003601f168201915b5050505050905090565b5f806104c1610a8b565b90506104ce818585610a92565b600191505092915050565b5f600254905090565b5f806104ec610a8b565b90506104f9858285610aa4565b610504858585610b36565b60019150509392505050565b5f6012905090565b5f610521610c26565b905090565b61052e610cdc565b6105598261053a610510565b60ff16600a61054991906120b3565b8361055491906120fd565b610d63565b5050565b61056e610568610a8b565b82610de2565b50565b5f61059d8461057e610510565b60ff16600a61058d91906120b3565b8461059891906120fd565b6104b7565b506105ca84846105ab610510565b60ff16600a6105ba91906120b3565b856105c591906120fd565b6104e2565b90509392505050565b5f805f8373ffffffffffffffffffffffffffffffffffffffff1673ffffffffffffffffffffffffffffffffffffffff1681526020019081526020015f20549050919050565b610620610cdc565b6106295f610e61565b565b61063d82610637610a8b565b83610aa4565b6106478282610de2565b5050565b5f61065582610f24565b9050919050565b5f6060805f805f606061066d610f6a565b610675610fa5565b46305f801b5f67ffffffffffffffff8111156106945761069361213e565b5b6040519080825280602002602001820160405280156106c25781602001602082028036833780820191505090505b507f0f00000000000000000000000000000000000000000000000000000000000000959493929190965096509650965096509650965090919293949596565b5f60055f9054906101000a900473ffffffffffffffffffffffffffffffffffffffff16905090565b60606004805461073890611f27565b80601f016020809104026020016040519081016040528092919081815260200182805461076490611f27565b80156107af5780601f10610786576101008083540402835291602001916107af565b820191905f5260205f20905b81548152906001019060200180831161079257829003601f168201915b5050505050905090565b5f806107c3610a8b565b90506107d0818585610b36565b600191505092915050565b5f61080882866107e9610510565b60ff16600a6107f891906120b3565b8661080391906120fd565b610aa4565b6108348585610815610510565b60ff16600a61082491906120b3565b8661082f91906120fd565b610b36565b60019050949350505050565b8342111561088557836040517f6279130200000000000000000000000000000000000000000000000000000000815260040161087c9190611aa8565b60405180910390fd5b5f7f6e71edae12b1b97f4d1f60370fef10105fa2faae0126114a169c64845d6126c98888886108b38c610fe0565b896040516020016108c99695949392919061216b565b6040516020818303038152906040528051906020012090505f6108eb82611033565b90505f6108fa8287878761104c565b90508973ffffffffffffffffffffffffffffffffffffffff168173ffffffffffffffffffffffffffffffffffffffff161461096e57808a6040517f4b800e460000000000000000000000000000000000000000000000000000000081526004016109659291906121ca565b60405180910390fd5b6109798a8a8a610a92565b50505050505050505050565b5f60015f8473ffffffffffffffffffffffffffffffffffffffff1673ffffffffffffffffffffffffffffffffffffffff1681526020019081526020015f205f8373ffffffffffffffffffffffffffffffffffffffff1673ffffffffffffffffffffffffffffffffffffffff1681526020019081526020015f2054905092915050565b610a0f610cdc565b5f73ffffffffffffffffffffffffffffffffffffffff168173ffffffffffffffffffffffffffffffffffffffff1603610a7f575f6040517f1e4fbdf7000000000000000000000000000000000000000000000000000000008152600401610a769190611d4e565b60405180910390fd5b610a8881610e61565b50565b5f33905090565b610a9f838383600161107a565b505050565b5f610aaf8484610985565b90507fffffffffffffffffffffffffffffffffffffffffffffffffffffffffffffffff8114610b305781811015610b21578281836040517ffb8f41b2000000000000000000000000000000000000000000000000000000008152600401610b18939291906121f1565b60405180910390fd5b610b2f84848484035f61107a565b5b50505050565b5f73ffffffffffffffffffffffffffffffffffffffff168373ffffffffffffffffffffffffffffffffffffffff1603610ba6575f6040517f96c6fd1e000000000000000000000000000000000000000000000000000000008152600401610b9d9190611d4e565b60405180910390fd5b5f73ffffffffffffffffffffffffffffffffffffffff168273ffffffffffffffffffffffffffffffffffffffff1603610c16575f6040517fec442f05000000000000000000000000000000000000000000000000000000008152600401610c0d9190611d4e565b60405180910390fd5b610c21838383611249565b505050565b5f7f000000000000000000000000000000000000000000000000000000000000000073ffffffffffffffffffffffffffffffffffffffff163073ffffffffffffffffffffffffffffffffffffffff16148015610ca157507f000000000000000000000000000000000000000000000000000000000000000046145b15610cce577f00000000000000000000000000000000000000000000000000000000000000009050610cd9565b610cd6611462565b90505b90565b610ce4610a8b565b73ffffffffffffffffffffffffffffffffffffffff16610d02610701565b73ffffffffffffffffffffffffffffffffffffffff1614610d6157610d25610a8b565b6040517f118cdaa7000000000000000000000000000000000000000000000000000000008152600401610d589190611d4e565b60405180910390fd5b565b5f73ffffffffffffffffffffffffffffffffffffffff168273ffffffffffffffffffffffffffffffffffffffff1603610dd3575f6040517fec442f05000000000000000000000000000000000000000000000000000000008152600401610dca9190611d4e565b60405180910390fd5b610dde5f8383611249565b5050565b5f73ffffffffffffffffffffffffffffffffffffffff168273ffffffffffffffffffffffffffffffffffffffff1603610e52575f6040517f96c6fd1e000000000000000000000000000000000000000000000000000000008152600401610e499190611d4e565b60405180910390fd5b610e5d825f83611249565b5050565b5f60055f9054906101000a900473ffffffffffffffffffffffffffffffffffffffff1690508160055f6101000a81548173ffffffffffffffffffffffffffffffffffffffff021916908373ffffffffffffffffffffffffffffffffffffffff1602179055508173ffffffffffffffffffffffffffffffffffffffff168173ffffffffffffffffffffffffffffffffffffffff167f8be0079c531659141344cd1fd0a4f28419497f9722a3daafe3b4186f6b6457e060405160405180910390a35050565b5f60085f8373ffffffffffffffffffffffffffffffffffffffff1673ffffffffffffffffffffffffffffffffffffffff1681526020019081526020015f20549050919050565b6060610fa060067f00000000000000000000000000000000000000000000000000000000000000006114f790919063ffffffff16565b905090565b6060610fdb60077f00000000000000000000000000000000000000000000000000000000000000006114f790919063ffffffff16565b905090565b5f60085f8373ffffffffffffffffffffffffffffffffffffffff1673ffffffffffffffffffffffffffffffffffffffff1681526020019081526020015f205f815480929190600101919050559050919050565b5f61104561103f610c26565b836115a4565b9050919050565b5f805f8061105c888888886115e4565b92509250925061106c82826116cb565b829350505050949350505050565b5f73ffffffffffffffffffffffffffffffffffffffff168473ffffffffffffffffffffffffffffffffffffffff16036110ea575f6040517fe602df050000000000000000000000000000000000000000000000000000000081526004016110e19190611d4e565b60405180910390fd5b5f73ffffffffffffffffffffffffffffffffffffffff168373ffffffffffffffffffffffffffffffffffffffff160361115a575f6040517f94280d620000000000000000000000000000000000000000000000000000000081526004016111519190611d4e565b60405180910390fd5b8160015f8673ffffffffffffffffffffffffffffffffffffffff1673ffffffffffffffffffffffffffffffffffffffff1681526020019081526020015f205f8573ffffffffffffffffffffffffffffffffffffffff1673ffffffffffffffffffffffffffffffffffffffff1681526020019081526020015f20819055508015611243578273ffffffffffffffffffffffffffffffffffffffff168473ffffffffffffffffffffffffffffffffffffffff167f8c5be1e5ebec7d5bd14f71427d1e84f3dd0314c0f7b2291e5b200ac8c7c3b9258460405161123a9190611aa8565b60405180910390a35b50505050565b5f73ffffffffffffffffffffffffffffffffffffffff168373ffffffffffffffffffffffffffffffffffffffff1603611299578060025f82825461128d9190612226565b92505081905550611367565b5f805f8573ffffffffffffffffffffffffffffffffffffffff1673ffffffffffffffffffffffffffffffffffffffff1681526020019081526020015f2054905081811015611322578381836040517fe450d38c000000000000000000000000000000000000000000000000000000008152600401611319939291906121f1565b60405180910390fd5b8181035f808673ffffffffffffffffffffffffffffffffffffffff1673ffffffffffffffffffffffffffffffffffffffff1681526020019081526020015f2081905550505b5f73ffffffffffffffffffffffffffffffffffffffff168273ffffffffffffffffffffffffffffffffffffffff16036113ae578060025f82825403925050819055506113f8565b805f808473ffffffffffffffffffffffffffffffffffffffff1673ffffffffffffffffffffffffffffffffffffffff1681526020019081526020015f205f82825401925050819055505b8173ffffffffffffffffffffffffffffffffffffffff168373ffffffffffffffffffffffffffffffffffffffff167fddf252ad1be2c89b69c2b068fc378daa952ba7f163c4a11628f55a4df523b3ef836040516114559190611aa8565b60405180910390a3505050565b5f7f8b73c3c69bb8fe3d512ecc4cf759cc79239f7b179b0ffacaa9a75d522b39400f7f00000000000000000000000000000000000000000000000000000000000000007f000000000000000000000000000000000000000000000000000000000000000046306040516020016114dc959493929190612259565b60405160208183030381529060405280519060200120905090565b606060ff5f1b83146115135761150c8361182d565b905061159e565b81805461151f90611f27565b80601f016020809104026020016040519081016040528092919081815260200182805461154b90611f27565b80156115965780601f1061156d57610100808354040283529160200191611596565b820191905f5260205f20905b81548152906001019060200180831161157957829003601f168201915b505050505090505b92915050565b5f6040517f190100000000000000000000000000000000000000000000000000000000000081528360028201528260228201526042812091505092915050565b5f805f7f7fffffffffffffffffffffffffffffff5d576e7357a4501ddfe92f46681b20a0845f1c1115611620575f6003859250925092506116c1565b5f6001888888886040515f815260200160405260405161164394939291906122aa565b6020604051602081039080840390855afa158015611663573d5f803e3d5ffd5b5050506020604051035190505f73ffffffffffffffffffffffffffffffffffffffff168173ffffffffffffffffffffffffffffffffffffffff16036116b4575f60015f801b935093509350506116c1565b805f805f1b935093509350505b9450945094915050565b5f60038111156116de576116dd6122ed565b5b8260038111156116f1576116f06122ed565b5b0315611829576001600381111561170b5761170a6122ed565b5b82600381111561171e5761171d6122ed565b5b03611755576040517ff645eedf00000000000000000000000000000000000000000000000000000000815260040160405180910390fd5b60026003811115611769576117686122ed565b5b82600381111561177c5761177b6122ed565b5b036117c057805f1c6040517ffce698f70000000000000000000000000000000000000000000000000000000081526004016117b79190611aa8565b60405180910390fd5b6003808111156117d3576117d26122ed565b5b8260038111156117e6576117e56122ed565b5b0361182857806040517fd78bce0c00000000000000000000000000000000000000000000000000000000815260040161181f9190611b5d565b60405180910390fd5b5b5050565b60605f6118398361189f565b90505f602067ffffffffffffffff8111156118575761185661213e565b5b6040519080825280601f01601f1916602001820160405280156118895781602001600182028036833780820191505090505b5090508181528360208201528092505050919050565b5f8060ff835f1c169050601f8111156118e4576040517fb3512b0c00000000000000000000000000000000000000000000000000000000815260040160405180910390fd5b80915050919050565b5f81519050919050565b5f82825260208201905092915050565b5f5b83811015611924578082015181840152602081019050611909565b5f8484015250505050565b5f601f19601f8301169050919050565b5f611949826118ed565b61195381856118f7565b9350611963818560208601611907565b61196c8161192f565b840191505092915050565b5f6020820190508181035f83015261198f818461193f565b905092915050565b5f80fd5b5f73ffffffffffffffffffffffffffffffffffffffff82169050919050565b5f6119c48261199b565b9050919050565b6119d4816119ba565b81146119de575f80fd5b50565b5f813590506119ef816119cb565b92915050565b5f819050919050565b611a07816119f5565b8114611a11575f80fd5b50565b5f81359050611a22816119fe565b92915050565b5f8060408385031215611a3e57611a3d611997565b5b5f611a4b858286016119e1565b9250506020611a5c85828601611a14565b9150509250929050565b5f8115159050919050565b611a7a81611a66565b82525050565b5f602082019050611a935f830184611a71565b92915050565b611aa2816119f5565b82525050565b5f602082019050611abb5f830184611a99565b92915050565b5f805f60608486031215611ad857611ad7611997565b5b5f611ae5868287016119e1565b9350506020611af6868287016119e1565b9250506040611b0786828701611a14565b9150509250925092565b5f60ff82169050919050565b611b2681611b11565b82525050565b5f602082019050611b3f5f830184611b1d565b92915050565b5f819050919050565b611b5781611b45565b82525050565b5f602082019050611b705f830184611b4e565b92915050565b5f60208284031215611b8b57611b8a611997565b5b5f611b9884828501611a14565b91505092915050565b5f60208284031215611bb657611bb5611997565b5b5f611bc3848285016119e1565b91505092915050565b5f7fff0000000000000000000000000000000000000000000000000000000000000082169050919050565b611c0081611bcc565b82525050565b611c0f816119ba565b82525050565b5f81519050919050565b5f82825260208201905092915050565b5f819050602082019050919050565b611c47816119f5565b82525050565b5f611c588383611c3e565b60208301905092915050565b5f602082019050919050565b5f611c7a82611c15565b611c848185611c1f565b9350611c8f83611c2f565b805f5b83811015611cbf578151611ca68882611c4d565b9750611cb183611c64565b925050600181019050611c92565b5085935050505092915050565b5f60e082019050611cdf5f83018a611bf7565b8181036020830152611cf1818961193f565b90508181036040830152611d05818861193f565b9050611d146060830187611a99565b611d216080830186611c06565b611d2e60a0830185611b4e565b81810360c0830152611d408184611c70565b905098975050505050505050565b5f602082019050611d615f830184611c06565b92915050565b5f805f8060808587031215611d7f57611d7e611997565b5b5f611d8c878288016119e1565b9450506020611d9d878288016119e1565b9350506040611dae87828801611a14565b9250506060611dbf878288016119e1565b91505092959194509250565b611dd481611b11565b8114611dde575f80fd5b50565b5f81359050611def81611dcb565b92915050565b611dfe81611b45565b8114611e08575f80fd5b50565b5f81359050611e1981611df5565b92915050565b5f805f805f805f60e0888a031215611e3a57611e39611997565b5b5f611e478a828b016119e1565b9750506020611e588a828b016119e1565b9650506040611e698a828b01611a14565b9550506060611e7a8a828b01611a14565b9450506080611e8b8a828b01611de1565b93505060a0611e9c8a828b01611e0b565b92505060c0611ead8a828b01611e0b565b91505092959891949750929550565b5f8060408385031215611ed257611ed1611997565b5b5f611edf858286016119e1565b9250506020611ef0858286016119e1565b9150509250929050565b7f4e487b71000000000000000000000000000000000000000000000000000000005f52602260045260245ffd5b5f6002820490506001821680611f3e57607f821691505b602082108103611f5157611f50611efa565b5b50919050565b7f4e487b71000000000000000000000000000000000000000000000000000000005f52601160045260245ffd5b5f8160011c9050919050565b5f808291508390505b6001851115611fd957808604811115611fb557611fb4611f57565b5b6001851615611fc45780820291505b8081029050611fd285611f84565b9450611f99565b94509492505050565b5f82611ff157600190506120ac565b81611ffe575f90506120ac565b8160018114612014576002811461201e5761204d565b60019150506120ac565b60ff8411156120305761202f611f57565b5b8360020a91508482111561204757612046611f57565b5b506120ac565b5060208310610133831016604e8410600b84101617156120825782820a90508381111561207d5761207c611f57565b5b6120ac565b61208f8484846001611f90565b925090508184048111156120a6576120a5611f57565b5b81810290505b9392505050565b5f6120bd826119f5565b91506120c8836119f5565b92506120f57fffffffffffffffffffffffffffffffffffffffffffffffffffffffffffffffff8484611fe2565b905092915050565b5f612107826119f5565b9150612112836119f5565b9250828202612120816119f5565b9150828204841483151761213757612136611f57565b5b5092915050565b7f4e487b71000000000000000000000000000000000000000000000000000000005f52604160045260245ffd5b5f60c08201905061217e5f830189611b4e565b61218b6020830188611c06565b6121986040830187611c06565b6121a56060830186611a99565b6121b26080830185611a99565b6121bf60a0830184611a99565b979650505050505050565b5f6040820190506121dd5f830185611c06565b6121ea6020830184611c06565b9392505050565b5f6060820190506122045f830186611c06565b6122116020830185611a99565b61221e6040830184611a99565b949350505050565b5f612230826119f5565b915061223b836119f5565b925082820190508082111561225357612252611f57565b5b92915050565b5f60a08201905061226c5f830188611b4e565b6122796020830187611b4e565b6122866040830186611b4e565b6122936060830185611a99565b6122a06080830184611c06565b9695505050505050565b5f6080820190506122bd5f830187611b4e565b6122ca6020830186611b1d565b6122d76040830185611b4e565b6122e46060830184611b4e565b95945050505050565b7f4e487b71000000000000000000000000000000000000000000000000000000005f52602160045260245ffdfea2646970667358221220cb0105e91f16b1e426cab0ee550a2796718c8a2ef5315be08161b6e94beaf50964736f6c63430008180033",
			"opcodes": "PUSH2 0x160 PUSH1 0x40 MSTORE CALLVALUE DUP1 ISZERO PUSH3 0x11 JUMPI PUSH0 DUP1 REVERT JUMPDEST POP PUSH1 0x40 MLOAD PUSH3 0x2DD6 CODESIZE SUB DUP1 PUSH3 0x2DD6 DUP4 CODECOPY DUP2 DUP2 ADD PUSH1 0x40 MSTORE DUP2 ADD SWAP1 PUSH3 0x37 SWAP2 SWAP1 PUSH3 0x4C0 JUMP JUMPDEST PUSH1 0x40 MLOAD DUP1 PUSH1 0x40 ADD PUSH1 0x40 MSTORE DUP1 PUSH1 0x12 DUP2 MSTORE PUSH1 0x20 ADD PUSH32 0x50617274696369706174696F6E546F6B656E0000000000000000000000000000 DUP2 MSTORE POP DUP1 PUSH1 0x40 MLOAD DUP1 PUSH1 0x40 ADD PUSH1 0x40 MSTORE DUP1 PUSH1 0x1 DUP2 MSTORE PUSH1 0x20 ADD PUSH32 0x3100000000000000000000000000000000000000000000000000000000000000 DUP2 MSTORE POP DUP4 PUSH1 0x40 MLOAD DUP1 PUSH1 0x40 ADD PUSH1 0x40 MSTORE DUP1 PUSH1 0x12 DUP2 MSTORE PUSH1 0x20 ADD PUSH32 0x50617274696369706174696F6E546F6B656E0000000000000000000000000000 DUP2 MSTORE POP PUSH1 0x40 MLOAD DUP1 PUSH1 0x40 ADD PUSH1 0x40 MSTORE DUP1 PUSH1 0x3 DUP2 MSTORE PUSH1 0x20 ADD PUSH32 0x50544B0000000000000000000000000000000000000000000000000000000000 DUP2 MSTORE POP DUP2 PUSH1 0x3 SWAP1 DUP2 PUSH3 0x122 SWAP2 SWAP1 PUSH3 0x754 JUMP JUMPDEST POP DUP1 PUSH1 0x4 SWAP1 DUP2 PUSH3 0x134 SWAP2 SWAP1 PUSH3 0x754 JUMP JUMPDEST POP POP POP PUSH0 PUSH20 0xFFFFFFFFFFFFFFFFFFFFFFFFFFFFFFFFFFFFFFFF AND DUP2 PUSH20 0xFFFFFFFFFFFFFFFFFFFFFFFFFFFFFFFFFFFFFFFF AND SUB PUSH3 0x1AA JUMPI PUSH0 PUSH1 0x40 MLOAD PUSH32 0x1E4FBDF700000000000000000000000000000000000000000000000000000000 DUP2 MSTORE PUSH1 0x4 ADD PUSH3 0x1A1 SWAP2 SWAP1 PUSH3 0x849 JUMP JUMPDEST PUSH1 0x40 MLOAD DUP1 SWAP2 SUB SWAP1 REVERT JUMPDEST PUSH3 0x1BB DUP2 PUSH3 0x274 PUSH1 0x20 SHL PUSH1 0x20 SHR JUMP JUMPDEST POP PUSH3 0x1D2 PUSH1 0x6 DUP4 PUSH3 0x337 PUSH1 0x20 SHL SWAP1 SWAP2 SWAP1 PUSH1 0x20 SHR JUMP JUMPDEST PUSH2 0x120 DUP2 DUP2 MSTORE POP POP PUSH3 0x1F0 PUSH1 0x7 DUP3 PUSH3 0x337 PUSH1 0x20 SHL SWAP1 SWAP2 SWAP1 PUSH1 0x20 SHR JUMP JUMPDEST PUSH2 0x140 DUP2 DUP2 MSTORE POP POP DUP2 DUP1 MLOAD SWAP1 PUSH1 0x20 ADD KECCAK256 PUSH1 0xE0 DUP2 DUP2 MSTORE POP POP DUP1 DUP1 MLOAD SWAP1 PUSH1 0x20 ADD KECCAK256 PUSH2 0x100 DUP2 DUP2 MSTORE POP POP CHAINID PUSH1 0xA0 DUP2 DUP2 MSTORE POP POP PUSH3 0x22F PUSH3 0x38C PUSH1 0x20 SHL PUSH1 0x20 SHR JUMP JUMPDEST PUSH1 0x80 DUP2 DUP2 MSTORE POP POP ADDRESS PUSH20 0xFFFFFFFFFFFFFFFFFFFFFFFFFFFFFFFFFFFFFFFF AND PUSH1 0xC0 DUP2 PUSH20 0xFFFFFFFFFFFFFFFFFFFFFFFFFFFFFFFFFFFFFFFF AND DUP2 MSTORE POP POP POP POP POP POP PUSH3 0xA34 JUMP JUMPDEST PUSH0 PUSH1 0x5 PUSH0 SWAP1 SLOAD SWAP1 PUSH2 0x100 EXP SWAP1 DIV PUSH20 0xFFFFFFFFFFFFFFFFFFFFFFFFFFFFFFFFFFFFFFFF AND SWAP1 POP DUP2 PUSH1 0x5 PUSH0 PUSH2 0x100 EXP DUP2 SLOAD DUP2 PUSH20 0xFFFFFFFFFFFFFFFFFFFFFFFFFFFFFFFFFFFFFFFF MUL NOT AND SWAP1 DUP4 PUSH20 0xFFFFFFFFFFFFFFFFFFFFFFFFFFFFFFFFFFFFFFFF AND MUL OR SWAP1 SSTORE POP DUP2 PUSH20 0xFFFFFFFFFFFFFFFFFFFFFFFFFFFFFFFFFFFFFFFF AND DUP2 PUSH20 0xFFFFFFFFFFFFFFFFFFFFFFFFFFFFFFFFFFFFFFFF AND PUSH32 0x8BE0079C531659141344CD1FD0A4F28419497F9722A3DAAFE3B4186F6B6457E0 PUSH1 0x40 MLOAD PUSH1 0x40 MLOAD DUP1 SWAP2 SUB SWAP1 LOG3 POP POP JUMP JUMPDEST PUSH0 PUSH1 0x20 DUP4 MLOAD LT ISZERO PUSH3 0x35C JUMPI PUSH3 0x354 DUP4 PUSH3 0x3E8 PUSH1 0x20 SHL PUSH1 0x20 SHR JUMP JUMPDEST SWAP1 POP PUSH3 0x386 JUMP JUMPDEST DUP3 PUSH3 0x36E DUP4 PUSH3 0x452 PUSH1 0x20 SHL PUSH1 0x20 SHR JUMP JUMPDEST PUSH0 ADD SWAP1 DUP2 PUSH3 0x37E SWAP2 SWAP1 PUSH3 0x754 JUMP JUMPDEST POP PUSH1 0xFF PUSH0 SHL SWAP1 POP JUMPDEST SWAP3 SWAP2 POP POP JUMP JUMPDEST PUSH0 PUSH32 0x8B73C3C69BB8FE3D512ECC4CF759CC79239F7B179B0FFACAA9A75D522B39400F PUSH1 0xE0 MLOAD PUSH2 0x100 MLOAD CHAINID ADDRESS PUSH1 0x40 MLOAD PUSH1 0x20 ADD PUSH3 0x3CD SWAP6 SWAP5 SWAP4 SWAP3 SWAP2 SWAP1 PUSH3 0x88F JUMP JUMPDEST PUSH1 0x40 MLOAD PUSH1 0x20 DUP2 DUP4 SUB SUB DUP2 MSTORE SWAP1 PUSH1 0x40 MSTORE DUP1 MLOAD SWAP1 PUSH1 0x20 ADD KECCAK256 SWAP1 POP SWAP1 JUMP JUMPDEST PUSH0 DUP1 DUP3 SWAP1 POP PUSH1 0x1F DUP2 MLOAD GT ISZERO PUSH3 0x437 JUMPI DUP3 PUSH1 0x40 MLOAD PUSH32 0x305A27A900000000000000000000000000000000000000000000000000000000 DUP2 MSTORE PUSH1 0x4 ADD PUSH3 0x42E SWAP2 SWAP1 PUSH3 0x974 JUMP JUMPDEST PUSH1 0x40 MLOAD DUP1 SWAP2 SUB SWAP1 REVERT JUMPDEST DUP1 MLOAD DUP2 PUSH3 0x445 SWAP1 PUSH3 0x9C5 JUMP JUMPDEST PUSH0 SHR OR PUSH0 SHL SWAP2 POP POP SWAP2 SWAP1 POP JUMP JUMPDEST PUSH0 DUP2 SWAP1 POP SWAP2 SWAP1 POP JUMP JUMPDEST PUSH0 DUP1 REVERT JUMPDEST PUSH0 PUSH20 0xFFFFFFFFFFFFFFFFFFFFFFFFFFFFFFFFFFFFFFFF DUP3 AND SWAP1 POP SWAP2 SWAP1 POP JUMP JUMPDEST PUSH0 PUSH3 0x48A DUP3 PUSH3 0x45F JUMP JUMPDEST SWAP1 POP SWAP2 SWAP1 POP JUMP JUMPDEST PUSH3 0x49C DUP2 PUSH3 0x47E JUMP JUMPDEST DUP2 EQ PUSH3 0x4A7 JUMPI PUSH0 DUP1 REVERT JUMPDEST POP JUMP JUMPDEST PUSH0 DUP2 MLOAD SWAP1 POP PUSH3 0x4BA DUP2 PUSH3 0x491 JUMP JUMPDEST SWAP3 SWAP2 POP POP JUMP JUMPDEST PUSH0 PUSH1 0x20 DUP3 DUP5 SUB SLT ISZERO PUSH3 0x4D8 JUMPI PUSH3 0x4D7 PUSH3 0x45B JUMP JUMPDEST JUMPDEST PUSH0 PUSH3 0x4E7 DUP5 DUP3 DUP6 ADD PUSH3 0x4AA JUMP JUMPDEST SWAP2 POP POP SWAP3 SWAP2 POP POP JUMP JUMPDEST PUSH0 DUP2 MLOAD SWAP1 POP SWAP2 SWAP1 POP JUMP JUMPDEST PUSH32 0x4E487B7100000000000000000000000000000000000000000000000000000000 PUSH0 MSTORE PUSH1 0x41 PUSH1 0x4 MSTORE PUSH1 0x24 PUSH0 REVERT JUMPDEST PUSH32 0x4E487B7100000000000000000000000000000000000000000000000000000000 PUSH0 MSTORE PUSH1 0x22 PUSH1 0x4 MSTORE PUSH1 0x24 PUSH0 REVERT JUMPDEST PUSH0 PUSH1 0x2 DUP3 DIV SWAP1 POP PUSH1 0x1 DUP3 AND DUP1 PUSH3 0x56C JUMPI PUSH1 0x7F DUP3 AND SWAP2 POP JUMPDEST PUSH1 0x20 DUP3 LT DUP2 SUB PUSH3 0x582 JUMPI PUSH3 0x581 PUSH3 0x527 JUMP JUMPDEST JUMPDEST POP SWAP2 SWAP1 POP JUMP JUMPDEST PUSH0 DUP2 SWAP1 POP DUP2 PUSH0 MSTORE PUSH1 0x20 PUSH0 KECCAK256 SWAP1 POP SWAP2 SWAP1 POP JUMP JUMPDEST PUSH0 PUSH1 0x20 PUSH1 0x1F DUP4 ADD DIV SWAP1 POP SWAP2 SWAP1 POP JUMP JUMPDEST PUSH0 DUP3 DUP3 SHL SWAP1 POP SWAP3 SWAP2 POP POP JUMP JUMPDEST PUSH0 PUSH1 0x8 DUP4 MUL PUSH3 0x5E6 PUSH32 0xFFFFFFFFFFFFFFFFFFFFFFFFFFFFFFFFFFFFFFFFFFFFFFFFFFFFFFFFFFFFFFFF DUP3 PUSH3 0x5A9 JUMP JUMPDEST PUSH3 0x5F2 DUP7 DUP4 PUSH3 0x5A9 JUMP JUMPDEST SWAP6 POP DUP1 NOT DUP5 AND SWAP4 POP DUP1 DUP7 AND DUP5 OR SWAP3 POP POP POP SWAP4 SWAP3 POP POP POP JUMP JUMPDEST PUSH0 DUP2 SWAP1 POP SWAP2 SWAP1 POP JUMP JUMPDEST PUSH0 DUP2 SWAP1 POP SWAP2 SWAP1 POP JUMP JUMPDEST PUSH0 PUSH3 0x63C PUSH3 0x636 PUSH3 0x630 DUP5 PUSH3 0x60A JUMP JUMPDEST PUSH3 0x613 JUMP JUMPDEST PUSH3 0x60A JUMP JUMPDEST SWAP1 POP SWAP2 SWAP1 POP JUMP JUMPDEST PUSH0 DUP2 SWAP1 POP SWAP2 SWAP1 POP JUMP JUMPDEST PUSH3 0x657 DUP4 PUSH3 0x61C JUMP JUMPDEST PUSH3 0x66F PUSH3 0x666 DUP3 PUSH3 0x643 JUMP JUMPDEST DUP5 DUP5 SLOAD PUSH3 0x5B5 JUMP JUMPDEST DUP3 SSTORE POP POP POP POP JUMP JUMPDEST PUSH0 SWAP1 JUMP JUMPDEST PUSH3 0x685 PUSH3 0x677 JUMP JUMPDEST PUSH3 0x692 DUP2 DUP5 DUP5 PUSH3 0x64C JUMP JUMPDEST POP POP POP JUMP JUMPDEST JUMPDEST DUP2 DUP2 LT ISZERO PUSH3 0x6B9 JUMPI PUSH3 0x6AD PUSH0 DUP3 PUSH3 0x67B JUMP JUMPDEST PUSH1 0x1 DUP2 ADD SWAP1 POP PUSH3 0x698 JUMP JUMPDEST POP POP JUMP JUMPDEST PUSH1 0x1F DUP3 GT ISZERO PUSH3 0x708 JUMPI PUSH3 0x6D2 DUP2 PUSH3 0x588 JUMP JUMPDEST PUSH3 0x6DD DUP5 PUSH3 0x59A JUMP JUMPDEST DUP2 ADD PUSH1 0x20 DUP6 LT ISZERO PUSH3 0x6ED JUMPI DUP2 SWAP1 POP JUMPDEST PUSH3 0x705 PUSH3 0x6FC DUP6 PUSH3 0x59A JUMP JUMPDEST DUP4 ADD DUP3 PUSH3 0x697 JUMP JUMPDEST POP POP JUMPDEST POP POP POP JUMP JUMPDEST PUSH0 DUP3 DUP3 SHR SWAP1 POP SWAP3 SWAP2 POP POP JUMP JUMPDEST PUSH0 PUSH3 0x72A PUSH0 NOT DUP5 PUSH1 0x8 MUL PUSH3 0x70D JUMP JUMPDEST NOT DUP1 DUP4 AND SWAP2 POP POP SWAP3 SWAP2 POP POP JUMP JUMPDEST PUSH0 PUSH3 0x744 DUP4 DUP4 PUSH3 0x719 JUMP JUMPDEST SWAP2 POP DUP3 PUSH1 0x2 MUL DUP3 OR SWAP1 POP SWAP3 SWAP2 POP POP JUMP JUMPDEST PUSH3 0x75F DUP3 PUSH3 0x4F0 JUMP JUMPDEST PUSH8 0xFFFFFFFFFFFFFFFF DUP2 GT ISZERO PUSH3 0x77B JUMPI PUSH3 0x77A PUSH3 0x4FA JUMP JUMPDEST JUMPDEST PUSH3 0x787 DUP3 SLOAD PUSH3 0x554 JUMP JUMPDEST PUSH3 0x794 DUP3 DUP3 DUP6 PUSH3 0x6BD JUMP JUMPDEST PUSH0 PUSH1 0x20 SWAP1 POP PUSH1 0x1F DUP4 GT PUSH1 0x1 DUP2 EQ PUSH3 0x7CA JUMPI PUSH0 DUP5 ISZERO PUSH3 0x7B5 JUMPI DUP3 DUP8 ADD MLOAD SWAP1 POP JUMPDEST PUSH3 0x7C1 DUP6 DUP3 PUSH3 0x737 JUMP JUMPDEST DUP7 SSTORE POP PUSH3 0x830 JUMP JUMPDEST PUSH1 0x1F NOT DUP5 AND PUSH3 0x7DA DUP7 PUSH3 0x588 JUMP JUMPDEST PUSH0 JUMPDEST DUP3 DUP2 LT ISZERO PUSH3 0x803 JUMPI DUP5 DUP10 ADD MLOAD DUP3 SSTORE PUSH1 0x1 DUP3 ADD SWAP2 POP PUSH1 0x20 DUP6 ADD SWAP5 POP PUSH1 0x20 DUP2 ADD SWAP1 POP PUSH3 0x7DC JUMP JUMPDEST DUP7 DUP4 LT ISZERO PUSH3 0x823 JUMPI DUP5 DUP10 ADD MLOAD PUSH3 0x81F PUSH1 0x1F DUP10 AND DUP3 PUSH3 0x719 JUMP JUMPDEST DUP4 SSTORE POP JUMPDEST PUSH1 0x1 PUSH1 0x2 DUP9 MUL ADD DUP9 SSTORE POP POP POP JUMPDEST POP POP POP POP POP POP JUMP JUMPDEST PUSH3 0x843 DUP2 PUSH3 0x47E JUMP JUMPDEST DUP3 MSTORE POP POP JUMP JUMPDEST PUSH0 PUSH1 0x20 DUP3 ADD SWAP1 POP PUSH3 0x85E PUSH0 DUP4 ADD DUP5 PUSH3 0x838 JUMP JUMPDEST SWAP3 SWAP2 POP POP JUMP JUMPDEST PUSH0 DUP2 SWAP1 POP SWAP2 SWAP1 POP JUMP JUMPDEST PUSH3 0x878 DUP2 PUSH3 0x864 JUMP JUMPDEST DUP3 MSTORE POP POP JUMP JUMPDEST PUSH3 0x889 DUP2 PUSH3 0x60A JUMP JUMPDEST DUP3 MSTORE POP POP JUMP JUMPDEST PUSH0 PUSH1 0xA0 DUP3 ADD SWAP1 POP PUSH3 0x8A4 PUSH0 DUP4 ADD DUP9 PUSH3 0x86D JUMP JUMPDEST PUSH3 0x8B3 PUSH1 0x20 DUP4 ADD DUP8 PUSH3 0x86D JUMP JUMPDEST PUSH3 0x8C2 PUSH1 0x40 DUP4 ADD DUP7 PUSH3 0x86D JUMP JUMPDEST PUSH3 0x8D1 PUSH1 0x60 DUP4 ADD DUP6 PUSH3 0x87E JUMP JUMPDEST PUSH3 0x8E0 PUSH1 0x80 DUP4 ADD DUP5 PUSH3 0x838 JUMP JUMPDEST SWAP7 SWAP6 POP POP POP POP POP POP JUMP JUMPDEST PUSH0 DUP3 DUP3 MSTORE PUSH1 0x20 DUP3 ADD SWAP1 POP SWAP3 SWAP2 POP POP JUMP JUMPDEST PUSH0 JUMPDEST DUP4 DUP2 LT ISZERO PUSH3 0x919 JUMPI DUP1 DUP3 ADD MLOAD DUP2 DUP5 ADD MSTORE PUSH1 0x20 DUP2 ADD SWAP1 POP PUSH3 0x8FC JUMP JUMPDEST PUSH0 DUP5 DUP5 ADD MSTORE POP POP POP POP JUMP JUMPDEST PUSH0 PUSH1 0x1F NOT PUSH1 0x1F DUP4 ADD AND SWAP1 POP SWAP2 SWAP1 POP JUMP JUMPDEST PUSH0 PUSH3 0x940 DUP3 PUSH3 0x4F0 JUMP JUMPDEST PUSH3 0x94C DUP2 DUP6 PUSH3 0x8EA JUMP JUMPDEST SWAP4 POP PUSH3 0x95E DUP2 DUP6 PUSH1 0x20 DUP7 ADD PUSH3 0x8FA JUMP JUMPDEST PUSH3 0x969 DUP2 PUSH3 0x924 JUMP JUMPDEST DUP5 ADD SWAP2 POP POP SWAP3 SWAP2 POP POP JUMP JUMPDEST PUSH0 PUSH1 0x20 DUP3 ADD SWAP1 POP DUP2 DUP2 SUB PUSH0 DUP4 ADD MSTORE PUSH3 0x98E DUP2 DUP5 PUSH3 0x934 JUMP JUMPDEST SWAP1 POP SWAP3 SWAP2 POP POP JUMP JUMPDEST PUSH0 DUP2 MLOAD SWAP1 POP SWAP2 SWAP1 POP JUMP JUMPDEST PUSH0 DUP2 SWAP1 POP PUSH1 0x20 DUP3 ADD SWAP1 POP SWAP2 SWAP1 POP JUMP JUMPDEST PUSH0 PUSH3 0x9BC DUP3 MLOAD PUSH3 0x864 JUMP JUMPDEST DUP1 SWAP2 POP POP SWAP2 SWAP1 POP JUMP JUMPDEST PUSH0 PUSH3 0x9D1 DUP3 PUSH3 0x996 JUMP JUMPDEST DUP3 PUSH3 0x9DD DUP5 PUSH3 0x9A0 JUMP JUMPDEST SWAP1 POP PUSH3 0x9EA DUP2 PUSH3 0x9AF JUMP JUMPDEST SWAP3 POP PUSH1 0x20 DUP3 LT ISZERO PUSH3 0xA2D JUMPI PUSH3 0xA28 PUSH32 0xFFFFFFFFFFFFFFFFFFFFFFFFFFFFFFFFFFFFFFFFFFFFFFFFFFFFFFFFFFFFFFFF DUP4 PUSH1 0x20 SUB PUSH1 0x8 MUL PUSH3 0x5A9 JUMP JUMPDEST DUP4 AND SWAP3 POP JUMPDEST POP POP SWAP2 SWAP1 POP JUMP JUMPDEST PUSH1 0x80 MLOAD PUSH1 0xA0 MLOAD PUSH1 0xC0 MLOAD PUSH1 0xE0 MLOAD PUSH2 0x100 MLOAD PUSH2 0x120 MLOAD PUSH2 0x140 MLOAD PUSH2 0x2350 PUSH3 0xA86 PUSH0 CODECOPY PUSH0 PUSH2 0xFAE ADD MSTORE PUSH0 PUSH2 0xF73 ADD MSTORE PUSH0 PUSH2 0x14A7 ADD MSTORE PUSH0 PUSH2 0x1486 ADD MSTORE PUSH0 PUSH2 0xC29 ADD MSTORE PUSH0 PUSH2 0xC7F ADD MSTORE PUSH0 PUSH2 0xCA8 ADD MSTORE PUSH2 0x2350 PUSH0 RETURN INVALID PUSH1 0x80 PUSH1 0x40 MSTORE CALLVALUE DUP1 ISZERO PUSH2 0xF JUMPI PUSH0 DUP1 REVERT JUMPDEST POP PUSH1 0x4 CALLDATASIZE LT PUSH2 0x135 JUMPI PUSH0 CALLDATALOAD PUSH1 0xE0 SHR DUP1 PUSH4 0x715018A6 GT PUSH2 0xB6 JUMPI DUP1 PUSH4 0x95D89B41 GT PUSH2 0x7A JUMPI DUP1 PUSH4 0x95D89B41 EQ PUSH2 0x341 JUMPI DUP1 PUSH4 0xA9059CBB EQ PUSH2 0x35F JUMPI DUP1 PUSH4 0xABD81CA2 EQ PUSH2 0x38F JUMPI DUP1 PUSH4 0xD505ACCF EQ PUSH2 0x3BF JUMPI DUP1 PUSH4 0xDD62ED3E EQ PUSH2 0x3DB JUMPI DUP1 PUSH4 0xF2FDE38B EQ PUSH2 0x40B JUMPI PUSH2 0x135 JUMP JUMPDEST DUP1 PUSH4 0x715018A6 EQ PUSH2 0x2A9 JUMPI DUP1 PUSH4 0x79CC6790 EQ PUSH2 0x2B3 JUMPI DUP1 PUSH4 0x7ECEBE00 EQ PUSH2 0x2CF JUMPI DUP1 PUSH4 0x84B0196E EQ PUSH2 0x2FF JUMPI DUP1 PUSH4 0x8DA5CB5B EQ PUSH2 0x323 JUMPI PUSH2 0x135 JUMP JUMPDEST DUP1 PUSH4 0x3644E515 GT PUSH2 0xFD JUMPI DUP1 PUSH4 0x3644E515 EQ PUSH2 0x1F3 JUMPI DUP1 PUSH4 0x40C10F19 EQ PUSH2 0x211 JUMPI DUP1 PUSH4 0x42966C68 EQ PUSH2 0x22D JUMPI DUP1 PUSH4 0x4CD83D75 EQ PUSH2 0x249 JUMPI DUP1 PUSH4 0x70A08231 EQ PUSH2 0x279 JUMPI PUSH2 0x135 JUMP JUMPDEST DUP1 PUSH4 0x6FDDE03 EQ PUSH2 0x139 JUMPI DUP1 PUSH4 0x95EA7B3 EQ PUSH2 0x157 JUMPI DUP1 PUSH4 0x18160DDD EQ PUSH2 0x187 JUMPI DUP1 PUSH4 0x23B872DD EQ PUSH2 0x1A5 JUMPI DUP1 PUSH4 0x313CE567 EQ PUSH2 0x1D5 JUMPI JUMPDEST PUSH0 DUP1 REVERT JUMPDEST PUSH2 0x141 PUSH2 0x427 JUMP JUMPDEST PUSH1 0x40 MLOAD PUSH2 0x14E SWAP2 SWAP1 PUSH2 0x1977 JUMP JUMPDEST PUSH1 0x40 MLOAD DUP1 SWAP2 SUB SWAP1 RETURN JUMPDEST PUSH2 0x171 PUSH1 0x4 DUP1 CALLDATASIZE SUB DUP2 ADD SWAP1 PUSH2 0x16C SWAP2 SWAP1 PUSH2 0x1A28 JUMP JUMPDEST PUSH2 0x4B7 JUMP JUMPDEST PUSH1 0x40 MLOAD PUSH2 0x17E SWAP2 SWAP1 PUSH2 0x1A80 JUMP JUMPDEST PUSH1 0x40 MLOAD DUP1 SWAP2 SUB SWAP1 RETURN JUMPDEST PUSH2 0x18F PUSH2 0x4D9 JUMP JUMPDEST PUSH1 0x40 MLOAD PUSH2 0x19C SWAP2 SWAP1 PUSH2 0x1AA8 JUMP JUMPDEST PUSH1 0x40 MLOAD DUP1 SWAP2 SUB SWAP1 RETURN JUMPDEST PUSH2 0x1BF PUSH1 0x4 DUP1 CALLDATASIZE SUB DUP2 ADD SWAP1 PUSH2 0x1BA SWAP2 SWAP1 PUSH2 0x1AC1 JUMP JUMPDEST PUSH2 0x4E2 JUMP JUMPDEST PUSH1 0x40 MLOAD PUSH2 0x1CC SWAP2 SWAP1 PUSH2 0x1A80 JUMP JUMPDEST PUSH1 0x40 MLOAD DUP1 SWAP2 SUB SWAP1 RETURN JUMPDEST PUSH2 0x1DD PUSH2 0x510 JUMP JUMPDEST PUSH1 0x40 MLOAD PUSH2 0x1EA SWAP2 SWAP1 PUSH2 0x1B2C JUMP JUMPDEST PUSH1 0x40 MLOAD DUP1 SWAP2 SUB SWAP1 RETURN JUMPDEST PUSH2 0x1FB PUSH2 0x518 JUMP JUMPDEST PUSH1 0x40 MLOAD PUSH2 0x208 SWAP2 SWAP1 PUSH2 0x1B5D JUMP JUMPDEST PUSH1 0x40 MLOAD DUP1 SWAP2 SUB SWAP1 RETURN JUMPDEST PUSH2 0x22B PUSH1 0x4 DUP1 CALLDATASIZE SUB DUP2 ADD SWAP1 PUSH2 0x226 SWAP2 SWAP1 PUSH2 0x1A28 JUMP JUMPDEST PUSH2 0x526 JUMP JUMPDEST STOP JUMPDEST PUSH2 0x247 PUSH1 0x4 DUP1 CALLDATASIZE SUB DUP2 ADD SWAP1 PUSH2 0x242 SWAP2 SWAP1 PUSH2 0x1B76 JUMP JUMPDEST PUSH2 0x55D JUMP JUMPDEST STOP JUMPDEST PUSH2 0x263 PUSH1 0x4 DUP1 CALLDATASIZE SUB DUP2 ADD SWAP1 PUSH2 0x25E SWAP2 SWAP1 PUSH2 0x1AC1 JUMP JUMPDEST PUSH2 0x571 JUMP JUMPDEST PUSH1 0x40 MLOAD PUSH2 0x270 SWAP2 SWAP1 PUSH2 0x1A80 JUMP JUMPDEST PUSH1 0x40 MLOAD DUP1 SWAP2 SUB SWAP1 RETURN JUMPDEST PUSH2 0x293 PUSH1 0x4 DUP1 CALLDATASIZE SUB DUP2 ADD SWAP1 PUSH2 0x28E SWAP2 SWAP1 PUSH2 0x1BA1 JUMP JUMPDEST PUSH2 0x5D3 JUMP JUMPDEST PUSH1 0x40 MLOAD PUSH2 0x2A0 SWAP2 SWAP1 PUSH2 0x1AA8 JUMP JUMPDEST PUSH1 0x40 MLOAD DUP1 SWAP2 SUB SWAP1 RETURN JUMPDEST PUSH2 0x2B1 PUSH2 0x618 JUMP JUMPDEST STOP JUMPDEST PUSH2 0x2CD PUSH1 0x4 DUP1 CALLDATASIZE SUB DUP2 ADD SWAP1 PUSH2 0x2C8 SWAP2 SWAP1 PUSH2 0x1A28 JUMP JUMPDEST PUSH2 0x62B JUMP JUMPDEST STOP JUMPDEST PUSH2 0x2E9 PUSH1 0x4 DUP1 CALLDATASIZE SUB DUP2 ADD SWAP1 PUSH2 0x2E4 SWAP2 SWAP1 PUSH2 0x1BA1 JUMP JUMPDEST PUSH2 0x64B JUMP JUMPDEST PUSH1 0x40 MLOAD PUSH2 0x2F6 SWAP2 SWAP1 PUSH2 0x1AA8 JUMP JUMPDEST PUSH1 0x40 MLOAD DUP1 SWAP2 SUB SWAP1 RETURN JUMPDEST PUSH2 0x307 PUSH2 0x65C JUMP JUMPDEST PUSH1 0x40 MLOAD PUSH2 0x31A SWAP8 SWAP7 SWAP6 SWAP5 SWAP4 SWAP3 SWAP2 SWAP1 PUSH2 0x1CCC JUMP JUMPDEST PUSH1 0x40 MLOAD DUP1 SWAP2 SUB SWAP1 RETURN JUMPDEST PUSH2 0x32B PUSH2 0x701 JUMP JUMPDEST PUSH1 0x40 MLOAD PUSH2 0x338 SWAP2 SWAP1 PUSH2 0x1D4E JUMP JUMPDEST PUSH1 0x40 MLOAD DUP1 SWAP2 SUB SWAP1 RETURN JUMPDEST PUSH2 0x349 PUSH2 0x729 JUMP JUMPDEST PUSH1 0x40 MLOAD PUSH2 0x356 SWAP2 SWAP1 PUSH2 0x1977 JUMP JUMPDEST PUSH1 0x40 MLOAD DUP1 SWAP2 SUB SWAP1 RETURN JUMPDEST PUSH2 0x379 PUSH1 0x4 DUP1 CALLDATASIZE SUB DUP2 ADD SWAP1 PUSH2 0x374 SWAP2 SWAP1 PUSH2 0x1A28 JUMP JUMPDEST PUSH2 0x7B9 JUMP JUMPDEST PUSH1 0x40 MLOAD PUSH2 0x386 SWAP2 SWAP1 PUSH2 0x1A80 JUMP JUMPDEST PUSH1 0x40 MLOAD DUP1 SWAP2 SUB SWAP1 RETURN JUMPDEST PUSH2 0x3A9 PUSH1 0x4 DUP1 CALLDATASIZE SUB DUP2 ADD SWAP1 PUSH2 0x3A4 SWAP2 SWAP1 PUSH2 0x1D67 JUMP JUMPDEST PUSH2 0x7DB JUMP JUMPDEST PUSH1 0x40 MLOAD PUSH2 0x3B6 SWAP2 SWAP1 PUSH2 0x1A80 JUMP JUMPDEST PUSH1 0x40 MLOAD DUP1 SWAP2 SUB SWAP1 RETURN JUMPDEST PUSH2 0x3D9 PUSH1 0x4 DUP1 CALLDATASIZE SUB DUP2 ADD SWAP1 PUSH2 0x3D4 SWAP2 SWAP1 PUSH2 0x1E1F JUMP JUMPDEST PUSH2 0x840 JUMP JUMPDEST STOP JUMPDEST PUSH2 0x3F5 PUSH1 0x4 DUP1 CALLDATASIZE SUB DUP2 ADD SWAP1 PUSH2 0x3F0 SWAP2 SWAP1 PUSH2 0x1EBC JUMP JUMPDEST PUSH2 0x985 JUMP JUMPDEST PUSH1 0x40 MLOAD PUSH2 0x402 SWAP2 SWAP1 PUSH2 0x1AA8 JUMP JUMPDEST PUSH1 0x40 MLOAD DUP1 SWAP2 SUB SWAP1 RETURN JUMPDEST PUSH2 0x425 PUSH1 0x4 DUP1 CALLDATASIZE SUB DUP2 ADD SWAP1 PUSH2 0x420 SWAP2 SWAP1 PUSH2 0x1BA1 JUMP JUMPDEST PUSH2 0xA07 JUMP JUMPDEST STOP JUMPDEST PUSH1 0x60 PUSH1 0x3 DUP1 SLOAD PUSH2 0x436 SWAP1 PUSH2 0x1F27 JUMP JUMPDEST DUP1 PUSH1 0x1F ADD PUSH1 0x20 DUP1 SWAP2 DIV MUL PUSH1 0x20 ADD PUSH1 0x40 MLOAD SWAP1 DUP2 ADD PUSH1 0x40 MSTORE DUP1 SWAP3 SWAP2 SWAP1 DUP2 DUP2 MSTORE PUSH1 0x20 ADD DUP3 DUP1 SLOAD PUSH2 0x462 SWAP1 PUSH2 0x1F27 JUMP JUMPDEST DUP1 ISZERO PUSH2 0x4AD JUMPI DUP1 PUSH1 0x1F LT PUSH2 0x484 JUMPI PUSH2 0x100 DUP1 DUP4 SLOAD DIV MUL DUP4 MSTORE SWAP2 PUSH1 0x20 ADD SWAP2 PUSH2 0x4AD JUMP JUMPDEST DUP3 ADD SWAP2 SWAP1 PUSH0 MSTORE PUSH1 0x20 PUSH0 KECCAK256 SWAP1 JUMPDEST DUP2 SLOAD DUP2 MSTORE SWAP1 PUSH1 0x1 ADD SWAP1 PUSH1 0x20 ADD DUP1 DUP4 GT PUSH2 0x490 JUMPI DUP3 SWAP1 SUB PUSH1 0x1F AND DUP3 ADD SWAP2 JUMPDEST POP POP POP POP POP SWAP1 POP SWAP1 JUMP JUMPDEST PUSH0 DUP1 PUSH2 0x4C1 PUSH2 0xA8B JUMP JUMPDEST SWAP1 POP PUSH2 0x4CE DUP2 DUP6 DUP6 PUSH2 0xA92 JUMP JUMPDEST PUSH1 0x1 SWAP2 POP POP SWAP3 SWAP2 POP POP JUMP JUMPDEST PUSH0 PUSH1 0x2 SLOAD SWAP1 POP SWAP1 JUMP JUMPDEST PUSH0 DUP1 PUSH2 0x4EC PUSH2 0xA8B JUMP JUMPDEST SWAP1 POP PUSH2 0x4F9 DUP6 DUP3 DUP6 PUSH2 0xAA4 JUMP JUMPDEST PUSH2 0x504 DUP6 DUP6 DUP6 PUSH2 0xB36 JUMP JUMPDEST PUSH1 0x1 SWAP2 POP POP SWAP4 SWAP3 POP POP POP JUMP JUMPDEST PUSH0 PUSH1 0x12 SWAP1 POP SWAP1 JUMP JUMPDEST PUSH0 PUSH2 0x521 PUSH2 0xC26 JUMP JUMPDEST SWAP1 POP SWAP1 JUMP JUMPDEST PUSH2 0x52E PUSH2 0xCDC JUMP JUMPDEST PUSH2 0x559 DUP3 PUSH2 0x53A PUSH2 0x510 JUMP JUMPDEST PUSH1 0xFF AND PUSH1 0xA PUSH2 0x549 SWAP2 SWAP1 PUSH2 0x20B3 JUMP JUMPDEST DUP4 PUSH2 0x554 SWAP2 SWAP1 PUSH2 0x20FD JUMP JUMPDEST PUSH2 0xD63 JUMP JUMPDEST POP POP JUMP JUMPDEST PUSH2 0x56E PUSH2 0x568 PUSH2 0xA8B JUMP JUMPDEST DUP3 PUSH2 0xDE2 JUMP JUMPDEST POP JUMP JUMPDEST PUSH0 PUSH2 0x59D DUP5 PUSH2 0x57E PUSH2 0x510 JUMP JUMPDEST PUSH1 0xFF AND PUSH1 0xA PUSH2 0x58D SWAP2 SWAP1 PUSH2 0x20B3 JUMP JUMPDEST DUP5 PUSH2 0x598 SWAP2 SWAP1 PUSH2 0x20FD JUMP JUMPDEST PUSH2 0x4B7 JUMP JUMPDEST POP PUSH2 0x5CA DUP5 DUP5 PUSH2 0x5AB PUSH2 0x510 JUMP JUMPDEST PUSH1 0xFF AND PUSH1 0xA PUSH2 0x5BA SWAP2 SWAP1 PUSH2 0x20B3 JUMP JUMPDEST DUP6 PUSH2 0x5C5 SWAP2 SWAP1 PUSH2 0x20FD JUMP JUMPDEST PUSH2 0x4E2 JUMP JUMPDEST SWAP1 POP SWAP4 SWAP3 POP POP POP JUMP JUMPDEST PUSH0 DUP1 PUSH0 DUP4 PUSH20 0xFFFFFFFFFFFFFFFFFFFFFFFFFFFFFFFFFFFFFFFF AND PUSH20 0xFFFFFFFFFFFFFFFFFFFFFFFFFFFFFFFFFFFFFFFF AND DUP2 MSTORE PUSH1 0x20 ADD SWAP1 DUP2 MSTORE PUSH1 0x20 ADD PUSH0 KECCAK256 SLOAD SWAP1 POP SWAP2 SWAP1 POP JUMP JUMPDEST PUSH2 0x620 PUSH2 0xCDC JUMP JUMPDEST PUSH2 0x629 PUSH0 PUSH2 0xE61 JUMP JUMPDEST JUMP JUMPDEST PUSH2 0x63D DUP3 PUSH2 0x637 PUSH2 0xA8B JUMP JUMPDEST DUP4 PUSH2 0xAA4 JUMP JUMPDEST PUSH2 0x647 DUP3 DUP3 PUSH2 0xDE2 JUMP JUMPDEST POP POP JUMP JUMPDEST PUSH0 PUSH2 0x655 DUP3 PUSH2 0xF24 JUMP JUMPDEST SWAP1 POP SWAP2 SWAP1 POP JUMP JUMPDEST PUSH0 PUSH1 0x60 DUP1 PUSH0 DUP1 PUSH0 PUSH1 0x60 PUSH2 0x66D PUSH2 0xF6A JUMP JUMPDEST PUSH2 0x675 PUSH2 0xFA5 JUMP JUMPDEST CHAINID ADDRESS PUSH0 DUP1 SHL PUSH0 PUSH8 0xFFFFFFFFFFFFFFFF DUP2 GT ISZERO PUSH2 0x694 JUMPI PUSH2 0x693 PUSH2 0x213E JUMP JUMPDEST JUMPDEST PUSH1 0x40 MLOAD SWAP1 DUP1 DUP3 MSTORE DUP1 PUSH1 0x20 MUL PUSH1 0x20 ADD DUP3 ADD PUSH1 0x40 MSTORE DUP1 ISZERO PUSH2 0x6C2 JUMPI DUP2 PUSH1 0x20 ADD PUSH1 0x20 DUP3 MUL DUP1 CALLDATASIZE DUP4 CALLDATACOPY DUP1 DUP3 ADD SWAP2 POP POP SWAP1 POP JUMPDEST POP PUSH32 0xF00000000000000000000000000000000000000000000000000000000000000 SWAP6 SWAP5 SWAP4 SWAP3 SWAP2 SWAP1 SWAP7 POP SWAP7 POP SWAP7 POP SWAP7 POP SWAP7 POP SWAP7 POP SWAP7 POP SWAP1 SWAP2 SWAP3 SWAP4 SWAP5 SWAP6 SWAP7 JUMP JUMPDEST PUSH0 PUSH1 0x5 PUSH0 SWAP1 SLOAD SWAP1 PUSH2 0x100 EXP SWAP1 DIV PUSH20 0xFFFFFFFFFFFFFFFFFFFFFFFFFFFFFFFFFFFFFFFF AND SWAP1 POP SWAP1 JUMP JUMPDEST PUSH1 0x60 PUSH1 0x4 DUP1 SLOAD PUSH2 0x738 SWAP1 PUSH2 0x1F27 JUMP JUMPDEST DUP1 PUSH1 0x1F ADD PUSH1 0x20 DUP1 SWAP2 DIV MUL PUSH1 0x20 ADD PUSH1 0x40 MLOAD SWAP1 DUP2 ADD PUSH1 0x40 MSTORE DUP1 SWAP3 SWAP2 SWAP1 DUP2 DUP2 MSTORE PUSH1 0x20 ADD DUP3 DUP1 SLOAD PUSH2 0x764 SWAP1 PUSH2 0x1F27 JUMP JUMPDEST DUP1 ISZERO PUSH2 0x7AF JUMPI DUP1 PUSH1 0x1F LT PUSH2 0x786 JUMPI PUSH2 0x100 DUP1 DUP4 SLOAD DIV MUL DUP4 MSTORE SWAP2 PUSH1 0x20 ADD SWAP2 PUSH2 0x7AF JUMP JUMPDEST DUP3 ADD SWAP2 SWAP1 PUSH0 MSTORE PUSH1 0x20 PUSH0 KECCAK256 SWAP1 JUMPDEST DUP2 SLOAD DUP2 MSTORE SWAP1 PUSH1 0x1 ADD SWAP1 PUSH1 0x20 ADD DUP1 DUP4 GT PUSH2 0x792 JUMPI DUP3 SWAP1 SUB PUSH1 0x1F AND DUP3 ADD SWAP2 JUMPDEST POP POP POP POP POP SWAP1 POP SWAP1 JUMP JUMPDEST PUSH0 DUP1 PUSH2 0x7C3 PUSH2 0xA8B JUMP JUMPDEST SWAP1 POP PUSH2 0x7D0 DUP2 DUP6 DUP6 PUSH2 0xB36 JUMP JUMPDEST PUSH1 0x1 SWAP2 POP POP SWAP3 SWAP2 POP POP JUMP JUMPDEST PUSH0 PUSH2 0x808 DUP3 DUP7 PUSH2 0x7E9 PUSH2 0x510 JUMP JUMPDEST PUSH1 0xFF AND PUSH1 0xA PUSH2 0x7F8 SWAP2 SWAP1 PUSH2 0x20B3 JUMP JUMPDEST DUP7 PUSH2 0x803 SWAP2 SWAP1 PUSH2 0x20FD JUMP JUMPDEST PUSH2 0xAA4 JUMP JUMPDEST PUSH2 0x834 DUP6 DUP6 PUSH2 0x815 PUSH2 0x510 JUMP JUMPDEST PUSH1 0xFF AND PUSH1 0xA PUSH2 0x824 SWAP2 SWAP1 PUSH2 0x20B3 JUMP JUMPDEST DUP7 PUSH2 0x82F SWAP2 SWAP1 PUSH2 0x20FD JUMP JUMPDEST PUSH2 0xB36 JUMP JUMPDEST PUSH1 0x1 SWAP1 POP SWAP5 SWAP4 POP POP POP POP JUMP JUMPDEST DUP4 TIMESTAMP GT ISZERO PUSH2 0x885 JUMPI DUP4 PUSH1 0x40 MLOAD PUSH32 0x6279130200000000000000000000000000000000000000000000000000000000 DUP2 MSTORE PUSH1 0x4 ADD PUSH2 0x87C SWAP2 SWAP1 PUSH2 0x1AA8 JUMP JUMPDEST PUSH1 0x40 MLOAD DUP1 SWAP2 SUB SWAP1 REVERT JUMPDEST PUSH0 PUSH32 0x6E71EDAE12B1B97F4D1F60370FEF10105FA2FAAE0126114A169C64845D6126C9 DUP9 DUP9 DUP9 PUSH2 0x8B3 DUP13 PUSH2 0xFE0 JUMP JUMPDEST DUP10 PUSH1 0x40 MLOAD PUSH1 0x20 ADD PUSH2 0x8C9 SWAP7 SWAP6 SWAP5 SWAP4 SWAP3 SWAP2 SWAP1 PUSH2 0x216B JUMP JUMPDEST PUSH1 0x40 MLOAD PUSH1 0x20 DUP2 DUP4 SUB SUB DUP2 MSTORE SWAP1 PUSH1 0x40 MSTORE DUP1 MLOAD SWAP1 PUSH1 0x20 ADD KECCAK256 SWAP1 POP PUSH0 PUSH2 0x8EB DUP3 PUSH2 0x1033 JUMP JUMPDEST SWAP1 POP PUSH0 PUSH2 0x8FA DUP3 DUP8 DUP8 DUP8 PUSH2 0x104C JUMP JUMPDEST SWAP1 POP DUP10 PUSH20 0xFFFFFFFFFFFFFFFFFFFFFFFFFFFFFFFFFFFFFFFF AND DUP2 PUSH20 0xFFFFFFFFFFFFFFFFFFFFFFFFFFFFFFFFFFFFFFFF AND EQ PUSH2 0x96E JUMPI DUP1 DUP11 PUSH1 0x40 MLOAD PUSH32 0x4B800E4600000000000000000000000000000000000000000000000000000000 DUP2 MSTORE PUSH1 0x4 ADD PUSH2 0x965 SWAP3 SWAP2 SWAP1 PUSH2 0x21CA JUMP JUMPDEST PUSH1 0x40 MLOAD DUP1 SWAP2 SUB SWAP1 REVERT JUMPDEST PUSH2 0x979 DUP11 DUP11 DUP11 PUSH2 0xA92 JUMP JUMPDEST POP POP POP POP POP POP POP POP POP POP JUMP JUMPDEST PUSH0 PUSH1 0x1 PUSH0 DUP5 PUSH20 0xFFFFFFFFFFFFFFFFFFFFFFFFFFFFFFFFFFFFFFFF AND PUSH20 0xFFFFFFFFFFFFFFFFFFFFFFFFFFFFFFFFFFFFFFFF AND DUP2 MSTORE PUSH1 0x20 ADD SWAP1 DUP2 MSTORE PUSH1 0x20 ADD PUSH0 KECCAK256 PUSH0 DUP4 PUSH20 0xFFFFFFFFFFFFFFFFFFFFFFFFFFFFFFFFFFFFFFFF AND PUSH20 0xFFFFFFFFFFFFFFFFFFFFFFFFFFFFFFFFFFFFFFFF AND DUP2 MSTORE PUSH1 0x20 ADD SWAP1 DUP2 MSTORE PUSH1 0x20 ADD PUSH0 KECCAK256 SLOAD SWAP1 POP SWAP3 SWAP2 POP POP JUMP JUMPDEST PUSH2 0xA0F PUSH2 0xCDC JUMP JUMPDEST PUSH0 PUSH20 0xFFFFFFFFFFFFFFFFFFFFFFFFFFFFFFFFFFFFFFFF AND DUP2 PUSH20 0xFFFFFFFFFFFFFFFFFFFFFFFFFFFFFFFFFFFFFFFF AND SUB PUSH2 0xA7F JUMPI PUSH0 PUSH1 0x40 MLOAD PUSH32 0x1E4FBDF700000000000000000000000000000000000000000000000000000000 DUP2 MSTORE PUSH1 0x4 ADD PUSH2 0xA76 SWAP2 SWAP1 PUSH2 0x1D4E JUMP JUMPDEST PUSH1 0x40 MLOAD DUP1 SWAP2 SUB SWAP1 REVERT JUMPDEST PUSH2 0xA88 DUP2 PUSH2 0xE61 JUMP JUMPDEST POP JUMP JUMPDEST PUSH0 CALLER SWAP1 POP SWAP1 JUMP JUMPDEST PUSH2 0xA9F DUP4 DUP4 DUP4 PUSH1 0x1 PUSH2 0x107A JUMP JUMPDEST POP POP POP JUMP JUMPDEST PUSH0 PUSH2 0xAAF DUP5 DUP5 PUSH2 0x985 JUMP JUMPDEST SWAP1 POP PUSH32 0xFFFFFFFFFFFFFFFFFFFFFFFFFFFFFFFFFFFFFFFFFFFFFFFFFFFFFFFFFFFFFFFF DUP2 EQ PUSH2 0xB30 JUMPI DUP2 DUP2 LT ISZERO PUSH2 0xB21 JUMPI DUP3 DUP2 DUP4 PUSH1 0x40 MLOAD PUSH32 0xFB8F41B200000000000000000000000000000000000000000000000000000000 DUP2 MSTORE PUSH1 0x4 ADD PUSH2 0xB18 SWAP4 SWAP3 SWAP2 SWAP1 PUSH2 0x21F1 JUMP JUMPDEST PUSH1 0x40 MLOAD DUP1 SWAP2 SUB SWAP1 REVERT JUMPDEST PUSH2 0xB2F DUP5 DUP5 DUP5 DUP5 SUB PUSH0 PUSH2 0x107A JUMP JUMPDEST JUMPDEST POP POP POP POP JUMP JUMPDEST PUSH0 PUSH20 0xFFFFFFFFFFFFFFFFFFFFFFFFFFFFFFFFFFFFFFFF AND DUP4 PUSH20 0xFFFFFFFFFFFFFFFFFFFFFFFFFFFFFFFFFFFFFFFF AND SUB PUSH2 0xBA6 JUMPI PUSH0 PUSH1 0x40 MLOAD PUSH32 0x96C6FD1E00000000000000000000000000000000000000000000000000000000 DUP2 MSTORE PUSH1 0x4 ADD PUSH2 0xB9D SWAP2 SWAP1 PUSH2 0x1D4E JUMP JUMPDEST PUSH1 0x40 MLOAD DUP1 SWAP2 SUB SWAP1 REVERT JUMPDEST PUSH0 PUSH20 0xFFFFFFFFFFFFFFFFFFFFFFFFFFFFFFFFFFFFFFFF AND DUP3 PUSH20 0xFFFFFFFFFFFFFFFFFFFFFFFFFFFFFFFFFFFFFFFF AND SUB PUSH2 0xC16 JUMPI PUSH0 PUSH1 0x40 MLOAD PUSH32 0xEC442F0500000000000000000000000000000000000000000000000000000000 DUP2 MSTORE PUSH1 0x4 ADD PUSH2 0xC0D SWAP2 SWAP1 PUSH2 0x1D4E JUMP JUMPDEST PUSH1 0x40 MLOAD DUP1 SWAP2 SUB SWAP1 REVERT JUMPDEST PUSH2 0xC21 DUP4 DUP4 DUP4 PUSH2 0x1249 JUMP JUMPDEST POP POP POP JUMP JUMPDEST PUSH0 PUSH32 0x0 PUSH20 0xFFFFFFFFFFFFFFFFFFFFFFFFFFFFFFFFFFFFFFFF AND ADDRESS PUSH20 0xFFFFFFFFFFFFFFFFFFFFFFFFFFFFFFFFFFFFFFFF AND EQ DUP1 ISZERO PUSH2 0xCA1 JUMPI POP PUSH32 0x0 CHAINID EQ JUMPDEST ISZERO PUSH2 0xCCE JUMPI PUSH32 0x0 SWAP1 POP PUSH2 0xCD9 JUMP JUMPDEST PUSH2 0xCD6 PUSH2 0x1462 JUMP JUMPDEST SWAP1 POP JUMPDEST SWAP1 JUMP JUMPDEST PUSH2 0xCE4 PUSH2 0xA8B JUMP JUMPDEST PUSH20 0xFFFFFFFFFFFFFFFFFFFFFFFFFFFFFFFFFFFFFFFF AND PUSH2 0xD02 PUSH2 0x701 JUMP JUMPDEST PUSH20 0xFFFFFFFFFFFFFFFFFFFFFFFFFFFFFFFFFFFFFFFF AND EQ PUSH2 0xD61 JUMPI PUSH2 0xD25 PUSH2 0xA8B JUMP JUMPDEST PUSH1 0x40 MLOAD PUSH32 0x118CDAA700000000000000000000000000000000000000000000000000000000 DUP2 MSTORE PUSH1 0x4 ADD PUSH2 0xD58 SWAP2 SWAP1 PUSH2 0x1D4E JUMP JUMPDEST PUSH1 0x40 MLOAD DUP1 SWAP2 SUB SWAP1 REVERT JUMPDEST JUMP JUMPDEST PUSH0 PUSH20 0xFFFFFFFFFFFFFFFFFFFFFFFFFFFFFFFFFFFFFFFF AND DUP3 PUSH20 0xFFFFFFFFFFFFFFFFFFFFFFFFFFFFFFFFFFFFFFFF AND SUB PUSH2 0xDD3 JUMPI PUSH0 PUSH1 0x40 MLOAD PUSH32 0xEC442F0500000000000000000000000000000000000000000000000000000000 DUP2 MSTORE PUSH1 0x4 ADD PUSH2 0xDCA SWAP2 SWAP1 PUSH2 0x1D4E JUMP JUMPDEST PUSH1 0x40 MLOAD DUP1 SWAP2 SUB SWAP1 REVERT JUMPDEST PUSH2 0xDDE PUSH0 DUP4 DUP4 PUSH2 0x1249 JUMP JUMPDEST POP POP JUMP JUMPDEST PUSH0 PUSH20 0xFFFFFFFFFFFFFFFFFFFFFFFFFFFFFFFFFFFFFFFF AND DUP3 PUSH20 0xFFFFFFFFFFFFFFFFFFFFFFFFFFFFFFFFFFFFFFFF AND SUB PUSH2 0xE52 JUMPI PUSH0 PUSH1 0x40 MLOAD PUSH32 0x96C6FD1E00000000000000000000000000000000000000000000000000000000 DUP2 MSTORE PUSH1 0x4 ADD PUSH2 0xE49 SWAP2 SWAP1 PUSH2 0x1D4E JUMP JUMPDEST PUSH1 0x40 MLOAD DUP1 SWAP2 SUB SWAP1 REVERT JUMPDEST PUSH2 0xE5D DUP3 PUSH0 DUP4 PUSH2 0x1249 JUMP JUMPDEST POP POP JUMP JUMPDEST PUSH0 PUSH1 0x5 PUSH0 SWAP1 SLOAD SWAP1 PUSH2 0x100 EXP SWAP1 DIV PUSH20 0xFFFFFFFFFFFFFFFFFFFFFFFFFFFFFFFFFFFFFFFF AND SWAP1 POP DUP2 PUSH1 0x5 PUSH0 PUSH2 0x100 EXP DUP2 SLOAD DUP2 PUSH20 0xFFFFFFFFFFFFFFFFFFFFFFFFFFFFFFFFFFFFFFFF MUL NOT AND SWAP1 DUP4 PUSH20 0xFFFFFFFFFFFFFFFFFFFFFFFFFFFFFFFFFFFFFFFF AND MUL OR SWAP1 SSTORE POP DUP2 PUSH20 0xFFFFFFFFFFFFFFFFFFFFFFFFFFFFFFFFFFFFFFFF AND DUP2 PUSH20 0xFFFFFFFFFFFFFFFFFFFFFFFFFFFFFFFFFFFFFFFF AND PUSH32 0x8BE0079C531659141344CD1FD0A4F28419497F9722A3DAAFE3B4186F6B6457E0 PUSH1 0x40 MLOAD PUSH1 0x40 MLOAD DUP1 SWAP2 SUB SWAP1 LOG3 POP POP JUMP JUMPDEST PUSH0 PUSH1 0x8 PUSH0 DUP4 PUSH20 0xFFFFFFFFFFFFFFFFFFFFFFFFFFFFFFFFFFFFFFFF AND PUSH20 0xFFFFFFFFFFFFFFFFFFFFFFFFFFFFFFFFFFFFFFFF AND DUP2 MSTORE PUSH1 0x20 ADD SWAP1 DUP2 MSTORE PUSH1 0x20 ADD PUSH0 KECCAK256 SLOAD SWAP1 POP SWAP2 SWAP1 POP JUMP JUMPDEST PUSH1 0x60 PUSH2 0xFA0 PUSH1 0x6 PUSH32 0x0 PUSH2 0x14F7 SWAP1 SWAP2 SWAP1 PUSH4 0xFFFFFFFF AND JUMP JUMPDEST SWAP1 POP SWAP1 JUMP JUMPDEST PUSH1 0x60 PUSH2 0xFDB PUSH1 0x7 PUSH32 0x0 PUSH2 0x14F7 SWAP1 SWAP2 SWAP1 PUSH4 0xFFFFFFFF AND JUMP JUMPDEST SWAP1 POP SWAP1 JUMP JUMPDEST PUSH0 PUSH1 0x8 PUSH0 DUP4 PUSH20 0xFFFFFFFFFFFFFFFFFFFFFFFFFFFFFFFFFFFFFFFF AND PUSH20 0xFFFFFFFFFFFFFFFFFFFFFFFFFFFFFFFFFFFFFFFF AND DUP2 MSTORE PUSH1 0x20 ADD SWAP1 DUP2 MSTORE PUSH1 0x20 ADD PUSH0 KECCAK256 PUSH0 DUP2 SLOAD DUP1 SWAP3 SWAP2 SWAP1 PUSH1 0x1 ADD SWAP2 SWAP1 POP SSTORE SWAP1 POP SWAP2 SWAP1 POP JUMP JUMPDEST PUSH0 PUSH2 0x1045 PUSH2 0x103F PUSH2 0xC26 JUMP JUMPDEST DUP4 PUSH2 0x15A4 JUMP JUMPDEST SWAP1 POP SWAP2 SWAP1 POP JUMP JUMPDEST PUSH0 DUP1 PUSH0 DUP1 PUSH2 0x105C DUP9 DUP9 DUP9 DUP9 PUSH2 0x15E4 JUMP JUMPDEST SWAP3 POP SWAP3 POP SWAP3 POP PUSH2 0x106C DUP3 DUP3 PUSH2 0x16CB JUMP JUMPDEST DUP3 SWAP4 POP POP POP POP SWAP5 SWAP4 POP POP POP POP JUMP JUMPDEST PUSH0 PUSH20 0xFFFFFFFFFFFFFFFFFFFFFFFFFFFFFFFFFFFFFFFF AND DUP5 PUSH20 0xFFFFFFFFFFFFFFFFFFFFFFFFFFFFFFFFFFFFFFFF AND SUB PUSH2 0x10EA JUMPI PUSH0 PUSH1 0x40 MLOAD PUSH32 0xE602DF0500000000000000000000000000000000000000000000000000000000 DUP2 MSTORE PUSH1 0x4 ADD PUSH2 0x10E1 SWAP2 SWAP1 PUSH2 0x1D4E JUMP JUMPDEST PUSH1 0x40 MLOAD DUP1 SWAP2 SUB SWAP1 REVERT JUMPDEST PUSH0 PUSH20 0xFFFFFFFFFFFFFFFFFFFFFFFFFFFFFFFFFFFFFFFF AND DUP4 PUSH20 0xFFFFFFFFFFFFFFFFFFFFFFFFFFFFFFFFFFFFFFFF AND SUB PUSH2 0x115A JUMPI PUSH0 PUSH1 0x40 MLOAD PUSH32 0x94280D6200000000000000000000000000000000000000000000000000000000 DUP2 MSTORE PUSH1 0x4 ADD PUSH2 0x1151 SWAP2 SWAP1 PUSH2 0x1D4E JUMP JUMPDEST PUSH1 0x40 MLOAD DUP1 SWAP2 SUB SWAP1 REVERT JUMPDEST DUP2 PUSH1 0x1 PUSH0 DUP7 PUSH20 0xFFFFFFFFFFFFFFFFFFFFFFFFFFFFFFFFFFFFFFFF AND PUSH20 0xFFFFFFFFFFFFFFFFFFFFFFFFFFFFFFFFFFFFFFFF AND DUP2 MSTORE PUSH1 0x20 ADD SWAP1 DUP2 MSTORE PUSH1 0x20 ADD PUSH0 KECCAK256 PUSH0 DUP6 PUSH20 0xFFFFFFFFFFFFFFFFFFFFFFFFFFFFFFFFFFFFFFFF AND PUSH20 0xFFFFFFFFFFFFFFFFFFFFFFFFFFFFFFFFFFFFFFFF AND DUP2 MSTORE PUSH1 0x20 ADD SWAP1 DUP2 MSTORE PUSH1 0x20 ADD PUSH0 KECCAK256 DUP2 SWAP1 SSTORE POP DUP1 ISZERO PUSH2 0x1243 JUMPI DUP3 PUSH20 0xFFFFFFFFFFFFFFFFFFFFFFFFFFFFFFFFFFFFFFFF AND DUP5 PUSH20 0xFFFFFFFFFFFFFFFFFFFFFFFFFFFFFFFFFFFFFFFF AND PUSH32 0x8C5BE1E5EBEC7D5BD14F71427D1E84F3DD0314C0F7B2291E5B200AC8C7C3B925 DUP5 PUSH1 0x40 MLOAD PUSH2 0x123A SWAP2 SWAP1 PUSH2 0x1AA8 JUMP JUMPDEST PUSH1 0x40 MLOAD DUP1 SWAP2 SUB SWAP1 LOG3 JUMPDEST POP POP POP POP JUMP JUMPDEST PUSH0 PUSH20 0xFFFFFFFFFFFFFFFFFFFFFFFFFFFFFFFFFFFFFFFF AND DUP4 PUSH20 0xFFFFFFFFFFFFFFFFFFFFFFFFFFFFFFFFFFFFFFFF AND SUB PUSH2 0x1299 JUMPI DUP1 PUSH1 0x2 PUSH0 DUP3 DUP3 SLOAD PUSH2 0x128D SWAP2 SWAP1 PUSH2 0x2226 JUMP JUMPDEST SWAP3 POP POP DUP2 SWAP1 SSTORE POP PUSH2 0x1367 JUMP JUMPDEST PUSH0 DUP1 PUSH0 DUP6 PUSH20 0xFFFFFFFFFFFFFFFFFFFFFFFFFFFFFFFFFFFFFFFF AND PUSH20 0xFFFFFFFFFFFFFFFFFFFFFFFFFFFFFFFFFFFFFFFF AND DUP2 MSTORE PUSH1 0x20 ADD SWAP1 DUP2 MSTORE PUSH1 0x20 ADD PUSH0 KECCAK256 SLOAD SWAP1 POP DUP2 DUP2 LT ISZERO PUSH2 0x1322 JUMPI DUP4 DUP2 DUP4 PUSH1 0x40 MLOAD PUSH32 0xE450D38C00000000000000000000000000000000000000000000000000000000 DUP2 MSTORE PUSH1 0x4 ADD PUSH2 0x1319 SWAP4 SWAP3 SWAP2 SWAP1 PUSH2 0x21F1 JUMP JUMPDEST PUSH1 0x40 MLOAD DUP1 SWAP2 SUB SWAP1 REVERT JUMPDEST DUP2 DUP2 SUB PUSH0 DUP1 DUP7 PUSH20 0xFFFFFFFFFFFFFFFFFFFFFFFFFFFFFFFFFFFFFFFF AND PUSH20 0xFFFFFFFFFFFFFFFFFFFFFFFFFFFFFFFFFFFFFFFF AND DUP2 MSTORE PUSH1 0x20 ADD SWAP1 DUP2 MSTORE PUSH1 0x20 ADD PUSH0 KECCAK256 DUP2 SWAP1 SSTORE POP POP JUMPDEST PUSH0 PUSH20 0xFFFFFFFFFFFFFFFFFFFFFFFFFFFFFFFFFFFFFFFF AND DUP3 PUSH20 0xFFFFFFFFFFFFFFFFFFFFFFFFFFFFFFFFFFFFFFFF AND SUB PUSH2 0x13AE JUMPI DUP1 PUSH1 0x2 PUSH0 DUP3 DUP3 SLOAD SUB SWAP3 POP POP DUP2 SWAP1 SSTORE POP PUSH2 0x13F8 JUMP JUMPDEST DUP1 PUSH0 DUP1 DUP5 PUSH20 0xFFFFFFFFFFFFFFFFFFFFFFFFFFFFFFFFFFFFFFFF AND PUSH20 0xFFFFFFFFFFFFFFFFFFFFFFFFFFFFFFFFFFFFFFFF AND DUP2 MSTORE PUSH1 0x20 ADD SWAP1 DUP2 MSTORE PUSH1 0x20 ADD PUSH0 KECCAK256 PUSH0 DUP3 DUP3 SLOAD ADD SWAP3 POP POP DUP2 SWAP1 SSTORE POP JUMPDEST DUP2 PUSH20 0xFFFFFFFFFFFFFFFFFFFFFFFFFFFFFFFFFFFFFFFF AND DUP4 PUSH20 0xFFFFFFFFFFFFFFFFFFFFFFFFFFFFFFFFFFFFFFFF AND PUSH32 0xDDF252AD1BE2C89B69C2B068FC378DAA952BA7F163C4A11628F55A4DF523B3EF DUP4 PUSH1 0x40 MLOAD PUSH2 0x1455 SWAP2 SWAP1 PUSH2 0x1AA8 JUMP JUMPDEST PUSH1 0x40 MLOAD DUP1 SWAP2 SUB SWAP1 LOG3 POP POP POP JUMP JUMPDEST PUSH0 PUSH32 0x8B73C3C69BB8FE3D512ECC4CF759CC79239F7B179B0FFACAA9A75D522B39400F PUSH32 0x0 PUSH32 0x0 CHAINID ADDRESS PUSH1 0x40 MLOAD PUSH1 0x20 ADD PUSH2 0x14DC SWAP6 SWAP5 SWAP4 SWAP3 SWAP2 SWAP1 PUSH2 0x2259 JUMP JUMPDEST PUSH1 0x40 MLOAD PUSH1 0x20 DUP2 DUP4 SUB SUB DUP2 MSTORE SWAP1 PUSH1 0x40 MSTORE DUP1 MLOAD SWAP1 PUSH1 0x20 ADD KECCAK256 SWAP1 POP SWAP1 JUMP JUMPDEST PUSH1 0x60 PUSH1 0xFF PUSH0 SHL DUP4 EQ PUSH2 0x1513 JUMPI PUSH2 0x150C DUP4 PUSH2 0x182D JUMP JUMPDEST SWAP1 POP PUSH2 0x159E JUMP JUMPDEST DUP2 DUP1 SLOAD PUSH2 0x151F SWAP1 PUSH2 0x1F27 JUMP JUMPDEST DUP1 PUSH1 0x1F ADD PUSH1 0x20 DUP1 SWAP2 DIV MUL PUSH1 0x20 ADD PUSH1 0x40 MLOAD SWAP1 DUP2 ADD PUSH1 0x40 MSTORE DUP1 SWAP3 SWAP2 SWAP1 DUP2 DUP2 MSTORE PUSH1 0x20 ADD DUP3 DUP1 SLOAD PUSH2 0x154B SWAP1 PUSH2 0x1F27 JUMP JUMPDEST DUP1 ISZERO PUSH2 0x1596 JUMPI DUP1 PUSH1 0x1F LT PUSH2 0x156D JUMPI PUSH2 0x100 DUP1 DUP4 SLOAD DIV MUL DUP4 MSTORE SWAP2 PUSH1 0x20 ADD SWAP2 PUSH2 0x1596 JUMP JUMPDEST DUP3 ADD SWAP2 SWAP1 PUSH0 MSTORE PUSH1 0x20 PUSH0 KECCAK256 SWAP1 JUMPDEST DUP2 SLOAD DUP2 MSTORE SWAP1 PUSH1 0x1 ADD SWAP1 PUSH1 0x20 ADD DUP1 DUP4 GT PUSH2 0x1579 JUMPI DUP3 SWAP1 SUB PUSH1 0x1F AND DUP3 ADD SWAP2 JUMPDEST POP POP POP POP POP SWAP1 POP JUMPDEST SWAP3 SWAP2 POP POP JUMP JUMPDEST PUSH0 PUSH1 0x40 MLOAD PUSH32 0x1901000000000000000000000000000000000000000000000000000000000000 DUP2 MSTORE DUP4 PUSH1 0x2 DUP3 ADD MSTORE DUP3 PUSH1 0x22 DUP3 ADD MSTORE PUSH1 0x42 DUP2 KECCAK256 SWAP2 POP POP SWAP3 SWAP2 POP POP JUMP JUMPDEST PUSH0 DUP1 PUSH0 PUSH32 0x7FFFFFFFFFFFFFFFFFFFFFFFFFFFFFFF5D576E7357A4501DDFE92F46681B20A0 DUP5 PUSH0 SHR GT ISZERO PUSH2 0x1620 JUMPI PUSH0 PUSH1 0x3 DUP6 SWAP3 POP SWAP3 POP SWAP3 POP PUSH2 0x16C1 JUMP JUMPDEST PUSH0 PUSH1 0x1 DUP9 DUP9 DUP9 DUP9 PUSH1 0x40 MLOAD PUSH0 DUP2 MSTORE PUSH1 0x20 ADD PUSH1 0x40 MSTORE PUSH1 0x40 MLOAD PUSH2 0x1643 SWAP5 SWAP4 SWAP3 SWAP2 SWAP1 PUSH2 0x22AA JUMP JUMPDEST PUSH1 0x20 PUSH1 0x40 MLOAD PUSH1 0x20 DUP2 SUB SWAP1 DUP1 DUP5 SUB SWAP1 DUP6 GAS STATICCALL ISZERO DUP1 ISZERO PUSH2 0x1663 JUMPI RETURNDATASIZE PUSH0 DUP1 RETURNDATACOPY RETURNDATASIZE PUSH0 REVERT JUMPDEST POP POP POP PUSH1 0x20 PUSH1 0x40 MLOAD SUB MLOAD SWAP1 POP PUSH0 PUSH20 0xFFFFFFFFFFFFFFFFFFFFFFFFFFFFFFFFFFFFFFFF AND DUP2 PUSH20 0xFFFFFFFFFFFFFFFFFFFFFFFFFFFFFFFFFFFFFFFF AND SUB PUSH2 0x16B4 JUMPI PUSH0 PUSH1 0x1 PUSH0 DUP1 SHL SWAP4 POP SWAP4 POP SWAP4 POP POP PUSH2 0x16C1 JUMP JUMPDEST DUP1 PUSH0 DUP1 PUSH0 SHL SWAP4 POP SWAP4 POP SWAP4 POP POP JUMPDEST SWAP5 POP SWAP5 POP SWAP5 SWAP2 POP POP JUMP JUMPDEST PUSH0 PUSH1 0x3 DUP2 GT ISZERO PUSH2 0x16DE JUMPI PUSH2 0x16DD PUSH2 0x22ED JUMP JUMPDEST JUMPDEST DUP3 PUSH1 0x3 DUP2 GT ISZERO PUSH2 0x16F1 JUMPI PUSH2 0x16F0 PUSH2 0x22ED JUMP JUMPDEST JUMPDEST SUB ISZERO PUSH2 0x1829 JUMPI PUSH1 0x1 PUSH1 0x3 DUP2 GT ISZERO PUSH2 0x170B JUMPI PUSH2 0x170A PUSH2 0x22ED JUMP JUMPDEST JUMPDEST DUP3 PUSH1 0x3 DUP2 GT ISZERO PUSH2 0x171E JUMPI PUSH2 0x171D PUSH2 0x22ED JUMP JUMPDEST JUMPDEST SUB PUSH2 0x1755 JUMPI PUSH1 0x40 MLOAD PUSH32 0xF645EEDF00000000000000000000000000000000000000000000000000000000 DUP2 MSTORE PUSH1 0x4 ADD PUSH1 0x40 MLOAD DUP1 SWAP2 SUB SWAP1 REVERT JUMPDEST PUSH1 0x2 PUSH1 0x3 DUP2 GT ISZERO PUSH2 0x1769 JUMPI PUSH2 0x1768 PUSH2 0x22ED JUMP JUMPDEST JUMPDEST DUP3 PUSH1 0x3 DUP2 GT ISZERO PUSH2 0x177C JUMPI PUSH2 0x177B PUSH2 0x22ED JUMP JUMPDEST JUMPDEST SUB PUSH2 0x17C0 JUMPI DUP1 PUSH0 SHR PUSH1 0x40 MLOAD PUSH32 0xFCE698F700000000000000000000000000000000000000000000000000000000 DUP2 MSTORE PUSH1 0x4 ADD PUSH2 0x17B7 SWAP2 SWAP1 PUSH2 0x1AA8 JUMP JUMPDEST PUSH1 0x40 MLOAD DUP1 SWAP2 SUB SWAP1 REVERT JUMPDEST PUSH1 0x3 DUP1 DUP2 GT ISZERO PUSH2 0x17D3 JUMPI PUSH2 0x17D2 PUSH2 0x22ED JUMP JUMPDEST JUMPDEST DUP3 PUSH1 0x3 DUP2 GT ISZERO PUSH2 0x17E6 JUMPI PUSH2 0x17E5 PUSH2 0x22ED JUMP JUMPDEST JUMPDEST SUB PUSH2 0x1828 JUMPI DUP1 PUSH1 0x40 MLOAD PUSH32 0xD78BCE0C00000000000000000000000000000000000000000000000000000000 DUP2 MSTORE PUSH1 0x4 ADD PUSH2 0x181F SWAP2 SWAP1 PUSH2 0x1B5D JUMP JUMPDEST PUSH1 0x40 MLOAD DUP1 SWAP2 SUB SWAP1 REVERT JUMPDEST JUMPDEST POP POP JUMP JUMPDEST PUSH1 0x60 PUSH0 PUSH2 0x1839 DUP4 PUSH2 0x189F JUMP JUMPDEST SWAP1 POP PUSH0 PUSH1 0x20 PUSH8 0xFFFFFFFFFFFFFFFF DUP2 GT ISZERO PUSH2 0x1857 JUMPI PUSH2 0x1856 PUSH2 0x213E JUMP JUMPDEST JUMPDEST PUSH1 0x40 MLOAD SWAP1 DUP1 DUP3 MSTORE DUP1 PUSH1 0x1F ADD PUSH1 0x1F NOT AND PUSH1 0x20 ADD DUP3 ADD PUSH1 0x40 MSTORE DUP1 ISZERO PUSH2 0x1889 JUMPI DUP2 PUSH1 0x20 ADD PUSH1 0x1 DUP3 MUL DUP1 CALLDATASIZE DUP4 CALLDATACOPY DUP1 DUP3 ADD SWAP2 POP POP SWAP1 POP JUMPDEST POP SWAP1 POP DUP2 DUP2 MSTORE DUP4 PUSH1 0x20 DUP3 ADD MSTORE DUP1 SWAP3 POP POP POP SWAP2 SWAP1 POP JUMP JUMPDEST PUSH0 DUP1 PUSH1 0xFF DUP4 PUSH0 SHR AND SWAP1 POP PUSH1 0x1F DUP2 GT ISZERO PUSH2 0x18E4 JUMPI PUSH1 0x40 MLOAD PUSH32 0xB3512B0C00000000000000000000000000000000000000000000000000000000 DUP2 MSTORE PUSH1 0x4 ADD PUSH1 0x40 MLOAD DUP1 SWAP2 SUB SWAP1 REVERT JUMPDEST DUP1 SWAP2 POP POP SWAP2 SWAP1 POP JUMP JUMPDEST PUSH0 DUP2 MLOAD SWAP1 POP SWAP2 SWAP1 POP JUMP JUMPDEST PUSH0 DUP3 DUP3 MSTORE PUSH1 0x20 DUP3 ADD SWAP1 POP SWAP3 SWAP2 POP POP JUMP JUMPDEST PUSH0 JUMPDEST DUP4 DUP2 LT ISZERO PUSH2 0x1924 JUMPI DUP1 DUP3 ADD MLOAD DUP2 DUP5 ADD MSTORE PUSH1 0x20 DUP2 ADD SWAP1 POP PUSH2 0x1909 JUMP JUMPDEST PUSH0 DUP5 DUP5 ADD MSTORE POP POP POP POP JUMP JUMPDEST PUSH0 PUSH1 0x1F NOT PUSH1 0x1F DUP4 ADD AND SWAP1 POP SWAP2 SWAP1 POP JUMP JUMPDEST PUSH0 PUSH2 0x1949 DUP3 PUSH2 0x18ED JUMP JUMPDEST PUSH2 0x1953 DUP2 DUP6 PUSH2 0x18F7 JUMP JUMPDEST SWAP4 POP PUSH2 0x1963 DUP2 DUP6 PUSH1 0x20 DUP7 ADD PUSH2 0x1907 JUMP JUMPDEST PUSH2 0x196C DUP2 PUSH2 0x192F JUMP JUMPDEST DUP5 ADD SWAP2 POP POP SWAP3 SWAP2 POP POP JUMP JUMPDEST PUSH0 PUSH1 0x20 DUP3 ADD SWAP1 POP DUP2 DUP2 SUB PUSH0 DUP4 ADD MSTORE PUSH2 0x198F DUP2 DUP5 PUSH2 0x193F JUMP JUMPDEST SWAP1 POP SWAP3 SWAP2 POP POP JUMP JUMPDEST PUSH0 DUP1 REVERT JUMPDEST PUSH0 PUSH20 0xFFFFFFFFFFFFFFFFFFFFFFFFFFFFFFFFFFFFFFFF DUP3 AND SWAP1 POP SWAP2 SWAP1 POP JUMP JUMPDEST PUSH0 PUSH2 0x19C4 DUP3 PUSH2 0x199B JUMP JUMPDEST SWAP1 POP SWAP2 SWAP1 POP JUMP JUMPDEST PUSH2 0x19D4 DUP2 PUSH2 0x19BA JUMP JUMPDEST DUP2 EQ PUSH2 0x19DE JUMPI PUSH0 DUP1 REVERT JUMPDEST POP JUMP JUMPDEST PUSH0 DUP2 CALLDATALOAD SWAP1 POP PUSH2 0x19EF DUP2 PUSH2 0x19CB JUMP JUMPDEST SWAP3 SWAP2 POP POP JUMP JUMPDEST PUSH0 DUP2 SWAP1 POP SWAP2 SWAP1 POP JUMP JUMPDEST PUSH2 0x1A07 DUP2 PUSH2 0x19F5 JUMP JUMPDEST DUP2 EQ PUSH2 0x1A11 JUMPI PUSH0 DUP1 REVERT JUMPDEST POP JUMP JUMPDEST PUSH0 DUP2 CALLDATALOAD SWAP1 POP PUSH2 0x1A22 DUP2 PUSH2 0x19FE JUMP JUMPDEST SWAP3 SWAP2 POP POP JUMP JUMPDEST PUSH0 DUP1 PUSH1 0x40 DUP4 DUP6 SUB SLT ISZERO PUSH2 0x1A3E JUMPI PUSH2 0x1A3D PUSH2 0x1997 JUMP JUMPDEST JUMPDEST PUSH0 PUSH2 0x1A4B DUP6 DUP3 DUP7 ADD PUSH2 0x19E1 JUMP JUMPDEST SWAP3 POP POP PUSH1 0x20 PUSH2 0x1A5C DUP6 DUP3 DUP7 ADD PUSH2 0x1A14 JUMP JUMPDEST SWAP2 POP POP SWAP3 POP SWAP3 SWAP1 POP JUMP JUMPDEST PUSH0 DUP2 ISZERO ISZERO SWAP1 POP SWAP2 SWAP1 POP JUMP JUMPDEST PUSH2 0x1A7A DUP2 PUSH2 0x1A66 JUMP JUMPDEST DUP3 MSTORE POP POP JUMP JUMPDEST PUSH0 PUSH1 0x20 DUP3 ADD SWAP1 POP PUSH2 0x1A93 PUSH0 DUP4 ADD DUP5 PUSH2 0x1A71 JUMP JUMPDEST SWAP3 SWAP2 POP POP JUMP JUMPDEST PUSH2 0x1AA2 DUP2 PUSH2 0x19F5 JUMP JUMPDEST DUP3 MSTORE POP POP JUMP JUMPDEST PUSH0 PUSH1 0x20 DUP3 ADD SWAP1 POP PUSH2 0x1ABB PUSH0 DUP4 ADD DUP5 PUSH2 0x1A99 JUMP JUMPDEST SWAP3 SWAP2 POP POP JUMP JUMPDEST PUSH0 DUP1 PUSH0 PUSH1 0x60 DUP5 DUP7 SUB SLT ISZERO PUSH2 0x1AD8 JUMPI PUSH2 0x1AD7 PUSH2 0x1997 JUMP JUMPDEST JUMPDEST PUSH0 PUSH2 0x1AE5 DUP7 DUP3 DUP8 ADD PUSH2 0x19E1 JUMP JUMPDEST SWAP4 POP POP PUSH1 0x20 PUSH2 0x1AF6 DUP7 DUP3 DUP8 ADD PUSH2 0x19E1 JUMP JUMPDEST SWAP3 POP POP PUSH1 0x40 PUSH2 0x1B07 DUP7 DUP3 DUP8 ADD PUSH2 0x1A14 JUMP JUMPDEST SWAP2 POP POP SWAP3 POP SWAP3 POP SWAP3 JUMP JUMPDEST PUSH0 PUSH1 0xFF DUP3 AND SWAP1 POP SWAP2 SWAP1 POP JUMP JUMPDEST PUSH2 0x1B26 DUP2 PUSH2 0x1B11 JUMP JUMPDEST DUP3 MSTORE POP POP JUMP JUMPDEST PUSH0 PUSH1 0x20 DUP3 ADD SWAP1 POP PUSH2 0x1B3F PUSH0 DUP4 ADD DUP5 PUSH2 0x1B1D JUMP JUMPDEST SWAP3 SWAP2 POP POP JUMP JUMPDEST PUSH0 DUP2 SWAP1 POP SWAP2 SWAP1 POP JUMP JUMPDEST PUSH2 0x1B57 DUP2 PUSH2 0x1B45 JUMP JUMPDEST DUP3 MSTORE POP POP JUMP JUMPDEST PUSH0 PUSH1 0x20 DUP3 ADD SWAP1 POP PUSH2 0x1B70 PUSH0 DUP4 ADD DUP5 PUSH2 0x1B4E JUMP JUMPDEST SWAP3 SWAP2 POP POP JUMP JUMPDEST PUSH0 PUSH1 0x20 DUP3 DUP5 SUB SLT ISZERO PUSH2 0x1B8B JUMPI PUSH2 0x1B8A PUSH2 0x1997 JUMP JUMPDEST JUMPDEST PUSH0 PUSH2 0x1B98 DUP5 DUP3 DUP6 ADD PUSH2 0x1A14 JUMP JUMPDEST SWAP2 POP POP SWAP3 SWAP2 POP POP JUMP JUMPDEST PUSH0 PUSH1 0x20 DUP3 DUP5 SUB SLT ISZERO PUSH2 0x1BB6 JUMPI PUSH2 0x1BB5 PUSH2 0x1997 JUMP JUMPDEST JUMPDEST PUSH0 PUSH2 0x1BC3 DUP5 DUP3 DUP6 ADD PUSH2 0x19E1 JUMP JUMPDEST SWAP2 POP POP SWAP3 SWAP2 POP POP JUMP JUMPDEST PUSH0 PUSH32 0xFF00000000000000000000000000000000000000000000000000000000000000 DUP3 AND SWAP1 POP SWAP2 SWAP1 POP JUMP JUMPDEST PUSH2 0x1C00 DUP2 PUSH2 0x1BCC JUMP JUMPDEST DUP3 MSTORE POP POP JUMP JUMPDEST PUSH2 0x1C0F DUP2 PUSH2 0x19BA JUMP JUMPDEST DUP3 MSTORE POP POP JUMP JUMPDEST PUSH0 DUP2 MLOAD SWAP1 POP SWAP2 SWAP1 POP JUMP JUMPDEST PUSH0 DUP3 DUP3 MSTORE PUSH1 0x20 DUP3 ADD SWAP1 POP SWAP3 SWAP2 POP POP JUMP JUMPDEST PUSH0 DUP2 SWAP1 POP PUSH1 0x20 DUP3 ADD SWAP1 POP SWAP2 SWAP1 POP JUMP JUMPDEST PUSH2 0x1C47 DUP2 PUSH2 0x19F5 JUMP JUMPDEST DUP3 MSTORE POP POP JUMP JUMPDEST PUSH0 PUSH2 0x1C58 DUP4 DUP4 PUSH2 0x1C3E JUMP JUMPDEST PUSH1 0x20 DUP4 ADD SWAP1 POP SWAP3 SWAP2 POP POP JUMP JUMPDEST PUSH0 PUSH1 0x20 DUP3 ADD SWAP1 POP SWAP2 SWAP1 POP JUMP JUMPDEST PUSH0 PUSH2 0x1C7A DUP3 PUSH2 0x1C15 JUMP JUMPDEST PUSH2 0x1C84 DUP2 DUP6 PUSH2 0x1C1F JUMP JUMPDEST SWAP4 POP PUSH2 0x1C8F DUP4 PUSH2 0x1C2F JUMP JUMPDEST DUP1 PUSH0 JUMPDEST DUP4 DUP2 LT ISZERO PUSH2 0x1CBF JUMPI DUP2 MLOAD PUSH2 0x1CA6 DUP9 DUP3 PUSH2 0x1C4D JUMP JUMPDEST SWAP8 POP PUSH2 0x1CB1 DUP4 PUSH2 0x1C64 JUMP JUMPDEST SWAP3 POP POP PUSH1 0x1 DUP2 ADD SWAP1 POP PUSH2 0x1C92 JUMP JUMPDEST POP DUP6 SWAP4 POP POP POP POP SWAP3 SWAP2 POP POP JUMP JUMPDEST PUSH0 PUSH1 0xE0 DUP3 ADD SWAP1 POP PUSH2 0x1CDF PUSH0 DUP4 ADD DUP11 PUSH2 0x1BF7 JUMP JUMPDEST DUP2 DUP2 SUB PUSH1 0x20 DUP4 ADD MSTORE PUSH2 0x1CF1 DUP2 DUP10 PUSH2 0x193F JUMP JUMPDEST SWAP1 POP DUP2 DUP2 SUB PUSH1 0x40 DUP4 ADD MSTORE PUSH2 0x1D05 DUP2 DUP9 PUSH2 0x193F JUMP JUMPDEST SWAP1 POP PUSH2 0x1D14 PUSH1 0x60 DUP4 ADD DUP8 PUSH2 0x1A99 JUMP JUMPDEST PUSH2 0x1D21 PUSH1 0x80 DUP4 ADD DUP7 PUSH2 0x1C06 JUMP JUMPDEST PUSH2 0x1D2E PUSH1 0xA0 DUP4 ADD DUP6 PUSH2 0x1B4E JUMP JUMPDEST DUP2 DUP2 SUB PUSH1 0xC0 DUP4 ADD MSTORE PUSH2 0x1D40 DUP2 DUP5 PUSH2 0x1C70 JUMP JUMPDEST SWAP1 POP SWAP9 SWAP8 POP POP POP POP POP POP POP POP JUMP JUMPDEST PUSH0 PUSH1 0x20 DUP3 ADD SWAP1 POP PUSH2 0x1D61 PUSH0 DUP4 ADD DUP5 PUSH2 0x1C06 JUMP JUMPDEST SWAP3 SWAP2 POP POP JUMP JUMPDEST PUSH0 DUP1 PUSH0 DUP1 PUSH1 0x80 DUP6 DUP8 SUB SLT ISZERO PUSH2 0x1D7F JUMPI PUSH2 0x1D7E PUSH2 0x1997 JUMP JUMPDEST JUMPDEST PUSH0 PUSH2 0x1D8C DUP8 DUP3 DUP9 ADD PUSH2 0x19E1 JUMP JUMPDEST SWAP5 POP POP PUSH1 0x20 PUSH2 0x1D9D DUP8 DUP3 DUP9 ADD PUSH2 0x19E1 JUMP JUMPDEST SWAP4 POP POP PUSH1 0x40 PUSH2 0x1DAE DUP8 DUP3 DUP9 ADD PUSH2 0x1A14 JUMP JUMPDEST SWAP3 POP POP PUSH1 0x60 PUSH2 0x1DBF DUP8 DUP3 DUP9 ADD PUSH2 0x19E1 JUMP JUMPDEST SWAP2 POP POP SWAP3 SWAP6 SWAP2 SWAP5 POP SWAP3 POP JUMP JUMPDEST PUSH2 0x1DD4 DUP2 PUSH2 0x1B11 JUMP JUMPDEST DUP2 EQ PUSH2 0x1DDE JUMPI PUSH0 DUP1 REVERT JUMPDEST POP JUMP JUMPDEST PUSH0 DUP2 CALLDATALOAD SWAP1 POP PUSH2 0x1DEF DUP2 PUSH2 0x1DCB JUMP JUMPDEST SWAP3 SWAP2 POP POP JUMP JUMPDEST PUSH2 0x1DFE DUP2 PUSH2 0x1B45 JUMP JUMPDEST DUP2 EQ PUSH2 0x1E08 JUMPI PUSH0 DUP1 REVERT JUMPDEST POP JUMP JUMPDEST PUSH0 DUP2 CALLDATALOAD SWAP1 POP PUSH2 0x1E19 DUP2 PUSH2 0x1DF5 JUMP JUMPDEST SWAP3 SWAP2 POP POP JUMP JUMPDEST PUSH0 DUP1 PUSH0 DUP1 PUSH0 DUP1 PUSH0 PUSH1 0xE0 DUP9 DUP11 SUB SLT ISZERO PUSH2 0x1E3A JUMPI PUSH2 0x1E39 PUSH2 0x1997 JUMP JUMPDEST JUMPDEST PUSH0 PUSH2 0x1E47 DUP11 DUP3 DUP12 ADD PUSH2 0x19E1 JUMP JUMPDEST SWAP8 POP POP PUSH1 0x20 PUSH2 0x1E58 DUP11 DUP3 DUP12 ADD PUSH2 0x19E1 JUMP JUMPDEST SWAP7 POP POP PUSH1 0x40 PUSH2 0x1E69 DUP11 DUP3 DUP12 ADD PUSH2 0x1A14 JUMP JUMPDEST SWAP6 POP POP PUSH1 0x60 PUSH2 0x1E7A DUP11 DUP3 DUP12 ADD PUSH2 0x1A14 JUMP JUMPDEST SWAP5 POP POP PUSH1 0x80 PUSH2 0x1E8B DUP11 DUP3 DUP12 ADD PUSH2 0x1DE1 JUMP JUMPDEST SWAP4 POP POP PUSH1 0xA0 PUSH2 0x1E9C DUP11 DUP3 DUP12 ADD PUSH2 0x1E0B JUMP JUMPDEST SWAP3 POP POP PUSH1 0xC0 PUSH2 0x1EAD DUP11 DUP3 DUP12 ADD PUSH2 0x1E0B JUMP JUMPDEST SWAP2 POP POP SWAP3 SWAP6 SWAP9 SWAP2 SWAP5 SWAP8 POP SWAP3 SWAP6 POP JUMP JUMPDEST PUSH0 DUP1 PUSH1 0x40 DUP4 DUP6 SUB SLT ISZERO PUSH2 0x1ED2 JUMPI PUSH2 0x1ED1 PUSH2 0x1997 JUMP JUMPDEST JUMPDEST PUSH0 PUSH2 0x1EDF DUP6 DUP3 DUP7 ADD PUSH2 0x19E1 JUMP JUMPDEST SWAP3 POP POP PUSH1 0x20 PUSH2 0x1EF0 DUP6 DUP3 DUP7 ADD PUSH2 0x19E1 JUMP JUMPDEST SWAP2 POP POP SWAP3 POP SWAP3 SWAP1 POP JUMP JUMPDEST PUSH32 0x4E487B7100000000000000000000000000000000000000000000000000000000 PUSH0 MSTORE PUSH1 0x22 PUSH1 0x4 MSTORE PUSH1 0x24 PUSH0 REVERT JUMPDEST PUSH0 PUSH1 0x2 DUP3 DIV SWAP1 POP PUSH1 0x1 DUP3 AND DUP1 PUSH2 0x1F3E JUMPI PUSH1 0x7F DUP3 AND SWAP2 POP JUMPDEST PUSH1 0x20 DUP3 LT DUP2 SUB PUSH2 0x1F51 JUMPI PUSH2 0x1F50 PUSH2 0x1EFA JUMP JUMPDEST JUMPDEST POP SWAP2 SWAP1 POP JUMP JUMPDEST PUSH32 0x4E487B7100000000000000000000000000000000000000000000000000000000 PUSH0 MSTORE PUSH1 0x11 PUSH1 0x4 MSTORE PUSH1 0x24 PUSH0 REVERT JUMPDEST PUSH0 DUP2 PUSH1 0x1 SHR SWAP1 POP SWAP2 SWAP1 POP JUMP JUMPDEST PUSH0 DUP1 DUP3 SWAP2 POP DUP4 SWAP1 POP JUMPDEST PUSH1 0x1 DUP6 GT ISZERO PUSH2 0x1FD9 JUMPI DUP1 DUP7 DIV DUP2 GT ISZERO PUSH2 0x1FB5 JUMPI PUSH2 0x1FB4 PUSH2 0x1F57 JUMP JUMPDEST JUMPDEST PUSH1 0x1 DUP6 AND ISZERO PUSH2 0x1FC4 JUMPI DUP1 DUP3 MUL SWAP2 POP JUMPDEST DUP1 DUP2 MUL SWAP1 POP PUSH2 0x1FD2 DUP6 PUSH2 0x1F84 JUMP JUMPDEST SWAP5 POP PUSH2 0x1F99 JUMP JUMPDEST SWAP5 POP SWAP5 SWAP3 POP POP POP JUMP JUMPDEST PUSH0 DUP3 PUSH2 0x1FF1 JUMPI PUSH1 0x1 SWAP1 POP PUSH2 0x20AC JUMP JUMPDEST DUP2 PUSH2 0x1FFE JUMPI PUSH0 SWAP1 POP PUSH2 0x20AC JUMP JUMPDEST DUP2 PUSH1 0x1 DUP2 EQ PUSH2 0x2014 JUMPI PUSH1 0x2 DUP2 EQ PUSH2 0x201E JUMPI PUSH2 0x204D JUMP JUMPDEST PUSH1 0x1 SWAP2 POP POP PUSH2 0x20AC JUMP JUMPDEST PUSH1 0xFF DUP5 GT ISZERO PUSH2 0x2030 JUMPI PUSH2 0x202F PUSH2 0x1F57 JUMP JUMPDEST JUMPDEST DUP4 PUSH1 0x2 EXP SWAP2 POP DUP5 DUP3 GT ISZERO PUSH2 0x2047 JUMPI PUSH2 0x2046 PUSH2 0x1F57 JUMP JUMPDEST JUMPDEST POP PUSH2 0x20AC JUMP JUMPDEST POP PUSH1 0x20 DUP4 LT PUSH2 0x133 DUP4 LT AND PUSH1 0x4E DUP5 LT PUSH1 0xB DUP5 LT AND OR ISZERO PUSH2 0x2082 JUMPI DUP3 DUP3 EXP SWAP1 POP DUP4 DUP2 GT ISZERO PUSH2 0x207D JUMPI PUSH2 0x207C PUSH2 0x1F57 JUMP JUMPDEST JUMPDEST PUSH2 0x20AC JUMP JUMPDEST PUSH2 0x208F DUP5 DUP5 DUP5 PUSH1 0x1 PUSH2 0x1F90 JUMP JUMPDEST SWAP3 POP SWAP1 POP DUP2 DUP5 DIV DUP2 GT ISZERO PUSH2 0x20A6 JUMPI PUSH2 0x20A5 PUSH2 0x1F57 JUMP JUMPDEST JUMPDEST DUP2 DUP2 MUL SWAP1 POP JUMPDEST SWAP4 SWAP3 POP POP POP JUMP JUMPDEST PUSH0 PUSH2 0x20BD DUP3 PUSH2 0x19F5 JUMP JUMPDEST SWAP2 POP PUSH2 0x20C8 DUP4 PUSH2 0x19F5 JUMP JUMPDEST SWAP3 POP PUSH2 0x20F5 PUSH32 0xFFFFFFFFFFFFFFFFFFFFFFFFFFFFFFFFFFFFFFFFFFFFFFFFFFFFFFFFFFFFFFFF DUP5 DUP5 PUSH2 0x1FE2 JUMP JUMPDEST SWAP1 POP SWAP3 SWAP2 POP POP JUMP JUMPDEST PUSH0 PUSH2 0x2107 DUP3 PUSH2 0x19F5 JUMP JUMPDEST SWAP2 POP PUSH2 0x2112 DUP4 PUSH2 0x19F5 JUMP JUMPDEST SWAP3 POP DUP3 DUP3 MUL PUSH2 0x2120 DUP2 PUSH2 0x19F5 JUMP JUMPDEST SWAP2 POP DUP3 DUP3 DIV DUP5 EQ DUP4 ISZERO OR PUSH2 0x2137 JUMPI PUSH2 0x2136 PUSH2 0x1F57 JUMP JUMPDEST JUMPDEST POP SWAP3 SWAP2 POP POP JUMP JUMPDEST PUSH32 0x4E487B7100000000000000000000000000000000000000000000000000000000 PUSH0 MSTORE PUSH1 0x41 PUSH1 0x4 MSTORE PUSH1 0x24 PUSH0 REVERT JUMPDEST PUSH0 PUSH1 0xC0 DUP3 ADD SWAP1 POP PUSH2 0x217E PUSH0 DUP4 ADD DUP10 PUSH2 0x1B4E JUMP JUMPDEST PUSH2 0x218B PUSH1 0x20 DUP4 ADD DUP9 PUSH2 0x1C06 JUMP JUMPDEST PUSH2 0x2198 PUSH1 0x40 DUP4 ADD DUP8 PUSH2 0x1C06 JUMP JUMPDEST PUSH2 0x21A5 PUSH1 0x60 DUP4 ADD DUP7 PUSH2 0x1A99 JUMP JUMPDEST PUSH2 0x21B2 PUSH1 0x80 DUP4 ADD DUP6 PUSH2 0x1A99 JUMP JUMPDEST PUSH2 0x21BF PUSH1 0xA0 DUP4 ADD DUP5 PUSH2 0x1A99 JUMP JUMPDEST SWAP8 SWAP7 POP POP POP POP POP POP POP JUMP JUMPDEST PUSH0 PUSH1 0x40 DUP3 ADD SWAP1 POP PUSH2 0x21DD PUSH0 DUP4 ADD DUP6 PUSH2 0x1C06 JUMP JUMPDEST PUSH2 0x21EA PUSH1 0x20 DUP4 ADD DUP5 PUSH2 0x1C06 JUMP JUMPDEST SWAP4 SWAP3 POP POP POP JUMP JUMPDEST PUSH0 PUSH1 0x60 DUP3 ADD SWAP1 POP PUSH2 0x2204 PUSH0 DUP4 ADD DUP7 PUSH2 0x1C06 JUMP JUMPDEST PUSH2 0x2211 PUSH1 0x20 DUP4 ADD DUP6 PUSH2 0x1A99 JUMP JUMPDEST PUSH2 0x221E PUSH1 0x40 DUP4 ADD DUP5 PUSH2 0x1A99 JUMP JUMPDEST SWAP5 SWAP4 POP POP POP POP JUMP JUMPDEST PUSH0 PUSH2 0x2230 DUP3 PUSH2 0x19F5 JUMP JUMPDEST SWAP2 POP PUSH2 0x223B DUP4 PUSH2 0x19F5 JUMP JUMPDEST SWAP3 POP DUP3 DUP3 ADD SWAP1 POP DUP1 DUP3 GT ISZERO PUSH2 0x2253 JUMPI PUSH2 0x2252 PUSH2 0x1F57 JUMP JUMPDEST JUMPDEST SWAP3 SWAP2 POP POP JUMP JUMPDEST PUSH0 PUSH1 0xA0 DUP3 ADD SWAP1 POP PUSH2 0x226C PUSH0 DUP4 ADD DUP9 PUSH2 0x1B4E JUMP JUMPDEST PUSH2 0x2279 PUSH1 0x20 DUP4 ADD DUP8 PUSH2 0x1B4E JUMP JUMPDEST PUSH2 0x2286 PUSH1 0x40 DUP4 ADD DUP7 PUSH2 0x1B4E JUMP JUMPDEST PUSH2 0x2293 PUSH1 0x60 DUP4 ADD DUP6 PUSH2 0x1A99 JUMP JUMPDEST PUSH2 0x22A0 PUSH1 0x80 DUP4 ADD DUP5 PUSH2 0x1C06 JUMP JUMPDEST SWAP7 SWAP6 POP POP POP POP POP POP JUMP JUMPDEST PUSH0 PUSH1 0x80 DUP3 ADD SWAP1 POP PUSH2 0x22BD PUSH0 DUP4 ADD DUP8 PUSH2 0x1B4E JUMP JUMPDEST PUSH2 0x22CA PUSH1 0x20 DUP4 ADD DUP7 PUSH2 0x1B1D JUMP JUMPDEST PUSH2 0x22D7 PUSH1 0x40 DUP4 ADD DUP6 PUSH2 0x1B4E JUMP JUMPDEST PUSH2 0x22E4 PUSH1 0x60 DUP4 ADD DUP5 PUSH2 0x1B4E JUMP JUMPDEST SWAP6 SWAP5 POP POP POP POP POP JUMP JUMPDEST PUSH32 0x4E487B7100000000000000000000000000000000000000000000000000000000 PUSH0 MSTORE PUSH1 0x21 PUSH1 0x4 MSTORE PUSH1 0x24 PUSH0 REVERT INVALID LOG2 PUSH5 0x6970667358 0x22 SLT KECCAK256 0xCB ADD SDIV 0xE9 0x1F AND 0xB1 0xE4 0x26 0xCA 0xB0 0xEE SSTORE EXP 0x27 SWAP7 PUSH18 0x8C8A2EF5315BE08161B6E94BEAF50964736F PUSH13 0x63430008180033000000000000 "
		},
		"gasEstimates": {
			"creation": {
				"codeDepositCost": "1808000",
				"executionCost": "infinite",
				"totalCost": "infinite"
			},
			"external": {
				"DOMAIN_SEPARATOR()": "infinite",
				"allowance(address,address)": "infinite",
				"approve(address,uint256)": "infinite",
				"balanceOf(address)": "2940",
				"burn(uint256)": "infinite",
				"burnFrom(address,uint256)": "infinite",
				"decimals()": "450",
				"eip712Domain()": "infinite",
				"mint(address,uint256)": "infinite",
				"name()": "infinite",
				"nonces(address)": "2938",
				"owner()": "2626",
				"permit(address,address,uint256,uint256,uint8,bytes32,bytes32)": "infinite",
				"renounceOwnership()": "infinite",
				"sendParticipationToken(address,address,uint256)": "infinite",
				"symbol()": "infinite",
				"totalSupply()": "2500",
				"transfer(address,uint256)": "infinite",
				"transferFrom(address,address,uint256)": "infinite",
				"transferOwnership(address)": "infinite",
				"transferParticipationToken(address,address,uint256,address)": "infinite"
			}
		},
		"methodIdentifiers": {
			"DOMAIN_SEPARATOR()": "3644e515",
			"allowance(address,address)": "dd62ed3e",
			"approve(address,uint256)": "095ea7b3",
			"balanceOf(address)": "70a08231",
			"burn(uint256)": "42966c68",
			"burnFrom(address,uint256)": "79cc6790",
			"decimals()": "313ce567",
			"eip712Domain()": "84b0196e",
			"mint(address,uint256)": "40c10f19",
			"name()": "06fdde03",
			"nonces(address)": "7ecebe00",
			"owner()": "8da5cb5b",
			"permit(address,address,uint256,uint256,uint8,bytes32,bytes32)": "d505accf",
			"renounceOwnership()": "715018a6",
			"sendParticipationToken(address,address,uint256)": "4cd83d75",
			"symbol()": "95d89b41",
			"totalSupply()": "18160ddd",
			"transfer(address,uint256)": "a9059cbb",
			"transferFrom(address,address,uint256)": "23b872dd",
			"transferOwnership(address)": "f2fde38b",
			"transferParticipationToken(address,address,uint256,address)": "abd81ca2"
		}
	},
	"abi": [
		{
			"inputs": [
				{
					"internalType": "address",
					"name": "initialOwner",
					"type": "address"
				}
			],
			"stateMutability": "nonpayable",
			"type": "constructor"
		},
		{
			"inputs": [],
			"name": "ECDSAInvalidSignature",
			"type": "error"
		},
		{
			"inputs": [
				{
					"internalType": "uint256",
					"name": "length",
					"type": "uint256"
				}
			],
			"name": "ECDSAInvalidSignatureLength",
			"type": "error"
		},
		{
			"inputs": [
				{
					"internalType": "bytes32",
					"name": "s",
					"type": "bytes32"
				}
			],
			"name": "ECDSAInvalidSignatureS",
			"type": "error"
		},
		{
			"inputs": [
				{
					"internalType": "address",
					"name": "spender",
					"type": "address"
				},
				{
					"internalType": "uint256",
					"name": "allowance",
					"type": "uint256"
				},
				{
					"internalType": "uint256",
					"name": "needed",
					"type": "uint256"
				}
			],
			"name": "ERC20InsufficientAllowance",
			"type": "error"
		},
		{
			"inputs": [
				{
					"internalType": "address",
					"name": "sender",
					"type": "address"
				},
				{
					"internalType": "uint256",
					"name": "balance",
					"type": "uint256"
				},
				{
					"internalType": "uint256",
					"name": "needed",
					"type": "uint256"
				}
			],
			"name": "ERC20InsufficientBalance",
			"type": "error"
		},
		{
			"inputs": [
				{
					"internalType": "address",
					"name": "approver",
					"type": "address"
				}
			],
			"name": "ERC20InvalidApprover",
			"type": "error"
		},
		{
			"inputs": [
				{
					"internalType": "address",
					"name": "receiver",
					"type": "address"
				}
			],
			"name": "ERC20InvalidReceiver",
			"type": "error"
		},
		{
			"inputs": [
				{
					"internalType": "address",
					"name": "sender",
					"type": "address"
				}
			],
			"name": "ERC20InvalidSender",
			"type": "error"
		},
		{
			"inputs": [
				{
					"internalType": "address",
					"name": "spender",
					"type": "address"
				}
			],
			"name": "ERC20InvalidSpender",
			"type": "error"
		},
		{
			"inputs": [
				{
					"internalType": "uint256",
					"name": "deadline",
					"type": "uint256"
				}
			],
			"name": "ERC2612ExpiredSignature",
			"type": "error"
		},
		{
			"inputs": [
				{
					"internalType": "address",
					"name": "signer",
					"type": "address"
				},
				{
					"internalType": "address",
					"name": "owner",
					"type": "address"
				}
			],
			"name": "ERC2612InvalidSigner",
			"type": "error"
		},
		{
			"inputs": [
				{
					"internalType": "address",
					"name": "account",
					"type": "address"
				},
				{
					"internalType": "uint256",
					"name": "currentNonce",
					"type": "uint256"
				}
			],
			"name": "InvalidAccountNonce",
			"type": "error"
		},
		{
			"inputs": [],
			"name": "InvalidShortString",
			"type": "error"
		},
		{
			"inputs": [
				{
					"internalType": "address",
					"name": "owner",
					"type": "address"
				}
			],
			"name": "OwnableInvalidOwner",
			"type": "error"
		},
		{
			"inputs": [
				{
					"internalType": "address",
					"name": "account",
					"type": "address"
				}
			],
			"name": "OwnableUnauthorizedAccount",
			"type": "error"
		},
		{
			"inputs": [
				{
					"internalType": "string",
					"name": "str",
					"type": "string"
				}
			],
			"name": "StringTooLong",
			"type": "error"
		},
		{
			"anonymous": false,
			"inputs": [
				{
					"indexed": true,
					"internalType": "address",
					"name": "owner",
					"type": "address"
				},
				{
					"indexed": true,
					"internalType": "address",
					"name": "spender",
					"type": "address"
				},
				{
					"indexed": false,
					"internalType": "uint256",
					"name": "value",
					"type": "uint256"
				}
			],
			"name": "Approval",
			"type": "event"
		},
		{
			"anonymous": false,
			"inputs": [],
			"name": "EIP712DomainChanged",
			"type": "event"
		},
		{
			"anonymous": false,
			"inputs": [
				{
					"indexed": true,
					"internalType": "address",
					"name": "previousOwner",
					"type": "address"
				},
				{
					"indexed": true,
					"internalType": "address",
					"name": "newOwner",
					"type": "address"
				}
			],
			"name": "OwnershipTransferred",
			"type": "event"
		},
		{
			"anonymous": false,
			"inputs": [
				{
					"indexed": true,
					"internalType": "address",
					"name": "from",
					"type": "address"
				},
				{
					"indexed": true,
					"internalType": "address",
					"name": "to",
					"type": "address"
				},
				{
					"indexed": false,
					"internalType": "uint256",
					"name": "value",
					"type": "uint256"
				}
			],
			"name": "Transfer",
			"type": "event"
		},
		{
			"inputs": [],
			"name": "DOMAIN_SEPARATOR",
			"outputs": [
				{
					"internalType": "bytes32",
					"name": "",
					"type": "bytes32"
				}
			],
			"stateMutability": "view",
			"type": "function"
		},
		{
			"inputs": [
				{
					"internalType": "address",
					"name": "owner",
					"type": "address"
				},
				{
					"internalType": "address",
					"name": "spender",
					"type": "address"
				}
			],
			"name": "allowance",
			"outputs": [
				{
					"internalType": "uint256",
					"name": "",
					"type": "uint256"
				}
			],
			"stateMutability": "view",
			"type": "function"
		},
		{
			"inputs": [
				{
					"internalType": "address",
					"name": "spender",
					"type": "address"
				},
				{
					"internalType": "uint256",
					"name": "value",
					"type": "uint256"
				}
			],
			"name": "approve",
			"outputs": [
				{
					"internalType": "bool",
					"name": "",
					"type": "bool"
				}
			],
			"stateMutability": "nonpayable",
			"type": "function"
		},
		{
			"inputs": [
				{
					"internalType": "address",
					"name": "account",
					"type": "address"
				}
			],
			"name": "balanceOf",
			"outputs": [
				{
					"internalType": "uint256",
					"name": "",
					"type": "uint256"
				}
			],
			"stateMutability": "view",
			"type": "function"
		},
		{
			"inputs": [
				{
					"internalType": "uint256",
					"name": "value",
					"type": "uint256"
				}
			],
			"name": "burn",
			"outputs": [],
			"stateMutability": "nonpayable",
			"type": "function"
		},
		{
			"inputs": [
				{
					"internalType": "address",
					"name": "account",
					"type": "address"
				},
				{
					"internalType": "uint256",
					"name": "value",
					"type": "uint256"
				}
			],
			"name": "burnFrom",
			"outputs": [],
			"stateMutability": "nonpayable",
			"type": "function"
		},
		{
			"inputs": [],
			"name": "decimals",
			"outputs": [
				{
					"internalType": "uint8",
					"name": "",
					"type": "uint8"
				}
			],
			"stateMutability": "view",
			"type": "function"
		},
		{
			"inputs": [],
			"name": "eip712Domain",
			"outputs": [
				{
					"internalType": "bytes1",
					"name": "fields",
					"type": "bytes1"
				},
				{
					"internalType": "string",
					"name": "name",
					"type": "string"
				},
				{
					"internalType": "string",
					"name": "version",
					"type": "string"
				},
				{
					"internalType": "uint256",
					"name": "chainId",
					"type": "uint256"
				},
				{
					"internalType": "address",
					"name": "verifyingContract",
					"type": "address"
				},
				{
					"internalType": "bytes32",
					"name": "salt",
					"type": "bytes32"
				},
				{
					"internalType": "uint256[]",
					"name": "extensions",
					"type": "uint256[]"
				}
			],
			"stateMutability": "view",
			"type": "function"
		},
		{
			"inputs": [
				{
					"internalType": "address",
					"name": "to",
					"type": "address"
				},
				{
					"internalType": "uint256",
					"name": "amount",
					"type": "uint256"
				}
			],
			"name": "mint",
			"outputs": [],
			"stateMutability": "nonpayable",
			"type": "function"
		},
		{
			"inputs": [],
			"name": "name",
			"outputs": [
				{
					"internalType": "string",
					"name": "",
					"type": "string"
				}
			],
			"stateMutability": "view",
			"type": "function"
		},
		{
			"inputs": [
				{
					"internalType": "address",
					"name": "owner",
					"type": "address"
				}
			],
			"name": "nonces",
			"outputs": [
				{
					"internalType": "uint256",
					"name": "",
					"type": "uint256"
				}
			],
			"stateMutability": "view",
			"type": "function"
		},
		{
			"inputs": [],
			"name": "owner",
			"outputs": [
				{
					"internalType": "address",
					"name": "",
					"type": "address"
				}
			],
			"stateMutability": "view",
			"type": "function"
		},
		{
			"inputs": [
				{
					"internalType": "address",
					"name": "owner",
					"type": "address"
				},
				{
					"internalType": "address",
					"name": "spender",
					"type": "address"
				},
				{
					"internalType": "uint256",
					"name": "value",
					"type": "uint256"
				},
				{
					"internalType": "uint256",
					"name": "deadline",
					"type": "uint256"
				},
				{
					"internalType": "uint8",
					"name": "v",
					"type": "uint8"
				},
				{
					"internalType": "bytes32",
					"name": "r",
					"type": "bytes32"
				},
				{
					"internalType": "bytes32",
					"name": "s",
					"type": "bytes32"
				}
			],
			"name": "permit",
			"outputs": [],
			"stateMutability": "nonpayable",
			"type": "function"
		},
		{
			"inputs": [],
			"name": "renounceOwnership",
			"outputs": [],
			"stateMutability": "nonpayable",
			"type": "function"
		},
		{
			"inputs": [
				{
					"internalType": "address",
					"name": "from",
					"type": "address"
				},
				{
					"internalType": "address",
					"name": "to",
					"type": "address"
				},
				{
					"internalType": "uint256",
					"name": "amount",
					"type": "uint256"
				}
			],
			"name": "sendParticipationToken",
			"outputs": [
				{
					"internalType": "bool",
					"name": "",
					"type": "bool"
				}
			],
			"stateMutability": "nonpayable",
			"type": "function"
		},
		{
			"inputs": [],
			"name": "symbol",
			"outputs": [
				{
					"internalType": "string",
					"name": "",
					"type": "string"
				}
			],
			"stateMutability": "view",
			"type": "function"
		},
		{
			"inputs": [],
			"name": "totalSupply",
			"outputs": [
				{
					"internalType": "uint256",
					"name": "",
					"type": "uint256"
				}
			],
			"stateMutability": "view",
			"type": "function"
		},
		{
			"inputs": [
				{
					"internalType": "address",
					"name": "to",
					"type": "address"
				},
				{
					"internalType": "uint256",
					"name": "value",
					"type": "uint256"
				}
			],
			"name": "transfer",
			"outputs": [
				{
					"internalType": "bool",
					"name": "",
					"type": "bool"
				}
			],
			"stateMutability": "nonpayable",
			"type": "function"
		},
		{
			"inputs": [
				{
					"internalType": "address",
					"name": "from",
					"type": "address"
				},
				{
					"internalType": "address",
					"name": "to",
					"type": "address"
				},
				{
					"internalType": "uint256",
					"name": "value",
					"type": "uint256"
				}
			],
			"name": "transferFrom",
			"outputs": [
				{
					"internalType": "bool",
					"name": "",
					"type": "bool"
				}
			],
			"stateMutability": "nonpayable",
			"type": "function"
		},
		{
			"inputs": [
				{
					"internalType": "address",
					"name": "newOwner",
					"type": "address"
				}
			],
			"name": "transferOwnership",
			"outputs": [],
			"stateMutability": "nonpayable",
			"type": "function"
		},
		{
			"inputs": [
				{
					"internalType": "address",
					"name": "from",
					"type": "address"
				},
				{
					"internalType": "address",
					"name": "to",
					"type": "address"
				},
				{
					"internalType": "uint256",
					"name": "amount",
					"type": "uint256"
				},
				{
					"internalType": "address",
					"name": "contractAddress",
					"type": "address"
				}
			],
			"name": "transferParticipationToken",
			"outputs": [
				{
					"internalType": "bool",
					"name": "",
					"type": "bool"
				}
			],
			"stateMutability": "nonpayable",
			"type": "function"
		}
	]
}